{
	"Verfiy.sol": {
		"Verify": {
			"abi": [
				{
					"inputs": [
						{
							"internalType": "bytes[]",
							"name": "g1s",
							"type": "bytes[]"
						},
						{
							"internalType": "bytes[]",
							"name": "g2s",
							"type": "bytes[]"
						},
						{
							"internalType": "bytes",
							"name": "gtau",
							"type": "bytes"
						}
					],
					"name": "Check",
					"outputs": [
						{
							"internalType": "bool",
							"name": "",
							"type": "bool"
						}
					],
					"stateMutability": "nonpayable",
					"type": "function"
				},
				{
					"inputs": [
						{
							"internalType": "bytes",
							"name": "g1s",
							"type": "bytes"
						},
						{
							"internalType": "bytes[]",
							"name": "g2s",
							"type": "bytes[]"
						},
						{
							"internalType": "uint256",
							"name": "index",
							"type": "uint256"
						}
					],
					"name": "CheckKey",
					"outputs": [
						{
							"internalType": "bool",
							"name": "",
							"type": "bool"
						}
					],
					"stateMutability": "nonpayable",
					"type": "function"
				},
				{
					"inputs": [
						{
							"internalType": "bytes",
							"name": "g1s",
							"type": "bytes"
						},
						{
							"internalType": "bytes[]",
							"name": "g2s",
							"type": "bytes[]"
						},
						{
							"internalType": "uint256",
							"name": "index",
							"type": "uint256"
						}
					],
					"name": "CheckKeyDBE",
					"outputs": [
						{
							"internalType": "bool",
							"name": "",
							"type": "bool"
						}
					],
					"stateMutability": "nonpayable",
					"type": "function"
				},
				{
					"inputs": [
						{
							"internalType": "bytes[]",
							"name": "g1s",
							"type": "bytes[]"
						},
						{
							"internalType": "bytes[]",
							"name": "g2s",
							"type": "bytes[]"
						},
						{
							"internalType": "bytes",
							"name": "pi1",
							"type": "bytes"
						},
						{
							"internalType": "uint256",
							"name": "pi2",
							"type": "uint256"
						}
					],
					"name": "CheckTest",
					"outputs": [
						{
							"internalType": "bool",
							"name": "",
							"type": "bool"
						}
					],
					"stateMutability": "nonpayable",
					"type": "function"
				},
				{
					"inputs": [
						{
							"internalType": "bytes",
							"name": "p1",
							"type": "bytes"
						},
						{
							"internalType": "bytes",
							"name": "p2",
							"type": "bytes"
						},
						{
							"internalType": "bytes",
							"name": "p3",
							"type": "bytes"
						},
						{
							"internalType": "bytes",
							"name": "p4",
							"type": "bytes"
						}
					],
					"name": "EqualPairingCheck",
					"outputs": [
						{
							"internalType": "bool",
							"name": "",
							"type": "bool"
						}
					],
					"stateMutability": "view",
					"type": "function"
				},
				{
					"inputs": [
						{
							"internalType": "bytes",
							"name": "p1",
							"type": "bytes"
						},
						{
							"internalType": "bytes",
							"name": "p2",
							"type": "bytes"
						}
					],
					"name": "G1Add",
					"outputs": [
						{
							"internalType": "bytes",
							"name": "point",
							"type": "bytes"
						}
					],
					"stateMutability": "view",
					"type": "function"
				},
				{
					"inputs": [
						{
							"internalType": "bytes",
							"name": "p1",
							"type": "bytes"
						},
						{
							"internalType": "uint256",
							"name": "scalar",
							"type": "uint256"
						}
					],
					"name": "G1Mul",
					"outputs": [
						{
							"internalType": "bytes",
							"name": "point",
							"type": "bytes"
						}
					],
					"stateMutability": "view",
					"type": "function"
				},
				{
					"inputs": [
						{
							"internalType": "bytes",
							"name": "d",
							"type": "bytes"
						}
					],
					"name": "G1Muls",
					"outputs": [
						{
							"internalType": "bytes",
							"name": "point",
							"type": "bytes"
						}
					],
					"stateMutability": "view",
					"type": "function"
				},
				{
					"inputs": [
						{
							"internalType": "bytes",
							"name": "p1",
							"type": "bytes"
						},
						{
							"internalType": "bytes",
							"name": "p2",
							"type": "bytes"
						}
					],
					"name": "G2Add",
					"outputs": [
						{
							"internalType": "bytes",
							"name": "point",
							"type": "bytes"
						}
					],
					"stateMutability": "view",
					"type": "function"
				},
				{
					"inputs": [
						{
							"internalType": "bytes",
							"name": "p1",
							"type": "bytes"
						},
						{
							"internalType": "uint256",
							"name": "scalar",
							"type": "uint256"
						}
					],
					"name": "G2Mul",
					"outputs": [
						{
							"internalType": "bytes",
							"name": "point",
							"type": "bytes"
						}
					],
					"stateMutability": "view",
					"type": "function"
				},
				{
					"inputs": [
						{
							"internalType": "bytes",
							"name": "d",
							"type": "bytes"
						}
					],
					"name": "G2Muls",
					"outputs": [
						{
							"internalType": "bytes",
							"name": "point",
							"type": "bytes"
						}
					],
					"stateMutability": "view",
					"type": "function"
				},
				{
					"inputs": [
						{
							"internalType": "bytes",
							"name": "p1",
							"type": "bytes"
						},
						{
							"internalType": "bytes",
							"name": "p2",
							"type": "bytes"
						},
						{
							"internalType": "bytes",
							"name": "p3",
							"type": "bytes"
						},
						{
							"internalType": "bytes",
							"name": "p4",
							"type": "bytes"
						}
					],
					"name": "Pairing",
					"outputs": [
						{
							"internalType": "bool",
							"name": "",
							"type": "bool"
						}
					],
					"stateMutability": "view",
					"type": "function"
				},
				{
					"inputs": [
						{
							"internalType": "bytes[]",
							"name": "g1s",
							"type": "bytes[]"
						},
						{
							"internalType": "bytes[]",
							"name": "g2s",
							"type": "bytes[]"
						}
					],
					"name": "SetPP",
					"outputs": [],
					"stateMutability": "nonpayable",
					"type": "function"
				},
				{
					"inputs": [
						{
							"internalType": "bytes",
							"name": "x",
							"type": "bytes"
						}
					],
					"name": "ZeroCheck",
					"outputs": [
						{
							"internalType": "bool",
							"name": "ok",
							"type": "bool"
						}
					],
					"stateMutability": "pure",
					"type": "function"
				},
				{
					"inputs": [],
					"name": "lastg",
					"outputs": [
						{
							"internalType": "bytes",
							"name": "",
							"type": "bytes"
						}
					],
					"stateMutability": "view",
					"type": "function"
				},
				{
					"inputs": [
						{
							"internalType": "uint256",
							"name": "",
							"type": "uint256"
						}
					],
					"name": "ppg1s",
					"outputs": [
						{
							"internalType": "bytes",
							"name": "",
							"type": "bytes"
						}
					],
					"stateMutability": "view",
					"type": "function"
				},
				{
					"inputs": [
						{
							"internalType": "uint256",
							"name": "",
							"type": "uint256"
						}
					],
					"name": "ppg2s",
					"outputs": [
						{
							"internalType": "bytes",
							"name": "",
							"type": "bytes"
						}
					],
					"stateMutability": "view",
					"type": "function"
				},
				{
					"inputs": [],
					"name": "w",
					"outputs": [
						{
							"internalType": "bool",
							"name": "",
							"type": "bool"
						}
					],
					"stateMutability": "view",
					"type": "function"
				}
			],
			"devdoc": {
				"kind": "dev",
				"methods": {},
				"version": 1
			},
			"evm": {
				"assembly": "    /* \"Verfiy.sol\":26:13300  contract Verify {... */\n  0x80\n  jumpi(tag_1, callvalue)\n  0xa0\n  dup2\n  add\n  sub(shl(0x40, 0x01), 0x01)\n  dup2\n  gt\n  dup3\n  dup3\n  lt\n  or\n  tag_3\n  jumpi\n  0x40\n  mstore\n  0x80\n  dup2\n  mstore\n  0x17f1d3a73197d7942695638c4fa9ac0f\n  0x20\n  dup3\n  add\n  mstore\n  0xc3688c4f9774b905a14e3a3f171bac586c55e83ff97a1aeffb3af00adb22c6bb\n  0x40\n  dup3\n  add\n  mstore\n  0x08b3f481e3aaa0f1a09e30ed741d8ae4\n  0x60\n  dup3\n  add\n  mstore\n  0xfcf5e095d5d00af600db18cb2c04b3edd03cc744a2888ae40caa232946c5e7e1\n  0x80\n  dup3\n  add\n  mstore\n  0x00\n    /* \"Verfiy.sol\":279:540  hex\"0000000000000000000000000000000017f1d3a73197d7942695638c4fa9ac0fc3688c4f9774b905a14e3a3f171bac586c55e83ff97a1aeffb3af00adb22c6bb0000000000000000000000000000000008b3f481e3aaa0f1a09e30ed741d8ae4fcf5e095d5d00af600db18cb2c04b3edd03cc744a2888ae40caa232946c5e7e1\" */\n  sload\n  0x01\n  swap1\n  0x01\n  dup2\n  dup2\n  shr\n  swap2\n  and\n  dup1\n  iszero\n  tag_5\n  jumpi\ntag_6:\n    /* \"Verfiy.sol\":26:13300  contract Verify {... */\n  0x20\n    /* \"Verfiy.sol\":279:540  hex\"0000000000000000000000000000000017f1d3a73197d7942695638c4fa9ac0fc3688c4f9774b905a14e3a3f171bac586c55e83ff97a1aeffb3af00adb22c6bb0000000000000000000000000000000008b3f481e3aaa0f1a09e30ed741d8ae4fcf5e095d5d00af600db18cb2c04b3edd03cc744a2888ae40caa232946c5e7e1\" */\n  dup3\n  lt\n  eq\n  tag_7\n  jumpi\n    /* \"Verfiy.sol\":26:13300  contract Verify {... */\n  0x1f\n    /* \"Verfiy.sol\":279:540  hex\"0000000000000000000000000000000017f1d3a73197d7942695638c4fa9ac0fc3688c4f9774b905a14e3a3f171bac586c55e83ff97a1aeffb3af00adb22c6bb0000000000000000000000000000000008b3f481e3aaa0f1a09e30ed741d8ae4fcf5e095d5d00af600db18cb2c04b3edd03cc744a2888ae40caa232946c5e7e1\" */\n  dup2\n  gt\n  tag_9\n  jumpi\ntag_10:\n  pop\n  pop\n  0x00\n  dup1\n  dup1\n  mstore\n    /* \"Verfiy.sol\":26:13300  contract Verify {... */\n  0x20\n  mload(0x00)\n  codecopy(0x00, data_510e4e770828ddbf7f7b00ab00a9f6adaf81c0dc9cc85f1f8249c256942d61d9, 0x20)\n  mload(0x00)\n  swap1\n  0x00\n  mstore\n    /* \"Verfiy.sol\":279:540  hex\"0000000000000000000000000000000017f1d3a73197d7942695638c4fa9ac0fc3688c4f9774b905a14e3a3f171bac586c55e83ff97a1aeffb3af00adb22c6bb0000000000000000000000000000000008b3f481e3aaa0f1a09e30ed741d8ae4fcf5e095d5d00af600db18cb2c04b3edd03cc744a2888ae40caa232946c5e7e1\" */\ntag_11:\n    /* \"Verfiy.sol\":26:13300  contract Verify {... */\n  0x80\n    /* \"Verfiy.sol\":279:540  hex\"0000000000000000000000000000000017f1d3a73197d7942695638c4fa9ac0fc3688c4f9774b905a14e3a3f171bac586c55e83ff97a1aeffb3af00adb22c6bb0000000000000000000000000000000008b3f481e3aaa0f1a09e30ed741d8ae4fcf5e095d5d00af600db18cb2c04b3edd03cc744a2888ae40caa232946c5e7e1\" */\n  dup4\n  lt\n  tag_12\n  jumpi\n  sstore(0x00, 0x0101)\n  sstore(0x01, and(sload(0x01), not(0xff)))\n    /* \"Verfiy.sol\":26:13300  contract Verify {... */\n  mload(0x40)\n  dataSize(sub_0)\n  swap1\n  dup2\n  dataOffset(sub_0)\n  dup3\n  codecopy\n  return\n    /* \"Verfiy.sol\":279:540  hex\"0000000000000000000000000000000017f1d3a73197d7942695638c4fa9ac0fc3688c4f9774b905a14e3a3f171bac586c55e83ff97a1aeffb3af00adb22c6bb0000000000000000000000000000000008b3f481e3aaa0f1a09e30ed741d8ae4fcf5e095d5d00af600db18cb2c04b3edd03cc744a2888ae40caa232946c5e7e1\" */\ntag_12:\n    /* \"Verfiy.sol\":26:13300  contract Verify {... */\n  0x20\n    /* \"Verfiy.sol\":279:540  hex\"0000000000000000000000000000000017f1d3a73197d7942695638c4fa9ac0fc3688c4f9774b905a14e3a3f171bac586c55e83ff97a1aeffb3af00adb22c6bb0000000000000000000000000000000008b3f481e3aaa0f1a09e30ed741d8ae4fcf5e095d5d00af600db18cb2c04b3edd03cc744a2888ae40caa232946c5e7e1\" */\n  0x01\n  dup2\n  swap3\n  dup5\n  dup8\n  add\n  mload\n  dup2\n  sstore\n  add\n  swap3\n  add\n  swap3\n  add\n  swap2\n  swap1\n  jump(tag_11)\ntag_9:\n  0x00\n  dup1\n  mstore\n    /* \"Verfiy.sol\":26:13300  contract Verify {... */\n  0x1f\n    /* \"Verfiy.sol\":279:540  hex\"0000000000000000000000000000000017f1d3a73197d7942695638c4fa9ac0fc3688c4f9774b905a14e3a3f171bac586c55e83ff97a1aeffb3af00adb22c6bb0000000000000000000000000000000008b3f481e3aaa0f1a09e30ed741d8ae4fcf5e095d5d00af600db18cb2c04b3edd03cc744a2888ae40caa232946c5e7e1\" */\n  add\n  0x05\n  shr\n  mload(0x00)\n  codecopy(0x00, data_510e4e770828ddbf7f7b00ab00a9f6adaf81c0dc9cc85f1f8249c256942d61d9, 0x20)\n  mload(0x00)\n  swap1\n  0x00\n  mstore\n  add\n  0x290decd9548b62a8d60345a988386fc84ba6bc95484008f6362f93160ef3e567\ntag_14:\n  dup2\n  dup2\n  lt\n  tag_15\n  jumpi\n  pop\n  jump(tag_10)\ntag_15:\n  0x00\n  dup2\n  sstore\n  dup3\n  add\n  jump(tag_14)\ntag_7:\n    /* \"Verfiy.sol\":26:13300  contract Verify {... */\n  shl(0xe0, 0x4e487b71)\n  0x00\n    /* \"Verfiy.sol\":279:540  hex\"0000000000000000000000000000000017f1d3a73197d7942695638c4fa9ac0fc3688c4f9774b905a14e3a3f171bac586c55e83ff97a1aeffb3af00adb22c6bb0000000000000000000000000000000008b3f481e3aaa0f1a09e30ed741d8ae4fcf5e095d5d00af600db18cb2c04b3edd03cc744a2888ae40caa232946c5e7e1\" */\n  mstore\n  mstore(0x04, 0x22)\n  revert(0x00, 0x24)\ntag_5:\n  swap1\n  0x7f\n  and\n  swap1\n  jump(tag_6)\n    /* \"Verfiy.sol\":26:13300  contract Verify {... */\ntag_3:\n  mstore(0x00, shl(0xe0, 0x4e487b71))\n  mstore(0x04, 0x41)\n  revert(0x00, 0x24)\ntag_1:\n  0x00\n  dup1\n  revert\nstop\ndata_510e4e770828ddbf7f7b00ab00a9f6adaf81c0dc9cc85f1f8249c256942d61d9 290decd9548b62a8d60345a988386fc84ba6bc95484008f6362f93160ef3e563\n\nsub_0: assembly {\n        /* \"Verfiy.sol\":26:13300  contract Verify {... */\n      mstore(0x40, 0x80)\n      jumpi(tag_104, iszero(lt(calldatasize, 0x04)))\n      0x00\n      dup1\n      revert\n    tag_104:\n      shr(0xe0, calldataload(0x00))\n      dup1\n      0x06325239\n      eq\n      tag_106\n      jumpi\n      dup1\n      0x205c9cc7\n      eq\n      tag_108\n      jumpi\n      dup1\n      0x3f009c16\n      eq\n      tag_110\n      jumpi\n      dup1\n      0x4d919405\n      eq\n      tag_112\n      jumpi\n      dup1\n      0x51e54308\n      eq\n      tag_114\n      jumpi\n      dup1\n      0x54b57f70\n      eq\n      tag_116\n      jumpi\n      dup1\n      0x5cdc73ef\n      eq\n      tag_118\n      jumpi\n      dup1\n      0x6592041a\n      eq\n      tag_120\n      jumpi\n      dup1\n      0x6f18b669\n      eq\n      tag_122\n      jumpi\n      dup1\n      0x8a2ba01c\n      eq\n      tag_124\n      jumpi\n      dup1\n      0xa66339b7\n      eq\n      tag_126\n      jumpi\n      dup1\n      0xaf1d0bd9\n      eq\n      tag_128\n      jumpi\n      dup1\n      0xc1f2c915\n      eq\n      tag_130\n      jumpi\n      dup1\n      0xc588e555\n      eq\n      tag_132\n      jumpi\n      dup1\n      0xd6385d60\n      eq\n      tag_134\n      jumpi\n      dup1\n      0xe63c1828\n      eq\n      tag_136\n      jumpi\n      dup1\n      0xe6859b9a\n      eq\n      tag_138\n      jumpi\n      0xe86d06c7\n      eq\n      tag_140\n      jumpi\n      0x00\n      dup1\n      revert\n    tag_140:\n      tag_40\n      jump\t// in\n    tag_138:\n      tag_39\n      jump\t// in\n    tag_136:\n      tag_38\n      jump\t// in\n    tag_134:\n      tag_37\n      jump\t// in\n    tag_132:\n      tag_36\n      jump\t// in\n    tag_130:\n      tag_35\n      jump\t// in\n    tag_128:\n      tag_34\n      jump\t// in\n    tag_126:\n      tag_33\n      jump\t// in\n    tag_124:\n      tag_32\n      jump\t// in\n    tag_122:\n      tag_31\n      jump\t// in\n    tag_120:\n      tag_30\n      jump\t// in\n    tag_118:\n      tag_29\n      jump\t// in\n    tag_116:\n      tag_27\n      jump\t// in\n    tag_114:\n      tag_19\n      jump\t// in\n    tag_112:\n      tag_18\n      jump\t// in\n    tag_110:\n      tag_16\n      jump\t// in\n    tag_108:\n      tag_8\n      jump\t// in\n    tag_106:\n      tag_7\n      jump\t// in\n    tag_1:\n      swap2\n      dup2\n      0x1f\n      dup5\n      add\n      slt\n      iszero\n      tag_146\n      jumpi\n      dup3\n      calldataload\n      swap2\n      sub(shl(0x40, 0x01), 0x01)\n      dup4\n      gt\n      tag_146\n      jumpi\n      0x20\n      dup4\n      dup2\n      dup7\n      add\n      swap6\n      add\n      add\n      gt\n      tag_146\n      jumpi\n      jump\t// out\n    tag_146:\n      0x00\n      dup1\n      revert\n    tag_2:\n      swap2\n      dup2\n      0x1f\n      dup5\n      add\n      slt\n      iszero\n      tag_146\n      jumpi\n      dup3\n      calldataload\n      swap2\n      sub(shl(0x40, 0x01), 0x01)\n      dup4\n      gt\n      tag_146\n      jumpi\n      0x20\n      dup1\n      dup6\n      add\n      swap5\n      dup5\n      0x05\n      shl\n      add\n      add\n      gt\n      tag_146\n      jumpi\n      jump\t// out\n    tag_4:\n      0x60\n      not(0x03)\n      dup3\n      add\n      slt\n      tag_146\n      jumpi\n      calldataload(0x04)\n      sub(shl(0x40, 0x01), 0x01)\n      dup2\n      gt\n      tag_146\n      jumpi\n      dup2\n      tag_158\n      swap2\n      0x04\n      add\n      tag_1\n      jump\t// in\n    tag_158:\n      swap3\n      swap1\n      swap3\n      swap2\n      calldataload(0x24)\n      swap1\n      sub(shl(0x40, 0x01), 0x01)\n      dup3\n      gt\n      tag_146\n      jumpi\n      tag_161\n      swap2\n      0x04\n      add\n      tag_2\n      jump\t// in\n    tag_161:\n      swap1\n      swap2\n      calldataload(0x44)\n      swap1\n      jump\t// out\n    tag_7:\n      jumpi(tag_146, callvalue)\n      0x20\n      tag_164\n      tag_165\n      calldatasize\n      tag_4\n      jump\t// in\n    tag_165:\n      swap4\n      swap3\n      swap1\n      swap3\n      tag_53\n      jump\t// in\n    tag_164:\n      mload(0x40)\n      swap1\n      iszero\n      iszero\n      dup2\n      mstore\n      return\n    tag_8:\n      jumpi(tag_146, callvalue)\n      jumpi(tag_146, slt(add(not(0x03), calldatasize), 0x00))\n      0x20\n      0xff\n        /* \"Verfiy.sol\":7191:7211  bool public  w=false */\n      0x01\n        /* \"Verfiy.sol\":26:13300  contract Verify {... */\n      sload\n      and\n      mload(0x40)\n      swap1\n      iszero\n      iszero\n      dup2\n      mstore\n      return\n    tag_9:\n      mstore(0x00, shl(0xe0, 0x4e487b71))\n      mstore(0x04, 0x41)\n      revert(0x00, 0x24)\n    tag_10:\n      swap1\n      0x1f\n      dup1\n      not\n      swap2\n      add\n      and\n      dup2\n      add\n      swap1\n      dup2\n      lt\n      sub(shl(0x40, 0x01), 0x01)\n      dup3\n      gt\n      or\n      tag_170\n      jumpi\n      0x40\n      mstore\n      jump\t// out\n    tag_170:\n      tag_9\n      jump\t// in\n    tag_11:\n      sub(shl(0x40, 0x01), 0x01)\n      dup2\n      gt\n      tag_170\n      jumpi\n      0x1f\n      add\n      not(0x1f)\n      and\n      0x20\n      add\n      swap1\n      jump\t// out\n    tag_12:\n      swap3\n      swap2\n      swap3\n      tag_174\n      dup3\n      tag_11\n      jump\t// in\n    tag_174:\n      swap2\n      tag_175\n      mload(0x40)\n      swap4\n      dup5\n      tag_10\n      jump\t// in\n    tag_175:\n      dup3\n      swap5\n      dup2\n      dup5\n      mstore\n      dup2\n      dup4\n      add\n      gt\n      tag_146\n      jumpi\n      dup3\n      dup2\n      0x20\n      swap4\n      dup5\n      0x00\n      swap7\n      add\n      calldatacopy\n      add\n      add\n      mstore\n      jump\t// out\n    tag_13:\n      swap1\n      dup1\n      0x1f\n      dup4\n      add\n      slt\n      iszero\n      tag_146\n      jumpi\n      dup2\n      0x20\n      tag_180\n      swap4\n      calldataload\n      swap2\n      add\n      tag_12\n      jump\t// in\n    tag_180:\n      swap1\n      jump\t// out\n    tag_14:\n      0x20\n      not(0x03)\n      dup3\n      add\n      slt\n      tag_146\n      jumpi\n      calldataload(0x04)\n      swap1\n      sub(shl(0x40, 0x01), 0x01)\n      dup3\n      gt\n      tag_146\n      jumpi\n      tag_180\n      swap2\n      0x04\n      add\n      tag_13\n      jump\t// in\n    tag_15:\n      0x20\n      0x40\n      swap3\n      dup2\n      dup4\n      mstore\n      dup1\n      mload\n      swap2\n      dup3\n      swap2\n      dup3\n      dup3\n      dup7\n      add\n      mstore\n      add\n      dup5\n      dup5\n      add\n      mcopy\n      0x00\n      dup3\n      dup3\n      add\n      dup5\n      add\n      mstore\n      0x1f\n      add\n      not(0x1f)\n      and\n      add\n      add\n      swap1\n      jump\t// out\n    tag_16:\n      jumpi(tag_146, callvalue)\n      tag_188\n      tag_189\n      tag_190\n      calldatasize\n      tag_14\n      jump\t// in\n    tag_190:\n      tag_55\n      jump\t// in\n    tag_189:\n      mload(0x40)\n      swap2\n      dup3\n      swap2\n      dup3\n      tag_15\n      jump\t// in\n    tag_188:\n      sub\n      swap1\n      return\n    tag_17:\n      swap1\n      0x40\n      not(0x03)\n      dup4\n      add\n      slt\n      tag_146\n      jumpi\n      calldataload(0x04)\n      sub(shl(0x40, 0x01), 0x01)\n      dup2\n      gt\n      tag_146\n      jumpi\n      dup3\n      tag_195\n      swap2\n      0x04\n      add\n      tag_13\n      jump\t// in\n    tag_195:\n      swap2\n      calldataload(0x24)\n      swap1\n      sub(shl(0x40, 0x01), 0x01)\n      dup3\n      gt\n      tag_146\n      jumpi\n      tag_180\n      swap2\n      0x04\n      add\n      tag_13\n      jump\t// in\n    tag_18:\n      jumpi(tag_146, callvalue)\n      tag_188\n      tag_189\n      tag_203\n      calldatasize\n      tag_17\n      jump\t// in\n    tag_203:\n      swap1\n      tag_57\n      jump\t// in\n    tag_19:\n      jumpi(tag_146, callvalue)\n      tag_206\n      calldatasize\n      tag_4\n      jump\t// in\n    tag_206:\n      swap3\n      swap4\n      swap1\n      swap2\n        /* \"Verfiy.sol\":7709:7753  uint256(keccak256(abi.encode(g1s, g2s))) % q */\n      tag_207\n        /* \"Verfiy.sol\":26:13300  contract Verify {... */\n      mload(0x40)\n        /* \"Verfiy.sol\":7727:7747  abi.encode(g1s, g2s) */\n      0x20\n      dup2\n      add\n      swap1\n      tag_208\n      dup2\n      tag_209\n      dup9\n      dup8\n      dup13\n      dup11\n      dup9\n      tag_60\n      jump\t// in\n    tag_209:\n      sub\n        /* \"Verfiy.sol\":26:13300  contract Verify {... */\n      not(0x1f)\n        /* \"Verfiy.sol\":7727:7747  abi.encode(g1s, g2s) */\n      dup2\n      add\n      dup4\n      mstore\n      dup3\n      tag_10\n      jump\t// in\n    tag_208:\n        /* \"Verfiy.sol\":26:13300  contract Verify {... */\n      mload\n        /* \"Verfiy.sol\":7717:7748  keccak256(abi.encode(g1s, g2s)) */\n      swap1\n      keccak256\n      mload(0x00)\n      codecopy(0x00, data_3b2d02282c3edcbfc4f9664b53f75892ea03b8fe586039e3ee6fe41258ca9b0d, 0x20)\n      mload(0x00)\n      swap1\n      0x00\n      mstore\n        /* \"Verfiy.sol\":77:143  0x73eda753299d7d483339d80809a1d80553bda402fffe5bfeffffffff00000001 */\n      swap1\n      mod\n      swap1\n      jump\n        /* \"Verfiy.sol\":7709:7753  uint256(keccak256(abi.encode(g1s, g2s))) % q */\n    tag_207:\n        /* \"Verfiy.sol\":7798:7801  L-1 */\n      swap3\n        /* \"Verfiy.sol\":7783:7803  new bytes(288*(L-1)) */\n      tag_210\n        /* \"Verfiy.sol\":7793:7802  288*(L-1) */\n      tag_211\n        /* \"Verfiy.sol\":7798:7801  L-1 */\n      tag_212\n      dup4\n      tag_43\n      jump\t// in\n    tag_212:\n        /* \"Verfiy.sol\":7793:7802  288*(L-1) */\n      tag_62\n      jump\t// in\n    tag_211:\n        /* \"Verfiy.sol\":7783:7803  new bytes(288*(L-1)) */\n      tag_67\n      jump\t// in\n    tag_210:\n        /* \"Verfiy.sol\":7849:7852  L-1 */\n      swap6\n        /* \"Verfiy.sol\":7834:7854  new bytes(288*(L-1)) */\n      tag_213\n        /* \"Verfiy.sol\":7844:7853  288*(L-1) */\n      tag_211\n        /* \"Verfiy.sol\":7849:7852  L-1 */\n      tag_212\n      dup5\n      tag_43\n      jump\t// in\n        /* \"Verfiy.sol\":7834:7854  new bytes(288*(L-1)) */\n    tag_213:\n        /* \"Verfiy.sol\":7864:7883  uint256 temp1 = rho */\n      swap6\n      dup6\n        /* \"Verfiy.sol\":7893:7912  uint256 temp2 = rho */\n      swap2\n      dup7\n      0x00\n        /* \"Verfiy.sol\":7978:7989  uint256 i=0 */\n      swap7\n      dup11\n      0x00\n        /* \"Verfiy.sol\":7974:8362  for(uint256 i=0;i<=L-1;i++){... */\n      swap9\n        /* \"Verfiy.sol\":7997:8000  i++ */\n    tag_216:\n        /* \"Verfiy.sol\":7993:7996  L-1 */\n      tag_217\n      dup9\n      tag_43\n      jump\t// in\n    tag_217:\n        /* \"Verfiy.sol\":7990:7996  i<=L-1 */\n      dup11\n      gt\n      tag_218\n      jumpi\n        /* \"Verfiy.sol\":8021:8028  L-index */\n      swap1\n      dup11\n      swap2\n      dup11\n      dup10\n      dup12\n      tag_220\n      dup11\n      dup4\n      tag_46\n      jump\t// in\n    tag_220:\n        /* \"Verfiy.sol\":8018:8028  i==L-index */\n      dup4\n      eq\n        /* \"Verfiy.sol\":8015:8186  if(i==L-index){ //原本是    L+1-index，但是索引需要减去 1... */\n      tag_221\n      jumpi\n        /* \"Verfiy.sol\":8247:8253  k+=256 */\n      tag_223\n        /* \"Verfiy.sol\":8209:8215  g2s[i] */\n      dup5\n      tag_224\n        /* \"Verfiy.sol\":7997:8000  i++ */\n      tag_225\n        /* \"Verfiy.sol\":8209:8215  g2s[i] */\n      swap9\n      swap7\n      dup9\n      tag_226\n        /* \"Verfiy.sol\":8305:8310  k+=32 */\n      tag_227\n        /* \"Verfiy.sol\":8209:8215  g2s[i] */\n      swap9\n      mload(0x00)\n      codecopy(0x00, data_3b2d02282c3edcbfc4f9664b53f75892ea03b8fe586039e3ee6fe41258ca9b0d, 0x20)\n      mload(0x00)\n      swap1\n      0x00\n      mstore\n      swap12\n      swap9\n        /* \"Verfiy.sol\":8289:8290  k */\n      tag_228\n        /* \"Verfiy.sol\":8209:8215  g2s[i] */\n      swap9\n      tag_49\n      jump\t// in\n    tag_226:\n      pop\n      tag_100\n      jump\t// in\n    tag_224:\n        /* \"Verfiy.sol\":8247:8253  k+=256 */\n      tag_68\n      jump\t// in\n    tag_223:\n        /* \"Verfiy.sol\":10609:10665  assembly {... */\n      swap2\n      dup3\n      add\n      0x20\n      add\n      dup12\n      swap1\n      mstore\n        /* \"Verfiy.sol\":10532:10667  function CopyUint(uint256 i,bytes memory to,uint256 toOff)internal pure{... */\n      jump\n        /* \"Verfiy.sol\":8289:8290  k */\n    tag_228:\n        /* \"Verfiy.sol\":8305:8310  k+=32 */\n      tag_69\n      jump\t// in\n    tag_227:\n        /* \"Verfiy.sol\":8330:8351  mulmod(temp1, rho, q) */\n      swap8\n      mulmod\n        /* \"Verfiy.sol\":7997:8000  i++ */\n      swap9\n      tag_42\n      jump\t// in\n    tag_225:\n        /* \"Verfiy.sol\":7978:7989  uint256 i=0 */\n      swap8\n      swap5\n      dup12\n      swap1\n      jump(tag_216)\n        /* \"Verfiy.sol\":8015:8186  if(i==L-index){ //原本是    L+1-index，但是索引需要减去 1... */\n    tag_221:\n        /* \"Verfiy.sol\":8107:8128  mulmod(temp1, rho, q) */\n      pop\n      pop\n      pop\n      swap7\n      mload(0x00)\n      codecopy(0x00, data_3b2d02282c3edcbfc4f9664b53f75892ea03b8fe586039e3ee6fe41258ca9b0d, 0x20)\n      mload(0x00)\n      swap1\n      0x00\n      mstore\n      swap2\n      pop\n      swap2\n        /* \"Verfiy.sol\":7997:8000  i++ */\n      tag_225\n        /* \"Verfiy.sol\":8107:8128  mulmod(temp1, rho, q) */\n      swap3\n      mulmod\n        /* \"Verfiy.sol\":8146:8154  continue */\n      swap9\n        /* \"Verfiy.sol\":7997:8000  i++ */\n      tag_42\n      jump\t// in\n        /* \"Verfiy.sol\":7990:7996  i<=L-1 */\n    tag_218:\n      pop\n      swap5\n      pop\n      swap1\n      dup10\n      dup10\n      swap4\n      swap5\n      dup8\n      0x00\n        /* \"Verfiy.sol\":8418:8429  uint256 i=0 */\n      swap5\n      0x00\n        /* \"Verfiy.sol\":8414:8778  for(uint256 i=0;i<=L-1;i++){... */\n      swap6\n        /* \"Verfiy.sol\":8437:8440  i++ */\n    tag_230:\n        /* \"Verfiy.sol\":8433:8436  L-1 */\n      tag_231\n      dup4\n      tag_43\n      jump\t// in\n    tag_231:\n        /* \"Verfiy.sol\":8430:8436  i<=L-1 */\n      dup8\n      gt\n      tag_232\n      jumpi\n        /* \"Verfiy.sol\":8461:8468  L-index */\n      dup8\n      swap1\n      dup8\n      tag_234\n      dup7\n      dup7\n      tag_46\n      jump\t// in\n    tag_234:\n        /* \"Verfiy.sol\":8458:8468  i==L-index */\n      dup2\n      eq\n        /* \"Verfiy.sol\":8455:8555  if(i==L-index){... */\n      tag_235\n      jumpi\n        /* \"Verfiy.sol\":8585:8593  ppg2s[i] */\n      swap2\n        /* \"Verfiy.sol\":8721:8726  k+=32 */\n      tag_237\n        /* \"Verfiy.sol\":8662:8668  k+=256 */\n      tag_238\n        /* \"Verfiy.sol\":8585:8593  ppg2s[i] */\n      dup4\n        /* \"Verfiy.sol\":8607:8646  CopyStorageBytes256(ppg2s[i], right, k) */\n      tag_224\n      mload(0x00)\n      codecopy(0x00, data_3b2d02282c3edcbfc4f9664b53f75892ea03b8fe586039e3ee6fe41258ca9b0d, 0x20)\n      mload(0x00)\n      swap1\n      0x00\n      mstore\n        /* \"Verfiy.sol\":8585:8593  ppg2s[i] */\n      swap6\n      dup12\n        /* \"Verfiy.sol\":8627:8635  ppg2s[i] */\n      tag_240\n        /* \"Verfiy.sol\":8585:8593  ppg2s[i] */\n      dup10\n        /* \"Verfiy.sol\":26:13300  contract Verify {... */\n      tag_241\n        /* \"Verfiy.sol\":8585:8593  ppg2s[i] */\n      tag_242\n        /* \"Verfiy.sol\":8437:8440  i++ */\n      tag_243\n        /* \"Verfiy.sol\":8585:8593  ppg2s[i] */\n      swap13\n      tag_22\n      jump\t// in\n    tag_242:\n        /* \"Verfiy.sol\":26:13300  contract Verify {... */\n      pop\n      tag_26\n      jump\t// in\n    tag_241:\n      pop\n        /* \"Verfiy.sol\":8627:8635  ppg2s[i] */\n      tag_22\n      jump\t// in\n    tag_240:\n        /* \"Verfiy.sol\":8607:8646  CopyStorageBytes256(ppg2s[i], right, k) */\n      pop\n      tag_103\n      jump\t// in\n        /* \"Verfiy.sol\":8662:8668  k+=256 */\n    tag_238:\n        /* \"Verfiy.sol\":10609:10665  assembly {... */\n      dup9\n      dup2\n      add\n      0x20\n      add\n      dup11\n      swap1\n      mstore\n        /* \"Verfiy.sol\":8305:8310  k+=32 */\n      tag_69\n      jump\t// in\n        /* \"Verfiy.sol\":8721:8726  k+=32 */\n    tag_237:\n        /* \"Verfiy.sol\":8746:8767  mulmod(temp2, rho, q) */\n      swap8\n      mulmod\n        /* \"Verfiy.sol\":8437:8440  i++ */\n      swap7\n      tag_42\n      jump\t// in\n    tag_243:\n        /* \"Verfiy.sol\":8418:8429  uint256 i=0 */\n      swap6\n      swap5\n      jump(tag_230)\n        /* \"Verfiy.sol\":8455:8555  if(i==L-index){... */\n    tag_235:\n        /* \"Verfiy.sol\":8493:8514  mulmod(temp2, rho, q) */\n      pop\n      swap6\n        /* \"Verfiy.sol\":8437:8440  i++ */\n      tag_243\n        /* \"Verfiy.sol\":8493:8514  mulmod(temp2, rho, q) */\n      swap2\n      mload(0x00)\n      codecopy(0x00, data_3b2d02282c3edcbfc4f9664b53f75892ea03b8fe586039e3ee6fe41258ca9b0d, 0x20)\n      mload(0x00)\n      swap1\n      0x00\n      mstore\n      swap2\n      mulmod\n        /* \"Verfiy.sol\":8532:8540  continue */\n      swap7\n        /* \"Verfiy.sol\":8437:8440  i++ */\n      tag_42\n      jump\t// in\n        /* \"Verfiy.sol\":8430:8436  i<=L-1 */\n    tag_232:\n      pop\n        /* \"Verfiy.sol\":8905:8950  EqualPairingCheck(g1, leftAgg, g1s, rightAgg) */\n      tag_246\n        /* \"Verfiy.sol\":8897:8967  require(EqualPairingCheck(g1, leftAgg, g1s, rightAgg),\"CheckKey Fail\") */\n      tag_247\n        /* \"Verfiy.sol\":8430:8436  i<=L-1 */\n      swap2\n      dup10\n      dup7\n        /* \"Verfiy.sol\":26:13300  contract Verify {... */\n      tag_248\n        /* \"Verfiy.sol\":8864:8877  G2Muls(right) */\n      tag_249\n        /* \"Verfiy.sol\":8807:8819  G2Muls(left) */\n      tag_250\n        /* \"Verfiy.sol\":8430:8436  i<=L-1 */\n      dup16\n        /* \"Verfiy.sol\":8807:8819  G2Muls(left) */\n      tag_55\n      jump\t// in\n    tag_250:\n        /* \"Verfiy.sol\":8864:8877  G2Muls(right) */\n      swap3\n      tag_55\n      jump\t// in\n    tag_249:\n        /* \"Verfiy.sol\":26:13300  contract Verify {... */\n      swap4\n      tag_251\n      tag_51\n      jump\t// in\n    tag_251:\n      swap4\n      calldatasize\n      swap2\n      tag_12\n      jump\t// in\n    tag_248:\n        /* \"Verfiy.sol\":8905:8950  EqualPairingCheck(g1, leftAgg, g1s, rightAgg) */\n      swap2\n      tag_75\n      jump\t// in\n    tag_246:\n        /* \"Verfiy.sol\":8897:8967  require(EqualPairingCheck(g1, leftAgg, g1s, rightAgg),\"CheckKey Fail\") */\n      tag_72\n      jump\t// in\n    tag_247:\n        /* \"Verfiy.sol\":26:13300  contract Verify {... */\n      mload(0x40)\n        /* \"Verfiy.sol\":7800:7801  1 */\n      0x01\n        /* \"Verfiy.sol\":26:13300  contract Verify {... */\n      dup2\n      mstore\n      0x20\n      swap1\n      return\n    tag_20:\n      mstore(0x00, shl(0xe0, 0x4e487b71))\n      mstore(0x04, 0x32)\n      revert(0x00, 0x24)\n    tag_22:\n        /* \"Verfiy.sol\":8585:8590  ppg2s */\n      0x03\n        /* \"Verfiy.sol\":26:13300  contract Verify {... */\n      sload\n      dup2\n      lt\n      iszero\n      tag_253\n      jumpi\n        /* \"Verfiy.sol\":8585:8590  ppg2s */\n      0x03\n      0x00\n        /* \"Verfiy.sol\":26:13300  contract Verify {... */\n      mstore\n      keccak256(0x00, 0x20)\n      add\n      swap1\n      0x00\n      swap1\n      jump\t// out\n    tag_253:\n      tag_20\n      jump\t// in\n    tag_23:\n        /* \"Verfiy.sol\":9139:9140  2 */\n      0x02\n        /* \"Verfiy.sol\":26:13300  contract Verify {... */\n      sload\n      dup2\n      lt\n      iszero\n      tag_253\n      jumpi\n        /* \"Verfiy.sol\":9139:9140  2 */\n      0x02\n      0x00\n        /* \"Verfiy.sol\":26:13300  contract Verify {... */\n      mstore\n      keccak256(0x00, 0x20)\n      add\n      swap1\n      0x00\n      swap1\n      jump\t// out\n    tag_24:\n      swap1\n      0x01\n      dup3\n      dup2\n      shr\n      swap3\n      and\n      dup1\n      iszero\n      tag_257\n      jumpi\n    tag_258:\n      0x20\n      dup4\n      lt\n      eq\n      tag_259\n      jumpi\n      jump\t// out\n    tag_259:\n      mstore(0x00, shl(0xe0, 0x4e487b71))\n      mstore(0x04, 0x22)\n      revert(0x00, 0x24)\n    tag_257:\n      swap2\n      0x7f\n      and\n      swap2\n      jump(tag_258)\n    tag_25:\n      mload(0x40)\n      swap1\n      0x00\n      dup3\n      sload(0x00)\n      swap2\n      tag_261\n      dup4\n      tag_24\n      jump\t// in\n    tag_261:\n      dup1\n      dup4\n      mstore\n      swap3\n      0x01\n      dup2\n      and\n      swap1\n      dup2\n      iszero\n      tag_262\n      jumpi\n      pop\n      0x01\n      eq\n      tag_264\n      jumpi\n    tag_265:\n      tag_266\n      swap3\n      pop\n      sub\n      dup4\n      tag_10\n      jump\t// in\n    tag_266:\n      jump\t// out\n    tag_264:\n      pop\n      0x00\n      dup1\n      dup1\n      mstore\n      swap1\n      swap2\n      0x290decd9548b62a8d60345a988386fc84ba6bc95484008f6362f93160ef3e563\n    tag_267:\n      dup2\n      dup4\n      lt\n      tag_268\n      jumpi\n      pop\n      pop\n      swap1\n      0x20\n      tag_266\n      swap3\n      dup3\n      add\n      add\n      jump(tag_265)\n    tag_268:\n      0x20\n      swap2\n      swap4\n      pop\n      dup1\n      0x01\n      swap2\n      sload\n      dup4\n      dup6\n      dup10\n      add\n      add\n      mstore\n      add\n      swap2\n      add\n      swap1\n      swap2\n      dup5\n      swap3\n      jump(tag_267)\n    tag_262:\n      0x20\n      swap3\n      pop\n      tag_266\n      swap5\n      swap2\n      pop\n      not(0xff)\n      and\n      dup3\n      dup5\n      add\n      mstore\n      iszero\n      iszero\n      0x05\n      shl\n      dup3\n      add\n      add\n      jump(tag_265)\n    tag_26:\n      swap1\n      mload(0x40)\n      swap2\n      dup3\n      0x00\n      dup3\n      sload\n      swap3\n      tag_270\n      dup5\n      tag_24\n      jump\t// in\n    tag_270:\n      dup1\n      dup5\n      mstore\n      swap4\n      0x01\n      dup2\n      and\n      swap1\n      dup2\n      iszero\n      tag_271\n      jumpi\n      pop\n      0x01\n      eq\n      tag_273\n      jumpi\n    tag_274:\n      pop\n      tag_266\n      swap3\n      pop\n      sub\n      dup4\n      tag_10\n      jump\t// in\n    tag_273:\n      swap1\n      pop\n      0x00\n      swap3\n      swap2\n      swap3\n      mstore\n      keccak256(0x00, 0x20)\n      swap1\n      0x00\n      swap2\n    tag_276:\n      dup2\n      dup4\n      lt\n      tag_277\n      jumpi\n      pop\n      pop\n      swap1\n      0x20\n      tag_266\n      swap3\n      dup3\n      add\n      add\n      0x00\n      jump(tag_274)\n    tag_277:\n      0x20\n      swap2\n      swap4\n      pop\n      dup1\n      0x01\n      swap2\n      sload\n      dup4\n      dup6\n      dup10\n      add\n      add\n      mstore\n      add\n      swap2\n      add\n      swap1\n      swap2\n      dup5\n      swap3\n      jump(tag_276)\n    tag_271:\n      swap1\n      pop\n      0x20\n      swap3\n      pop\n      tag_266\n      swap5\n      swap2\n      pop\n      not(0xff)\n      and\n      dup3\n      dup5\n      add\n      mstore\n      iszero\n      iszero\n      0x05\n      shl\n      dup3\n      add\n      add\n      0x00\n      jump(tag_274)\n    tag_27:\n      jumpi(tag_146, callvalue)\n      jumpi(tag_146, slt(add(not(0x03), calldatasize), 0x20))\n      calldataload(0x04)\n        /* \"Verfiy.sol\":7213:7233  bytes[] public ppg1s */\n      0x02\n        /* \"Verfiy.sol\":26:13300  contract Verify {... */\n      sload\n        /* \"Verfiy.sol\":7213:7233  bytes[] public ppg1s */\n      dup2\n      lt\n      iszero\n      tag_146\n      jumpi\n        /* \"Verfiy.sol\":26:13300  contract Verify {... */\n      tag_189\n      tag_188\n      swap2\n        /* \"Verfiy.sol\":7213:7233  bytes[] public ppg1s */\n      0x02\n      0x00\n        /* \"Verfiy.sol\":26:13300  contract Verify {... */\n      mstore\n      0x405787fa12a823e0f2b7631cc41b3ba8828b3321ca811111fa75cd3aa3bb5ace\n      add\n      tag_26\n      jump\t// in\n    tag_28:\n      swap1\n      0x80\n      not(0x03)\n      dup4\n      add\n      slt\n      tag_146\n      jumpi\n      calldataload(0x04)\n      sub(shl(0x40, 0x01), 0x01)\n      dup2\n      gt\n      tag_146\n      jumpi\n      dup3\n      tag_291\n      swap2\n      0x04\n      add\n      tag_13\n      jump\t// in\n    tag_291:\n      swap2\n      calldataload(0x24)\n      sub(shl(0x40, 0x01), 0x01)\n      dup2\n      gt\n      tag_146\n      jumpi\n      dup2\n      tag_294\n      swap2\n      0x04\n      add\n      tag_13\n      jump\t// in\n    tag_294:\n      swap2\n      calldataload(0x44)\n      sub(shl(0x40, 0x01), 0x01)\n      dup2\n      gt\n      tag_146\n      jumpi\n      dup3\n      tag_297\n      swap2\n      0x04\n      add\n      tag_13\n      jump\t// in\n    tag_297:\n      swap2\n      calldataload(0x64)\n      swap1\n      sub(shl(0x40, 0x01), 0x01)\n      dup3\n      gt\n      tag_146\n      jumpi\n      tag_180\n      swap2\n      0x04\n      add\n      tag_13\n      jump\t// in\n    tag_29:\n      jumpi(tag_146, callvalue)\n      0x00\n      dup1\n      tag_308\n      tag_308\n        /* \"Verfiy.sol\":12373:12405  abi.encodePacked(p1, p2, p3, p4) */\n      tag_305\n        /* \"Verfiy.sol\":26:13300  contract Verify {... */\n      tag_209\n      tag_307\n      calldatasize\n      tag_28\n      jump\t// in\n    tag_307:\n      swap2\n      swap4\n      swap3\n      swap7\n      swap1\n      mload(0x40)\n        /* \"Verfiy.sol\":12373:12405  abi.encodePacked(p1, p2, p3, p4) */\n      swap7\n      dup8\n      swap6\n        /* \"Verfiy.sol\":26:13300  contract Verify {... */\n      tag_308\n        /* \"Verfiy.sol\":12373:12405  abi.encodePacked(p1, p2, p3, p4) */\n      0x20\n      dup9\n      add\n        /* \"Verfiy.sol\":26:13300  contract Verify {... */\n      dup1\n      swap12\n      tag_56\n      jump\t// in\n    tag_308:\n      swap1\n      tag_56\n      jump\t// in\n        /* \"Verfiy.sol\":12373:12405  abi.encodePacked(p1, p2, p3, p4) */\n    tag_305:\n        /* \"Verfiy.sol\":12445:12476  address(0x0f).staticcall(input) */\n      mload\n      swap1\n        /* \"Verfiy.sol\":12453:12457  0x0f */\n      0x0f\n        /* \"Verfiy.sol\":12445:12476  address(0x0f).staticcall(input) */\n      gas\n      staticcall\n      pop\n        /* \"Verfiy.sol\":12373:12405  abi.encodePacked(p1, p2, p3, p4) */\n      0x20\n        /* \"Verfiy.sol\":12518:12519  1 */\n      0x01\n        /* \"Verfiy.sol\":12501:12513  bytes32(ret) */\n      tag_309\n        /* \"Verfiy.sol\":12445:12476  address(0x0f).staticcall(input) */\n      tag_310\n      tag_54\n      jump\t// in\n    tag_310:\n        /* \"Verfiy.sol\":12501:12513  bytes32(ret) */\n      tag_73\n      jump\t// in\n    tag_309:\n        /* \"Verfiy.sol\":12493:12519  uint256(bytes32(ret)) == 1 */\n      eq\n        /* \"Verfiy.sol\":26:13300  contract Verify {... */\n      mload(0x40)\n      swap1\n      dup2\n      mstore\n      return\n    tag_30:\n      jumpi(tag_146, callvalue)\n      tag_188\n      tag_189\n      tag_315\n      calldatasize\n      tag_14\n      jump\t// in\n    tag_315:\n      tag_74\n      jump\t// in\n    tag_31:\n      jumpi(tag_146, callvalue)\n      0x20\n      tag_164\n      tag_319\n      calldatasize\n      tag_28\n      jump\t// in\n    tag_319:\n      swap3\n      swap2\n      swap1\n      swap2\n      tag_75\n      jump\t// in\n    tag_32:\n      jumpi(tag_146, callvalue)\n      jumpi(tag_146, slt(add(not(0x03), calldatasize), 0x00))\n      tag_188\n      tag_189\n      0x00\n      tag_26\n      jump\t// in\n    tag_33:\n      jumpi(tag_146, callvalue)\n      jumpi(tag_146, slt(add(not(0x03), calldatasize), 0x20))\n      calldataload(0x04)\n      sub(shl(0x40, 0x01), 0x01)\n      dup2\n      gt\n      tag_146\n      jumpi\n      tag_164\n      tag_333\n      0x20\n      swap3\n      calldatasize\n      swap1\n      0x04\n      add\n      tag_1\n      jump\t// in\n    tag_333:\n      pop\n        /* \"Verfiy.sol\":13027:13266  assembly{... */\n      0x60\n      dup2\n      add\n      calldataload\n      swap1\n      0x40\n      dup2\n      add\n      calldataload\n      swap1\n      0x20\n      dup2\n      add\n      calldataload\n      swap1\n      calldataload\n      or\n      or\n      or\n        /* \"Verfiy.sol\":13282:13288  acc==0 */\n      iszero\n        /* \"Verfiy.sol\":12929:13295  function ZeroCheck(bytes calldata x)public pure returns (bool ok){... */\n      swap1\n      jump\n        /* \"Verfiy.sol\":26:13300  contract Verify {... */\n    tag_34:\n      jumpi(tag_146, callvalue)\n      jumpi(tag_146, slt(add(not(0x03), calldatasize), 0x40))\n      calldataload(0x04)\n      sub(shl(0x40, 0x01), 0x01)\n      dup2\n      gt\n      tag_146\n      jumpi\n      0x00\n      tag_340\n      dup2\n      swap3\n      calldatasize\n      swap1\n      0x04\n      add\n      tag_1\n      jump\t// in\n    tag_340:\n        /* \"Verfiy.sol\":11865:11893  abi.encodePacked(p1, scalar) */\n      tag_341\n        /* \"Verfiy.sol\":26:13300  contract Verify {... */\n      0x20\n      dup1\n      calldataload(0x24)\n      swap4\n      mload(0x40)\n        /* \"Verfiy.sol\":11865:11893  abi.encodePacked(p1, scalar) */\n      swap5\n      dup2\n      dup7\n      swap3\n      dup5\n      dup5\n      add\n        /* \"Verfiy.sol\":26:13300  contract Verify {... */\n      swap9\n      dup10\n      calldatacopy\n      dup3\n      add\n      swap1\n      dup4\n      dup3\n      add\n      mstore\n        /* \"Verfiy.sol\":11865:11893  abi.encodePacked(p1, scalar) */\n      sub\n      add\n      dup1\n      dup5\n      mstore\n      add\n      dup3\n      tag_10\n      jump\t// in\n    tag_341:\n        /* \"Verfiy.sol\":11933:11964  address(0x0e).staticcall(input) */\n      mload\n      swap1\n        /* \"Verfiy.sol\":11941:11945  0x0e */\n      0x0e\n        /* \"Verfiy.sol\":11933:11964  address(0x0e).staticcall(input) */\n      gas\n      staticcall\n      pop\n        /* \"Verfiy.sol\":26:13300  contract Verify {... */\n      tag_188\n        /* \"Verfiy.sol\":11933:11964  address(0x0e).staticcall(input) */\n      tag_189\n      tag_54\n      jump\t// in\n        /* \"Verfiy.sol\":26:13300  contract Verify {... */\n    tag_35:\n      jumpi(tag_146, callvalue)\n      jumpi(tag_146, slt(add(not(0x03), calldatasize), 0x40))\n      calldataload(0x04)\n      sub(shl(0x40, 0x01), 0x01)\n      dup2\n      gt\n      tag_146\n      jumpi\n      tag_189\n      tag_352\n      tag_188\n      swap3\n      calldatasize\n      swap1\n      0x04\n      add\n      tag_13\n      jump\t// in\n    tag_352:\n      calldataload(0x24)\n      swap1\n      tag_77\n      jump\t// in\n    tag_36:\n      jumpi(tag_146, callvalue)\n      jumpi(tag_146, slt(add(not(0x03), calldatasize), 0x80))\n      calldataload(0x04)\n      sub(shl(0x40, 0x01), 0x01)\n      dup2\n      gt\n      tag_146\n      jumpi\n      tag_360\n      swap1\n      calldatasize\n      swap1\n      0x04\n      add\n      tag_2\n      jump\t// in\n    tag_360:\n      calldataload(0x24)\n      sub(shl(0x40, 0x01), 0x01)\n      dup2\n      gt\n      tag_146\n      jumpi\n      tag_363\n      swap1\n      calldatasize\n      swap1\n      0x04\n      add\n      tag_2\n      jump\t// in\n    tag_363:\n      swap2\n      swap1\n      swap3\n      calldataload(0x44)\n      swap3\n      sub(shl(0x40, 0x01), 0x01)\n      dup5\n      gt\n      tag_146\n      jumpi\n      tag_188\n      swap5\n      tag_367\n      tag_368\n      swap6\n      calldatasize\n      swap1\n      0x04\n      add\n      tag_1\n      jump\t// in\n    tag_367:\n      swap5\n      swap1\n      swap4\n      tag_95\n      jump\t// in\n    tag_368:\n      mload(0x40)\n      swap1\n      iszero\n      iszero\n      dup2\n      mstore\n      swap1\n      dup2\n      swap1\n      0x20\n      dup3\n      add\n      swap1\n      jump\n    tag_37:\n      jumpi(tag_146, callvalue)\n      tag_188\n      tag_189\n      tag_373\n      calldatasize\n      tag_17\n      jump\t// in\n    tag_373:\n      swap1\n      tag_96\n      jump\t// in\n    tag_38:\n      jumpi(tag_146, callvalue)\n      jumpi(tag_146, slt(add(not(0x03), calldatasize), 0x40))\n      calldataload(0x04)\n      sub(shl(0x40, 0x01), 0x01)\n      dup2\n      gt\n      tag_146\n      jumpi\n      tag_380\n      swap1\n      calldatasize\n      swap1\n      0x04\n      add\n      tag_2\n      jump\t// in\n    tag_380:\n      swap1\n      calldataload(0x24)\n      sub(shl(0x40, 0x01), 0x01)\n      dup2\n      gt\n      tag_146\n      jumpi\n      tag_383\n      swap1\n      calldatasize\n      swap1\n      0x04\n      add\n      tag_2\n      jump\t// in\n    tag_383:\n      not(0x00)\n      dup5\n      add\n      dup5\n      dup2\n      gt\n      swap4\n        /* \"Verfiy.sol\":7414:7425  uint256 i=0 */\n      swap3\n      swap1\n      0x00\n        /* \"Verfiy.sol\":26:13300  contract Verify {... */\n      dup6\n        /* \"Verfiy.sol\":7442:7445  i++ */\n    tag_384:\n        /* \"Verfiy.sol\":26:13300  contract Verify {... */\n      tag_393\n      jumpi\n        /* \"Verfiy.sol\":7426:7441  i<=g1s.length-1 */\n      dup2\n      dup2\n      gt\n      tag_387\n      jumpi\n        /* \"Verfiy.sol\":7467:7473  g1s[i] */\n      dup1\n        /* \"Verfiy.sol\":7456:7474  ppg1s.push(g1s[i]) */\n      tag_389\n        /* \"Verfiy.sol\":7467:7473  g1s[i] */\n      tag_390\n        /* \"Verfiy.sol\":7442:7445  i++ */\n      tag_391\n        /* \"Verfiy.sol\":7467:7473  g1s[i] */\n      swap4\n      dup11\n      dup10\n      tag_49\n      jump\t// in\n    tag_390:\n        /* \"Verfiy.sol\":7456:7474  ppg1s.push(g1s[i]) */\n      swap1\n      tag_97\n      jump\t// in\n    tag_389:\n        /* \"Verfiy.sol\":7442:7445  i++ */\n      tag_42\n      jump\t// in\n    tag_391:\n        /* \"Verfiy.sol\":7414:7425  uint256 i=0 */\n      dup6\n      jump(tag_384)\n        /* \"Verfiy.sol\":7426:7441  i<=g1s.length-1 */\n    tag_387:\n      pop\n      pop\n      not(0x00)\n        /* \"Verfiy.sol\":26:13300  contract Verify {... */\n      dup3\n      add\n      dup3\n      dup2\n      gt\n      swap2\n      swap1\n      0x00\n      dup4\n        /* \"Verfiy.sol\":7518:7521  i++ */\n    tag_392:\n        /* \"Verfiy.sol\":26:13300  contract Verify {... */\n      tag_393\n      jumpi\n        /* \"Verfiy.sol\":7502:7517  i<=g2s.length-1 */\n      dup2\n      dup2\n      gt\n      tag_395\n      jumpi\n        /* \"Verfiy.sol\":7543:7549  g2s[i] */\n      dup1\n        /* \"Verfiy.sol\":7532:7550  ppg2s.push(g2s[i]) */\n      tag_389\n        /* \"Verfiy.sol\":7543:7549  g2s[i] */\n      tag_398\n        /* \"Verfiy.sol\":7518:7521  i++ */\n      tag_399\n        /* \"Verfiy.sol\":7543:7549  g2s[i] */\n      swap4\n      dup9\n      dup8\n      tag_49\n      jump\t// in\n    tag_398:\n        /* \"Verfiy.sol\":7532:7550  ppg2s.push(g2s[i]) */\n      swap1\n      tag_98\n      jump\t// in\n        /* \"Verfiy.sol\":7518:7521  i++ */\n    tag_399:\n        /* \"Verfiy.sol\":7490:7501  uint256 i=0 */\n      dup4\n      jump(tag_392)\n        /* \"Verfiy.sol\":7502:7517  i<=g2s.length-1 */\n    tag_395:\n        /* \"Verfiy.sol\":26:13300  contract Verify {... */\n      stop\n    tag_393:\n      tag_41\n      jump\t// in\n    tag_39:\n      jumpi(tag_146, callvalue)\n      jumpi(tag_146, slt(add(not(0x03), calldatasize), 0x20))\n      calldataload(0x04)\n        /* \"Verfiy.sol\":7235:7255  bytes[] public ppg2s */\n      0x03\n        /* \"Verfiy.sol\":26:13300  contract Verify {... */\n      sload\n        /* \"Verfiy.sol\":7235:7255  bytes[] public ppg2s */\n      dup2\n      lt\n      iszero\n      tag_146\n      jumpi\n        /* \"Verfiy.sol\":26:13300  contract Verify {... */\n      tag_189\n      tag_188\n      swap2\n        /* \"Verfiy.sol\":7235:7255  bytes[] public ppg2s */\n      0x03\n      0x00\n        /* \"Verfiy.sol\":26:13300  contract Verify {... */\n      mstore\n      0xc2575a0e9e593c00f959f8c92f12db2869c3395a3b0502d05e2516446f71f85b\n      add\n      tag_26\n      jump\t// in\n    tag_40:\n      jumpi(tag_146, callvalue)\n      jumpi(tag_146, slt(add(not(0x03), calldatasize), 0x60))\n      calldataload(0x04)\n      sub(shl(0x40, 0x01), 0x01)\n      dup2\n      gt\n      tag_146\n      jumpi\n      tag_414\n      swap1\n      calldatasize\n      swap1\n      0x04\n      add\n      tag_2\n      jump\t// in\n    tag_414:\n      calldataload(0x24)\n      sub(shl(0x40, 0x01), 0x01)\n      dup2\n      gt\n      tag_146\n      jumpi\n      tag_417\n      swap1\n      calldatasize\n      swap1\n      0x04\n      add\n      tag_2\n      jump\t// in\n    tag_417:\n      swap3\n      swap1\n      swap2\n      calldataload(0x44)\n      sub(shl(0x40, 0x01), 0x01)\n      dup2\n      gt\n      tag_146\n      jumpi\n      tag_420\n      swap1\n      swap5\n      swap2\n      swap5\n      calldatasize\n      swap1\n      0x04\n      add\n      tag_1\n      jump\t// in\n    tag_420:\n        /* \"Verfiy.sol\":1346:1352  L1 * 2 */\n      swap5\n        /* \"Verfiy.sol\":1338:1359  require(L1 * 2 == L2) */\n      tag_421\n        /* \"Verfiy.sol\":1346:1352  L1 * 2 */\n      dup4\n      tag_422\n      dup4\n      tag_63\n      jump\t// in\n    tag_422:\n        /* \"Verfiy.sol\":1346:1358  L1 * 2 == L2 */\n      eq\n        /* \"Verfiy.sol\":1338:1359  require(L1 * 2 == L2) */\n      tag_78\n      jump\t// in\n    tag_421:\n        /* \"Verfiy.sol\":1410:1457  uint256(keccak256(abi.encode(g1s, g2s, 0))) % q */\n      tag_423\n        /* \"Verfiy.sol\":26:13300  contract Verify {... */\n      mload(0x40)\n      0x20\n        /* \"Verfiy.sol\":1428:1451  abi.encode(g1s, g2s, 0) */\n      dup2\n      add\n      swap1\n      tag_208\n      dup2\n      tag_209\n      dup9\n      dup12\n      dup9\n      dup13\n      dup9\n      tag_79\n      jump\t// in\n        /* \"Verfiy.sol\":1410:1457  uint256(keccak256(abi.encode(g1s, g2s, 0))) % q */\n    tag_423:\n        /* \"Verfiy.sol\":26:13300  contract Verify {... */\n      swap4\n        /* \"Verfiy.sol\":1482:1529  uint256(keccak256(abi.encode(g1s, g2s, 1))) % q */\n      tag_426\n        /* \"Verfiy.sol\":26:13300  contract Verify {... */\n      mload(0x40)\n      0x20\n        /* \"Verfiy.sol\":1500:1523  abi.encode(g1s, g2s, 1) */\n      dup2\n      add\n      swap1\n      tag_208\n      dup2\n      tag_209\n      dup10\n      dup13\n      dup10\n      dup10\n      dup9\n      tag_80\n      jump\t// in\n        /* \"Verfiy.sol\":1482:1529  uint256(keccak256(abi.encode(g1s, g2s, 1))) % q */\n    tag_426:\n        /* \"Verfiy.sol\":1539:1556  uint256 temp1 = 1 */\n      swap7\n        /* \"Verfiy.sol\":1521:1522  1 */\n      0x01\n        /* \"Verfiy.sol\":1566:1583  uint256 temp2 = 1 */\n      swap4\n        /* \"Verfiy.sol\":1635:1654  new bytes(L1 * 160) */\n      tag_429\n        /* \"Verfiy.sol\":1645:1653  L1 * 160 */\n      tag_211\n      dup6\n      tag_64\n      jump\t// in\n        /* \"Verfiy.sol\":1635:1654  new bytes(L1 * 160) */\n    tag_429:\n        /* \"Verfiy.sol\":1694:1700  L2 - 3 */\n      swap9\n        /* \"Verfiy.sol\":1683:1708  new bytes((L2 - 3) * 288) */\n      tag_431\n        /* \"Verfiy.sol\":1693:1707  (L2 - 3) * 288 */\n      tag_211\n        /* \"Verfiy.sol\":1694:1700  L2 - 3 */\n      tag_433\n      dup10\n      tag_44\n      jump\t// in\n    tag_433:\n        /* \"Verfiy.sol\":1693:1707  (L2 - 3) * 288 */\n      tag_65\n      jump\t// in\n        /* \"Verfiy.sol\":1683:1708  new bytes((L2 - 3) * 288) */\n    tag_431:\n        /* \"Verfiy.sol\":1748:1754  L1 - 1 */\n      swap9\n        /* \"Verfiy.sol\":1737:1762  new bytes((L1 - 1) * 160) */\n      tag_434\n        /* \"Verfiy.sol\":1747:1761  (L1 - 1) * 160 */\n      tag_211\n        /* \"Verfiy.sol\":1748:1754  L1 - 1 */\n      tag_436\n      dup9\n      tag_43\n      jump\t// in\n    tag_436:\n        /* \"Verfiy.sol\":1747:1761  (L1 - 1) * 160 */\n      tag_64\n      jump\t// in\n        /* \"Verfiy.sol\":1737:1762  new bytes((L1 - 1) * 160) */\n    tag_434:\n        /* \"Verfiy.sol\":1802:1808  L2 - 2 */\n      swap10\n        /* \"Verfiy.sol\":1791:1816  new bytes((L2 - 2) * 288) */\n      tag_437\n        /* \"Verfiy.sol\":1801:1815  (L2 - 2) * 288 */\n      tag_211\n        /* \"Verfiy.sol\":1802:1808  L2 - 2 */\n      tag_433\n      dup12\n      tag_45\n      jump\t// in\n        /* \"Verfiy.sol\":1791:1816  new bytes((L2 - 2) * 288) */\n    tag_437:\n      0x00\n      swap10\n        /* \"Verfiy.sol\":1901:1906  k = 0 */\n      swap1\n      dup11\n        /* \"Verfiy.sol\":1949:1952  i++ */\n    tag_440:\n        /* \"Verfiy.sol\":1941:1947  L1 - 1 */\n      tag_441\n      dup11\n      tag_43\n      jump\t// in\n    tag_441:\n        /* \"Verfiy.sol\":1936:1947  i <= L1 - 1 */\n      dup13\n      gt\n      tag_442\n      jumpi\n      mload(0x00)\n      codecopy(0x00, data_3b2d02282c3edcbfc4f9664b53f75892ea03b8fe586039e3ee6fe41258ca9b0d, 0x20)\n      mload(0x00)\n      swap1\n      0x00\n      mstore\n        /* \"Verfiy.sol\":1976:1982  g1s[i] */\n      dup16\n        /* \"Verfiy.sol\":2129:2134  k+=32 */\n      tag_444\n        /* \"Verfiy.sol\":1976:1982  g1s[i] */\n      dup16\n      swap2\n      dup16\n      dup16\n      dup16\n      dup16\n      swap8\n        /* \"Verfiy.sol\":2035:2041  g1s[i] */\n      tag_445\n        /* \"Verfiy.sol\":1976:1982  g1s[i] */\n      dup2\n      dup7\n        /* \"Verfiy.sol\":2035:2041  g1s[i] */\n      tag_446\n        /* \"Verfiy.sol\":1976:1982  g1s[i] */\n      dup8\n      dup7\n      dup15\n        /* \"Verfiy.sol\":1949:1952  i++ */\n      tag_447\n        /* \"Verfiy.sol\":1976:1982  g1s[i] */\n      swap16\n        /* \"Verfiy.sol\":1993:1996  128 */\n      0x80\n        /* \"Verfiy.sol\":1976:1982  g1s[i] */\n      tag_448\n        /* \"Verfiy.sol\":2113:2114  k */\n      tag_228\n        /* \"Verfiy.sol\":1976:1982  g1s[i] */\n      swap14\n        /* \"Verfiy.sol\":2072:2078  k+=128 */\n      tag_450\n        /* \"Verfiy.sol\":1976:1982  g1s[i] */\n      swap13\n        /* \"Verfiy.sol\":1968:2011  require(g1s[i].length == 128, \"bad G1 len\") */\n      tag_451\n        /* \"Verfiy.sol\":1976:1982  g1s[i] */\n      swap5\n      tag_49\n      jump\t// in\n    tag_448:\n        /* \"Verfiy.sol\":1976:1996  g1s[i].length == 128 */\n      swap1\n      pop\n      eq\n        /* \"Verfiy.sol\":1968:2011  require(g1s[i].length == 128, \"bad G1 len\") */\n      tag_81\n      jump\t// in\n    tag_451:\n        /* \"Verfiy.sol\":2035:2041  g1s[i] */\n      tag_49\n      jump\t// in\n    tag_446:\n      pop\n      tag_101\n      jump\t// in\n    tag_445:\n        /* \"Verfiy.sol\":2072:2078  k+=128 */\n      tag_70\n      jump\t// in\n    tag_450:\n        /* \"Verfiy.sol\":10609:10665  assembly {... */\n      swap3\n      dup4\n      add\n      0x20\n      add\n      mstore\n        /* \"Verfiy.sol\":10532:10667  function CopyUint(uint256 i,bytes memory to,uint256 toOff)internal pure{... */\n      jump\n        /* \"Verfiy.sol\":2129:2134  k+=32 */\n    tag_444:\n        /* \"Verfiy.sol\":2156:2178  mulmod(temp1, rho1, q) */\n      swap13\n      mulmod\n        /* \"Verfiy.sol\":1949:1952  i++ */\n      swap12\n      tag_42\n      jump\t// in\n    tag_447:\n        /* \"Verfiy.sol\":1921:1934  uint256 i = 0 */\n      swap11\n      swap10\n      jump(tag_440)\n        /* \"Verfiy.sol\":1936:1947  i <= L1 - 1 */\n    tag_442:\n      pop\n      swap6\n      dup9\n      dup13\n      dup16\n      swap9\n      dup16\n        /* \"Verfiy.sol\":2219:2230  G1Muls(ag1) */\n      tag_452\n        /* \"Verfiy.sol\":1936:1947  i <= L1 - 1 */\n      dup13\n      swap12\n        /* \"Verfiy.sol\":2219:2230  G1Muls(ag1) */\n      tag_74\n      jump\t// in\n    tag_452:\n        /* \"Verfiy.sol\":2288:2293  k = 0 */\n      swap1\n      0x00\n        /* \"Verfiy.sol\":2303:2315  temp2 = rho2 */\n      swap12\n      dup11\n        /* \"Verfiy.sol\":2330:2343  uint256 i = 0 */\n      swap7\n      0x00\n        /* \"Verfiy.sol\":2325:2729  for (uint256 i = 0; i <= 2 * L1 - 1 - 1; i++) {... */\n      swap14\n      dup15\n        /* \"Verfiy.sol\":2366:2369  i++ */\n    tag_453:\n        /* \"Verfiy.sol\":2350:2364  2 * L1 - 1 - 1 */\n      tag_454\n        /* \"Verfiy.sol\":2350:2360  2 * L1 - 1 */\n      tag_456\n        /* \"Verfiy.sol\":2350:2356  2 * L1 */\n      tag_456\n      dup12\n      tag_66\n      jump\t// in\n    tag_456:\n        /* \"Verfiy.sol\":2350:2360  2 * L1 - 1 */\n      tag_43\n      jump\t// in\n        /* \"Verfiy.sol\":2350:2364  2 * L1 - 1 - 1 */\n    tag_454:\n      lt\n        /* \"Verfiy.sol\":2345:2364  i <= 2 * L1 - 1 - 1 */\n      tag_457\n      jumpi\n        /* \"Verfiy.sol\":2444:2450  L1 - 1 */\n      dup11\n      dup16\n      swap2\n      dup15\n      swap3\n      dup13\n      dup16\n      tag_459\n      dup14\n      tag_43\n      jump\t// in\n    tag_459:\n        /* \"Verfiy.sol\":2439:2450  i == L1 - 1 */\n      dup4\n      eq\n        /* \"Verfiy.sol\":2439:2461  i == L1 - 1 || i == L1 */\n      dup1\n      iszero\n      tag_460\n      jumpi\n        /* \"Verfiy.sol\":2366:2369  i++ */\n    tag_461:\n        /* \"Verfiy.sol\":2435:2552  if (i == L1 - 1 || i == L1) {... */\n      tag_462\n      jumpi\n        /* \"Verfiy.sol\":2575:2581  g2s[i] */\n      dup14\n        /* \"Verfiy.sol\":2612:2618  k+=256 */\n      tag_450\n        /* \"Verfiy.sol\":2575:2581  g2s[i] */\n      dup6\n      tag_224\n        /* \"Verfiy.sol\":2366:2369  i++ */\n      tag_466\n        /* \"Verfiy.sol\":2575:2581  g2s[i] */\n      swap10\n      swap8\n      dup10\n      tag_226\n        /* \"Verfiy.sol\":2669:2674  k+=32 */\n      tag_468\n        /* \"Verfiy.sol\":2575:2581  g2s[i] */\n      swap10\n      mload(0x00)\n      codecopy(0x00, data_3b2d02282c3edcbfc4f9664b53f75892ea03b8fe586039e3ee6fe41258ca9b0d, 0x20)\n      mload(0x00)\n      swap1\n      0x00\n      mstore\n      swap13\n      swap10\n        /* \"Verfiy.sol\":2653:2654  k */\n      tag_228\n        /* \"Verfiy.sol\":2575:2581  g2s[i] */\n      swap10\n      tag_49\n      jump\t// in\n        /* \"Verfiy.sol\":2669:2674  k+=32 */\n    tag_468:\n        /* \"Verfiy.sol\":2696:2718  mulmod(temp2, rho2, q) */\n      swap11\n      mulmod\n        /* \"Verfiy.sol\":2366:2369  i++ */\n      swap15\n      tag_42\n      jump\t// in\n    tag_466:\n        /* \"Verfiy.sol\":2330:2343  uint256 i = 0 */\n      swap14\n      swap8\n      dup15\n      jump(tag_453)\n        /* \"Verfiy.sol\":2435:2552  if (i == L1 - 1 || i == L1) {... */\n    tag_462:\n        /* \"Verfiy.sol\":2489:2511  mulmod(temp2, rho2, q) */\n      pop\n      pop\n      pop\n      swap10\n      mload(0x00)\n      codecopy(0x00, data_3b2d02282c3edcbfc4f9664b53f75892ea03b8fe586039e3ee6fe41258ca9b0d, 0x20)\n      mload(0x00)\n      swap1\n      0x00\n      mstore\n      swap2\n      pop\n      swap2\n        /* \"Verfiy.sol\":2366:2369  i++ */\n      tag_466\n        /* \"Verfiy.sol\":2489:2511  mulmod(temp2, rho2, q) */\n      swap3\n      mulmod\n        /* \"Verfiy.sol\":2529:2537  continue */\n      swap15\n        /* \"Verfiy.sol\":2366:2369  i++ */\n      tag_42\n      jump\t// in\n        /* \"Verfiy.sol\":2439:2461  i == L1 - 1 || i == L1 */\n    tag_460:\n        /* \"Verfiy.sol\":2454:2461  i == L1 */\n      pop\n      dup13\n      dup4\n      eq\n        /* \"Verfiy.sol\":2439:2461  i == L1 - 1 || i == L1 */\n      jump(tag_461)\n        /* \"Verfiy.sol\":2345:2364  i <= 2 * L1 - 1 - 1 */\n    tag_457:\n      pop\n      dup9\n      swap4\n      swap2\n      dup13\n      dup9\n      swap3\n      dup16\n      dup15\n        /* \"Verfiy.sol\":2788:2804  G2Add(g2, part2) */\n      tag_471\n        /* \"Verfiy.sol\":2345:2364  i <= 2 * L1 - 1 - 1 */\n      dup16\n        /* \"Verfiy.sol\":2759:2770  G2Muls(ag2) */\n      tag_472\n        /* \"Verfiy.sol\":2345:2364  i <= 2 * L1 - 1 - 1 */\n      swap1\n        /* \"Verfiy.sol\":2759:2770  G2Muls(ag2) */\n      tag_55\n      jump\t// in\n    tag_472:\n        /* \"Verfiy.sol\":26:13300  contract Verify {... */\n      tag_473\n      tag_82\n      jump\t// in\n    tag_473:\n        /* \"Verfiy.sol\":2788:2804  G2Add(g2, part2) */\n      tag_96\n      jump\t// in\n    tag_471:\n        /* \"Verfiy.sol\":2862:2867  k = 0 */\n      swap10\n      0x00\n      swap10\n        /* \"Verfiy.sol\":2877:2889  temp1 = rho1 */\n      dup13\n      swap9\n      dup12\n        /* \"Verfiy.sol\":2936:2939  i++ */\n    tag_474:\n        /* \"Verfiy.sol\":2924:2934  L1 - 1 - 1 */\n      tag_475\n        /* \"Verfiy.sol\":2924:2930  L1 - 1 */\n      tag_456\n      dup12\n      tag_43\n      jump\t// in\n        /* \"Verfiy.sol\":2924:2934  L1 - 1 - 1 */\n    tag_475:\n        /* \"Verfiy.sol\":2919:2934  i <= L1 - 1 - 1 */\n      dup14\n      gt\n      tag_477\n      jumpi\n      mload(0x00)\n      codecopy(0x00, data_3b2d02282c3edcbfc4f9664b53f75892ea03b8fe586039e3ee6fe41258ca9b0d, 0x20)\n      mload(0x00)\n      swap1\n      0x00\n      mstore\n        /* \"Verfiy.sol\":2965:2971  g1s[i] */\n      dup16\n        /* \"Verfiy.sol\":3055:3060  k+=32 */\n      tag_479\n        /* \"Verfiy.sol\":2965:2971  g1s[i] */\n      dup16\n      dup16\n      swap1\n      dup16\n      dup16\n      dup16\n      swap8\n      tag_445\n      dup2\n      dup7\n      tag_446\n        /* \"Verfiy.sol\":3039:3040  k */\n      tag_228\n        /* \"Verfiy.sol\":2965:2971  g1s[i] */\n      swap8\n        /* \"Verfiy.sol\":2998:3004  k+=128 */\n      tag_450\n        /* \"Verfiy.sol\":2965:2971  g1s[i] */\n      swap7\n        /* \"Verfiy.sol\":2936:2939  i++ */\n      tag_484\n        /* \"Verfiy.sol\":2965:2971  g1s[i] */\n      swap15\n      tag_49\n      jump\t// in\n        /* \"Verfiy.sol\":3055:3060  k+=32 */\n    tag_479:\n        /* \"Verfiy.sol\":3082:3104  mulmod(temp1, rho1, q) */\n      swap13\n      mulmod\n        /* \"Verfiy.sol\":2936:2939  i++ */\n      swap13\n      tag_42\n      jump\t// in\n    tag_484:\n        /* \"Verfiy.sol\":2904:2917  uint256 i = 0 */\n      swap12\n      swap10\n      jump(tag_474)\n        /* \"Verfiy.sol\":2919:2934  i <= L1 - 1 - 1 */\n    tag_477:\n      pop\n      swap4\n      dup9\n      dup9\n      dup15\n        /* \"Verfiy.sol\":3174:3190  G1Add(g1, part3) */\n      tag_485\n        /* \"Verfiy.sol\":3145:3156  G1Muls(ag3) */\n      tag_486\n        /* \"Verfiy.sol\":2919:2934  i <= L1 - 1 - 1 */\n      dup16\n        /* \"Verfiy.sol\":3145:3156  G1Muls(ag3) */\n      tag_74\n      jump\t// in\n    tag_486:\n        /* \"Verfiy.sol\":26:13300  contract Verify {... */\n      tag_487\n      tag_51\n      jump\t// in\n    tag_487:\n        /* \"Verfiy.sol\":3174:3190  G1Add(g1, part3) */\n      tag_57\n      jump\t// in\n    tag_485:\n        /* \"Verfiy.sol\":3249:3254  k = 0 */\n      swap1\n      0x00\n        /* \"Verfiy.sol\":3264:3273  temp2 = 1 */\n      swap9\n        /* \"Verfiy.sol\":1521:1522  1 */\n      0x01\n        /* \"Verfiy.sol\":3288:3301  uint256 i = 0 */\n      swap6\n      0x00\n        /* \"Verfiy.sol\":3283:3670  for (uint256 i = 0; i <= 2 * L1 - 1; i++) {... */\n      swap11\n        /* \"Verfiy.sol\":3320:3323  i++ */\n    tag_488:\n        /* \"Verfiy.sol\":3308:3318  2 * L1 - 1 */\n      tag_489\n        /* \"Verfiy.sol\":3308:3314  2 * L1 */\n      tag_456\n      dup9\n      tag_66\n      jump\t// in\n        /* \"Verfiy.sol\":3308:3318  2 * L1 - 1 */\n    tag_489:\n        /* \"Verfiy.sol\":3303:3318  i <= 2 * L1 - 1 */\n      dup13\n      gt\n      tag_491\n      jumpi\n        /* \"Verfiy.sol\":3343:3350  i == L1 */\n      dup10\n      dup15\n      swap2\n      dup14\n      dup12\n      dup15\n      dup12\n      dup4\n      eq\n        /* \"Verfiy.sol\":3343:3365  i == L1 || i == L1 + 1 */\n      dup1\n      iszero\n      tag_493\n      jumpi\n        /* \"Verfiy.sol\":3320:3323  i++ */\n    tag_494:\n        /* \"Verfiy.sol\":3339:3497  if (i == L1 || i == L1 + 1) {... */\n      tag_495\n      jumpi\n        /* \"Verfiy.sol\":3520:3526  g2s[i] */\n      dup13\n        /* \"Verfiy.sol\":3553:3559  k+=256 */\n      tag_450\n        /* \"Verfiy.sol\":3520:3526  g2s[i] */\n      dup6\n      tag_224\n        /* \"Verfiy.sol\":3320:3323  i++ */\n      tag_499\n        /* \"Verfiy.sol\":3520:3526  g2s[i] */\n      swap10\n      swap8\n      dup10\n      tag_226\n        /* \"Verfiy.sol\":3610:3615  k+=32 */\n      tag_501\n        /* \"Verfiy.sol\":3520:3526  g2s[i] */\n      swap10\n      mload(0x00)\n      codecopy(0x00, data_3b2d02282c3edcbfc4f9664b53f75892ea03b8fe586039e3ee6fe41258ca9b0d, 0x20)\n      mload(0x00)\n      swap1\n      0x00\n      mstore\n      swap13\n      swap10\n        /* \"Verfiy.sol\":3594:3595  k */\n      tag_228\n        /* \"Verfiy.sol\":3520:3526  g2s[i] */\n      swap10\n      tag_49\n      jump\t// in\n        /* \"Verfiy.sol\":3610:3615  k+=32 */\n    tag_501:\n        /* \"Verfiy.sol\":3637:3659  mulmod(temp2, rho2, q) */\n      swap10\n      mulmod\n        /* \"Verfiy.sol\":3320:3323  i++ */\n      swap12\n      tag_42\n      jump\t// in\n    tag_499:\n        /* \"Verfiy.sol\":3288:3301  uint256 i = 0 */\n      swap11\n      swap7\n      jump(tag_488)\n        /* \"Verfiy.sol\":3339:3497  if (i == L1 || i == L1 + 1) {... */\n    tag_495:\n        /* \"Verfiy.sol\":3434:3456  mulmod(temp2, rho2, q) */\n      pop\n      pop\n      pop\n      swap9\n      mload(0x00)\n      codecopy(0x00, data_3b2d02282c3edcbfc4f9664b53f75892ea03b8fe586039e3ee6fe41258ca9b0d, 0x20)\n      mload(0x00)\n      swap1\n      0x00\n      mstore\n      swap2\n      pop\n      swap2\n        /* \"Verfiy.sol\":3320:3323  i++ */\n      tag_499\n        /* \"Verfiy.sol\":3434:3456  mulmod(temp2, rho2, q) */\n      swap3\n      mulmod\n        /* \"Verfiy.sol\":3474:3482  continue */\n      swap12\n        /* \"Verfiy.sol\":3320:3323  i++ */\n      tag_42\n      jump\t// in\n        /* \"Verfiy.sol\":3343:3365  i == L1 || i == L1 + 1 */\n    tag_493:\n        /* \"Verfiy.sol\":3359:3365  L1 + 1 */\n      pop\n      tag_504\n      dup13\n      tag_71\n      jump\t// in\n    tag_504:\n        /* \"Verfiy.sol\":3354:3365  i == L1 + 1 */\n      dup4\n      eq\n        /* \"Verfiy.sol\":3343:3365  i == L1 || i == L1 + 1 */\n      jump(tag_494)\n        /* \"Verfiy.sol\":3303:3318  i <= 2 * L1 - 1 */\n    tag_491:\n      pop\n      dup5\n      swap7\n      pop\n      dup6\n        /* \"Verfiy.sol\":26:13300  contract Verify {... */\n      tag_251\n        /* \"Verfiy.sol\":3303:3318  i <= 2 * L1 - 1 */\n      dup2\n        /* \"Verfiy.sol\":26:13300  contract Verify {... */\n      tag_506\n        /* \"Verfiy.sol\":3303:3318  i <= 2 * L1 - 1 */\n      dup16\n        /* \"Verfiy.sol\":574:1091  hex\"00000000000000000000000000000000024aa2b2f08f0a91260805272dc51051c6e47ad4fa403b02b4510b647ae3d1770bac0326a805bbefd48056c8c121bdb80000000000000000000000000000000013e02b6052719f607dacd3a088274f65596bd0d09920b61ab5da61bbdc7f5049334cf11213945d57e5ac7d055d042b7e000000000000000000000000000000000ce5d527727d6e118cc9cdc6da2e351aadfd9baa8cbdd3a76d429a695160d12c923ac9cc3baca289e193548608b82801000000000000000000000000000000000606c4a02ea734cc32acd2b02bc28b99cb3e287e85a763af267492ab572e99ab3f370d275cec1da1aaa9075ff05f79be\" */\n      tag_247\n        /* \"Verfiy.sol\":3303:3318  i <= 2 * L1 - 1 */\n      swap15\n        /* \"Verfiy.sol\":3789:3861  require(EqualPairingCheck(part1, part2, part3, part4),\"Check2-1 Failed\") */\n      tag_508\n        /* \"Verfiy.sol\":4008:4014  g1s[0] */\n      tag_509\n        /* \"Verfiy.sol\":3303:3318  i <= 2 * L1 - 1 */\n      swap16\n      dup6\n      swap16\n      swap12\n      swap13\n        /* \"Verfiy.sol\":3875:3923  EqualPairingCheck(g1,g2s[L1+1],g1s[1],g2s[L1-1]) */\n      tag_510\n        /* \"Verfiy.sol\":3303:3318  i <= 2 * L1 - 1 */\n      swap14\n        /* \"Verfiy.sol\":3867:3942  require(EqualPairingCheck(g1,g2s[L1+1],g1s[1],g2s[L1-1]),\"Check2-2 Failed\") */\n      tag_511\n        /* \"Verfiy.sol\":3303:3318  i <= 2 * L1 - 1 */\n      swap16\n      swap13\n        /* \"Verfiy.sol\":3917:3921  L1-1 */\n      tag_512\n        /* \"Verfiy.sol\":3303:3318  i <= 2 * L1 - 1 */\n      swap13\n        /* \"Verfiy.sol\":3717:3783  require(EqualPairingCheck(g1s[0],g2,lastg , gtau),\"Check1 Failed\") */\n      tag_513\n        /* \"Verfiy.sol\":3303:3318  i <= 2 * L1 - 1 */\n      dup5\n      swap16\n        /* \"Verfiy.sol\":26:13300  contract Verify {... */\n      tag_517\n        /* \"Verfiy.sol\":3303:3318  i <= 2 * L1 - 1 */\n      swap15\n        /* \"Verfiy.sol\":3913:3922  g2s[L1-1] */\n      tag_515\n        /* \"Verfiy.sol\":3303:3318  i <= 2 * L1 - 1 */\n      swap11\n        /* \"Verfiy.sol\":26:13300  contract Verify {... */\n      tag_516\n      tag_517\n        /* \"Verfiy.sol\":3743:3749  g1s[0] */\n      tag_518\n        /* \"Verfiy.sol\":3725:3766  EqualPairingCheck(g1s[0],g2,lastg , gtau) */\n      tag_519\n        /* \"Verfiy.sol\":3303:3318  i <= 2 * L1 - 1 */\n      swap6\n        /* \"Verfiy.sol\":3700:3711  G2Muls(ag4) */\n      tag_520\n        /* \"Verfiy.sol\":3797:3842  EqualPairingCheck(part1, part2, part3, part4) */\n      tag_521\n        /* \"Verfiy.sol\":3303:3318  i <= 2 * L1 - 1 */\n      swap14\n        /* \"Verfiy.sol\":3700:3711  G2Muls(ag4) */\n      tag_55\n      jump\t// in\n    tag_520:\n        /* \"Verfiy.sol\":3743:3749  g1s[0] */\n      swap12\n      tag_47\n      jump\t// in\n    tag_518:\n        /* \"Verfiy.sol\":26:13300  contract Verify {... */\n      swap3\n      swap1\n      tag_251\n      tag_82\n      jump\t// in\n    tag_516:\n      swap4\n      tag_251\n      tag_25\n      jump\t// in\n    tag_517:\n        /* \"Verfiy.sol\":3725:3766  EqualPairingCheck(g1s[0],g2,lastg , gtau) */\n      swap3\n      tag_75\n      jump\t// in\n    tag_519:\n        /* \"Verfiy.sol\":3717:3783  require(EqualPairingCheck(g1s[0],g2,lastg , gtau),\"Check1 Failed\") */\n      tag_99\n      jump\t// in\n    tag_513:\n        /* \"Verfiy.sol\":3797:3842  EqualPairingCheck(part1, part2, part3, part4) */\n      tag_75\n      jump\t// in\n    tag_521:\n        /* \"Verfiy.sol\":3789:3861  require(EqualPairingCheck(part1, part2, part3, part4),\"Check2-1 Failed\") */\n      tag_83\n      jump\t// in\n    tag_508:\n        /* \"Verfiy.sol\":26:13300  contract Verify {... */\n      tag_524\n      tag_51\n      jump\t// in\n    tag_524:\n        /* \"Verfiy.sol\":3900:3904  L1+1 */\n      swap10\n        /* \"Verfiy.sol\":3906:3912  g1s[1] */\n      tag_525\n        /* \"Verfiy.sol\":3896:3905  g2s[L1+1] */\n      tag_526\n        /* \"Verfiy.sol\":3900:3904  L1+1 */\n      tag_527\n      dup8\n      tag_71\n      jump\t// in\n    tag_527:\n        /* \"Verfiy.sol\":3896:3905  g2s[L1+1] */\n      dup4\n      dup6\n      tag_49\n      jump\t// in\n    tag_526:\n        /* \"Verfiy.sol\":3906:3912  g1s[1] */\n      swap9\n      swap1\n      swap12\n      tag_48\n      jump\t// in\n    tag_525:\n        /* \"Verfiy.sol\":3917:3921  L1-1 */\n      swap10\n      swap1\n      swap6\n      tag_43\n      jump\t// in\n    tag_512:\n        /* \"Verfiy.sol\":3913:3922  g2s[L1-1] */\n      swap2\n      tag_49\n      jump\t// in\n    tag_515:\n        /* \"Verfiy.sol\":26:13300  contract Verify {... */\n      swap8\n      swap1\n      swap5\n      calldatasize\n      swap2\n      tag_12\n      jump\t// in\n    tag_506:\n      swap5\n      calldatasize\n      swap2\n      tag_12\n      jump\t// in\n        /* \"Verfiy.sol\":3875:3923  EqualPairingCheck(g1,g2s[L1+1],g1s[1],g2s[L1-1]) */\n    tag_510:\n        /* \"Verfiy.sol\":3867:3942  require(EqualPairingCheck(g1,g2s[L1+1],g1s[1],g2s[L1-1]),\"Check2-2 Failed\") */\n      tag_84\n      jump\t// in\n    tag_511:\n        /* \"Verfiy.sol\":3948:3996  require(ZeroCheck(g1s[0])!=true,\"Check3 Failed\") */\n      tag_528\n        /* \"Verfiy.sol\":1521:1522  1 */\n      0x01\n        /* \"Verfiy.sol\":26:13300  contract Verify {... */\n      tag_529\n        /* \"Verfiy.sol\":3966:3972  g1s[0] */\n      tag_333\n      dup6\n      dup6\n      tag_47\n      jump\t// in\n        /* \"Verfiy.sol\":26:13300  contract Verify {... */\n    tag_529:\n      iszero\n      iszero\n        /* \"Verfiy.sol\":3956:3979  ZeroCheck(g1s[0])!=true */\n      eq\n      iszero\n        /* \"Verfiy.sol\":3948:3996  require(ZeroCheck(g1s[0])!=true,\"Check3 Failed\") */\n      tag_85\n      jump\t// in\n    tag_528:\n        /* \"Verfiy.sol\":4008:4014  g1s[0] */\n      tag_47\n      jump\t// in\n    tag_509:\n        /* \"Verfiy.sol\":574:1091  hex\"00000000000000000000000000000000024aa2b2f08f0a91260805272dc51051c6e47ad4fa403b02b4510b647ae3d1770bac0326a805bbefd48056c8c121bdb80000000000000000000000000000000013e02b6052719f607dacd3a088274f65596bd0d09920b61ab5da61bbdc7f5049334cf11213945d57e5ac7d055d042b7e000000000000000000000000000000000ce5d527727d6e118cc9cdc6da2e351aadfd9baa8cbdd3a76d429a695160d12c923ac9cc3baca289e193548608b82801000000000000000000000000000000000606c4a02ea734cc32acd2b02bc28b99cb3e287e85a763af267492ab572e99ab3f370d275cec1da1aaa9075ff05f79be\" */\n      swap1\n      tag_88\n      jump\t// in\n        /* \"Verfiy.sol\":26:13300  contract Verify {... */\n    tag_41:\n      mstore(0x00, shl(0xe0, 0x4e487b71))\n      mstore(0x04, 0x11)\n      revert(0x00, 0x24)\n    tag_42:\n      not(0x00)\n      dup2\n      eq\n      tag_393\n      jumpi\n      0x01\n      add\n      swap1\n      jump\t// out\n    tag_43:\n      not(0x00)\n      dup2\n      add\n      swap2\n      swap1\n      dup3\n      gt\n      tag_393\n      jumpi\n      jump\t// out\n    tag_44:\n      not(0x02)\n      dup2\n      add\n      swap2\n      swap1\n      dup3\n      gt\n      tag_393\n      jumpi\n      jump\t// out\n    tag_45:\n      not(0x01)\n      dup2\n      add\n      swap2\n      swap1\n      dup3\n      gt\n      tag_393\n      jumpi\n      jump\t// out\n    tag_46:\n      swap2\n      swap1\n      dup3\n      sub\n      swap2\n      dup3\n      gt\n      tag_393\n      jumpi\n      jump\t// out\n    tag_47:\n      swap1\n      iszero\n      tag_253\n      jumpi\n      dup1\n      calldataload\n      swap1\n      not(0x1e)\n      dup2\n      calldatasize\n      sub\n      add\n      dup3\n      slt\n      iszero\n      tag_146\n      jumpi\n      add\n      swap1\n      dup2\n      calldataload\n      swap2\n      sub(shl(0x40, 0x01), 0x01)\n      dup4\n      gt\n      tag_146\n      jumpi\n      0x20\n      add\n      dup3\n      calldatasize\n      sub\n      dup2\n      sgt\n      tag_146\n      jumpi\n      swap2\n      swap1\n      jump\t// out\n    tag_48:\n      swap1\n        /* \"Verfiy.sol\":1521:1522  1 */\n      0x01\n        /* \"Verfiy.sol\":26:13300  contract Verify {... */\n      lt\n      iszero\n      tag_253\n      jumpi\n      0x20\n      dup2\n      add\n      calldataload\n      swap1\n      not(0x1e)\n      dup2\n      calldatasize\n      sub\n      add\n      dup3\n      slt\n      iszero\n      tag_146\n      jumpi\n      add\n      swap1\n      dup2\n      calldataload\n      swap2\n      sub(shl(0x40, 0x01), 0x01)\n      dup4\n      gt\n      tag_146\n      jumpi\n      0x20\n      add\n      dup3\n      calldatasize\n      sub\n      dup2\n      sgt\n      tag_146\n      jumpi\n      swap2\n      swap1\n      jump\t// out\n    tag_49:\n      swap2\n      swap1\n      dup2\n      lt\n      iszero\n      tag_253\n      jumpi\n      0x05\n      shl\n      dup2\n      add\n      calldataload\n      swap1\n      not(0x1e)\n      dup2\n      calldatasize\n      sub\n      add\n      dup3\n      slt\n      iszero\n      tag_146\n      jumpi\n      add\n      swap1\n      dup2\n      calldataload\n      swap2\n      sub(shl(0x40, 0x01), 0x01)\n      dup4\n      gt\n      tag_146\n      jumpi\n      0x20\n      add\n      dup3\n      calldatasize\n      sub\n      dup2\n      sgt\n      tag_146\n      jumpi\n      swap2\n      swap1\n      jump\t// out\n    tag_50:\n      iszero\n      tag_566\n      jumpi\n      jump\t// out\n    tag_566:\n      mload(0x40)\n      shl(0xe5, 0x461bcd)\n      dup2\n      mstore\n      0x20\n      0x04\n      dup3\n      add\n      mstore\n      0x10\n      0x24\n      dup3\n      add\n      mstore\n      shl(0x82, 0x12d95e50da1958dacc4811985a5b1959)\n      0x44\n      dup3\n      add\n      mstore\n      0x64\n      swap1\n      revert\n    tag_51:\n      mload(0x40)\n      swap1\n      tag_568\n      0xa0\n      dup4\n      tag_10\n      jump\t// in\n    tag_568:\n      0x80\n      dup3\n      mstore\n      0xfcf5e095d5d00af600db18cb2c04b3edd03cc744a2888ae40caa232946c5e7e1\n      0x80\n      dup4\n      0x17f1d3a73197d7942695638c4fa9ac0f\n      0x20\n      dup3\n      add\n      mstore\n      0xc3688c4f9774b905a14e3a3f171bac586c55e83ff97a1aeffb3af00adb22c6bb\n      0x40\n      dup3\n      add\n      mstore\n      0x08b3f481e3aaa0f1a09e30ed741d8ae4\n      0x60\n      dup3\n      add\n      mstore\n      add\n      mstore\n      jump\t// out\n        /* \"Verfiy.sol\":279:540  hex\"0000000000000000000000000000000017f1d3a73197d7942695638c4fa9ac0fc3688c4f9774b905a14e3a3f171bac586c55e83ff97a1aeffb3af00adb22c6bb0000000000000000000000000000000008b3f481e3aaa0f1a09e30ed741d8ae4fcf5e095d5d00af600db18cb2c04b3edd03cc744a2888ae40caa232946c5e7e1\" */\n    tag_52:\n      iszero\n      tag_569\n      jumpi\n      jump\t// out\n    tag_569:\n        /* \"Verfiy.sol\":26:13300  contract Verify {... */\n      mload(0x40)\n      shl(0xe5, 0x461bcd)\n        /* \"Verfiy.sol\":279:540  hex\"0000000000000000000000000000000017f1d3a73197d7942695638c4fa9ac0fc3688c4f9774b905a14e3a3f171bac586c55e83ff97a1aeffb3af00adb22c6bb0000000000000000000000000000000008b3f481e3aaa0f1a09e30ed741d8ae4fcf5e095d5d00af600db18cb2c04b3edd03cc744a2888ae40caa232946c5e7e1\" */\n      dup2\n      mstore\n      0x20\n      0x04\n      dup3\n      add\n      mstore\n      0x10\n      0x24\n      dup3\n      add\n        /* \"Verfiy.sol\":26:13300  contract Verify {... */\n      mstore\n      shl(0x82, 0x12d95e50da1958dacc8811985a5b1959)\n      0x44\n      dup3\n      add\n        /* \"Verfiy.sol\":279:540  hex\"0000000000000000000000000000000017f1d3a73197d7942695638c4fa9ac0fc3688c4f9774b905a14e3a3f171bac586c55e83ff97a1aeffb3af00adb22c6bb0000000000000000000000000000000008b3f481e3aaa0f1a09e30ed741d8ae4fcf5e095d5d00af600db18cb2c04b3edd03cc744a2888ae40caa232946c5e7e1\" */\n      mstore\n      0x64\n      swap1\n      revert\n        /* \"Verfiy.sol\":8988:9450  function CheckKeyDBE(bytes calldata g1s,bytes[] calldata g2s,uint256 index)public  returns (bool){... */\n    tag_53:\n      swap2\n      swap5\n      swap4\n      swap5\n      swap3\n      swap1\n      swap3\n        /* \"Verfiy.sol\":26:13300  contract Verify {... */\n      0x00\n        /* \"Verfiy.sol\":9141:9144  i++ */\n    tag_571:\n        /* \"Verfiy.sol\":9137:9140  L-2 */\n      tag_572\n      dup4\n      tag_45\n      jump\t// in\n    tag_572:\n        /* \"Verfiy.sol\":9134:9140  i<=L-2 */\n      dup2\n      gt\n      tag_573\n      jumpi\n        /* \"Verfiy.sol\":9141:9144  i++ */\n      tag_575\n        /* \"Verfiy.sol\":9161:9168  L-index */\n      swap1\n      tag_576\n      dup9\n      dup6\n      tag_46\n      jump\t// in\n    tag_576:\n        /* \"Verfiy.sol\":9158:9168  i==L-index */\n      dup2\n      eq\n        /* \"Verfiy.sol\":9155:9202  if(i==L-index){... */\n      tag_389\n      jumpi\n        /* \"Verfiy.sol\":9211:9297  require(EqualPairingCheck(ppg1s[L-i-1-1], g2s[i], g1s, ppg2s[L-1]),\"KeyCheck1 Failed\") */\n      tag_389\n        /* \"Verfiy.sol\":9219:9277  EqualPairingCheck(ppg1s[L-i-1-1], g2s[i], g1s, ppg2s[L-1]) */\n      tag_580\n        /* \"Verfiy.sol\":26:13300  contract Verify {... */\n      tag_581\n        /* \"Verfiy.sol\":9237:9251  ppg1s[L-i-1-1] */\n      tag_582\n        /* \"Verfiy.sol\":9243:9250  L-i-1-1 */\n      tag_583\n        /* \"Verfiy.sol\":9243:9248  L-i-1 */\n      tag_456\n        /* \"Verfiy.sol\":9243:9246  L-i */\n      tag_456\n      dup8\n      dup12\n      tag_46\n      jump\t// in\n        /* \"Verfiy.sol\":9243:9250  L-i-1-1 */\n    tag_583:\n        /* \"Verfiy.sol\":9237:9251  ppg1s[L-i-1-1] */\n      tag_23\n      jump\t// in\n    tag_582:\n        /* \"Verfiy.sol\":9253:9259  g2s[i] */\n      pop\n      tag_586\n      dup6\n      dup10\n      dup10\n      tag_49\n      jump\t// in\n    tag_586:\n        /* \"Verfiy.sol\":9272:9275  L-1 */\n      swap3\n      swap1\n        /* \"Verfiy.sol\":26:13300  contract Verify {... */\n      tag_251\n        /* \"Verfiy.sol\":9266:9276  ppg2s[L-1] */\n      tag_588\n        /* \"Verfiy.sol\":9272:9275  L-1 */\n      tag_589\n      dup13\n      tag_43\n      jump\t// in\n    tag_589:\n        /* \"Verfiy.sol\":9266:9276  ppg2s[L-1] */\n      tag_22\n      jump\t// in\n    tag_588:\n        /* \"Verfiy.sol\":26:13300  contract Verify {... */\n      pop\n      swap4\n      tag_26\n      jump\t// in\n    tag_581:\n      tag_517\n      tag_591\n      calldatasize\n      dup14\n      dup14\n      tag_12\n      jump\t// in\n    tag_591:\n      swap3\n      tag_26\n      jump\t// in\n        /* \"Verfiy.sol\":9219:9277  EqualPairingCheck(ppg1s[L-i-1-1], g2s[i], g1s, ppg2s[L-1]) */\n    tag_580:\n        /* \"Verfiy.sol\":9211:9297  require(EqualPairingCheck(ppg1s[L-i-1-1], g2s[i], g1s, ppg2s[L-1]),\"KeyCheck1 Failed\") */\n      tag_50\n      jump\t// in\n        /* \"Verfiy.sol\":9141:9144  i++ */\n    tag_575:\n        /* \"Verfiy.sol\":9122:9133  uint256 i=0 */\n      jump(tag_571)\n        /* \"Verfiy.sol\":9134:9140  i<=L-2 */\n    tag_573:\n      pop\n      swap2\n      swap3\n      swap4\n      swap5\n        /* \"Verfiy.sol\":9247:9248  1 */\n      0x01\n        /* \"Verfiy.sol\":9312:9320  index==1 */\n      eq\n        /* \"Verfiy.sol\":9309:9349  if(index==1){... */\n      tag_593\n      jumpi\n        /* \"Verfiy.sol\":9353:9430  require(EqualPairingCheck(g1, g2s[L-1], g1s, ppg2s[L-1]),\"KeyCheck2 Failed\" ) */\n      tag_595\n        /* \"Verfiy.sol\":26:13300  contract Verify {... */\n      swap4\n      tag_517\n      tag_591\n        /* \"Verfiy.sol\":9361:9409  EqualPairingCheck(g1, g2s[L-1], g1s, ppg2s[L-1]) */\n      tag_598\n        /* \"Verfiy.sol\":26:13300  contract Verify {... */\n      swap6\n      tag_251\n        /* \"Verfiy.sol\":9404:9407  L-1 */\n      tag_589\n        /* \"Verfiy.sol\":26:13300  contract Verify {... */\n      swap6\n        /* \"Verfiy.sol\":9398:9408  ppg2s[L-1] */\n      tag_601\n        /* \"Verfiy.sol\":9383:9391  g2s[L-1] */\n      tag_602\n        /* \"Verfiy.sol\":26:13300  contract Verify {... */\n      tag_603\n      tag_51\n      jump\t// in\n    tag_603:\n        /* \"Verfiy.sol\":9387:9390  L-1 */\n      swap10\n      dup4\n      tag_512\n      dup2\n      tag_43\n      jump\t// in\n        /* \"Verfiy.sol\":9383:9391  g2s[L-1] */\n    tag_602:\n        /* \"Verfiy.sol\":9404:9407  L-1 */\n      swap9\n      swap1\n      swap3\n      tag_43\n      jump\t// in\n        /* \"Verfiy.sol\":9398:9408  ppg2s[L-1] */\n    tag_601:\n        /* \"Verfiy.sol\":26:13300  contract Verify {... */\n      pop\n      swap7\n      calldatasize\n      swap2\n      tag_12\n      jump\t// in\n        /* \"Verfiy.sol\":9361:9409  EqualPairingCheck(g1, g2s[L-1], g1s, ppg2s[L-1]) */\n    tag_598:\n        /* \"Verfiy.sol\":9353:9430  require(EqualPairingCheck(g1, g2s[L-1], g1s, ppg2s[L-1]),\"KeyCheck2 Failed\" ) */\n      tag_52\n      jump\t// in\n    tag_595:\n        /* \"Verfiy.sol\":9247:9248  1 */\n      0x01\n        /* \"Verfiy.sol\":8988:9450  function CheckKeyDBE(bytes calldata g1s,bytes[] calldata g2s,uint256 index)public  returns (bool){... */\n      swap1\n      jump\t// out\n        /* \"Verfiy.sol\":9309:9349  if(index==1){... */\n    tag_593:\n        /* \"Verfiy.sol\":9331:9342  return true */\n      pop\n      pop\n      pop\n      pop\n        /* \"Verfiy.sol\":9247:9248  1 */\n      0x01\n        /* \"Verfiy.sol\":9331:9342  return true */\n      swap1\n      jump\t// out\n        /* \"Verfiy.sol\":26:13300  contract Verify {... */\n    tag_54:\n      jumpi(tag_605, iszero(returndatasize))\n      returndatasize\n      swap1\n      tag_607\n      dup3\n      tag_11\n      jump\t// in\n    tag_607:\n      swap2\n      tag_608\n      mload(0x40)\n      swap4\n      dup5\n      tag_10\n      jump\t// in\n    tag_608:\n      dup3\n      mstore\n      returndatasize\n      0x00\n      0x20\n      dup5\n      add\n      returndatacopy\n      jump\t// out\n    tag_605:\n      0x60\n      swap1\n      jump\t// out\n        /* \"Verfiy.sol\":11996:12163  function G2Muls(bytes memory d) public view returns (bytes memory point) {... */\n    tag_55:\n        /* \"Verfiy.sol\":12109:12136  address(0x0e).staticcall(d) */\n      0x00\n        /* \"Verfiy.sol\":11996:12163  function G2Muls(bytes memory d) public view returns (bytes memory point) {... */\n      dup1\n      swap2\n        /* \"Verfiy.sol\":12109:12136  address(0x0e).staticcall(d) */\n      0x20\n      dup2\n      mload\n      swap2\n      add\n        /* \"Verfiy.sol\":12117:12121  0x0e */\n      0x0e\n        /* \"Verfiy.sol\":12109:12136  address(0x0e).staticcall(d) */\n      gas\n      staticcall\n      pop\n      tag_180\n      tag_54\n      jump\t// in\n        /* \"Verfiy.sol\":26:13300  contract Verify {... */\n    tag_56:\n      dup1\n      mload\n      swap2\n      swap1\n      dup3\n      swap1\n      0x20\n      add\n      dup3\n      mcopy\n      add\n      0x00\n      dup2\n      mstore\n      swap1\n      jump\t// out\n        /* \"Verfiy.sol\":10717:10982  function G1Add(... */\n    tag_57:\n        /* \"Verfiy.sol\":10924:10955  address(0x0b).staticcall(input) */\n      0x00\n        /* \"Verfiy.sol\":10717:10982  function G1Add(... */\n      swap2\n      swap1\n        /* \"Verfiy.sol\":26:13300  contract Verify {... */\n      tag_209\n        /* \"Verfiy.sol\":10860:10884  abi.encodePacked(p1, p2) */\n      tag_612\n        /* \"Verfiy.sol\":10717:10982  function G1Add(... */\n      dup5\n      swap4\n        /* \"Verfiy.sol\":26:13300  contract Verify {... */\n      mload(0x40)\n        /* \"Verfiy.sol\":10860:10884  abi.encodePacked(p1, p2) */\n      swap3\n      dup4\n      swap2\n        /* \"Verfiy.sol\":26:13300  contract Verify {... */\n      tag_308\n        /* \"Verfiy.sol\":10860:10884  abi.encodePacked(p1, p2) */\n      0x20\n      dup5\n      add\n        /* \"Verfiy.sol\":26:13300  contract Verify {... */\n      dup1\n      swap8\n      tag_56\n      jump\t// in\n        /* \"Verfiy.sol\":10860:10884  abi.encodePacked(p1, p2) */\n    tag_612:\n        /* \"Verfiy.sol\":10924:10955  address(0x0b).staticcall(input) */\n      mload\n      swap1\n        /* \"Verfiy.sol\":10932:10936  0x0b */\n      0x0b\n        /* \"Verfiy.sol\":10924:10955  address(0x0b).staticcall(input) */\n      gas\n      staticcall\n      pop\n      tag_180\n      tag_54\n      jump\t// in\n        /* \"Verfiy.sol\":26:13300  contract Verify {... */\n    tag_58:\n      swap1\n      dup1\n      0x20\n      swap4\n      swap3\n      dup2\n      dup5\n      mstore\n      dup5\n      dup5\n      add\n      calldatacopy\n      0x00\n      dup3\n      dup3\n      add\n      dup5\n      add\n      mstore\n      0x1f\n      add\n      not(0x1f)\n      and\n      add\n      add\n      swap1\n      jump\t// out\n    tag_59:\n      swap1\n      0x20\n      dup4\n      dup3\n      dup2\n      mstore\n      add\n      swap1\n      0x20\n      dup2\n      0x05\n      shl\n      dup6\n      add\n      add\n      swap4\n      dup4\n      0x00\n      swap2\n    tag_615:\n      dup4\n      dup4\n      lt\n      tag_616\n      jumpi\n      pop\n      pop\n      pop\n      pop\n      pop\n      pop\n      swap1\n      jump\t// out\n    tag_616:\n      swap1\n      swap2\n      swap3\n      swap4\n      swap5\n      swap6\n      not(0x1f)\n      dup3\n      dup3\n      sub\n      add\n      dup7\n      mstore\n      dup7\n      calldataload\n      not(0x1e)\n      dup5\n      calldatasize\n      sub\n      add\n      dup2\n      slt\n      iszero\n      tag_146\n      jumpi\n      dup4\n      add\n      swap1\n      0x20\n      dup3\n      calldataload\n      swap3\n      add\n      swap2\n      sub(shl(0x40, 0x01), 0x01)\n      dup2\n      gt\n      tag_146\n      jumpi\n      dup1\n      calldatasize\n      sub\n      dup4\n      sgt\n      tag_146\n      jumpi\n      tag_624\n      0x20\n      swap3\n      dup4\n      swap3\n      0x01\n      swap6\n      tag_58\n      jump\t// in\n    tag_624:\n      swap9\n      add\n      swap7\n      add\n      swap5\n      swap4\n      add\n      swap2\n      swap1\n      jump(tag_615)\n    tag_60:\n      swap3\n      swap1\n      tag_625\n      swap1\n      tag_180\n      swap6\n      swap4\n      0x40\n      dup7\n      mstore\n      0x40\n      dup7\n      add\n      swap2\n      tag_58\n      jump\t// in\n    tag_625:\n      swap3\n      0x20\n      dup2\n      dup6\n      sub\n      swap2\n      add\n      mstore\n      tag_59\n      jump\t// in\n        /* \"Verfiy.sol\":77:143  0x73eda753299d7d483339d80809a1d80553bda402fffe5bfeffffffff00000001 */\n    tag_62:\n      swap1\n      dup2\n        /* \"Verfiy.sol\":7793:7796  288 */\n      0x0120\n        /* \"Verfiy.sol\":77:143  0x73eda753299d7d483339d80809a1d80553bda402fffe5bfeffffffff00000001 */\n      mul\n      swap2\n        /* \"Verfiy.sol\":7793:7796  288 */\n      0x0120\n        /* \"Verfiy.sol\":77:143  0x73eda753299d7d483339d80809a1d80553bda402fffe5bfeffffffff00000001 */\n      dup4\n      div\n      sub\n      tag_393\n      jumpi\n      jump\t// out\n    tag_63:\n      swap1\n      dup2\n      0x01\n      shl\n      swap2\n      dup1\n      dup4\n      div\n        /* \"Verfiy.sol\":1351:1352  2 */\n      0x02\n        /* \"Verfiy.sol\":77:143  0x73eda753299d7d483339d80809a1d80553bda402fffe5bfeffffffff00000001 */\n      eq\n      swap1\n      iszero\n      or\n      iszero\n      tag_393\n      jumpi\n      jump\t// out\n    tag_64:\n      swap1\n        /* \"Verfiy.sol\":1650:1653  160 */\n      0xa0\n        /* \"Verfiy.sol\":77:143  0x73eda753299d7d483339d80809a1d80553bda402fffe5bfeffffffff00000001 */\n      dup3\n      mul\n      swap2\n      dup1\n      dup4\n      div\n        /* \"Verfiy.sol\":1650:1653  160 */\n      0xa0\n        /* \"Verfiy.sol\":77:143  0x73eda753299d7d483339d80809a1d80553bda402fffe5bfeffffffff00000001 */\n      eq\n      swap1\n      iszero\n      or\n      iszero\n      tag_393\n      jumpi\n      jump\t// out\n    tag_65:\n      swap1\n        /* \"Verfiy.sol\":1704:1707  288 */\n      0x0120\n        /* \"Verfiy.sol\":77:143  0x73eda753299d7d483339d80809a1d80553bda402fffe5bfeffffffff00000001 */\n      dup3\n      mul\n      swap2\n      dup1\n      dup4\n      div\n        /* \"Verfiy.sol\":1704:1707  288 */\n      0x0120\n        /* \"Verfiy.sol\":77:143  0x73eda753299d7d483339d80809a1d80553bda402fffe5bfeffffffff00000001 */\n      eq\n      swap1\n      iszero\n      or\n      iszero\n      tag_393\n      jumpi\n      jump\t// out\n    tag_66:\n      0x01\n      dup2\n      swap1\n      shl\n      swap2\n      swap1\n      sub(shl(0xff, 0x01), 0x01)\n      dup2\n      and\n      sub\n      tag_393\n      jumpi\n      jump\t// out\n    tag_67:\n      swap1\n        /* \"Verfiy.sol\":26:13300  contract Verify {... */\n      tag_637\n      dup3\n      tag_11\n      jump\t// in\n    tag_637:\n      tag_638\n      mload(0x40)\n      swap2\n      dup3\n      tag_10\n      jump\t// in\n    tag_638:\n      dup3\n      dup2\n      mstore\n        /* \"Verfiy.sol\":77:143  0x73eda753299d7d483339d80809a1d80553bda402fffe5bfeffffffff00000001 */\n      dup1\n        /* \"Verfiy.sol\":26:13300  contract Verify {... */\n      swap3\n        /* \"Verfiy.sol\":77:143  0x73eda753299d7d483339d80809a1d80553bda402fffe5bfeffffffff00000001 */\n      tag_639\n        /* \"Verfiy.sol\":26:13300  contract Verify {... */\n      not(0x1f)\n        /* \"Verfiy.sol\":77:143  0x73eda753299d7d483339d80809a1d80553bda402fffe5bfeffffffff00000001 */\n      swap2\n      tag_11\n      jump\t// in\n    tag_639:\n      add\n      swap1\n      0x20\n      calldatasize\n      swap2\n      add\n      calldatacopy\n      jump\t// out\n    tag_68:\n      swap1\n        /* \"Verfiy.sol\":8229:8232  256 */\n      0x0100\n        /* \"Verfiy.sol\":77:143  0x73eda753299d7d483339d80809a1d80553bda402fffe5bfeffffffff00000001 */\n      dup3\n      add\n      dup1\n      swap3\n      gt\n      tag_393\n      jumpi\n      jump\t// out\n    tag_69:\n      swap1\n        /* \"Verfiy.sol\":7727:7747  abi.encode(g1s, g2s) */\n      0x20\n        /* \"Verfiy.sol\":77:143  0x73eda753299d7d483339d80809a1d80553bda402fffe5bfeffffffff00000001 */\n      dup3\n      add\n      dup1\n      swap3\n      gt\n      tag_393\n      jumpi\n      jump\t// out\n    tag_70:\n      swap1\n        /* \"Verfiy.sol\":1993:1996  128 */\n      0x80\n        /* \"Verfiy.sol\":77:143  0x73eda753299d7d483339d80809a1d80553bda402fffe5bfeffffffff00000001 */\n      dup3\n      add\n      dup1\n      swap3\n      gt\n      tag_393\n      jumpi\n      jump\t// out\n    tag_71:\n      swap1\n        /* \"Verfiy.sol\":1521:1522  1 */\n      0x01\n        /* \"Verfiy.sol\":77:143  0x73eda753299d7d483339d80809a1d80553bda402fffe5bfeffffffff00000001 */\n      dup3\n      add\n      dup1\n      swap3\n      gt\n      tag_393\n      jumpi\n      jump\t// out\n    tag_72:\n      iszero\n      tag_648\n      jumpi\n      jump\t// out\n    tag_648:\n        /* \"Verfiy.sol\":26:13300  contract Verify {... */\n      mload(0x40)\n      shl(0xe5, 0x461bcd)\n        /* \"Verfiy.sol\":77:143  0x73eda753299d7d483339d80809a1d80553bda402fffe5bfeffffffff00000001 */\n      dup2\n      mstore\n      0x20\n      0x04\n      dup3\n      add\n      mstore\n      0x0d\n      0x24\n      dup3\n      add\n        /* \"Verfiy.sol\":26:13300  contract Verify {... */\n      mstore\n      shl(0x9a, 0x10da1958dad2d95e4811985a5b)\n      0x44\n      dup3\n      add\n        /* \"Verfiy.sol\":77:143  0x73eda753299d7d483339d80809a1d80553bda402fffe5bfeffffffff00000001 */\n      mstore\n      0x64\n      swap1\n      revert\n        /* \"Verfiy.sol\":26:13300  contract Verify {... */\n    tag_73:\n      0x20\n      dup2\n      mload\n      swap2\n      add\n      mload\n      swap1\n      0x20\n      dup2\n      lt\n      tag_650\n      jumpi\n      pop\n      swap1\n      jump\t// out\n    tag_650:\n      not(0x00)\n      swap1\n      0x20\n      sub\n      0x03\n      shl\n      shl\n      and\n      swap1\n      jump\t// out\n        /* \"Verfiy.sol\":11260:11427  function G1Muls(bytes memory d) public view returns (bytes memory point) {... */\n    tag_74:\n        /* \"Verfiy.sol\":11373:11400  address(0x0c).staticcall(d) */\n      0x00\n        /* \"Verfiy.sol\":11260:11427  function G1Muls(bytes memory d) public view returns (bytes memory point) {... */\n      dup1\n      swap2\n        /* \"Verfiy.sol\":11373:11400  address(0x0c).staticcall(d) */\n      0x20\n      dup2\n      mload\n      swap2\n      add\n        /* \"Verfiy.sol\":11381:11385  0x0c */\n      0x0c\n        /* \"Verfiy.sol\":11373:11400  address(0x0c).staticcall(d) */\n      gas\n      staticcall\n      pop\n      tag_180\n      tag_54\n      jump\t// in\n        /* \"Verfiy.sol\":12531:12922  function EqualPairingCheck(... */\n    tag_75:\n      swap1\n        /* \"Verfiy.sol\":12766:12801  abi.encodePacked(p1, p2, negP3, p4) */\n      tag_653\n        /* \"Verfiy.sol\":26:13300  contract Verify {... */\n      tag_308\n        /* \"Verfiy.sol\":12531:12922  function EqualPairingCheck(... */\n      swap2\n        /* \"Verfiy.sol\":26:13300  contract Verify {... */\n      tag_209\n        /* \"Verfiy.sol\":12841:12872  address(0x0f).staticcall(input) */\n      0x00\n        /* \"Verfiy.sol\":12531:12922  function EqualPairingCheck(... */\n      swap7\n      dup8\n      dup1\n      dup1\n      swap9\n        /* \"Verfiy.sol\":26:13300  contract Verify {... */\n      mload(0x40)\n        /* \"Verfiy.sol\":11129:11157  abi.encodePacked(p1, scalar) */\n      tag_656\n      0x20\n      dup3\n        /* \"Verfiy.sol\":26:13300  contract Verify {... */\n      tag_657\n        /* \"Verfiy.sol\":11129:11157  abi.encodePacked(p1, scalar) */\n      dup3\n      dup3\n      add\n        /* \"Verfiy.sol\":26:13300  contract Verify {... */\n      dup1\n      swap7\n      tag_56\n      jump\t// in\n    tag_657:\n        /* \"Verfiy.sol\":179:245  0x73eda753299d7d483339d80809a1d80553bda402fffe5bfeffffffff00000000 */\n      0x73eda753299d7d483339d80809a1d80553bda402fffe5bfeffffffff00000000\n        /* \"Verfiy.sol\":26:13300  contract Verify {... */\n      dup2\n      mstore\n        /* \"Verfiy.sol\":11129:11157  abi.encodePacked(p1, scalar) */\n      sub\n      dup1\n      dup5\n      mstore\n      add\n      dup3\n      tag_10\n      jump\t// in\n    tag_656:\n        /* \"Verfiy.sol\":11197:11228  address(0x0c).staticcall(input) */\n      mload\n      swap1\n        /* \"Verfiy.sol\":11205:11209  0x0c */\n      0x0c\n        /* \"Verfiy.sol\":11197:11228  address(0x0c).staticcall(input) */\n      gas\n      staticcall\n      pop\n        /* \"Verfiy.sol\":26:13300  contract Verify {... */\n      tag_308\n        /* \"Verfiy.sol\":11197:11228  address(0x0c).staticcall(input) */\n      tag_659\n      tag_54\n      jump\t// in\n    tag_659:\n        /* \"Verfiy.sol\":26:13300  contract Verify {... */\n      mload(0x40)\n        /* \"Verfiy.sol\":12766:12801  abi.encodePacked(p1, p2, negP3, p4) */\n      swap7\n      dup8\n      swap6\n        /* \"Verfiy.sol\":26:13300  contract Verify {... */\n      tag_308\n        /* \"Verfiy.sol\":11129:11157  abi.encodePacked(p1, scalar) */\n      0x20\n        /* \"Verfiy.sol\":12766:12801  abi.encodePacked(p1, p2, negP3, p4) */\n      dup9\n      add\n        /* \"Verfiy.sol\":26:13300  contract Verify {... */\n      dup1\n      swap12\n      tag_56\n      jump\t// in\n        /* \"Verfiy.sol\":12766:12801  abi.encodePacked(p1, p2, negP3, p4) */\n    tag_653:\n        /* \"Verfiy.sol\":12841:12872  address(0x0f).staticcall(input) */\n      mload\n      swap1\n        /* \"Verfiy.sol\":12849:12853  0x0f */\n      0x0f\n        /* \"Verfiy.sol\":12841:12872  address(0x0f).staticcall(input) */\n      gas\n      staticcall\n      pop\n        /* \"Verfiy.sol\":12914:12915  1 */\n      0x01\n        /* \"Verfiy.sol\":12897:12909  bytes32(ret) */\n      tag_661\n        /* \"Verfiy.sol\":12841:12872  address(0x0f).staticcall(input) */\n      tag_310\n      tag_54\n      jump\t// in\n        /* \"Verfiy.sol\":12897:12909  bytes32(ret) */\n    tag_661:\n        /* \"Verfiy.sol\":12889:12915  uint256(bytes32(ret)) == 1 */\n      eq\n        /* \"Verfiy.sol\":12531:12922  function EqualPairingCheck(... */\n      swap1\n      jump\t// out\n        /* \"Verfiy.sol\":10987:11255  function G1Mul(... */\n    tag_77:\n      0x00\n      swap2\n      swap1\n      dup3\n      swap2\n        /* \"Verfiy.sol\":11129:11157  abi.encodePacked(p1, scalar) */\n      tag_663\n      0x20\n        /* \"Verfiy.sol\":26:13300  contract Verify {... */\n      mload(0x40)\n        /* \"Verfiy.sol\":11129:11157  abi.encodePacked(p1, scalar) */\n      dup1\n      swap4\n        /* \"Verfiy.sol\":26:13300  contract Verify {... */\n      tag_664\n        /* \"Verfiy.sol\":11129:11157  abi.encodePacked(p1, scalar) */\n      dup4\n      dup4\n      add\n        /* \"Verfiy.sol\":26:13300  contract Verify {... */\n      dup1\n      swap8\n      tag_56\n      jump\t// in\n    tag_664:\n      swap1\n      dup2\n      mstore\n        /* \"Verfiy.sol\":11129:11157  abi.encodePacked(p1, scalar) */\n      sub\n      dup1\n      dup5\n      mstore\n      add\n      dup3\n      tag_10\n      jump\t// in\n    tag_663:\n        /* \"Verfiy.sol\":11197:11228  address(0x0c).staticcall(input) */\n      mload\n      swap1\n        /* \"Verfiy.sol\":11205:11209  0x0c */\n      0x0c\n        /* \"Verfiy.sol\":11197:11228  address(0x0c).staticcall(input) */\n      gas\n      staticcall\n      pop\n      tag_180\n      tag_54\n      jump\t// in\n        /* \"Verfiy.sol\":26:13300  contract Verify {... */\n    tag_78:\n      iszero\n      tag_146\n      jumpi\n      jump\t// out\n    tag_79:\n      swap5\n      swap4\n      swap3\n      0x00\n      swap4\n      tag_668\n      tag_669\n      swap4\n      0x40\n      swap6\n      0x60\n      dup11\n      mstore\n      0x60\n      dup11\n      add\n      swap2\n      tag_59\n      jump\t// in\n    tag_668:\n      swap2\n      dup8\n      dup4\n      sub\n      0x20\n      dup10\n      add\n      mstore\n      tag_59\n      jump\t// in\n    tag_669:\n      swap4\n      add\n      mstore\n      jump\t// out\n    tag_80:\n      swap5\n      swap4\n      swap3\n        /* \"Verfiy.sol\":1521:1522  1 */\n      0x01\n        /* \"Verfiy.sol\":26:13300  contract Verify {... */\n      swap4\n      tag_668\n      tag_669\n      swap4\n      0x40\n      swap6\n      0x60\n      dup11\n      mstore\n      0x60\n      dup11\n      add\n      swap2\n      tag_59\n      jump\t// in\n    tag_81:\n      iszero\n      tag_672\n      jumpi\n      jump\t// out\n    tag_672:\n      mload(0x40)\n      shl(0xe5, 0x461bcd)\n      dup2\n      mstore\n      0x20\n      0x04\n      dup3\n      add\n      mstore\n      0x0a\n      0x24\n      dup3\n      add\n      mstore\n      shl(0xb1, 0x3130b2102398903632b7)\n      0x44\n      dup3\n      add\n      mstore\n      0x64\n      swap1\n      revert\n    tag_82:\n      mload(0x40)\n      swap1\n      tag_674\n      0x0120\n      dup4\n      tag_10\n      jump\t// in\n    tag_674:\n      0x0100\n      dup3\n      mstore\n      0xcb3e287e85a763af267492ab572e99ab3f370d275cec1da1aaa9075ff05f79be\n      0x0100\n      dup4\n      0x024aa2b2f08f0a91260805272dc51051\n      0x20\n      dup3\n      add\n      mstore\n      0xc6e47ad4fa403b02b4510b647ae3d1770bac0326a805bbefd48056c8c121bdb8\n      0x40\n      dup3\n      add\n      mstore\n      0x13e02b6052719f607dacd3a088274f65\n      0x60\n      dup3\n      add\n      mstore\n      0x596bd0d09920b61ab5da61bbdc7f5049334cf11213945d57e5ac7d055d042b7e\n      0x80\n      dup3\n      add\n      mstore\n      0x0ce5d527727d6e118cc9cdc6da2e351a\n      0xa0\n      dup3\n      add\n      mstore\n      0xadfd9baa8cbdd3a76d429a695160d12c923ac9cc3baca289e193548608b82801\n      0xc0\n      dup3\n      add\n      mstore\n      0x0606c4a02ea734cc32acd2b02bc28b99\n      0xe0\n      dup3\n      add\n      mstore\n      add\n      mstore\n      jump\t// out\n        /* \"Verfiy.sol\":574:1091  hex\"00000000000000000000000000000000024aa2b2f08f0a91260805272dc51051c6e47ad4fa403b02b4510b647ae3d1770bac0326a805bbefd48056c8c121bdb80000000000000000000000000000000013e02b6052719f607dacd3a088274f65596bd0d09920b61ab5da61bbdc7f5049334cf11213945d57e5ac7d055d042b7e000000000000000000000000000000000ce5d527727d6e118cc9cdc6da2e351aadfd9baa8cbdd3a76d429a695160d12c923ac9cc3baca289e193548608b82801000000000000000000000000000000000606c4a02ea734cc32acd2b02bc28b99cb3e287e85a763af267492ab572e99ab3f370d275cec1da1aaa9075ff05f79be\" */\n    tag_83:\n      iszero\n      tag_675\n      jumpi\n      jump\t// out\n    tag_675:\n        /* \"Verfiy.sol\":26:13300  contract Verify {... */\n      mload(0x40)\n      shl(0xe5, 0x461bcd)\n        /* \"Verfiy.sol\":574:1091  hex\"00000000000000000000000000000000024aa2b2f08f0a91260805272dc51051c6e47ad4fa403b02b4510b647ae3d1770bac0326a805bbefd48056c8c121bdb80000000000000000000000000000000013e02b6052719f607dacd3a088274f65596bd0d09920b61ab5da61bbdc7f5049334cf11213945d57e5ac7d055d042b7e000000000000000000000000000000000ce5d527727d6e118cc9cdc6da2e351aadfd9baa8cbdd3a76d429a695160d12c923ac9cc3baca289e193548608b82801000000000000000000000000000000000606c4a02ea734cc32acd2b02bc28b99cb3e287e85a763af267492ab572e99ab3f370d275cec1da1aaa9075ff05f79be\" */\n      dup2\n      mstore\n      0x20\n      0x04\n      dup3\n      add\n      mstore\n      0x0f\n      0x24\n      dup3\n      add\n        /* \"Verfiy.sol\":26:13300  contract Verify {... */\n      mstore\n      shl(0x8a, 0x10da1958dacc8b4c4811985a5b1959)\n      0x44\n      dup3\n      add\n        /* \"Verfiy.sol\":574:1091  hex\"00000000000000000000000000000000024aa2b2f08f0a91260805272dc51051c6e47ad4fa403b02b4510b647ae3d1770bac0326a805bbefd48056c8c121bdb80000000000000000000000000000000013e02b6052719f607dacd3a088274f65596bd0d09920b61ab5da61bbdc7f5049334cf11213945d57e5ac7d055d042b7e000000000000000000000000000000000ce5d527727d6e118cc9cdc6da2e351aadfd9baa8cbdd3a76d429a695160d12c923ac9cc3baca289e193548608b82801000000000000000000000000000000000606c4a02ea734cc32acd2b02bc28b99cb3e287e85a763af267492ab572e99ab3f370d275cec1da1aaa9075ff05f79be\" */\n      mstore\n      0x64\n      swap1\n      revert\n    tag_84:\n      iszero\n      tag_677\n      jumpi\n      jump\t// out\n    tag_677:\n        /* \"Verfiy.sol\":26:13300  contract Verify {... */\n      mload(0x40)\n      shl(0xe5, 0x461bcd)\n        /* \"Verfiy.sol\":574:1091  hex\"00000000000000000000000000000000024aa2b2f08f0a91260805272dc51051c6e47ad4fa403b02b4510b647ae3d1770bac0326a805bbefd48056c8c121bdb80000000000000000000000000000000013e02b6052719f607dacd3a088274f65596bd0d09920b61ab5da61bbdc7f5049334cf11213945d57e5ac7d055d042b7e000000000000000000000000000000000ce5d527727d6e118cc9cdc6da2e351aadfd9baa8cbdd3a76d429a695160d12c923ac9cc3baca289e193548608b82801000000000000000000000000000000000606c4a02ea734cc32acd2b02bc28b99cb3e287e85a763af267492ab572e99ab3f370d275cec1da1aaa9075ff05f79be\" */\n      dup2\n      mstore\n      0x20\n      0x04\n      dup3\n      add\n      mstore\n      0x0f\n      0x24\n      dup3\n      add\n        /* \"Verfiy.sol\":26:13300  contract Verify {... */\n      mstore\n      shl(0x8a, 0x10da1958dacc8b4c8811985a5b1959)\n      0x44\n      dup3\n      add\n        /* \"Verfiy.sol\":574:1091  hex\"00000000000000000000000000000000024aa2b2f08f0a91260805272dc51051c6e47ad4fa403b02b4510b647ae3d1770bac0326a805bbefd48056c8c121bdb80000000000000000000000000000000013e02b6052719f607dacd3a088274f65596bd0d09920b61ab5da61bbdc7f5049334cf11213945d57e5ac7d055d042b7e000000000000000000000000000000000ce5d527727d6e118cc9cdc6da2e351aadfd9baa8cbdd3a76d429a695160d12c923ac9cc3baca289e193548608b82801000000000000000000000000000000000606c4a02ea734cc32acd2b02bc28b99cb3e287e85a763af267492ab572e99ab3f370d275cec1da1aaa9075ff05f79be\" */\n      mstore\n      0x64\n      swap1\n      revert\n    tag_85:\n      iszero\n      tag_679\n      jumpi\n      jump\t// out\n    tag_679:\n        /* \"Verfiy.sol\":26:13300  contract Verify {... */\n      mload(0x40)\n      shl(0xe5, 0x461bcd)\n        /* \"Verfiy.sol\":574:1091  hex\"00000000000000000000000000000000024aa2b2f08f0a91260805272dc51051c6e47ad4fa403b02b4510b647ae3d1770bac0326a805bbefd48056c8c121bdb80000000000000000000000000000000013e02b6052719f607dacd3a088274f65596bd0d09920b61ab5da61bbdc7f5049334cf11213945d57e5ac7d055d042b7e000000000000000000000000000000000ce5d527727d6e118cc9cdc6da2e351aadfd9baa8cbdd3a76d429a695160d12c923ac9cc3baca289e193548608b82801000000000000000000000000000000000606c4a02ea734cc32acd2b02bc28b99cb3e287e85a763af267492ab572e99ab3f370d275cec1da1aaa9075ff05f79be\" */\n      dup2\n      mstore\n      0x20\n      0x04\n      dup3\n      add\n      mstore\n      0x0d\n      0x24\n      dup3\n      add\n        /* \"Verfiy.sol\":26:13300  contract Verify {... */\n      mstore\n      shl(0x9a, 0x10da1958daccc811985a5b1959)\n      0x44\n      dup3\n      add\n        /* \"Verfiy.sol\":574:1091  hex\"00000000000000000000000000000000024aa2b2f08f0a91260805272dc51051c6e47ad4fa403b02b4510b647ae3d1770bac0326a805bbefd48056c8c121bdb80000000000000000000000000000000013e02b6052719f607dacd3a088274f65596bd0d09920b61ab5da61bbdc7f5049334cf11213945d57e5ac7d055d042b7e000000000000000000000000000000000ce5d527727d6e118cc9cdc6da2e351aadfd9baa8cbdd3a76d429a695160d12c923ac9cc3baca289e193548608b82801000000000000000000000000000000000606c4a02ea734cc32acd2b02bc28b99cb3e287e85a763af267492ab572e99ab3f370d275cec1da1aaa9075ff05f79be\" */\n      mstore\n      0x64\n      swap1\n      revert\n    tag_86:\n      0x1f\n      dup3\n      gt\n      tag_681\n      jumpi\n      pop\n      pop\n      pop\n      jump\t// out\n    tag_681:\n      0x00\n        /* \"Verfiy.sol\":26:13300  contract Verify {... */\n      mstore\n      keccak256(0x00, 0x20)\n        /* \"Verfiy.sol\":574:1091  hex\"00000000000000000000000000000000024aa2b2f08f0a91260805272dc51051c6e47ad4fa403b02b4510b647ae3d1770bac0326a805bbefd48056c8c121bdb80000000000000000000000000000000013e02b6052719f607dacd3a088274f65596bd0d09920b61ab5da61bbdc7f5049334cf11213945d57e5ac7d055d042b7e000000000000000000000000000000000ce5d527727d6e118cc9cdc6da2e351aadfd9baa8cbdd3a76d429a695160d12c923ac9cc3baca289e193548608b82801000000000000000000000000000000000606c4a02ea734cc32acd2b02bc28b99cb3e287e85a763af267492ab572e99ab3f370d275cec1da1aaa9075ff05f79be\" */\n      swap1\n        /* \"Verfiy.sol\":26:13300  contract Verify {... */\n      0x20\n        /* \"Verfiy.sol\":574:1091  hex\"00000000000000000000000000000000024aa2b2f08f0a91260805272dc51051c6e47ad4fa403b02b4510b647ae3d1770bac0326a805bbefd48056c8c121bdb80000000000000000000000000000000013e02b6052719f607dacd3a088274f65596bd0d09920b61ab5da61bbdc7f5049334cf11213945d57e5ac7d055d042b7e000000000000000000000000000000000ce5d527727d6e118cc9cdc6da2e351aadfd9baa8cbdd3a76d429a695160d12c923ac9cc3baca289e193548608b82801000000000000000000000000000000000606c4a02ea734cc32acd2b02bc28b99cb3e287e85a763af267492ab572e99ab3f370d275cec1da1aaa9075ff05f79be\" */\n      0x1f\n      dup5\n      add\n      0x05\n      shr\n      dup4\n      add\n      swap4\n      lt\n      tag_683\n      jumpi\n    tag_684:\n      0x1f\n      add\n      0x05\n      shr\n      add\n      swap1\n    tag_685:\n      dup2\n      dup2\n      lt\n      tag_686\n      jumpi\n      pop\n      pop\n      jump\t// out\n    tag_686:\n      0x00\n      dup2\n      sstore\n      0x01\n      add\n      jump(tag_685)\n    tag_683:\n      swap1\n      swap2\n      pop\n      dup2\n      swap1\n      jump(tag_684)\n    tag_88:\n      swap2\n      swap1\n      sub(shl(0x40, 0x01), 0x01)\n      dup2\n      gt\n      tag_170\n      jumpi\n      tag_690\n      dup2\n      tag_691\n      sload(0x00)\n      tag_24\n      jump\t// in\n    tag_691:\n      0x00\n      tag_86\n      jump\t// in\n    tag_690:\n      0x00\n      0x1f\n      dup3\n      gt\n      0x01\n      eq\n      tag_692\n      jumpi\n      dup2\n      swap1\n      tag_694\n      swap4\n      swap5\n      0x00\n      swap3\n      tag_695\n      jumpi\n    tag_696:\n      pop\n      pop\n      dup2\n      0x01\n      shl\n        /* \"Verfiy.sol\":26:13300  contract Verify {... */\n      swap2\n      not(0x00)\n        /* \"Verfiy.sol\":574:1091  hex\"00000000000000000000000000000000024aa2b2f08f0a91260805272dc51051c6e47ad4fa403b02b4510b647ae3d1770bac0326a805bbefd48056c8c121bdb80000000000000000000000000000000013e02b6052719f607dacd3a088274f65596bd0d09920b61ab5da61bbdc7f5049334cf11213945d57e5ac7d055d042b7e000000000000000000000000000000000ce5d527727d6e118cc9cdc6da2e351aadfd9baa8cbdd3a76d429a695160d12c923ac9cc3baca289e193548608b82801000000000000000000000000000000000606c4a02ea734cc32acd2b02bc28b99cb3e287e85a763af267492ab572e99ab3f370d275cec1da1aaa9075ff05f79be\" */\n      swap1\n      0x03\n      shl\n        /* \"Verfiy.sol\":26:13300  contract Verify {... */\n      shr\n        /* \"Verfiy.sol\":574:1091  hex\"00000000000000000000000000000000024aa2b2f08f0a91260805272dc51051c6e47ad4fa403b02b4510b647ae3d1770bac0326a805bbefd48056c8c121bdb80000000000000000000000000000000013e02b6052719f607dacd3a088274f65596bd0d09920b61ab5da61bbdc7f5049334cf11213945d57e5ac7d055d042b7e000000000000000000000000000000000ce5d527727d6e118cc9cdc6da2e351aadfd9baa8cbdd3a76d429a695160d12c923ac9cc3baca289e193548608b82801000000000000000000000000000000000606c4a02ea734cc32acd2b02bc28b99cb3e287e85a763af267492ab572e99ab3f370d275cec1da1aaa9075ff05f79be\" */\n      not\n      and\n      or\n      swap1\n      jump\n    tag_694:\n      0x00\n      sstore\n      jump\t// out\n    tag_695:\n      add\n      calldataload\n      swap1\n      pop\n      0x00\n      dup1\n      jump(tag_696)\n    tag_692:\n      0x00\n        /* \"Verfiy.sol\":26:13300  contract Verify {... */\n      dup1\n      mstore\n      not(0x1f)\n        /* \"Verfiy.sol\":574:1091  hex\"00000000000000000000000000000000024aa2b2f08f0a91260805272dc51051c6e47ad4fa403b02b4510b647ae3d1770bac0326a805bbefd48056c8c121bdb80000000000000000000000000000000013e02b6052719f607dacd3a088274f65596bd0d09920b61ab5da61bbdc7f5049334cf11213945d57e5ac7d055d042b7e000000000000000000000000000000000ce5d527727d6e118cc9cdc6da2e351aadfd9baa8cbdd3a76d429a695160d12c923ac9cc3baca289e193548608b82801000000000000000000000000000000000606c4a02ea734cc32acd2b02bc28b99cb3e287e85a763af267492ab572e99ab3f370d275cec1da1aaa9075ff05f79be\" */\n      dup3\n      and\n      swap4\n        /* \"Verfiy.sol\":26:13300  contract Verify {... */\n      0x290decd9548b62a8d60345a988386fc84ba6bc95484008f6362f93160ef3e563\n        /* \"Verfiy.sol\":574:1091  hex\"00000000000000000000000000000000024aa2b2f08f0a91260805272dc51051c6e47ad4fa403b02b4510b647ae3d1770bac0326a805bbefd48056c8c121bdb80000000000000000000000000000000013e02b6052719f607dacd3a088274f65596bd0d09920b61ab5da61bbdc7f5049334cf11213945d57e5ac7d055d042b7e000000000000000000000000000000000ce5d527727d6e118cc9cdc6da2e351aadfd9baa8cbdd3a76d429a695160d12c923ac9cc3baca289e193548608b82801000000000000000000000000000000000606c4a02ea734cc32acd2b02bc28b99cb3e287e85a763af267492ab572e99ab3f370d275cec1da1aaa9075ff05f79be\" */\n      swap2\n      0x00\n    tag_699:\n      dup7\n      dup2\n      lt\n      tag_700\n      jumpi\n      pop\n      dup4\n      0x01\n      swap6\n      swap7\n      lt\n      tag_702\n      jumpi\n    tag_703:\n      pop\n      pop\n      pop\n      dup2\n      shl\n      add\n      0x00\n      sstore\n      jump\t// out\n    tag_702:\n      add\n      calldataload\n      not(0x00)\n      0x03\n      dup5\n      swap1\n      shl\n      0xf8\n      and\n        /* \"Verfiy.sol\":26:13300  contract Verify {... */\n      shr\n        /* \"Verfiy.sol\":574:1091  hex\"00000000000000000000000000000000024aa2b2f08f0a91260805272dc51051c6e47ad4fa403b02b4510b647ae3d1770bac0326a805bbefd48056c8c121bdb80000000000000000000000000000000013e02b6052719f607dacd3a088274f65596bd0d09920b61ab5da61bbdc7f5049334cf11213945d57e5ac7d055d042b7e000000000000000000000000000000000ce5d527727d6e118cc9cdc6da2e351aadfd9baa8cbdd3a76d429a695160d12c923ac9cc3baca289e193548608b82801000000000000000000000000000000000606c4a02ea734cc32acd2b02bc28b99cb3e287e85a763af267492ab572e99ab3f370d275cec1da1aaa9075ff05f79be\" */\n      not\n      and\n      swap1\n      sstore\n        /* \"Verfiy.sol\":26:13300  contract Verify {... */\n      0x00\n      dup1\n      dup1\n        /* \"Verfiy.sol\":574:1091  hex\"00000000000000000000000000000000024aa2b2f08f0a91260805272dc51051c6e47ad4fa403b02b4510b647ae3d1770bac0326a805bbefd48056c8c121bdb80000000000000000000000000000000013e02b6052719f607dacd3a088274f65596bd0d09920b61ab5da61bbdc7f5049334cf11213945d57e5ac7d055d042b7e000000000000000000000000000000000ce5d527727d6e118cc9cdc6da2e351aadfd9baa8cbdd3a76d429a695160d12c923ac9cc3baca289e193548608b82801000000000000000000000000000000000606c4a02ea734cc32acd2b02bc28b99cb3e287e85a763af267492ab572e99ab3f370d275cec1da1aaa9075ff05f79be\" */\n      jump(tag_703)\n    tag_700:\n      swap1\n      swap3\n      0x20\n      0x01\n      dup2\n      swap3\n      dup7\n      dup7\n      add\n      calldataload\n      dup2\n      sstore\n      add\n      swap5\n      add\n      swap2\n      add\n      jump(tag_699)\n    tag_89:\n      swap1\n      swap3\n      swap2\n      sub(shl(0x40, 0x01), 0x01)\n      dup2\n      gt\n      tag_170\n      jumpi\n      tag_706\n      dup2\n      tag_707\n      dup5\n      sload\n      tag_24\n      jump\t// in\n    tag_707:\n      dup5\n      tag_86\n      jump\t// in\n    tag_706:\n      0x00\n      0x1f\n      dup3\n      gt\n      0x01\n      eq\n      tag_708\n      jumpi\n      dup2\n      swap1\n      tag_710\n      swap4\n      swap5\n      swap6\n      0x00\n      swap3\n      tag_695\n      jumpi\n      pop\n      pop\n      dup2\n      0x01\n      shl\n        /* \"Verfiy.sol\":26:13300  contract Verify {... */\n      swap2\n      not(0x00)\n        /* \"Verfiy.sol\":574:1091  hex\"00000000000000000000000000000000024aa2b2f08f0a91260805272dc51051c6e47ad4fa403b02b4510b647ae3d1770bac0326a805bbefd48056c8c121bdb80000000000000000000000000000000013e02b6052719f607dacd3a088274f65596bd0d09920b61ab5da61bbdc7f5049334cf11213945d57e5ac7d055d042b7e000000000000000000000000000000000ce5d527727d6e118cc9cdc6da2e351aadfd9baa8cbdd3a76d429a695160d12c923ac9cc3baca289e193548608b82801000000000000000000000000000000000606c4a02ea734cc32acd2b02bc28b99cb3e287e85a763af267492ab572e99ab3f370d275cec1da1aaa9075ff05f79be\" */\n      swap1\n      0x03\n      shl\n        /* \"Verfiy.sol\":26:13300  contract Verify {... */\n      shr\n        /* \"Verfiy.sol\":574:1091  hex\"00000000000000000000000000000000024aa2b2f08f0a91260805272dc51051c6e47ad4fa403b02b4510b647ae3d1770bac0326a805bbefd48056c8c121bdb80000000000000000000000000000000013e02b6052719f607dacd3a088274f65596bd0d09920b61ab5da61bbdc7f5049334cf11213945d57e5ac7d055d042b7e000000000000000000000000000000000ce5d527727d6e118cc9cdc6da2e351aadfd9baa8cbdd3a76d429a695160d12c923ac9cc3baca289e193548608b82801000000000000000000000000000000000606c4a02ea734cc32acd2b02bc28b99cb3e287e85a763af267492ab572e99ab3f370d275cec1da1aaa9075ff05f79be\" */\n      not\n      and\n      or\n      swap1\n      jump\n    tag_710:\n      swap1\n      sstore\n      jump\t// out\n    tag_708:\n        /* \"Verfiy.sol\":26:13300  contract Verify {... */\n      not(0x1f)\n        /* \"Verfiy.sol\":574:1091  hex\"00000000000000000000000000000000024aa2b2f08f0a91260805272dc51051c6e47ad4fa403b02b4510b647ae3d1770bac0326a805bbefd48056c8c121bdb80000000000000000000000000000000013e02b6052719f607dacd3a088274f65596bd0d09920b61ab5da61bbdc7f5049334cf11213945d57e5ac7d055d042b7e000000000000000000000000000000000ce5d527727d6e118cc9cdc6da2e351aadfd9baa8cbdd3a76d429a695160d12c923ac9cc3baca289e193548608b82801000000000000000000000000000000000606c4a02ea734cc32acd2b02bc28b99cb3e287e85a763af267492ab572e99ab3f370d275cec1da1aaa9075ff05f79be\" */\n      dup3\n      and\n      swap5\n      tag_714\n      dup5\n        /* \"Verfiy.sol\":26:13300  contract Verify {... */\n      0x00\n      mstore\n      keccak256(0x00, 0x20)\n      swap1\n      jump\n        /* \"Verfiy.sol\":574:1091  hex\"00000000000000000000000000000000024aa2b2f08f0a91260805272dc51051c6e47ad4fa403b02b4510b647ae3d1770bac0326a805bbefd48056c8c121bdb80000000000000000000000000000000013e02b6052719f607dacd3a088274f65596bd0d09920b61ab5da61bbdc7f5049334cf11213945d57e5ac7d055d042b7e000000000000000000000000000000000ce5d527727d6e118cc9cdc6da2e351aadfd9baa8cbdd3a76d429a695160d12c923ac9cc3baca289e193548608b82801000000000000000000000000000000000606c4a02ea734cc32acd2b02bc28b99cb3e287e85a763af267492ab572e99ab3f370d275cec1da1aaa9075ff05f79be\" */\n    tag_714:\n      swap2\n      0x00\n    tag_715:\n      dup8\n      dup2\n      lt\n      tag_716\n      jumpi\n      pop\n      dup4\n      0x01\n      swap6\n      swap7\n      swap8\n      lt\n      tag_718\n      jumpi\n    tag_719:\n      pop\n      pop\n      pop\n      dup2\n      shl\n      add\n      swap1\n      sstore\n      jump\t// out\n    tag_718:\n      add\n      calldataload\n      not(0x00)\n      0x03\n      dup5\n      swap1\n      shl\n      0xf8\n      and\n        /* \"Verfiy.sol\":26:13300  contract Verify {... */\n      shr\n        /* \"Verfiy.sol\":574:1091  hex\"00000000000000000000000000000000024aa2b2f08f0a91260805272dc51051c6e47ad4fa403b02b4510b647ae3d1770bac0326a805bbefd48056c8c121bdb80000000000000000000000000000000013e02b6052719f607dacd3a088274f65596bd0d09920b61ab5da61bbdc7f5049334cf11213945d57e5ac7d055d042b7e000000000000000000000000000000000ce5d527727d6e118cc9cdc6da2e351aadfd9baa8cbdd3a76d429a695160d12c923ac9cc3baca289e193548608b82801000000000000000000000000000000000606c4a02ea734cc32acd2b02bc28b99cb3e287e85a763af267492ab572e99ab3f370d275cec1da1aaa9075ff05f79be\" */\n      not\n      and\n      swap1\n      sstore\n        /* \"Verfiy.sol\":26:13300  contract Verify {... */\n      0x00\n      dup1\n      dup1\n        /* \"Verfiy.sol\":574:1091  hex\"00000000000000000000000000000000024aa2b2f08f0a91260805272dc51051c6e47ad4fa403b02b4510b647ae3d1770bac0326a805bbefd48056c8c121bdb80000000000000000000000000000000013e02b6052719f607dacd3a088274f65596bd0d09920b61ab5da61bbdc7f5049334cf11213945d57e5ac7d055d042b7e000000000000000000000000000000000ce5d527727d6e118cc9cdc6da2e351aadfd9baa8cbdd3a76d429a695160d12c923ac9cc3baca289e193548608b82801000000000000000000000000000000000606c4a02ea734cc32acd2b02bc28b99cb3e287e85a763af267492ab572e99ab3f370d275cec1da1aaa9075ff05f79be\" */\n      jump(tag_719)\n    tag_716:\n      swap1\n      swap3\n      0x20\n      0x01\n      dup2\n      swap3\n      dup7\n      dup7\n      add\n      calldataload\n      dup2\n      sstore\n      add\n      swap5\n      add\n      swap2\n      add\n      jump(tag_715)\n    tag_90:\n      swap3\n      swap1\n      tag_625\n      swap1\n      tag_180\n      swap6\n      swap4\n      0x40\n      dup7\n      mstore\n      0x40\n      dup7\n      add\n      swap2\n      tag_59\n      jump\t// in\n    tag_91:\n      swap1\n        /* \"Verfiy.sol\":26:13300  contract Verify {... */\n      dup2\n      mload\n        /* \"Verfiy.sol\":574:1091  hex\"00000000000000000000000000000000024aa2b2f08f0a91260805272dc51051c6e47ad4fa403b02b4510b647ae3d1770bac0326a805bbefd48056c8c121bdb80000000000000000000000000000000013e02b6052719f607dacd3a088274f65596bd0d09920b61ab5da61bbdc7f5049334cf11213945d57e5ac7d055d042b7e000000000000000000000000000000000ce5d527727d6e118cc9cdc6da2e351aadfd9baa8cbdd3a76d429a695160d12c923ac9cc3baca289e193548608b82801000000000000000000000000000000000606c4a02ea734cc32acd2b02bc28b99cb3e287e85a763af267492ab572e99ab3f370d275cec1da1aaa9075ff05f79be\" */\n      dup2\n      lt\n      iszero\n      tag_253\n      jumpi\n      add\n      0x20\n      add\n      swap1\n      jump\t// out\n    tag_94:\n      swap1\n      dup3\n      lt\n      iszero\n      tag_253\n      jumpi\n      add\n      swap1\n      jump\t// out\n        /* \"Verfiy.sol\":4044:7190  function CheckTest(bytes[] calldata g1s,... */\n    tag_95:\n      swap6\n      swap2\n      swap6\n      swap5\n      swap3\n      swap5\n        /* \"Verfiy.sol\":4268:4289  require(L1 * 2 == L2) */\n      tag_726\n        /* \"Verfiy.sol\":4276:4282  L1 * 2 */\n      dup7\n      tag_422\n      dup5\n      tag_63\n      jump\t// in\n        /* \"Verfiy.sol\":4268:4289  require(L1 * 2 == L2) */\n    tag_726:\n        /* \"Verfiy.sol\":4340:4387  uint256(keccak256(abi.encode(g1s, g2s, 0))) % q */\n      tag_728\n        /* \"Verfiy.sol\":26:13300  contract Verify {... */\n      mload(0x40)\n        /* \"Verfiy.sol\":4358:4381  abi.encode(g1s, g2s, 0) */\n      0x20\n      dup2\n      add\n      swap1\n      tag_208\n      dup2\n      tag_209\n      dup12\n      dup14\n      dup10\n      dup10\n      dup9\n      tag_79\n      jump\t// in\n        /* \"Verfiy.sol\":4340:4387  uint256(keccak256(abi.encode(g1s, g2s, 0))) % q */\n    tag_728:\n        /* \"Verfiy.sol\":26:13300  contract Verify {... */\n      swap5\n        /* \"Verfiy.sol\":4412:4459  uint256(keccak256(abi.encode(g1s, g2s, 1))) % q */\n      tag_731\n        /* \"Verfiy.sol\":26:13300  contract Verify {... */\n      dup9\n      mload(0x40)\n        /* \"Verfiy.sol\":4430:4453  abi.encode(g1s, g2s, 1) */\n      tag_208\n      dup2\n      tag_209\n      dup13\n        /* \"Verfiy.sol\":4358:4381  abi.encode(g1s, g2s, 0) */\n      0x20\n        /* \"Verfiy.sol\":4430:4453  abi.encode(g1s, g2s, 1) */\n      dup4\n      add\n      swap6\n      dup11\n      dup11\n      dup9\n      tag_80\n      jump\t// in\n        /* \"Verfiy.sol\":4412:4459  uint256(keccak256(abi.encode(g1s, g2s, 1))) % q */\n    tag_731:\n        /* \"Verfiy.sol\":4469:4486  uint256 temp1 = 1 */\n      swap1\n        /* \"Verfiy.sol\":4451:4452  1 */\n      0x01\n        /* \"Verfiy.sol\":4496:4513  uint256 temp2 = 1 */\n      swap5\n        /* \"Verfiy.sol\":4565:4584  new bytes(L1 * 160) */\n      tag_734\n        /* \"Verfiy.sol\":4575:4583  L1 * 160 */\n      tag_211\n      dup7\n      tag_64\n      jump\t// in\n        /* \"Verfiy.sol\":4565:4584  new bytes(L1 * 160) */\n    tag_734:\n        /* \"Verfiy.sol\":4624:4630  L2 - 3 */\n      swap10\n        /* \"Verfiy.sol\":4613:4638  new bytes((L2 - 3) * 288) */\n      tag_736\n        /* \"Verfiy.sol\":4623:4637  (L2 - 3) * 288 */\n      tag_211\n        /* \"Verfiy.sol\":4624:4630  L2 - 3 */\n      tag_433\n      dup13\n      tag_44\n      jump\t// in\n        /* \"Verfiy.sol\":4613:4638  new bytes((L2 - 3) * 288) */\n    tag_736:\n        /* \"Verfiy.sol\":4667:4692  new bytes((L1 - 1) * 160) */\n      tag_739\n        /* \"Verfiy.sol\":4677:4691  (L1 - 1) * 160 */\n      tag_211\n        /* \"Verfiy.sol\":4678:4684  L1 - 1 */\n      tag_436\n      dup10\n      tag_43\n      jump\t// in\n        /* \"Verfiy.sol\":4667:4692  new bytes((L1 - 1) * 160) */\n    tag_739:\n        /* \"Verfiy.sol\":4732:4738  L2 - 2 */\n      swap11\n        /* \"Verfiy.sol\":4721:4746  new bytes((L2 - 2) * 288) */\n      tag_742\n        /* \"Verfiy.sol\":4731:4745  (L2 - 2) * 288 */\n      tag_211\n        /* \"Verfiy.sol\":4732:4738  L2 - 2 */\n      tag_433\n      dup4\n      tag_45\n      jump\t// in\n        /* \"Verfiy.sol\":4721:4746  new bytes((L2 - 2) * 288) */\n    tag_742:\n        /* \"Verfiy.sol\":4831:4836  k = 0 */\n      swap5\n        /* \"Verfiy.sol\":26:13300  contract Verify {... */\n      0x00\n        /* \"Verfiy.sol\":4851:4864  uint256 i = 0 */\n      swap11\n        /* \"Verfiy.sol\":26:13300  contract Verify {... */\n      0x00\n        /* \"Verfiy.sol\":4846:5119  for (uint256 i = 0; i <= L1 - 1; i++) {... */\n      swap12\n        /* \"Verfiy.sol\":4879:4882  i++ */\n    tag_745:\n        /* \"Verfiy.sol\":4871:4877  L1 - 1 */\n      tag_746\n      dup12\n      tag_43\n      jump\t// in\n    tag_746:\n        /* \"Verfiy.sol\":4866:4877  i <= L1 - 1 */\n      dup14\n      gt\n      tag_747\n      jumpi\n        /* \"Verfiy.sol\":4906:4912  g1s[i] */\n      dup16\n      dup15\n        /* \"Verfiy.sol\":5059:5064  k+=32 */\n      tag_749\n        /* \"Verfiy.sol\":4906:4912  g1s[i] */\n      dup16\n      swap3\n      dup16\n      dup16\n      swap1\n      dup16\n      dup8\n        /* \"Verfiy.sol\":4965:4971  g1s[i] */\n      tag_445\n        /* \"Verfiy.sol\":4879:4882  i++ */\n      tag_751\n        /* \"Verfiy.sol\":4906:4912  g1s[i] */\n      swap10\n      dup7\n        /* \"Verfiy.sol\":4965:4971  g1s[i] */\n      tag_446\n        /* \"Verfiy.sol\":4906:4912  g1s[i] */\n      dup12\n      dup9\n      dup8\n        /* \"Verfiy.sol\":4898:4941  require(g1s[i].length == 128, \"bad G1 len\") */\n      tag_451\n      mload(0x00)\n      codecopy(0x00, data_3b2d02282c3edcbfc4f9664b53f75892ea03b8fe586039e3ee6fe41258ca9b0d, 0x20)\n      mload(0x00)\n      swap1\n      0x00\n      mstore\n        /* \"Verfiy.sol\":4906:4912  g1s[i] */\n      swap16\n      tag_448\n        /* \"Verfiy.sol\":4923:4926  128 */\n      0x80\n        /* \"Verfiy.sol\":4906:4912  g1s[i] */\n      swap2\n        /* \"Verfiy.sol\":5043:5044  k */\n      tag_228\n        /* \"Verfiy.sol\":4906:4912  g1s[i] */\n      swap15\n        /* \"Verfiy.sol\":5002:5008  k+=128 */\n      tag_450\n        /* \"Verfiy.sol\":4906:4912  g1s[i] */\n      swap14\n      tag_49\n      jump\t// in\n        /* \"Verfiy.sol\":5059:5064  k+=32 */\n    tag_749:\n        /* \"Verfiy.sol\":5086:5108  mulmod(temp1, rho1, q) */\n      swap14\n      mulmod\n        /* \"Verfiy.sol\":4879:4882  i++ */\n      swap13\n      tag_42\n      jump\t// in\n    tag_751:\n        /* \"Verfiy.sol\":4851:4864  uint256 i = 0 */\n      swap12\n      swap11\n      jump(tag_745)\n        /* \"Verfiy.sol\":4866:4877  i <= L1 - 1 */\n    tag_747:\n      pop\n      swap4\n      swap11\n      pop\n      swap4\n      swap7\n      swap11\n      swap5\n      swap12\n      swap2\n      swap9\n      pop\n      swap7\n      swap5\n      swap12\n        /* \"Verfiy.sol\":5149:5160  G1Muls(ag1) */\n      tag_757\n        /* \"Verfiy.sol\":4866:4877  i <= L1 - 1 */\n      swap1\n        /* \"Verfiy.sol\":5149:5160  G1Muls(ag1) */\n      tag_74\n      jump\t// in\n    tag_757:\n        /* \"Verfiy.sol\":26:13300  contract Verify {... */\n      0x00\n      swap11\n        /* \"Verfiy.sol\":5233:5245  temp2 = rho2 */\n      dup14\n      swap8\n        /* \"Verfiy.sol\":26:13300  contract Verify {... */\n      dup13\n        /* \"Verfiy.sol\":5296:5299  i++ */\n    tag_758:\n        /* \"Verfiy.sol\":5280:5286  2 * L1 */\n      dup14\n        /* \"Verfiy.sol\":5280:5294  2 * L1 - 1 - 1 */\n      tag_759\n        /* \"Verfiy.sol\":5280:5290  2 * L1 - 1 */\n      tag_456\n        /* \"Verfiy.sol\":5280:5286  2 * L1 */\n      tag_456\n      dup13\n      tag_66\n      jump\t// in\n        /* \"Verfiy.sol\":5280:5294  2 * L1 - 1 - 1 */\n    tag_759:\n      lt\n        /* \"Verfiy.sol\":5275:5294  i <= 2 * L1 - 1 - 1 */\n      tag_762\n      jumpi\n        /* \"Verfiy.sol\":5374:5380  L1 - 1 */\n      dup16\n      swap1\n      dup13\n      swap1\n      dup16\n      dup16\n      dup15\n      swap1\n      tag_764\n      dup15\n      tag_43\n      jump\t// in\n    tag_764:\n        /* \"Verfiy.sol\":5369:5380  i == L1 - 1 */\n      dup4\n      eq\n        /* \"Verfiy.sol\":5369:5391  i == L1 - 1 || i == L1 */\n      dup1\n      iszero\n      tag_765\n      jumpi\n        /* \"Verfiy.sol\":5296:5299  i++ */\n    tag_766:\n        /* \"Verfiy.sol\":5365:5482  if (i == L1 - 1 || i == L1) {... */\n      tag_767\n      jumpi\n        /* \"Verfiy.sol\":5505:5511  g2s[i] */\n      dup15\n        /* \"Verfiy.sol\":5542:5548  k+=256 */\n      tag_450\n        /* \"Verfiy.sol\":5505:5511  g2s[i] */\n      dup6\n      tag_224\n        /* \"Verfiy.sol\":5296:5299  i++ */\n      tag_771\n        /* \"Verfiy.sol\":5505:5511  g2s[i] */\n      swap10\n      swap8\n      dup10\n      tag_226\n        /* \"Verfiy.sol\":5599:5604  k+=32 */\n      tag_773\n        /* \"Verfiy.sol\":5505:5511  g2s[i] */\n      swap10\n      mload(0x00)\n      codecopy(0x00, data_3b2d02282c3edcbfc4f9664b53f75892ea03b8fe586039e3ee6fe41258ca9b0d, 0x20)\n      mload(0x00)\n      swap1\n      0x00\n      mstore\n      swap13\n      swap10\n        /* \"Verfiy.sol\":5583:5584  k */\n      tag_228\n        /* \"Verfiy.sol\":5505:5511  g2s[i] */\n      swap10\n      tag_49\n      jump\t// in\n        /* \"Verfiy.sol\":5599:5604  k+=32 */\n    tag_773:\n        /* \"Verfiy.sol\":5626:5648  mulmod(temp2, rho2, q) */\n      swap12\n      mulmod\n        /* \"Verfiy.sol\":5296:5299  i++ */\n      swap14\n      tag_42\n      jump\t// in\n    tag_771:\n        /* \"Verfiy.sol\":5260:5273  uint256 i = 0 */\n      swap13\n      swap9\n      jump(tag_758)\n        /* \"Verfiy.sol\":5365:5482  if (i == L1 - 1 || i == L1) {... */\n    tag_767:\n        /* \"Verfiy.sol\":5419:5441  mulmod(temp2, rho2, q) */\n      pop\n      pop\n      pop\n      swap11\n      mload(0x00)\n      codecopy(0x00, data_3b2d02282c3edcbfc4f9664b53f75892ea03b8fe586039e3ee6fe41258ca9b0d, 0x20)\n      mload(0x00)\n      swap1\n      0x00\n      mstore\n      swap2\n      pop\n      swap2\n        /* \"Verfiy.sol\":5296:5299  i++ */\n      tag_771\n        /* \"Verfiy.sol\":5419:5441  mulmod(temp2, rho2, q) */\n      swap3\n      mulmod\n        /* \"Verfiy.sol\":5459:5467  continue */\n      swap14\n        /* \"Verfiy.sol\":5296:5299  i++ */\n      tag_42\n      jump\t// in\n        /* \"Verfiy.sol\":5369:5391  i == L1 - 1 || i == L1 */\n    tag_765:\n        /* \"Verfiy.sol\":5384:5391  i == L1 */\n      pop\n      dup14\n      dup4\n      eq\n        /* \"Verfiy.sol\":5369:5391  i == L1 - 1 || i == L1 */\n      jump(tag_766)\n        /* \"Verfiy.sol\":5275:5294  i <= 2 * L1 - 1 - 1 */\n    tag_762:\n      pop\n      swap7\n      swap9\n      swap6\n      swap14\n      swap5\n      swap13\n      swap3\n      swap11\n      swap4\n      swap10\n        /* \"Verfiy.sol\":5718:5734  G2Add(g2, part2) */\n      tag_776\n        /* \"Verfiy.sol\":5275:5294  i <= 2 * L1 - 1 - 1 */\n      swap3\n      swap13\n      pop\n        /* \"Verfiy.sol\":5689:5700  G2Muls(ag2) */\n      tag_472\n        /* \"Verfiy.sol\":5275:5294  i <= 2 * L1 - 1 - 1 */\n      swap2\n      swap9\n      pop\n        /* \"Verfiy.sol\":5689:5700  G2Muls(ag2) */\n      tag_55\n      jump\t// in\n        /* \"Verfiy.sol\":5718:5734  G2Add(g2, part2) */\n    tag_776:\n        /* \"Verfiy.sol\":5792:5797  k = 0 */\n      swap4\n        /* \"Verfiy.sol\":26:13300  contract Verify {... */\n      0x00\n        /* \"Verfiy.sol\":5807:5819  temp1 = rho1 */\n      swap11\n      dup14\n        /* \"Verfiy.sol\":5834:5847  uint256 i = 0 */\n      swap10\n        /* \"Verfiy.sol\":26:13300  contract Verify {... */\n      0x00\n        /* \"Verfiy.sol\":5829:6045  for (uint256 i = 0; i <= L1 - 1 - 1; i++) {... */\n      swap13\n        /* \"Verfiy.sol\":5866:5869  i++ */\n    tag_779:\n        /* \"Verfiy.sol\":5854:5860  L1 - 1 */\n      dup14\n        /* \"Verfiy.sol\":5854:5864  L1 - 1 - 1 */\n      tag_780\n        /* \"Verfiy.sol\":5854:5860  L1 - 1 */\n      tag_456\n      dup14\n      tag_43\n      jump\t// in\n        /* \"Verfiy.sol\":5854:5864  L1 - 1 - 1 */\n    tag_780:\n      lt\n        /* \"Verfiy.sol\":5849:5864  i <= L1 - 1 - 1 */\n      tag_782\n      jumpi\n        /* \"Verfiy.sol\":5895:5901  g1s[i] */\n      dup16\n      mload(0x00)\n      codecopy(0x00, data_3b2d02282c3edcbfc4f9664b53f75892ea03b8fe586039e3ee6fe41258ca9b0d, 0x20)\n      mload(0x00)\n      swap1\n      0x00\n      mstore\n      swap1\n      dup16\n      dup16\n      dup16\n      dup16\n      swap1\n      dup16\n      dup8\n      tag_445\n        /* \"Verfiy.sol\":5866:5869  i++ */\n      tag_785\n        /* \"Verfiy.sol\":5895:5901  g1s[i] */\n      swap10\n      dup7\n      tag_446\n        /* \"Verfiy.sol\":5985:5990  k+=32 */\n      tag_787\n        /* \"Verfiy.sol\":5895:5901  g1s[i] */\n      swap10\n        /* \"Verfiy.sol\":5969:5970  k */\n      tag_228\n        /* \"Verfiy.sol\":5895:5901  g1s[i] */\n      swap9\n        /* \"Verfiy.sol\":5928:5934  k+=128 */\n      tag_450\n        /* \"Verfiy.sol\":5895:5901  g1s[i] */\n      swap8\n      tag_49\n      jump\t// in\n        /* \"Verfiy.sol\":5985:5990  k+=32 */\n    tag_787:\n        /* \"Verfiy.sol\":6012:6034  mulmod(temp1, rho1, q) */\n      swap14\n      mulmod\n        /* \"Verfiy.sol\":5866:5869  i++ */\n      swap14\n      tag_42\n      jump\t// in\n    tag_785:\n        /* \"Verfiy.sol\":5834:5847  uint256 i = 0 */\n      swap13\n      swap11\n      jump(tag_779)\n        /* \"Verfiy.sol\":5849:5864  i <= L1 - 1 - 1 */\n    tag_782:\n      pop\n      swap5\n      swap12\n      pop\n      swap10\n        /* \"Verfiy.sol\":6075:6086  G1Muls(ag3) */\n      tag_486\n        /* \"Verfiy.sol\":5849:5864  i <= L1 - 1 - 1 */\n      swap2\n      swap8\n      swap7\n      swap14\n      pop\n        /* \"Verfiy.sol\":6104:6120  G1Add(g1, part3) */\n      tag_791\n        /* \"Verfiy.sol\":5849:5864  i <= L1 - 1 - 1 */\n      swap3\n      swap9\n      swap6\n      swap13\n      swap4\n      swap10\n      pop\n        /* \"Verfiy.sol\":6075:6086  G1Muls(ag3) */\n      tag_74\n      jump\t// in\n        /* \"Verfiy.sol\":6104:6120  G1Add(g1, part3) */\n    tag_791:\n        /* \"Verfiy.sol\":26:13300  contract Verify {... */\n      0x00\n      swap9\n        /* \"Verfiy.sol\":4451:4452  1 */\n      0x01\n      swap6\n        /* \"Verfiy.sol\":6179:6184  k = 0 */\n      swap2\n        /* \"Verfiy.sol\":26:13300  contract Verify {... */\n      dup11\n        /* \"Verfiy.sol\":6250:6253  i++ */\n    tag_793:\n        /* \"Verfiy.sol\":6238:6248  2 * L1 - 1 */\n      tag_794\n        /* \"Verfiy.sol\":6238:6244  2 * L1 */\n      tag_456\n      dup9\n      tag_66\n      jump\t// in\n        /* \"Verfiy.sol\":6238:6248  2 * L1 - 1 */\n    tag_794:\n        /* \"Verfiy.sol\":6233:6248  i <= 2 * L1 - 1 */\n      dup13\n      gt\n      tag_796\n      jumpi\n        /* \"Verfiy.sol\":6273:6280  i == L1 */\n      dup10\n      dup14\n      swap2\n      dup14\n      dup12\n      dup15\n      dup12\n      dup4\n      eq\n        /* \"Verfiy.sol\":6273:6295  i == L1 || i == L1 + 1 */\n      dup1\n      iszero\n      tag_798\n      jumpi\n        /* \"Verfiy.sol\":6250:6253  i++ */\n    tag_799:\n        /* \"Verfiy.sol\":6269:6427  if (i == L1 || i == L1 + 1) {... */\n      tag_800\n      jumpi\n        /* \"Verfiy.sol\":6450:6456  g2s[i] */\n      dup13\n        /* \"Verfiy.sol\":6483:6489  k+=256 */\n      tag_450\n        /* \"Verfiy.sol\":6450:6456  g2s[i] */\n      dup6\n      tag_224\n        /* \"Verfiy.sol\":6250:6253  i++ */\n      tag_804\n        /* \"Verfiy.sol\":6450:6456  g2s[i] */\n      swap10\n      swap8\n      dup10\n      tag_226\n        /* \"Verfiy.sol\":6540:6545  k+=32 */\n      tag_501\n        /* \"Verfiy.sol\":6450:6456  g2s[i] */\n      swap10\n      mload(0x00)\n      codecopy(0x00, data_3b2d02282c3edcbfc4f9664b53f75892ea03b8fe586039e3ee6fe41258ca9b0d, 0x20)\n      mload(0x00)\n      swap1\n      0x00\n      mstore\n      swap13\n      swap10\n        /* \"Verfiy.sol\":6524:6525  k */\n      tag_228\n        /* \"Verfiy.sol\":6450:6456  g2s[i] */\n      swap10\n      tag_49\n      jump\t// in\n        /* \"Verfiy.sol\":6250:6253  i++ */\n    tag_804:\n        /* \"Verfiy.sol\":6218:6231  uint256 i = 0 */\n      swap11\n      swap7\n      jump(tag_793)\n        /* \"Verfiy.sol\":6269:6427  if (i == L1 || i == L1 + 1) {... */\n    tag_800:\n        /* \"Verfiy.sol\":6364:6386  mulmod(temp2, rho2, q) */\n      pop\n      pop\n      pop\n      swap9\n      mload(0x00)\n      codecopy(0x00, data_3b2d02282c3edcbfc4f9664b53f75892ea03b8fe586039e3ee6fe41258ca9b0d, 0x20)\n      mload(0x00)\n      swap1\n      0x00\n      mstore\n      swap2\n      pop\n      swap2\n        /* \"Verfiy.sol\":6250:6253  i++ */\n      tag_804\n        /* \"Verfiy.sol\":6364:6386  mulmod(temp2, rho2, q) */\n      swap3\n      mulmod\n        /* \"Verfiy.sol\":6404:6412  continue */\n      swap12\n        /* \"Verfiy.sol\":6250:6253  i++ */\n      tag_42\n      jump\t// in\n        /* \"Verfiy.sol\":6273:6295  i == L1 || i == L1 + 1 */\n    tag_798:\n        /* \"Verfiy.sol\":6289:6295  L1 + 1 */\n      pop\n      tag_809\n      dup13\n      tag_71\n      jump\t// in\n    tag_809:\n        /* \"Verfiy.sol\":6284:6295  i == L1 + 1 */\n      dup4\n      eq\n        /* \"Verfiy.sol\":6273:6295  i == L1 || i == L1 + 1 */\n      jump(tag_799)\n        /* \"Verfiy.sol\":6233:6248  i <= 2 * L1 - 1 */\n    tag_796:\n      pop\n        /* \"Verfiy.sol\":7025:7041  G1Mul(g1s[0], w) */\n      tag_810\n        /* \"Verfiy.sol\":6233:6248  i <= 2 * L1 - 1 */\n      swap10\n      swap4\n      swap12\n      pop\n        /* \"Verfiy.sol\":7063:7077  G1Add(p1, pi1) */\n      tag_811\n        /* \"Verfiy.sol\":6233:6248  i <= 2 * L1 - 1 */\n      swap11\n      pop\n        /* \"Verfiy.sol\":7031:7037  g1s[0] */\n      tag_812\n        /* \"Verfiy.sol\":6233:6248  i <= 2 * L1 - 1 */\n      swap7\n      pop\n      swap7\n        /* \"Verfiy.sol\":6721:6793  require(EqualPairingCheck(part1, part2, part3, part4),\"Check2-1 Failed\") */\n      tag_813\n        /* \"Verfiy.sol\":6729:6774  EqualPairingCheck(part1, part2, part3, part4) */\n      tag_521\n        /* \"Verfiy.sol\":6980:6999  abi.encode(g1s,g2s) */\n      tag_208\n        /* \"Verfiy.sol\":6233:6248  i <= 2 * L1 - 1 */\n      swap4\n        /* \"Verfiy.sol\":6962:7003  uint256(keccak256(abi.encode(g1s,g2s)))%q */\n      tag_816\n        /* \"Verfiy.sol\":6233:6248  i <= 2 * L1 - 1 */\n      swap8\n      swap16\n      swap11\n        /* \"Verfiy.sol\":26:13300  contract Verify {... */\n      tag_817\n        /* \"Verfiy.sol\":6233:6248  i <= 2 * L1 - 1 */\n      swap12\n        /* \"Verfiy.sol\":6630:6641  G2Muls(ag4) */\n      tag_517\n        /* \"Verfiy.sol\":6980:6999  abi.encode(g1s,g2s) */\n      tag_209\n        /* \"Verfiy.sol\":6233:6248  i <= 2 * L1 - 1 */\n      swap9\n      swap15\n        /* \"Verfiy.sol\":6630:6641  G2Muls(ag4) */\n      tag_55\n      jump\t// in\n        /* \"Verfiy.sol\":6721:6793  require(EqualPairingCheck(part1, part2, part3, part4),\"Check2-1 Failed\") */\n    tag_813:\n        /* \"Verfiy.sol\":6799:6874  require(EqualPairingCheck(g1,g2s[L1+1],g1s[1],g2s[L1-1]),\"Check2-2 Failed\") */\n      tag_820\n        /* \"Verfiy.sol\":6807:6855  EqualPairingCheck(g1,g2s[L1+1],g1s[1],g2s[L1-1]) */\n      tag_510\n        /* \"Verfiy.sol\":26:13300  contract Verify {... */\n      dup6\n      dup12\n        /* \"Verfiy.sol\":6849:6853  L1-1 */\n      tag_512\n        /* \"Verfiy.sol\":26:13300  contract Verify {... */\n      tag_517\n      dup12\n      tag_251\n      dup2\n      tag_506\n        /* \"Verfiy.sol\":6845:6854  g2s[L1-1] */\n      tag_515\n        /* \"Verfiy.sol\":26:13300  contract Verify {... */\n      tag_827\n      tag_51\n      jump\t// in\n    tag_827:\n        /* \"Verfiy.sol\":6832:6836  L1+1 */\n      swap9\n      dup13\n        /* \"Verfiy.sol\":6838:6844  g1s[1] */\n      tag_525\n        /* \"Verfiy.sol\":6828:6837  g2s[L1+1] */\n      tag_526\n        /* \"Verfiy.sol\":6832:6836  L1+1 */\n      tag_527\n      dup8\n      tag_71\n      jump\t// in\n        /* \"Verfiy.sol\":6799:6874  require(EqualPairingCheck(g1,g2s[L1+1],g1s[1],g2s[L1-1]),\"Check2-2 Failed\") */\n    tag_820:\n        /* \"Verfiy.sol\":6880:6928  require(ZeroCheck(g1s[0])!=true,\"Check3 Failed\") */\n      tag_831\n        /* \"Verfiy.sol\":4451:4452  1 */\n      0x01\n        /* \"Verfiy.sol\":26:13300  contract Verify {... */\n      tag_529\n        /* \"Verfiy.sol\":6898:6904  g1s[0] */\n      tag_333\n      dup10\n      dup14\n      tag_47\n      jump\t// in\n        /* \"Verfiy.sol\":6880:6928  require(ZeroCheck(g1s[0])!=true,\"Check3 Failed\") */\n    tag_831:\n        /* \"Verfiy.sol\":574:1091  hex\"00000000000000000000000000000000024aa2b2f08f0a91260805272dc51051c6e47ad4fa403b02b4510b647ae3d1770bac0326a805bbefd48056c8c121bdb80000000000000000000000000000000013e02b6052719f607dacd3a088274f65596bd0d09920b61ab5da61bbdc7f5049334cf11213945d57e5ac7d055d042b7e000000000000000000000000000000000ce5d527727d6e118cc9cdc6da2e351aadfd9baa8cbdd3a76d429a695160d12c923ac9cc3baca289e193548608b82801000000000000000000000000000000000606c4a02ea734cc32acd2b02bc28b99cb3e287e85a763af267492ab572e99ab3f370d275cec1da1aaa9075ff05f79be\" */\n      tag_834\n        /* \"Verfiy.sol\":6940:6946  g1s[0] */\n      tag_509\n      dup8\n      dup12\n      tag_47\n      jump\t// in\n        /* \"Verfiy.sol\":574:1091  hex\"00000000000000000000000000000000024aa2b2f08f0a91260805272dc51051c6e47ad4fa403b02b4510b647ae3d1770bac0326a805bbefd48056c8c121bdb80000000000000000000000000000000013e02b6052719f607dacd3a088274f65596bd0d09920b61ab5da61bbdc7f5049334cf11213945d57e5ac7d055d042b7e000000000000000000000000000000000ce5d527727d6e118cc9cdc6da2e351aadfd9baa8cbdd3a76d429a695160d12c923ac9cc3baca289e193548608b82801000000000000000000000000000000000606c4a02ea734cc32acd2b02bc28b99cb3e287e85a763af267492ab572e99ab3f370d275cec1da1aaa9075ff05f79be\" */\n    tag_834:\n        /* \"Verfiy.sol\":26:13300  contract Verify {... */\n      mload(0x40)\n        /* \"Verfiy.sol\":6980:6999  abi.encode(g1s,g2s) */\n      swap3\n      dup4\n      swap2\n        /* \"Verfiy.sol\":4358:4381  abi.encode(g1s, g2s, 0) */\n      0x20\n        /* \"Verfiy.sol\":6980:6999  abi.encode(g1s,g2s) */\n      dup4\n      add\n      swap6\n      dup9\n      dup13\n      dup9\n      tag_90\n      jump\t// in\n        /* \"Verfiy.sol\":6962:7003  uint256(keccak256(abi.encode(g1s,g2s)))%q */\n    tag_816:\n        /* \"Verfiy.sol\":7031:7037  g1s[0] */\n      swap4\n      tag_47\n      jump\t// in\n    tag_812:\n        /* \"Verfiy.sol\":26:13300  contract Verify {... */\n      calldatasize\n      swap2\n      tag_12\n      jump\t// in\n    tag_817:\n        /* \"Verfiy.sol\":7025:7041  G1Mul(g1s[0], w) */\n      tag_77\n      jump\t// in\n    tag_810:\n        /* \"Verfiy.sol\":26:13300  contract Verify {... */\n      tag_203\n      calldatasize\n      dup6\n      dup6\n      tag_12\n      jump\t// in\n        /* \"Verfiy.sol\":7063:7077  G1Add(p1, pi1) */\n    tag_811:\n        /* \"Verfiy.sol\":7092:7105  uint256 i = 0 */\n      swap2\n        /* \"Verfiy.sol\":26:13300  contract Verify {... */\n      0x00\n        /* \"Verfiy.sol\":7107:7114  i < 128 */\n    tag_837:\n        /* \"Verfiy.sol\":4923:4926  128 */\n      0x80\n        /* \"Verfiy.sol\":7107:7114  i < 128 */\n      dup2\n      lt\n      tag_838\n      jumpi\n        /* \"Verfiy.sol\":7176:7187  return true */\n      pop\n      pop\n      pop\n      pop\n        /* \"Verfiy.sol\":4451:4452  1 */\n      0x01\n        /* \"Verfiy.sol\":4044:7190  function CheckTest(bytes[] calldata g1s,... */\n      swap1\n      jump\t// out\n        /* \"Verfiy.sol\":7116:7119  i++ */\n    tag_838:\n        /* \"Verfiy.sol\":7135:7140  p2[i] */\n      tag_840\n      tag_841\n      dup3\n      dup7\n      tag_91\n      jump\t// in\n    tag_841:\n        /* \"Verfiy.sol\":574:1091  hex\"00000000000000000000000000000000024aa2b2f08f0a91260805272dc51051c6e47ad4fa403b02b4510b647ae3d1770bac0326a805bbefd48056c8c121bdb80000000000000000000000000000000013e02b6052719f607dacd3a088274f65596bd0d09920b61ab5da61bbdc7f5049334cf11213945d57e5ac7d055d042b7e000000000000000000000000000000000ce5d527727d6e118cc9cdc6da2e351aadfd9baa8cbdd3a76d429a695160d12c923ac9cc3baca289e193548608b82801000000000000000000000000000000000606c4a02ea734cc32acd2b02bc28b99cb3e287e85a763af267492ab572e99ab3f370d275cec1da1aaa9075ff05f79be\" */\n      mload\n      not(sub(shl(0xf8, 0x01), 0x01))\n      and\n      swap1\n      jump\n        /* \"Verfiy.sol\":7135:7140  p2[i] */\n    tag_840:\n        /* \"Verfiy.sol\":7135:7150  p2[i] != pi1[i] */\n      tag_842\n        /* \"Verfiy.sol\":7144:7150  pi1[i] */\n      tag_843\n      tag_844\n      dup5\n      dup7\n      dup9\n      tag_94\n      jump\t// in\n    tag_844:\n      calldataload\n      not(sub(shl(0xf8, 0x01), 0x01))\n        /* \"Verfiy.sol\":574:1091  hex\"00000000000000000000000000000000024aa2b2f08f0a91260805272dc51051c6e47ad4fa403b02b4510b647ae3d1770bac0326a805bbefd48056c8c121bdb80000000000000000000000000000000013e02b6052719f607dacd3a088274f65596bd0d09920b61ab5da61bbdc7f5049334cf11213945d57e5ac7d055d042b7e000000000000000000000000000000000ce5d527727d6e118cc9cdc6da2e351aadfd9baa8cbdd3a76d429a695160d12c923ac9cc3baca289e193548608b82801000000000000000000000000000000000606c4a02ea734cc32acd2b02bc28b99cb3e287e85a763af267492ab572e99ab3f370d275cec1da1aaa9075ff05f79be\" */\n      and\n      swap1\n      jump\n        /* \"Verfiy.sol\":7144:7150  pi1[i] */\n    tag_843:\n      not(sub(shl(0xf8, 0x01), 0x01))\n        /* \"Verfiy.sol\":574:1091  hex\"00000000000000000000000000000000024aa2b2f08f0a91260805272dc51051c6e47ad4fa403b02b4510b647ae3d1770bac0326a805bbefd48056c8c121bdb80000000000000000000000000000000013e02b6052719f607dacd3a088274f65596bd0d09920b61ab5da61bbdc7f5049334cf11213945d57e5ac7d055d042b7e000000000000000000000000000000000ce5d527727d6e118cc9cdc6da2e351aadfd9baa8cbdd3a76d429a695160d12c923ac9cc3baca289e193548608b82801000000000000000000000000000000000606c4a02ea734cc32acd2b02bc28b99cb3e287e85a763af267492ab572e99ab3f370d275cec1da1aaa9075ff05f79be\" */\n      and\n      swap1\n      jump\n        /* \"Verfiy.sol\":7135:7150  p2[i] != pi1[i] */\n    tag_842:\n      not(sub(shl(0xf8, 0x01), 0x01))\n        /* \"Verfiy.sol\":574:1091  hex\"00000000000000000000000000000000024aa2b2f08f0a91260805272dc51051c6e47ad4fa403b02b4510b647ae3d1770bac0326a805bbefd48056c8c121bdb80000000000000000000000000000000013e02b6052719f607dacd3a088274f65596bd0d09920b61ab5da61bbdc7f5049334cf11213945d57e5ac7d055d042b7e000000000000000000000000000000000ce5d527727d6e118cc9cdc6da2e351aadfd9baa8cbdd3a76d429a695160d12c923ac9cc3baca289e193548608b82801000000000000000000000000000000000606c4a02ea734cc32acd2b02bc28b99cb3e287e85a763af267492ab572e99ab3f370d275cec1da1aaa9075ff05f79be\" */\n      swap1\n      swap2\n      and\n        /* \"Verfiy.sol\":7135:7150  p2[i] != pi1[i] */\n      sub\n        /* \"Verfiy.sol\":7131:7164  if (p2[i] != pi1[i]) return false */\n      tag_845\n      jumpi\n        /* \"Verfiy.sol\":4451:4452  1 */\n      0x01\n        /* \"Verfiy.sol\":574:1091  hex\"00000000000000000000000000000000024aa2b2f08f0a91260805272dc51051c6e47ad4fa403b02b4510b647ae3d1770bac0326a805bbefd48056c8c121bdb80000000000000000000000000000000013e02b6052719f607dacd3a088274f65596bd0d09920b61ab5da61bbdc7f5049334cf11213945d57e5ac7d055d042b7e000000000000000000000000000000000ce5d527727d6e118cc9cdc6da2e351aadfd9baa8cbdd3a76d429a695160d12c923ac9cc3baca289e193548608b82801000000000000000000000000000000000606c4a02ea734cc32acd2b02bc28b99cb3e287e85a763af267492ab572e99ab3f370d275cec1da1aaa9075ff05f79be\" */\n      add\n        /* \"Verfiy.sol\":7092:7105  uint256 i = 0 */\n      jump(tag_837)\n        /* \"Verfiy.sol\":7131:7164  if (p2[i] != pi1[i]) return false */\n    tag_845:\n        /* \"Verfiy.sol\":7152:7164  return false */\n      pop\n      pop\n      pop\n      pop\n        /* \"Verfiy.sol\":26:13300  contract Verify {... */\n      0x00\n        /* \"Verfiy.sol\":7152:7164  return false */\n      swap1\n      jump\t// out\n        /* \"Verfiy.sol\":11451:11716  function G2Add(... */\n    tag_96:\n        /* \"Verfiy.sol\":11658:11689  address(0x0d).staticcall(input) */\n      0x00\n        /* \"Verfiy.sol\":11451:11716  function G2Add(... */\n      swap2\n      swap1\n        /* \"Verfiy.sol\":26:13300  contract Verify {... */\n      tag_209\n        /* \"Verfiy.sol\":11594:11618  abi.encodePacked(p1, p2) */\n      tag_848\n        /* \"Verfiy.sol\":11451:11716  function G2Add(... */\n      dup5\n      swap4\n        /* \"Verfiy.sol\":26:13300  contract Verify {... */\n      mload(0x40)\n        /* \"Verfiy.sol\":11594:11618  abi.encodePacked(p1, p2) */\n      swap3\n      dup4\n      swap2\n        /* \"Verfiy.sol\":26:13300  contract Verify {... */\n      tag_308\n        /* \"Verfiy.sol\":11594:11618  abi.encodePacked(p1, p2) */\n      0x20\n      dup5\n      add\n        /* \"Verfiy.sol\":26:13300  contract Verify {... */\n      dup1\n      swap8\n      tag_56\n      jump\t// in\n        /* \"Verfiy.sol\":11594:11618  abi.encodePacked(p1, p2) */\n    tag_848:\n        /* \"Verfiy.sol\":11658:11689  address(0x0d).staticcall(input) */\n      mload\n      swap1\n        /* \"Verfiy.sol\":11666:11670  0x0d */\n      0x0d\n        /* \"Verfiy.sol\":11658:11689  address(0x0d).staticcall(input) */\n      gas\n      staticcall\n      pop\n      tag_180\n      tag_54\n      jump\t// in\n        /* \"Verfiy.sol\":26:13300  contract Verify {... */\n    tag_97:\n      swap1\n        /* \"Verfiy.sol\":7456:7461  ppg1s */\n      0x02\n        /* \"Verfiy.sol\":26:13300  contract Verify {... */\n      sload\n      swap2\n      shl(0x40, 0x01)\n      dup4\n      lt\n      iszero\n      tag_170\n      jumpi\n      0x01\n      dup4\n      add\n        /* \"Verfiy.sol\":7456:7461  ppg1s */\n      0x02\n        /* \"Verfiy.sol\":26:13300  contract Verify {... */\n      sstore\n        /* \"Verfiy.sol\":7456:7461  ppg1s */\n      0x02\n        /* \"Verfiy.sol\":26:13300  contract Verify {... */\n      sload\n      dup4\n      lt\n      iszero\n      tag_253\n      jumpi\n        /* \"Verfiy.sol\":7456:7461  ppg1s */\n      0x02\n      0x00\n        /* \"Verfiy.sol\":26:13300  contract Verify {... */\n      mstore\n      tag_266\n      swap3\n      0x405787fa12a823e0f2b7631cc41b3ba8828b3321ca811111fa75cd3aa3bb5ace\n      add\n      tag_89\n      jump\t// in\n    tag_98:\n      swap1\n        /* \"Verfiy.sol\":7532:7537  ppg2s */\n      0x03\n        /* \"Verfiy.sol\":26:13300  contract Verify {... */\n      sload\n      swap2\n      shl(0x40, 0x01)\n      dup4\n      lt\n      iszero\n      tag_170\n      jumpi\n      0x01\n      dup4\n      add\n        /* \"Verfiy.sol\":7532:7537  ppg2s */\n      0x03\n        /* \"Verfiy.sol\":26:13300  contract Verify {... */\n      sstore\n        /* \"Verfiy.sol\":7532:7537  ppg2s */\n      0x03\n        /* \"Verfiy.sol\":26:13300  contract Verify {... */\n      sload\n      dup4\n      lt\n      iszero\n      tag_253\n      jumpi\n        /* \"Verfiy.sol\":7532:7537  ppg2s */\n      0x03\n      0x00\n        /* \"Verfiy.sol\":26:13300  contract Verify {... */\n      mstore\n      tag_266\n      swap3\n      0xc2575a0e9e593c00f959f8c92f12db2869c3395a3b0502d05e2516446f71f85b\n      add\n      tag_89\n      jump\t// in\n    tag_99:\n      iszero\n      tag_861\n      jumpi\n      jump\t// out\n    tag_861:\n      mload(0x40)\n      shl(0xe5, 0x461bcd)\n      dup2\n      mstore\n      0x20\n      0x04\n      dup3\n      add\n      mstore\n      0x0d\n      0x24\n      dup3\n      add\n      mstore\n      shl(0x9a, 0x10da1958dacc4811985a5b1959)\n      0x44\n      dup3\n      add\n      mstore\n      0x64\n      swap1\n      revert\n        /* \"Verfiy.sol\":10324:10531  function CopyBytes(bytes calldata from,uint256 fromOff,bytes memory to,uint256 toOff,uint256 len) internal pure{... */\n    tag_100:\n      swap1\n        /* \"Verfiy.sol\":8229:8232  256 */\n      0x0100\n        /* \"Verfiy.sol\":10324:10531  function CopyBytes(bytes calldata from,uint256 fromOff,bytes memory to,uint256 toOff,uint256 len) internal pure{... */\n      swap3\n        /* \"Verfiy.sol\":10441:10529  assembly{... */\n      0x20\n        /* \"Verfiy.sol\":10324:10531  function CopyBytes(bytes calldata from,uint256 fromOff,bytes memory to,uint256 toOff,uint256 len) internal pure{... */\n      swap2\n        /* \"Verfiy.sol\":10441:10529  assembly{... */\n      add\n      add\n      calldatacopy\n        /* \"Verfiy.sol\":10324:10531  function CopyBytes(bytes calldata from,uint256 fromOff,bytes memory to,uint256 toOff,uint256 len) internal pure{... */\n      jump\t// out\n    tag_101:\n      swap1\n        /* \"Verfiy.sol\":1993:1996  128 */\n      0x80\n        /* \"Verfiy.sol\":10324:10531  function CopyBytes(bytes calldata from,uint256 fromOff,bytes memory to,uint256 toOff,uint256 len) internal pure{... */\n      swap3\n        /* \"Verfiy.sol\":10441:10529  assembly{... */\n      0x20\n        /* \"Verfiy.sol\":10324:10531  function CopyBytes(bytes calldata from,uint256 fromOff,bytes memory to,uint256 toOff,uint256 len) internal pure{... */\n      swap2\n        /* \"Verfiy.sol\":10441:10529  assembly{... */\n      add\n      add\n      calldatacopy\n        /* \"Verfiy.sol\":10324:10531  function CopyBytes(bytes calldata from,uint256 fromOff,bytes memory to,uint256 toOff,uint256 len) internal pure{... */\n      jump\t// out\n        /* \"Verfiy.sol\":9451:10322  function CopyStorageBytes256(bytes storage s, bytes memory to, uint256 toOff) internal view {... */\n    tag_103:\n      swap2\n      swap1\n      swap2\n        /* \"Verfiy.sol\":9549:10320  assembly {... */\n      dup1\n      sload\n      0x01\n      dup2\n      and\n      iszero\n      tag_146\n      jumpi\n      0x0100\n        /* \"Verfiy.sol\":26:13300  contract Verify {... */\n      swap1\n      not(0x00)\n        /* \"Verfiy.sol\":9549:10320  assembly {... */\n      add\n      0x01\n      shr\n      sub\n      tag_146\n      jumpi\n      0x0100\n      swap2\n      0x07\n      swap2\n      0x00\n      mstore\n      keccak256(0x00, 0x20)\n      swap4\n      add\n      swap3\n      dup1\n      sload\n      0x20\n      dup6\n      add\n      mstore\n      0x01\n      dup2\n      add\n      sload\n      0x40\n      dup6\n      add\n      mstore\n      0x02\n      dup2\n      add\n      sload\n      0x60\n      dup6\n      add\n      mstore\n      0x03\n      dup2\n      add\n      sload\n      0x80\n      dup6\n      add\n      mstore\n      0x04\n      dup2\n      add\n      sload\n      0xa0\n      dup6\n      add\n      mstore\n      0x05\n      dup2\n      add\n      sload\n      0xc0\n      dup6\n      add\n      mstore\n      0x06\n      dup2\n      add\n      sload\n      0xe0\n      dup6\n      add\n      mstore\n      add\n      sload\n      swap2\n      add\n      mstore\n        /* \"Verfiy.sol\":9451:10322  function CopyStorageBytes256(bytes storage s, bytes memory to, uint256 toOff) internal view {... */\n      jump\t// out\n    stop\n    data_3b2d02282c3edcbfc4f9664b53f75892ea03b8fe586039e3ee6fe41258ca9b0d 73eda753299d7d483339d80809a1d80553bda402fffe5bfeffffffff00000001\n\n    auxdata: 0xa26469706673582212203d924b84751171b08a229d3d1a4903e71b1be867e3f9df6b99c1b6c3fd212f3064736f6c634300081f0033\n}\n",
				"bytecode": {
					"linkReferences": {},
					"object": "6080346101985760a081016001600160401b0381118282101761018457604052608081526f17f1d3a73197d7942695638c4fa9ac0f60208201527fc3688c4f9774b905a14e3a3f171bac586c55e83ff97a1aeffb3af00adb22c6bb60408201526f08b3f481e3aaa0f1a09e30ed741d8ae460608201527ffcf5e095d5d00af600db18cb2c04b3edd03cc744a2888ae40caa232946c5e7e160808201525f54600190600181811c9116801561017a575b602082101461016657601f8111610115575b50505f80805260205f5160206122d35f395f51905f525b608083106100fd576101015f5560ff1960015416600155604051612136908161019d8239f35b602060018192848701518155019201920191906100d7565b5f8052601f0160051c5f5160206122d35f395f51905f52017f290decd9548b62a8d60345a988386fc84ba6bc95484008f6362f93160ef3e5675b81811061015c57506100c0565b5f8155820161014f565b634e487b7160e01b5f52602260045260245ffd5b90607f16906100ae565b634e487b7160e01b5f52604160045260245ffd5b5f80fdfe60806040526004361015610011575f80fd5b5f3560e01c80630632523914610134578063205c9cc71461012f5780633f009c161461012a5780634d9194051461012557806351e543081461012057806354b57f701461011b5780635cdc73ef146101165780636592041a146101115780636f18b6691461010c5780638a2ba01c14610107578063a66339b714610102578063af1d0bd9146100fd578063c1f2c915146100f8578063c588e555146100f3578063d6385d60146100ee578063e63c1828146100e9578063e6859b9a146100e45763e86d06c7146100df575f80fd5b610bf2565b610ba2565b610ad9565b610abf565b610a2c565b6109ed565b61097f565b61092f565b610913565b6108f7565b6108de565b61087f565b6107a7565b6103c0565b6103a6565b610333565b610214565b6101ee565b9181601f84011215610166578235916001600160401b038311610166576020838186019501011161016657565b5f80fd5b9181601f84011215610166578235916001600160401b038311610166576020808501948460051b01011161016657565b6060600319820112610166576004356001600160401b03811161016657816101c491600401610139565b92909291602435906001600160401b038211610166576101e69160040161016a565b909160443590565b3461016657602061020a6102013661019a565b9392909261127e565b6040519015158152f35b34610166575f36600319011261016657602060ff600154166040519015158152f35b634e487b7160e01b5f52604160045260245ffd5b90601f801991011681019081106001600160401b0382111761026b57604052565b610236565b6001600160401b03811161026b57601f01601f191660200190565b92919261029782610270565b916102a5604051938461024a565b829481845281830111610166578281602093845f960137010152565b9080601f83011215610166578160206102dc9335910161028b565b90565b602060031982011261016657600435906001600160401b038211610166576102dc916004016102c1565b602060409281835280519182918282860152018484015e5f828201840152601f01601f1916010190565b346101665761035861034c610347366102df565b61139f565b60405191829182610309565b0390f35b906040600319830112610166576004356001600160401b0381116101665782610387916004016102c1565b91602435906001600160401b038211610166576102dc916004016102c1565b346101665761035861034c6103ba3661035c565b906113c7565b34610166576103ce3661019a565b9293909161041260405160208101906103fc816103ee88878c8a8861149a565b03601f19810183528261024a565b5190205f5160206120e15f395f51905f52900690565b9261042c6104276104228361107f565b6114c1565b611530565b9561043c6104276104228461107f565b958591865f968a5f985b61044f8861107f565b8a116104e457908a918a898b6104658a836110ab565b83146104c4576104a38461049e6104bb9896886104986104b3985f5160206120e15f395f51905f529b986104ae98611132565b50612050565b611562565b9182016020018b9052565b611571565b970998611071565b97948b90610446565b505050965f5160206120e15f395f51905f529150916104bb920998611071565b5094509089899394875f945f955b6104fb8361107f565b871161058d5787908761050e86866110ab565b811461057157916105626105548361049e5f5160206120e15f395f51905f52958b61054e8961054861054261056a9c6105e8565b50610709565b506105e8565b50612069565b8881016020018a9052611571565b970996611071565b95946104f2565b509561056a915f5160206120e15f395f51905f52910996611071565b506105c36105c89189866105bd6105ac6105a68f61139f565b9261139f565b936105b56111b2565b93369161028b565b9161160f565b61159b565b60405160018152602090f35b634e487b7160e01b5f52603260045260245ffd5b6003548110156106005760035f5260205f2001905f90565b6105d4565b6002548110156106005760025f5260205f2001905f90565b90600182811c9216801561064b575b602083101461063757565b634e487b7160e01b5f52602260045260245ffd5b91607f169161062c565b604051905f825f54916106678361061d565b80835292600181169081156106ea575060011461068d575b61068b9250038361024a565b565b505f80805290917f290decd9548b62a8d60345a988386fc84ba6bc95484008f6362f93160ef3e5635b8183106106ce57505090602061068b9282010161067f565b60209193508060019154838589010152019101909184926106b6565b6020925061068b94915060ff191682840152151560051b82010161067f565b9060405191825f82549261071c8461061d565b80845293600181169081156107855750600114610741575b5061068b9250038361024a565b90505f9291925260205f20905f915b81831061076957505090602061068b928201015f610734565b6020919350806001915483858901015201910190918492610750565b90506020925061068b94915060ff191682840152151560051b8201015f610734565b34610166576020366003190112610166576004356002548110156101665761034c6103589160025f527f405787fa12a823e0f2b7631cc41b3ba8828b3321ca811111fa75cd3aa3bb5ace01610709565b906080600319830112610166576004356001600160401b0381116101665782610822916004016102c1565b916024356001600160401b0381116101665781610841916004016102c1565b916044356001600160401b0381116101665782610860916004016102c1565b91606435906001600160401b038211610166576102dc916004016102c1565b34610166575f806108b46108b46108ba6103ee61089b366107f7565b91939296906040519687956108b460208801809b6113b5565b906113b5565b5190600f5afa50602060016108d56108d0611370565b6115d7565b14604051908152f35b346101665761035861034c6108f2366102df565b6115f9565b3461016657602061020a61090a366107f7565b9291909161160f565b34610166575f3660031901126101665761035861034c5f610709565b34610166576020366003190112610166576004356001600160401b0381116101665761020a6109646020923690600401610139565b50606081013590604081013590602081013590351717171590565b34610166576040366003190112610166576004356001600160401b038111610166575f6109b181923690600401610139565b6109db6020806024359360405194818692848401988937820190838201520301808452018261024a565b5190600e5afa5061035861034c611370565b34610166576040366003190112610166576004356001600160401b0381116101665761034c610a236103589236906004016102c1565b602435906116a2565b34610166576080366003190112610166576004356001600160401b03811161016657610a5c90369060040161016a565b6024356001600160401b03811161016657610a7b90369060040161016a565b919092604435926001600160401b0384116101665761035894610aa5610aad953690600401610139565b949093611b46565b60405190151581529081906020820190565b346101665761035861034c610ad33661035c565b90611f44565b34610166576040366003190112610166576004356001600160401b03811161016657610b0990369060040161016a565b906024356001600160401b03811161016657610b2990369060040161016a565b5f1984018481119392905f855b610b9d57818111610b645780610b59610b53610b5e938a89611132565b90611f72565b611071565b85610b36565b50505f19820182811191905f835b610b9d57818111610b9b5780610b59610b8f610b95938887611132565b90611fc3565b83610b72565b005b61105d565b34610166576020366003190112610166576004356003548110156101665761034c6103589160035f527fc2575a0e9e593c00f959f8c92f12db2869c3395a3b0502d05e2516446f71f85b01610709565b34610166576060366003190112610166576004356001600160401b03811161016657610c2290369060040161016a565b6024356001600160401b03811161016657610c4190369060040161016a565b9290916044356001600160401b03811161016657610c66909491943690600401610139565b94610c7a83610c74836114d4565b146116db565b610c9660405160208101906103fc816103ee888b888c886116e2565b93610cb360405160208101906103fc816103ee898c898988611712565b96600193610cc3610427856114ea565b98610cd8610427610cd38961108d565b611500565b98610ced610427610ce88861107f565b6114ea565b99610cfd610427610cd38b61109c565b5f99908a5b610d0b8a61107f565b8c11610d7f575f5160206120e15f395f51905f528f610d708f918f8f8f8f97610d628186610d5c87868e610d789f6080610d4f6104ae9d610d679c610d5794611132565b905014611730565b611132565b5061205d565b61157f565b92830160200152565b9c099b611071565b9a99610d02565b5095888c8f988f610d908c9b6115f9565b905f9b8a965f9d8e5b610dad610da8610da88b611518565b61107f565b10610e36578a8f918e928c8f610dc28d61107f565b83148015610e2d575b610e0d578d610d678561049e610e05999789610498610dfd995f5160206120e15f395f51905f529c996104ae99611132565b9a099e611071565b9d978e610d99565b505050995f5160206120e15f395f51905f52915091610e0592099e611071565b508c8314610dcb565b508893918c88928f8e610e598f610e4c9061139f565b610e54611769565b611f44565b995f998c988b5b610e6c610da88b61107f565b8d11610eb3575f5160206120e15f395f51905f528f610ea48f8f908f8f8f97610d628186610d5c6104ae97610d6796610eac9e611132565b9c099c611071565b9b99610e60565b509388888e610ed1610ec48f6115f9565b610ecc6111b2565b6113c7565b905f986001955f9a5b610ee6610da888611518565b8c11610f6e57898e918d8b8e8b83148015610f5d575b610f3d578c610d678561049e610f36999789610498610f2e995f5160206120e15f395f51905f529c996104ae99611132565b99099b611071565b9a96610eda565b505050985f5160206120e15f395f51905f52915091610f3692099b611071565b50610f678c61158d565b8314610efc565b50849650856105b58161102a8f6105c89e610feb6110579f859f9b9c6110329d6110379f9c61101a9c610fe1849f610fd69e6110209a610fcd610fd6610fc3610fdc95610fbd610fe69d61139f565b9b6110b8565b92906105b5611769565b936105b5610655565b9261160f565b612014565b61160f565b611871565b610ff36111b2565b9961101261100a6110038761158d565b8385611132565b98909b6110f2565b99909561107f565b91611132565b979094369161028b565b94369161028b565b6118af565b611052600161104961096485856110b8565b151514156118ed565b6110b8565b90611978565b634e487b7160e01b5f52601160045260245ffd5b5f198114610b9d5760010190565b5f19810191908211610b9d57565b600219810191908211610b9d57565b600119810191908211610b9d57565b91908203918211610b9d57565b901561060057803590601e19813603018212156101665701908135916001600160401b038311610166576020018236038113610166579190565b906001101561060057602081013590601e19813603018212156101665701908135916001600160401b038311610166576020018236038113610166579190565b91908110156106005760051b81013590601e19813603018212156101665701908135916001600160401b038311610166576020018236038113610166579190565b1561117a57565b60405162461bcd60e51b815260206004820152601060248201526f12d95e50da1958dacc4811985a5b195960821b6044820152606490fd5b604051906111c160a08361024a565b608082527ffcf5e095d5d00af600db18cb2c04b3edd03cc744a2888ae40caa232946c5e7e16080836f17f1d3a73197d7942695638c4fa9ac0f60208201527fc3688c4f9774b905a14e3a3f171bac586c55e83ff97a1aeffb3af00adb22c6bb60408201526f08b3f481e3aaa0f1a09e30ed741d8ae460608201520152565b1561124657565b60405162461bcd60e51b815260206004820152601060248201526f12d95e50da1958dacc8811985a5b195960821b6044820152606490fd5b919493949290925f5b6112908361109c565b81116113125761130d906112a488856110ab565b8114610b5957610b596113086112f46112cb6112c6610da8610da8878b6110ab565b610605565b506112d7858989611132565b92906105b56112ed6112e88c61107f565b6105e8565b5093610709565b610fd6611302368d8d61028b565b92610709565b611173565b611287565b50919293946001146113675761136293610fd661130261135d956105b56112e89561135461134c6113416111b2565b998361101a8161107f565b98909261107f565b5096369161028b565b61123f565b600190565b50505050600190565b3d1561139a573d9061138182610270565b9161138f604051938461024a565b82523d5f602084013e565b606090565b5f8091602081519101600e5afa506102dc611370565b805191908290602001825e015f815290565b5f91906103ee6113e684936040519283916108b46020840180976113b5565b5190600b5afa506102dc611370565b908060209392818452848401375f828201840152601f01601f1916010190565b90602083828152019060208160051b85010193835f915b83831061143c5750505050505090565b909192939495601f198282030186528635601e198436030181121561016657830190602082359201916001600160401b0381116101665780360383136101665761148c60209283926001956113f5565b98019601949301919061142c565b92906114b3906102dc95936040865260408601916113f5565b926020818503910152611415565b90816101200291610120830403610b9d57565b908160011b9180830460021490151715610b9d57565b9060a082029180830460a01490151715610b9d57565b906101208202918083046101201490151715610b9d57565b600181901b91906001600160ff1b03811603610b9d57565b9061153a82610270565b611547604051918261024a565b8281528092611558601f1991610270565b0190602036910137565b906101008201809211610b9d57565b9060208201809211610b9d57565b9060808201809211610b9d57565b9060018201809211610b9d57565b156115a257565b60405162461bcd60e51b815260206004820152600d60248201526c10da1958dad2d95e4811985a5b609a1b6044820152606490fd5b6020815191015190602081106115eb575090565b5f199060200360031b1b1690565b5f8091602081519101600c5afa506102dc611370565b9061168a6108b4916103ee5f968780809860405161166460208261163682820180966113b5565b7f73eda753299d7d483339d80809a1d80553bda402fffe5bfeffffffff00000000815203808452018261024a565b5190600c5afa506108b4611676611370565b6040519687956108b460208801809b6113b5565b5190600f5afa50600161169e6108d0611370565b1490565b5f919082916116cc602060405180936116be83830180976113b5565b90815203808452018261024a565b5190600c5afa506102dc611370565b1561016657565b9493925f936116ff61170d9360409560608a5260608a0191611415565b918783036020890152611415565b930152565b9493926001936116ff61170d9360409560608a5260608a0191611415565b1561173757565b60405162461bcd60e51b815260206004820152600a6024820152693130b2102398903632b760b11b6044820152606490fd5b604051906117796101208361024a565b61010082527fcb3e287e85a763af267492ab572e99ab3f370d275cec1da1aaa9075ff05f79be610100836f024aa2b2f08f0a91260805272dc5105160208201527fc6e47ad4fa403b02b4510b647ae3d1770bac0326a805bbefd48056c8c121bdb860408201526f13e02b6052719f607dacd3a088274f6560608201527f596bd0d09920b61ab5da61bbdc7f5049334cf11213945d57e5ac7d055d042b7e60808201526f0ce5d527727d6e118cc9cdc6da2e351a60a08201527fadfd9baa8cbdd3a76d429a695160d12c923ac9cc3baca289e193548608b8280160c08201526f0606c4a02ea734cc32acd2b02bc28b9960e08201520152565b1561187857565b60405162461bcd60e51b815260206004820152600f60248201526e10da1958dacc8b4c4811985a5b1959608a1b6044820152606490fd5b156118b657565b60405162461bcd60e51b815260206004820152600f60248201526e10da1958dacc8b4c8811985a5b1959608a1b6044820152606490fd5b156118f457565b60405162461bcd60e51b815260206004820152600d60248201526c10da1958daccc811985a5b1959609a1b6044820152606490fd5b601f821161193657505050565b5f5260205f20906020601f840160051c8301931061196e575b601f0160051c01905b818110611963575050565b5f8155600101611958565b909150819061194f565b91906001600160401b03811161026b5761199c816119965f5461061d565b5f611929565b5f601f82116001146119d95781906119ca93945f926119ce575b50508160011b915f199060031b1c19161790565b5f55565b013590505f806119b6565b5f8052601f198216937f290decd9548b62a8d60345a988386fc84ba6bc95484008f6362f93160ef3e563915f5b868110611a3c5750836001959610611a23575b505050811b015f55565b01355f19600384901b60f8161c191690555f8080611a19565b90926020600181928686013581550194019101611a06565b9092916001600160401b03811161026b57611a7981611a73845461061d565b84611929565b5f601f8211600114611aab578190611aa79394955f926119ce5750508160011b915f199060031b1c19161790565b9055565b601f19821694611abe845f5260205f2090565b915f5b878110611af8575083600195969710611adf575b505050811b019055565b01355f19600384901b60f8161c191690555f8080611ad5565b90926020600181928686013581550194019101611ac1565b92906114b3906102dc9593604086526040860191611415565b908151811015610600570160200190565b90821015610600570190565b959195949294611b5986610c74846114d4565b611b7560405160208101906103fc816103ee8b8d8989886116e2565b94611b92886040516103fc816103ee8c60208301958a8a88611712565b90600194611ba2610427866114ea565b99611bb2610427610cd38c61108d565b611bc1610427610ce88961107f565b9a611bd1610427610cd38361109c565b945f9a5f9b5b611be08b61107f565b8d11611c34578f8e611c258f928f8f908f87610d62611c2d9986610d5c8b8887610d575f5160206120e15f395f51905f529f610d4f6080916104ae9e610d679d611132565b9d099c611071565b9b9a611bd7565b50939a5093969a949b91985096949b611c4c906115f9565b5f9a8d978c5b8d611c62610da8610da88c611518565b10611ceb578f908c908f8f8e90611c788e61107f565b83148015611ce2575b611cc2578e610d678561049e611cbb999789610498611cb3995f5160206120e15f395f51905f529c996104ae99611132565b9b099d611071565b9c98611c52565b5050509a5f5160206120e15f395f51905f52915091611cbb92099d611071565b508d8314611c81565b509698959d949c929a9399611d07929c50610e4c91985061139f565b935f9a8d995f9c5b8d611d1c610da88d61107f565b10611d63578f5f5160206120e15f395f51905f52908f8f8f8f908f87610d62611d5c9986610d5c611d54996104ae98610d6797611132565b9d099d611071565b9c9a611d0f565b50949b5099610ec49197969d50611d7f9298959c9399506115f9565b5f98600195918a5b611d93610da888611518565b8c11611e1357898d918d8b8e8b83148015611e02575b611de2578c610d678561049e611ddb999789610498610f2e995f5160206120e15f395f51905f529c996104ae99611132565b9a96611d87565b505050985f5160206120e15f395f51905f52915091611ddb92099b611071565b50611e0c8c61158d565b8314611da9565b50611ebd99939b50611ec89a50611eb1965096611e47610fe66103fc93611eab979f9a611eb89b610fd66103ee989e61139f565b611e79611032858b61101a610fd68b6105b58161102a611020611e686111b2565b988c61101261100a6110038761158d565b611e8b6001611049610964898d6110b8565b611e98611057878b6110b8565b6040519283916020830195888c88611b10565b936110b8565b369161028b565b6116a2565b6103ba36858561028b565b915f5b60808110611edc5750505050600190565b611ef7611ee98286611b29565b516001600160f81b03191690565b611f23611f16611f08848688611b3a565b356001600160f81b03191690565b6001600160f81b03191690565b6001600160f81b031990911603611f3c57600101611ecb565b505050505f90565b5f91906103ee611f6384936040519283916108b46020840180976113b5565b5190600d5afa506102dc611370565b9060025491600160401b83101561026b57600183016002556002548310156106005760025f5261068b927f405787fa12a823e0f2b7631cc41b3ba8828b3321ca811111fa75cd3aa3bb5ace01611a54565b9060035491600160401b83101561026b57600183016003556003548310156106005760035f5261068b927fc2575a0e9e593c00f959f8c92f12db2869c3395a3b0502d05e2516446f71f85b01611a54565b1561201b57565b60405162461bcd60e51b815260206004820152600d60248201526c10da1958dacc4811985a5b1959609a1b6044820152606490fd5b9061010092602091010137565b90608092602091010137565b9190918054600181161561016657610100905f190160011c0361016657610100916007915f5260205f2093019280546020850152600181015460408501526002810154606085015260038101546080850152600481015460a0850152600581015460c0850152600681015460e0850152015491015256fe73eda753299d7d483339d80809a1d80553bda402fffe5bfeffffffff00000001a26469706673582212203d924b84751171b08a229d3d1a4903e71b1be867e3f9df6b99c1b6c3fd212f3064736f6c634300081f0033290decd9548b62a8d60345a988386fc84ba6bc95484008f6362f93160ef3e563",
					"opcodes": "PUSH1 0x80 CALLVALUE PUSH2 0x198 JUMPI PUSH1 0xA0 DUP2 ADD PUSH1 0x1 PUSH1 0x1 PUSH1 0x40 SHL SUB DUP2 GT DUP3 DUP3 LT OR PUSH2 0x184 JUMPI PUSH1 0x40 MSTORE PUSH1 0x80 DUP2 MSTORE PUSH16 0x17F1D3A73197D7942695638C4FA9AC0F PUSH1 0x20 DUP3 ADD MSTORE PUSH32 0xC3688C4F9774B905A14E3A3F171BAC586C55E83FF97A1AEFFB3AF00ADB22C6BB PUSH1 0x40 DUP3 ADD MSTORE PUSH16 0x8B3F481E3AAA0F1A09E30ED741D8AE4 PUSH1 0x60 DUP3 ADD MSTORE PUSH32 0xFCF5E095D5D00AF600DB18CB2C04B3EDD03CC744A2888AE40CAA232946C5E7E1 PUSH1 0x80 DUP3 ADD MSTORE PUSH0 SLOAD PUSH1 0x1 SWAP1 PUSH1 0x1 DUP2 DUP2 SHR SWAP2 AND DUP1 ISZERO PUSH2 0x17A JUMPI JUMPDEST PUSH1 0x20 DUP3 LT EQ PUSH2 0x166 JUMPI PUSH1 0x1F DUP2 GT PUSH2 0x115 JUMPI JUMPDEST POP POP PUSH0 DUP1 DUP1 MSTORE PUSH1 0x20 PUSH0 MLOAD PUSH1 0x20 PUSH2 0x22D3 PUSH0 CODECOPY PUSH0 MLOAD SWAP1 PUSH0 MSTORE JUMPDEST PUSH1 0x80 DUP4 LT PUSH2 0xFD JUMPI PUSH2 0x101 PUSH0 SSTORE PUSH1 0xFF NOT PUSH1 0x1 SLOAD AND PUSH1 0x1 SSTORE PUSH1 0x40 MLOAD PUSH2 0x2136 SWAP1 DUP2 PUSH2 0x19D DUP3 CODECOPY RETURN JUMPDEST PUSH1 0x20 PUSH1 0x1 DUP2 SWAP3 DUP5 DUP8 ADD MLOAD DUP2 SSTORE ADD SWAP3 ADD SWAP3 ADD SWAP2 SWAP1 PUSH2 0xD7 JUMP JUMPDEST PUSH0 DUP1 MSTORE PUSH1 0x1F ADD PUSH1 0x5 SHR PUSH0 MLOAD PUSH1 0x20 PUSH2 0x22D3 PUSH0 CODECOPY PUSH0 MLOAD SWAP1 PUSH0 MSTORE ADD PUSH32 0x290DECD9548B62A8D60345A988386FC84BA6BC95484008F6362F93160EF3E567 JUMPDEST DUP2 DUP2 LT PUSH2 0x15C JUMPI POP PUSH2 0xC0 JUMP JUMPDEST PUSH0 DUP2 SSTORE DUP3 ADD PUSH2 0x14F JUMP JUMPDEST PUSH4 0x4E487B71 PUSH1 0xE0 SHL PUSH0 MSTORE PUSH1 0x22 PUSH1 0x4 MSTORE PUSH1 0x24 PUSH0 REVERT JUMPDEST SWAP1 PUSH1 0x7F AND SWAP1 PUSH2 0xAE JUMP JUMPDEST PUSH4 0x4E487B71 PUSH1 0xE0 SHL PUSH0 MSTORE PUSH1 0x41 PUSH1 0x4 MSTORE PUSH1 0x24 PUSH0 REVERT JUMPDEST PUSH0 DUP1 REVERT INVALID PUSH1 0x80 PUSH1 0x40 MSTORE PUSH1 0x4 CALLDATASIZE LT ISZERO PUSH2 0x11 JUMPI PUSH0 DUP1 REVERT JUMPDEST PUSH0 CALLDATALOAD PUSH1 0xE0 SHR DUP1 PUSH4 0x6325239 EQ PUSH2 0x134 JUMPI DUP1 PUSH4 0x205C9CC7 EQ PUSH2 0x12F JUMPI DUP1 PUSH4 0x3F009C16 EQ PUSH2 0x12A JUMPI DUP1 PUSH4 0x4D919405 EQ PUSH2 0x125 JUMPI DUP1 PUSH4 0x51E54308 EQ PUSH2 0x120 JUMPI DUP1 PUSH4 0x54B57F70 EQ PUSH2 0x11B JUMPI DUP1 PUSH4 0x5CDC73EF EQ PUSH2 0x116 JUMPI DUP1 PUSH4 0x6592041A EQ PUSH2 0x111 JUMPI DUP1 PUSH4 0x6F18B669 EQ PUSH2 0x10C JUMPI DUP1 PUSH4 0x8A2BA01C EQ PUSH2 0x107 JUMPI DUP1 PUSH4 0xA66339B7 EQ PUSH2 0x102 JUMPI DUP1 PUSH4 0xAF1D0BD9 EQ PUSH2 0xFD JUMPI DUP1 PUSH4 0xC1F2C915 EQ PUSH2 0xF8 JUMPI DUP1 PUSH4 0xC588E555 EQ PUSH2 0xF3 JUMPI DUP1 PUSH4 0xD6385D60 EQ PUSH2 0xEE JUMPI DUP1 PUSH4 0xE63C1828 EQ PUSH2 0xE9 JUMPI DUP1 PUSH4 0xE6859B9A EQ PUSH2 0xE4 JUMPI PUSH4 0xE86D06C7 EQ PUSH2 0xDF JUMPI PUSH0 DUP1 REVERT JUMPDEST PUSH2 0xBF2 JUMP JUMPDEST PUSH2 0xBA2 JUMP JUMPDEST PUSH2 0xAD9 JUMP JUMPDEST PUSH2 0xABF JUMP JUMPDEST PUSH2 0xA2C JUMP JUMPDEST PUSH2 0x9ED JUMP JUMPDEST PUSH2 0x97F JUMP JUMPDEST PUSH2 0x92F JUMP JUMPDEST PUSH2 0x913 JUMP JUMPDEST PUSH2 0x8F7 JUMP JUMPDEST PUSH2 0x8DE JUMP JUMPDEST PUSH2 0x87F JUMP JUMPDEST PUSH2 0x7A7 JUMP JUMPDEST PUSH2 0x3C0 JUMP JUMPDEST PUSH2 0x3A6 JUMP JUMPDEST PUSH2 0x333 JUMP JUMPDEST PUSH2 0x214 JUMP JUMPDEST PUSH2 0x1EE JUMP JUMPDEST SWAP2 DUP2 PUSH1 0x1F DUP5 ADD SLT ISZERO PUSH2 0x166 JUMPI DUP3 CALLDATALOAD SWAP2 PUSH1 0x1 PUSH1 0x1 PUSH1 0x40 SHL SUB DUP4 GT PUSH2 0x166 JUMPI PUSH1 0x20 DUP4 DUP2 DUP7 ADD SWAP6 ADD ADD GT PUSH2 0x166 JUMPI JUMP JUMPDEST PUSH0 DUP1 REVERT JUMPDEST SWAP2 DUP2 PUSH1 0x1F DUP5 ADD SLT ISZERO PUSH2 0x166 JUMPI DUP3 CALLDATALOAD SWAP2 PUSH1 0x1 PUSH1 0x1 PUSH1 0x40 SHL SUB DUP4 GT PUSH2 0x166 JUMPI PUSH1 0x20 DUP1 DUP6 ADD SWAP5 DUP5 PUSH1 0x5 SHL ADD ADD GT PUSH2 0x166 JUMPI JUMP JUMPDEST PUSH1 0x60 PUSH1 0x3 NOT DUP3 ADD SLT PUSH2 0x166 JUMPI PUSH1 0x4 CALLDATALOAD PUSH1 0x1 PUSH1 0x1 PUSH1 0x40 SHL SUB DUP2 GT PUSH2 0x166 JUMPI DUP2 PUSH2 0x1C4 SWAP2 PUSH1 0x4 ADD PUSH2 0x139 JUMP JUMPDEST SWAP3 SWAP1 SWAP3 SWAP2 PUSH1 0x24 CALLDATALOAD SWAP1 PUSH1 0x1 PUSH1 0x1 PUSH1 0x40 SHL SUB DUP3 GT PUSH2 0x166 JUMPI PUSH2 0x1E6 SWAP2 PUSH1 0x4 ADD PUSH2 0x16A JUMP JUMPDEST SWAP1 SWAP2 PUSH1 0x44 CALLDATALOAD SWAP1 JUMP JUMPDEST CALLVALUE PUSH2 0x166 JUMPI PUSH1 0x20 PUSH2 0x20A PUSH2 0x201 CALLDATASIZE PUSH2 0x19A JUMP JUMPDEST SWAP4 SWAP3 SWAP1 SWAP3 PUSH2 0x127E JUMP JUMPDEST PUSH1 0x40 MLOAD SWAP1 ISZERO ISZERO DUP2 MSTORE RETURN JUMPDEST CALLVALUE PUSH2 0x166 JUMPI PUSH0 CALLDATASIZE PUSH1 0x3 NOT ADD SLT PUSH2 0x166 JUMPI PUSH1 0x20 PUSH1 0xFF PUSH1 0x1 SLOAD AND PUSH1 0x40 MLOAD SWAP1 ISZERO ISZERO DUP2 MSTORE RETURN JUMPDEST PUSH4 0x4E487B71 PUSH1 0xE0 SHL PUSH0 MSTORE PUSH1 0x41 PUSH1 0x4 MSTORE PUSH1 0x24 PUSH0 REVERT JUMPDEST SWAP1 PUSH1 0x1F DUP1 NOT SWAP2 ADD AND DUP2 ADD SWAP1 DUP2 LT PUSH1 0x1 PUSH1 0x1 PUSH1 0x40 SHL SUB DUP3 GT OR PUSH2 0x26B JUMPI PUSH1 0x40 MSTORE JUMP JUMPDEST PUSH2 0x236 JUMP JUMPDEST PUSH1 0x1 PUSH1 0x1 PUSH1 0x40 SHL SUB DUP2 GT PUSH2 0x26B JUMPI PUSH1 0x1F ADD PUSH1 0x1F NOT AND PUSH1 0x20 ADD SWAP1 JUMP JUMPDEST SWAP3 SWAP2 SWAP3 PUSH2 0x297 DUP3 PUSH2 0x270 JUMP JUMPDEST SWAP2 PUSH2 0x2A5 PUSH1 0x40 MLOAD SWAP4 DUP5 PUSH2 0x24A JUMP JUMPDEST DUP3 SWAP5 DUP2 DUP5 MSTORE DUP2 DUP4 ADD GT PUSH2 0x166 JUMPI DUP3 DUP2 PUSH1 0x20 SWAP4 DUP5 PUSH0 SWAP7 ADD CALLDATACOPY ADD ADD MSTORE JUMP JUMPDEST SWAP1 DUP1 PUSH1 0x1F DUP4 ADD SLT ISZERO PUSH2 0x166 JUMPI DUP2 PUSH1 0x20 PUSH2 0x2DC SWAP4 CALLDATALOAD SWAP2 ADD PUSH2 0x28B JUMP JUMPDEST SWAP1 JUMP JUMPDEST PUSH1 0x20 PUSH1 0x3 NOT DUP3 ADD SLT PUSH2 0x166 JUMPI PUSH1 0x4 CALLDATALOAD SWAP1 PUSH1 0x1 PUSH1 0x1 PUSH1 0x40 SHL SUB DUP3 GT PUSH2 0x166 JUMPI PUSH2 0x2DC SWAP2 PUSH1 0x4 ADD PUSH2 0x2C1 JUMP JUMPDEST PUSH1 0x20 PUSH1 0x40 SWAP3 DUP2 DUP4 MSTORE DUP1 MLOAD SWAP2 DUP3 SWAP2 DUP3 DUP3 DUP7 ADD MSTORE ADD DUP5 DUP5 ADD MCOPY PUSH0 DUP3 DUP3 ADD DUP5 ADD MSTORE PUSH1 0x1F ADD PUSH1 0x1F NOT AND ADD ADD SWAP1 JUMP JUMPDEST CALLVALUE PUSH2 0x166 JUMPI PUSH2 0x358 PUSH2 0x34C PUSH2 0x347 CALLDATASIZE PUSH2 0x2DF JUMP JUMPDEST PUSH2 0x139F JUMP JUMPDEST PUSH1 0x40 MLOAD SWAP2 DUP3 SWAP2 DUP3 PUSH2 0x309 JUMP JUMPDEST SUB SWAP1 RETURN JUMPDEST SWAP1 PUSH1 0x40 PUSH1 0x3 NOT DUP4 ADD SLT PUSH2 0x166 JUMPI PUSH1 0x4 CALLDATALOAD PUSH1 0x1 PUSH1 0x1 PUSH1 0x40 SHL SUB DUP2 GT PUSH2 0x166 JUMPI DUP3 PUSH2 0x387 SWAP2 PUSH1 0x4 ADD PUSH2 0x2C1 JUMP JUMPDEST SWAP2 PUSH1 0x24 CALLDATALOAD SWAP1 PUSH1 0x1 PUSH1 0x1 PUSH1 0x40 SHL SUB DUP3 GT PUSH2 0x166 JUMPI PUSH2 0x2DC SWAP2 PUSH1 0x4 ADD PUSH2 0x2C1 JUMP JUMPDEST CALLVALUE PUSH2 0x166 JUMPI PUSH2 0x358 PUSH2 0x34C PUSH2 0x3BA CALLDATASIZE PUSH2 0x35C JUMP JUMPDEST SWAP1 PUSH2 0x13C7 JUMP JUMPDEST CALLVALUE PUSH2 0x166 JUMPI PUSH2 0x3CE CALLDATASIZE PUSH2 0x19A JUMP JUMPDEST SWAP3 SWAP4 SWAP1 SWAP2 PUSH2 0x412 PUSH1 0x40 MLOAD PUSH1 0x20 DUP2 ADD SWAP1 PUSH2 0x3FC DUP2 PUSH2 0x3EE DUP9 DUP8 DUP13 DUP11 DUP9 PUSH2 0x149A JUMP JUMPDEST SUB PUSH1 0x1F NOT DUP2 ADD DUP4 MSTORE DUP3 PUSH2 0x24A JUMP JUMPDEST MLOAD SWAP1 KECCAK256 PUSH0 MLOAD PUSH1 0x20 PUSH2 0x20E1 PUSH0 CODECOPY PUSH0 MLOAD SWAP1 PUSH0 MSTORE SWAP1 MOD SWAP1 JUMP JUMPDEST SWAP3 PUSH2 0x42C PUSH2 0x427 PUSH2 0x422 DUP4 PUSH2 0x107F JUMP JUMPDEST PUSH2 0x14C1 JUMP JUMPDEST PUSH2 0x1530 JUMP JUMPDEST SWAP6 PUSH2 0x43C PUSH2 0x427 PUSH2 0x422 DUP5 PUSH2 0x107F JUMP JUMPDEST SWAP6 DUP6 SWAP2 DUP7 PUSH0 SWAP7 DUP11 PUSH0 SWAP9 JUMPDEST PUSH2 0x44F DUP9 PUSH2 0x107F JUMP JUMPDEST DUP11 GT PUSH2 0x4E4 JUMPI SWAP1 DUP11 SWAP2 DUP11 DUP10 DUP12 PUSH2 0x465 DUP11 DUP4 PUSH2 0x10AB JUMP JUMPDEST DUP4 EQ PUSH2 0x4C4 JUMPI PUSH2 0x4A3 DUP5 PUSH2 0x49E PUSH2 0x4BB SWAP9 SWAP7 DUP9 PUSH2 0x498 PUSH2 0x4B3 SWAP9 PUSH0 MLOAD PUSH1 0x20 PUSH2 0x20E1 PUSH0 CODECOPY PUSH0 MLOAD SWAP1 PUSH0 MSTORE SWAP12 SWAP9 PUSH2 0x4AE SWAP9 PUSH2 0x1132 JUMP JUMPDEST POP PUSH2 0x2050 JUMP JUMPDEST PUSH2 0x1562 JUMP JUMPDEST SWAP2 DUP3 ADD PUSH1 0x20 ADD DUP12 SWAP1 MSTORE JUMP JUMPDEST PUSH2 0x1571 JUMP JUMPDEST SWAP8 MULMOD SWAP9 PUSH2 0x1071 JUMP JUMPDEST SWAP8 SWAP5 DUP12 SWAP1 PUSH2 0x446 JUMP JUMPDEST POP POP POP SWAP7 PUSH0 MLOAD PUSH1 0x20 PUSH2 0x20E1 PUSH0 CODECOPY PUSH0 MLOAD SWAP1 PUSH0 MSTORE SWAP2 POP SWAP2 PUSH2 0x4BB SWAP3 MULMOD SWAP9 PUSH2 0x1071 JUMP JUMPDEST POP SWAP5 POP SWAP1 DUP10 DUP10 SWAP4 SWAP5 DUP8 PUSH0 SWAP5 PUSH0 SWAP6 JUMPDEST PUSH2 0x4FB DUP4 PUSH2 0x107F JUMP JUMPDEST DUP8 GT PUSH2 0x58D JUMPI DUP8 SWAP1 DUP8 PUSH2 0x50E DUP7 DUP7 PUSH2 0x10AB JUMP JUMPDEST DUP2 EQ PUSH2 0x571 JUMPI SWAP2 PUSH2 0x562 PUSH2 0x554 DUP4 PUSH2 0x49E PUSH0 MLOAD PUSH1 0x20 PUSH2 0x20E1 PUSH0 CODECOPY PUSH0 MLOAD SWAP1 PUSH0 MSTORE SWAP6 DUP12 PUSH2 0x54E DUP10 PUSH2 0x548 PUSH2 0x542 PUSH2 0x56A SWAP13 PUSH2 0x5E8 JUMP JUMPDEST POP PUSH2 0x709 JUMP JUMPDEST POP PUSH2 0x5E8 JUMP JUMPDEST POP PUSH2 0x2069 JUMP JUMPDEST DUP9 DUP2 ADD PUSH1 0x20 ADD DUP11 SWAP1 MSTORE PUSH2 0x1571 JUMP JUMPDEST SWAP8 MULMOD SWAP7 PUSH2 0x1071 JUMP JUMPDEST SWAP6 SWAP5 PUSH2 0x4F2 JUMP JUMPDEST POP SWAP6 PUSH2 0x56A SWAP2 PUSH0 MLOAD PUSH1 0x20 PUSH2 0x20E1 PUSH0 CODECOPY PUSH0 MLOAD SWAP1 PUSH0 MSTORE SWAP2 MULMOD SWAP7 PUSH2 0x1071 JUMP JUMPDEST POP PUSH2 0x5C3 PUSH2 0x5C8 SWAP2 DUP10 DUP7 PUSH2 0x5BD PUSH2 0x5AC PUSH2 0x5A6 DUP16 PUSH2 0x139F JUMP JUMPDEST SWAP3 PUSH2 0x139F JUMP JUMPDEST SWAP4 PUSH2 0x5B5 PUSH2 0x11B2 JUMP JUMPDEST SWAP4 CALLDATASIZE SWAP2 PUSH2 0x28B JUMP JUMPDEST SWAP2 PUSH2 0x160F JUMP JUMPDEST PUSH2 0x159B JUMP JUMPDEST PUSH1 0x40 MLOAD PUSH1 0x1 DUP2 MSTORE PUSH1 0x20 SWAP1 RETURN JUMPDEST PUSH4 0x4E487B71 PUSH1 0xE0 SHL PUSH0 MSTORE PUSH1 0x32 PUSH1 0x4 MSTORE PUSH1 0x24 PUSH0 REVERT JUMPDEST PUSH1 0x3 SLOAD DUP2 LT ISZERO PUSH2 0x600 JUMPI PUSH1 0x3 PUSH0 MSTORE PUSH1 0x20 PUSH0 KECCAK256 ADD SWAP1 PUSH0 SWAP1 JUMP JUMPDEST PUSH2 0x5D4 JUMP JUMPDEST PUSH1 0x2 SLOAD DUP2 LT ISZERO PUSH2 0x600 JUMPI PUSH1 0x2 PUSH0 MSTORE PUSH1 0x20 PUSH0 KECCAK256 ADD SWAP1 PUSH0 SWAP1 JUMP JUMPDEST SWAP1 PUSH1 0x1 DUP3 DUP2 SHR SWAP3 AND DUP1 ISZERO PUSH2 0x64B JUMPI JUMPDEST PUSH1 0x20 DUP4 LT EQ PUSH2 0x637 JUMPI JUMP JUMPDEST PUSH4 0x4E487B71 PUSH1 0xE0 SHL PUSH0 MSTORE PUSH1 0x22 PUSH1 0x4 MSTORE PUSH1 0x24 PUSH0 REVERT JUMPDEST SWAP2 PUSH1 0x7F AND SWAP2 PUSH2 0x62C JUMP JUMPDEST PUSH1 0x40 MLOAD SWAP1 PUSH0 DUP3 PUSH0 SLOAD SWAP2 PUSH2 0x667 DUP4 PUSH2 0x61D JUMP JUMPDEST DUP1 DUP4 MSTORE SWAP3 PUSH1 0x1 DUP2 AND SWAP1 DUP2 ISZERO PUSH2 0x6EA JUMPI POP PUSH1 0x1 EQ PUSH2 0x68D JUMPI JUMPDEST PUSH2 0x68B SWAP3 POP SUB DUP4 PUSH2 0x24A JUMP JUMPDEST JUMP JUMPDEST POP PUSH0 DUP1 DUP1 MSTORE SWAP1 SWAP2 PUSH32 0x290DECD9548B62A8D60345A988386FC84BA6BC95484008F6362F93160EF3E563 JUMPDEST DUP2 DUP4 LT PUSH2 0x6CE JUMPI POP POP SWAP1 PUSH1 0x20 PUSH2 0x68B SWAP3 DUP3 ADD ADD PUSH2 0x67F JUMP JUMPDEST PUSH1 0x20 SWAP2 SWAP4 POP DUP1 PUSH1 0x1 SWAP2 SLOAD DUP4 DUP6 DUP10 ADD ADD MSTORE ADD SWAP2 ADD SWAP1 SWAP2 DUP5 SWAP3 PUSH2 0x6B6 JUMP JUMPDEST PUSH1 0x20 SWAP3 POP PUSH2 0x68B SWAP5 SWAP2 POP PUSH1 0xFF NOT AND DUP3 DUP5 ADD MSTORE ISZERO ISZERO PUSH1 0x5 SHL DUP3 ADD ADD PUSH2 0x67F JUMP JUMPDEST SWAP1 PUSH1 0x40 MLOAD SWAP2 DUP3 PUSH0 DUP3 SLOAD SWAP3 PUSH2 0x71C DUP5 PUSH2 0x61D JUMP JUMPDEST DUP1 DUP5 MSTORE SWAP4 PUSH1 0x1 DUP2 AND SWAP1 DUP2 ISZERO PUSH2 0x785 JUMPI POP PUSH1 0x1 EQ PUSH2 0x741 JUMPI JUMPDEST POP PUSH2 0x68B SWAP3 POP SUB DUP4 PUSH2 0x24A JUMP JUMPDEST SWAP1 POP PUSH0 SWAP3 SWAP2 SWAP3 MSTORE PUSH1 0x20 PUSH0 KECCAK256 SWAP1 PUSH0 SWAP2 JUMPDEST DUP2 DUP4 LT PUSH2 0x769 JUMPI POP POP SWAP1 PUSH1 0x20 PUSH2 0x68B SWAP3 DUP3 ADD ADD PUSH0 PUSH2 0x734 JUMP JUMPDEST PUSH1 0x20 SWAP2 SWAP4 POP DUP1 PUSH1 0x1 SWAP2 SLOAD DUP4 DUP6 DUP10 ADD ADD MSTORE ADD SWAP2 ADD SWAP1 SWAP2 DUP5 SWAP3 PUSH2 0x750 JUMP JUMPDEST SWAP1 POP PUSH1 0x20 SWAP3 POP PUSH2 0x68B SWAP5 SWAP2 POP PUSH1 0xFF NOT AND DUP3 DUP5 ADD MSTORE ISZERO ISZERO PUSH1 0x5 SHL DUP3 ADD ADD PUSH0 PUSH2 0x734 JUMP JUMPDEST CALLVALUE PUSH2 0x166 JUMPI PUSH1 0x20 CALLDATASIZE PUSH1 0x3 NOT ADD SLT PUSH2 0x166 JUMPI PUSH1 0x4 CALLDATALOAD PUSH1 0x2 SLOAD DUP2 LT ISZERO PUSH2 0x166 JUMPI PUSH2 0x34C PUSH2 0x358 SWAP2 PUSH1 0x2 PUSH0 MSTORE PUSH32 0x405787FA12A823E0F2B7631CC41B3BA8828B3321CA811111FA75CD3AA3BB5ACE ADD PUSH2 0x709 JUMP JUMPDEST SWAP1 PUSH1 0x80 PUSH1 0x3 NOT DUP4 ADD SLT PUSH2 0x166 JUMPI PUSH1 0x4 CALLDATALOAD PUSH1 0x1 PUSH1 0x1 PUSH1 0x40 SHL SUB DUP2 GT PUSH2 0x166 JUMPI DUP3 PUSH2 0x822 SWAP2 PUSH1 0x4 ADD PUSH2 0x2C1 JUMP JUMPDEST SWAP2 PUSH1 0x24 CALLDATALOAD PUSH1 0x1 PUSH1 0x1 PUSH1 0x40 SHL SUB DUP2 GT PUSH2 0x166 JUMPI DUP2 PUSH2 0x841 SWAP2 PUSH1 0x4 ADD PUSH2 0x2C1 JUMP JUMPDEST SWAP2 PUSH1 0x44 CALLDATALOAD PUSH1 0x1 PUSH1 0x1 PUSH1 0x40 SHL SUB DUP2 GT PUSH2 0x166 JUMPI DUP3 PUSH2 0x860 SWAP2 PUSH1 0x4 ADD PUSH2 0x2C1 JUMP JUMPDEST SWAP2 PUSH1 0x64 CALLDATALOAD SWAP1 PUSH1 0x1 PUSH1 0x1 PUSH1 0x40 SHL SUB DUP3 GT PUSH2 0x166 JUMPI PUSH2 0x2DC SWAP2 PUSH1 0x4 ADD PUSH2 0x2C1 JUMP JUMPDEST CALLVALUE PUSH2 0x166 JUMPI PUSH0 DUP1 PUSH2 0x8B4 PUSH2 0x8B4 PUSH2 0x8BA PUSH2 0x3EE PUSH2 0x89B CALLDATASIZE PUSH2 0x7F7 JUMP JUMPDEST SWAP2 SWAP4 SWAP3 SWAP7 SWAP1 PUSH1 0x40 MLOAD SWAP7 DUP8 SWAP6 PUSH2 0x8B4 PUSH1 0x20 DUP9 ADD DUP1 SWAP12 PUSH2 0x13B5 JUMP JUMPDEST SWAP1 PUSH2 0x13B5 JUMP JUMPDEST MLOAD SWAP1 PUSH1 0xF GAS STATICCALL POP PUSH1 0x20 PUSH1 0x1 PUSH2 0x8D5 PUSH2 0x8D0 PUSH2 0x1370 JUMP JUMPDEST PUSH2 0x15D7 JUMP JUMPDEST EQ PUSH1 0x40 MLOAD SWAP1 DUP2 MSTORE RETURN JUMPDEST CALLVALUE PUSH2 0x166 JUMPI PUSH2 0x358 PUSH2 0x34C PUSH2 0x8F2 CALLDATASIZE PUSH2 0x2DF JUMP JUMPDEST PUSH2 0x15F9 JUMP JUMPDEST CALLVALUE PUSH2 0x166 JUMPI PUSH1 0x20 PUSH2 0x20A PUSH2 0x90A CALLDATASIZE PUSH2 0x7F7 JUMP JUMPDEST SWAP3 SWAP2 SWAP1 SWAP2 PUSH2 0x160F JUMP JUMPDEST CALLVALUE PUSH2 0x166 JUMPI PUSH0 CALLDATASIZE PUSH1 0x3 NOT ADD SLT PUSH2 0x166 JUMPI PUSH2 0x358 PUSH2 0x34C PUSH0 PUSH2 0x709 JUMP JUMPDEST CALLVALUE PUSH2 0x166 JUMPI PUSH1 0x20 CALLDATASIZE PUSH1 0x3 NOT ADD SLT PUSH2 0x166 JUMPI PUSH1 0x4 CALLDATALOAD PUSH1 0x1 PUSH1 0x1 PUSH1 0x40 SHL SUB DUP2 GT PUSH2 0x166 JUMPI PUSH2 0x20A PUSH2 0x964 PUSH1 0x20 SWAP3 CALLDATASIZE SWAP1 PUSH1 0x4 ADD PUSH2 0x139 JUMP JUMPDEST POP PUSH1 0x60 DUP2 ADD CALLDATALOAD SWAP1 PUSH1 0x40 DUP2 ADD CALLDATALOAD SWAP1 PUSH1 0x20 DUP2 ADD CALLDATALOAD SWAP1 CALLDATALOAD OR OR OR ISZERO SWAP1 JUMP JUMPDEST CALLVALUE PUSH2 0x166 JUMPI PUSH1 0x40 CALLDATASIZE PUSH1 0x3 NOT ADD SLT PUSH2 0x166 JUMPI PUSH1 0x4 CALLDATALOAD PUSH1 0x1 PUSH1 0x1 PUSH1 0x40 SHL SUB DUP2 GT PUSH2 0x166 JUMPI PUSH0 PUSH2 0x9B1 DUP2 SWAP3 CALLDATASIZE SWAP1 PUSH1 0x4 ADD PUSH2 0x139 JUMP JUMPDEST PUSH2 0x9DB PUSH1 0x20 DUP1 PUSH1 0x24 CALLDATALOAD SWAP4 PUSH1 0x40 MLOAD SWAP5 DUP2 DUP7 SWAP3 DUP5 DUP5 ADD SWAP9 DUP10 CALLDATACOPY DUP3 ADD SWAP1 DUP4 DUP3 ADD MSTORE SUB ADD DUP1 DUP5 MSTORE ADD DUP3 PUSH2 0x24A JUMP JUMPDEST MLOAD SWAP1 PUSH1 0xE GAS STATICCALL POP PUSH2 0x358 PUSH2 0x34C PUSH2 0x1370 JUMP JUMPDEST CALLVALUE PUSH2 0x166 JUMPI PUSH1 0x40 CALLDATASIZE PUSH1 0x3 NOT ADD SLT PUSH2 0x166 JUMPI PUSH1 0x4 CALLDATALOAD PUSH1 0x1 PUSH1 0x1 PUSH1 0x40 SHL SUB DUP2 GT PUSH2 0x166 JUMPI PUSH2 0x34C PUSH2 0xA23 PUSH2 0x358 SWAP3 CALLDATASIZE SWAP1 PUSH1 0x4 ADD PUSH2 0x2C1 JUMP JUMPDEST PUSH1 0x24 CALLDATALOAD SWAP1 PUSH2 0x16A2 JUMP JUMPDEST CALLVALUE PUSH2 0x166 JUMPI PUSH1 0x80 CALLDATASIZE PUSH1 0x3 NOT ADD SLT PUSH2 0x166 JUMPI PUSH1 0x4 CALLDATALOAD PUSH1 0x1 PUSH1 0x1 PUSH1 0x40 SHL SUB DUP2 GT PUSH2 0x166 JUMPI PUSH2 0xA5C SWAP1 CALLDATASIZE SWAP1 PUSH1 0x4 ADD PUSH2 0x16A JUMP JUMPDEST PUSH1 0x24 CALLDATALOAD PUSH1 0x1 PUSH1 0x1 PUSH1 0x40 SHL SUB DUP2 GT PUSH2 0x166 JUMPI PUSH2 0xA7B SWAP1 CALLDATASIZE SWAP1 PUSH1 0x4 ADD PUSH2 0x16A JUMP JUMPDEST SWAP2 SWAP1 SWAP3 PUSH1 0x44 CALLDATALOAD SWAP3 PUSH1 0x1 PUSH1 0x1 PUSH1 0x40 SHL SUB DUP5 GT PUSH2 0x166 JUMPI PUSH2 0x358 SWAP5 PUSH2 0xAA5 PUSH2 0xAAD SWAP6 CALLDATASIZE SWAP1 PUSH1 0x4 ADD PUSH2 0x139 JUMP JUMPDEST SWAP5 SWAP1 SWAP4 PUSH2 0x1B46 JUMP JUMPDEST PUSH1 0x40 MLOAD SWAP1 ISZERO ISZERO DUP2 MSTORE SWAP1 DUP2 SWAP1 PUSH1 0x20 DUP3 ADD SWAP1 JUMP JUMPDEST CALLVALUE PUSH2 0x166 JUMPI PUSH2 0x358 PUSH2 0x34C PUSH2 0xAD3 CALLDATASIZE PUSH2 0x35C JUMP JUMPDEST SWAP1 PUSH2 0x1F44 JUMP JUMPDEST CALLVALUE PUSH2 0x166 JUMPI PUSH1 0x40 CALLDATASIZE PUSH1 0x3 NOT ADD SLT PUSH2 0x166 JUMPI PUSH1 0x4 CALLDATALOAD PUSH1 0x1 PUSH1 0x1 PUSH1 0x40 SHL SUB DUP2 GT PUSH2 0x166 JUMPI PUSH2 0xB09 SWAP1 CALLDATASIZE SWAP1 PUSH1 0x4 ADD PUSH2 0x16A JUMP JUMPDEST SWAP1 PUSH1 0x24 CALLDATALOAD PUSH1 0x1 PUSH1 0x1 PUSH1 0x40 SHL SUB DUP2 GT PUSH2 0x166 JUMPI PUSH2 0xB29 SWAP1 CALLDATASIZE SWAP1 PUSH1 0x4 ADD PUSH2 0x16A JUMP JUMPDEST PUSH0 NOT DUP5 ADD DUP5 DUP2 GT SWAP4 SWAP3 SWAP1 PUSH0 DUP6 JUMPDEST PUSH2 0xB9D JUMPI DUP2 DUP2 GT PUSH2 0xB64 JUMPI DUP1 PUSH2 0xB59 PUSH2 0xB53 PUSH2 0xB5E SWAP4 DUP11 DUP10 PUSH2 0x1132 JUMP JUMPDEST SWAP1 PUSH2 0x1F72 JUMP JUMPDEST PUSH2 0x1071 JUMP JUMPDEST DUP6 PUSH2 0xB36 JUMP JUMPDEST POP POP PUSH0 NOT DUP3 ADD DUP3 DUP2 GT SWAP2 SWAP1 PUSH0 DUP4 JUMPDEST PUSH2 0xB9D JUMPI DUP2 DUP2 GT PUSH2 0xB9B JUMPI DUP1 PUSH2 0xB59 PUSH2 0xB8F PUSH2 0xB95 SWAP4 DUP9 DUP8 PUSH2 0x1132 JUMP JUMPDEST SWAP1 PUSH2 0x1FC3 JUMP JUMPDEST DUP4 PUSH2 0xB72 JUMP JUMPDEST STOP JUMPDEST PUSH2 0x105D JUMP JUMPDEST CALLVALUE PUSH2 0x166 JUMPI PUSH1 0x20 CALLDATASIZE PUSH1 0x3 NOT ADD SLT PUSH2 0x166 JUMPI PUSH1 0x4 CALLDATALOAD PUSH1 0x3 SLOAD DUP2 LT ISZERO PUSH2 0x166 JUMPI PUSH2 0x34C PUSH2 0x358 SWAP2 PUSH1 0x3 PUSH0 MSTORE PUSH32 0xC2575A0E9E593C00F959F8C92F12DB2869C3395A3B0502D05E2516446F71F85B ADD PUSH2 0x709 JUMP JUMPDEST CALLVALUE PUSH2 0x166 JUMPI PUSH1 0x60 CALLDATASIZE PUSH1 0x3 NOT ADD SLT PUSH2 0x166 JUMPI PUSH1 0x4 CALLDATALOAD PUSH1 0x1 PUSH1 0x1 PUSH1 0x40 SHL SUB DUP2 GT PUSH2 0x166 JUMPI PUSH2 0xC22 SWAP1 CALLDATASIZE SWAP1 PUSH1 0x4 ADD PUSH2 0x16A JUMP JUMPDEST PUSH1 0x24 CALLDATALOAD PUSH1 0x1 PUSH1 0x1 PUSH1 0x40 SHL SUB DUP2 GT PUSH2 0x166 JUMPI PUSH2 0xC41 SWAP1 CALLDATASIZE SWAP1 PUSH1 0x4 ADD PUSH2 0x16A JUMP JUMPDEST SWAP3 SWAP1 SWAP2 PUSH1 0x44 CALLDATALOAD PUSH1 0x1 PUSH1 0x1 PUSH1 0x40 SHL SUB DUP2 GT PUSH2 0x166 JUMPI PUSH2 0xC66 SWAP1 SWAP5 SWAP2 SWAP5 CALLDATASIZE SWAP1 PUSH1 0x4 ADD PUSH2 0x139 JUMP JUMPDEST SWAP5 PUSH2 0xC7A DUP4 PUSH2 0xC74 DUP4 PUSH2 0x14D4 JUMP JUMPDEST EQ PUSH2 0x16DB JUMP JUMPDEST PUSH2 0xC96 PUSH1 0x40 MLOAD PUSH1 0x20 DUP2 ADD SWAP1 PUSH2 0x3FC DUP2 PUSH2 0x3EE DUP9 DUP12 DUP9 DUP13 DUP9 PUSH2 0x16E2 JUMP JUMPDEST SWAP4 PUSH2 0xCB3 PUSH1 0x40 MLOAD PUSH1 0x20 DUP2 ADD SWAP1 PUSH2 0x3FC DUP2 PUSH2 0x3EE DUP10 DUP13 DUP10 DUP10 DUP9 PUSH2 0x1712 JUMP JUMPDEST SWAP7 PUSH1 0x1 SWAP4 PUSH2 0xCC3 PUSH2 0x427 DUP6 PUSH2 0x14EA JUMP JUMPDEST SWAP9 PUSH2 0xCD8 PUSH2 0x427 PUSH2 0xCD3 DUP10 PUSH2 0x108D JUMP JUMPDEST PUSH2 0x1500 JUMP JUMPDEST SWAP9 PUSH2 0xCED PUSH2 0x427 PUSH2 0xCE8 DUP9 PUSH2 0x107F JUMP JUMPDEST PUSH2 0x14EA JUMP JUMPDEST SWAP10 PUSH2 0xCFD PUSH2 0x427 PUSH2 0xCD3 DUP12 PUSH2 0x109C JUMP JUMPDEST PUSH0 SWAP10 SWAP1 DUP11 JUMPDEST PUSH2 0xD0B DUP11 PUSH2 0x107F JUMP JUMPDEST DUP13 GT PUSH2 0xD7F JUMPI PUSH0 MLOAD PUSH1 0x20 PUSH2 0x20E1 PUSH0 CODECOPY PUSH0 MLOAD SWAP1 PUSH0 MSTORE DUP16 PUSH2 0xD70 DUP16 SWAP2 DUP16 DUP16 DUP16 DUP16 SWAP8 PUSH2 0xD62 DUP2 DUP7 PUSH2 0xD5C DUP8 DUP7 DUP15 PUSH2 0xD78 SWAP16 PUSH1 0x80 PUSH2 0xD4F PUSH2 0x4AE SWAP14 PUSH2 0xD67 SWAP13 PUSH2 0xD57 SWAP5 PUSH2 0x1132 JUMP JUMPDEST SWAP1 POP EQ PUSH2 0x1730 JUMP JUMPDEST PUSH2 0x1132 JUMP JUMPDEST POP PUSH2 0x205D JUMP JUMPDEST PUSH2 0x157F JUMP JUMPDEST SWAP3 DUP4 ADD PUSH1 0x20 ADD MSTORE JUMP JUMPDEST SWAP13 MULMOD SWAP12 PUSH2 0x1071 JUMP JUMPDEST SWAP11 SWAP10 PUSH2 0xD02 JUMP JUMPDEST POP SWAP6 DUP9 DUP13 DUP16 SWAP9 DUP16 PUSH2 0xD90 DUP13 SWAP12 PUSH2 0x15F9 JUMP JUMPDEST SWAP1 PUSH0 SWAP12 DUP11 SWAP7 PUSH0 SWAP14 DUP15 JUMPDEST PUSH2 0xDAD PUSH2 0xDA8 PUSH2 0xDA8 DUP12 PUSH2 0x1518 JUMP JUMPDEST PUSH2 0x107F JUMP JUMPDEST LT PUSH2 0xE36 JUMPI DUP11 DUP16 SWAP2 DUP15 SWAP3 DUP13 DUP16 PUSH2 0xDC2 DUP14 PUSH2 0x107F JUMP JUMPDEST DUP4 EQ DUP1 ISZERO PUSH2 0xE2D JUMPI JUMPDEST PUSH2 0xE0D JUMPI DUP14 PUSH2 0xD67 DUP6 PUSH2 0x49E PUSH2 0xE05 SWAP10 SWAP8 DUP10 PUSH2 0x498 PUSH2 0xDFD SWAP10 PUSH0 MLOAD PUSH1 0x20 PUSH2 0x20E1 PUSH0 CODECOPY PUSH0 MLOAD SWAP1 PUSH0 MSTORE SWAP13 SWAP10 PUSH2 0x4AE SWAP10 PUSH2 0x1132 JUMP JUMPDEST SWAP11 MULMOD SWAP15 PUSH2 0x1071 JUMP JUMPDEST SWAP14 SWAP8 DUP15 PUSH2 0xD99 JUMP JUMPDEST POP POP POP SWAP10 PUSH0 MLOAD PUSH1 0x20 PUSH2 0x20E1 PUSH0 CODECOPY PUSH0 MLOAD SWAP1 PUSH0 MSTORE SWAP2 POP SWAP2 PUSH2 0xE05 SWAP3 MULMOD SWAP15 PUSH2 0x1071 JUMP JUMPDEST POP DUP13 DUP4 EQ PUSH2 0xDCB JUMP JUMPDEST POP DUP9 SWAP4 SWAP2 DUP13 DUP9 SWAP3 DUP16 DUP15 PUSH2 0xE59 DUP16 PUSH2 0xE4C SWAP1 PUSH2 0x139F JUMP JUMPDEST PUSH2 0xE54 PUSH2 0x1769 JUMP JUMPDEST PUSH2 0x1F44 JUMP JUMPDEST SWAP10 PUSH0 SWAP10 DUP13 SWAP9 DUP12 JUMPDEST PUSH2 0xE6C PUSH2 0xDA8 DUP12 PUSH2 0x107F JUMP JUMPDEST DUP14 GT PUSH2 0xEB3 JUMPI PUSH0 MLOAD PUSH1 0x20 PUSH2 0x20E1 PUSH0 CODECOPY PUSH0 MLOAD SWAP1 PUSH0 MSTORE DUP16 PUSH2 0xEA4 DUP16 DUP16 SWAP1 DUP16 DUP16 DUP16 SWAP8 PUSH2 0xD62 DUP2 DUP7 PUSH2 0xD5C PUSH2 0x4AE SWAP8 PUSH2 0xD67 SWAP7 PUSH2 0xEAC SWAP15 PUSH2 0x1132 JUMP JUMPDEST SWAP13 MULMOD SWAP13 PUSH2 0x1071 JUMP JUMPDEST SWAP12 SWAP10 PUSH2 0xE60 JUMP JUMPDEST POP SWAP4 DUP9 DUP9 DUP15 PUSH2 0xED1 PUSH2 0xEC4 DUP16 PUSH2 0x15F9 JUMP JUMPDEST PUSH2 0xECC PUSH2 0x11B2 JUMP JUMPDEST PUSH2 0x13C7 JUMP JUMPDEST SWAP1 PUSH0 SWAP9 PUSH1 0x1 SWAP6 PUSH0 SWAP11 JUMPDEST PUSH2 0xEE6 PUSH2 0xDA8 DUP9 PUSH2 0x1518 JUMP JUMPDEST DUP13 GT PUSH2 0xF6E JUMPI DUP10 DUP15 SWAP2 DUP14 DUP12 DUP15 DUP12 DUP4 EQ DUP1 ISZERO PUSH2 0xF5D JUMPI JUMPDEST PUSH2 0xF3D JUMPI DUP13 PUSH2 0xD67 DUP6 PUSH2 0x49E PUSH2 0xF36 SWAP10 SWAP8 DUP10 PUSH2 0x498 PUSH2 0xF2E SWAP10 PUSH0 MLOAD PUSH1 0x20 PUSH2 0x20E1 PUSH0 CODECOPY PUSH0 MLOAD SWAP1 PUSH0 MSTORE SWAP13 SWAP10 PUSH2 0x4AE SWAP10 PUSH2 0x1132 JUMP JUMPDEST SWAP10 MULMOD SWAP12 PUSH2 0x1071 JUMP JUMPDEST SWAP11 SWAP7 PUSH2 0xEDA JUMP JUMPDEST POP POP POP SWAP9 PUSH0 MLOAD PUSH1 0x20 PUSH2 0x20E1 PUSH0 CODECOPY PUSH0 MLOAD SWAP1 PUSH0 MSTORE SWAP2 POP SWAP2 PUSH2 0xF36 SWAP3 MULMOD SWAP12 PUSH2 0x1071 JUMP JUMPDEST POP PUSH2 0xF67 DUP13 PUSH2 0x158D JUMP JUMPDEST DUP4 EQ PUSH2 0xEFC JUMP JUMPDEST POP DUP5 SWAP7 POP DUP6 PUSH2 0x5B5 DUP2 PUSH2 0x102A DUP16 PUSH2 0x5C8 SWAP15 PUSH2 0xFEB PUSH2 0x1057 SWAP16 DUP6 SWAP16 SWAP12 SWAP13 PUSH2 0x1032 SWAP14 PUSH2 0x1037 SWAP16 SWAP13 PUSH2 0x101A SWAP13 PUSH2 0xFE1 DUP5 SWAP16 PUSH2 0xFD6 SWAP15 PUSH2 0x1020 SWAP11 PUSH2 0xFCD PUSH2 0xFD6 PUSH2 0xFC3 PUSH2 0xFDC SWAP6 PUSH2 0xFBD PUSH2 0xFE6 SWAP14 PUSH2 0x139F JUMP JUMPDEST SWAP12 PUSH2 0x10B8 JUMP JUMPDEST SWAP3 SWAP1 PUSH2 0x5B5 PUSH2 0x1769 JUMP JUMPDEST SWAP4 PUSH2 0x5B5 PUSH2 0x655 JUMP JUMPDEST SWAP3 PUSH2 0x160F JUMP JUMPDEST PUSH2 0x2014 JUMP JUMPDEST PUSH2 0x160F JUMP JUMPDEST PUSH2 0x1871 JUMP JUMPDEST PUSH2 0xFF3 PUSH2 0x11B2 JUMP JUMPDEST SWAP10 PUSH2 0x1012 PUSH2 0x100A PUSH2 0x1003 DUP8 PUSH2 0x158D JUMP JUMPDEST DUP4 DUP6 PUSH2 0x1132 JUMP JUMPDEST SWAP9 SWAP1 SWAP12 PUSH2 0x10F2 JUMP JUMPDEST SWAP10 SWAP1 SWAP6 PUSH2 0x107F JUMP JUMPDEST SWAP2 PUSH2 0x1132 JUMP JUMPDEST SWAP8 SWAP1 SWAP5 CALLDATASIZE SWAP2 PUSH2 0x28B JUMP JUMPDEST SWAP5 CALLDATASIZE SWAP2 PUSH2 0x28B JUMP JUMPDEST PUSH2 0x18AF JUMP JUMPDEST PUSH2 0x1052 PUSH1 0x1 PUSH2 0x1049 PUSH2 0x964 DUP6 DUP6 PUSH2 0x10B8 JUMP JUMPDEST ISZERO ISZERO EQ ISZERO PUSH2 0x18ED JUMP JUMPDEST PUSH2 0x10B8 JUMP JUMPDEST SWAP1 PUSH2 0x1978 JUMP JUMPDEST PUSH4 0x4E487B71 PUSH1 0xE0 SHL PUSH0 MSTORE PUSH1 0x11 PUSH1 0x4 MSTORE PUSH1 0x24 PUSH0 REVERT JUMPDEST PUSH0 NOT DUP2 EQ PUSH2 0xB9D JUMPI PUSH1 0x1 ADD SWAP1 JUMP JUMPDEST PUSH0 NOT DUP2 ADD SWAP2 SWAP1 DUP3 GT PUSH2 0xB9D JUMPI JUMP JUMPDEST PUSH1 0x2 NOT DUP2 ADD SWAP2 SWAP1 DUP3 GT PUSH2 0xB9D JUMPI JUMP JUMPDEST PUSH1 0x1 NOT DUP2 ADD SWAP2 SWAP1 DUP3 GT PUSH2 0xB9D JUMPI JUMP JUMPDEST SWAP2 SWAP1 DUP3 SUB SWAP2 DUP3 GT PUSH2 0xB9D JUMPI JUMP JUMPDEST SWAP1 ISZERO PUSH2 0x600 JUMPI DUP1 CALLDATALOAD SWAP1 PUSH1 0x1E NOT DUP2 CALLDATASIZE SUB ADD DUP3 SLT ISZERO PUSH2 0x166 JUMPI ADD SWAP1 DUP2 CALLDATALOAD SWAP2 PUSH1 0x1 PUSH1 0x1 PUSH1 0x40 SHL SUB DUP4 GT PUSH2 0x166 JUMPI PUSH1 0x20 ADD DUP3 CALLDATASIZE SUB DUP2 SGT PUSH2 0x166 JUMPI SWAP2 SWAP1 JUMP JUMPDEST SWAP1 PUSH1 0x1 LT ISZERO PUSH2 0x600 JUMPI PUSH1 0x20 DUP2 ADD CALLDATALOAD SWAP1 PUSH1 0x1E NOT DUP2 CALLDATASIZE SUB ADD DUP3 SLT ISZERO PUSH2 0x166 JUMPI ADD SWAP1 DUP2 CALLDATALOAD SWAP2 PUSH1 0x1 PUSH1 0x1 PUSH1 0x40 SHL SUB DUP4 GT PUSH2 0x166 JUMPI PUSH1 0x20 ADD DUP3 CALLDATASIZE SUB DUP2 SGT PUSH2 0x166 JUMPI SWAP2 SWAP1 JUMP JUMPDEST SWAP2 SWAP1 DUP2 LT ISZERO PUSH2 0x600 JUMPI PUSH1 0x5 SHL DUP2 ADD CALLDATALOAD SWAP1 PUSH1 0x1E NOT DUP2 CALLDATASIZE SUB ADD DUP3 SLT ISZERO PUSH2 0x166 JUMPI ADD SWAP1 DUP2 CALLDATALOAD SWAP2 PUSH1 0x1 PUSH1 0x1 PUSH1 0x40 SHL SUB DUP4 GT PUSH2 0x166 JUMPI PUSH1 0x20 ADD DUP3 CALLDATASIZE SUB DUP2 SGT PUSH2 0x166 JUMPI SWAP2 SWAP1 JUMP JUMPDEST ISZERO PUSH2 0x117A JUMPI JUMP JUMPDEST PUSH1 0x40 MLOAD PUSH3 0x461BCD PUSH1 0xE5 SHL DUP2 MSTORE PUSH1 0x20 PUSH1 0x4 DUP3 ADD MSTORE PUSH1 0x10 PUSH1 0x24 DUP3 ADD MSTORE PUSH16 0x12D95E50DA1958DACC4811985A5B1959 PUSH1 0x82 SHL PUSH1 0x44 DUP3 ADD MSTORE PUSH1 0x64 SWAP1 REVERT JUMPDEST PUSH1 0x40 MLOAD SWAP1 PUSH2 0x11C1 PUSH1 0xA0 DUP4 PUSH2 0x24A JUMP JUMPDEST PUSH1 0x80 DUP3 MSTORE PUSH32 0xFCF5E095D5D00AF600DB18CB2C04B3EDD03CC744A2888AE40CAA232946C5E7E1 PUSH1 0x80 DUP4 PUSH16 0x17F1D3A73197D7942695638C4FA9AC0F PUSH1 0x20 DUP3 ADD MSTORE PUSH32 0xC3688C4F9774B905A14E3A3F171BAC586C55E83FF97A1AEFFB3AF00ADB22C6BB PUSH1 0x40 DUP3 ADD MSTORE PUSH16 0x8B3F481E3AAA0F1A09E30ED741D8AE4 PUSH1 0x60 DUP3 ADD MSTORE ADD MSTORE JUMP JUMPDEST ISZERO PUSH2 0x1246 JUMPI JUMP JUMPDEST PUSH1 0x40 MLOAD PUSH3 0x461BCD PUSH1 0xE5 SHL DUP2 MSTORE PUSH1 0x20 PUSH1 0x4 DUP3 ADD MSTORE PUSH1 0x10 PUSH1 0x24 DUP3 ADD MSTORE PUSH16 0x12D95E50DA1958DACC8811985A5B1959 PUSH1 0x82 SHL PUSH1 0x44 DUP3 ADD MSTORE PUSH1 0x64 SWAP1 REVERT JUMPDEST SWAP2 SWAP5 SWAP4 SWAP5 SWAP3 SWAP1 SWAP3 PUSH0 JUMPDEST PUSH2 0x1290 DUP4 PUSH2 0x109C JUMP JUMPDEST DUP2 GT PUSH2 0x1312 JUMPI PUSH2 0x130D SWAP1 PUSH2 0x12A4 DUP9 DUP6 PUSH2 0x10AB JUMP JUMPDEST DUP2 EQ PUSH2 0xB59 JUMPI PUSH2 0xB59 PUSH2 0x1308 PUSH2 0x12F4 PUSH2 0x12CB PUSH2 0x12C6 PUSH2 0xDA8 PUSH2 0xDA8 DUP8 DUP12 PUSH2 0x10AB JUMP JUMPDEST PUSH2 0x605 JUMP JUMPDEST POP PUSH2 0x12D7 DUP6 DUP10 DUP10 PUSH2 0x1132 JUMP JUMPDEST SWAP3 SWAP1 PUSH2 0x5B5 PUSH2 0x12ED PUSH2 0x12E8 DUP13 PUSH2 0x107F JUMP JUMPDEST PUSH2 0x5E8 JUMP JUMPDEST POP SWAP4 PUSH2 0x709 JUMP JUMPDEST PUSH2 0xFD6 PUSH2 0x1302 CALLDATASIZE DUP14 DUP14 PUSH2 0x28B JUMP JUMPDEST SWAP3 PUSH2 0x709 JUMP JUMPDEST PUSH2 0x1173 JUMP JUMPDEST PUSH2 0x1287 JUMP JUMPDEST POP SWAP2 SWAP3 SWAP4 SWAP5 PUSH1 0x1 EQ PUSH2 0x1367 JUMPI PUSH2 0x1362 SWAP4 PUSH2 0xFD6 PUSH2 0x1302 PUSH2 0x135D SWAP6 PUSH2 0x5B5 PUSH2 0x12E8 SWAP6 PUSH2 0x1354 PUSH2 0x134C PUSH2 0x1341 PUSH2 0x11B2 JUMP JUMPDEST SWAP10 DUP4 PUSH2 0x101A DUP2 PUSH2 0x107F JUMP JUMPDEST SWAP9 SWAP1 SWAP3 PUSH2 0x107F JUMP JUMPDEST POP SWAP7 CALLDATASIZE SWAP2 PUSH2 0x28B JUMP JUMPDEST PUSH2 0x123F JUMP JUMPDEST PUSH1 0x1 SWAP1 JUMP JUMPDEST POP POP POP POP PUSH1 0x1 SWAP1 JUMP JUMPDEST RETURNDATASIZE ISZERO PUSH2 0x139A JUMPI RETURNDATASIZE SWAP1 PUSH2 0x1381 DUP3 PUSH2 0x270 JUMP JUMPDEST SWAP2 PUSH2 0x138F PUSH1 0x40 MLOAD SWAP4 DUP5 PUSH2 0x24A JUMP JUMPDEST DUP3 MSTORE RETURNDATASIZE PUSH0 PUSH1 0x20 DUP5 ADD RETURNDATACOPY JUMP JUMPDEST PUSH1 0x60 SWAP1 JUMP JUMPDEST PUSH0 DUP1 SWAP2 PUSH1 0x20 DUP2 MLOAD SWAP2 ADD PUSH1 0xE GAS STATICCALL POP PUSH2 0x2DC PUSH2 0x1370 JUMP JUMPDEST DUP1 MLOAD SWAP2 SWAP1 DUP3 SWAP1 PUSH1 0x20 ADD DUP3 MCOPY ADD PUSH0 DUP2 MSTORE SWAP1 JUMP JUMPDEST PUSH0 SWAP2 SWAP1 PUSH2 0x3EE PUSH2 0x13E6 DUP5 SWAP4 PUSH1 0x40 MLOAD SWAP3 DUP4 SWAP2 PUSH2 0x8B4 PUSH1 0x20 DUP5 ADD DUP1 SWAP8 PUSH2 0x13B5 JUMP JUMPDEST MLOAD SWAP1 PUSH1 0xB GAS STATICCALL POP PUSH2 0x2DC PUSH2 0x1370 JUMP JUMPDEST SWAP1 DUP1 PUSH1 0x20 SWAP4 SWAP3 DUP2 DUP5 MSTORE DUP5 DUP5 ADD CALLDATACOPY PUSH0 DUP3 DUP3 ADD DUP5 ADD MSTORE PUSH1 0x1F ADD PUSH1 0x1F NOT AND ADD ADD SWAP1 JUMP JUMPDEST SWAP1 PUSH1 0x20 DUP4 DUP3 DUP2 MSTORE ADD SWAP1 PUSH1 0x20 DUP2 PUSH1 0x5 SHL DUP6 ADD ADD SWAP4 DUP4 PUSH0 SWAP2 JUMPDEST DUP4 DUP4 LT PUSH2 0x143C JUMPI POP POP POP POP POP POP SWAP1 JUMP JUMPDEST SWAP1 SWAP2 SWAP3 SWAP4 SWAP5 SWAP6 PUSH1 0x1F NOT DUP3 DUP3 SUB ADD DUP7 MSTORE DUP7 CALLDATALOAD PUSH1 0x1E NOT DUP5 CALLDATASIZE SUB ADD DUP2 SLT ISZERO PUSH2 0x166 JUMPI DUP4 ADD SWAP1 PUSH1 0x20 DUP3 CALLDATALOAD SWAP3 ADD SWAP2 PUSH1 0x1 PUSH1 0x1 PUSH1 0x40 SHL SUB DUP2 GT PUSH2 0x166 JUMPI DUP1 CALLDATASIZE SUB DUP4 SGT PUSH2 0x166 JUMPI PUSH2 0x148C PUSH1 0x20 SWAP3 DUP4 SWAP3 PUSH1 0x1 SWAP6 PUSH2 0x13F5 JUMP JUMPDEST SWAP9 ADD SWAP7 ADD SWAP5 SWAP4 ADD SWAP2 SWAP1 PUSH2 0x142C JUMP JUMPDEST SWAP3 SWAP1 PUSH2 0x14B3 SWAP1 PUSH2 0x2DC SWAP6 SWAP4 PUSH1 0x40 DUP7 MSTORE PUSH1 0x40 DUP7 ADD SWAP2 PUSH2 0x13F5 JUMP JUMPDEST SWAP3 PUSH1 0x20 DUP2 DUP6 SUB SWAP2 ADD MSTORE PUSH2 0x1415 JUMP JUMPDEST SWAP1 DUP2 PUSH2 0x120 MUL SWAP2 PUSH2 0x120 DUP4 DIV SUB PUSH2 0xB9D JUMPI JUMP JUMPDEST SWAP1 DUP2 PUSH1 0x1 SHL SWAP2 DUP1 DUP4 DIV PUSH1 0x2 EQ SWAP1 ISZERO OR ISZERO PUSH2 0xB9D JUMPI JUMP JUMPDEST SWAP1 PUSH1 0xA0 DUP3 MUL SWAP2 DUP1 DUP4 DIV PUSH1 0xA0 EQ SWAP1 ISZERO OR ISZERO PUSH2 0xB9D JUMPI JUMP JUMPDEST SWAP1 PUSH2 0x120 DUP3 MUL SWAP2 DUP1 DUP4 DIV PUSH2 0x120 EQ SWAP1 ISZERO OR ISZERO PUSH2 0xB9D JUMPI JUMP JUMPDEST PUSH1 0x1 DUP2 SWAP1 SHL SWAP2 SWAP1 PUSH1 0x1 PUSH1 0x1 PUSH1 0xFF SHL SUB DUP2 AND SUB PUSH2 0xB9D JUMPI JUMP JUMPDEST SWAP1 PUSH2 0x153A DUP3 PUSH2 0x270 JUMP JUMPDEST PUSH2 0x1547 PUSH1 0x40 MLOAD SWAP2 DUP3 PUSH2 0x24A JUMP JUMPDEST DUP3 DUP2 MSTORE DUP1 SWAP3 PUSH2 0x1558 PUSH1 0x1F NOT SWAP2 PUSH2 0x270 JUMP JUMPDEST ADD SWAP1 PUSH1 0x20 CALLDATASIZE SWAP2 ADD CALLDATACOPY JUMP JUMPDEST SWAP1 PUSH2 0x100 DUP3 ADD DUP1 SWAP3 GT PUSH2 0xB9D JUMPI JUMP JUMPDEST SWAP1 PUSH1 0x20 DUP3 ADD DUP1 SWAP3 GT PUSH2 0xB9D JUMPI JUMP JUMPDEST SWAP1 PUSH1 0x80 DUP3 ADD DUP1 SWAP3 GT PUSH2 0xB9D JUMPI JUMP JUMPDEST SWAP1 PUSH1 0x1 DUP3 ADD DUP1 SWAP3 GT PUSH2 0xB9D JUMPI JUMP JUMPDEST ISZERO PUSH2 0x15A2 JUMPI JUMP JUMPDEST PUSH1 0x40 MLOAD PUSH3 0x461BCD PUSH1 0xE5 SHL DUP2 MSTORE PUSH1 0x20 PUSH1 0x4 DUP3 ADD MSTORE PUSH1 0xD PUSH1 0x24 DUP3 ADD MSTORE PUSH13 0x10DA1958DAD2D95E4811985A5B PUSH1 0x9A SHL PUSH1 0x44 DUP3 ADD MSTORE PUSH1 0x64 SWAP1 REVERT JUMPDEST PUSH1 0x20 DUP2 MLOAD SWAP2 ADD MLOAD SWAP1 PUSH1 0x20 DUP2 LT PUSH2 0x15EB JUMPI POP SWAP1 JUMP JUMPDEST PUSH0 NOT SWAP1 PUSH1 0x20 SUB PUSH1 0x3 SHL SHL AND SWAP1 JUMP JUMPDEST PUSH0 DUP1 SWAP2 PUSH1 0x20 DUP2 MLOAD SWAP2 ADD PUSH1 0xC GAS STATICCALL POP PUSH2 0x2DC PUSH2 0x1370 JUMP JUMPDEST SWAP1 PUSH2 0x168A PUSH2 0x8B4 SWAP2 PUSH2 0x3EE PUSH0 SWAP7 DUP8 DUP1 DUP1 SWAP9 PUSH1 0x40 MLOAD PUSH2 0x1664 PUSH1 0x20 DUP3 PUSH2 0x1636 DUP3 DUP3 ADD DUP1 SWAP7 PUSH2 0x13B5 JUMP JUMPDEST PUSH32 0x73EDA753299D7D483339D80809A1D80553BDA402FFFE5BFEFFFFFFFF00000000 DUP2 MSTORE SUB DUP1 DUP5 MSTORE ADD DUP3 PUSH2 0x24A JUMP JUMPDEST MLOAD SWAP1 PUSH1 0xC GAS STATICCALL POP PUSH2 0x8B4 PUSH2 0x1676 PUSH2 0x1370 JUMP JUMPDEST PUSH1 0x40 MLOAD SWAP7 DUP8 SWAP6 PUSH2 0x8B4 PUSH1 0x20 DUP9 ADD DUP1 SWAP12 PUSH2 0x13B5 JUMP JUMPDEST MLOAD SWAP1 PUSH1 0xF GAS STATICCALL POP PUSH1 0x1 PUSH2 0x169E PUSH2 0x8D0 PUSH2 0x1370 JUMP JUMPDEST EQ SWAP1 JUMP JUMPDEST PUSH0 SWAP2 SWAP1 DUP3 SWAP2 PUSH2 0x16CC PUSH1 0x20 PUSH1 0x40 MLOAD DUP1 SWAP4 PUSH2 0x16BE DUP4 DUP4 ADD DUP1 SWAP8 PUSH2 0x13B5 JUMP JUMPDEST SWAP1 DUP2 MSTORE SUB DUP1 DUP5 MSTORE ADD DUP3 PUSH2 0x24A JUMP JUMPDEST MLOAD SWAP1 PUSH1 0xC GAS STATICCALL POP PUSH2 0x2DC PUSH2 0x1370 JUMP JUMPDEST ISZERO PUSH2 0x166 JUMPI JUMP JUMPDEST SWAP5 SWAP4 SWAP3 PUSH0 SWAP4 PUSH2 0x16FF PUSH2 0x170D SWAP4 PUSH1 0x40 SWAP6 PUSH1 0x60 DUP11 MSTORE PUSH1 0x60 DUP11 ADD SWAP2 PUSH2 0x1415 JUMP JUMPDEST SWAP2 DUP8 DUP4 SUB PUSH1 0x20 DUP10 ADD MSTORE PUSH2 0x1415 JUMP JUMPDEST SWAP4 ADD MSTORE JUMP JUMPDEST SWAP5 SWAP4 SWAP3 PUSH1 0x1 SWAP4 PUSH2 0x16FF PUSH2 0x170D SWAP4 PUSH1 0x40 SWAP6 PUSH1 0x60 DUP11 MSTORE PUSH1 0x60 DUP11 ADD SWAP2 PUSH2 0x1415 JUMP JUMPDEST ISZERO PUSH2 0x1737 JUMPI JUMP JUMPDEST PUSH1 0x40 MLOAD PUSH3 0x461BCD PUSH1 0xE5 SHL DUP2 MSTORE PUSH1 0x20 PUSH1 0x4 DUP3 ADD MSTORE PUSH1 0xA PUSH1 0x24 DUP3 ADD MSTORE PUSH10 0x3130B2102398903632B7 PUSH1 0xB1 SHL PUSH1 0x44 DUP3 ADD MSTORE PUSH1 0x64 SWAP1 REVERT JUMPDEST PUSH1 0x40 MLOAD SWAP1 PUSH2 0x1779 PUSH2 0x120 DUP4 PUSH2 0x24A JUMP JUMPDEST PUSH2 0x100 DUP3 MSTORE PUSH32 0xCB3E287E85A763AF267492AB572E99AB3F370D275CEC1DA1AAA9075FF05F79BE PUSH2 0x100 DUP4 PUSH16 0x24AA2B2F08F0A91260805272DC51051 PUSH1 0x20 DUP3 ADD MSTORE PUSH32 0xC6E47AD4FA403B02B4510B647AE3D1770BAC0326A805BBEFD48056C8C121BDB8 PUSH1 0x40 DUP3 ADD MSTORE PUSH16 0x13E02B6052719F607DACD3A088274F65 PUSH1 0x60 DUP3 ADD MSTORE PUSH32 0x596BD0D09920B61AB5DA61BBDC7F5049334CF11213945D57E5AC7D055D042B7E PUSH1 0x80 DUP3 ADD MSTORE PUSH16 0xCE5D527727D6E118CC9CDC6DA2E351A PUSH1 0xA0 DUP3 ADD MSTORE PUSH32 0xADFD9BAA8CBDD3A76D429A695160D12C923AC9CC3BACA289E193548608B82801 PUSH1 0xC0 DUP3 ADD MSTORE PUSH16 0x606C4A02EA734CC32ACD2B02BC28B99 PUSH1 0xE0 DUP3 ADD MSTORE ADD MSTORE JUMP JUMPDEST ISZERO PUSH2 0x1878 JUMPI JUMP JUMPDEST PUSH1 0x40 MLOAD PUSH3 0x461BCD PUSH1 0xE5 SHL DUP2 MSTORE PUSH1 0x20 PUSH1 0x4 DUP3 ADD MSTORE PUSH1 0xF PUSH1 0x24 DUP3 ADD MSTORE PUSH15 0x10DA1958DACC8B4C4811985A5B1959 PUSH1 0x8A SHL PUSH1 0x44 DUP3 ADD MSTORE PUSH1 0x64 SWAP1 REVERT JUMPDEST ISZERO PUSH2 0x18B6 JUMPI JUMP JUMPDEST PUSH1 0x40 MLOAD PUSH3 0x461BCD PUSH1 0xE5 SHL DUP2 MSTORE PUSH1 0x20 PUSH1 0x4 DUP3 ADD MSTORE PUSH1 0xF PUSH1 0x24 DUP3 ADD MSTORE PUSH15 0x10DA1958DACC8B4C8811985A5B1959 PUSH1 0x8A SHL PUSH1 0x44 DUP3 ADD MSTORE PUSH1 0x64 SWAP1 REVERT JUMPDEST ISZERO PUSH2 0x18F4 JUMPI JUMP JUMPDEST PUSH1 0x40 MLOAD PUSH3 0x461BCD PUSH1 0xE5 SHL DUP2 MSTORE PUSH1 0x20 PUSH1 0x4 DUP3 ADD MSTORE PUSH1 0xD PUSH1 0x24 DUP3 ADD MSTORE PUSH13 0x10DA1958DACCC811985A5B1959 PUSH1 0x9A SHL PUSH1 0x44 DUP3 ADD MSTORE PUSH1 0x64 SWAP1 REVERT JUMPDEST PUSH1 0x1F DUP3 GT PUSH2 0x1936 JUMPI POP POP POP JUMP JUMPDEST PUSH0 MSTORE PUSH1 0x20 PUSH0 KECCAK256 SWAP1 PUSH1 0x20 PUSH1 0x1F DUP5 ADD PUSH1 0x5 SHR DUP4 ADD SWAP4 LT PUSH2 0x196E JUMPI JUMPDEST PUSH1 0x1F ADD PUSH1 0x5 SHR ADD SWAP1 JUMPDEST DUP2 DUP2 LT PUSH2 0x1963 JUMPI POP POP JUMP JUMPDEST PUSH0 DUP2 SSTORE PUSH1 0x1 ADD PUSH2 0x1958 JUMP JUMPDEST SWAP1 SWAP2 POP DUP2 SWAP1 PUSH2 0x194F JUMP JUMPDEST SWAP2 SWAP1 PUSH1 0x1 PUSH1 0x1 PUSH1 0x40 SHL SUB DUP2 GT PUSH2 0x26B JUMPI PUSH2 0x199C DUP2 PUSH2 0x1996 PUSH0 SLOAD PUSH2 0x61D JUMP JUMPDEST PUSH0 PUSH2 0x1929 JUMP JUMPDEST PUSH0 PUSH1 0x1F DUP3 GT PUSH1 0x1 EQ PUSH2 0x19D9 JUMPI DUP2 SWAP1 PUSH2 0x19CA SWAP4 SWAP5 PUSH0 SWAP3 PUSH2 0x19CE JUMPI JUMPDEST POP POP DUP2 PUSH1 0x1 SHL SWAP2 PUSH0 NOT SWAP1 PUSH1 0x3 SHL SHR NOT AND OR SWAP1 JUMP JUMPDEST PUSH0 SSTORE JUMP JUMPDEST ADD CALLDATALOAD SWAP1 POP PUSH0 DUP1 PUSH2 0x19B6 JUMP JUMPDEST PUSH0 DUP1 MSTORE PUSH1 0x1F NOT DUP3 AND SWAP4 PUSH32 0x290DECD9548B62A8D60345A988386FC84BA6BC95484008F6362F93160EF3E563 SWAP2 PUSH0 JUMPDEST DUP7 DUP2 LT PUSH2 0x1A3C JUMPI POP DUP4 PUSH1 0x1 SWAP6 SWAP7 LT PUSH2 0x1A23 JUMPI JUMPDEST POP POP POP DUP2 SHL ADD PUSH0 SSTORE JUMP JUMPDEST ADD CALLDATALOAD PUSH0 NOT PUSH1 0x3 DUP5 SWAP1 SHL PUSH1 0xF8 AND SHR NOT AND SWAP1 SSTORE PUSH0 DUP1 DUP1 PUSH2 0x1A19 JUMP JUMPDEST SWAP1 SWAP3 PUSH1 0x20 PUSH1 0x1 DUP2 SWAP3 DUP7 DUP7 ADD CALLDATALOAD DUP2 SSTORE ADD SWAP5 ADD SWAP2 ADD PUSH2 0x1A06 JUMP JUMPDEST SWAP1 SWAP3 SWAP2 PUSH1 0x1 PUSH1 0x1 PUSH1 0x40 SHL SUB DUP2 GT PUSH2 0x26B JUMPI PUSH2 0x1A79 DUP2 PUSH2 0x1A73 DUP5 SLOAD PUSH2 0x61D JUMP JUMPDEST DUP5 PUSH2 0x1929 JUMP JUMPDEST PUSH0 PUSH1 0x1F DUP3 GT PUSH1 0x1 EQ PUSH2 0x1AAB JUMPI DUP2 SWAP1 PUSH2 0x1AA7 SWAP4 SWAP5 SWAP6 PUSH0 SWAP3 PUSH2 0x19CE JUMPI POP POP DUP2 PUSH1 0x1 SHL SWAP2 PUSH0 NOT SWAP1 PUSH1 0x3 SHL SHR NOT AND OR SWAP1 JUMP JUMPDEST SWAP1 SSTORE JUMP JUMPDEST PUSH1 0x1F NOT DUP3 AND SWAP5 PUSH2 0x1ABE DUP5 PUSH0 MSTORE PUSH1 0x20 PUSH0 KECCAK256 SWAP1 JUMP JUMPDEST SWAP2 PUSH0 JUMPDEST DUP8 DUP2 LT PUSH2 0x1AF8 JUMPI POP DUP4 PUSH1 0x1 SWAP6 SWAP7 SWAP8 LT PUSH2 0x1ADF JUMPI JUMPDEST POP POP POP DUP2 SHL ADD SWAP1 SSTORE JUMP JUMPDEST ADD CALLDATALOAD PUSH0 NOT PUSH1 0x3 DUP5 SWAP1 SHL PUSH1 0xF8 AND SHR NOT AND SWAP1 SSTORE PUSH0 DUP1 DUP1 PUSH2 0x1AD5 JUMP JUMPDEST SWAP1 SWAP3 PUSH1 0x20 PUSH1 0x1 DUP2 SWAP3 DUP7 DUP7 ADD CALLDATALOAD DUP2 SSTORE ADD SWAP5 ADD SWAP2 ADD PUSH2 0x1AC1 JUMP JUMPDEST SWAP3 SWAP1 PUSH2 0x14B3 SWAP1 PUSH2 0x2DC SWAP6 SWAP4 PUSH1 0x40 DUP7 MSTORE PUSH1 0x40 DUP7 ADD SWAP2 PUSH2 0x1415 JUMP JUMPDEST SWAP1 DUP2 MLOAD DUP2 LT ISZERO PUSH2 0x600 JUMPI ADD PUSH1 0x20 ADD SWAP1 JUMP JUMPDEST SWAP1 DUP3 LT ISZERO PUSH2 0x600 JUMPI ADD SWAP1 JUMP JUMPDEST SWAP6 SWAP2 SWAP6 SWAP5 SWAP3 SWAP5 PUSH2 0x1B59 DUP7 PUSH2 0xC74 DUP5 PUSH2 0x14D4 JUMP JUMPDEST PUSH2 0x1B75 PUSH1 0x40 MLOAD PUSH1 0x20 DUP2 ADD SWAP1 PUSH2 0x3FC DUP2 PUSH2 0x3EE DUP12 DUP14 DUP10 DUP10 DUP9 PUSH2 0x16E2 JUMP JUMPDEST SWAP5 PUSH2 0x1B92 DUP9 PUSH1 0x40 MLOAD PUSH2 0x3FC DUP2 PUSH2 0x3EE DUP13 PUSH1 0x20 DUP4 ADD SWAP6 DUP11 DUP11 DUP9 PUSH2 0x1712 JUMP JUMPDEST SWAP1 PUSH1 0x1 SWAP5 PUSH2 0x1BA2 PUSH2 0x427 DUP7 PUSH2 0x14EA JUMP JUMPDEST SWAP10 PUSH2 0x1BB2 PUSH2 0x427 PUSH2 0xCD3 DUP13 PUSH2 0x108D JUMP JUMPDEST PUSH2 0x1BC1 PUSH2 0x427 PUSH2 0xCE8 DUP10 PUSH2 0x107F JUMP JUMPDEST SWAP11 PUSH2 0x1BD1 PUSH2 0x427 PUSH2 0xCD3 DUP4 PUSH2 0x109C JUMP JUMPDEST SWAP5 PUSH0 SWAP11 PUSH0 SWAP12 JUMPDEST PUSH2 0x1BE0 DUP12 PUSH2 0x107F JUMP JUMPDEST DUP14 GT PUSH2 0x1C34 JUMPI DUP16 DUP15 PUSH2 0x1C25 DUP16 SWAP3 DUP16 DUP16 SWAP1 DUP16 DUP8 PUSH2 0xD62 PUSH2 0x1C2D SWAP10 DUP7 PUSH2 0xD5C DUP12 DUP9 DUP8 PUSH2 0xD57 PUSH0 MLOAD PUSH1 0x20 PUSH2 0x20E1 PUSH0 CODECOPY PUSH0 MLOAD SWAP1 PUSH0 MSTORE SWAP16 PUSH2 0xD4F PUSH1 0x80 SWAP2 PUSH2 0x4AE SWAP15 PUSH2 0xD67 SWAP14 PUSH2 0x1132 JUMP JUMPDEST SWAP14 MULMOD SWAP13 PUSH2 0x1071 JUMP JUMPDEST SWAP12 SWAP11 PUSH2 0x1BD7 JUMP JUMPDEST POP SWAP4 SWAP11 POP SWAP4 SWAP7 SWAP11 SWAP5 SWAP12 SWAP2 SWAP9 POP SWAP7 SWAP5 SWAP12 PUSH2 0x1C4C SWAP1 PUSH2 0x15F9 JUMP JUMPDEST PUSH0 SWAP11 DUP14 SWAP8 DUP13 JUMPDEST DUP14 PUSH2 0x1C62 PUSH2 0xDA8 PUSH2 0xDA8 DUP13 PUSH2 0x1518 JUMP JUMPDEST LT PUSH2 0x1CEB JUMPI DUP16 SWAP1 DUP13 SWAP1 DUP16 DUP16 DUP15 SWAP1 PUSH2 0x1C78 DUP15 PUSH2 0x107F JUMP JUMPDEST DUP4 EQ DUP1 ISZERO PUSH2 0x1CE2 JUMPI JUMPDEST PUSH2 0x1CC2 JUMPI DUP15 PUSH2 0xD67 DUP6 PUSH2 0x49E PUSH2 0x1CBB SWAP10 SWAP8 DUP10 PUSH2 0x498 PUSH2 0x1CB3 SWAP10 PUSH0 MLOAD PUSH1 0x20 PUSH2 0x20E1 PUSH0 CODECOPY PUSH0 MLOAD SWAP1 PUSH0 MSTORE SWAP13 SWAP10 PUSH2 0x4AE SWAP10 PUSH2 0x1132 JUMP JUMPDEST SWAP12 MULMOD SWAP14 PUSH2 0x1071 JUMP JUMPDEST SWAP13 SWAP9 PUSH2 0x1C52 JUMP JUMPDEST POP POP POP SWAP11 PUSH0 MLOAD PUSH1 0x20 PUSH2 0x20E1 PUSH0 CODECOPY PUSH0 MLOAD SWAP1 PUSH0 MSTORE SWAP2 POP SWAP2 PUSH2 0x1CBB SWAP3 MULMOD SWAP14 PUSH2 0x1071 JUMP JUMPDEST POP DUP14 DUP4 EQ PUSH2 0x1C81 JUMP JUMPDEST POP SWAP7 SWAP9 SWAP6 SWAP14 SWAP5 SWAP13 SWAP3 SWAP11 SWAP4 SWAP10 PUSH2 0x1D07 SWAP3 SWAP13 POP PUSH2 0xE4C SWAP2 SWAP9 POP PUSH2 0x139F JUMP JUMPDEST SWAP4 PUSH0 SWAP11 DUP14 SWAP10 PUSH0 SWAP13 JUMPDEST DUP14 PUSH2 0x1D1C PUSH2 0xDA8 DUP14 PUSH2 0x107F JUMP JUMPDEST LT PUSH2 0x1D63 JUMPI DUP16 PUSH0 MLOAD PUSH1 0x20 PUSH2 0x20E1 PUSH0 CODECOPY PUSH0 MLOAD SWAP1 PUSH0 MSTORE SWAP1 DUP16 DUP16 DUP16 DUP16 SWAP1 DUP16 DUP8 PUSH2 0xD62 PUSH2 0x1D5C SWAP10 DUP7 PUSH2 0xD5C PUSH2 0x1D54 SWAP10 PUSH2 0x4AE SWAP9 PUSH2 0xD67 SWAP8 PUSH2 0x1132 JUMP JUMPDEST SWAP14 MULMOD SWAP14 PUSH2 0x1071 JUMP JUMPDEST SWAP13 SWAP11 PUSH2 0x1D0F JUMP JUMPDEST POP SWAP5 SWAP12 POP SWAP10 PUSH2 0xEC4 SWAP2 SWAP8 SWAP7 SWAP14 POP PUSH2 0x1D7F SWAP3 SWAP9 SWAP6 SWAP13 SWAP4 SWAP10 POP PUSH2 0x15F9 JUMP JUMPDEST PUSH0 SWAP9 PUSH1 0x1 SWAP6 SWAP2 DUP11 JUMPDEST PUSH2 0x1D93 PUSH2 0xDA8 DUP9 PUSH2 0x1518 JUMP JUMPDEST DUP13 GT PUSH2 0x1E13 JUMPI DUP10 DUP14 SWAP2 DUP14 DUP12 DUP15 DUP12 DUP4 EQ DUP1 ISZERO PUSH2 0x1E02 JUMPI JUMPDEST PUSH2 0x1DE2 JUMPI DUP13 PUSH2 0xD67 DUP6 PUSH2 0x49E PUSH2 0x1DDB SWAP10 SWAP8 DUP10 PUSH2 0x498 PUSH2 0xF2E SWAP10 PUSH0 MLOAD PUSH1 0x20 PUSH2 0x20E1 PUSH0 CODECOPY PUSH0 MLOAD SWAP1 PUSH0 MSTORE SWAP13 SWAP10 PUSH2 0x4AE SWAP10 PUSH2 0x1132 JUMP JUMPDEST SWAP11 SWAP7 PUSH2 0x1D87 JUMP JUMPDEST POP POP POP SWAP9 PUSH0 MLOAD PUSH1 0x20 PUSH2 0x20E1 PUSH0 CODECOPY PUSH0 MLOAD SWAP1 PUSH0 MSTORE SWAP2 POP SWAP2 PUSH2 0x1DDB SWAP3 MULMOD SWAP12 PUSH2 0x1071 JUMP JUMPDEST POP PUSH2 0x1E0C DUP13 PUSH2 0x158D JUMP JUMPDEST DUP4 EQ PUSH2 0x1DA9 JUMP JUMPDEST POP PUSH2 0x1EBD SWAP10 SWAP4 SWAP12 POP PUSH2 0x1EC8 SWAP11 POP PUSH2 0x1EB1 SWAP7 POP SWAP7 PUSH2 0x1E47 PUSH2 0xFE6 PUSH2 0x3FC SWAP4 PUSH2 0x1EAB SWAP8 SWAP16 SWAP11 PUSH2 0x1EB8 SWAP12 PUSH2 0xFD6 PUSH2 0x3EE SWAP9 SWAP15 PUSH2 0x139F JUMP JUMPDEST PUSH2 0x1E79 PUSH2 0x1032 DUP6 DUP12 PUSH2 0x101A PUSH2 0xFD6 DUP12 PUSH2 0x5B5 DUP2 PUSH2 0x102A PUSH2 0x1020 PUSH2 0x1E68 PUSH2 0x11B2 JUMP JUMPDEST SWAP9 DUP13 PUSH2 0x1012 PUSH2 0x100A PUSH2 0x1003 DUP8 PUSH2 0x158D JUMP JUMPDEST PUSH2 0x1E8B PUSH1 0x1 PUSH2 0x1049 PUSH2 0x964 DUP10 DUP14 PUSH2 0x10B8 JUMP JUMPDEST PUSH2 0x1E98 PUSH2 0x1057 DUP8 DUP12 PUSH2 0x10B8 JUMP JUMPDEST PUSH1 0x40 MLOAD SWAP3 DUP4 SWAP2 PUSH1 0x20 DUP4 ADD SWAP6 DUP9 DUP13 DUP9 PUSH2 0x1B10 JUMP JUMPDEST SWAP4 PUSH2 0x10B8 JUMP JUMPDEST CALLDATASIZE SWAP2 PUSH2 0x28B JUMP JUMPDEST PUSH2 0x16A2 JUMP JUMPDEST PUSH2 0x3BA CALLDATASIZE DUP6 DUP6 PUSH2 0x28B JUMP JUMPDEST SWAP2 PUSH0 JUMPDEST PUSH1 0x80 DUP2 LT PUSH2 0x1EDC JUMPI POP POP POP POP PUSH1 0x1 SWAP1 JUMP JUMPDEST PUSH2 0x1EF7 PUSH2 0x1EE9 DUP3 DUP7 PUSH2 0x1B29 JUMP JUMPDEST MLOAD PUSH1 0x1 PUSH1 0x1 PUSH1 0xF8 SHL SUB NOT AND SWAP1 JUMP JUMPDEST PUSH2 0x1F23 PUSH2 0x1F16 PUSH2 0x1F08 DUP5 DUP7 DUP9 PUSH2 0x1B3A JUMP JUMPDEST CALLDATALOAD PUSH1 0x1 PUSH1 0x1 PUSH1 0xF8 SHL SUB NOT AND SWAP1 JUMP JUMPDEST PUSH1 0x1 PUSH1 0x1 PUSH1 0xF8 SHL SUB NOT AND SWAP1 JUMP JUMPDEST PUSH1 0x1 PUSH1 0x1 PUSH1 0xF8 SHL SUB NOT SWAP1 SWAP2 AND SUB PUSH2 0x1F3C JUMPI PUSH1 0x1 ADD PUSH2 0x1ECB JUMP JUMPDEST POP POP POP POP PUSH0 SWAP1 JUMP JUMPDEST PUSH0 SWAP2 SWAP1 PUSH2 0x3EE PUSH2 0x1F63 DUP5 SWAP4 PUSH1 0x40 MLOAD SWAP3 DUP4 SWAP2 PUSH2 0x8B4 PUSH1 0x20 DUP5 ADD DUP1 SWAP8 PUSH2 0x13B5 JUMP JUMPDEST MLOAD SWAP1 PUSH1 0xD GAS STATICCALL POP PUSH2 0x2DC PUSH2 0x1370 JUMP JUMPDEST SWAP1 PUSH1 0x2 SLOAD SWAP2 PUSH1 0x1 PUSH1 0x40 SHL DUP4 LT ISZERO PUSH2 0x26B JUMPI PUSH1 0x1 DUP4 ADD PUSH1 0x2 SSTORE PUSH1 0x2 SLOAD DUP4 LT ISZERO PUSH2 0x600 JUMPI PUSH1 0x2 PUSH0 MSTORE PUSH2 0x68B SWAP3 PUSH32 0x405787FA12A823E0F2B7631CC41B3BA8828B3321CA811111FA75CD3AA3BB5ACE ADD PUSH2 0x1A54 JUMP JUMPDEST SWAP1 PUSH1 0x3 SLOAD SWAP2 PUSH1 0x1 PUSH1 0x40 SHL DUP4 LT ISZERO PUSH2 0x26B JUMPI PUSH1 0x1 DUP4 ADD PUSH1 0x3 SSTORE PUSH1 0x3 SLOAD DUP4 LT ISZERO PUSH2 0x600 JUMPI PUSH1 0x3 PUSH0 MSTORE PUSH2 0x68B SWAP3 PUSH32 0xC2575A0E9E593C00F959F8C92F12DB2869C3395A3B0502D05E2516446F71F85B ADD PUSH2 0x1A54 JUMP JUMPDEST ISZERO PUSH2 0x201B JUMPI JUMP JUMPDEST PUSH1 0x40 MLOAD PUSH3 0x461BCD PUSH1 0xE5 SHL DUP2 MSTORE PUSH1 0x20 PUSH1 0x4 DUP3 ADD MSTORE PUSH1 0xD PUSH1 0x24 DUP3 ADD MSTORE PUSH13 0x10DA1958DACC4811985A5B1959 PUSH1 0x9A SHL PUSH1 0x44 DUP3 ADD MSTORE PUSH1 0x64 SWAP1 REVERT JUMPDEST SWAP1 PUSH2 0x100 SWAP3 PUSH1 0x20 SWAP2 ADD ADD CALLDATACOPY JUMP JUMPDEST SWAP1 PUSH1 0x80 SWAP3 PUSH1 0x20 SWAP2 ADD ADD CALLDATACOPY JUMP JUMPDEST SWAP2 SWAP1 SWAP2 DUP1 SLOAD PUSH1 0x1 DUP2 AND ISZERO PUSH2 0x166 JUMPI PUSH2 0x100 SWAP1 PUSH0 NOT ADD PUSH1 0x1 SHR SUB PUSH2 0x166 JUMPI PUSH2 0x100 SWAP2 PUSH1 0x7 SWAP2 PUSH0 MSTORE PUSH1 0x20 PUSH0 KECCAK256 SWAP4 ADD SWAP3 DUP1 SLOAD PUSH1 0x20 DUP6 ADD MSTORE PUSH1 0x1 DUP2 ADD SLOAD PUSH1 0x40 DUP6 ADD MSTORE PUSH1 0x2 DUP2 ADD SLOAD PUSH1 0x60 DUP6 ADD MSTORE PUSH1 0x3 DUP2 ADD SLOAD PUSH1 0x80 DUP6 ADD MSTORE PUSH1 0x4 DUP2 ADD SLOAD PUSH1 0xA0 DUP6 ADD MSTORE PUSH1 0x5 DUP2 ADD SLOAD PUSH1 0xC0 DUP6 ADD MSTORE PUSH1 0x6 DUP2 ADD SLOAD PUSH1 0xE0 DUP6 ADD MSTORE ADD SLOAD SWAP2 ADD MSTORE JUMP INVALID PUSH20 0xEDA753299D7D483339D80809A1D80553BDA402FF INVALID JUMPDEST INVALID SELFDESTRUCT SELFDESTRUCT SELFDESTRUCT SELFDESTRUCT STOP STOP STOP ADD LOG2 PUSH5 0x6970667358 0x22 SLT KECCAK256 RETURNDATASIZE SWAP3 0x4B DUP5 PUSH22 0x1171B08A229D3D1A4903E71B1BE867E3F9DF6B99C1B6 0xC3 REVERT 0x21 0x2F ADDRESS PUSH5 0x736F6C6343 STOP ADDMOD 0x1F STOP CALLER 0x29 0xD EOFCREATE 0xD9 SLOAD DUP12 PUSH3 0xA8D603 GASLIMIT 0xA9 DUP9 CODESIZE PUSH16 0xC84BA6BC95484008F6362F93160EF3E5 PUSH4 0x0 "
				},
				"gasEstimates": {
					"creation": {
						"codeDepositCost": "1700400",
						"executionCost": "infinite",
						"totalCost": "infinite"
					},
					"external": {
						"Check(bytes[],bytes[],bytes)": "infinite",
						"CheckKey(bytes,bytes[],uint256)": "infinite",
						"CheckKeyDBE(bytes,bytes[],uint256)": "infinite",
						"CheckTest(bytes[],bytes[],bytes,uint256)": "infinite",
						"EqualPairingCheck(bytes,bytes,bytes,bytes)": "infinite",
						"G1Add(bytes,bytes)": "infinite",
						"G1Mul(bytes,uint256)": "infinite",
						"G1Muls(bytes)": "infinite",
						"G2Add(bytes,bytes)": "infinite",
						"G2Mul(bytes,uint256)": "infinite",
						"G2Muls(bytes)": "infinite",
						"Pairing(bytes,bytes,bytes,bytes)": "infinite",
						"SetPP(bytes[],bytes[])": "infinite",
						"ZeroCheck(bytes)": "656",
						"lastg()": "infinite",
						"ppg1s(uint256)": "infinite",
						"ppg2s(uint256)": "infinite",
						"w()": "2294"
					},
					"internal": {
						"CopyBytes(bytes calldata,uint256,bytes memory,uint256,uint256)": "infinite",
						"CopyStorageBytes256(bytes storage pointer,bytes memory,uint256)": "infinite",
						"CopyUint(uint256,bytes memory,uint256)": "infinite"
					}
				},
				"methodIdentifiers": {
					"Check(bytes[],bytes[],bytes)": "e86d06c7",
					"CheckKey(bytes,bytes[],uint256)": "51e54308",
					"CheckKeyDBE(bytes,bytes[],uint256)": "06325239",
					"CheckTest(bytes[],bytes[],bytes,uint256)": "c588e555",
					"EqualPairingCheck(bytes,bytes,bytes,bytes)": "6f18b669",
					"G1Add(bytes,bytes)": "4d919405",
					"G1Mul(bytes,uint256)": "c1f2c915",
					"G1Muls(bytes)": "6592041a",
					"G2Add(bytes,bytes)": "d6385d60",
					"G2Mul(bytes,uint256)": "af1d0bd9",
					"G2Muls(bytes)": "3f009c16",
					"Pairing(bytes,bytes,bytes,bytes)": "5cdc73ef",
					"SetPP(bytes[],bytes[])": "e63c1828",
					"ZeroCheck(bytes)": "a66339b7",
					"lastg()": "8a2ba01c",
					"ppg1s(uint256)": "54b57f70",
					"ppg2s(uint256)": "e6859b9a",
					"w()": "205c9cc7"
				}
			},
			"storageLayout": {
				"storage": [
					{
						"astId": 16,
						"contract": "Verfiy.sol:Verify",
						"label": "lastg",
						"offset": 0,
						"slot": "0",
						"type": "t_bytes_storage"
					},
					{
						"astId": 1042,
						"contract": "Verfiy.sol:Verify",
						"label": "w",
						"offset": 0,
						"slot": "1",
						"type": "t_bool"
					},
					{
						"astId": 1045,
						"contract": "Verfiy.sol:Verify",
						"label": "ppg1s",
						"offset": 0,
						"slot": "2",
						"type": "t_array(t_bytes_storage)dyn_storage"
					},
					{
						"astId": 1048,
						"contract": "Verfiy.sol:Verify",
						"label": "ppg2s",
						"offset": 0,
						"slot": "3",
						"type": "t_array(t_bytes_storage)dyn_storage"
					}
				],
				"types": {
					"t_array(t_bytes_storage)dyn_storage": {
						"base": "t_bytes_storage",
						"encoding": "dynamic_array",
						"label": "bytes[]",
						"numberOfBytes": "32"
					},
					"t_bool": {
						"encoding": "inplace",
						"label": "bool",
						"numberOfBytes": "1"
					},
					"t_bytes_storage": {
						"encoding": "bytes",
						"label": "bytes",
						"numberOfBytes": "32"
					}
				}
			},
			"userdoc": {
				"kind": "user",
				"methods": {},
				"version": 1
			}
		}
	}
}