{
	"BLS12381.sol": {
		"BLS12381G2": {
			"abi": [
				{
					"inputs": [
						{
							"internalType": "bytes",
							"name": "p1",
							"type": "bytes"
						},
						{
							"internalType": "bytes",
							"name": "p2",
							"type": "bytes"
						}
					],
					"name": "G1Add",
					"outputs": [
						{
							"internalType": "bytes",
							"name": "point",
							"type": "bytes"
						}
					],
					"stateMutability": "view",
					"type": "function"
				},
				{
					"inputs": [
						{
							"internalType": "bytes",
							"name": "p1",
							"type": "bytes"
						},
						{
							"internalType": "uint256",
							"name": "scalar",
							"type": "uint256"
						}
					],
					"name": "G1Mul",
					"outputs": [
						{
							"internalType": "bytes",
							"name": "point",
							"type": "bytes"
						}
					],
					"stateMutability": "view",
					"type": "function"
				},
				{
					"inputs": [
						{
							"internalType": "bytes",
							"name": "d",
							"type": "bytes"
						}
					],
					"name": "G1Muls",
					"outputs": [
						{
							"internalType": "bytes",
							"name": "point",
							"type": "bytes"
						}
					],
					"stateMutability": "view",
					"type": "function"
				},
				{
					"inputs": [
						{
							"internalType": "bytes",
							"name": "p1",
							"type": "bytes"
						},
						{
							"internalType": "bytes",
							"name": "p2",
							"type": "bytes"
						}
					],
					"name": "G2Add",
					"outputs": [
						{
							"internalType": "bytes",
							"name": "point",
							"type": "bytes"
						}
					],
					"stateMutability": "view",
					"type": "function"
				},
				{
					"inputs": [
						{
							"internalType": "bytes",
							"name": "p1",
							"type": "bytes"
						},
						{
							"internalType": "uint256",
							"name": "scalar",
							"type": "uint256"
						}
					],
					"name": "G2Mul",
					"outputs": [
						{
							"internalType": "bytes",
							"name": "point",
							"type": "bytes"
						}
					],
					"stateMutability": "view",
					"type": "function"
				},
				{
					"inputs": [
						{
							"internalType": "bytes",
							"name": "d",
							"type": "bytes"
						}
					],
					"name": "G2Muls",
					"outputs": [
						{
							"internalType": "bytes",
							"name": "point",
							"type": "bytes"
						}
					],
					"stateMutability": "view",
					"type": "function"
				},
				{
					"inputs": [
						{
							"internalType": "bytes",
							"name": "p1",
							"type": "bytes"
						},
						{
							"internalType": "bytes",
							"name": "p2",
							"type": "bytes"
						},
						{
							"internalType": "bytes",
							"name": "p3",
							"type": "bytes"
						},
						{
							"internalType": "bytes",
							"name": "p4",
							"type": "bytes"
						}
					],
					"name": "Pairing",
					"outputs": [
						{
							"internalType": "bool",
							"name": "",
							"type": "bool"
						}
					],
					"stateMutability": "view",
					"type": "function"
				}
			],
			"devdoc": {
				"kind": "dev",
				"methods": {},
				"version": 1
			},
			"evm": {
				"assembly": "    /* \"BLS12381.sol\":61:1827  library BLS12381G2 {... */\n  0x80\n  dup1\n  0x40\n  mstore\n  jumpi(tag_1, callvalue)\n  dataSize(sub_0)\n  swap1\n  dup2\n  dataOffset(sub_0)\n  dup3\n  codecopy\n  address\n  dup2\n  assignImmutable(\"0xcd5a02d485074f67d63783a7acdae578618045c23ccf47fa4e3f1a01c11714ad\")\n  return\ntag_1:\n  0x00\n  dup1\n  revert\nstop\n\nsub_0: assembly {\n        /* \"BLS12381.sol\":61:1827  library BLS12381G2 {... */\n      0x80\n      dup1\n      0x40\n      mstore\n      jumpi(tag_7, iszero(lt(calldatasize, 0x04)))\n      0x00\n      dup1\n      revert\n    tag_7:\n      shr(0xe0, calldataload(0x00))\n      swap1\n      dup2\n      0x3f009c16\n      eq\n      tag_9\n      jumpi\n      pop\n      dup1\n      0x4d919405\n      eq\n      tag_11\n      jumpi\n      dup1\n      0x5cdc73ef\n      eq\n      tag_13\n      jumpi\n      dup1\n      0x6592041a\n      eq\n      tag_15\n      jumpi\n      dup1\n      0xaf1d0bd9\n      eq\n      tag_17\n      jumpi\n      dup1\n      0xc1f2c915\n      eq\n      tag_19\n      jumpi\n      0xd6385d60\n      eq\n      tag_21\n      jumpi\n      0x00\n      dup1\n      revert\n    tag_21:\n      0x00\n      dup1\n        /* \"BLS12381.sol\":935:959  abi.encodePacked(p1, p2) */\n      0x20\n      tag_23\n        /* \"BLS12381.sol\":61:1827  library BLS12381G2 {... */\n      tag_24\n      calldatasize\n      tag_3\n      jump\t// in\n    tag_24:\n      dup1\n      swap5\n      swap4\n      swap6\n      swap2\n      mload(0x40)\n        /* \"BLS12381.sol\":935:959  abi.encodePacked(p1, p2) */\n      swap6\n      dup5\n      dup8\n      swap6\n      dup6\n      dup8\n      add\n        /* \"BLS12381.sol\":61:1827  library BLS12381G2 {... */\n      swap10\n      dup11\n      calldatacopy\n      dup6\n      add\n      swap2\n      dup5\n      dup4\n      add\n      dup11\n      dup2\n      mstore\n      calldatacopy\n      add\n      add\n      dup6\n      dup2\n      mstore\n        /* \"BLS12381.sol\":935:959  abi.encodePacked(p1, p2) */\n      sub\n        /* \"BLS12381.sol\":230:254  abi.encodePacked(p1, p2) */\n      not(0x1f)\n        /* \"BLS12381.sol\":935:959  abi.encodePacked(p1, p2) */\n      dup2\n      add\n      dup4\n      mstore\n      dup3\n      tag_5\n      jump\t// in\n    tag_23:\n        /* \"BLS12381.sol\":1000:1031  address(0x0d).staticcall(input) */\n      mload\n      swap1\n        /* \"BLS12381.sol\":1008:1012  0x0d */\n      0x0d\n        /* \"BLS12381.sol\":1000:1031  address(0x0d).staticcall(input) */\n      gas\n      staticcall\n      pop\n        /* \"BLS12381.sol\":61:1827  library BLS12381G2 {... */\n      tag_25\n        /* \"BLS12381.sol\":1000:1031  address(0x0d).staticcall(input) */\n      tag_26\n      tag_6\n      jump\t// in\n    tag_26:\n        /* \"BLS12381.sol\":61:1827  library BLS12381G2 {... */\n      mload(0x40)\n      swap2\n      dup3\n      swap2\n      dup3\n      tag_2\n      jump\t// in\n    tag_25:\n      sub\n      swap1\n      return\n    tag_19:\n      0x00\n      dup1\n        /* \"BLS12381.sol\":481:509  abi.encodePacked(p1, scalar) */\n      0x20\n        /* \"BLS12381.sol\":61:1827  library BLS12381G2 {... */\n      dup1\n        /* \"BLS12381.sol\":481:509  abi.encodePacked(p1, scalar) */\n      tag_27\n        /* \"BLS12381.sol\":61:1827  library BLS12381G2 {... */\n      tag_28\n      calldatasize\n      tag_4\n      jump\t// in\n    tag_28:\n      swap4\n      swap2\n      swap5\n      swap1\n      mload(0x40)\n        /* \"BLS12381.sol\":481:509  abi.encodePacked(p1, scalar) */\n      swap5\n      dup2\n      dup7\n      swap3\n      dup5\n      dup5\n      add\n        /* \"BLS12381.sol\":61:1827  library BLS12381G2 {... */\n      swap9\n      dup10\n      calldatacopy\n      dup3\n      add\n      swap1\n      dup4\n      dup3\n      add\n      mstore\n        /* \"BLS12381.sol\":481:509  abi.encodePacked(p1, scalar) */\n      sub\n      add\n      dup1\n      dup5\n      mstore\n      add\n      dup3\n      tag_5\n      jump\t// in\n    tag_27:\n        /* \"BLS12381.sol\":550:581  address(0x0c).staticcall(input) */\n      mload\n      swap1\n        /* \"BLS12381.sol\":558:562  0x0c */\n      0x0c\n        /* \"BLS12381.sol\":550:581  address(0x0c).staticcall(input) */\n      gas\n      staticcall\n      pop\n        /* \"BLS12381.sol\":61:1827  library BLS12381G2 {... */\n      tag_25\n        /* \"BLS12381.sol\":550:581  address(0x0c).staticcall(input) */\n      tag_26\n      tag_6\n      jump\t// in\n        /* \"BLS12381.sol\":61:1827  library BLS12381G2 {... */\n    tag_17:\n      0x00\n      dup1\n        /* \"BLS12381.sol\":1186:1214  abi.encodePacked(p1, scalar) */\n      0x20\n        /* \"BLS12381.sol\":61:1827  library BLS12381G2 {... */\n      dup1\n        /* \"BLS12381.sol\":1186:1214  abi.encodePacked(p1, scalar) */\n      tag_31\n        /* \"BLS12381.sol\":61:1827  library BLS12381G2 {... */\n      tag_28\n      calldatasize\n      tag_4\n      jump\t// in\n        /* \"BLS12381.sol\":1186:1214  abi.encodePacked(p1, scalar) */\n    tag_31:\n        /* \"BLS12381.sol\":1255:1286  address(0x0e).staticcall(input) */\n      mload\n      swap1\n        /* \"BLS12381.sol\":1263:1267  0x0e */\n      0x0e\n        /* \"BLS12381.sol\":1255:1286  address(0x0e).staticcall(input) */\n      gas\n      staticcall\n      pop\n        /* \"BLS12381.sol\":61:1827  library BLS12381G2 {... */\n      tag_25\n        /* \"BLS12381.sol\":1255:1286  address(0x0e).staticcall(input) */\n      tag_26\n      tag_6\n      jump\t// in\n        /* \"BLS12381.sol\":61:1827  library BLS12381G2 {... */\n    tag_15:\n      jumpi(tag_37, slt(add(not(0x03), calldatasize), 0x20))\n      calldataload(0x04)\n      0xffffffffffffffff\n      dup2\n      gt\n      tag_37\n      jumpi\n      0x00\n      tag_39\n      dup2\n      swap3\n      calldatasize\n      swap1\n      0x04\n      add\n      tag_1\n      jump\t// in\n    tag_39:\n      swap1\n      dup2\n      mload(0x40)\n      swap3\n      dup4\n      swap3\n      dup4\n      calldatacopy\n      dup2\n      add\n      dup4\n      dup2\n      mstore\n        /* \"BLS12381.sol\":730:757  address(0x0c).staticcall(d) */\n      sub\n      swap1\n        /* \"BLS12381.sol\":738:742  0x0c */\n      0x0c\n        /* \"BLS12381.sol\":730:757  address(0x0c).staticcall(d) */\n      gas\n      staticcall\n      pop\n        /* \"BLS12381.sol\":61:1827  library BLS12381G2 {... */\n      tag_25\n        /* \"BLS12381.sol\":730:757  address(0x0c).staticcall(d) */\n      tag_26\n      tag_6\n      jump\t// in\n        /* \"BLS12381.sol\":61:1827  library BLS12381G2 {... */\n    tag_37:\n      0x00\n      dup1\n      revert\n    tag_13:\n      jumpi(tag_37, slt(add(not(0x03), calldatasize), 0x80))\n      calldataload(0x04)\n      0xffffffffffffffff\n      dup2\n      gt\n      tag_37\n      jumpi\n      tag_46\n      swap1\n      calldatasize\n      swap1\n      0x04\n      add\n      tag_1\n      jump\t// in\n    tag_46:\n      calldataload(0x24)\n      0xffffffffffffffff\n      dup2\n      gt\n      tag_37\n      jumpi\n      tag_49\n      swap1\n      calldatasize\n      swap1\n      0x04\n      add\n      tag_1\n      jump\t// in\n    tag_49:\n      swap2\n      swap1\n      calldataload(0x44)\n      0xffffffffffffffff\n      dup2\n      gt\n      tag_37\n      jumpi\n      tag_52\n      swap1\n      calldatasize\n      swap1\n      0x04\n      add\n      tag_1\n      jump\t// in\n    tag_52:\n      0x64\n      swap3\n      swap2\n      swap3\n      calldataload\n      0xffffffffffffffff\n      dup2\n      gt\n      tag_37\n      jumpi\n      dup6\n      swap4\n      dup3\n      swap2\n      tag_55\n      swap1\n      calldatasize\n      swap1\n      0x04\n      add\n      tag_1\n      jump\t// in\n    tag_55:\n      swap6\n      dup7\n      swap5\n      swap2\n      swap6\n      mload(0x40)\n        /* \"BLS12381.sol\":1669:1698  abi.encodePacked(p1,p2,p3,p4) */\n      swap10\n      dup10\n      dup12\n      swap11\n        /* \"BLS12381.sol\":61:1827  library BLS12381G2 {... */\n      0x20\n        /* \"BLS12381.sol\":1669:1698  abi.encodePacked(p1,p2,p3,p4) */\n      dup13\n      add\n        /* \"BLS12381.sol\":61:1827  library BLS12381G2 {... */\n      swap14\n      dup15\n      calldatacopy\n      dup11\n      add\n      swap2\n      0x20\n      dup4\n      add\n      0x00\n      dup2\n      mstore\n      calldatacopy\n      add\n      0x20\n      add\n      swap2\n      0x00\n      dup4\n      mstore\n      dup3\n      calldatacopy\n      add\n      swap2\n      0x00\n      dup4\n      mstore\n      dup3\n      calldatacopy\n      add\n      0x00\n      dup2\n      mstore\n        /* \"BLS12381.sol\":1669:1698  abi.encodePacked(p1,p2,p3,p4) */\n      sub\n        /* \"BLS12381.sol\":230:254  abi.encodePacked(p1, p2) */\n      not(0x1f)\n        /* \"BLS12381.sol\":1669:1698  abi.encodePacked(p1,p2,p3,p4) */\n      dup2\n      add\n      dup3\n      mstore\n      tag_56\n      swap1\n      dup3\n      tag_5\n      jump\t// in\n    tag_56:\n        /* \"BLS12381.sol\":1739:1770  address(0x0f).staticcall(input) */\n      mload\n      swap1\n      gas\n      swap2\n        /* \"BLS12381.sol\":61:1827  library BLS12381G2 {... */\n      0x00\n        /* \"BLS12381.sol\":1739:1770  address(0x0f).staticcall(input) */\n      swap3\n      swap2\n        /* \"BLS12381.sol\":1747:1751  0x0f */\n      0x0f\n        /* \"BLS12381.sol\":1739:1770  address(0x0f).staticcall(input) */\n      dup5\n      swap4\n      staticcall\n      pop\n      tag_57\n      tag_6\n      jump\t// in\n    tag_57:\n        /* \"BLS12381.sol\":61:1827  library BLS12381G2 {... */\n      dup1\n      mload\n      0x20\n      swap2\n      dup3\n      add\n      mload\n      swap1\n      dup3\n      dup2\n      lt\n      tag_58\n      jumpi\n    tag_59:\n      pop\n        /* \"BLS12381.sol\":1813:1814  1 */\n      0x01\n        /* \"BLS12381.sol\":61:1827  library BLS12381G2 {... */\n      mload(0x40)\n        /* \"BLS12381.sol\":1788:1814  uint256(bytes32(ret)) == 1 */\n      swap2\n      eq\n        /* \"BLS12381.sol\":61:1827  library BLS12381G2 {... */\n      dup2\n      mstore\n      return\n    tag_58:\n      not(0x00)\n      swap1\n      dup4\n      sub\n      0x03\n      shl\n      shl\n      and\n      dup3\n      jump(tag_59)\n    tag_11:\n      0x00\n      dup1\n        /* \"BLS12381.sol\":230:254  abi.encodePacked(p1, p2) */\n      0x20\n      tag_60\n        /* \"BLS12381.sol\":61:1827  library BLS12381G2 {... */\n      tag_24\n      calldatasize\n      tag_3\n      jump\t// in\n        /* \"BLS12381.sol\":230:254  abi.encodePacked(p1, p2) */\n    tag_60:\n        /* \"BLS12381.sol\":295:326  address(0x0b).staticcall(input) */\n      mload\n      swap1\n        /* \"BLS12381.sol\":303:307  0x0b */\n      0x0b\n        /* \"BLS12381.sol\":295:326  address(0x0b).staticcall(input) */\n      gas\n      staticcall\n      pop\n        /* \"BLS12381.sol\":61:1827  library BLS12381G2 {... */\n      tag_25\n        /* \"BLS12381.sol\":295:326  address(0x0b).staticcall(input) */\n      tag_26\n      tag_6\n      jump\t// in\n        /* \"BLS12381.sol\":61:1827  library BLS12381G2 {... */\n    tag_9:\n      jumpi(tag_37, slt(add(not(0x03), calldatasize), 0x20))\n      calldataload(0x04)\n      0xffffffffffffffff\n      dup2\n      gt\n      tag_37\n      jumpi\n      dup2\n      0x00\n      swap3\n      tag_68\n      dup5\n      swap4\n      calldatasize\n      swap1\n      0x04\n      add\n      tag_1\n      jump\t// in\n    tag_68:\n      dup1\n      swap2\n      dup4\n      calldatacopy\n      dup2\n      add\n      dup4\n      dup2\n      mstore\n        /* \"BLS12381.sol\":1435:1462  address(0x0e).staticcall(d) */\n      sub\n      swap1\n        /* \"BLS12381.sol\":1443:1447  0x0e */\n      0x0e\n        /* \"BLS12381.sol\":1435:1462  address(0x0e).staticcall(d) */\n      gas\n      staticcall\n      pop\n        /* \"BLS12381.sol\":61:1827  library BLS12381G2 {... */\n      tag_25\n        /* \"BLS12381.sol\":1435:1462  address(0x0e).staticcall(d) */\n      tag_26\n      tag_6\n      jump\t// in\n        /* \"BLS12381.sol\":61:1827  library BLS12381G2 {... */\n    tag_1:\n      swap2\n      dup2\n      0x1f\n      dup5\n      add\n      slt\n      iszero\n      tag_37\n      jumpi\n      dup3\n      calldataload\n      swap2\n      0xffffffffffffffff\n      dup4\n      gt\n      tag_37\n      jumpi\n      0x20\n      dup4\n      dup2\n      dup7\n      add\n      swap6\n      add\n      add\n      gt\n      tag_37\n      jumpi\n      jump\t// out\n    tag_2:\n      0x20\n      0x40\n      swap3\n      dup2\n      dup4\n      mstore\n      dup1\n      mload\n      swap2\n      dup3\n      swap2\n      dup3\n      dup3\n      dup7\n      add\n      mstore\n      add\n      dup5\n      dup5\n      add\n      mcopy\n      0x00\n      dup3\n      dup3\n      add\n      dup5\n      add\n      mstore\n      0x1f\n      add\n      not(0x1f)\n      and\n      add\n      add\n      swap1\n      jump\t// out\n    tag_3:\n      0x40\n      not(0x03)\n      dup3\n      add\n      slt\n      tag_37\n      jumpi\n      calldataload(0x04)\n      0xffffffffffffffff\n      dup2\n      gt\n      tag_37\n      jumpi\n      dup2\n      tag_81\n      swap2\n      0x04\n      add\n      tag_1\n      jump\t// in\n    tag_81:\n      swap3\n      swap1\n      swap3\n      swap2\n      calldataload(0x24)\n      swap1\n      0xffffffffffffffff\n      dup3\n      gt\n      tag_37\n      jumpi\n      tag_84\n      swap2\n      0x04\n      add\n      tag_1\n      jump\t// in\n    tag_84:\n      swap1\n      swap2\n      jump\t// out\n    tag_4:\n      0x40\n      not(0x03)\n      dup3\n      add\n      slt\n      tag_37\n      jumpi\n      calldataload(0x04)\n      swap1\n      0xffffffffffffffff\n      dup3\n      gt\n      tag_37\n      jumpi\n      tag_89\n      swap2\n      0x04\n      add\n      tag_1\n      jump\t// in\n    tag_89:\n      swap1\n      swap2\n      calldataload(0x24)\n      swap1\n      jump\t// out\n    tag_5:\n      swap1\n      0x1f\n        /* \"BLS12381.sol\":230:254  abi.encodePacked(p1, p2) */\n      dup1\n      not\n        /* \"BLS12381.sol\":61:1827  library BLS12381G2 {... */\n      swap2\n      add\n      and\n      dup2\n      add\n      swap1\n      dup2\n      lt\n      0xffffffffffffffff\n      dup3\n      gt\n      or\n      tag_90\n      jumpi\n      0x40\n      mstore\n      jump\t// out\n    tag_90:\n      mstore(0x00, shl(0xe0, 0x4e487b71))\n      mstore(0x04, 0x41)\n      revert(0x00, 0x24)\n    tag_6:\n      jumpi(tag_92, iszero(returndatasize))\n      returndatasize\n      swap1\n      0xffffffffffffffff\n      dup3\n      gt\n      tag_90\n      jumpi\n      mload(0x40)\n      swap2\n      tag_96\n        /* \"BLS12381.sol\":230:254  abi.encodePacked(p1, p2) */\n      0x1f\n        /* \"BLS12381.sol\":61:1827  library BLS12381G2 {... */\n      dup3\n      add\n      not(0x1f)\n      and\n      0x20\n      add\n      dup5\n      tag_5\n      jump\t// in\n    tag_96:\n      dup3\n      mstore\n      returndatasize\n      0x00\n      0x20\n      dup5\n      add\n      returndatacopy\n      jump\t// out\n    tag_92:\n      0x60\n      swap1\n      jump\t// out\n\n    auxdata: 0xa2646970667358221220c67c6e82013050e8fda6a6189216492fe98e8ea420da5652f1ae941de90b94ad64736f6c634300081f0033\n}\n",
				"bytecode": {
					"linkReferences": {},
					"object": "60808060405234601957610498908161001e823930815050f35b5f80fdfe6080806040526004361015610012575f80fd5b5f3560e01c9081633f009c16146102c5575080634d919405146102a35780635cdc73ef146101875780636592041a14610134578063af1d0bd914610111578063c1f2c915146100ca5763d6385d6014610069575f80fd5b5f8060206100a861007936610368565b809493959160405195848795858701998a378501918483018a815237010185815203601f1981018352826103ed565b5190600d5afa506100c66100ba610423565b6040519182918261033e565b0390f35b5f806020806100ff6100db366103ba565b939194906040519481869284840198893782019083820152030180845201826103ed565b5190600c5afa506100c66100ba610423565b5f806020806101226100db366103ba565b5190600e5afa506100c66100ba610423565b60203660031901126101835760043567ffffffffffffffff8111610183575f61016281923690600401610310565b9081604051928392833781018381520390600c5afa506100c66100ba610423565b5f80fd5b60803660031901126101835760043567ffffffffffffffff8111610183576101b3903690600401610310565b60243567ffffffffffffffff8111610183576101d3903690600401610310565b919060443567ffffffffffffffff8111610183576101f5903690600401610310565b60649291923567ffffffffffffffff8111610183578593829161021c903690600401610310565b958694919560405199898b9a60208c019d8e378a0191602083015f81523701602001915f8352823701915f83528237015f815203601f198101825261026190826103ed565b51905a915f9291600f8493fa50610276610423565b805160209182015190828110610293575b50600160405191148152f35b5f1990830360031b1b1682610287565b5f8060206102b361007936610368565b5190600b5afa506100c66100ba610423565b60203660031901126101835760043567ffffffffffffffff811161018357815f926102f584933690600401610310565b8091833781018381520390600e5afa506100c66100ba610423565b9181601f840112156101835782359167ffffffffffffffff8311610183576020838186019501011161018357565b602060409281835280519182918282860152018484015e5f828201840152601f01601f1916010190565b60406003198201126101835760043567ffffffffffffffff8111610183578161039391600401610310565b929092916024359067ffffffffffffffff8211610183576103b691600401610310565b9091565b6040600319820112610183576004359067ffffffffffffffff8211610183576103e591600401610310565b909160243590565b90601f8019910116810190811067ffffffffffffffff82111761040f57604052565b634e487b7160e01b5f52604160045260245ffd5b3d1561045d573d9067ffffffffffffffff821161040f5760405191610452601f8201601f1916602001846103ed565b82523d5f602084013e565b60609056fea2646970667358221220c67c6e82013050e8fda6a6189216492fe98e8ea420da5652f1ae941de90b94ad64736f6c634300081f0033",
					"opcodes": "PUSH1 0x80 DUP1 PUSH1 0x40 MSTORE CALLVALUE PUSH1 0x19 JUMPI PUSH2 0x498 SWAP1 DUP2 PUSH2 0x1E DUP3 CODECOPY ADDRESS DUP2 POP POP RETURN JUMPDEST PUSH0 DUP1 REVERT INVALID PUSH1 0x80 DUP1 PUSH1 0x40 MSTORE PUSH1 0x4 CALLDATASIZE LT ISZERO PUSH2 0x12 JUMPI PUSH0 DUP1 REVERT JUMPDEST PUSH0 CALLDATALOAD PUSH1 0xE0 SHR SWAP1 DUP2 PUSH4 0x3F009C16 EQ PUSH2 0x2C5 JUMPI POP DUP1 PUSH4 0x4D919405 EQ PUSH2 0x2A3 JUMPI DUP1 PUSH4 0x5CDC73EF EQ PUSH2 0x187 JUMPI DUP1 PUSH4 0x6592041A EQ PUSH2 0x134 JUMPI DUP1 PUSH4 0xAF1D0BD9 EQ PUSH2 0x111 JUMPI DUP1 PUSH4 0xC1F2C915 EQ PUSH2 0xCA JUMPI PUSH4 0xD6385D60 EQ PUSH2 0x69 JUMPI PUSH0 DUP1 REVERT JUMPDEST PUSH0 DUP1 PUSH1 0x20 PUSH2 0xA8 PUSH2 0x79 CALLDATASIZE PUSH2 0x368 JUMP JUMPDEST DUP1 SWAP5 SWAP4 SWAP6 SWAP2 PUSH1 0x40 MLOAD SWAP6 DUP5 DUP8 SWAP6 DUP6 DUP8 ADD SWAP10 DUP11 CALLDATACOPY DUP6 ADD SWAP2 DUP5 DUP4 ADD DUP11 DUP2 MSTORE CALLDATACOPY ADD ADD DUP6 DUP2 MSTORE SUB PUSH1 0x1F NOT DUP2 ADD DUP4 MSTORE DUP3 PUSH2 0x3ED JUMP JUMPDEST MLOAD SWAP1 PUSH1 0xD GAS STATICCALL POP PUSH2 0xC6 PUSH2 0xBA PUSH2 0x423 JUMP JUMPDEST PUSH1 0x40 MLOAD SWAP2 DUP3 SWAP2 DUP3 PUSH2 0x33E JUMP JUMPDEST SUB SWAP1 RETURN JUMPDEST PUSH0 DUP1 PUSH1 0x20 DUP1 PUSH2 0xFF PUSH2 0xDB CALLDATASIZE PUSH2 0x3BA JUMP JUMPDEST SWAP4 SWAP2 SWAP5 SWAP1 PUSH1 0x40 MLOAD SWAP5 DUP2 DUP7 SWAP3 DUP5 DUP5 ADD SWAP9 DUP10 CALLDATACOPY DUP3 ADD SWAP1 DUP4 DUP3 ADD MSTORE SUB ADD DUP1 DUP5 MSTORE ADD DUP3 PUSH2 0x3ED JUMP JUMPDEST MLOAD SWAP1 PUSH1 0xC GAS STATICCALL POP PUSH2 0xC6 PUSH2 0xBA PUSH2 0x423 JUMP JUMPDEST PUSH0 DUP1 PUSH1 0x20 DUP1 PUSH2 0x122 PUSH2 0xDB CALLDATASIZE PUSH2 0x3BA JUMP JUMPDEST MLOAD SWAP1 PUSH1 0xE GAS STATICCALL POP PUSH2 0xC6 PUSH2 0xBA PUSH2 0x423 JUMP JUMPDEST PUSH1 0x20 CALLDATASIZE PUSH1 0x3 NOT ADD SLT PUSH2 0x183 JUMPI PUSH1 0x4 CALLDATALOAD PUSH8 0xFFFFFFFFFFFFFFFF DUP2 GT PUSH2 0x183 JUMPI PUSH0 PUSH2 0x162 DUP2 SWAP3 CALLDATASIZE SWAP1 PUSH1 0x4 ADD PUSH2 0x310 JUMP JUMPDEST SWAP1 DUP2 PUSH1 0x40 MLOAD SWAP3 DUP4 SWAP3 DUP4 CALLDATACOPY DUP2 ADD DUP4 DUP2 MSTORE SUB SWAP1 PUSH1 0xC GAS STATICCALL POP PUSH2 0xC6 PUSH2 0xBA PUSH2 0x423 JUMP JUMPDEST PUSH0 DUP1 REVERT JUMPDEST PUSH1 0x80 CALLDATASIZE PUSH1 0x3 NOT ADD SLT PUSH2 0x183 JUMPI PUSH1 0x4 CALLDATALOAD PUSH8 0xFFFFFFFFFFFFFFFF DUP2 GT PUSH2 0x183 JUMPI PUSH2 0x1B3 SWAP1 CALLDATASIZE SWAP1 PUSH1 0x4 ADD PUSH2 0x310 JUMP JUMPDEST PUSH1 0x24 CALLDATALOAD PUSH8 0xFFFFFFFFFFFFFFFF DUP2 GT PUSH2 0x183 JUMPI PUSH2 0x1D3 SWAP1 CALLDATASIZE SWAP1 PUSH1 0x4 ADD PUSH2 0x310 JUMP JUMPDEST SWAP2 SWAP1 PUSH1 0x44 CALLDATALOAD PUSH8 0xFFFFFFFFFFFFFFFF DUP2 GT PUSH2 0x183 JUMPI PUSH2 0x1F5 SWAP1 CALLDATASIZE SWAP1 PUSH1 0x4 ADD PUSH2 0x310 JUMP JUMPDEST PUSH1 0x64 SWAP3 SWAP2 SWAP3 CALLDATALOAD PUSH8 0xFFFFFFFFFFFFFFFF DUP2 GT PUSH2 0x183 JUMPI DUP6 SWAP4 DUP3 SWAP2 PUSH2 0x21C SWAP1 CALLDATASIZE SWAP1 PUSH1 0x4 ADD PUSH2 0x310 JUMP JUMPDEST SWAP6 DUP7 SWAP5 SWAP2 SWAP6 PUSH1 0x40 MLOAD SWAP10 DUP10 DUP12 SWAP11 PUSH1 0x20 DUP13 ADD SWAP14 DUP15 CALLDATACOPY DUP11 ADD SWAP2 PUSH1 0x20 DUP4 ADD PUSH0 DUP2 MSTORE CALLDATACOPY ADD PUSH1 0x20 ADD SWAP2 PUSH0 DUP4 MSTORE DUP3 CALLDATACOPY ADD SWAP2 PUSH0 DUP4 MSTORE DUP3 CALLDATACOPY ADD PUSH0 DUP2 MSTORE SUB PUSH1 0x1F NOT DUP2 ADD DUP3 MSTORE PUSH2 0x261 SWAP1 DUP3 PUSH2 0x3ED JUMP JUMPDEST MLOAD SWAP1 GAS SWAP2 PUSH0 SWAP3 SWAP2 PUSH1 0xF DUP5 SWAP4 STATICCALL POP PUSH2 0x276 PUSH2 0x423 JUMP JUMPDEST DUP1 MLOAD PUSH1 0x20 SWAP2 DUP3 ADD MLOAD SWAP1 DUP3 DUP2 LT PUSH2 0x293 JUMPI JUMPDEST POP PUSH1 0x1 PUSH1 0x40 MLOAD SWAP2 EQ DUP2 MSTORE RETURN JUMPDEST PUSH0 NOT SWAP1 DUP4 SUB PUSH1 0x3 SHL SHL AND DUP3 PUSH2 0x287 JUMP JUMPDEST PUSH0 DUP1 PUSH1 0x20 PUSH2 0x2B3 PUSH2 0x79 CALLDATASIZE PUSH2 0x368 JUMP JUMPDEST MLOAD SWAP1 PUSH1 0xB GAS STATICCALL POP PUSH2 0xC6 PUSH2 0xBA PUSH2 0x423 JUMP JUMPDEST PUSH1 0x20 CALLDATASIZE PUSH1 0x3 NOT ADD SLT PUSH2 0x183 JUMPI PUSH1 0x4 CALLDATALOAD PUSH8 0xFFFFFFFFFFFFFFFF DUP2 GT PUSH2 0x183 JUMPI DUP2 PUSH0 SWAP3 PUSH2 0x2F5 DUP5 SWAP4 CALLDATASIZE SWAP1 PUSH1 0x4 ADD PUSH2 0x310 JUMP JUMPDEST DUP1 SWAP2 DUP4 CALLDATACOPY DUP2 ADD DUP4 DUP2 MSTORE SUB SWAP1 PUSH1 0xE GAS STATICCALL POP PUSH2 0xC6 PUSH2 0xBA PUSH2 0x423 JUMP JUMPDEST SWAP2 DUP2 PUSH1 0x1F DUP5 ADD SLT ISZERO PUSH2 0x183 JUMPI DUP3 CALLDATALOAD SWAP2 PUSH8 0xFFFFFFFFFFFFFFFF DUP4 GT PUSH2 0x183 JUMPI PUSH1 0x20 DUP4 DUP2 DUP7 ADD SWAP6 ADD ADD GT PUSH2 0x183 JUMPI JUMP JUMPDEST PUSH1 0x20 PUSH1 0x40 SWAP3 DUP2 DUP4 MSTORE DUP1 MLOAD SWAP2 DUP3 SWAP2 DUP3 DUP3 DUP7 ADD MSTORE ADD DUP5 DUP5 ADD MCOPY PUSH0 DUP3 DUP3 ADD DUP5 ADD MSTORE PUSH1 0x1F ADD PUSH1 0x1F NOT AND ADD ADD SWAP1 JUMP JUMPDEST PUSH1 0x40 PUSH1 0x3 NOT DUP3 ADD SLT PUSH2 0x183 JUMPI PUSH1 0x4 CALLDATALOAD PUSH8 0xFFFFFFFFFFFFFFFF DUP2 GT PUSH2 0x183 JUMPI DUP2 PUSH2 0x393 SWAP2 PUSH1 0x4 ADD PUSH2 0x310 JUMP JUMPDEST SWAP3 SWAP1 SWAP3 SWAP2 PUSH1 0x24 CALLDATALOAD SWAP1 PUSH8 0xFFFFFFFFFFFFFFFF DUP3 GT PUSH2 0x183 JUMPI PUSH2 0x3B6 SWAP2 PUSH1 0x4 ADD PUSH2 0x310 JUMP JUMPDEST SWAP1 SWAP2 JUMP JUMPDEST PUSH1 0x40 PUSH1 0x3 NOT DUP3 ADD SLT PUSH2 0x183 JUMPI PUSH1 0x4 CALLDATALOAD SWAP1 PUSH8 0xFFFFFFFFFFFFFFFF DUP3 GT PUSH2 0x183 JUMPI PUSH2 0x3E5 SWAP2 PUSH1 0x4 ADD PUSH2 0x310 JUMP JUMPDEST SWAP1 SWAP2 PUSH1 0x24 CALLDATALOAD SWAP1 JUMP JUMPDEST SWAP1 PUSH1 0x1F DUP1 NOT SWAP2 ADD AND DUP2 ADD SWAP1 DUP2 LT PUSH8 0xFFFFFFFFFFFFFFFF DUP3 GT OR PUSH2 0x40F JUMPI PUSH1 0x40 MSTORE JUMP JUMPDEST PUSH4 0x4E487B71 PUSH1 0xE0 SHL PUSH0 MSTORE PUSH1 0x41 PUSH1 0x4 MSTORE PUSH1 0x24 PUSH0 REVERT JUMPDEST RETURNDATASIZE ISZERO PUSH2 0x45D JUMPI RETURNDATASIZE SWAP1 PUSH8 0xFFFFFFFFFFFFFFFF DUP3 GT PUSH2 0x40F JUMPI PUSH1 0x40 MLOAD SWAP2 PUSH2 0x452 PUSH1 0x1F DUP3 ADD PUSH1 0x1F NOT AND PUSH1 0x20 ADD DUP5 PUSH2 0x3ED JUMP JUMPDEST DUP3 MSTORE RETURNDATASIZE PUSH0 PUSH1 0x20 DUP5 ADD RETURNDATACOPY JUMP JUMPDEST PUSH1 0x60 SWAP1 JUMP INVALID LOG2 PUSH5 0x6970667358 0x22 SLT KECCAK256 0xC6 PUSH29 0x6E82013050E8FDA6A6189216492FE98E8EA420DA5652F1AE941DE90B94 0xAD PUSH5 0x736F6C6343 STOP ADDMOD 0x1F STOP CALLER "
				},
				"gasEstimates": {
					"creation": {
						"codeDepositCost": "235200",
						"executionCost": "infinite",
						"totalCost": "infinite"
					},
					"external": {
						"G1Add(bytes,bytes)": "infinite",
						"G1Mul(bytes,uint256)": "infinite",
						"G1Muls(bytes)": "infinite",
						"G2Add(bytes,bytes)": "infinite",
						"G2Mul(bytes,uint256)": "infinite",
						"G2Muls(bytes)": "infinite",
						"Pairing(bytes,bytes,bytes,bytes)": "infinite"
					}
				},
				"methodIdentifiers": {
					"G1Add(bytes,bytes)": "4d919405",
					"G1Mul(bytes,uint256)": "c1f2c915",
					"G1Muls(bytes)": "6592041a",
					"G2Add(bytes,bytes)": "d6385d60",
					"G2Mul(bytes,uint256)": "af1d0bd9",
					"G2Muls(bytes)": "3f009c16",
					"Pairing(bytes,bytes,bytes,bytes)": "5cdc73ef"
				}
			},
			"storageLayout": {
				"storage": [],
				"types": null
			},
			"userdoc": {
				"kind": "user",
				"methods": {},
				"version": 1
			}
		}
	}
}