{
	"Verfiy.sol": {
		"Verify": {
			"abi": [
				{
					"inputs": [
						{
							"internalType": "bytes[]",
							"name": "g1s",
							"type": "bytes[]"
						},
						{
							"internalType": "bytes[]",
							"name": "g2s",
							"type": "bytes[]"
						}
					],
					"name": "Check",
					"outputs": [
						{
							"internalType": "bool",
							"name": "",
							"type": "bool"
						}
					],
					"stateMutability": "view",
					"type": "function"
				},
				{
					"inputs": [
						{
							"internalType": "bytes",
							"name": "p1",
							"type": "bytes"
						},
						{
							"internalType": "bytes",
							"name": "p2",
							"type": "bytes"
						}
					],
					"name": "G1Add",
					"outputs": [
						{
							"internalType": "bytes",
							"name": "point",
							"type": "bytes"
						}
					],
					"stateMutability": "view",
					"type": "function"
				},
				{
					"inputs": [
						{
							"internalType": "bytes",
							"name": "p1",
							"type": "bytes"
						},
						{
							"internalType": "uint256",
							"name": "scalar",
							"type": "uint256"
						}
					],
					"name": "G1Mul",
					"outputs": [
						{
							"internalType": "bytes",
							"name": "point",
							"type": "bytes"
						}
					],
					"stateMutability": "view",
					"type": "function"
				},
				{
					"inputs": [
						{
							"internalType": "bytes",
							"name": "d",
							"type": "bytes"
						}
					],
					"name": "G1Muls",
					"outputs": [
						{
							"internalType": "bytes",
							"name": "point",
							"type": "bytes"
						}
					],
					"stateMutability": "view",
					"type": "function"
				},
				{
					"inputs": [
						{
							"internalType": "bytes",
							"name": "p1",
							"type": "bytes"
						},
						{
							"internalType": "bytes",
							"name": "p2",
							"type": "bytes"
						}
					],
					"name": "G2Add",
					"outputs": [
						{
							"internalType": "bytes",
							"name": "point",
							"type": "bytes"
						}
					],
					"stateMutability": "view",
					"type": "function"
				},
				{
					"inputs": [
						{
							"internalType": "bytes",
							"name": "p1",
							"type": "bytes"
						},
						{
							"internalType": "uint256",
							"name": "scalar",
							"type": "uint256"
						}
					],
					"name": "G2Mul",
					"outputs": [
						{
							"internalType": "bytes",
							"name": "point",
							"type": "bytes"
						}
					],
					"stateMutability": "view",
					"type": "function"
				},
				{
					"inputs": [
						{
							"internalType": "bytes",
							"name": "d",
							"type": "bytes"
						}
					],
					"name": "G2Muls",
					"outputs": [
						{
							"internalType": "bytes",
							"name": "point",
							"type": "bytes"
						}
					],
					"stateMutability": "view",
					"type": "function"
				},
				{
					"inputs": [
						{
							"internalType": "bytes",
							"name": "p1",
							"type": "bytes"
						},
						{
							"internalType": "bytes",
							"name": "p2",
							"type": "bytes"
						},
						{
							"internalType": "bytes",
							"name": "p3",
							"type": "bytes"
						},
						{
							"internalType": "bytes",
							"name": "p4",
							"type": "bytes"
						}
					],
					"name": "Pairing",
					"outputs": [
						{
							"internalType": "bool",
							"name": "",
							"type": "bool"
						}
					],
					"stateMutability": "view",
					"type": "function"
				}
			],
			"devdoc": {
				"kind": "dev",
				"methods": {},
				"version": 1
			},
			"evm": {
				"assembly": "    /* \"Verfiy.sol\":28:4420  contract Verify {... */\n  0x80\n  dup1\n  0x40\n  mstore\n  jumpi(tag_1, callvalue)\n  dataSize(sub_0)\n  swap1\n  dup2\n  dataOffset(sub_0)\n  dup3\n  codecopy\n  return\ntag_1:\n  0x00\n  dup1\n  revert\nstop\n\nsub_0: assembly {\n        /* \"Verfiy.sol\":28:4420  contract Verify {... */\n      mstore(0x40, 0x80)\n      jumpi(tag_21, iszero(lt(calldatasize, 0x04)))\n      0x00\n      dup1\n      revert\n    tag_21:\n      shr(0xe0, calldataload(0x00))\n      dup1\n      0x3f009c16\n      eq\n      tag_23\n      jumpi\n      dup1\n      0x4d919405\n      eq\n      tag_25\n      jumpi\n      dup1\n      0x5cdc73ef\n      eq\n      tag_27\n      jumpi\n      dup1\n      0x6592041a\n      eq\n      tag_29\n      jumpi\n      dup1\n      0xaf1d0bd9\n      eq\n      tag_31\n      jumpi\n      dup1\n      0xafef7de3\n      eq\n      tag_33\n      jumpi\n      dup1\n      0xc1f2c915\n      eq\n      tag_35\n      jumpi\n      0xd6385d60\n      eq\n      tag_37\n      jumpi\n      0x00\n      dup1\n      revert\n    tag_37:\n      jumpi(tag_39, callvalue)\n      tag_41\n      tag_42\n      tag_43\n      calldatasize\n      tag_5\n      jump\t// in\n    tag_43:\n      swap1\n      tag_20\n      jump\t// in\n    tag_42:\n      mload(0x40)\n      swap2\n      dup3\n      swap2\n      dup3\n      tag_4\n      jump\t// in\n    tag_41:\n      sub\n      swap1\n      return\n    tag_39:\n      0x00\n      dup1\n      revert\n    tag_35:\n      jumpi(tag_39, callvalue)\n      0x00\n      dup1\n        /* \"Verfiy.sol\":3080:3108  abi.encodePacked(p1, scalar) */\n      0x20\n        /* \"Verfiy.sol\":28:4420  contract Verify {... */\n      dup1\n        /* \"Verfiy.sol\":3080:3108  abi.encodePacked(p1, scalar) */\n      tag_46\n        /* \"Verfiy.sol\":28:4420  contract Verify {... */\n      tag_47\n      calldatasize\n      tag_7\n      jump\t// in\n    tag_47:\n      swap4\n      swap2\n      swap5\n      swap1\n      mload(0x40)\n        /* \"Verfiy.sol\":3080:3108  abi.encodePacked(p1, scalar) */\n      swap5\n      dup2\n      dup7\n      swap3\n      dup5\n      dup5\n      add\n        /* \"Verfiy.sol\":28:4420  contract Verify {... */\n      swap9\n      dup10\n      calldatacopy\n      dup3\n      add\n      swap1\n      dup4\n      dup3\n      add\n      mstore\n        /* \"Verfiy.sol\":3080:3108  abi.encodePacked(p1, scalar) */\n      sub\n      add\n      dup1\n      dup5\n      mstore\n      add\n      dup3\n      tag_1\n      jump\t// in\n    tag_46:\n        /* \"Verfiy.sol\":3149:3180  address(0x0c).staticcall(input) */\n      mload\n      swap1\n        /* \"Verfiy.sol\":3157:3161  0x0c */\n      0x0c\n        /* \"Verfiy.sol\":3149:3180  address(0x0c).staticcall(input) */\n      gas\n      staticcall\n      pop\n        /* \"Verfiy.sol\":28:4420  contract Verify {... */\n      tag_41\n        /* \"Verfiy.sol\":3149:3180  address(0x0c).staticcall(input) */\n      tag_42\n      tag_9\n      jump\t// in\n        /* \"Verfiy.sol\":28:4420  contract Verify {... */\n    tag_33:\n      jumpi(tag_39, callvalue)\n      jumpi(tag_39, slt(add(not(0x03), calldatasize), 0x40))\n      calldataload(0x04)\n      sub(shl(0x40, 0x01), 0x01)\n      dup2\n      gt\n      tag_39\n      jumpi\n      tag_56\n      swap1\n      calldatasize\n      swap1\n      0x04\n      add\n      tag_8\n      jump\t// in\n    tag_56:\n      calldataload(0x24)\n      sub(shl(0x40, 0x01), 0x01)\n      dup2\n      gt\n      tag_39\n      jumpi\n      tag_59\n      swap1\n      calldatasize\n      swap1\n      0x04\n      add\n      tag_8\n      jump\t// in\n    tag_59:\n      swap2\n      swap1\n      dup2\n      iszero\n      swap1\n      dup3\n      dup1\n      0x01\n      shl\n      div\n        /* \"Verfiy.sol\":221:222  2 */\n      0x02\n        /* \"Verfiy.sol\":28:4420  contract Verify {... */\n      eq\n      dup3\n      or\n      iszero\n      tag_138\n      jumpi\n      dup4\n      dup4\n      0x01\n      shl\n        /* \"Verfiy.sol\":218:226  L1*2==L2 */\n      sub\n        /* \"Verfiy.sol\":28:4420  contract Verify {... */\n      tag_39\n      jumpi\n      mload(0x40)\n      0x20\n        /* \"Verfiy.sol\":299:320  abi.encode(g1s,g2s,0) */\n      dup2\n      add\n        /* \"Verfiy.sol\":28:4420  contract Verify {... */\n      swap1\n      0x60\n      dup3\n      mstore\n        /* \"Verfiy.sol\":299:320  abi.encode(g1s,g2s,0) */\n      tag_64\n        /* \"Verfiy.sol\":28:4420  contract Verify {... */\n      dup2\n      tag_65\n      tag_66\n      0x80\n      dup4\n      add\n      dup10\n      dup13\n      tag_14\n      jump\t// in\n    tag_66:\n      dup3\n      dup2\n      sub\n      not(0x1f)\n      add\n      0x40\n      dup5\n      add\n      mstore\n      dup10\n      dup8\n      tag_14\n      jump\t// in\n    tag_65:\n      0x00\n      0x60\n      dup4\n      add\n      mstore\n        /* \"Verfiy.sol\":299:320  abi.encode(g1s,g2s,0) */\n      sub\n        /* \"Verfiy.sol\":4260:4289  abi.encodePacked(p1,p2,p3,p4) */\n      not(0x1f)\n        /* \"Verfiy.sol\":299:320  abi.encode(g1s,g2s,0) */\n      dup2\n      add\n      dup4\n      mstore\n      dup3\n      tag_1\n      jump\t// in\n    tag_64:\n        /* \"Verfiy.sol\":28:4420  contract Verify {... */\n      mload\n        /* \"Verfiy.sol\":288:321  keccak256( abi.encode(g1s,g2s,0)) */\n      swap1\n      keccak256\n        /* \"Verfiy.sol\":28:4420  contract Verify {... */\n      swap5\n      mload(0x40)\n      0x20\n        /* \"Verfiy.sol\":369:390  abi.encode(g1s,g2s,1) */\n      dup2\n      add\n        /* \"Verfiy.sol\":28:4420  contract Verify {... */\n      swap1\n      0x60\n      dup3\n      mstore\n        /* \"Verfiy.sol\":369:390  abi.encode(g1s,g2s,1) */\n      tag_67\n        /* \"Verfiy.sol\":28:4420  contract Verify {... */\n      dup2\n      tag_68\n      tag_69\n      0x80\n      dup4\n      add\n      dup11\n      dup9\n      tag_14\n      jump\t// in\n    tag_69:\n      dup3\n      dup2\n      sub\n      not(0x1f)\n      add\n      0x40\n      dup5\n      add\n      mstore\n      dup11\n      dup9\n      tag_14\n      jump\t// in\n    tag_68:\n      0x01\n      0x60\n      dup4\n      add\n      mstore\n        /* \"Verfiy.sol\":369:390  abi.encode(g1s,g2s,1) */\n      sub\n        /* \"Verfiy.sol\":4260:4289  abi.encodePacked(p1,p2,p3,p4) */\n      not(0x1f)\n        /* \"Verfiy.sol\":369:390  abi.encode(g1s,g2s,1) */\n      dup2\n      add\n      dup4\n      mstore\n      dup3\n      tag_1\n      jump\t// in\n    tag_67:\n        /* \"Verfiy.sol\":28:4420  contract Verify {... */\n      mload\n        /* \"Verfiy.sol\":358:391  keccak256( abi.encode(g1s,g2s,1)) */\n      swap1\n      keccak256\n        /* \"Verfiy.sol\":403:418  uint256 temp1=1 */\n      swap4\n        /* \"Verfiy.sol\":28:4420  contract Verify {... */\n      0x01\n        /* \"Verfiy.sol\":429:444  uint256 temp2=1 */\n      swap5\n        /* \"Verfiy.sol\":28:4420  contract Verify {... */\n      0x00\n      swap5\n        /* \"Verfiy.sol\":509:512  160 */\n      0xa0\n        /* \"Verfiy.sol\":28:4420  contract Verify {... */\n      dup4\n      mul\n      swap1\n      dup4\n      dup3\n      div\n        /* \"Verfiy.sol\":509:512  160 */\n      0xa0\n        /* \"Verfiy.sol\":28:4420  contract Verify {... */\n      eq\n      or\n      iszero\n      tag_138\n      jumpi\n        /* \"Verfiy.sol\":496:513  new bytes(L1*160) */\n      tag_72\n      swap1\n      tag_15\n      jump\t// in\n    tag_72:\n        /* \"Verfiy.sol\":28:4420  contract Verify {... */\n      swap4\n      not(0x02)\n      dup9\n      add\n      dup9\n      dup2\n      gt\n      tag_138\n      jumpi\n        /* \"Verfiy.sol\":560:563  288 */\n      0x0120\n        /* \"Verfiy.sol\":28:4420  contract Verify {... */\n      dup2\n      mul\n      swap1\n      dup1\n      dup3\n      div\n        /* \"Verfiy.sol\":560:563  288 */\n      0x0120\n        /* \"Verfiy.sol\":28:4420  contract Verify {... */\n      eq\n      swap1\n      iszero\n      or\n      iszero\n      tag_138\n      jumpi\n        /* \"Verfiy.sol\":543:564  new bytes((L2-3)*288) */\n      tag_77\n      swap1\n      tag_15\n      jump\t// in\n    tag_77:\n        /* \"Verfiy.sol\":28:4420  contract Verify {... */\n      swap1\n      dup4\n      not(0x00)\n      dup2\n      add\n      gt\n      tag_138\n      jumpi\n        /* \"Verfiy.sol\":509:512  160 */\n      0xa0\n      not(0x00)\n        /* \"Verfiy.sol\":28:4420  contract Verify {... */\n      dup6\n      add\n      dup2\n      dup2\n      mul\n      swap2\n      dup2\n      dup4\n      div\n      eq\n      swap1\n      iszero\n      or\n      iszero\n      tag_138\n      jumpi\n        /* \"Verfiy.sol\":594:615  new bytes((L1-1)*160) */\n      tag_82\n      swap1\n      tag_15\n      jump\t// in\n    tag_82:\n        /* \"Verfiy.sol\":28:4420  contract Verify {... */\n      swap9\n      not(0x01)\n      dup2\n      add\n      dup2\n      dup2\n      gt\n      tag_138\n      jumpi\n        /* \"Verfiy.sol\":560:563  288 */\n      0x0120\n        /* \"Verfiy.sol\":28:4420  contract Verify {... */\n      dup2\n      mul\n      swap1\n      dup1\n      dup3\n      div\n        /* \"Verfiy.sol\":560:563  288 */\n      0x0120\n        /* \"Verfiy.sol\":28:4420  contract Verify {... */\n      eq\n      swap1\n      iszero\n      or\n      iszero\n      tag_138\n      jumpi\n        /* \"Verfiy.sol\":645:666  new bytes((L2-2)*288) */\n      tag_87\n      swap1\n      tag_15\n      jump\t// in\n    tag_87:\n        /* \"Verfiy.sol\":28:4420  contract Verify {... */\n      0x00\n        /* \"Verfiy.sol\":730:1046  for(uint256 i=0;i<=L1-1;i++){... */\n      swap10\n        /* \"Verfiy.sol\":754:757  i++ */\n    tag_88:\n        /* \"Verfiy.sol\":28:4420  contract Verify {... */\n      dup7\n      not(0x00)\n      dup2\n      add\n      gt\n      tag_138\n      jumpi\n      not(0x00)\n      dup8\n      add\n        /* \"Verfiy.sol\":746:753  i<=L1-1 */\n      dup12\n      gt\n      tag_91\n      jumpi\n        /* \"Verfiy.sol\":777:788  uint256 j=0 */\n      dup13\n      swap1\n        /* \"Verfiy.sol\":28:4420  contract Verify {... */\n      0x00\n        /* \"Verfiy.sol\":789:794  j<128 */\n    tag_93:\n      dup13\n        /* \"Verfiy.sol\":28:4420  contract Verify {... */\n      0x80\n        /* \"Verfiy.sol\":789:794  j<128 */\n      dup3\n      lt\n      tag_94\n      jumpi\n        /* \"Verfiy.sol\":934:945  uint256 j=0 */\n      pop\n      pop\n        /* \"Verfiy.sol\":28:4420  contract Verify {... */\n      0x00\n        /* \"Verfiy.sol\":946:950  j<32 */\n    tag_96:\n      dup11\n      dup13\n        /* \"Verfiy.sol\":28:4420  contract Verify {... */\n      0x20\n        /* \"Verfiy.sol\":946:950  j<32 */\n      dup4\n      lt\n      tag_97\n      jumpi\n        /* \"Verfiy.sol\":1024:1034  temp1*rho1 */\n      pop\n      pop\n      pop\n        /* \"Verfiy.sol\":754:757  i++ */\n      tag_99\n        /* \"Verfiy.sol\":1024:1034  temp1*rho1 */\n      swap2\n      tag_100\n      swap2\n      tag_13\n      jump\t// in\n    tag_100:\n        /* \"Verfiy.sol\":754:757  i++ */\n      swap11\n      tag_16\n      jump\t// in\n    tag_99:\n        /* \"Verfiy.sol\":734:745  uint256 i=0 */\n      swap10\n      jump(tag_88)\n        /* \"Verfiy.sol\":951:954  j++ */\n    tag_97:\n        /* \"Verfiy.sol\":981:988  temp[j] */\n      swap1\n        /* \"Verfiy.sol\":974:988  ag1[k]=temp[j] */\n      tag_101\n        /* \"Verfiy.sol\":981:988  temp[j] */\n      dup4\n      swap3\n      dup6\n        /* \"Verfiy.sol\":28:4420  contract Verify {... */\n      0x01\n        /* \"Verfiy.sol\":981:988  temp[j] */\n      swap6\n      byte\n        /* \"Verfiy.sol\":974:988  ag1[k]=temp[j] */\n      swap3\n      tag_19\n      jump\t// in\n    tag_101:\n      mstore8\n        /* \"Verfiy.sol\":28:4420  contract Verify {... */\n      add\n        /* \"Verfiy.sol\":934:945  uint256 j=0 */\n      jump(tag_96)\n        /* \"Verfiy.sol\":795:798  j++ */\n    tag_94:\n        /* \"Verfiy.sol\":825:831  g1s[i] */\n      dup13\n      dup13\n        /* \"Verfiy.sol\":818:834  ag1[k]=g1s[i][j] */\n      tag_102\n        /* \"Verfiy.sol\":825:831  g1s[i] */\n      dup5\n      swap16\n        /* \"Verfiy.sol\":28:4420  contract Verify {... */\n      0x01\n        /* \"Verfiy.sol\":825:831  g1s[i] */\n      swap6\n      dup16\n      dup16\n        /* \"Verfiy.sol\":853:856  k++ */\n      tag_103\n        /* \"Verfiy.sol\":825:831  g1s[i] */\n      swap8\n      tag_104\n      swap2\n        /* \"Verfiy.sol\":825:834  g1s[i][j] */\n      tag_105\n        /* \"Verfiy.sol\":825:831  g1s[i] */\n      swap4\n      tag_17\n      jump\t// in\n    tag_104:\n      not(sub(shl(0xf8, 0x01), 0x01))\n        /* \"Verfiy.sol\":28:4420  contract Verify {... */\n      swap4\n      swap2\n        /* \"Verfiy.sol\":825:834  g1s[i][j] */\n      tag_18\n      jump\t// in\n    tag_105:\n      calldataload\n        /* \"Verfiy.sol\":28:4420  contract Verify {... */\n      and\n      0x00\n        /* \"Verfiy.sol\":818:834  ag1[k]=g1s[i][j] */\n      byte\n      swap3\n      tag_19\n      jump\t// in\n    tag_102:\n      mstore8\n        /* \"Verfiy.sol\":853:856  k++ */\n      tag_16\n      jump\t// in\n    tag_103:\n        /* \"Verfiy.sol\":795:798  j++ */\n      swap12\n        /* \"Verfiy.sol\":28:4420  contract Verify {... */\n      add\n        /* \"Verfiy.sol\":777:788  uint256 j=0 */\n      jump(tag_93)\n        /* \"Verfiy.sol\":746:753  i<=L1-1 */\n    tag_91:\n      pop\n      dup9\n      swap5\n      swap6\n      dup13\n      swap2\n      dup13\n      swap10\n      swap9\n      swap10\n        /* \"Verfiy.sol\":1077:1088  G1Muls(ag1) */\n      tag_106\n      dup11\n      tag_12\n      jump\t// in\n    tag_106:\n      pop\n        /* \"Verfiy.sol\":28:4420  contract Verify {... */\n      0x00\n      swap11\n        /* \"Verfiy.sol\":1126:1136  temp2=rho2 */\n      dup10\n        /* \"Verfiy.sol\":1175:1178  i++ */\n    tag_107:\n      sub(shl(0xff, 0x01), 0x01)\n        /* \"Verfiy.sol\":28:4420  contract Verify {... */\n      dup6\n      and\n      dup6\n      sub\n      tag_138\n      jumpi\n      0x01\n      dup6\n      swap1\n      shl\n      not(0x00)\n      dup2\n      add\n      gt\n      tag_138\n      jumpi\n      0x01\n      dup6\n      swap1\n      shl\n      not(0x00)\n      dup2\n      add\n      not(0x01)\n      swap1\n      swap2\n      add\n      gt\n      tag_138\n      jumpi\n      not(0x01)\n      dup6\n      0x01\n      shl\n      add\n        /* \"Verfiy.sol\":1163:1174  i<=2*L1-1-1 */\n      dup14\n      gt\n      tag_114\n      jumpi\n        /* \"Verfiy.sol\":1197:1202  i==L1 */\n      dup6\n      dup6\n      dup15\n      eq\n        /* \"Verfiy.sol\":1197:1211  i==L1||i==L1-1 */\n      dup1\n      iszero\n      tag_116\n      jumpi\n        /* \"Verfiy.sol\":1175:1178  i++ */\n    tag_117:\n        /* \"Verfiy.sol\":1194:1290  if(i==L1||i==L1-1){... */\n      tag_118\n      jumpi\n        /* \"Verfiy.sol\":1308:1319  uint256 j=0 */\n      pop\n        /* \"Verfiy.sol\":28:4420  contract Verify {... */\n      0x00\n        /* \"Verfiy.sol\":1320:1325  j<256 */\n    tag_120:\n      dup14\n        /* \"Verfiy.sol\":1322:1325  256 */\n      0x0100\n        /* \"Verfiy.sol\":1320:1325  j<256 */\n      dup3\n      lt\n      tag_121\n      jumpi\n        /* \"Verfiy.sol\":1465:1476  uint256 j=0 */\n      pop\n      pop\n      dup11\n        /* \"Verfiy.sol\":28:4420  contract Verify {... */\n      0x00\n        /* \"Verfiy.sol\":1477:1484  j<=32-1 */\n    tag_123:\n        /* \"Verfiy.sol\":1480:1484  32-1 */\n      0x1f\n        /* \"Verfiy.sol\":1477:1484  j<=32-1 */\n      dup2\n      gt\n      iszero\n      tag_124\n      jumpi\n        /* \"Verfiy.sol\":1558:1568  temp2*rho2 */\n      pop\n      tag_126\n      swap1\n        /* \"Verfiy.sol\":1175:1178  i++ */\n      tag_127\n        /* \"Verfiy.sol\":1558:1568  temp2*rho2 */\n      swap3\n      tag_13\n      jump\t// in\n    tag_126:\n        /* \"Verfiy.sol\":1175:1178  i++ */\n      swap13\n      tag_16\n      jump\t// in\n    tag_127:\n        /* \"Verfiy.sol\":1151:1162  uint256 i=0 */\n      swap12\n      jump(tag_107)\n        /* \"Verfiy.sol\":1485:1488  j++ */\n    tag_124:\n        /* \"Verfiy.sol\":1515:1522  temp[j] */\n      swap1\n      pop\n        /* \"Verfiy.sol\":28:4420  contract Verify {... */\n      0x20\n        /* \"Verfiy.sol\":1515:1522  temp[j] */\n      dup2\n      lt\n      iszero\n      tag_129\n      jumpi\n      dup1\n      dup3\n        /* \"Verfiy.sol\":1485:1488  j++ */\n      tag_131\n        /* \"Verfiy.sol\":1515:1522  temp[j] */\n      swap3\n      byte\n        /* \"Verfiy.sol\":1508:1522  ag2[k]=temp[j] */\n      tag_102\n      dup14\n      dup14\n      tag_19\n      jump\t// in\n        /* \"Verfiy.sol\":1485:1488  j++ */\n    tag_131:\n        /* \"Verfiy.sol\":1465:1476  uint256 j=0 */\n      dup12\n      swap1\n      jump(tag_123)\n        /* \"Verfiy.sol\":1515:1522  temp[j] */\n    tag_129:\n        /* \"Verfiy.sol\":28:4420  contract Verify {... */\n      mstore(0x00, shl(0xe0, 0x4e487b71))\n      mstore(0x04, 0x32)\n      revert(0x00, 0x24)\n        /* \"Verfiy.sol\":1326:1329  j++ */\n    tag_121:\n        /* \"Verfiy.sol\":1356:1362  g2s[i] */\n      dup12\n      dup12\n        /* \"Verfiy.sol\":1349:1365  ag2[k]=g2s[i][j] */\n      tag_102\n        /* \"Verfiy.sol\":1356:1362  g2s[i] */\n      dup5\n      swap15\n        /* \"Verfiy.sol\":28:4420  contract Verify {... */\n      0x01\n        /* \"Verfiy.sol\":1356:1362  g2s[i] */\n      swap6\n        /* \"Verfiy.sol\":1356:1365  g2s[i][j] */\n      tag_105\n        /* \"Verfiy.sol\":1356:1362  g2s[i] */\n      dup16\n      dup16\n      swap8\n        /* \"Verfiy.sol\":1384:1387  k++ */\n      tag_135\n        /* \"Verfiy.sol\":1356:1362  g2s[i] */\n      swap9\n      tag_104\n      swap3\n      tag_17\n      jump\t// in\n        /* \"Verfiy.sol\":1384:1387  k++ */\n    tag_135:\n        /* \"Verfiy.sol\":1326:1329  j++ */\n      swap11\n        /* \"Verfiy.sol\":28:4420  contract Verify {... */\n      add\n        /* \"Verfiy.sol\":1308:1319  uint256 j=0 */\n      jump(tag_120)\n        /* \"Verfiy.sol\":1194:1290  if(i==L1||i==L1-1){... */\n    tag_118:\n        /* \"Verfiy.sol\":1237:1247  temp2*rho1 */\n      tag_126\n      swap1\n        /* \"Verfiy.sol\":1175:1178  i++ */\n      tag_127\n        /* \"Verfiy.sol\":1237:1247  temp2*rho1 */\n      swap3\n      tag_13\n      jump\t// in\n        /* \"Verfiy.sol\":1197:1211  i==L1||i==L1-1 */\n    tag_116:\n        /* \"Verfiy.sol\":28:4420  contract Verify {... */\n      pop\n      pop\n      dup5\n      not(0x00)\n      dup2\n      add\n      gt\n      tag_138\n      jumpi\n      dup6\n      not(0x00)\n      dup7\n      add\n        /* \"Verfiy.sol\":1204:1211  i==L1-1 */\n      dup15\n      eq\n        /* \"Verfiy.sol\":1197:1211  i==L1||i==L1-1 */\n      jump(tag_117)\n        /* \"Verfiy.sol\":28:4420  contract Verify {... */\n    tag_138:\n      mstore(0x00, shl(0xe0, 0x4e487b71))\n      mstore(0x04, 0x11)\n      revert(0x00, 0x24)\n        /* \"Verfiy.sol\":1163:1174  i<=2*L1-1-1 */\n    tag_114:\n      swap6\n      pop\n      dup9\n      swap3\n      swap5\n      swap4\n      dup11\n      dup13\n        /* \"Verfiy.sol\":1641:1659  G2Add(part2,part2) */\n      tag_140\n        /* \"Verfiy.sol\":1611:1622  G2Muls(ag2) */\n      tag_141\n        /* \"Verfiy.sol\":1163:1174  i<=2*L1-1-1 */\n      dup13\n        /* \"Verfiy.sol\":1611:1622  G2Muls(ag2) */\n      tag_10\n      jump\t// in\n    tag_141:\n        /* \"Verfiy.sol\":1641:1659  G2Add(part2,part2) */\n      dup1\n      tag_20\n      jump\t// in\n    tag_140:\n      pop\n        /* \"Verfiy.sol\":28:4420  contract Verify {... */\n      0x00\n      swap9\n        /* \"Verfiy.sol\":1697:1707  temp1=rho1 */\n      dup8\n        /* \"Verfiy.sol\":1742:1745  i++ */\n    tag_142:\n        /* \"Verfiy.sol\":28:4420  contract Verify {... */\n      dup5\n      not(0x00)\n      dup2\n      add\n      gt\n      tag_138\n      jumpi\n      not(0x00)\n      dup6\n      add\n        /* \"Verfiy.sol\":1734:1741  i<=L1-1 */\n      dup12\n      gt\n      tag_145\n      jumpi\n        /* \"Verfiy.sol\":28:4420  contract Verify {... */\n      0x00\n        /* \"Verfiy.sol\":1773:1778  j<128 */\n    tag_147:\n      dup12\n        /* \"Verfiy.sol\":28:4420  contract Verify {... */\n      0x80\n        /* \"Verfiy.sol\":1773:1778  j<128 */\n      dup3\n      lt\n      tag_148\n      jumpi\n        /* \"Verfiy.sol\":1918:1929  uint256 j=0 */\n      pop\n      pop\n      dup9\n        /* \"Verfiy.sol\":28:4420  contract Verify {... */\n      0x00\n        /* \"Verfiy.sol\":1930:1937  j<=32-1 */\n    tag_150:\n        /* \"Verfiy.sol\":1480:1484  32-1 */\n      0x1f\n        /* \"Verfiy.sol\":1930:1937  j<=32-1 */\n      dup2\n      gt\n      iszero\n      tag_151\n      jumpi\n        /* \"Verfiy.sol\":2011:2021  temp1*rho1 */\n      pop\n      tag_100\n      swap1\n        /* \"Verfiy.sol\":1742:1745  i++ */\n      tag_154\n        /* \"Verfiy.sol\":2011:2021  temp1*rho1 */\n      swap3\n      tag_13\n      jump\t// in\n        /* \"Verfiy.sol\":1742:1745  i++ */\n    tag_154:\n        /* \"Verfiy.sol\":1722:1733  uint256 i=0 */\n      swap10\n      jump(tag_142)\n        /* \"Verfiy.sol\":1938:1941  j++ */\n    tag_151:\n        /* \"Verfiy.sol\":1968:1975  temp[j] */\n      swap1\n      pop\n        /* \"Verfiy.sol\":28:4420  contract Verify {... */\n      0x20\n        /* \"Verfiy.sol\":1968:1975  temp[j] */\n      dup2\n      lt\n      iszero\n      tag_129\n      jumpi\n      dup1\n      dup3\n        /* \"Verfiy.sol\":1938:1941  j++ */\n      tag_157\n        /* \"Verfiy.sol\":1968:1975  temp[j] */\n      swap3\n      byte\n        /* \"Verfiy.sol\":1961:1975  ag3[k]=temp[j] */\n      tag_102\n      dup12\n      dup12\n      tag_19\n      jump\t// in\n        /* \"Verfiy.sol\":1938:1941  j++ */\n    tag_157:\n        /* \"Verfiy.sol\":1918:1929  uint256 j=0 */\n      dup10\n      swap1\n      jump(tag_150)\n        /* \"Verfiy.sol\":1779:1782  j++ */\n    tag_148:\n        /* \"Verfiy.sol\":1809:1815  g1s[i] */\n      dup2\n      swap10\n        /* \"Verfiy.sol\":28:4420  contract Verify {... */\n      0x01\n        /* \"Verfiy.sol\":1809:1815  g1s[i] */\n      swap3\n        /* \"Verfiy.sol\":1809:1818  g1s[i][j] */\n      tag_159\n        /* \"Verfiy.sol\":1809:1815  g1s[i] */\n      tag_104\n        /* \"Verfiy.sol\":1837:1840  k++ */\n      tag_161\n        /* \"Verfiy.sol\":1809:1815  g1s[i] */\n      swap5\n      dup12\n      dup14\n      tag_17\n      jump\t// in\n        /* \"Verfiy.sol\":1809:1818  g1s[i][j] */\n    tag_159:\n      calldataload\n        /* \"Verfiy.sol\":28:4420  contract Verify {... */\n      and\n      0x00\n        /* \"Verfiy.sol\":1802:1818  ag3[k]=g1s[i][j] */\n      byte\n      tag_102\n      dup3\n      dup13\n      tag_19\n      jump\t// in\n        /* \"Verfiy.sol\":1837:1840  k++ */\n    tag_161:\n        /* \"Verfiy.sol\":1779:1782  j++ */\n      swap9\n        /* \"Verfiy.sol\":28:4420  contract Verify {... */\n      add\n        /* \"Verfiy.sol\":1761:1772  uint256 j=0 */\n      jump(tag_147)\n        /* \"Verfiy.sol\":1734:1741  i<=L1-1 */\n    tag_145:\n      pop\n      dup7\n      dup10\n      dup7\n      dup7\n      dup12\n        /* \"Verfiy.sol\":2094:2112  G1Add(part3,part3) */\n      tag_163\n        /* \"Verfiy.sol\":2064:2075  G1Muls(ag3) */\n      tag_164\n        /* \"Verfiy.sol\":1734:1741  i<=L1-1 */\n      dup13\n        /* \"Verfiy.sol\":2064:2075  G1Muls(ag3) */\n      tag_12\n      jump\t// in\n    tag_164:\n        /* \"Verfiy.sol\":2094:2112  G1Add(part3,part3) */\n      dup1\n      tag_11\n      jump\t// in\n    tag_163:\n      pop\n        /* \"Verfiy.sol\":28:4420  contract Verify {... */\n      0x00\n        /* \"Verfiy.sol\":2150:2603  for(uint256 i=0;i<=2*L1-1;i++){... */\n      swap6\n        /* \"Verfiy.sol\":2176:2179  i++ */\n    tag_165:\n      sub(shl(0xff, 0x01), 0x01)\n        /* \"Verfiy.sol\":28:4420  contract Verify {... */\n      dup4\n      and\n      dup4\n      sub\n      tag_138\n      jumpi\n      0x01\n      dup4\n      swap1\n      shl\n      not(0x00)\n      dup2\n      add\n      gt\n      tag_138\n      jumpi\n      not(0x00)\n      dup4\n      0x01\n      shl\n      add\n        /* \"Verfiy.sol\":2166:2175  i<=2*L1-1 */\n      dup8\n      gt\n      tag_170\n      jumpi\n        /* \"Verfiy.sol\":2198:2203  i==L1 */\n      dup9\n      swap1\n      dup3\n      dup5\n      dup10\n      eq\n        /* \"Verfiy.sol\":2198:2212  i==L1||i==L1-1 */\n      dup1\n      iszero\n      tag_172\n      jumpi\n        /* \"Verfiy.sol\":2176:2179  i++ */\n    tag_173:\n        /* \"Verfiy.sol\":2195:2316  if(i==L1||i==L1-1){//排除第 L+1 项 和 L... */\n      tag_174\n      jumpi\n        /* \"Verfiy.sol\":2334:2345  uint256 j=0 */\n      pop\n        /* \"Verfiy.sol\":28:4420  contract Verify {... */\n      0x00\n        /* \"Verfiy.sol\":2346:2351  j<256 */\n    tag_176:\n        /* \"Verfiy.sol\":1322:1325  256 */\n      0x0100\n        /* \"Verfiy.sol\":2346:2351  j<256 */\n      dup2\n      lt\n      tag_177\n      jumpi\n        /* \"Verfiy.sol\":2491:2502  uint256 j=0 */\n      pop\n        /* \"Verfiy.sol\":28:4420  contract Verify {... */\n      0x00\n        /* \"Verfiy.sol\":2503:2507  j<32 */\n    tag_179:\n        /* \"Verfiy.sol\":28:4420  contract Verify {... */\n      0x20\n        /* \"Verfiy.sol\":2503:2507  j<32 */\n      dup2\n      lt\n      tag_180\n      jumpi\n        /* \"Verfiy.sol\":2581:2591  temp2*rho2 */\n      pop\n        /* \"Verfiy.sol\":2176:2179  i++ */\n      tag_182\n        /* \"Verfiy.sol\":2581:2591  temp2*rho2 */\n      swap2\n      tag_183\n      swap2\n      tag_13\n      jump\t// in\n    tag_183:\n        /* \"Verfiy.sol\":2176:2179  i++ */\n      swap7\n      tag_16\n      jump\t// in\n    tag_182:\n        /* \"Verfiy.sol\":2154:2165  uint256 i=0 */\n      swap6\n      jump(tag_165)\n        /* \"Verfiy.sol\":2508:2511  j++ */\n    tag_180:\n        /* \"Verfiy.sol\":2538:2545  temp[j] */\n      dup1\n      dup3\n        /* \"Verfiy.sol\":28:4420  contract Verify {... */\n      0x01\n        /* \"Verfiy.sol\":2538:2545  temp[j] */\n      swap3\n      byte\n        /* \"Verfiy.sol\":2531:2545  ag4[k]=temp[j] */\n      tag_185\n      dup11\n      dup11\n      tag_19\n      jump\t// in\n    tag_185:\n      mstore8\n        /* \"Verfiy.sol\":28:4420  contract Verify {... */\n      add\n        /* \"Verfiy.sol\":2491:2502  uint256 j=0 */\n      jump(tag_179)\n        /* \"Verfiy.sol\":2352:2355  j++ */\n    tag_177:\n        /* \"Verfiy.sol\":2382:2388  g1s[i] */\n      swap7\n        /* \"Verfiy.sol\":2410:2413  k++ */\n      tag_186\n        /* \"Verfiy.sol\":28:4420  contract Verify {... */\n      0x01\n        /* \"Verfiy.sol\":2382:2388  g1s[i] */\n      swap2\n      dup10\n        /* \"Verfiy.sol\":2382:2391  g1s[i][j] */\n      tag_187\n        /* \"Verfiy.sol\":2382:2388  g1s[i] */\n      tag_104\n      dup14\n      dup11\n      dup13\n      tag_17\n      jump\t// in\n        /* \"Verfiy.sol\":2382:2391  g1s[i][j] */\n    tag_187:\n      calldataload\n        /* \"Verfiy.sol\":28:4420  contract Verify {... */\n      and\n      0x00\n        /* \"Verfiy.sol\":2375:2391  ag4[k]=g1s[i][j] */\n      byte\n      tag_102\n      dup3\n      dup12\n      tag_19\n      jump\t// in\n        /* \"Verfiy.sol\":2410:2413  k++ */\n    tag_186:\n        /* \"Verfiy.sol\":2352:2355  j++ */\n      swap8\n        /* \"Verfiy.sol\":28:4420  contract Verify {... */\n      add\n        /* \"Verfiy.sol\":2334:2345  uint256 j=0 */\n      jump(tag_176)\n        /* \"Verfiy.sol\":2195:2316  if(i==L1||i==L1-1){//排除第 L+1 项 和 L... */\n    tag_174:\n        /* \"Verfiy.sol\":2176:2179  i++ */\n      tag_182\n        /* \"Verfiy.sol\":2263:2273  temp2*rho1 */\n      swap3\n      pop\n      tag_183\n      swap2\n      tag_13\n      jump\t// in\n        /* \"Verfiy.sol\":2198:2212  i==L1||i==L1-1 */\n    tag_172:\n        /* \"Verfiy.sol\":28:4420  contract Verify {... */\n      pop\n      pop\n      swap1\n      pop\n      dup3\n      not(0x00)\n      dup2\n      add\n      gt\n      tag_138\n      jumpi\n      dup9\n      swap1\n      dup3\n      not(0x00)\n      dup6\n      add\n        /* \"Verfiy.sol\":2205:2212  i==L1-1 */\n      dup10\n      eq\n        /* \"Verfiy.sol\":2198:2212  i==L1||i==L1-1 */\n      jump(tag_173)\n        /* \"Verfiy.sol\":2166:2175  i<=2*L1-1 */\n    tag_170:\n        /* \"Verfiy.sol\":2635:2646  G2Muls(ag1) */\n      tag_193\n        /* \"Verfiy.sol\":2166:2175  i<=2*L1-1 */\n      dup9\n        /* \"Verfiy.sol\":2635:2646  G2Muls(ag1) */\n      tag_10\n      jump\t// in\n    tag_193:\n      pop\n        /* \"Verfiy.sol\":28:4420  contract Verify {... */\n      0x20\n      mload(0x40)\n      0x00\n      dup2\n      mstore\n      return\n    tag_31:\n      jumpi(tag_39, callvalue)\n      0x00\n      dup1\n        /* \"Verfiy.sol\":3779:3807  abi.encodePacked(p1, scalar) */\n      0x20\n        /* \"Verfiy.sol\":28:4420  contract Verify {... */\n      dup1\n        /* \"Verfiy.sol\":3779:3807  abi.encodePacked(p1, scalar) */\n      tag_196\n        /* \"Verfiy.sol\":28:4420  contract Verify {... */\n      tag_47\n      calldatasize\n      tag_7\n      jump\t// in\n        /* \"Verfiy.sol\":3779:3807  abi.encodePacked(p1, scalar) */\n    tag_196:\n        /* \"Verfiy.sol\":3848:3879  address(0x0e).staticcall(input) */\n      mload\n      swap1\n        /* \"Verfiy.sol\":3856:3860  0x0e */\n      0x0e\n        /* \"Verfiy.sol\":3848:3879  address(0x0e).staticcall(input) */\n      gas\n      staticcall\n      pop\n        /* \"Verfiy.sol\":28:4420  contract Verify {... */\n      tag_41\n        /* \"Verfiy.sol\":3848:3879  address(0x0e).staticcall(input) */\n      tag_42\n      tag_9\n      jump\t// in\n        /* \"Verfiy.sol\":28:4420  contract Verify {... */\n    tag_29:\n      jumpi(tag_39, callvalue)\n      jumpi(tag_39, slt(add(not(0x03), calldatasize), 0x20))\n      calldataload(0x04)\n      sub(shl(0x40, 0x01), 0x01)\n      dup2\n      gt\n      tag_39\n      jumpi\n      tag_42\n      tag_207\n      tag_41\n      swap3\n      calldatasize\n      swap1\n      0x04\n      add\n      tag_3\n      jump\t// in\n    tag_207:\n      tag_12\n      jump\t// in\n    tag_27:\n      jumpi(tag_39, callvalue)\n      jumpi(tag_39, slt(add(not(0x03), calldatasize), 0x80))\n      calldataload(0x04)\n      sub(shl(0x40, 0x01), 0x01)\n      dup2\n      gt\n      tag_39\n      jumpi\n      tag_215\n      swap1\n      calldatasize\n      swap1\n      0x04\n      add\n      tag_6\n      jump\t// in\n    tag_215:\n      calldataload(0x24)\n      sub(shl(0x40, 0x01), 0x01)\n      dup2\n      gt\n      tag_39\n      jumpi\n      tag_218\n      swap1\n      calldatasize\n      swap1\n      0x04\n      add\n      tag_6\n      jump\t// in\n    tag_218:\n      swap2\n      swap1\n      calldataload(0x44)\n      sub(shl(0x40, 0x01), 0x01)\n      dup2\n      gt\n      tag_39\n      jumpi\n      tag_221\n      swap1\n      calldatasize\n      swap1\n      0x04\n      add\n      tag_6\n      jump\t// in\n    tag_221:\n      0x64\n      swap3\n      swap2\n      swap3\n      calldataload\n      sub(shl(0x40, 0x01), 0x01)\n      dup2\n      gt\n      tag_39\n      jumpi\n      dup6\n      swap4\n      dup3\n      swap2\n      tag_224\n      swap1\n      calldatasize\n      swap1\n      0x04\n      add\n      tag_6\n      jump\t// in\n    tag_224:\n      swap6\n      dup7\n      swap5\n      swap2\n      swap6\n      mload(0x40)\n        /* \"Verfiy.sol\":4260:4289  abi.encodePacked(p1,p2,p3,p4) */\n      swap10\n      dup10\n      dup12\n      swap11\n        /* \"Verfiy.sol\":28:4420  contract Verify {... */\n      0x20\n        /* \"Verfiy.sol\":4260:4289  abi.encodePacked(p1,p2,p3,p4) */\n      dup13\n      add\n        /* \"Verfiy.sol\":28:4420  contract Verify {... */\n      swap14\n      dup15\n      calldatacopy\n      dup11\n      add\n      swap2\n      0x20\n      dup4\n      add\n      0x00\n      dup2\n      mstore\n      calldatacopy\n      add\n      0x20\n      add\n      swap2\n      0x00\n      dup4\n      mstore\n      dup3\n      calldatacopy\n      add\n      swap2\n      0x00\n      dup4\n      mstore\n      dup3\n      calldatacopy\n      add\n      0x00\n      dup2\n      mstore\n        /* \"Verfiy.sol\":4260:4289  abi.encodePacked(p1,p2,p3,p4) */\n      sub\n      not(0x1f)\n      dup2\n      add\n      dup3\n      mstore\n      tag_225\n      swap1\n      dup3\n      tag_1\n      jump\t// in\n    tag_225:\n        /* \"Verfiy.sol\":4330:4361  address(0x0f).staticcall(input) */\n      mload\n      swap1\n      gas\n      swap2\n        /* \"Verfiy.sol\":28:4420  contract Verify {... */\n      0x00\n        /* \"Verfiy.sol\":4330:4361  address(0x0f).staticcall(input) */\n      swap3\n      swap2\n        /* \"Verfiy.sol\":4338:4342  0x0f */\n      0x0f\n        /* \"Verfiy.sol\":4330:4361  address(0x0f).staticcall(input) */\n      dup5\n      swap4\n      staticcall\n      pop\n      tag_226\n      tag_9\n      jump\t// in\n    tag_226:\n        /* \"Verfiy.sol\":28:4420  contract Verify {... */\n      dup1\n      mload\n      0x20\n      swap2\n      dup3\n      add\n      mload\n      swap1\n      dup3\n      dup2\n      lt\n      tag_227\n      jumpi\n    tag_228:\n      pop\n        /* \"Verfiy.sol\":4404:4405  1 */\n      0x01\n        /* \"Verfiy.sol\":28:4420  contract Verify {... */\n      mload(0x40)\n        /* \"Verfiy.sol\":4379:4405  uint256(bytes32(ret)) == 1 */\n      swap2\n      eq\n        /* \"Verfiy.sol\":28:4420  contract Verify {... */\n      dup2\n      mstore\n      return\n    tag_227:\n      not(0x00)\n      swap1\n      dup4\n      sub\n      0x03\n      shl\n      shl\n      and\n      dup3\n      jump(tag_228)\n    tag_25:\n      jumpi(tag_39, callvalue)\n      tag_41\n      tag_42\n      tag_233\n      calldatasize\n      tag_5\n      jump\t// in\n    tag_233:\n      swap1\n      tag_11\n      jump\t// in\n    tag_23:\n      jumpi(tag_39, callvalue)\n      jumpi(tag_39, slt(add(not(0x03), calldatasize), 0x20))\n      calldataload(0x04)\n      sub(shl(0x40, 0x01), 0x01)\n      dup2\n      gt\n      tag_39\n      jumpi\n      tag_42\n      tag_241\n      tag_41\n      swap3\n      calldatasize\n      swap1\n      0x04\n      add\n      tag_3\n      jump\t// in\n    tag_241:\n      tag_10\n      jump\t// in\n    tag_1:\n      swap1\n      0x1f\n        /* \"Verfiy.sol\":4260:4289  abi.encodePacked(p1,p2,p3,p4) */\n      dup1\n      not\n        /* \"Verfiy.sol\":28:4420  contract Verify {... */\n      swap2\n      add\n      and\n      dup2\n      add\n      swap1\n      dup2\n      lt\n      sub(shl(0x40, 0x01), 0x01)\n      dup3\n      gt\n      or\n      tag_243\n      jumpi\n      0x40\n      mstore\n      jump\t// out\n    tag_243:\n      mstore(0x00, shl(0xe0, 0x4e487b71))\n      mstore(0x04, 0x41)\n      revert(0x00, 0x24)\n    tag_2:\n      sub(shl(0x40, 0x01), 0x01)\n      dup2\n      gt\n      tag_243\n      jumpi\n      0x1f\n      add\n      not(0x1f)\n      and\n      0x20\n      add\n      swap1\n      jump\t// out\n    tag_3:\n      dup2\n      0x1f\n      dup3\n      add\n      slt\n      iszero\n      tag_39\n      jumpi\n      dup1\n      calldataload\n      swap1\n      tag_249\n      dup3\n      tag_2\n      jump\t// in\n    tag_249:\n      swap3\n      tag_250\n      mload(0x40)\n      swap5\n      dup6\n      tag_1\n      jump\t// in\n    tag_250:\n      dup3\n      dup5\n      mstore\n      0x20\n      dup4\n      dup4\n      add\n      add\n      gt\n      tag_39\n      jumpi\n      dup2\n      0x00\n      swap3\n      0x20\n      dup1\n      swap4\n      add\n      dup4\n      dup7\n      add\n      calldatacopy\n      dup4\n      add\n      add\n      mstore\n      swap1\n      jump\t// out\n    tag_4:\n      0x20\n      0x40\n      swap3\n      dup2\n      dup4\n      mstore\n      dup1\n      mload\n      swap2\n      dup3\n      swap2\n      dup3\n      dup3\n      dup7\n      add\n      mstore\n      add\n      dup5\n      dup5\n      add\n      mcopy\n      0x00\n      dup3\n      dup3\n      add\n      dup5\n      add\n      mstore\n      0x1f\n      add\n      not(0x1f)\n      and\n      add\n      add\n      swap1\n      jump\t// out\n    tag_5:\n      swap1\n      0x40\n      not(0x03)\n      dup4\n      add\n      slt\n      tag_39\n      jumpi\n      calldataload(0x04)\n      sub(shl(0x40, 0x01), 0x01)\n      dup2\n      gt\n      tag_39\n      jumpi\n      dup3\n      tag_257\n      swap2\n      0x04\n      add\n      tag_3\n      jump\t// in\n    tag_257:\n      swap2\n      calldataload(0x24)\n      swap1\n      sub(shl(0x40, 0x01), 0x01)\n      dup3\n      gt\n      tag_39\n      jumpi\n      tag_260\n      swap2\n      0x04\n      add\n      tag_3\n      jump\t// in\n    tag_260:\n      swap1\n      jump\t// out\n    tag_6:\n      swap2\n      dup2\n      0x1f\n      dup5\n      add\n      slt\n      iszero\n      tag_39\n      jumpi\n      dup3\n      calldataload\n      swap2\n      sub(shl(0x40, 0x01), 0x01)\n      dup4\n      gt\n      tag_39\n      jumpi\n      0x20\n      dup4\n      dup2\n      dup7\n      add\n      swap6\n      add\n      add\n      gt\n      tag_39\n      jumpi\n      jump\t// out\n    tag_7:\n      0x40\n      not(0x03)\n      dup3\n      add\n      slt\n      tag_39\n      jumpi\n      calldataload(0x04)\n      swap1\n      sub(shl(0x40, 0x01), 0x01)\n      dup3\n      gt\n      tag_39\n      jumpi\n      tag_271\n      swap2\n      0x04\n      add\n      tag_6\n      jump\t// in\n    tag_271:\n      swap1\n      swap2\n      calldataload(0x24)\n      swap1\n      jump\t// out\n    tag_8:\n      swap2\n      dup2\n      0x1f\n      dup5\n      add\n      slt\n      iszero\n      tag_39\n      jumpi\n      dup3\n      calldataload\n      swap2\n      sub(shl(0x40, 0x01), 0x01)\n      dup4\n      gt\n      tag_39\n      jumpi\n      0x20\n      dup1\n      dup6\n      add\n      swap5\n      dup5\n      0x05\n      shl\n      add\n      add\n      gt\n      tag_39\n      jumpi\n      jump\t// out\n    tag_9:\n      jumpi(tag_278, iszero(returndatasize))\n      returndatasize\n      swap1\n      tag_280\n      dup3\n      tag_2\n      jump\t// in\n    tag_280:\n      swap2\n      tag_281\n      mload(0x40)\n      swap4\n      dup5\n      tag_1\n      jump\t// in\n    tag_281:\n      dup3\n      mstore\n      returndatasize\n      0x00\n      0x20\n      dup5\n      add\n      returndatacopy\n      jump\t// out\n    tag_278:\n      0x60\n      swap1\n      jump\t// out\n        /* \"Verfiy.sol\":3914:4082  function G2Muls(bytes memory d)public view returns (bytes memory point){... */\n    tag_10:\n        /* \"Verfiy.sol\":4026:4053  address(0x0e).staticcall(d) */\n      0x00\n        /* \"Verfiy.sol\":3914:4082  function G2Muls(bytes memory d)public view returns (bytes memory point){... */\n      dup1\n      swap2\n        /* \"Verfiy.sol\":4026:4053  address(0x0e).staticcall(d) */\n      0x20\n      dup2\n      mload\n      swap2\n      add\n        /* \"Verfiy.sol\":4034:4038  0x0e */\n      0x0e\n        /* \"Verfiy.sol\":4026:4053  address(0x0e).staticcall(d) */\n      gas\n      staticcall\n      pop\n      tag_260\n      tag_9\n      jump\t// in\n        /* \"Verfiy.sol\":2710:2954  function G1Add(bytes memory p1,bytes memory p2)public view returns (bytes memory point){... */\n    tag_11:\n      0x00\n      swap2\n      swap1\n        /* \"Verfiy.sol\":2829:2853  abi.encodePacked(p1, p2) */\n      0x20\n      tag_284\n        /* \"Verfiy.sol\":2710:2954  function G1Add(bytes memory p1,bytes memory p2)public view returns (bytes memory point){... */\n      dup5\n      swap4\n        /* \"Verfiy.sol\":28:4420  contract Verify {... */\n      dup3\n      mload(0x40)\n        /* \"Verfiy.sol\":2829:2853  abi.encodePacked(p1, p2) */\n      swap4\n      dup5\n      swap3\n      dup2\n      dup1\n      dup6\n      add\n        /* \"Verfiy.sol\":28:4420  contract Verify {... */\n      swap8\n      dup1\n      mload\n      swap2\n      dup3\n      swap2\n      add\n      dup10\n      mcopy\n      dup5\n      add\n      swap1\n      dup3\n      dup3\n      add\n      dup10\n      dup2\n      mstore\n      dup2\n      mload\n      swap4\n      dup5\n      swap3\n      add\n      swap1\n      mcopy\n      add\n      add\n      dup6\n      dup2\n      mstore\n        /* \"Verfiy.sol\":2829:2853  abi.encodePacked(p1, p2) */\n      sub\n        /* \"Verfiy.sol\":4260:4289  abi.encodePacked(p1,p2,p3,p4) */\n      not(0x1f)\n        /* \"Verfiy.sol\":2829:2853  abi.encodePacked(p1, p2) */\n      dup2\n      add\n      dup4\n      mstore\n      dup3\n      tag_1\n      jump\t// in\n    tag_284:\n        /* \"Verfiy.sol\":2894:2925  address(0x0b).staticcall(input) */\n      mload\n      swap1\n        /* \"Verfiy.sol\":2902:2906  0x0b */\n      0x0b\n        /* \"Verfiy.sol\":2894:2925  address(0x0b).staticcall(input) */\n      gas\n      staticcall\n      pop\n      tag_260\n      tag_9\n      jump\t// in\n        /* \"Verfiy.sol\":3215:3383  function G1Muls(bytes memory d)public view returns (bytes memory point){... */\n    tag_12:\n        /* \"Verfiy.sol\":3327:3354  address(0x0c).staticcall(d) */\n      0x00\n        /* \"Verfiy.sol\":3215:3383  function G1Muls(bytes memory d)public view returns (bytes memory point){... */\n      dup1\n      swap2\n        /* \"Verfiy.sol\":3327:3354  address(0x0c).staticcall(d) */\n      0x20\n      dup2\n      mload\n      swap2\n      add\n        /* \"Verfiy.sol\":3335:3339  0x0c */\n      0x0c\n        /* \"Verfiy.sol\":3327:3354  address(0x0c).staticcall(d) */\n      gas\n      staticcall\n      pop\n      tag_260\n      tag_9\n      jump\t// in\n        /* \"Verfiy.sol\":28:4420  contract Verify {... */\n    tag_13:\n      dup2\n      dup2\n      mul\n      swap3\n      swap2\n      dup2\n      iszero\n      swap2\n      dup5\n      div\n      eq\n      or\n      iszero\n      tag_138\n      jumpi\n      jump\t// out\n    tag_14:\n      swap1\n      0x20\n      dup4\n      dup3\n      dup2\n      mstore\n      add\n      swap1\n      0x20\n      dup2\n      0x05\n      shl\n      dup6\n      add\n      add\n      swap4\n      dup4\n      0x00\n      swap2\n    tag_289:\n      dup4\n      dup4\n      lt\n      tag_290\n      jumpi\n      pop\n      pop\n      pop\n      pop\n      pop\n      pop\n      swap1\n      jump\t// out\n    tag_290:\n        /* \"Verfiy.sol\":4260:4289  abi.encodePacked(p1,p2,p3,p4) */\n      swap1\n      swap2\n      swap3\n      swap4\n      swap5\n      swap6\n      not(0x1f)\n        /* \"Verfiy.sol\":28:4420  contract Verify {... */\n      dup3\n      dup3\n      sub\n      add\n      dup7\n      mstore\n      dup7\n      calldataload\n      not(0x1e)\n      dup5\n      calldatasize\n      sub\n      add\n      dup2\n      slt\n      iszero\n      tag_39\n      jumpi\n      dup4\n      add\n      swap1\n      0x20\n      dup3\n      calldataload\n      swap3\n      add\n      swap2\n      sub(shl(0x40, 0x01), 0x01)\n      dup2\n      gt\n      tag_39\n      jumpi\n      dup1\n      calldatasize\n      sub\n      dup4\n      sgt\n      tag_39\n      jumpi\n      0x20\n      dup3\n      dup3\n      dup1\n      0x01\n      swap7\n      dup5\n      swap7\n      swap6\n      dup6\n      swap7\n      mstore\n      dup5\n      dup5\n      add\n      calldatacopy\n      0x00\n      dup3\n      dup3\n      add\n      dup5\n      add\n      mstore\n      0x1f\n      add\n      not(0x1f)\n      and\n      add\n      add\n      swap9\n      add\n      swap7\n      add\n      swap5\n      swap4\n      add\n      swap2\n      swap1\n      jump(tag_289)\n    tag_15:\n      swap1\n      tag_298\n      dup3\n      tag_2\n      jump\t// in\n    tag_298:\n      tag_299\n      mload(0x40)\n      swap2\n      dup3\n      tag_1\n      jump\t// in\n    tag_299:\n      dup3\n      dup2\n      mstore\n      dup1\n        /* \"Verfiy.sol\":4260:4289  abi.encodePacked(p1,p2,p3,p4) */\n      swap3\n        /* \"Verfiy.sol\":28:4420  contract Verify {... */\n      tag_300\n        /* \"Verfiy.sol\":4260:4289  abi.encodePacked(p1,p2,p3,p4) */\n      not(0x1f)\n        /* \"Verfiy.sol\":28:4420  contract Verify {... */\n      swap2\n      tag_2\n      jump\t// in\n    tag_300:\n      add\n      swap1\n      0x20\n      calldatasize\n      swap2\n      add\n      calldatacopy\n      jump\t// out\n    tag_16:\n      not(0x00)\n      dup2\n      eq\n      tag_138\n      jumpi\n      0x01\n      add\n      swap1\n      jump\t// out\n    tag_17:\n      swap2\n      swap1\n      dup2\n      lt\n      iszero\n      tag_129\n      jumpi\n      0x05\n      shl\n      dup2\n      add\n      calldataload\n      swap1\n      not(0x1e)\n      dup2\n      calldatasize\n      sub\n      add\n      dup3\n      slt\n      iszero\n      tag_39\n      jumpi\n      add\n      swap1\n      dup2\n      calldataload\n      swap2\n      sub(shl(0x40, 0x01), 0x01)\n      dup4\n      gt\n      tag_39\n      jumpi\n      0x20\n      add\n      dup3\n      calldatasize\n      sub\n      dup2\n      sgt\n      tag_39\n      jumpi\n      swap2\n      swap1\n      jump\t// out\n    tag_18:\n      swap1\n      dup3\n      lt\n      iszero\n      tag_129\n      jumpi\n      add\n      swap1\n      jump\t// out\n    tag_19:\n      swap1\n      dup2\n      mload\n      dup2\n      lt\n      iszero\n      tag_129\n      jumpi\n      add\n      0x20\n      add\n      swap1\n      jump\t// out\n        /* \"Verfiy.sol\":3409:3653  function G2Add(bytes memory p1,bytes memory p2)public view returns (bytes memory point){... */\n    tag_20:\n      0x00\n      swap2\n      swap1\n        /* \"Verfiy.sol\":3528:3552  abi.encodePacked(p1, p2) */\n      0x20\n      tag_315\n        /* \"Verfiy.sol\":3409:3653  function G2Add(bytes memory p1,bytes memory p2)public view returns (bytes memory point){... */\n      dup5\n      swap4\n        /* \"Verfiy.sol\":28:4420  contract Verify {... */\n      dup3\n      mload(0x40)\n        /* \"Verfiy.sol\":3528:3552  abi.encodePacked(p1, p2) */\n      swap4\n      dup5\n      swap3\n      dup2\n      dup1\n      dup6\n      add\n        /* \"Verfiy.sol\":28:4420  contract Verify {... */\n      swap8\n      dup1\n      mload\n      swap2\n      dup3\n      swap2\n      add\n      dup10\n      mcopy\n      dup5\n      add\n      swap1\n      dup3\n      dup3\n      add\n      dup10\n      dup2\n      mstore\n      dup2\n      mload\n      swap4\n      dup5\n      swap3\n      add\n      swap1\n      mcopy\n      add\n      add\n      dup6\n      dup2\n      mstore\n        /* \"Verfiy.sol\":3528:3552  abi.encodePacked(p1, p2) */\n      sub\n        /* \"Verfiy.sol\":4260:4289  abi.encodePacked(p1,p2,p3,p4) */\n      not(0x1f)\n        /* \"Verfiy.sol\":3528:3552  abi.encodePacked(p1, p2) */\n      dup2\n      add\n      dup4\n      mstore\n      dup3\n      tag_1\n      jump\t// in\n    tag_315:\n        /* \"Verfiy.sol\":3593:3624  address(0x0d).staticcall(input) */\n      mload\n      swap1\n        /* \"Verfiy.sol\":3601:3605  0x0d */\n      0x0d\n        /* \"Verfiy.sol\":3593:3624  address(0x0d).staticcall(input) */\n      gas\n      staticcall\n      pop\n      tag_260\n      tag_9\n      jump\t// in\n\n    auxdata: 0xa26469706673582212203e592eb05f7ab1274b752eca738bd8c0fe0309ec83917a8cc7fd973385a55b6b64736f6c634300081f0033\n}\n",
				"bytecode": {
					"linkReferences": {},
					"object": "60808060405234601557610c0e908161001a8239f35b5f80fdfe60806040526004361015610011575f80fd5b5f3560e01c80633f009c16146107bc5780634d919405146107a25780635cdc73ef146106855780636592041a1461064a578063af1d0bd914610622578063afef7de3146100eb578063c1f2c9151461009f5763d6385d6014610071575f80fd5b3461009b5761009761008b610085366108b7565b90610b87565b6040519182918261088d565b0390f35b5f80fd5b3461009b575f806020806100d96100b536610931565b939194906040519481869284840198893782019083820152030180845201826107f7565b5190600c5afa5061009761008b610993565b3461009b57604036600319011261009b576004356001600160401b03811161009b5761011b903690600401610963565b6024356001600160401b03811161009b5761013a903690600401610963565b9190811590828060011b0460021482171561045757838360011b0361009b576040516020810190606082526101a18161018d61017a60808301898c610a52565b828103601f190160408401528987610a52565b5f606083015203601f1981018352826107f7565b519020946040516020810190606082526101ee816101d96101c6608083018a88610a52565b828103601f190160408401528a88610a52565b6001606083015203601f1981018352826107f7565b519020936001945f9460a083029083820460a01417156104575761021190610ae9565b9360021988018881116104575761012081029080820461012014901517156104575761023c90610ae9565b90835f198101116104575760a05f1985018181029181830414901517156104575761026690610ae9565b9860011981018181116104575761012081029080820461012014901517156104575761029190610ae9565b5f995b865f19810111610457575f1987018b1161033b578c905f5b8c608082106102f75750505f5b8a8c602083106102df575050506102d9916102d391610a3f565b9a610b1b565b99610294565b906102f08392856001951a92610b76565b53016102b9565b8c8c61032e849f6001958f8f610334976103149161032493610b29565b6001600160f81b03199391610b6a565b35165f1a92610b76565b53610b1b565b9b016102ac565b508894958c918c99989961034e8a610a29565b505f9a895b6001600160ff1b038516850361045757600185901b5f1981011161045757600185901b5f19810160011990910111610457576001198560011b018d1161046b5785858e14801561043f575b61043257505f5b8d610100821061040e5750508a5f5b601f8111156103d757506103cb906103d192610a3f565b9c610b1b565b9b610353565b905060208110156103fa5780826103f3921a61032e8d8d610b76565b8b906103b4565b634e487b7160e01b5f52603260045260245ffd5b8b8b61032e849e6001956103248f8f9761042b9861031492610b29565b9a016103a5565b6103cb906103d192610a3f565b5050845f1981011161045757855f1986018e1461039e565b634e487b7160e01b5f52601160045260245ffd5b9550889294938a8c61048561047f8c6109c2565b80610b87565b505f98875b845f19810111610457575f1985018b11610519575f5b8b608082106104ee575050885f5b601f8111156104cb57506102d3906104c592610a3f565b9961048a565b905060208110156103fa5780826104e7921a61032e8b8b610b76565b89906104ae565b8199600192610504610314610512948b8d610b29565b35165f1a61032e828c610b76565b98016104a0565b50868986868b61053161052b8c610a29565b806109d8565b505f955b6001600160ff1b038316830361045757600183901b5f19810111610457575f198360011b01871161060e5788908284891480156105f2575b6105e457505f5b61010081106105b957505f5b602081106105a2575061059c9161059691610a3f565b96610b1b565b95610535565b80826001921a6105b28a8a610b76565b5301610580565b966105dd600191896105cf6103148d8a8c610b29565b35165f1a61032e828b610b76565b9701610574565b61059c925061059691610a3f565b50509050825f19810111610457578890825f198501891461056d565b610617886109c2565b5060206040515f8152f35b3461009b575f806020806106386100b536610931565b5190600e5afa5061009761008b610993565b3461009b57602036600319011261009b576004356001600160401b03811161009b5761008b610680610097923690600401610847565b610a29565b3461009b57608036600319011261009b576004356001600160401b03811161009b576106b5903690600401610904565b6024356001600160401b03811161009b576106d4903690600401610904565b91906044356001600160401b03811161009b576106f5903690600401610904565b6064929192356001600160401b03811161009b578593829161071b903690600401610904565b958694919560405199898b9a60208c019d8e378a0191602083015f81523701602001915f8352823701915f83528237015f815203601f198101825261076090826107f7565b51905a915f9291600f8493fa50610775610993565b805160209182015190828110610792575b50600160405191148152f35b5f1990830360031b1b1682610786565b3461009b5761009761008b6107b6366108b7565b906109d8565b3461009b57602036600319011261009b576004356001600160401b03811161009b5761008b6107f2610097923690600401610847565b6109c2565b90601f801991011681019081106001600160401b0382111761081857604052565b634e487b7160e01b5f52604160045260245ffd5b6001600160401b03811161081857601f01601f191660200190565b81601f8201121561009b5780359061085e8261082c565b9261086c60405194856107f7565b8284526020838301011161009b57815f926020809301838601378301015290565b602060409281835280519182918282860152018484015e5f828201840152601f01601f1916010190565b90604060031983011261009b576004356001600160401b03811161009b57826108e291600401610847565b91602435906001600160401b03821161009b5761090191600401610847565b90565b9181601f8401121561009b578235916001600160401b03831161009b576020838186019501011161009b57565b604060031982011261009b57600435906001600160401b03821161009b5761095b91600401610904565b909160243590565b9181601f8401121561009b578235916001600160401b03831161009b576020808501948460051b01011161009b57565b3d156109bd573d906109a48261082c565b916109b260405193846107f7565b82523d5f602084013e565b606090565b5f8091602081519101600e5afa50610901610993565b5f91906020610a1a8493826040519384928180850197805191829101895e840190828201898152815193849201905e010185815203601f1981018352826107f7565b5190600b5afa50610901610993565b5f8091602081519101600c5afa50610901610993565b8181029291811591840414171561045757565b90602083828152019060208160051b85010193835f915b838310610a795750505050505090565b909192939495601f198282030186528635601e198436030181121561009b57830190602082359201916001600160401b03811161009b57803603831361009b576020828280600196849695859652848401375f828201840152601f01601f19160101980196019493019190610a69565b90610af38261082c565b610b0060405191826107f7565b8281528092610b11601f199161082c565b0190602036910137565b5f1981146104575760010190565b91908110156103fa5760051b81013590601e198136030182121561009b5701908135916001600160401b03831161009b57602001823603811361009b579190565b908210156103fa570190565b9081518110156103fa570160200190565b5f91906020610bc98493826040519384928180850197805191829101895e840190828201898152815193849201905e010185815203601f1981018352826107f7565b5190600d5afa5061090161099356fea26469706673582212203e592eb05f7ab1274b752eca738bd8c0fe0309ec83917a8cc7fd973385a55b6b64736f6c634300081f0033",
					"opcodes": "PUSH1 0x80 DUP1 PUSH1 0x40 MSTORE CALLVALUE PUSH1 0x15 JUMPI PUSH2 0xC0E SWAP1 DUP2 PUSH2 0x1A DUP3 CODECOPY RETURN JUMPDEST PUSH0 DUP1 REVERT INVALID PUSH1 0x80 PUSH1 0x40 MSTORE PUSH1 0x4 CALLDATASIZE LT ISZERO PUSH2 0x11 JUMPI PUSH0 DUP1 REVERT JUMPDEST PUSH0 CALLDATALOAD PUSH1 0xE0 SHR DUP1 PUSH4 0x3F009C16 EQ PUSH2 0x7BC JUMPI DUP1 PUSH4 0x4D919405 EQ PUSH2 0x7A2 JUMPI DUP1 PUSH4 0x5CDC73EF EQ PUSH2 0x685 JUMPI DUP1 PUSH4 0x6592041A EQ PUSH2 0x64A JUMPI DUP1 PUSH4 0xAF1D0BD9 EQ PUSH2 0x622 JUMPI DUP1 PUSH4 0xAFEF7DE3 EQ PUSH2 0xEB JUMPI DUP1 PUSH4 0xC1F2C915 EQ PUSH2 0x9F JUMPI PUSH4 0xD6385D60 EQ PUSH2 0x71 JUMPI PUSH0 DUP1 REVERT JUMPDEST CALLVALUE PUSH2 0x9B JUMPI PUSH2 0x97 PUSH2 0x8B PUSH2 0x85 CALLDATASIZE PUSH2 0x8B7 JUMP JUMPDEST SWAP1 PUSH2 0xB87 JUMP JUMPDEST PUSH1 0x40 MLOAD SWAP2 DUP3 SWAP2 DUP3 PUSH2 0x88D JUMP JUMPDEST SUB SWAP1 RETURN JUMPDEST PUSH0 DUP1 REVERT JUMPDEST CALLVALUE PUSH2 0x9B JUMPI PUSH0 DUP1 PUSH1 0x20 DUP1 PUSH2 0xD9 PUSH2 0xB5 CALLDATASIZE PUSH2 0x931 JUMP JUMPDEST SWAP4 SWAP2 SWAP5 SWAP1 PUSH1 0x40 MLOAD SWAP5 DUP2 DUP7 SWAP3 DUP5 DUP5 ADD SWAP9 DUP10 CALLDATACOPY DUP3 ADD SWAP1 DUP4 DUP3 ADD MSTORE SUB ADD DUP1 DUP5 MSTORE ADD DUP3 PUSH2 0x7F7 JUMP JUMPDEST MLOAD SWAP1 PUSH1 0xC GAS STATICCALL POP PUSH2 0x97 PUSH2 0x8B PUSH2 0x993 JUMP JUMPDEST CALLVALUE PUSH2 0x9B JUMPI PUSH1 0x40 CALLDATASIZE PUSH1 0x3 NOT ADD SLT PUSH2 0x9B JUMPI PUSH1 0x4 CALLDATALOAD PUSH1 0x1 PUSH1 0x1 PUSH1 0x40 SHL SUB DUP2 GT PUSH2 0x9B JUMPI PUSH2 0x11B SWAP1 CALLDATASIZE SWAP1 PUSH1 0x4 ADD PUSH2 0x963 JUMP JUMPDEST PUSH1 0x24 CALLDATALOAD PUSH1 0x1 PUSH1 0x1 PUSH1 0x40 SHL SUB DUP2 GT PUSH2 0x9B JUMPI PUSH2 0x13A SWAP1 CALLDATASIZE SWAP1 PUSH1 0x4 ADD PUSH2 0x963 JUMP JUMPDEST SWAP2 SWAP1 DUP2 ISZERO SWAP1 DUP3 DUP1 PUSH1 0x1 SHL DIV PUSH1 0x2 EQ DUP3 OR ISZERO PUSH2 0x457 JUMPI DUP4 DUP4 PUSH1 0x1 SHL SUB PUSH2 0x9B JUMPI PUSH1 0x40 MLOAD PUSH1 0x20 DUP2 ADD SWAP1 PUSH1 0x60 DUP3 MSTORE PUSH2 0x1A1 DUP2 PUSH2 0x18D PUSH2 0x17A PUSH1 0x80 DUP4 ADD DUP10 DUP13 PUSH2 0xA52 JUMP JUMPDEST DUP3 DUP2 SUB PUSH1 0x1F NOT ADD PUSH1 0x40 DUP5 ADD MSTORE DUP10 DUP8 PUSH2 0xA52 JUMP JUMPDEST PUSH0 PUSH1 0x60 DUP4 ADD MSTORE SUB PUSH1 0x1F NOT DUP2 ADD DUP4 MSTORE DUP3 PUSH2 0x7F7 JUMP JUMPDEST MLOAD SWAP1 KECCAK256 SWAP5 PUSH1 0x40 MLOAD PUSH1 0x20 DUP2 ADD SWAP1 PUSH1 0x60 DUP3 MSTORE PUSH2 0x1EE DUP2 PUSH2 0x1D9 PUSH2 0x1C6 PUSH1 0x80 DUP4 ADD DUP11 DUP9 PUSH2 0xA52 JUMP JUMPDEST DUP3 DUP2 SUB PUSH1 0x1F NOT ADD PUSH1 0x40 DUP5 ADD MSTORE DUP11 DUP9 PUSH2 0xA52 JUMP JUMPDEST PUSH1 0x1 PUSH1 0x60 DUP4 ADD MSTORE SUB PUSH1 0x1F NOT DUP2 ADD DUP4 MSTORE DUP3 PUSH2 0x7F7 JUMP JUMPDEST MLOAD SWAP1 KECCAK256 SWAP4 PUSH1 0x1 SWAP5 PUSH0 SWAP5 PUSH1 0xA0 DUP4 MUL SWAP1 DUP4 DUP3 DIV PUSH1 0xA0 EQ OR ISZERO PUSH2 0x457 JUMPI PUSH2 0x211 SWAP1 PUSH2 0xAE9 JUMP JUMPDEST SWAP4 PUSH1 0x2 NOT DUP9 ADD DUP9 DUP2 GT PUSH2 0x457 JUMPI PUSH2 0x120 DUP2 MUL SWAP1 DUP1 DUP3 DIV PUSH2 0x120 EQ SWAP1 ISZERO OR ISZERO PUSH2 0x457 JUMPI PUSH2 0x23C SWAP1 PUSH2 0xAE9 JUMP JUMPDEST SWAP1 DUP4 PUSH0 NOT DUP2 ADD GT PUSH2 0x457 JUMPI PUSH1 0xA0 PUSH0 NOT DUP6 ADD DUP2 DUP2 MUL SWAP2 DUP2 DUP4 DIV EQ SWAP1 ISZERO OR ISZERO PUSH2 0x457 JUMPI PUSH2 0x266 SWAP1 PUSH2 0xAE9 JUMP JUMPDEST SWAP9 PUSH1 0x1 NOT DUP2 ADD DUP2 DUP2 GT PUSH2 0x457 JUMPI PUSH2 0x120 DUP2 MUL SWAP1 DUP1 DUP3 DIV PUSH2 0x120 EQ SWAP1 ISZERO OR ISZERO PUSH2 0x457 JUMPI PUSH2 0x291 SWAP1 PUSH2 0xAE9 JUMP JUMPDEST PUSH0 SWAP10 JUMPDEST DUP7 PUSH0 NOT DUP2 ADD GT PUSH2 0x457 JUMPI PUSH0 NOT DUP8 ADD DUP12 GT PUSH2 0x33B JUMPI DUP13 SWAP1 PUSH0 JUMPDEST DUP13 PUSH1 0x80 DUP3 LT PUSH2 0x2F7 JUMPI POP POP PUSH0 JUMPDEST DUP11 DUP13 PUSH1 0x20 DUP4 LT PUSH2 0x2DF JUMPI POP POP POP PUSH2 0x2D9 SWAP2 PUSH2 0x2D3 SWAP2 PUSH2 0xA3F JUMP JUMPDEST SWAP11 PUSH2 0xB1B JUMP JUMPDEST SWAP10 PUSH2 0x294 JUMP JUMPDEST SWAP1 PUSH2 0x2F0 DUP4 SWAP3 DUP6 PUSH1 0x1 SWAP6 BYTE SWAP3 PUSH2 0xB76 JUMP JUMPDEST MSTORE8 ADD PUSH2 0x2B9 JUMP JUMPDEST DUP13 DUP13 PUSH2 0x32E DUP5 SWAP16 PUSH1 0x1 SWAP6 DUP16 DUP16 PUSH2 0x334 SWAP8 PUSH2 0x314 SWAP2 PUSH2 0x324 SWAP4 PUSH2 0xB29 JUMP JUMPDEST PUSH1 0x1 PUSH1 0x1 PUSH1 0xF8 SHL SUB NOT SWAP4 SWAP2 PUSH2 0xB6A JUMP JUMPDEST CALLDATALOAD AND PUSH0 BYTE SWAP3 PUSH2 0xB76 JUMP JUMPDEST MSTORE8 PUSH2 0xB1B JUMP JUMPDEST SWAP12 ADD PUSH2 0x2AC JUMP JUMPDEST POP DUP9 SWAP5 SWAP6 DUP13 SWAP2 DUP13 SWAP10 SWAP9 SWAP10 PUSH2 0x34E DUP11 PUSH2 0xA29 JUMP JUMPDEST POP PUSH0 SWAP11 DUP10 JUMPDEST PUSH1 0x1 PUSH1 0x1 PUSH1 0xFF SHL SUB DUP6 AND DUP6 SUB PUSH2 0x457 JUMPI PUSH1 0x1 DUP6 SWAP1 SHL PUSH0 NOT DUP2 ADD GT PUSH2 0x457 JUMPI PUSH1 0x1 DUP6 SWAP1 SHL PUSH0 NOT DUP2 ADD PUSH1 0x1 NOT SWAP1 SWAP2 ADD GT PUSH2 0x457 JUMPI PUSH1 0x1 NOT DUP6 PUSH1 0x1 SHL ADD DUP14 GT PUSH2 0x46B JUMPI DUP6 DUP6 DUP15 EQ DUP1 ISZERO PUSH2 0x43F JUMPI JUMPDEST PUSH2 0x432 JUMPI POP PUSH0 JUMPDEST DUP14 PUSH2 0x100 DUP3 LT PUSH2 0x40E JUMPI POP POP DUP11 PUSH0 JUMPDEST PUSH1 0x1F DUP2 GT ISZERO PUSH2 0x3D7 JUMPI POP PUSH2 0x3CB SWAP1 PUSH2 0x3D1 SWAP3 PUSH2 0xA3F JUMP JUMPDEST SWAP13 PUSH2 0xB1B JUMP JUMPDEST SWAP12 PUSH2 0x353 JUMP JUMPDEST SWAP1 POP PUSH1 0x20 DUP2 LT ISZERO PUSH2 0x3FA JUMPI DUP1 DUP3 PUSH2 0x3F3 SWAP3 BYTE PUSH2 0x32E DUP14 DUP14 PUSH2 0xB76 JUMP JUMPDEST DUP12 SWAP1 PUSH2 0x3B4 JUMP JUMPDEST PUSH4 0x4E487B71 PUSH1 0xE0 SHL PUSH0 MSTORE PUSH1 0x32 PUSH1 0x4 MSTORE PUSH1 0x24 PUSH0 REVERT JUMPDEST DUP12 DUP12 PUSH2 0x32E DUP5 SWAP15 PUSH1 0x1 SWAP6 PUSH2 0x324 DUP16 DUP16 SWAP8 PUSH2 0x42B SWAP9 PUSH2 0x314 SWAP3 PUSH2 0xB29 JUMP JUMPDEST SWAP11 ADD PUSH2 0x3A5 JUMP JUMPDEST PUSH2 0x3CB SWAP1 PUSH2 0x3D1 SWAP3 PUSH2 0xA3F JUMP JUMPDEST POP POP DUP5 PUSH0 NOT DUP2 ADD GT PUSH2 0x457 JUMPI DUP6 PUSH0 NOT DUP7 ADD DUP15 EQ PUSH2 0x39E JUMP JUMPDEST PUSH4 0x4E487B71 PUSH1 0xE0 SHL PUSH0 MSTORE PUSH1 0x11 PUSH1 0x4 MSTORE PUSH1 0x24 PUSH0 REVERT JUMPDEST SWAP6 POP DUP9 SWAP3 SWAP5 SWAP4 DUP11 DUP13 PUSH2 0x485 PUSH2 0x47F DUP13 PUSH2 0x9C2 JUMP JUMPDEST DUP1 PUSH2 0xB87 JUMP JUMPDEST POP PUSH0 SWAP9 DUP8 JUMPDEST DUP5 PUSH0 NOT DUP2 ADD GT PUSH2 0x457 JUMPI PUSH0 NOT DUP6 ADD DUP12 GT PUSH2 0x519 JUMPI PUSH0 JUMPDEST DUP12 PUSH1 0x80 DUP3 LT PUSH2 0x4EE JUMPI POP POP DUP9 PUSH0 JUMPDEST PUSH1 0x1F DUP2 GT ISZERO PUSH2 0x4CB JUMPI POP PUSH2 0x2D3 SWAP1 PUSH2 0x4C5 SWAP3 PUSH2 0xA3F JUMP JUMPDEST SWAP10 PUSH2 0x48A JUMP JUMPDEST SWAP1 POP PUSH1 0x20 DUP2 LT ISZERO PUSH2 0x3FA JUMPI DUP1 DUP3 PUSH2 0x4E7 SWAP3 BYTE PUSH2 0x32E DUP12 DUP12 PUSH2 0xB76 JUMP JUMPDEST DUP10 SWAP1 PUSH2 0x4AE JUMP JUMPDEST DUP2 SWAP10 PUSH1 0x1 SWAP3 PUSH2 0x504 PUSH2 0x314 PUSH2 0x512 SWAP5 DUP12 DUP14 PUSH2 0xB29 JUMP JUMPDEST CALLDATALOAD AND PUSH0 BYTE PUSH2 0x32E DUP3 DUP13 PUSH2 0xB76 JUMP JUMPDEST SWAP9 ADD PUSH2 0x4A0 JUMP JUMPDEST POP DUP7 DUP10 DUP7 DUP7 DUP12 PUSH2 0x531 PUSH2 0x52B DUP13 PUSH2 0xA29 JUMP JUMPDEST DUP1 PUSH2 0x9D8 JUMP JUMPDEST POP PUSH0 SWAP6 JUMPDEST PUSH1 0x1 PUSH1 0x1 PUSH1 0xFF SHL SUB DUP4 AND DUP4 SUB PUSH2 0x457 JUMPI PUSH1 0x1 DUP4 SWAP1 SHL PUSH0 NOT DUP2 ADD GT PUSH2 0x457 JUMPI PUSH0 NOT DUP4 PUSH1 0x1 SHL ADD DUP8 GT PUSH2 0x60E JUMPI DUP9 SWAP1 DUP3 DUP5 DUP10 EQ DUP1 ISZERO PUSH2 0x5F2 JUMPI JUMPDEST PUSH2 0x5E4 JUMPI POP PUSH0 JUMPDEST PUSH2 0x100 DUP2 LT PUSH2 0x5B9 JUMPI POP PUSH0 JUMPDEST PUSH1 0x20 DUP2 LT PUSH2 0x5A2 JUMPI POP PUSH2 0x59C SWAP2 PUSH2 0x596 SWAP2 PUSH2 0xA3F JUMP JUMPDEST SWAP7 PUSH2 0xB1B JUMP JUMPDEST SWAP6 PUSH2 0x535 JUMP JUMPDEST DUP1 DUP3 PUSH1 0x1 SWAP3 BYTE PUSH2 0x5B2 DUP11 DUP11 PUSH2 0xB76 JUMP JUMPDEST MSTORE8 ADD PUSH2 0x580 JUMP JUMPDEST SWAP7 PUSH2 0x5DD PUSH1 0x1 SWAP2 DUP10 PUSH2 0x5CF PUSH2 0x314 DUP14 DUP11 DUP13 PUSH2 0xB29 JUMP JUMPDEST CALLDATALOAD AND PUSH0 BYTE PUSH2 0x32E DUP3 DUP12 PUSH2 0xB76 JUMP JUMPDEST SWAP8 ADD PUSH2 0x574 JUMP JUMPDEST PUSH2 0x59C SWAP3 POP PUSH2 0x596 SWAP2 PUSH2 0xA3F JUMP JUMPDEST POP POP SWAP1 POP DUP3 PUSH0 NOT DUP2 ADD GT PUSH2 0x457 JUMPI DUP9 SWAP1 DUP3 PUSH0 NOT DUP6 ADD DUP10 EQ PUSH2 0x56D JUMP JUMPDEST PUSH2 0x617 DUP9 PUSH2 0x9C2 JUMP JUMPDEST POP PUSH1 0x20 PUSH1 0x40 MLOAD PUSH0 DUP2 MSTORE RETURN JUMPDEST CALLVALUE PUSH2 0x9B JUMPI PUSH0 DUP1 PUSH1 0x20 DUP1 PUSH2 0x638 PUSH2 0xB5 CALLDATASIZE PUSH2 0x931 JUMP JUMPDEST MLOAD SWAP1 PUSH1 0xE GAS STATICCALL POP PUSH2 0x97 PUSH2 0x8B PUSH2 0x993 JUMP JUMPDEST CALLVALUE PUSH2 0x9B JUMPI PUSH1 0x20 CALLDATASIZE PUSH1 0x3 NOT ADD SLT PUSH2 0x9B JUMPI PUSH1 0x4 CALLDATALOAD PUSH1 0x1 PUSH1 0x1 PUSH1 0x40 SHL SUB DUP2 GT PUSH2 0x9B JUMPI PUSH2 0x8B PUSH2 0x680 PUSH2 0x97 SWAP3 CALLDATASIZE SWAP1 PUSH1 0x4 ADD PUSH2 0x847 JUMP JUMPDEST PUSH2 0xA29 JUMP JUMPDEST CALLVALUE PUSH2 0x9B JUMPI PUSH1 0x80 CALLDATASIZE PUSH1 0x3 NOT ADD SLT PUSH2 0x9B JUMPI PUSH1 0x4 CALLDATALOAD PUSH1 0x1 PUSH1 0x1 PUSH1 0x40 SHL SUB DUP2 GT PUSH2 0x9B JUMPI PUSH2 0x6B5 SWAP1 CALLDATASIZE SWAP1 PUSH1 0x4 ADD PUSH2 0x904 JUMP JUMPDEST PUSH1 0x24 CALLDATALOAD PUSH1 0x1 PUSH1 0x1 PUSH1 0x40 SHL SUB DUP2 GT PUSH2 0x9B JUMPI PUSH2 0x6D4 SWAP1 CALLDATASIZE SWAP1 PUSH1 0x4 ADD PUSH2 0x904 JUMP JUMPDEST SWAP2 SWAP1 PUSH1 0x44 CALLDATALOAD PUSH1 0x1 PUSH1 0x1 PUSH1 0x40 SHL SUB DUP2 GT PUSH2 0x9B JUMPI PUSH2 0x6F5 SWAP1 CALLDATASIZE SWAP1 PUSH1 0x4 ADD PUSH2 0x904 JUMP JUMPDEST PUSH1 0x64 SWAP3 SWAP2 SWAP3 CALLDATALOAD PUSH1 0x1 PUSH1 0x1 PUSH1 0x40 SHL SUB DUP2 GT PUSH2 0x9B JUMPI DUP6 SWAP4 DUP3 SWAP2 PUSH2 0x71B SWAP1 CALLDATASIZE SWAP1 PUSH1 0x4 ADD PUSH2 0x904 JUMP JUMPDEST SWAP6 DUP7 SWAP5 SWAP2 SWAP6 PUSH1 0x40 MLOAD SWAP10 DUP10 DUP12 SWAP11 PUSH1 0x20 DUP13 ADD SWAP14 DUP15 CALLDATACOPY DUP11 ADD SWAP2 PUSH1 0x20 DUP4 ADD PUSH0 DUP2 MSTORE CALLDATACOPY ADD PUSH1 0x20 ADD SWAP2 PUSH0 DUP4 MSTORE DUP3 CALLDATACOPY ADD SWAP2 PUSH0 DUP4 MSTORE DUP3 CALLDATACOPY ADD PUSH0 DUP2 MSTORE SUB PUSH1 0x1F NOT DUP2 ADD DUP3 MSTORE PUSH2 0x760 SWAP1 DUP3 PUSH2 0x7F7 JUMP JUMPDEST MLOAD SWAP1 GAS SWAP2 PUSH0 SWAP3 SWAP2 PUSH1 0xF DUP5 SWAP4 STATICCALL POP PUSH2 0x775 PUSH2 0x993 JUMP JUMPDEST DUP1 MLOAD PUSH1 0x20 SWAP2 DUP3 ADD MLOAD SWAP1 DUP3 DUP2 LT PUSH2 0x792 JUMPI JUMPDEST POP PUSH1 0x1 PUSH1 0x40 MLOAD SWAP2 EQ DUP2 MSTORE RETURN JUMPDEST PUSH0 NOT SWAP1 DUP4 SUB PUSH1 0x3 SHL SHL AND DUP3 PUSH2 0x786 JUMP JUMPDEST CALLVALUE PUSH2 0x9B JUMPI PUSH2 0x97 PUSH2 0x8B PUSH2 0x7B6 CALLDATASIZE PUSH2 0x8B7 JUMP JUMPDEST SWAP1 PUSH2 0x9D8 JUMP JUMPDEST CALLVALUE PUSH2 0x9B JUMPI PUSH1 0x20 CALLDATASIZE PUSH1 0x3 NOT ADD SLT PUSH2 0x9B JUMPI PUSH1 0x4 CALLDATALOAD PUSH1 0x1 PUSH1 0x1 PUSH1 0x40 SHL SUB DUP2 GT PUSH2 0x9B JUMPI PUSH2 0x8B PUSH2 0x7F2 PUSH2 0x97 SWAP3 CALLDATASIZE SWAP1 PUSH1 0x4 ADD PUSH2 0x847 JUMP JUMPDEST PUSH2 0x9C2 JUMP JUMPDEST SWAP1 PUSH1 0x1F DUP1 NOT SWAP2 ADD AND DUP2 ADD SWAP1 DUP2 LT PUSH1 0x1 PUSH1 0x1 PUSH1 0x40 SHL SUB DUP3 GT OR PUSH2 0x818 JUMPI PUSH1 0x40 MSTORE JUMP JUMPDEST PUSH4 0x4E487B71 PUSH1 0xE0 SHL PUSH0 MSTORE PUSH1 0x41 PUSH1 0x4 MSTORE PUSH1 0x24 PUSH0 REVERT JUMPDEST PUSH1 0x1 PUSH1 0x1 PUSH1 0x40 SHL SUB DUP2 GT PUSH2 0x818 JUMPI PUSH1 0x1F ADD PUSH1 0x1F NOT AND PUSH1 0x20 ADD SWAP1 JUMP JUMPDEST DUP2 PUSH1 0x1F DUP3 ADD SLT ISZERO PUSH2 0x9B JUMPI DUP1 CALLDATALOAD SWAP1 PUSH2 0x85E DUP3 PUSH2 0x82C JUMP JUMPDEST SWAP3 PUSH2 0x86C PUSH1 0x40 MLOAD SWAP5 DUP6 PUSH2 0x7F7 JUMP JUMPDEST DUP3 DUP5 MSTORE PUSH1 0x20 DUP4 DUP4 ADD ADD GT PUSH2 0x9B JUMPI DUP2 PUSH0 SWAP3 PUSH1 0x20 DUP1 SWAP4 ADD DUP4 DUP7 ADD CALLDATACOPY DUP4 ADD ADD MSTORE SWAP1 JUMP JUMPDEST PUSH1 0x20 PUSH1 0x40 SWAP3 DUP2 DUP4 MSTORE DUP1 MLOAD SWAP2 DUP3 SWAP2 DUP3 DUP3 DUP7 ADD MSTORE ADD DUP5 DUP5 ADD MCOPY PUSH0 DUP3 DUP3 ADD DUP5 ADD MSTORE PUSH1 0x1F ADD PUSH1 0x1F NOT AND ADD ADD SWAP1 JUMP JUMPDEST SWAP1 PUSH1 0x40 PUSH1 0x3 NOT DUP4 ADD SLT PUSH2 0x9B JUMPI PUSH1 0x4 CALLDATALOAD PUSH1 0x1 PUSH1 0x1 PUSH1 0x40 SHL SUB DUP2 GT PUSH2 0x9B JUMPI DUP3 PUSH2 0x8E2 SWAP2 PUSH1 0x4 ADD PUSH2 0x847 JUMP JUMPDEST SWAP2 PUSH1 0x24 CALLDATALOAD SWAP1 PUSH1 0x1 PUSH1 0x1 PUSH1 0x40 SHL SUB DUP3 GT PUSH2 0x9B JUMPI PUSH2 0x901 SWAP2 PUSH1 0x4 ADD PUSH2 0x847 JUMP JUMPDEST SWAP1 JUMP JUMPDEST SWAP2 DUP2 PUSH1 0x1F DUP5 ADD SLT ISZERO PUSH2 0x9B JUMPI DUP3 CALLDATALOAD SWAP2 PUSH1 0x1 PUSH1 0x1 PUSH1 0x40 SHL SUB DUP4 GT PUSH2 0x9B JUMPI PUSH1 0x20 DUP4 DUP2 DUP7 ADD SWAP6 ADD ADD GT PUSH2 0x9B JUMPI JUMP JUMPDEST PUSH1 0x40 PUSH1 0x3 NOT DUP3 ADD SLT PUSH2 0x9B JUMPI PUSH1 0x4 CALLDATALOAD SWAP1 PUSH1 0x1 PUSH1 0x1 PUSH1 0x40 SHL SUB DUP3 GT PUSH2 0x9B JUMPI PUSH2 0x95B SWAP2 PUSH1 0x4 ADD PUSH2 0x904 JUMP JUMPDEST SWAP1 SWAP2 PUSH1 0x24 CALLDATALOAD SWAP1 JUMP JUMPDEST SWAP2 DUP2 PUSH1 0x1F DUP5 ADD SLT ISZERO PUSH2 0x9B JUMPI DUP3 CALLDATALOAD SWAP2 PUSH1 0x1 PUSH1 0x1 PUSH1 0x40 SHL SUB DUP4 GT PUSH2 0x9B JUMPI PUSH1 0x20 DUP1 DUP6 ADD SWAP5 DUP5 PUSH1 0x5 SHL ADD ADD GT PUSH2 0x9B JUMPI JUMP JUMPDEST RETURNDATASIZE ISZERO PUSH2 0x9BD JUMPI RETURNDATASIZE SWAP1 PUSH2 0x9A4 DUP3 PUSH2 0x82C JUMP JUMPDEST SWAP2 PUSH2 0x9B2 PUSH1 0x40 MLOAD SWAP4 DUP5 PUSH2 0x7F7 JUMP JUMPDEST DUP3 MSTORE RETURNDATASIZE PUSH0 PUSH1 0x20 DUP5 ADD RETURNDATACOPY JUMP JUMPDEST PUSH1 0x60 SWAP1 JUMP JUMPDEST PUSH0 DUP1 SWAP2 PUSH1 0x20 DUP2 MLOAD SWAP2 ADD PUSH1 0xE GAS STATICCALL POP PUSH2 0x901 PUSH2 0x993 JUMP JUMPDEST PUSH0 SWAP2 SWAP1 PUSH1 0x20 PUSH2 0xA1A DUP5 SWAP4 DUP3 PUSH1 0x40 MLOAD SWAP4 DUP5 SWAP3 DUP2 DUP1 DUP6 ADD SWAP8 DUP1 MLOAD SWAP2 DUP3 SWAP2 ADD DUP10 MCOPY DUP5 ADD SWAP1 DUP3 DUP3 ADD DUP10 DUP2 MSTORE DUP2 MLOAD SWAP4 DUP5 SWAP3 ADD SWAP1 MCOPY ADD ADD DUP6 DUP2 MSTORE SUB PUSH1 0x1F NOT DUP2 ADD DUP4 MSTORE DUP3 PUSH2 0x7F7 JUMP JUMPDEST MLOAD SWAP1 PUSH1 0xB GAS STATICCALL POP PUSH2 0x901 PUSH2 0x993 JUMP JUMPDEST PUSH0 DUP1 SWAP2 PUSH1 0x20 DUP2 MLOAD SWAP2 ADD PUSH1 0xC GAS STATICCALL POP PUSH2 0x901 PUSH2 0x993 JUMP JUMPDEST DUP2 DUP2 MUL SWAP3 SWAP2 DUP2 ISZERO SWAP2 DUP5 DIV EQ OR ISZERO PUSH2 0x457 JUMPI JUMP JUMPDEST SWAP1 PUSH1 0x20 DUP4 DUP3 DUP2 MSTORE ADD SWAP1 PUSH1 0x20 DUP2 PUSH1 0x5 SHL DUP6 ADD ADD SWAP4 DUP4 PUSH0 SWAP2 JUMPDEST DUP4 DUP4 LT PUSH2 0xA79 JUMPI POP POP POP POP POP POP SWAP1 JUMP JUMPDEST SWAP1 SWAP2 SWAP3 SWAP4 SWAP5 SWAP6 PUSH1 0x1F NOT DUP3 DUP3 SUB ADD DUP7 MSTORE DUP7 CALLDATALOAD PUSH1 0x1E NOT DUP5 CALLDATASIZE SUB ADD DUP2 SLT ISZERO PUSH2 0x9B JUMPI DUP4 ADD SWAP1 PUSH1 0x20 DUP3 CALLDATALOAD SWAP3 ADD SWAP2 PUSH1 0x1 PUSH1 0x1 PUSH1 0x40 SHL SUB DUP2 GT PUSH2 0x9B JUMPI DUP1 CALLDATASIZE SUB DUP4 SGT PUSH2 0x9B JUMPI PUSH1 0x20 DUP3 DUP3 DUP1 PUSH1 0x1 SWAP7 DUP5 SWAP7 SWAP6 DUP6 SWAP7 MSTORE DUP5 DUP5 ADD CALLDATACOPY PUSH0 DUP3 DUP3 ADD DUP5 ADD MSTORE PUSH1 0x1F ADD PUSH1 0x1F NOT AND ADD ADD SWAP9 ADD SWAP7 ADD SWAP5 SWAP4 ADD SWAP2 SWAP1 PUSH2 0xA69 JUMP JUMPDEST SWAP1 PUSH2 0xAF3 DUP3 PUSH2 0x82C JUMP JUMPDEST PUSH2 0xB00 PUSH1 0x40 MLOAD SWAP2 DUP3 PUSH2 0x7F7 JUMP JUMPDEST DUP3 DUP2 MSTORE DUP1 SWAP3 PUSH2 0xB11 PUSH1 0x1F NOT SWAP2 PUSH2 0x82C JUMP JUMPDEST ADD SWAP1 PUSH1 0x20 CALLDATASIZE SWAP2 ADD CALLDATACOPY JUMP JUMPDEST PUSH0 NOT DUP2 EQ PUSH2 0x457 JUMPI PUSH1 0x1 ADD SWAP1 JUMP JUMPDEST SWAP2 SWAP1 DUP2 LT ISZERO PUSH2 0x3FA JUMPI PUSH1 0x5 SHL DUP2 ADD CALLDATALOAD SWAP1 PUSH1 0x1E NOT DUP2 CALLDATASIZE SUB ADD DUP3 SLT ISZERO PUSH2 0x9B JUMPI ADD SWAP1 DUP2 CALLDATALOAD SWAP2 PUSH1 0x1 PUSH1 0x1 PUSH1 0x40 SHL SUB DUP4 GT PUSH2 0x9B JUMPI PUSH1 0x20 ADD DUP3 CALLDATASIZE SUB DUP2 SGT PUSH2 0x9B JUMPI SWAP2 SWAP1 JUMP JUMPDEST SWAP1 DUP3 LT ISZERO PUSH2 0x3FA JUMPI ADD SWAP1 JUMP JUMPDEST SWAP1 DUP2 MLOAD DUP2 LT ISZERO PUSH2 0x3FA JUMPI ADD PUSH1 0x20 ADD SWAP1 JUMP JUMPDEST PUSH0 SWAP2 SWAP1 PUSH1 0x20 PUSH2 0xBC9 DUP5 SWAP4 DUP3 PUSH1 0x40 MLOAD SWAP4 DUP5 SWAP3 DUP2 DUP1 DUP6 ADD SWAP8 DUP1 MLOAD SWAP2 DUP3 SWAP2 ADD DUP10 MCOPY DUP5 ADD SWAP1 DUP3 DUP3 ADD DUP10 DUP2 MSTORE DUP2 MLOAD SWAP4 DUP5 SWAP3 ADD SWAP1 MCOPY ADD ADD DUP6 DUP2 MSTORE SUB PUSH1 0x1F NOT DUP2 ADD DUP4 MSTORE DUP3 PUSH2 0x7F7 JUMP JUMPDEST MLOAD SWAP1 PUSH1 0xD GAS STATICCALL POP PUSH2 0x901 PUSH2 0x993 JUMP INVALID LOG2 PUSH5 0x6970667358 0x22 SLT KECCAK256 RETURNDATACOPY MSIZE 0x2E 0xB0 PUSH0 PUSH27 0xB1274B752ECA738BD8C0FE0309EC83917A8CC7FD973385A55B6B64 PUSH20 0x6F6C634300081F00330000000000000000000000 "
				},
				"gasEstimates": {
					"creation": {
						"codeDepositCost": "617200",
						"executionCost": "658",
						"totalCost": "617858"
					},
					"external": {
						"Check(bytes[],bytes[])": "infinite",
						"G1Add(bytes,bytes)": "infinite",
						"G1Mul(bytes,uint256)": "infinite",
						"G1Muls(bytes)": "infinite",
						"G2Add(bytes,bytes)": "infinite",
						"G2Mul(bytes,uint256)": "infinite",
						"G2Muls(bytes)": "infinite",
						"Pairing(bytes,bytes,bytes,bytes)": "infinite"
					}
				},
				"methodIdentifiers": {
					"Check(bytes[],bytes[])": "afef7de3",
					"G1Add(bytes,bytes)": "4d919405",
					"G1Mul(bytes,uint256)": "c1f2c915",
					"G1Muls(bytes)": "6592041a",
					"G2Add(bytes,bytes)": "d6385d60",
					"G2Mul(bytes,uint256)": "af1d0bd9",
					"G2Muls(bytes)": "3f009c16",
					"Pairing(bytes,bytes,bytes,bytes)": "5cdc73ef"
				}
			},
			"storageLayout": {
				"storage": [],
				"types": null
			},
			"userdoc": {
				"kind": "user",
				"methods": {},
				"version": 1
			}
		}
	}
}