{
	"Verfiy.sol": {
		"Verify": {
			"abi": [
				{
					"inputs": [
						{
							"internalType": "bytes[]",
							"name": "g1s",
							"type": "bytes[]"
						},
						{
							"internalType": "bytes[]",
							"name": "g2s",
							"type": "bytes[]"
						}
					],
					"name": "Check2",
					"outputs": [
						{
							"internalType": "bool",
							"name": "",
							"type": "bool"
						}
					],
					"stateMutability": "nonpayable",
					"type": "function"
				},
				{
					"inputs": [
						{
							"internalType": "bytes[]",
							"name": "g1s",
							"type": "bytes[]"
						},
						{
							"internalType": "bytes[]",
							"name": "g2s",
							"type": "bytes[]"
						}
					],
					"name": "Check3",
					"outputs": [
						{
							"internalType": "bool",
							"name": "",
							"type": "bool"
						}
					],
					"stateMutability": "nonpayable",
					"type": "function"
				},
				{
					"inputs": [
						{
							"internalType": "bytes",
							"name": "p1",
							"type": "bytes"
						},
						{
							"internalType": "bytes",
							"name": "p2",
							"type": "bytes"
						},
						{
							"internalType": "bytes",
							"name": "p3",
							"type": "bytes"
						},
						{
							"internalType": "bytes",
							"name": "p4",
							"type": "bytes"
						}
					],
					"name": "EqualPairingCheck",
					"outputs": [
						{
							"internalType": "bool",
							"name": "",
							"type": "bool"
						}
					],
					"stateMutability": "view",
					"type": "function"
				},
				{
					"inputs": [
						{
							"internalType": "bytes",
							"name": "p1",
							"type": "bytes"
						},
						{
							"internalType": "bytes",
							"name": "p2",
							"type": "bytes"
						}
					],
					"name": "G1Add",
					"outputs": [
						{
							"internalType": "bytes",
							"name": "point",
							"type": "bytes"
						}
					],
					"stateMutability": "view",
					"type": "function"
				},
				{
					"inputs": [
						{
							"internalType": "bytes",
							"name": "p1",
							"type": "bytes"
						},
						{
							"internalType": "uint256",
							"name": "scalar",
							"type": "uint256"
						}
					],
					"name": "G1Mul",
					"outputs": [
						{
							"internalType": "bytes",
							"name": "point",
							"type": "bytes"
						}
					],
					"stateMutability": "view",
					"type": "function"
				},
				{
					"inputs": [
						{
							"internalType": "bytes",
							"name": "d",
							"type": "bytes"
						}
					],
					"name": "G1Muls",
					"outputs": [
						{
							"internalType": "bytes",
							"name": "point",
							"type": "bytes"
						}
					],
					"stateMutability": "view",
					"type": "function"
				},
				{
					"inputs": [
						{
							"internalType": "bytes",
							"name": "p1",
							"type": "bytes"
						},
						{
							"internalType": "bytes",
							"name": "p2",
							"type": "bytes"
						}
					],
					"name": "G2Add",
					"outputs": [
						{
							"internalType": "bytes",
							"name": "point",
							"type": "bytes"
						}
					],
					"stateMutability": "view",
					"type": "function"
				},
				{
					"inputs": [
						{
							"internalType": "bytes",
							"name": "p1",
							"type": "bytes"
						},
						{
							"internalType": "uint256",
							"name": "scalar",
							"type": "uint256"
						}
					],
					"name": "G2Mul",
					"outputs": [
						{
							"internalType": "bytes",
							"name": "point",
							"type": "bytes"
						}
					],
					"stateMutability": "view",
					"type": "function"
				},
				{
					"inputs": [
						{
							"internalType": "bytes",
							"name": "d",
							"type": "bytes"
						}
					],
					"name": "G2Muls",
					"outputs": [
						{
							"internalType": "bytes",
							"name": "point",
							"type": "bytes"
						}
					],
					"stateMutability": "view",
					"type": "function"
				},
				{
					"inputs": [
						{
							"internalType": "bytes",
							"name": "p1",
							"type": "bytes"
						},
						{
							"internalType": "bytes",
							"name": "p2",
							"type": "bytes"
						},
						{
							"internalType": "bytes",
							"name": "p3",
							"type": "bytes"
						},
						{
							"internalType": "bytes",
							"name": "p4",
							"type": "bytes"
						}
					],
					"name": "Pairing",
					"outputs": [
						{
							"internalType": "bool",
							"name": "",
							"type": "bool"
						}
					],
					"stateMutability": "view",
					"type": "function"
				},
				{
					"inputs": [],
					"name": "testt",
					"outputs": [],
					"stateMutability": "view",
					"type": "function"
				}
			],
			"devdoc": {
				"kind": "dev",
				"methods": {},
				"version": 1
			},
			"evm": {
				"assembly": "    /* \"Verfiy.sol\":26:10074  contract Verify {... */\n  0x80\n  dup1\n  0x40\n  mstore\n  jumpi(tag_1, callvalue)\n  dataSize(sub_0)\n  swap1\n  dup2\n  dataOffset(sub_0)\n  dup3\n  codecopy\n  return\ntag_1:\n  0x00\n  dup1\n  revert\nstop\n\nsub_0: assembly {\n        /* \"Verfiy.sol\":26:10074  contract Verify {... */\n      mstore(0x40, 0x80)\n      jumpi(tag_65, iszero(lt(calldatasize, 0x04)))\n      0x00\n      dup1\n      revert\n    tag_65:\n      shr(0xe0, calldataload(0x00))\n      dup1\n      0x3f009c16\n      eq\n      tag_67\n      jumpi\n      dup1\n      0x4d919405\n      eq\n      tag_69\n      jumpi\n      dup1\n      0x578a34ce\n      eq\n      tag_71\n      jumpi\n      dup1\n      0x5cdc73ef\n      eq\n      tag_73\n      jumpi\n      dup1\n      0x6592041a\n      eq\n      tag_75\n      jumpi\n      dup1\n      0x6f18b669\n      eq\n      tag_77\n      jumpi\n      dup1\n      0xaf1d0bd9\n      eq\n      tag_79\n      jumpi\n      dup1\n      0xc1f2c915\n      eq\n      tag_81\n      jumpi\n      dup1\n      0xcac924e7\n      eq\n      tag_83\n      jumpi\n      dup1\n      0xd6385d60\n      eq\n      tag_85\n      jumpi\n      0xe1f66c1b\n      eq\n      tag_87\n      jumpi\n      0x00\n      dup1\n      revert\n    tag_87:\n      tag_23\n      jump\t// in\n    tag_85:\n      tag_22\n      jump\t// in\n    tag_83:\n      tag_21\n      jump\t// in\n    tag_81:\n      tag_18\n      jump\t// in\n    tag_79:\n      tag_17\n      jump\t// in\n    tag_77:\n      tag_15\n      jump\t// in\n    tag_75:\n      tag_14\n      jump\t// in\n    tag_73:\n      tag_13\n      jump\t// in\n    tag_71:\n      tag_10\n      jump\t// in\n    tag_69:\n      tag_9\n      jump\t// in\n    tag_67:\n      tag_7\n      jump\t// in\n    tag_1:\n      mstore(0x00, shl(0xe0, 0x4e487b71))\n      mstore(0x04, 0x41)\n      revert(0x00, 0x24)\n    tag_2:\n      swap1\n      0x1f\n      dup1\n      not\n      swap2\n      add\n      and\n      dup2\n      add\n      swap1\n      dup2\n      lt\n      sub(shl(0x40, 0x01), 0x01)\n      dup3\n      gt\n      or\n      tag_89\n      jumpi\n      0x40\n      mstore\n      jump\t// out\n    tag_89:\n      tag_1\n      jump\t// in\n    tag_3:\n      sub(shl(0x40, 0x01), 0x01)\n      dup2\n      gt\n      tag_89\n      jumpi\n      0x1f\n      add\n      not(0x1f)\n      and\n      0x20\n      add\n      swap1\n      jump\t// out\n    tag_4:\n      dup2\n      0x1f\n      dup3\n      add\n      slt\n      iszero\n      tag_97\n      jumpi\n      dup1\n      calldataload\n      swap1\n      tag_95\n      dup3\n      tag_3\n      jump\t// in\n    tag_95:\n      swap3\n      tag_96\n      mload(0x40)\n      swap5\n      dup6\n      tag_2\n      jump\t// in\n    tag_96:\n      dup3\n      dup5\n      mstore\n      0x20\n      dup4\n      dup4\n      add\n      add\n      gt\n      tag_97\n      jumpi\n      dup2\n      0x00\n      swap3\n      0x20\n      dup1\n      swap4\n      add\n      dup4\n      dup7\n      add\n      calldatacopy\n      dup4\n      add\n      add\n      mstore\n      swap1\n      jump\t// out\n    tag_97:\n      0x00\n      dup1\n      revert\n    tag_5:\n      0x20\n      not(0x03)\n      dup3\n      add\n      slt\n      tag_97\n      jumpi\n      calldataload(0x04)\n      swap1\n      sub(shl(0x40, 0x01), 0x01)\n      dup3\n      gt\n      tag_97\n      jumpi\n      tag_103\n      swap2\n      0x04\n      add\n      tag_4\n      jump\t// in\n    tag_103:\n      swap1\n      jump\t// out\n    tag_6:\n      0x20\n      0x40\n      swap3\n      dup2\n      dup4\n      mstore\n      dup1\n      mload\n      swap2\n      dup3\n      swap2\n      dup3\n      dup3\n      dup7\n      add\n      mstore\n      add\n      dup5\n      dup5\n      add\n      mcopy\n      0x00\n      dup3\n      dup3\n      add\n      dup5\n      add\n      mstore\n      0x1f\n      add\n      not(0x1f)\n      and\n      add\n      add\n      swap1\n      jump\t// out\n    tag_7:\n      jumpi(tag_97, callvalue)\n      tag_106\n      tag_107\n      tag_108\n      calldatasize\n      tag_5\n      jump\t// in\n    tag_108:\n      tag_25\n      jump\t// in\n    tag_107:\n      mload(0x40)\n      swap2\n      dup3\n      swap2\n      dup3\n      tag_6\n      jump\t// in\n    tag_106:\n      sub\n      swap1\n      return\n    tag_8:\n      swap1\n      0x40\n      not(0x03)\n      dup4\n      add\n      slt\n      tag_97\n      jumpi\n      calldataload(0x04)\n      sub(shl(0x40, 0x01), 0x01)\n      dup2\n      gt\n      tag_97\n      jumpi\n      dup3\n      tag_113\n      swap2\n      0x04\n      add\n      tag_4\n      jump\t// in\n    tag_113:\n      swap2\n      calldataload(0x24)\n      swap1\n      sub(shl(0x40, 0x01), 0x01)\n      dup3\n      gt\n      tag_97\n      jumpi\n      tag_103\n      swap2\n      0x04\n      add\n      tag_4\n      jump\t// in\n    tag_9:\n      jumpi(tag_97, callvalue)\n      tag_106\n      tag_107\n      tag_121\n      calldatasize\n      tag_8\n      jump\t// in\n    tag_121:\n      swap1\n      tag_27\n      jump\t// in\n    tag_10:\n      jumpi(tag_97, callvalue)\n      jumpi(tag_97, slt(add(not(0x03), calldatasize), 0x00))\n        /* \"Verfiy.sol\":10044:10065  abi.encodePacked(a,b) */\n      tag_126\n        /* \"Verfiy.sol\":26:10074  contract Verify {... */\n      tag_127\n        /* \"Verfiy.sol\":9966:9980  new bytes(200) */\n      tag_128\n      tag_28\n      jump\t// in\n    tag_128:\n        /* \"Verfiy.sol\":26:10074  contract Verify {... */\n      tag_129\n        /* \"Verfiy.sol\":10005:10019  new bytes(200) */\n      tag_130\n      tag_28\n      jump\t// in\n    tag_130:\n        /* \"Verfiy.sol\":26:10074  contract Verify {... */\n      mload(0x40)\n        /* \"Verfiy.sol\":10044:10065  abi.encodePacked(a,b) */\n      swap4\n      dup5\n      swap4\n      0x20\n      dup6\n      add\n        /* \"Verfiy.sol\":26:10074  contract Verify {... */\n      swap1\n      tag_26\n      jump\t// in\n    tag_127:\n      swap1\n      tag_26\n      jump\t// in\n    tag_129:\n        /* \"Verfiy.sol\":10044:10065  abi.encodePacked(a,b) */\n      sub\n        /* \"Verfiy.sol\":26:10074  contract Verify {... */\n      swap1\n      not(0x1f)\n        /* \"Verfiy.sol\":10044:10065  abi.encodePacked(a,b) */\n      dup3\n      add\n      dup2\n      mstore\n      tag_2\n      jump\t// in\n    tag_126:\n        /* \"Verfiy.sol\":26:10074  contract Verify {... */\n      stop\n    tag_11:\n      swap1\n      0x80\n      not(0x03)\n      dup4\n      add\n      slt\n      tag_97\n      jumpi\n      calldataload(0x04)\n      sub(shl(0x40, 0x01), 0x01)\n      dup2\n      gt\n      tag_97\n      jumpi\n      dup3\n      tag_135\n      swap2\n      0x04\n      add\n      tag_4\n      jump\t// in\n    tag_135:\n      swap2\n      calldataload(0x24)\n      sub(shl(0x40, 0x01), 0x01)\n      dup2\n      gt\n      tag_97\n      jumpi\n      dup2\n      tag_138\n      swap2\n      0x04\n      add\n      tag_4\n      jump\t// in\n    tag_138:\n      swap2\n      calldataload(0x44)\n      sub(shl(0x40, 0x01), 0x01)\n      dup2\n      gt\n      tag_97\n      jumpi\n      dup3\n      tag_141\n      swap2\n      0x04\n      add\n      tag_4\n      jump\t// in\n    tag_141:\n      swap2\n      calldataload(0x64)\n      swap1\n      sub(shl(0x40, 0x01), 0x01)\n      dup3\n      gt\n      tag_97\n      jumpi\n      tag_103\n      swap2\n      0x04\n      add\n      tag_4\n      jump\t// in\n    tag_13:\n      jumpi(tag_97, callvalue)\n      0x00\n      dup1\n      tag_127\n      tag_127\n        /* \"Verfiy.sol\":9358:9390  abi.encodePacked(p1, p2, p3, p4) */\n      tag_149\n        /* \"Verfiy.sol\":26:10074  contract Verify {... */\n      tag_150\n      tag_151\n      calldatasize\n      tag_11\n      jump\t// in\n    tag_151:\n      swap2\n      swap4\n      swap3\n      swap7\n      swap1\n      mload(0x40)\n        /* \"Verfiy.sol\":9358:9390  abi.encodePacked(p1, p2, p3, p4) */\n      swap7\n      dup8\n      swap6\n        /* \"Verfiy.sol\":26:10074  contract Verify {... */\n      tag_127\n        /* \"Verfiy.sol\":9358:9390  abi.encodePacked(p1, p2, p3, p4) */\n      0x20\n      dup9\n      add\n        /* \"Verfiy.sol\":26:10074  contract Verify {... */\n      dup1\n      swap12\n      tag_26\n      jump\t// in\n    tag_150:\n        /* \"Verfiy.sol\":9358:9390  abi.encodePacked(p1, p2, p3, p4) */\n      sub\n        /* \"Verfiy.sol\":26:10074  contract Verify {... */\n      not(0x1f)\n        /* \"Verfiy.sol\":9358:9390  abi.encodePacked(p1, p2, p3, p4) */\n      dup2\n      add\n      dup4\n      mstore\n      dup3\n      tag_2\n      jump\t// in\n    tag_149:\n        /* \"Verfiy.sol\":9430:9461  address(0x0f).staticcall(input) */\n      mload\n      swap1\n        /* \"Verfiy.sol\":9438:9442  0x0f */\n      0x0f\n        /* \"Verfiy.sol\":9430:9461  address(0x0f).staticcall(input) */\n      gas\n      staticcall\n      pop\n        /* \"Verfiy.sol\":9358:9390  abi.encodePacked(p1, p2, p3, p4) */\n      0x20\n        /* \"Verfiy.sol\":9503:9504  1 */\n      0x01\n        /* \"Verfiy.sol\":9486:9498  bytes32(ret) */\n      tag_153\n        /* \"Verfiy.sol\":9430:9461  address(0x0f).staticcall(input) */\n      tag_154\n      tag_24\n      jump\t// in\n    tag_154:\n        /* \"Verfiy.sol\":9486:9498  bytes32(ret) */\n      tag_30\n      jump\t// in\n    tag_153:\n        /* \"Verfiy.sol\":9478:9504  uint256(bytes32(ret)) == 1 */\n      eq\n        /* \"Verfiy.sol\":26:10074  contract Verify {... */\n      mload(0x40)\n      swap1\n      dup2\n      mstore\n      return\n    tag_14:\n      jumpi(tag_97, callvalue)\n      tag_106\n      tag_107\n      tag_159\n      calldatasize\n      tag_5\n      jump\t// in\n    tag_159:\n      tag_31\n      jump\t// in\n    tag_15:\n      jumpi(tag_97, callvalue)\n      0x20\n      tag_162\n      tag_163\n      calldatasize\n      tag_11\n      jump\t// in\n    tag_163:\n      swap3\n      swap2\n      swap1\n      swap2\n      tag_32\n      jump\t// in\n    tag_162:\n      mload(0x40)\n      swap1\n      iszero\n      iszero\n      dup2\n      mstore\n      return\n    tag_17:\n      jumpi(tag_97, callvalue)\n      jumpi(tag_97, slt(add(not(0x03), calldatasize), 0x40))\n      calldataload(0x04)\n      sub(shl(0x40, 0x01), 0x01)\n      dup2\n      gt\n      tag_97\n      jumpi\n      calldatasize\n      0x23\n      dup3\n      add\n      slt\n      iszero\n      tag_97\n      jumpi\n      dup1\n      0x04\n      add\n      calldataload\n      sub(shl(0x40, 0x01), 0x01)\n      dup2\n      gt\n      tag_97\n      jumpi\n      calldatasize\n      0x24\n      dup3\n      dup5\n      add\n      add\n      gt\n      tag_97\n      jumpi\n      tag_106\n      swap2\n      tag_107\n      swap2\n      0x24\n      dup1\n      calldataload\n      swap3\n      add\n      tag_33\n      jump\t// in\n    tag_18:\n      jumpi(tag_97, callvalue)\n      jumpi(tag_97, slt(add(not(0x03), calldatasize), 0x40))\n      calldataload(0x04)\n      sub(shl(0x40, 0x01), 0x01)\n      dup2\n      gt\n      tag_97\n      jumpi\n      0x00\n      tag_185\n      dup2\n      swap3\n      calldatasize\n      swap1\n      0x04\n      add\n      tag_4\n      jump\t// in\n    tag_185:\n      calldataload(0x24)\n        /* \"Verfiy.sol\":8114:8142  abi.encodePacked(p1, scalar) */\n      tag_186\n      0x20\n        /* \"Verfiy.sol\":26:10074  contract Verify {... */\n      mload(0x40)\n        /* \"Verfiy.sol\":8114:8142  abi.encodePacked(p1, scalar) */\n      dup1\n      swap4\n        /* \"Verfiy.sol\":26:10074  contract Verify {... */\n      tag_187\n        /* \"Verfiy.sol\":8114:8142  abi.encodePacked(p1, scalar) */\n      dup4\n      dup4\n      add\n        /* \"Verfiy.sol\":26:10074  contract Verify {... */\n      dup1\n      swap8\n      tag_26\n      jump\t// in\n    tag_187:\n      swap1\n      dup2\n      mstore\n        /* \"Verfiy.sol\":8114:8142  abi.encodePacked(p1, scalar) */\n      sub\n      dup1\n      dup5\n      mstore\n      add\n      dup3\n      tag_2\n      jump\t// in\n    tag_186:\n        /* \"Verfiy.sol\":8182:8213  address(0x0c).staticcall(input) */\n      mload\n      swap1\n        /* \"Verfiy.sol\":8190:8194  0x0c */\n      0x0c\n        /* \"Verfiy.sol\":8182:8213  address(0x0c).staticcall(input) */\n      gas\n      staticcall\n      pop\n        /* \"Verfiy.sol\":26:10074  contract Verify {... */\n      tag_106\n        /* \"Verfiy.sol\":8182:8213  address(0x0c).staticcall(input) */\n      tag_107\n      tag_24\n      jump\t// in\n        /* \"Verfiy.sol\":26:10074  contract Verify {... */\n    tag_19:\n      swap2\n      dup2\n      0x1f\n      dup5\n      add\n      slt\n      iszero\n      tag_97\n      jumpi\n      dup3\n      calldataload\n      swap2\n      sub(shl(0x40, 0x01), 0x01)\n      dup4\n      gt\n      tag_97\n      jumpi\n      0x20\n      dup1\n      dup6\n      add\n      swap5\n      dup5\n      0x05\n      shl\n      add\n      add\n      gt\n      tag_97\n      jumpi\n      jump\t// out\n    tag_20:\n      0x40\n      not(0x03)\n      dup3\n      add\n      slt\n      tag_97\n      jumpi\n      calldataload(0x04)\n      sub(shl(0x40, 0x01), 0x01)\n      dup2\n      gt\n      tag_97\n      jumpi\n      dup2\n      tag_200\n      swap2\n      0x04\n      add\n      tag_19\n      jump\t// in\n    tag_200:\n      swap3\n      swap1\n      swap3\n      swap2\n      calldataload(0x24)\n      swap1\n      sub(shl(0x40, 0x01), 0x01)\n      dup3\n      gt\n      tag_97\n      jumpi\n      tag_203\n      swap2\n      0x04\n      add\n      tag_19\n      jump\t// in\n    tag_203:\n      swap1\n      swap2\n      jump\t// out\n    tag_21:\n      jumpi(tag_97, callvalue)\n      tag_206\n      calldatasize\n      tag_20\n      jump\t// in\n    tag_206:\n        /* \"Verfiy.sol\":1287:1293  L1 * 2 */\n      swap2\n      swap1\n      swap3\n        /* \"Verfiy.sol\":1279:1300  require(L1 * 2 == L2) */\n      tag_207\n        /* \"Verfiy.sol\":1287:1293  L1 * 2 */\n      dup4\n      tag_208\n      dup5\n      tag_35\n      jump\t// in\n    tag_208:\n        /* \"Verfiy.sol\":1287:1299  L1 * 2 == L2 */\n      eq\n        /* \"Verfiy.sol\":1279:1300  require(L1 * 2 == L2) */\n      tag_39\n      jump\t// in\n    tag_207:\n        /* \"Verfiy.sol\":1351:1398  uint256(keccak256(abi.encode(g1s, g2s, 0))) % q */\n      tag_209\n        /* \"Verfiy.sol\":26:10074  contract Verify {... */\n      mload(0x40)\n        /* \"Verfiy.sol\":1369:1392  abi.encode(g1s, g2s, 0) */\n      0x20\n      dup2\n      add\n      swap1\n      tag_210\n      dup2\n      tag_150\n      dup9\n      dup11\n      dup10\n      dup10\n      dup9\n      tag_42\n      jump\t// in\n    tag_210:\n        /* \"Verfiy.sol\":26:10074  contract Verify {... */\n      mload\n        /* \"Verfiy.sol\":1359:1393  keccak256(abi.encode(g1s, g2s, 0)) */\n      swap1\n      keccak256\n      mload(0x00)\n      codecopy(0x00, data_3b2d02282c3edcbfc4f9664b53f75892ea03b8fe586039e3ee6fe41258ca9b0d, 0x20)\n      mload(0x00)\n      swap1\n      0x00\n      mstore\n        /* \"Verfiy.sol\":77:143  0x73eda753299d7d483339d80809a1d80553bda402fffe5bfeffffffff00000001 */\n      swap1\n      mod\n      swap1\n      jump\n        /* \"Verfiy.sol\":1351:1398  uint256(keccak256(abi.encode(g1s, g2s, 0))) % q */\n    tag_209:\n        /* \"Verfiy.sol\":26:10074  contract Verify {... */\n      swap4\n        /* \"Verfiy.sol\":1423:1470  uint256(keccak256(abi.encode(g1s, g2s, 1))) % q */\n      tag_212\n        /* \"Verfiy.sol\":26:10074  contract Verify {... */\n      mload(0x40)\n        /* \"Verfiy.sol\":1369:1392  abi.encode(g1s, g2s, 0) */\n      0x20\n        /* \"Verfiy.sol\":1441:1464  abi.encode(g1s, g2s, 1) */\n      dup2\n      add\n      swap1\n      tag_210\n      dup2\n      tag_150\n      dup10\n      dup8\n      dup11\n      dup11\n      dup9\n      tag_44\n      jump\t// in\n        /* \"Verfiy.sol\":1423:1470  uint256(keccak256(abi.encode(g1s, g2s, 1))) % q */\n    tag_212:\n        /* \"Verfiy.sol\":1480:1497  uint256 temp1 = 1 */\n      swap2\n        /* \"Verfiy.sol\":1462:1463  1 */\n      0x01\n        /* \"Verfiy.sol\":1507:1524  uint256 temp2 = 1 */\n      swap4\n        /* \"Verfiy.sol\":1576:1595  new bytes(L1 * 160) */\n      tag_215\n        /* \"Verfiy.sol\":1586:1594  L1 * 160 */\n      tag_216\n      dup3\n      tag_36\n      jump\t// in\n    tag_216:\n        /* \"Verfiy.sol\":1576:1595  new bytes(L1 * 160) */\n      tag_29\n      jump\t// in\n    tag_215:\n        /* \"Verfiy.sol\":1635:1641  L2 - 3 */\n      swap4\n        /* \"Verfiy.sol\":1624:1649  new bytes((L2 - 3) * 288) */\n      tag_217\n        /* \"Verfiy.sol\":1634:1648  (L2 - 3) * 288 */\n      tag_216\n        /* \"Verfiy.sol\":1635:1641  L2 - 3 */\n      tag_219\n      dup10\n      tag_45\n      jump\t// in\n    tag_219:\n        /* \"Verfiy.sol\":1634:1648  (L2 - 3) * 288 */\n      tag_37\n      jump\t// in\n        /* \"Verfiy.sol\":1624:1649  new bytes((L2 - 3) * 288) */\n    tag_217:\n        /* \"Verfiy.sol\":1678:1703  new bytes((L1 - 1) * 160) */\n      tag_220\n        /* \"Verfiy.sol\":1688:1702  (L1 - 1) * 160 */\n      tag_216\n        /* \"Verfiy.sol\":1689:1695  L1 - 1 */\n      tag_222\n      dup6\n      tag_46\n      jump\t// in\n    tag_222:\n        /* \"Verfiy.sol\":1688:1702  (L1 - 1) * 160 */\n      tag_36\n      jump\t// in\n        /* \"Verfiy.sol\":1678:1703  new bytes((L1 - 1) * 160) */\n    tag_220:\n        /* \"Verfiy.sol\":1743:1749  L2 - 2 */\n      swap1\n        /* \"Verfiy.sol\":1732:1757  new bytes((L2 - 2) * 288) */\n      tag_223\n        /* \"Verfiy.sol\":1742:1756  (L2 - 2) * 288 */\n      tag_216\n        /* \"Verfiy.sol\":1743:1749  L2 - 2 */\n      tag_219\n      dup12\n      tag_47\n      jump\t// in\n        /* \"Verfiy.sol\":1732:1757  new bytes((L2 - 2) * 288) */\n    tag_223:\n        /* \"Verfiy.sol\":1842:1847  k = 0 */\n      swap2\n      0x00\n        /* \"Verfiy.sol\":1862:1875  uint256 i = 0 */\n      swap7\n      0x00\n        /* \"Verfiy.sol\":1857:2285  for (uint256 i = 0; i <= L1 - 1; i++) {... */\n      swap10\n        /* \"Verfiy.sol\":1890:1893  i++ */\n    tag_226:\n        /* \"Verfiy.sol\":1882:1888  L1 - 1 */\n      tag_227\n      dup8\n      tag_46\n      jump\t// in\n    tag_227:\n        /* \"Verfiy.sol\":1877:1888  i <= L1 - 1 */\n      dup12\n      gt\n      tag_228\n      jumpi\n        /* \"Verfiy.sol\":1917:1923  g1s[i] */\n      dup13\n      swap1\n        /* \"Verfiy.sol\":1909:1952  require(g1s[i].length == 128, \"bad G1 len\") */\n      tag_230\n        /* \"Verfiy.sol\":1934:1937  128 */\n      0x80\n        /* \"Verfiy.sol\":1917:1923  g1s[i] */\n      tag_231\n      dup15\n      dup12\n      dup14\n      tag_50\n      jump\t// in\n    tag_231:\n        /* \"Verfiy.sol\":1917:1937  g1s[i].length == 128 */\n      swap1\n      pop\n      eq\n        /* \"Verfiy.sol\":1909:1952  require(g1s[i].length == 128, \"bad G1 len\") */\n      tag_51\n      jump\t// in\n    tag_230:\n      0x00\n        /* \"Verfiy.sol\":1986:1993  j < 128 */\n    tag_232:\n      dup12\n      dup14\n        /* \"Verfiy.sol\":1934:1937  128 */\n      0x80\n        /* \"Verfiy.sol\":1986:1993  j < 128 */\n      dup4\n      lt\n      tag_233\n      jumpi\n        /* \"Verfiy.sol\":2133:2146  uint256 j = 0 */\n      pop\n      pop\n      pop\n      0x00\n        /* \"Verfiy.sol\":2148:2154  j < 32 */\n    tag_235:\n      dup12\n        /* \"Verfiy.sol\":1369:1392  abi.encode(g1s, g2s, 0) */\n      0x20\n        /* \"Verfiy.sol\":2148:2154  j < 32 */\n      dup3\n      lt\n      tag_236\n      jumpi\n        /* \"Verfiy.sol\":2252:2274  mulmod(temp1, rho1, q) */\n      pop\n      pop\n        /* \"Verfiy.sol\":1890:1893  i++ */\n      tag_238\n        /* \"Verfiy.sol\":2252:2274  mulmod(temp1, rho1, q) */\n      swap2\n      mload(0x00)\n      codecopy(0x00, data_3b2d02282c3edcbfc4f9664b53f75892ea03b8fe586039e3ee6fe41258ca9b0d, 0x20)\n      mload(0x00)\n      swap1\n      0x00\n      mstore\n      swap2\n      mulmod\n        /* \"Verfiy.sol\":1890:1893  i++ */\n      swap11\n      tag_48\n      jump\t// in\n    tag_238:\n        /* \"Verfiy.sol\":1862:1875  uint256 i = 0 */\n      swap10\n      jump(tag_226)\n        /* \"Verfiy.sol\":2156:2159  j++ */\n    tag_236:\n        /* \"Verfiy.sol\":2188:2195  temp[j] */\n      dup12\n        /* \"Verfiy.sol\":2213:2216  k++ */\n      tag_239\n        /* \"Verfiy.sol\":2188:2195  temp[j] */\n      swap2\n        /* \"Verfiy.sol\":2179:2195  ag1[k] = temp[j] */\n      tag_240\n        /* \"Verfiy.sol\":2188:2195  temp[j] */\n      dup5\n      swap15\n      dup7\n        /* \"Verfiy.sol\":1462:1463  1 */\n      0x01\n        /* \"Verfiy.sol\":2188:2195  temp[j] */\n      swap7\n      byte\n        /* \"Verfiy.sol\":2179:2195  ag1[k] = temp[j] */\n      swap3\n      tag_54\n      jump\t// in\n    tag_240:\n      mstore8\n        /* \"Verfiy.sol\":2213:2216  k++ */\n      tag_48\n      jump\t// in\n    tag_239:\n        /* \"Verfiy.sol\":2156:2159  j++ */\n      swap11\n        /* \"Verfiy.sol\":77:143  0x73eda753299d7d483339d80809a1d80553bda402fffe5bfeffffffff00000001 */\n      add\n        /* \"Verfiy.sol\":2133:2146  uint256 j = 0 */\n      jump(tag_235)\n        /* \"Verfiy.sol\":1995:1998  j++ */\n    tag_233:\n        /* \"Verfiy.sol\":2027:2033  g1s[i] */\n      swap12\n        /* \"Verfiy.sol\":2054:2057  k++ */\n      tag_241\n        /* \"Verfiy.sol\":2027:2033  g1s[i] */\n      swap2\n        /* \"Verfiy.sol\":2018:2036  ag1[k] = g1s[i][j] */\n      tag_240\n        /* \"Verfiy.sol\":2027:2033  g1s[i] */\n      dup3\n      dup6\n      swap16\n      dup16\n      dup16\n      swap8\n      tag_243\n        /* \"Verfiy.sol\":2027:2036  g1s[i][j] */\n      tag_244\n        /* \"Verfiy.sol\":2027:2033  g1s[i] */\n      swap4\n        /* \"Verfiy.sol\":1462:1463  1 */\n      0x01\n        /* \"Verfiy.sol\":2027:2033  g1s[i] */\n      swap11\n        /* \"Verfiy.sol\":2027:2036  g1s[i][j] */\n      tag_245\n        /* \"Verfiy.sol\":2027:2033  g1s[i] */\n      swap5\n      tag_50\n      jump\t// in\n    tag_243:\n        /* \"Verfiy.sol\":2027:2036  g1s[i][j] */\n      swap1\n      tag_52\n      jump\t// in\n    tag_245:\n      calldataload\n      not(sub(shl(0xf8, 0x01), 0x01))\n        /* \"Verfiy.sol\":77:143  0x73eda753299d7d483339d80809a1d80553bda402fffe5bfeffffffff00000001 */\n      and\n      swap1\n      jump\n        /* \"Verfiy.sol\":2027:2036  g1s[i][j] */\n    tag_244:\n      0x00\n        /* \"Verfiy.sol\":2018:2036  ag1[k] = g1s[i][j] */\n      byte\n      swap3\n      tag_54\n      jump\t// in\n        /* \"Verfiy.sol\":2054:2057  k++ */\n    tag_241:\n        /* \"Verfiy.sol\":1995:1998  j++ */\n      swap11\n        /* \"Verfiy.sol\":77:143  0x73eda753299d7d483339d80809a1d80553bda402fffe5bfeffffffff00000001 */\n      add\n        /* \"Verfiy.sol\":1971:1984  uint256 j = 0 */\n      jump(tag_232)\n        /* \"Verfiy.sol\":1877:1888  i <= L1 - 1 */\n    tag_228:\n      pop\n      dup11\n      dup8\n      swap5\n      swap6\n      swap7\n      dup14\n        /* \"Verfiy.sol\":2315:2326  G1Muls(ag1) */\n      tag_246\n        /* \"Verfiy.sol\":1877:1888  i <= L1 - 1 */\n      dup13\n        /* \"Verfiy.sol\":2315:2326  G1Muls(ag1) */\n      tag_31\n      jump\t// in\n    tag_246:\n        /* \"Verfiy.sol\":2384:2389  k = 0 */\n      swap5\n      0x00\n        /* \"Verfiy.sol\":2399:2411  temp2 = rho2 */\n      swap6\n      dup11\n        /* \"Verfiy.sol\":2426:2439  uint256 i = 0 */\n      swap9\n      0x00\n        /* \"Verfiy.sol\":2421:2985  for (uint256 i = 0; i <= 2 * L1 - 1 - 1; i++) {... */\n      swap10\n        /* \"Verfiy.sol\":2462:2465  i++ */\n    tag_247:\n        /* \"Verfiy.sol\":2446:2460  2 * L1 - 1 - 1 */\n      tag_248\n        /* \"Verfiy.sol\":2446:2456  2 * L1 - 1 */\n      tag_250\n        /* \"Verfiy.sol\":2446:2452  2 * L1 */\n      tag_250\n      dup9\n      tag_38\n      jump\t// in\n    tag_250:\n        /* \"Verfiy.sol\":2446:2456  2 * L1 - 1 */\n      tag_46\n      jump\t// in\n        /* \"Verfiy.sol\":2446:2460  2 * L1 - 1 - 1 */\n    tag_248:\n        /* \"Verfiy.sol\":2441:2460  i <= 2 * L1 - 1 - 1 */\n      dup12\n      gt\n      tag_251\n      jumpi\n        /* \"Verfiy.sol\":2540:2546  L1 - 1 */\n      dup13\n      swap1\n      tag_253\n      dup8\n      tag_46\n      jump\t// in\n    tag_253:\n        /* \"Verfiy.sol\":2535:2546  i == L1 - 1 */\n      dup13\n      eq\n        /* \"Verfiy.sol\":2535:2557  i == L1 - 1 || i == L1 */\n      dup1\n      iszero\n      tag_254\n      jumpi\n        /* \"Verfiy.sol\":2462:2465  i++ */\n    tag_255:\n        /* \"Verfiy.sol\":2531:2648  if (i == L1 - 1 || i == L1) {... */\n      tag_256\n      jumpi\n      0x00\n        /* \"Verfiy.sol\":2681:2688  j < 256 */\n    tag_258:\n      dup12\n      dup14\n        /* \"Verfiy.sol\":2685:2688  256 */\n      0x0100\n        /* \"Verfiy.sol\":2681:2688  j < 256 */\n      dup4\n      lt\n      tag_259\n      jumpi\n        /* \"Verfiy.sol\":2828:2841  uint256 j = 0 */\n      pop\n      pop\n      pop\n      0x00\n        /* \"Verfiy.sol\":2843:2854  j <= 32 - 1 */\n    tag_261:\n        /* \"Verfiy.sol\":2848:2854  32 - 1 */\n      0x1f\n        /* \"Verfiy.sol\":2843:2854  j <= 32 - 1 */\n      dup2\n      gt\n      iszero\n      tag_262\n      jumpi\n        /* \"Verfiy.sol\":2952:2974  mulmod(temp2, rho2, q) */\n      pop\n        /* \"Verfiy.sol\":2462:2465  i++ */\n      tag_264\n        /* \"Verfiy.sol\":2952:2974  mulmod(temp2, rho2, q) */\n      swap2\n      mload(0x00)\n      codecopy(0x00, data_3b2d02282c3edcbfc4f9664b53f75892ea03b8fe586039e3ee6fe41258ca9b0d, 0x20)\n      mload(0x00)\n      swap1\n      0x00\n      mstore\n      swap2\n      mulmod\n        /* \"Verfiy.sol\":2462:2465  i++ */\n      swap11\n      tag_48\n      jump\t// in\n    tag_264:\n        /* \"Verfiy.sol\":2426:2439  uint256 i = 0 */\n      swap10\n      jump(tag_247)\n        /* \"Verfiy.sol\":2856:2859  j++ */\n    tag_262:\n        /* \"Verfiy.sol\":2888:2895  temp[j] */\n      swap10\n      swap2\n      pop\n        /* \"Verfiy.sol\":1369:1392  abi.encode(g1s, g2s, 0) */\n      0x20\n        /* \"Verfiy.sol\":2888:2895  temp[j] */\n      dup11\n      lt\n      iszero\n      tag_266\n      jumpi\n        /* \"Verfiy.sol\":2856:2859  j++ */\n      tag_268\n        /* \"Verfiy.sol\":2913:2916  k++ */\n      tag_269\n        /* \"Verfiy.sol\":2888:2895  temp[j] */\n      dup16\n      swap4\n      dup14\n        /* \"Verfiy.sol\":2879:2895  ag2[k] = temp[j] */\n      tag_240\n        /* \"Verfiy.sol\":2888:2895  temp[j] */\n      dup3\n      dup16\n      dup8\n      swap1\n      byte\n        /* \"Verfiy.sol\":2879:2895  ag2[k] = temp[j] */\n      swap3\n      tag_54\n      jump\t// in\n        /* \"Verfiy.sol\":2913:2916  k++ */\n    tag_269:\n        /* \"Verfiy.sol\":2856:2859  j++ */\n      swap11\n      tag_48\n      jump\t// in\n    tag_268:\n        /* \"Verfiy.sol\":2828:2841  uint256 j = 0 */\n      jump(tag_261)\n        /* \"Verfiy.sol\":2888:2895  temp[j] */\n    tag_266:\n      tag_49\n      jump\t// in\n        /* \"Verfiy.sol\":2690:2693  j++ */\n    tag_259:\n        /* \"Verfiy.sol\":2722:2728  g2s[i] */\n      swap12\n        /* \"Verfiy.sol\":2749:2752  k++ */\n      tag_271\n        /* \"Verfiy.sol\":2722:2728  g2s[i] */\n      swap2\n        /* \"Verfiy.sol\":2713:2731  ag2[k] = g2s[i][j] */\n      tag_240\n        /* \"Verfiy.sol\":2722:2728  g2s[i] */\n      dup3\n      dup6\n      swap16\n      dup16\n      dup16\n      swap8\n      tag_243\n        /* \"Verfiy.sol\":2722:2731  g2s[i][j] */\n      tag_244\n        /* \"Verfiy.sol\":2722:2728  g2s[i] */\n      swap4\n        /* \"Verfiy.sol\":1462:1463  1 */\n      0x01\n        /* \"Verfiy.sol\":2722:2728  g2s[i] */\n      swap11\n        /* \"Verfiy.sol\":2722:2731  g2s[i][j] */\n      tag_245\n        /* \"Verfiy.sol\":2722:2728  g2s[i] */\n      swap5\n      tag_50\n      jump\t// in\n        /* \"Verfiy.sol\":2749:2752  k++ */\n    tag_271:\n        /* \"Verfiy.sol\":2690:2693  j++ */\n      swap11\n        /* \"Verfiy.sol\":77:143  0x73eda753299d7d483339d80809a1d80553bda402fffe5bfeffffffff00000001 */\n      add\n        /* \"Verfiy.sol\":2666:2679  uint256 j = 0 */\n      jump(tag_258)\n        /* \"Verfiy.sol\":2531:2648  if (i == L1 - 1 || i == L1) {... */\n    tag_256:\n        /* \"Verfiy.sol\":2462:2465  i++ */\n      tag_264\n        /* \"Verfiy.sol\":2585:2607  mulmod(temp2, rho2, q) */\n      swap2\n      mload(0x00)\n      codecopy(0x00, data_3b2d02282c3edcbfc4f9664b53f75892ea03b8fe586039e3ee6fe41258ca9b0d, 0x20)\n      mload(0x00)\n      swap1\n      0x00\n      mstore\n      swap2\n      mulmod\n        /* \"Verfiy.sol\":2625:2633  continue */\n      swap11\n        /* \"Verfiy.sol\":2462:2465  i++ */\n      tag_48\n      jump\t// in\n        /* \"Verfiy.sol\":2535:2557  i == L1 - 1 || i == L1 */\n    tag_254:\n        /* \"Verfiy.sol\":2550:2557  i == L1 */\n      pop\n      dup7\n      dup13\n      eq\n        /* \"Verfiy.sol\":2535:2557  i == L1 - 1 || i == L1 */\n      jump(tag_255)\n        /* \"Verfiy.sol\":2441:2460  i <= 2 * L1 - 1 - 1 */\n    tag_251:\n      pop\n      dup7\n      swap4\n      swap6\n      swap5\n      dup13\n      dup13\n        /* \"Verfiy.sol\":3044:3060  G2Add(g2, part2) */\n      tag_276\n        /* \"Verfiy.sol\":3015:3026  G2Muls(ag2) */\n      tag_277\n        /* \"Verfiy.sol\":2441:2460  i <= 2 * L1 - 1 - 1 */\n      dup14\n        /* \"Verfiy.sol\":3015:3026  G2Muls(ag2) */\n      tag_25\n      jump\t// in\n    tag_277:\n        /* \"Verfiy.sol\":77:143  0x73eda753299d7d483339d80809a1d80553bda402fffe5bfeffffffff00000001 */\n      tag_278\n      tag_55\n      jump\t// in\n    tag_278:\n        /* \"Verfiy.sol\":3044:3060  G2Add(g2, part2) */\n      tag_61\n      jump\t// in\n    tag_276:\n        /* \"Verfiy.sol\":3118:3123  k = 0 */\n      swap1\n      0x00\n        /* \"Verfiy.sol\":3133:3145  temp1 = rho1 */\n      swap6\n      dup11\n        /* \"Verfiy.sol\":3160:3173  uint256 i = 0 */\n      swap9\n      0x00\n        /* \"Verfiy.sol\":3155:3535  for (uint256 i = 0; i <= L1 - 1 - 1; i++) {... */\n      swap10\n        /* \"Verfiy.sol\":3192:3195  i++ */\n    tag_279:\n        /* \"Verfiy.sol\":3180:3190  L1 - 1 - 1 */\n      tag_280\n        /* \"Verfiy.sol\":3180:3186  L1 - 1 */\n      tag_250\n      dup9\n      tag_46\n      jump\t// in\n        /* \"Verfiy.sol\":3180:3190  L1 - 1 - 1 */\n    tag_280:\n        /* \"Verfiy.sol\":3175:3190  i <= L1 - 1 - 1 */\n      dup12\n      gt\n      tag_282\n      jumpi\n        /* \"Verfiy.sol\":3216:3229  uint256 j = 0 */\n      dup13\n      swap1\n      0x00\n        /* \"Verfiy.sol\":3231:3238  j < 128 */\n    tag_284:\n      dup12\n      dup14\n        /* \"Verfiy.sol\":1934:1937  128 */\n      0x80\n        /* \"Verfiy.sol\":3231:3238  j < 128 */\n      dup4\n      lt\n      tag_285\n      jumpi\n        /* \"Verfiy.sol\":3378:3391  uint256 j = 0 */\n      pop\n      pop\n      pop\n      0x00\n        /* \"Verfiy.sol\":3393:3404  j <= 32 - 1 */\n    tag_287:\n        /* \"Verfiy.sol\":2848:2854  32 - 1 */\n      0x1f\n        /* \"Verfiy.sol\":3393:3404  j <= 32 - 1 */\n      dup2\n      gt\n      iszero\n      tag_288\n      jumpi\n        /* \"Verfiy.sol\":3502:3524  mulmod(temp1, rho1, q) */\n      pop\n        /* \"Verfiy.sol\":3192:3195  i++ */\n      tag_290\n        /* \"Verfiy.sol\":3502:3524  mulmod(temp1, rho1, q) */\n      swap2\n      mload(0x00)\n      codecopy(0x00, data_3b2d02282c3edcbfc4f9664b53f75892ea03b8fe586039e3ee6fe41258ca9b0d, 0x20)\n      mload(0x00)\n      swap1\n      0x00\n      mstore\n      swap2\n      mulmod\n        /* \"Verfiy.sol\":3192:3195  i++ */\n      swap11\n      tag_48\n      jump\t// in\n    tag_290:\n        /* \"Verfiy.sol\":3160:3173  uint256 i = 0 */\n      swap10\n      jump(tag_279)\n        /* \"Verfiy.sol\":3406:3409  j++ */\n    tag_288:\n        /* \"Verfiy.sol\":3438:3445  temp[j] */\n      swap10\n      swap2\n      pop\n        /* \"Verfiy.sol\":1369:1392  abi.encode(g1s, g2s, 0) */\n      0x20\n        /* \"Verfiy.sol\":3438:3445  temp[j] */\n      dup11\n      lt\n      iszero\n      tag_266\n      jumpi\n        /* \"Verfiy.sol\":3406:3409  j++ */\n      tag_293\n        /* \"Verfiy.sol\":3463:3466  k++ */\n      tag_269\n        /* \"Verfiy.sol\":3438:3445  temp[j] */\n      dup16\n      swap4\n      dup14\n        /* \"Verfiy.sol\":3429:3445  ag3[k] = temp[j] */\n      tag_240\n        /* \"Verfiy.sol\":3438:3445  temp[j] */\n      dup3\n      dup16\n      dup8\n      swap1\n      byte\n        /* \"Verfiy.sol\":3429:3445  ag3[k] = temp[j] */\n      swap3\n      tag_54\n      jump\t// in\n        /* \"Verfiy.sol\":3406:3409  j++ */\n    tag_293:\n        /* \"Verfiy.sol\":3378:3391  uint256 j = 0 */\n      jump(tag_287)\n        /* \"Verfiy.sol\":3240:3243  j++ */\n    tag_285:\n        /* \"Verfiy.sol\":3272:3278  g1s[i] */\n      swap12\n        /* \"Verfiy.sol\":3299:3302  k++ */\n      tag_296\n        /* \"Verfiy.sol\":3272:3278  g1s[i] */\n      swap2\n        /* \"Verfiy.sol\":3263:3281  ag3[k] = g1s[i][j] */\n      tag_240\n        /* \"Verfiy.sol\":3272:3278  g1s[i] */\n      dup3\n      dup6\n      swap16\n      dup16\n      dup16\n      swap8\n      tag_243\n        /* \"Verfiy.sol\":3272:3281  g1s[i][j] */\n      tag_244\n        /* \"Verfiy.sol\":3272:3278  g1s[i] */\n      swap4\n        /* \"Verfiy.sol\":1462:1463  1 */\n      0x01\n        /* \"Verfiy.sol\":3272:3278  g1s[i] */\n      swap11\n        /* \"Verfiy.sol\":3272:3281  g1s[i][j] */\n      tag_245\n        /* \"Verfiy.sol\":3272:3278  g1s[i] */\n      swap5\n      tag_50\n      jump\t// in\n        /* \"Verfiy.sol\":3299:3302  k++ */\n    tag_296:\n        /* \"Verfiy.sol\":3240:3243  j++ */\n      swap11\n        /* \"Verfiy.sol\":77:143  0x73eda753299d7d483339d80809a1d80553bda402fffe5bfeffffffff00000001 */\n      add\n        /* \"Verfiy.sol\":3216:3229  uint256 j = 0 */\n      jump(tag_284)\n        /* \"Verfiy.sol\":3175:3190  i <= L1 - 1 - 1 */\n    tag_282:\n      pop\n      dup11\n        /* \"Verfiy.sol\":3594:3610  G1Add(g1, part3) */\n      tag_301\n        /* \"Verfiy.sol\":3565:3576  G1Muls(ag3) */\n      tag_302\n        /* \"Verfiy.sol\":3175:3190  i <= L1 - 1 - 1 */\n      dup12\n      swap9\n      swap7\n      swap8\n      swap9\n        /* \"Verfiy.sol\":3565:3576  G1Muls(ag3) */\n      tag_31\n      jump\t// in\n    tag_302:\n        /* \"Verfiy.sol\":574:1091  hex\"00000000000000000000000000000000024aa2b2f08f0a91260805272dc51051c6e47ad4fa403b02b4510b647ae3d1770bac0326a805bbefd48056c8c121bdb80000000000000000000000000000000013e02b6052719f607dacd3a088274f65596bd0d09920b61ab5da61bbdc7f5049334cf11213945d57e5ac7d055d042b7e000000000000000000000000000000000ce5d527727d6e118cc9cdc6da2e351aadfd9baa8cbdd3a76d429a695160d12c923ac9cc3baca289e193548608b82801000000000000000000000000000000000606c4a02ea734cc32acd2b02bc28b99cb3e287e85a763af267492ab572e99ab3f370d275cec1da1aaa9075ff05f79be\" */\n      tag_303\n      tag_56\n      jump\t// in\n    tag_303:\n        /* \"Verfiy.sol\":3594:3610  G1Add(g1, part3) */\n      tag_27\n      jump\t// in\n    tag_301:\n        /* \"Verfiy.sol\":3669:3674  k = 0 */\n      swap5\n      0x00\n        /* \"Verfiy.sol\":3684:3693  temp2 = 1 */\n      swap4\n        /* \"Verfiy.sol\":1462:1463  1 */\n      0x01\n        /* \"Verfiy.sol\":3708:3721  uint256 i = 0 */\n      swap7\n      0x00\n        /* \"Verfiy.sol\":3703:4249  for (uint256 i = 0; i <= 2 * L1 - 1; i++) {... */\n      swap8\n        /* \"Verfiy.sol\":3740:3743  i++ */\n    tag_304:\n        /* \"Verfiy.sol\":3728:3738  2 * L1 - 1 */\n      tag_305\n        /* \"Verfiy.sol\":3728:3734  2 * L1 */\n      tag_250\n      dup6\n      tag_38\n      jump\t// in\n        /* \"Verfiy.sol\":3728:3738  2 * L1 - 1 */\n    tag_305:\n        /* \"Verfiy.sol\":3723:3738  i <= 2 * L1 - 1 */\n      dup10\n      gt\n      tag_307\n      jumpi\n        /* \"Verfiy.sol\":3763:3770  i == L1 */\n      dup11\n      swap1\n      dup5\n      dup11\n      eq\n        /* \"Verfiy.sol\":3763:3785  i == L1 || i == L1 + 1 */\n      dup1\n      iszero\n      tag_309\n      jumpi\n        /* \"Verfiy.sol\":3740:3743  i++ */\n    tag_310:\n        /* \"Verfiy.sol\":3759:3917  if (i == L1 || i == L1 + 1) {... */\n      tag_311\n      jumpi\n      0x00\n        /* \"Verfiy.sol\":3950:3957  j < 256 */\n    tag_313:\n      dup10\n      dup12\n        /* \"Verfiy.sol\":2685:2688  256 */\n      0x0100\n        /* \"Verfiy.sol\":3950:3957  j < 256 */\n      dup4\n      lt\n      tag_314\n      jumpi\n        /* \"Verfiy.sol\":4097:4110  uint256 j = 0 */\n      pop\n      pop\n      pop\n      0x00\n        /* \"Verfiy.sol\":4112:4118  j < 32 */\n    tag_316:\n      dup10\n        /* \"Verfiy.sol\":1369:1392  abi.encode(g1s, g2s, 0) */\n      0x20\n        /* \"Verfiy.sol\":4112:4118  j < 32 */\n      dup3\n      lt\n      tag_317\n      jumpi\n        /* \"Verfiy.sol\":4216:4238  mulmod(temp2, rho2, q) */\n      pop\n      pop\n        /* \"Verfiy.sol\":3740:3743  i++ */\n      tag_319\n        /* \"Verfiy.sol\":4216:4238  mulmod(temp2, rho2, q) */\n      swap2\n      mload(0x00)\n      codecopy(0x00, data_3b2d02282c3edcbfc4f9664b53f75892ea03b8fe586039e3ee6fe41258ca9b0d, 0x20)\n      mload(0x00)\n      swap1\n      0x00\n      mstore\n      swap2\n      mulmod\n        /* \"Verfiy.sol\":3740:3743  i++ */\n      swap9\n      tag_48\n      jump\t// in\n    tag_319:\n        /* \"Verfiy.sol\":3708:3721  uint256 i = 0 */\n      swap8\n      jump(tag_304)\n        /* \"Verfiy.sol\":4120:4123  j++ */\n    tag_317:\n        /* \"Verfiy.sol\":4152:4159  temp[j] */\n      dup10\n        /* \"Verfiy.sol\":4177:4180  k++ */\n      tag_321\n        /* \"Verfiy.sol\":4152:4159  temp[j] */\n      swap2\n        /* \"Verfiy.sol\":4143:4159  ag4[k] = temp[j] */\n      tag_240\n        /* \"Verfiy.sol\":4152:4159  temp[j] */\n      dup5\n      swap13\n      dup7\n        /* \"Verfiy.sol\":1462:1463  1 */\n      0x01\n        /* \"Verfiy.sol\":4152:4159  temp[j] */\n      swap7\n      byte\n        /* \"Verfiy.sol\":4143:4159  ag4[k] = temp[j] */\n      swap3\n      tag_54\n      jump\t// in\n        /* \"Verfiy.sol\":4177:4180  k++ */\n    tag_321:\n        /* \"Verfiy.sol\":4120:4123  j++ */\n      swap9\n        /* \"Verfiy.sol\":77:143  0x73eda753299d7d483339d80809a1d80553bda402fffe5bfeffffffff00000001 */\n      add\n        /* \"Verfiy.sol\":4097:4110  uint256 j = 0 */\n      jump(tag_316)\n        /* \"Verfiy.sol\":3959:3962  j++ */\n    tag_314:\n        /* \"Verfiy.sol\":3991:3997  g2s[i] */\n      swap10\n        /* \"Verfiy.sol\":4018:4021  k++ */\n      tag_323\n        /* \"Verfiy.sol\":3991:3997  g2s[i] */\n      swap2\n        /* \"Verfiy.sol\":3982:4000  ag4[k] = g2s[i][j] */\n      tag_240\n        /* \"Verfiy.sol\":3991:3997  g2s[i] */\n      dup3\n        /* \"Verfiy.sol\":3991:4000  g2s[i][j] */\n      tag_244\n      tag_245\n        /* \"Verfiy.sol\":3991:3997  g2s[i] */\n      dup8\n      swap16\n      swap8\n      dup16\n      dup16\n      swap10\n        /* \"Verfiy.sol\":1462:1463  1 */\n      0x01\n        /* \"Verfiy.sol\":3991:3997  g2s[i] */\n      swap11\n      tag_243\n      swap3\n      tag_50\n      jump\t// in\n        /* \"Verfiy.sol\":4018:4021  k++ */\n    tag_323:\n        /* \"Verfiy.sol\":3959:3962  j++ */\n      swap9\n        /* \"Verfiy.sol\":77:143  0x73eda753299d7d483339d80809a1d80553bda402fffe5bfeffffffff00000001 */\n      add\n        /* \"Verfiy.sol\":3935:3948  uint256 j = 0 */\n      jump(tag_313)\n        /* \"Verfiy.sol\":3759:3917  if (i == L1 || i == L1 + 1) {... */\n    tag_311:\n        /* \"Verfiy.sol\":3740:3743  i++ */\n      tag_319\n        /* \"Verfiy.sol\":3854:3876  mulmod(temp2, rho2, q) */\n      swap2\n      mload(0x00)\n      codecopy(0x00, data_3b2d02282c3edcbfc4f9664b53f75892ea03b8fe586039e3ee6fe41258ca9b0d, 0x20)\n      mload(0x00)\n      swap1\n      0x00\n      mstore\n      swap2\n      mulmod\n        /* \"Verfiy.sol\":3894:3902  continue */\n      swap9\n        /* \"Verfiy.sol\":3740:3743  i++ */\n      tag_48\n      jump\t// in\n        /* \"Verfiy.sol\":3763:3785  i == L1 || i == L1 + 1 */\n    tag_309:\n        /* \"Verfiy.sol\":3779:3785  L1 + 1 */\n      pop\n      tag_328\n      dup6\n      tag_57\n      jump\t// in\n    tag_328:\n        /* \"Verfiy.sol\":3774:3785  i == L1 + 1 */\n      dup11\n      eq\n        /* \"Verfiy.sol\":3763:3785  i == L1 || i == L1 + 1 */\n      jump(tag_310)\n        /* \"Verfiy.sol\":3723:3738  i <= 2 * L1 - 1 */\n    tag_307:\n        /* \"Verfiy.sol\":26:10074  contract Verify {... */\n      tag_106\n        /* \"Verfiy.sol\":4308:4353  EqualPairingCheck(part1, part2, part3, part4) */\n      tag_330\n        /* \"Verfiy.sol\":3723:3738  i <= 2 * L1 - 1 */\n      dup5\n      dup5\n      dup14\n        /* \"Verfiy.sol\":4279:4290  G2Muls(ag4) */\n      tag_331\n        /* \"Verfiy.sol\":3723:3738  i <= 2 * L1 - 1 */\n      dup14\n        /* \"Verfiy.sol\":4279:4290  G2Muls(ag4) */\n      tag_25\n      jump\t// in\n    tag_331:\n        /* \"Verfiy.sol\":4308:4353  EqualPairingCheck(part1, part2, part3, part4) */\n      swap3\n      tag_32\n      jump\t// in\n    tag_330:\n        /* \"Verfiy.sol\":26:10074  contract Verify {... */\n      mload(0x40)\n      swap1\n      iszero\n      iszero\n      dup2\n      mstore\n      swap1\n      dup2\n      swap1\n      0x20\n      dup3\n      add\n      swap1\n      jump\n    tag_22:\n      jumpi(tag_97, callvalue)\n      tag_106\n      tag_107\n      tag_336\n      calldatasize\n      tag_8\n      jump\t// in\n    tag_336:\n      swap1\n      tag_61\n      jump\t// in\n    tag_23:\n      jumpi(tag_97, callvalue)\n      tag_339\n      calldatasize\n      tag_20\n      jump\t// in\n    tag_339:\n        /* \"Verfiy.sol\":4525:4531  L1 > 0 */\n      swap1\n      swap3\n      swap2\n        /* \"Verfiy.sol\":4517:4532  require(L1 > 0) */\n      tag_340\n        /* \"Verfiy.sol\":4525:4531  L1 > 0 */\n      dup2\n      iszero\n      iszero\n        /* \"Verfiy.sol\":4517:4532  require(L1 > 0) */\n      tag_39\n      jump\t// in\n    tag_340:\n        /* \"Verfiy.sol\":4538:4559  require(L1 * 2 == L2) */\n      tag_341\n        /* \"Verfiy.sol\":4546:4552  L1 * 2 */\n      dup3\n      tag_208\n      dup4\n      tag_35\n      jump\t// in\n        /* \"Verfiy.sol\":4538:4559  require(L1 * 2 == L2) */\n    tag_341:\n        /* \"Verfiy.sol\":4581:4637  uint256(keccak256(abi.encode(g1s, g2s, uint256(0)))) % q */\n      tag_343\n        /* \"Verfiy.sol\":26:10074  contract Verify {... */\n      mload(0x40)\n        /* \"Verfiy.sol\":4599:4631  abi.encode(g1s, g2s, uint256(0)) */\n      0x20\n      dup2\n      add\n      swap1\n      tag_210\n      dup2\n      tag_150\n      dup8\n      dup11\n      dup9\n      dup12\n      dup9\n      tag_42\n      jump\t// in\n        /* \"Verfiy.sol\":4581:4637  uint256(keccak256(abi.encode(g1s, g2s, uint256(0)))) % q */\n    tag_343:\n        /* \"Verfiy.sol\":26:10074  contract Verify {... */\n      swap2\n        /* \"Verfiy.sol\":4658:4714  uint256(keccak256(abi.encode(g1s, g2s, uint256(1)))) % q */\n      tag_346\n        /* \"Verfiy.sol\":26:10074  contract Verify {... */\n      mload(0x40)\n        /* \"Verfiy.sol\":4599:4631  abi.encode(g1s, g2s, uint256(0)) */\n      0x20\n        /* \"Verfiy.sol\":4676:4708  abi.encode(g1s, g2s, uint256(1)) */\n      dup2\n      add\n      swap1\n      tag_210\n      dup2\n      tag_150\n      dup7\n      dup12\n      dup10\n      dup13\n      dup9\n      tag_44\n      jump\t// in\n        /* \"Verfiy.sol\":4658:4714  uint256(keccak256(abi.encode(g1s, g2s, uint256(1)))) % q */\n    tag_346:\n        /* \"Verfiy.sol\":4721:4730  uint256 k */\n      swap5\n        /* \"Verfiy.sol\":4826:4845  new bytes(L1 * 160) */\n      tag_349\n        /* \"Verfiy.sol\":4836:4844  L1 * 160 */\n      tag_216\n      dup5\n      tag_36\n      jump\t// in\n        /* \"Verfiy.sol\":4826:4845  new bytes(L1 * 160) */\n    tag_349:\n        /* \"Verfiy.sol\":4705:4706  1 */\n      0x01\n      0x00\n        /* \"Verfiy.sol\":4882:4895  uint256 i = 0 */\n      dup7\n      dup2\n        /* \"Verfiy.sol\":4897:4903  i < L1 */\n    tag_351:\n      dup8\n      dup11\n      dup2\n      dup6\n      lt\n      tag_352\n      jumpi\n        /* \"Verfiy.sol\":5188:5199  G1Muls(ag1) */\n      pop\n      pop\n      pop\n      pop\n      pop\n      pop\n      tag_354\n      swap1\n      tag_31\n      jump\t// in\n    tag_354:\n        /* \"Verfiy.sol\":5358:5382  new bytes(slices2 * 288) */\n      tag_355\n        /* \"Verfiy.sol\":5368:5381  slices2 * 288 */\n      tag_216\n        /* \"Verfiy.sol\":5323:5333  2 * L1 - 3 */\n      tag_219\n        /* \"Verfiy.sol\":5323:5329  2 * L1 */\n      tag_358\n      dup8\n      tag_38\n      jump\t// in\n    tag_358:\n        /* \"Verfiy.sol\":5323:5333  2 * L1 - 3 */\n      tag_45\n      jump\t// in\n        /* \"Verfiy.sol\":5358:5382  new bytes(slices2 * 288) */\n    tag_355:\n        /* \"Verfiy.sol\":5389:5394  k = 0 */\n      swap4\n      0x00\n        /* \"Verfiy.sol\":5400:5412  temp2 = rho2 */\n      swap6\n      dup9\n        /* \"Verfiy.sol\":5423:5436  uint256 i = 0 */\n      swap3\n      0x00\n        /* \"Verfiy.sol\":5418:5858  for (uint256 i = 0; i <= 2 * L1 - 2; ) {... */\n      swap8\n        /* \"Verfiy.sol\":5423:5436  uint256 i = 0 */\n    tag_359:\n        /* \"Verfiy.sol\":5443:5453  2 * L1 - 2 */\n      tag_360\n        /* \"Verfiy.sol\":5443:5449  2 * L1 */\n      tag_361\n      dup6\n      tag_38\n      jump\t// in\n    tag_361:\n        /* \"Verfiy.sol\":5443:5453  2 * L1 - 2 */\n      tag_47\n      jump\t// in\n    tag_360:\n        /* \"Verfiy.sol\":5438:5453  i <= 2 * L1 - 2 */\n      dup10\n      gt\n      tag_362\n      jumpi\n        /* \"Verfiy.sol\":5476:5482  L1 - 1 */\n      dup8\n      dup12\n      swap2\n      dup11\n      dup10\n      dup10\n      tag_364\n      dup10\n      tag_46\n      jump\t// in\n    tag_364:\n        /* \"Verfiy.sol\":5471:5482  i == L1 - 1 */\n      dup4\n      eq\n        /* \"Verfiy.sol\":5471:5493  i == L1 - 1 || i == L1 */\n      dup1\n      iszero\n      tag_365\n      jumpi\n        /* \"Verfiy.sol\":5423:5436  uint256 i = 0 */\n    tag_366:\n        /* \"Verfiy.sol\":5467:5603  if (i == L1 - 1 || i == L1) {... */\n      tag_367\n      jumpi\n        /* \"Verfiy.sol\":5632:5638  g2s[i] */\n      dup10\n        /* \"Verfiy.sol\":5719:5727  k += 256 */\n      tag_369\n        /* \"Verfiy.sol\":5632:5638  g2s[i] */\n      dup6\n        /* \"Verfiy.sol\":5668:5671  256 */\n      tag_370\n        /* \"Verfiy.sol\":4705:4706  1 */\n      0x01\n        /* \"Verfiy.sol\":5632:5638  g2s[i] */\n      swap10\n      swap8\n      dup10\n        /* \"Verfiy.sol\":5668:5671  256 */\n      0x0100\n        /* \"Verfiy.sol\":5648:5672  require(p.length == 256) */\n      tag_371\n        /* \"Verfiy.sol\":5632:5638  g2s[i] */\n      tag_372\n        /* \"Verfiy.sol\":5776:5783  k += 32 */\n      tag_373\n        /* \"Verfiy.sol\":5632:5638  g2s[i] */\n      swap12\n      mload(0x00)\n      codecopy(0x00, data_3b2d02282c3edcbfc4f9664b53f75892ea03b8fe586039e3ee6fe41258ca9b0d, 0x20)\n      mload(0x00)\n      swap1\n      0x00\n      mstore\n      swap15\n      swap12\n        /* \"Verfiy.sol\":5760:5765  temp2 */\n      tag_374\n        /* \"Verfiy.sol\":5632:5638  g2s[i] */\n      swap12\n      tag_50\n      jump\t// in\n    tag_372:\n        /* \"Verfiy.sol\":5656:5671  p.length == 256 */\n      swap1\n      swap3\n      eq\n        /* \"Verfiy.sol\":5648:5672  require(p.length == 256) */\n      tag_39\n      jump\t// in\n    tag_371:\n        /* \"Verfiy.sol\":5668:5671  256 */\n      tag_63\n      jump\t// in\n    tag_370:\n        /* \"Verfiy.sol\":5719:5727  k += 256 */\n      tag_60\n      jump\t// in\n    tag_369:\n        /* \"Verfiy.sol\":7589:7650  assembly {... */\n      swap3\n      dup4\n      add\n      0x20\n      add\n      mstore\n        /* \"Verfiy.sol\":7501:7652  function _mstoreScalar(bytes memory dst, uint256 dstOff, uint256 x) internal pure {... */\n      jump\n        /* \"Verfiy.sol\":5760:5765  temp2 */\n    tag_374:\n        /* \"Verfiy.sol\":5776:5783  k += 32 */\n      tag_59\n      jump\t// in\n    tag_373:\n        /* \"Verfiy.sol\":5802:5824  mulmod(temp2, rho2, q) */\n      swap7\n      mulmod\n        /* \"Verfiy.sol\":77:143  0x73eda753299d7d483339d80809a1d80553bda402fffe5bfeffffffff00000001 */\n      swap9\n      add\n        /* \"Verfiy.sol\":5423:5436  uint256 i = 0 */\n      swap9\n    tag_375:\n      swap9\n      swap8\n      swap4\n      jump(tag_359)\n        /* \"Verfiy.sol\":5467:5603  if (i == L1 - 1 || i == L1) {... */\n    tag_367:\n        /* \"Verfiy.sol\":5517:5539  mulmod(temp2, rho2, q) */\n      pop\n      pop\n      pop\n      swap6\n      mload(0x00)\n      codecopy(0x00, data_3b2d02282c3edcbfc4f9664b53f75892ea03b8fe586039e3ee6fe41258ca9b0d, 0x20)\n      mload(0x00)\n      swap1\n      0x00\n      mstore\n      swap2\n      pop\n      swap2\n        /* \"Verfiy.sol\":4705:4706  1 */\n      0x01\n        /* \"Verfiy.sol\":5517:5539  mulmod(temp2, rho2, q) */\n      swap3\n      mulmod\n        /* \"Verfiy.sol\":77:143  0x73eda753299d7d483339d80809a1d80553bda402fffe5bfeffffffff00000001 */\n      swap9\n      add\n        /* \"Verfiy.sol\":5584:5592  continue */\n      swap9\n      jump(tag_375)\n        /* \"Verfiy.sol\":5471:5493  i == L1 - 1 || i == L1 */\n    tag_365:\n        /* \"Verfiy.sol\":5486:5493  i == L1 */\n      pop\n      dup9\n      dup4\n      eq\n        /* \"Verfiy.sol\":5471:5493  i == L1 - 1 || i == L1 */\n      jump(tag_366)\n        /* \"Verfiy.sol\":5438:5453  i <= 2 * L1 - 2 */\n    tag_362:\n      pop\n      dup9\n      swap2\n      swap4\n      pop\n      dup10\n      swap3\n        /* \"Verfiy.sol\":5909:5925  G2Add(g2, part2) */\n      tag_376\n        /* \"Verfiy.sol\":5884:5895  G2Muls(ag2) */\n      tag_277\n        /* \"Verfiy.sol\":5438:5453  i <= 2 * L1 - 2 */\n      dup10\n        /* \"Verfiy.sol\":5884:5895  G2Muls(ag2) */\n      tag_25\n      jump\t// in\n        /* \"Verfiy.sol\":5909:5925  G2Add(g2, part2) */\n    tag_376:\n        /* \"Verfiy.sol\":5972:5979  L1 >= 2 */\n      swap3\n        /* \"Verfiy.sol\":5964:5980  require(L1 >= 2) */\n      tag_379\n        /* \"Verfiy.sol\":4551:4552  2 */\n      0x02\n        /* \"Verfiy.sol\":5972:5979  L1 >= 2 */\n      dup4\n      lt\n      iszero\n        /* \"Verfiy.sol\":5964:5980  require(L1 >= 2) */\n      tag_39\n      jump\t// in\n    tag_379:\n        /* \"Verfiy.sol\":6005:6030  new bytes((L1 - 1) * 160) */\n      tag_380\n        /* \"Verfiy.sol\":6015:6029  (L1 - 1) * 160 */\n      tag_216\n        /* \"Verfiy.sol\":6016:6022  L1 - 1 */\n      tag_222\n      dup5\n      tag_46\n      jump\t// in\n        /* \"Verfiy.sol\":6005:6030  new bytes((L1 - 1) * 160) */\n    tag_380:\n        /* \"Verfiy.sol\":6037:6042  k = 0 */\n      swap4\n      0x00\n        /* \"Verfiy.sol\":6048:6060  temp1 = rho1 */\n      swap6\n      dup8\n        /* \"Verfiy.sol\":6071:6084  uint256 i = 0 */\n      swap5\n      0x00\n        /* \"Verfiy.sol\":6066:6355  for (uint256 i = 0; i < L1 - 1; ) {... */\n      swap8\n        /* \"Verfiy.sol\":6071:6084  uint256 i = 0 */\n    tag_383:\n        /* \"Verfiy.sol\":6090:6096  L1 - 1 */\n      tag_384\n      dup7\n      tag_46\n      jump\t// in\n    tag_384:\n        /* \"Verfiy.sol\":6086:6096  i < L1 - 1 */\n      dup10\n      lt\n      iszero\n      tag_385\n      jumpi\n      mload(0x00)\n      codecopy(0x00, data_3b2d02282c3edcbfc4f9664b53f75892ea03b8fe586039e3ee6fe41258ca9b0d, 0x20)\n      mload(0x00)\n      swap1\n      0x00\n      mstore\n        /* \"Verfiy.sol\":6129:6135  g1s[i] */\n      dup11\n        /* \"Verfiy.sol\":6273:6280  k += 32 */\n      tag_387\n        /* \"Verfiy.sol\":6129:6135  g1s[i] */\n      dup11\n        /* \"Verfiy.sol\":6257:6262  temp1 */\n      tag_374\n        /* \"Verfiy.sol\":6129:6135  g1s[i] */\n      dup12\n        /* \"Verfiy.sol\":6216:6224  k += 128 */\n      tag_369\n        /* \"Verfiy.sol\":6129:6135  g1s[i] */\n      dup16\n      swap8\n        /* \"Verfiy.sol\":4972:4975  128 */\n      tag_390\n        /* \"Verfiy.sol\":6129:6135  g1s[i] */\n      dup2\n      dup16\n      dup16\n        /* \"Verfiy.sol\":6145:6169  require(p.length == 128) */\n      tag_391\n        /* \"Verfiy.sol\":6129:6135  g1s[i] */\n      tag_372\n        /* \"Verfiy.sol\":4705:4706  1 */\n      0x01\n        /* \"Verfiy.sol\":6129:6135  g1s[i] */\n      swap15\n      dup12\n      swap5\n        /* \"Verfiy.sol\":4972:4975  128 */\n      0x80\n        /* \"Verfiy.sol\":6129:6135  g1s[i] */\n      swap5\n      tag_50\n      jump\t// in\n        /* \"Verfiy.sol\":6145:6169  require(p.length == 128) */\n    tag_391:\n        /* \"Verfiy.sol\":4972:4975  128 */\n      tag_62\n      jump\t// in\n    tag_390:\n        /* \"Verfiy.sol\":6216:6224  k += 128 */\n      tag_58\n      jump\t// in\n        /* \"Verfiy.sol\":6273:6280  k += 32 */\n    tag_387:\n        /* \"Verfiy.sol\":6299:6321  mulmod(temp1, rho1, q) */\n      swap9\n      mulmod\n        /* \"Verfiy.sol\":77:143  0x73eda753299d7d483339d80809a1d80553bda402fffe5bfeffffffff00000001 */\n      swap9\n      add\n        /* \"Verfiy.sol\":6071:6084  uint256 i = 0 */\n      swap8\n      swap6\n      jump(tag_383)\n        /* \"Verfiy.sol\":6086:6096  i < L1 - 1 */\n    tag_385:\n      pop\n      dup5\n      swap4\n      pop\n      dup11\n      dup11\n        /* \"Verfiy.sol\":6406:6422  G1Add(g1, part3) */\n      tag_393\n        /* \"Verfiy.sol\":6381:6392  G1Muls(ag3) */\n      tag_302\n        /* \"Verfiy.sol\":6086:6096  i < L1 - 1 */\n      dup11\n        /* \"Verfiy.sol\":6381:6392  G1Muls(ag3) */\n      tag_31\n      jump\t// in\n        /* \"Verfiy.sol\":6406:6422  G1Add(g1, part3) */\n    tag_393:\n        /* \"Verfiy.sol\":6580:6604  new bytes(slices4 * 288) */\n      tag_396\n        /* \"Verfiy.sol\":6590:6603  slices4 * 288 */\n      tag_216\n        /* \"Verfiy.sol\":6545:6555  2 * L1 - 2 */\n      tag_219\n        /* \"Verfiy.sol\":6545:6551  2 * L1 */\n      tag_361\n      dup11\n      tag_38\n      jump\t// in\n        /* \"Verfiy.sol\":6580:6604  new bytes(slices4 * 288) */\n    tag_396:\n        /* \"Verfiy.sol\":6611:6616  k = 0 */\n      swap7\n      0x00\n      swap5\n        /* \"Verfiy.sol\":4705:4706  1 */\n      0x01\n      swap3\n      dup7\n        /* \"Verfiy.sol\":6642:6655  uint256 i = 0 */\n    tag_400:\n        /* \"Verfiy.sol\":6662:6672  2 * L1 - 1 */\n      tag_401\n        /* \"Verfiy.sol\":6662:6668  2 * L1 */\n      tag_250\n      dup6\n      tag_38\n      jump\t// in\n        /* \"Verfiy.sol\":6662:6672  2 * L1 - 1 */\n    tag_401:\n        /* \"Verfiy.sol\":6657:6672  i <= 2 * L1 - 1 */\n      dup9\n      gt\n      tag_403\n      jumpi\n        /* \"Verfiy.sol\":6690:6697  i == L1 */\n      dup11\n      dup10\n      swap2\n      dup10\n      dup10\n      dup10\n      dup9\n      dup4\n      eq\n        /* \"Verfiy.sol\":6690:6712  i == L1 || i == L1 + 1 */\n      dup1\n      iszero\n      tag_405\n      jumpi\n        /* \"Verfiy.sol\":6642:6655  uint256 i = 0 */\n    tag_406:\n        /* \"Verfiy.sol\":6686:6822  if (i == L1 || i == L1 + 1) {... */\n      tag_407\n      jumpi\n        /* \"Verfiy.sol\":6851:6857  g2s[i] */\n      dup10\n        /* \"Verfiy.sol\":6938:6946  k += 256 */\n      tag_369\n        /* \"Verfiy.sol\":6851:6857  g2s[i] */\n      dup6\n        /* \"Verfiy.sol\":5668:5671  256 */\n      tag_370\n        /* \"Verfiy.sol\":4705:4706  1 */\n      0x01\n        /* \"Verfiy.sol\":6851:6857  g2s[i] */\n      swap10\n      swap8\n      dup10\n        /* \"Verfiy.sol\":5668:5671  256 */\n      0x0100\n        /* \"Verfiy.sol\":6867:6891  require(p.length == 256) */\n      tag_371\n        /* \"Verfiy.sol\":6851:6857  g2s[i] */\n      tag_372\n        /* \"Verfiy.sol\":6995:7002  k += 32 */\n      tag_413\n        /* \"Verfiy.sol\":6851:6857  g2s[i] */\n      swap12\n      mload(0x00)\n      codecopy(0x00, data_3b2d02282c3edcbfc4f9664b53f75892ea03b8fe586039e3ee6fe41258ca9b0d, 0x20)\n      mload(0x00)\n      swap1\n      0x00\n      mstore\n      swap15\n      swap12\n        /* \"Verfiy.sol\":6979:6984  temp2 */\n      tag_374\n        /* \"Verfiy.sol\":6851:6857  g2s[i] */\n      swap12\n      tag_50\n      jump\t// in\n        /* \"Verfiy.sol\":6995:7002  k += 32 */\n    tag_413:\n        /* \"Verfiy.sol\":7021:7043  mulmod(temp2, rho2, q) */\n      swap7\n      mulmod\n        /* \"Verfiy.sol\":77:143  0x73eda753299d7d483339d80809a1d80553bda402fffe5bfeffffffff00000001 */\n      swap8\n      add\n        /* \"Verfiy.sol\":6642:6655  uint256 i = 0 */\n      swap9\n    tag_415:\n      swap9\n      swap7\n      swap4\n      jump(tag_400)\n        /* \"Verfiy.sol\":6686:6822  if (i == L1 || i == L1 + 1) {... */\n    tag_407:\n        /* \"Verfiy.sol\":6736:6758  mulmod(temp2, rho2, q) */\n      pop\n      pop\n      pop\n      swap6\n      mload(0x00)\n      codecopy(0x00, data_3b2d02282c3edcbfc4f9664b53f75892ea03b8fe586039e3ee6fe41258ca9b0d, 0x20)\n      mload(0x00)\n      swap1\n      0x00\n      mstore\n      swap2\n      pop\n      swap2\n        /* \"Verfiy.sol\":4705:4706  1 */\n      0x01\n        /* \"Verfiy.sol\":6736:6758  mulmod(temp2, rho2, q) */\n      swap3\n      mulmod\n        /* \"Verfiy.sol\":77:143  0x73eda753299d7d483339d80809a1d80553bda402fffe5bfeffffffff00000001 */\n      swap8\n      add\n        /* \"Verfiy.sol\":6803:6811  continue */\n      swap9\n      jump(tag_415)\n        /* \"Verfiy.sol\":6690:6712  i == L1 || i == L1 + 1 */\n    tag_405:\n        /* \"Verfiy.sol\":6706:6712  L1 + 1 */\n      pop\n      tag_416\n      dup10\n      tag_57\n      jump\t// in\n    tag_416:\n        /* \"Verfiy.sol\":6701:6712  i == L1 + 1 */\n      dup4\n      eq\n        /* \"Verfiy.sol\":6690:6712  i == L1 || i == L1 + 1 */\n      jump(tag_406)\n        /* \"Verfiy.sol\":6657:6672  i <= 2 * L1 - 1 */\n    tag_403:\n      pop\n        /* \"Verfiy.sol\":26:10074  contract Verify {... */\n      tag_106\n        /* \"Verfiy.sol\":6657:6672  i <= 2 * L1 - 1 */\n      swap2\n        /* \"Verfiy.sol\":7128:7173  EqualPairingCheck(part1, part2, part3, part4) */\n      tag_330\n        /* \"Verfiy.sol\":6657:6672  i <= 2 * L1 - 1 */\n      swap2\n      dup11\n        /* \"Verfiy.sol\":7103:7114  G2Muls(ag4) */\n      tag_331\n        /* \"Verfiy.sol\":6657:6672  i <= 2 * L1 - 1 */\n      dup14\n        /* \"Verfiy.sol\":7103:7114  G2Muls(ag4) */\n      tag_25\n      jump\t// in\n        /* \"Verfiy.sol\":4882:4895  uint256 i = 0 */\n    tag_352:\n        /* \"Verfiy.sol\":5023:5031  k += 128 */\n      tag_420\n        /* \"Verfiy.sol\":4936:4942  g1s[i] */\n      dup4\n        /* \"Verfiy.sol\":4972:4975  128 */\n      tag_390\n      mload(0x00)\n      codecopy(0x00, data_3b2d02282c3edcbfc4f9664b53f75892ea03b8fe586039e3ee6fe41258ca9b0d, 0x20)\n      mload(0x00)\n      swap1\n      0x00\n      mstore\n        /* \"Verfiy.sol\":4936:4942  g1s[i] */\n      swap6\n      dup11\n        /* \"Verfiy.sol\":4972:4975  128 */\n      0x80\n        /* \"Verfiy.sol\":4952:4976  require(p.length == 128) */\n      tag_391\n        /* \"Verfiy.sol\":4936:4942  g1s[i] */\n      tag_372\n      dup13\n        /* \"Verfiy.sol\":4705:4706  1 */\n      0x01\n        /* \"Verfiy.sol\":4936:4942  g1s[i] */\n      swap13\n      swap11\n        /* \"Verfiy.sol\":5080:5087  k += 32 */\n      tag_424\n        /* \"Verfiy.sol\":4936:4942  g1s[i] */\n      swap11\n      tag_50\n      jump\t// in\n        /* \"Verfiy.sol\":5023:5031  k += 128 */\n    tag_420:\n        /* \"Verfiy.sol\":7589:7650  assembly {... */\n      dup8\n      dup2\n      add\n      0x20\n      add\n      dup8\n      swap1\n      mstore\n        /* \"Verfiy.sol\":5776:5783  k += 32 */\n      tag_59\n      jump\t// in\n        /* \"Verfiy.sol\":5080:5087  k += 32 */\n    tag_424:\n        /* \"Verfiy.sol\":5106:5128  mulmod(temp1, rho1, q) */\n      swap5\n      mulmod\n        /* \"Verfiy.sol\":77:143  0x73eda753299d7d483339d80809a1d80553bda402fffe5bfeffffffff00000001 */\n      swap3\n      swap2\n      add\n      swap1\n        /* \"Verfiy.sol\":4882:4895  uint256 i = 0 */\n      dup8\n      swap1\n      jump(tag_351)\n        /* \"Verfiy.sol\":26:10074  contract Verify {... */\n    tag_24:\n      jumpi(tag_426, iszero(returndatasize))\n      returndatasize\n      swap1\n      tag_428\n      dup3\n      tag_3\n      jump\t// in\n    tag_428:\n      swap2\n      tag_429\n      mload(0x40)\n      swap4\n      dup5\n      tag_2\n      jump\t// in\n    tag_429:\n      dup3\n      mstore\n      returndatasize\n      0x00\n      0x20\n      dup5\n      add\n      returndatacopy\n      jump\t// out\n    tag_426:\n      0x60\n      swap1\n      jump\t// out\n        /* \"Verfiy.sol\":8981:9148  function G2Muls(bytes memory d) public view returns (bytes memory point) {... */\n    tag_25:\n        /* \"Verfiy.sol\":9094:9121  address(0x0e).staticcall(d) */\n      0x00\n        /* \"Verfiy.sol\":8981:9148  function G2Muls(bytes memory d) public view returns (bytes memory point) {... */\n      dup1\n      swap2\n        /* \"Verfiy.sol\":9094:9121  address(0x0e).staticcall(d) */\n      0x20\n      dup2\n      mload\n      swap2\n      add\n        /* \"Verfiy.sol\":9102:9106  0x0e */\n      0x0e\n        /* \"Verfiy.sol\":9094:9121  address(0x0e).staticcall(d) */\n      gas\n      staticcall\n      pop\n      tag_103\n      tag_24\n      jump\t// in\n        /* \"Verfiy.sol\":26:10074  contract Verify {... */\n    tag_26:\n      dup1\n      mload\n      swap2\n      swap1\n      dup3\n      swap1\n      0x20\n      add\n      dup3\n      mcopy\n      add\n      0x00\n      dup2\n      mstore\n      swap1\n      jump\t// out\n        /* \"Verfiy.sol\":7702:7967  function G1Add(... */\n    tag_27:\n        /* \"Verfiy.sol\":7909:7940  address(0x0b).staticcall(input) */\n      0x00\n        /* \"Verfiy.sol\":7702:7967  function G1Add(... */\n      swap2\n      swap1\n        /* \"Verfiy.sol\":26:10074  contract Verify {... */\n      tag_150\n        /* \"Verfiy.sol\":7845:7869  abi.encodePacked(p1, p2) */\n      tag_433\n        /* \"Verfiy.sol\":7702:7967  function G1Add(... */\n      dup5\n      swap4\n        /* \"Verfiy.sol\":26:10074  contract Verify {... */\n      mload(0x40)\n        /* \"Verfiy.sol\":7845:7869  abi.encodePacked(p1, p2) */\n      swap3\n      dup4\n      swap2\n        /* \"Verfiy.sol\":26:10074  contract Verify {... */\n      tag_127\n        /* \"Verfiy.sol\":7845:7869  abi.encodePacked(p1, p2) */\n      0x20\n      dup5\n      add\n        /* \"Verfiy.sol\":26:10074  contract Verify {... */\n      dup1\n      swap8\n      tag_26\n      jump\t// in\n        /* \"Verfiy.sol\":7845:7869  abi.encodePacked(p1, p2) */\n    tag_433:\n        /* \"Verfiy.sol\":7909:7940  address(0x0b).staticcall(input) */\n      mload\n      swap1\n        /* \"Verfiy.sol\":7917:7921  0x0b */\n      0x0b\n        /* \"Verfiy.sol\":7909:7940  address(0x0b).staticcall(input) */\n      gas\n      staticcall\n      pop\n      tag_103\n      tag_24\n      jump\t// in\n        /* \"Verfiy.sol\":26:10074  contract Verify {... */\n    tag_28:\n      mload(0x40)\n      0x0100\n      swap2\n      swap1\n      tag_438\n      dup4\n      dup3\n      tag_2\n      jump\t// in\n    tag_438:\n        /* \"Verfiy.sol\":9976:9979  200 */\n      0xc8\n        /* \"Verfiy.sol\":26:10074  contract Verify {... */\n      dup2\n      mstore\n      swap2\n      not(0x1f)\n      add\n      calldatasize\n      0x20\n      dup5\n      add\n      calldatacopy\n      jump\t// out\n    tag_29:\n      swap1\n      tag_441\n      dup3\n      tag_3\n      jump\t// in\n    tag_441:\n      tag_442\n      mload(0x40)\n      swap2\n      dup3\n      tag_2\n      jump\t// in\n    tag_442:\n      dup3\n      dup2\n      mstore\n      dup1\n      swap3\n      tag_443\n      not(0x1f)\n      swap2\n      tag_3\n      jump\t// in\n    tag_443:\n      add\n      swap1\n      0x20\n      calldatasize\n      swap2\n      add\n      calldatacopy\n      jump\t// out\n    tag_30:\n      0x20\n      dup2\n      mload\n      swap2\n      add\n      mload\n      swap1\n      0x20\n      dup2\n      lt\n      tag_444\n      jumpi\n      pop\n      swap1\n      jump\t// out\n    tag_444:\n      not(0x00)\n      swap1\n      0x20\n      sub\n      0x03\n      shl\n      shl\n      and\n      swap1\n      jump\t// out\n        /* \"Verfiy.sol\":8245:8412  function G1Muls(bytes memory d) public view returns (bytes memory point) {... */\n    tag_31:\n        /* \"Verfiy.sol\":8358:8385  address(0x0c).staticcall(d) */\n      0x00\n        /* \"Verfiy.sol\":8245:8412  function G1Muls(bytes memory d) public view returns (bytes memory point) {... */\n      dup1\n      swap2\n        /* \"Verfiy.sol\":8358:8385  address(0x0c).staticcall(d) */\n      0x20\n      dup2\n      mload\n      swap2\n      add\n        /* \"Verfiy.sol\":8366:8370  0x0c */\n      0x0c\n        /* \"Verfiy.sol\":8358:8385  address(0x0c).staticcall(d) */\n      gas\n      staticcall\n      pop\n      tag_103\n      tag_24\n      jump\t// in\n        /* \"Verfiy.sol\":9516:9907  function EqualPairingCheck(... */\n    tag_32:\n      swap1\n        /* \"Verfiy.sol\":9751:9786  abi.encodePacked(p1, p2, negP3, p4) */\n      tag_447\n        /* \"Verfiy.sol\":26:10074  contract Verify {... */\n      tag_127\n        /* \"Verfiy.sol\":9516:9907  function EqualPairingCheck(... */\n      swap2\n        /* \"Verfiy.sol\":26:10074  contract Verify {... */\n      tag_150\n        /* \"Verfiy.sol\":9826:9857  address(0x0f).staticcall(input) */\n      0x00\n        /* \"Verfiy.sol\":9516:9907  function EqualPairingCheck(... */\n      swap7\n      dup8\n      dup1\n      dup1\n      swap9\n        /* \"Verfiy.sol\":26:10074  contract Verify {... */\n      mload(0x40)\n        /* \"Verfiy.sol\":8114:8142  abi.encodePacked(p1, scalar) */\n      tag_450\n      0x20\n      dup3\n        /* \"Verfiy.sol\":26:10074  contract Verify {... */\n      tag_451\n        /* \"Verfiy.sol\":8114:8142  abi.encodePacked(p1, scalar) */\n      dup3\n      dup3\n      add\n        /* \"Verfiy.sol\":26:10074  contract Verify {... */\n      dup1\n      swap7\n      tag_26\n      jump\t// in\n    tag_451:\n        /* \"Verfiy.sol\":179:245  0x73eda753299d7d483339d80809a1d80553bda402fffe5bfeffffffff00000000 */\n      0x73eda753299d7d483339d80809a1d80553bda402fffe5bfeffffffff00000000\n        /* \"Verfiy.sol\":26:10074  contract Verify {... */\n      dup2\n      mstore\n        /* \"Verfiy.sol\":8114:8142  abi.encodePacked(p1, scalar) */\n      sub\n      dup1\n      dup5\n      mstore\n      add\n      dup3\n      tag_2\n      jump\t// in\n    tag_450:\n        /* \"Verfiy.sol\":8182:8213  address(0x0c).staticcall(input) */\n      mload\n      swap1\n        /* \"Verfiy.sol\":8190:8194  0x0c */\n      0x0c\n        /* \"Verfiy.sol\":8182:8213  address(0x0c).staticcall(input) */\n      gas\n      staticcall\n      pop\n        /* \"Verfiy.sol\":26:10074  contract Verify {... */\n      tag_127\n        /* \"Verfiy.sol\":8182:8213  address(0x0c).staticcall(input) */\n      tag_453\n      tag_24\n      jump\t// in\n    tag_453:\n        /* \"Verfiy.sol\":26:10074  contract Verify {... */\n      mload(0x40)\n        /* \"Verfiy.sol\":9751:9786  abi.encodePacked(p1, p2, negP3, p4) */\n      swap7\n      dup8\n      swap6\n        /* \"Verfiy.sol\":26:10074  contract Verify {... */\n      tag_127\n        /* \"Verfiy.sol\":8114:8142  abi.encodePacked(p1, scalar) */\n      0x20\n        /* \"Verfiy.sol\":9751:9786  abi.encodePacked(p1, p2, negP3, p4) */\n      dup9\n      add\n        /* \"Verfiy.sol\":26:10074  contract Verify {... */\n      dup1\n      swap12\n      tag_26\n      jump\t// in\n        /* \"Verfiy.sol\":9751:9786  abi.encodePacked(p1, p2, negP3, p4) */\n    tag_447:\n        /* \"Verfiy.sol\":9826:9857  address(0x0f).staticcall(input) */\n      mload\n      swap1\n        /* \"Verfiy.sol\":9834:9838  0x0f */\n      0x0f\n        /* \"Verfiy.sol\":9826:9857  address(0x0f).staticcall(input) */\n      gas\n      staticcall\n      pop\n        /* \"Verfiy.sol\":9899:9900  1 */\n      0x01\n        /* \"Verfiy.sol\":9882:9894  bytes32(ret) */\n      tag_455\n        /* \"Verfiy.sol\":9826:9857  address(0x0f).staticcall(input) */\n      tag_154\n      tag_24\n      jump\t// in\n        /* \"Verfiy.sol\":9882:9894  bytes32(ret) */\n    tag_455:\n        /* \"Verfiy.sol\":9874:9900  uint256(bytes32(ret)) == 1 */\n      eq\n        /* \"Verfiy.sol\":9516:9907  function EqualPairingCheck(... */\n      swap1\n      jump\t// out\n        /* \"Verfiy.sol\":8706:8976  function G2Mul(... */\n    tag_33:\n      0x00\n      swap3\n        /* \"Verfiy.sol\":8850:8878  abi.encodePacked(p1, scalar) */\n      tag_457\n      0x20\n        /* \"Verfiy.sol\":8706:8976  function G2Mul(... */\n      dup1\n      dup7\n      swap6\n        /* \"Verfiy.sol\":26:10074  contract Verify {... */\n      mload(0x40)\n        /* \"Verfiy.sol\":8850:8878  abi.encodePacked(p1, scalar) */\n      swap5\n      dup2\n      dup7\n      swap3\n      dup5\n      dup5\n      add\n        /* \"Verfiy.sol\":26:10074  contract Verify {... */\n      swap9\n      dup10\n      calldatacopy\n      dup3\n      add\n      swap1\n      dup4\n      dup3\n      add\n      mstore\n        /* \"Verfiy.sol\":8850:8878  abi.encodePacked(p1, scalar) */\n      sub\n      add\n      dup1\n      dup5\n      mstore\n      add\n      dup3\n      tag_2\n      jump\t// in\n    tag_457:\n        /* \"Verfiy.sol\":8918:8949  address(0x0e).staticcall(input) */\n      mload\n      swap1\n        /* \"Verfiy.sol\":8926:8930  0x0e */\n      0x0e\n        /* \"Verfiy.sol\":8918:8949  address(0x0e).staticcall(input) */\n      gas\n      staticcall\n      pop\n      tag_103\n      tag_24\n      jump\t// in\n        /* \"Verfiy.sol\":26:10074  contract Verify {... */\n    tag_34:\n      mstore(0x00, shl(0xe0, 0x4e487b71))\n      mstore(0x04, 0x11)\n      revert(0x00, 0x24)\n    tag_35:\n      swap1\n      dup2\n      0x01\n      shl\n      swap2\n      dup1\n      dup4\n      div\n        /* \"Verfiy.sol\":1292:1293  2 */\n      0x02\n        /* \"Verfiy.sol\":26:10074  contract Verify {... */\n      eq\n      swap1\n      iszero\n      or\n      iszero\n      tag_459\n      jumpi\n      jump\t// out\n    tag_459:\n      tag_34\n      jump\t// in\n    tag_36:\n      swap1\n        /* \"Verfiy.sol\":1591:1594  160 */\n      0xa0\n        /* \"Verfiy.sol\":26:10074  contract Verify {... */\n      dup3\n      mul\n      swap2\n      dup1\n      dup4\n      div\n        /* \"Verfiy.sol\":1591:1594  160 */\n      0xa0\n        /* \"Verfiy.sol\":26:10074  contract Verify {... */\n      eq\n      swap1\n      iszero\n      or\n      iszero\n      tag_459\n      jumpi\n      jump\t// out\n    tag_37:\n      swap1\n        /* \"Verfiy.sol\":1645:1648  288 */\n      0x0120\n        /* \"Verfiy.sol\":26:10074  contract Verify {... */\n      dup3\n      mul\n      swap2\n      dup1\n      dup4\n      div\n        /* \"Verfiy.sol\":1645:1648  288 */\n      0x0120\n        /* \"Verfiy.sol\":26:10074  contract Verify {... */\n      eq\n      swap1\n      iszero\n      or\n      iszero\n      tag_459\n      jumpi\n      jump\t// out\n    tag_38:\n      0x01\n      dup2\n      swap1\n      shl\n      swap2\n      swap1\n      sub(shl(0xff, 0x01), 0x01)\n      dup2\n      and\n      sub\n      tag_459\n      jumpi\n      jump\t// out\n    tag_39:\n      iszero\n      tag_97\n      jumpi\n      jump\t// out\n    tag_40:\n      swap1\n      dup1\n      0x20\n      swap4\n      swap3\n      dup2\n      dup5\n      mstore\n      dup5\n      dup5\n      add\n      calldatacopy\n      0x00\n      dup3\n      dup3\n      add\n      dup5\n      add\n      mstore\n      0x1f\n      add\n      not(0x1f)\n      and\n      add\n      add\n      swap1\n      jump\t// out\n    tag_41:\n      swap1\n      0x20\n      dup4\n      dup3\n      dup2\n      mstore\n      add\n      swap1\n      0x20\n      dup2\n      0x05\n      shl\n      dup6\n      add\n      add\n      swap4\n      dup4\n      0x00\n      swap2\n    tag_469:\n      dup4\n      dup4\n      lt\n      tag_470\n      jumpi\n      pop\n      pop\n      pop\n      pop\n      pop\n      pop\n      swap1\n      jump\t// out\n    tag_470:\n      swap1\n      swap2\n      swap3\n      swap4\n      swap5\n      swap6\n      not(0x1f)\n      dup3\n      dup3\n      sub\n      add\n      dup7\n      mstore\n      dup7\n      calldataload\n      not(0x1e)\n      dup5\n      calldatasize\n      sub\n      add\n      dup2\n      slt\n      iszero\n      tag_97\n      jumpi\n      dup4\n      add\n      swap1\n      0x20\n      dup3\n      calldataload\n      swap3\n      add\n      swap2\n      sub(shl(0x40, 0x01), 0x01)\n      dup2\n      gt\n      tag_97\n      jumpi\n      dup1\n      calldatasize\n      sub\n      dup4\n      sgt\n      tag_97\n      jumpi\n      tag_478\n      0x20\n      swap3\n      dup4\n      swap3\n      0x01\n      swap6\n      tag_40\n      jump\t// in\n    tag_478:\n      swap9\n      add\n      swap7\n      add\n      swap5\n      swap4\n      add\n      swap2\n      swap1\n      jump(tag_469)\n    tag_42:\n      swap5\n      swap4\n      swap3\n      0x00\n      swap4\n      tag_479\n      tag_480\n      swap4\n      0x40\n      swap6\n      0x60\n      dup11\n      mstore\n      0x60\n      dup11\n      add\n      swap2\n      tag_41\n      jump\t// in\n    tag_479:\n      swap2\n      dup8\n      dup4\n      sub\n      0x20\n      dup10\n      add\n      mstore\n      tag_41\n      jump\t// in\n    tag_480:\n      swap4\n      add\n      mstore\n      jump\t// out\n        /* \"Verfiy.sol\":77:143  0x73eda753299d7d483339d80809a1d80553bda402fffe5bfeffffffff00000001 */\n    tag_44:\n      swap5\n      swap4\n      swap3\n        /* \"Verfiy.sol\":1462:1463  1 */\n      0x01\n        /* \"Verfiy.sol\":77:143  0x73eda753299d7d483339d80809a1d80553bda402fffe5bfeffffffff00000001 */\n      swap4\n      tag_479\n      tag_480\n      swap4\n      0x40\n      swap6\n      0x60\n      dup11\n      mstore\n      0x60\n      dup11\n      add\n      swap2\n      tag_41\n      jump\t// in\n    tag_45:\n      not(0x02)\n      dup2\n      add\n      swap2\n      swap1\n      dup3\n      gt\n      tag_459\n      jumpi\n      jump\t// out\n    tag_46:\n      not(0x00)\n      dup2\n      add\n      swap2\n      swap1\n      dup3\n      gt\n      tag_459\n      jumpi\n      jump\t// out\n    tag_47:\n      not(0x01)\n      dup2\n      add\n      swap2\n      swap1\n      dup3\n      gt\n      tag_459\n      jumpi\n      jump\t// out\n    tag_48:\n      not(0x00)\n      dup2\n      eq\n      tag_459\n      jumpi\n      0x01\n      add\n      swap1\n      jump\t// out\n    tag_49:\n        /* \"Verfiy.sol\":26:10074  contract Verify {... */\n      shl(0xe0, 0x4e487b71)\n        /* \"Verfiy.sol\":77:143  0x73eda753299d7d483339d80809a1d80553bda402fffe5bfeffffffff00000001 */\n      0x00\n      mstore\n      mstore(0x04, 0x32)\n      revert(0x00, 0x24)\n    tag_50:\n      swap2\n      swap1\n      dup2\n      lt\n      iszero\n      tag_266\n      jumpi\n      0x05\n      shl\n      dup2\n      add\n      calldataload\n        /* \"Verfiy.sol\":26:10074  contract Verify {... */\n      swap1\n      not(0x1e)\n        /* \"Verfiy.sol\":77:143  0x73eda753299d7d483339d80809a1d80553bda402fffe5bfeffffffff00000001 */\n      dup2\n      calldatasize\n      sub\n      add\n      dup3\n      slt\n      iszero\n      tag_97\n      jumpi\n      add\n      swap1\n      dup2\n      calldataload\n      swap2\n      sub(shl(0x40, 0x01), 0x01)\n      dup4\n      gt\n      tag_97\n      jumpi\n      0x20\n      add\n      dup3\n      calldatasize\n      sub\n      dup2\n      sgt\n      tag_97\n      jumpi\n      swap2\n      swap1\n      jump\t// out\n    tag_51:\n      iszero\n      tag_499\n      jumpi\n      jump\t// out\n    tag_499:\n        /* \"Verfiy.sol\":26:10074  contract Verify {... */\n      mload(0x40)\n      shl(0xe5, 0x461bcd)\n        /* \"Verfiy.sol\":77:143  0x73eda753299d7d483339d80809a1d80553bda402fffe5bfeffffffff00000001 */\n      dup2\n      mstore\n      0x20\n      0x04\n      dup3\n      add\n      mstore\n      0x0a\n      0x24\n      dup3\n      add\n        /* \"Verfiy.sol\":26:10074  contract Verify {... */\n      mstore\n      shl(0xb1, 0x3130b2102398903632b7)\n      0x44\n      dup3\n      add\n        /* \"Verfiy.sol\":77:143  0x73eda753299d7d483339d80809a1d80553bda402fffe5bfeffffffff00000001 */\n      mstore\n      0x64\n      swap1\n      revert\n    tag_52:\n      swap1\n      dup3\n      lt\n      iszero\n      tag_266\n      jumpi\n      add\n      swap1\n      jump\t// out\n    tag_54:\n      swap1\n        /* \"Verfiy.sol\":26:10074  contract Verify {... */\n      dup2\n      mload\n        /* \"Verfiy.sol\":77:143  0x73eda753299d7d483339d80809a1d80553bda402fffe5bfeffffffff00000001 */\n      dup2\n      lt\n      iszero\n      tag_266\n      jumpi\n      add\n      0x20\n      add\n      swap1\n      jump\t// out\n    tag_55:\n        /* \"Verfiy.sol\":26:10074  contract Verify {... */\n      mload(0x40)\n      swap1\n      tag_505\n      0x0120\n      dup4\n      tag_2\n      jump\t// in\n    tag_505:\n        /* \"Verfiy.sol\":77:143  0x73eda753299d7d483339d80809a1d80553bda402fffe5bfeffffffff00000001 */\n      0x0100\n        /* \"Verfiy.sol\":26:10074  contract Verify {... */\n      dup3\n      mstore\n        /* \"Verfiy.sol\":77:143  0x73eda753299d7d483339d80809a1d80553bda402fffe5bfeffffffff00000001 */\n      0xcb3e287e85a763af267492ab572e99ab3f370d275cec1da1aaa9075ff05f79be\n      0x0100\n      dup4\n      0x024aa2b2f08f0a91260805272dc51051\n      0x20\n      dup3\n      add\n      mstore\n      0xc6e47ad4fa403b02b4510b647ae3d1770bac0326a805bbefd48056c8c121bdb8\n        /* \"Verfiy.sol\":26:10074  contract Verify {... */\n      0x40\n        /* \"Verfiy.sol\":77:143  0x73eda753299d7d483339d80809a1d80553bda402fffe5bfeffffffff00000001 */\n      dup3\n      add\n      mstore\n      0x13e02b6052719f607dacd3a088274f65\n      0x60\n      dup3\n      add\n      mstore\n      0x596bd0d09920b61ab5da61bbdc7f5049334cf11213945d57e5ac7d055d042b7e\n      0x80\n      dup3\n      add\n      mstore\n      0x0ce5d527727d6e118cc9cdc6da2e351a\n      0xa0\n      dup3\n      add\n      mstore\n      0xadfd9baa8cbdd3a76d429a695160d12c923ac9cc3baca289e193548608b82801\n      0xc0\n      dup3\n      add\n      mstore\n      0x0606c4a02ea734cc32acd2b02bc28b99\n      0xe0\n      dup3\n      add\n      mstore\n      add\n      mstore\n      jump\t// out\n        /* \"Verfiy.sol\":574:1091  hex\"00000000000000000000000000000000024aa2b2f08f0a91260805272dc51051c6e47ad4fa403b02b4510b647ae3d1770bac0326a805bbefd48056c8c121bdb80000000000000000000000000000000013e02b6052719f607dacd3a088274f65596bd0d09920b61ab5da61bbdc7f5049334cf11213945d57e5ac7d055d042b7e000000000000000000000000000000000ce5d527727d6e118cc9cdc6da2e351aadfd9baa8cbdd3a76d429a695160d12c923ac9cc3baca289e193548608b82801000000000000000000000000000000000606c4a02ea734cc32acd2b02bc28b99cb3e287e85a763af267492ab572e99ab3f370d275cec1da1aaa9075ff05f79be\" */\n    tag_56:\n        /* \"Verfiy.sol\":26:10074  contract Verify {... */\n      mload(0x40)\n      swap1\n      tag_506\n      0xa0\n      dup4\n      tag_2\n      jump\t// in\n    tag_506:\n        /* \"Verfiy.sol\":574:1091  hex\"00000000000000000000000000000000024aa2b2f08f0a91260805272dc51051c6e47ad4fa403b02b4510b647ae3d1770bac0326a805bbefd48056c8c121bdb80000000000000000000000000000000013e02b6052719f607dacd3a088274f65596bd0d09920b61ab5da61bbdc7f5049334cf11213945d57e5ac7d055d042b7e000000000000000000000000000000000ce5d527727d6e118cc9cdc6da2e351aadfd9baa8cbdd3a76d429a695160d12c923ac9cc3baca289e193548608b82801000000000000000000000000000000000606c4a02ea734cc32acd2b02bc28b99cb3e287e85a763af267492ab572e99ab3f370d275cec1da1aaa9075ff05f79be\" */\n      0x80\n        /* \"Verfiy.sol\":26:10074  contract Verify {... */\n      dup3\n      mstore\n        /* \"Verfiy.sol\":574:1091  hex\"00000000000000000000000000000000024aa2b2f08f0a91260805272dc51051c6e47ad4fa403b02b4510b647ae3d1770bac0326a805bbefd48056c8c121bdb80000000000000000000000000000000013e02b6052719f607dacd3a088274f65596bd0d09920b61ab5da61bbdc7f5049334cf11213945d57e5ac7d055d042b7e000000000000000000000000000000000ce5d527727d6e118cc9cdc6da2e351aadfd9baa8cbdd3a76d429a695160d12c923ac9cc3baca289e193548608b82801000000000000000000000000000000000606c4a02ea734cc32acd2b02bc28b99cb3e287e85a763af267492ab572e99ab3f370d275cec1da1aaa9075ff05f79be\" */\n      0xfcf5e095d5d00af600db18cb2c04b3edd03cc744a2888ae40caa232946c5e7e1\n      0x80\n      dup4\n      0x17f1d3a73197d7942695638c4fa9ac0f\n        /* \"Verfiy.sol\":26:10074  contract Verify {... */\n      0x20\n        /* \"Verfiy.sol\":574:1091  hex\"00000000000000000000000000000000024aa2b2f08f0a91260805272dc51051c6e47ad4fa403b02b4510b647ae3d1770bac0326a805bbefd48056c8c121bdb80000000000000000000000000000000013e02b6052719f607dacd3a088274f65596bd0d09920b61ab5da61bbdc7f5049334cf11213945d57e5ac7d055d042b7e000000000000000000000000000000000ce5d527727d6e118cc9cdc6da2e351aadfd9baa8cbdd3a76d429a695160d12c923ac9cc3baca289e193548608b82801000000000000000000000000000000000606c4a02ea734cc32acd2b02bc28b99cb3e287e85a763af267492ab572e99ab3f370d275cec1da1aaa9075ff05f79be\" */\n      dup3\n      add\n      mstore\n      0xc3688c4f9774b905a14e3a3f171bac586c55e83ff97a1aeffb3af00adb22c6bb\n        /* \"Verfiy.sol\":26:10074  contract Verify {... */\n      0x40\n        /* \"Verfiy.sol\":574:1091  hex\"00000000000000000000000000000000024aa2b2f08f0a91260805272dc51051c6e47ad4fa403b02b4510b647ae3d1770bac0326a805bbefd48056c8c121bdb80000000000000000000000000000000013e02b6052719f607dacd3a088274f65596bd0d09920b61ab5da61bbdc7f5049334cf11213945d57e5ac7d055d042b7e000000000000000000000000000000000ce5d527727d6e118cc9cdc6da2e351aadfd9baa8cbdd3a76d429a695160d12c923ac9cc3baca289e193548608b82801000000000000000000000000000000000606c4a02ea734cc32acd2b02bc28b99cb3e287e85a763af267492ab572e99ab3f370d275cec1da1aaa9075ff05f79be\" */\n      dup3\n      add\n      mstore\n      0x08b3f481e3aaa0f1a09e30ed741d8ae4\n      0x60\n      dup3\n      add\n      mstore\n      add\n      mstore\n      jump\t// out\n        /* \"Verfiy.sol\":279:540  hex\"0000000000000000000000000000000017f1d3a73197d7942695638c4fa9ac0fc3688c4f9774b905a14e3a3f171bac586c55e83ff97a1aeffb3af00adb22c6bb0000000000000000000000000000000008b3f481e3aaa0f1a09e30ed741d8ae4fcf5e095d5d00af600db18cb2c04b3edd03cc744a2888ae40caa232946c5e7e1\" */\n    tag_57:\n      swap1\n        /* \"Verfiy.sol\":1462:1463  1 */\n      0x01\n        /* \"Verfiy.sol\":279:540  hex\"0000000000000000000000000000000017f1d3a73197d7942695638c4fa9ac0fc3688c4f9774b905a14e3a3f171bac586c55e83ff97a1aeffb3af00adb22c6bb0000000000000000000000000000000008b3f481e3aaa0f1a09e30ed741d8ae4fcf5e095d5d00af600db18cb2c04b3edd03cc744a2888ae40caa232946c5e7e1\" */\n      dup3\n      add\n      dup1\n      swap3\n      gt\n      tag_459\n      jumpi\n      jump\t// out\n    tag_58:\n      swap1\n        /* \"Verfiy.sol\":4972:4975  128 */\n      0x80\n        /* \"Verfiy.sol\":279:540  hex\"0000000000000000000000000000000017f1d3a73197d7942695638c4fa9ac0fc3688c4f9774b905a14e3a3f171bac586c55e83ff97a1aeffb3af00adb22c6bb0000000000000000000000000000000008b3f481e3aaa0f1a09e30ed741d8ae4fcf5e095d5d00af600db18cb2c04b3edd03cc744a2888ae40caa232946c5e7e1\" */\n      dup3\n      add\n      dup1\n      swap3\n      gt\n      tag_459\n      jumpi\n      jump\t// out\n    tag_59:\n      swap1\n        /* \"Verfiy.sol\":4599:4631  abi.encode(g1s, g2s, uint256(0)) */\n      0x20\n        /* \"Verfiy.sol\":279:540  hex\"0000000000000000000000000000000017f1d3a73197d7942695638c4fa9ac0fc3688c4f9774b905a14e3a3f171bac586c55e83ff97a1aeffb3af00adb22c6bb0000000000000000000000000000000008b3f481e3aaa0f1a09e30ed741d8ae4fcf5e095d5d00af600db18cb2c04b3edd03cc744a2888ae40caa232946c5e7e1\" */\n      dup3\n      add\n      dup1\n      swap3\n      gt\n      tag_459\n      jumpi\n      jump\t// out\n    tag_60:\n      swap1\n        /* \"Verfiy.sol\":5668:5671  256 */\n      0x0100\n        /* \"Verfiy.sol\":279:540  hex\"0000000000000000000000000000000017f1d3a73197d7942695638c4fa9ac0fc3688c4f9774b905a14e3a3f171bac586c55e83ff97a1aeffb3af00adb22c6bb0000000000000000000000000000000008b3f481e3aaa0f1a09e30ed741d8ae4fcf5e095d5d00af600db18cb2c04b3edd03cc744a2888ae40caa232946c5e7e1\" */\n      dup3\n      add\n      dup1\n      swap3\n      gt\n      tag_459\n      jumpi\n      jump\t// out\n        /* \"Verfiy.sol\":8436:8701  function G2Add(... */\n    tag_61:\n        /* \"Verfiy.sol\":8643:8674  address(0x0d).staticcall(input) */\n      0x00\n        /* \"Verfiy.sol\":8436:8701  function G2Add(... */\n      swap2\n      swap1\n        /* \"Verfiy.sol\":26:10074  contract Verify {... */\n      tag_150\n        /* \"Verfiy.sol\":8579:8603  abi.encodePacked(p1, p2) */\n      tag_516\n        /* \"Verfiy.sol\":8436:8701  function G2Add(... */\n      dup5\n      swap4\n        /* \"Verfiy.sol\":26:10074  contract Verify {... */\n      mload(0x40)\n        /* \"Verfiy.sol\":8579:8603  abi.encodePacked(p1, p2) */\n      swap3\n      dup4\n      swap2\n        /* \"Verfiy.sol\":26:10074  contract Verify {... */\n      tag_127\n        /* \"Verfiy.sol\":8579:8603  abi.encodePacked(p1, p2) */\n      0x20\n      dup5\n      add\n        /* \"Verfiy.sol\":26:10074  contract Verify {... */\n      dup1\n      swap8\n      tag_26\n      jump\t// in\n        /* \"Verfiy.sol\":8579:8603  abi.encodePacked(p1, p2) */\n    tag_516:\n        /* \"Verfiy.sol\":8643:8674  address(0x0d).staticcall(input) */\n      mload\n      swap1\n        /* \"Verfiy.sol\":8651:8655  0x0d */\n      0x0d\n        /* \"Verfiy.sol\":8643:8674  address(0x0d).staticcall(input) */\n      gas\n      staticcall\n      pop\n      tag_103\n      tag_24\n      jump\t// in\n        /* \"Verfiy.sol\":7261:7499  function _cdCopy(... */\n    tag_62:\n      swap1\n        /* \"Verfiy.sol\":4972:4975  128 */\n      0x80\n        /* \"Verfiy.sol\":7261:7499  function _cdCopy(... */\n      swap3\n        /* \"Verfiy.sol\":7403:7497  assembly {... */\n      0x20\n        /* \"Verfiy.sol\":7261:7499  function _cdCopy(... */\n      swap2\n        /* \"Verfiy.sol\":7403:7497  assembly {... */\n      add\n      add\n      calldatacopy\n        /* \"Verfiy.sol\":7261:7499  function _cdCopy(... */\n      jump\t// out\n    tag_63:\n      swap1\n        /* \"Verfiy.sol\":5668:5671  256 */\n      0x0100\n        /* \"Verfiy.sol\":7261:7499  function _cdCopy(... */\n      swap3\n        /* \"Verfiy.sol\":7403:7497  assembly {... */\n      0x20\n        /* \"Verfiy.sol\":7261:7499  function _cdCopy(... */\n      swap2\n        /* \"Verfiy.sol\":7403:7497  assembly {... */\n      add\n      add\n      calldatacopy\n        /* \"Verfiy.sol\":7261:7499  function _cdCopy(... */\n      jump\t// out\n    stop\n    data_3b2d02282c3edcbfc4f9664b53f75892ea03b8fe586039e3ee6fe41258ca9b0d 73eda753299d7d483339d80809a1d80553bda402fffe5bfeffffffff00000001\n\n    auxdata: 0xa2646970667358221220ae1eb439550cc1a2bfd5b5d4fc60dfaddac00a7b8684bcabcc068b2f4a6c610164736f6c634300081f0033\n}\n",
				"bytecode": {
					"linkReferences": {},
					"object": "60808060405234601557611364908161001a8239f35b5f80fdfe60806040526004361015610011575f80fd5b5f3560e01c80633f009c16146100c45780634d919405146100bf578063578a34ce146100ba5780635cdc73ef146100b55780636592041a146100b05780636f18b669146100ab578063af1d0bd9146100a6578063c1f2c915146100a1578063cac924e71461009c578063d6385d60146100975763e1f66c1b14610092575f80fd5b6109ab565b610991565b610514565b610428565b6103c9565b6103a3565b61038a565b610323565b61024c565b610232565b6101bf565b634e487b7160e01b5f52604160045260245ffd5b90601f801991011681019081106001600160401b038211176100fe57604052565b6100c9565b6001600160401b0381116100fe57601f01601f191660200190565b81601f820112156101645780359061013582610103565b9261014360405194856100dd565b8284526020838301011161016457815f926020809301838601378301015290565b5f80fd5b602060031982011261016457600435906001600160401b038211610164576101929160040161011e565b90565b602060409281835280519182918282860152018484015e5f828201840152601f01601f1916010190565b34610164576101e46101d86101d336610168565b610cf6565b60405191829182610195565b0390f35b906040600319830112610164576004356001600160401b03811161016457826102139160040161011e565b91602435906001600160401b038211610164576101929160040161011e565b34610164576101e46101d8610246366101e8565b90610d1e565b34610164575f3660031901126101645761029961028561026a610d4c565b61028b610275610d4c565b6040519384936020850190610d0c565b90610d0c565b0390601f19820181526100dd565b005b906080600319830112610164576004356001600160401b03811161016457826102c69160040161011e565b916024356001600160401b03811161016457816102e59160040161011e565b916044356001600160401b03811161016457826103049160040161011e565b91606435906001600160401b038211610164576101929160040161011e565b34610164575f8061028561028561036661035861033f3661029b565b919392969060405196879561028560208801809b610d0c565b03601f1981018352826100dd565b5190600f5afa506020600161038161037c610cc7565b610da1565b14604051908152f35b34610164576101e46101d861039e36610168565b610dc3565b346101645760206103bf6103b63661029b565b92919091610dd9565b6040519015158152f35b34610164576040366003190112610164576004356001600160401b03811161016457366023820112156101645780600401356001600160401b038111610164573660248284010111610164576101e4916101d891602480359201610e6c565b34610164576040366003190112610164576004356001600160401b038111610164575f61045a8192369060040161011e565b602435610482602060405180936104748383018097610d0c565b9081520380845201826100dd565b5190600c5afa506101e46101d8610cc7565b9181601f84011215610164578235916001600160401b038311610164576020808501948460051b01011161016457565b6040600319820112610164576004356001600160401b03811161016457816104ee91600401610494565b92909291602435906001600160401b0382116101645761051091600401610494565b9091565b3461016457610522366104c4565b9190926105388361053284610eb9565b14610f1a565b61056a604051602081019061055481610358888a898988610fc6565b5190205f51602061130f5f395f51905f52900690565b9361058760405160208101906105548161035889878a8a88610ff6565b9160019361059c61059782610ed4565b610d6f565b936105b16105976105ac89611014565b610eea565b6105c56105976105c085611023565b610ed4565b906105d56105976105ac8b611031565b915f965f995b6105e487611023565b8b116106a6578c9061060460806105fc8e8b8d611062565b9050146110a3565b5f5b8b8d60808310610662575050505f5b8b6020821061064057505061063a915f51602061130f5f395f51905f5291099a611040565b996105db565b8b61065b91610655849e866001961a926110e8565b53611040565b9a01610615565b9b61069f9161065582859f8f8f976106836106979360019a61068994611062565b906110dc565b356001600160f81b03191690565b5f1a926110e8565b9a01610606565b508a879495968d6106b68c610dc3565b945f958a985f995b6106d26106cd6106cd88610f02565b611023565b8b116107aa578c906106e387611023565b8c1480156107a1575b610787575f5b8b8d610100831061075f575050505f5b601f81111561072c5750610726915f51602061130f5f395f51905f5291099a611040565b996106be565b99915060208a101561075a5761075561074f8f938d610655828f87901a926110e8565b9a611040565b610702565b61104e565b9b6107809161065582859f8f8f976106836106979360019a61068994611062565b9a016106f2565b610726915f51602061130f5f395f51905f5291099a611040565b50868c146106ec565b50869395948c8c6107ca6107bd8d610cf6565b6107c56110f9565b6112c7565b905f958a985f995b6107de6106cd88611023565b8b11610871578c905f5b8b8d60808310610849575050505f5b601f811115610821575061081b915f51602061130f5f395f51905f5291099a611040565b996107d2565b99915060208a101561075a5761084461074f8f938d610655828f87901a926110e8565b6107f7565b9b61086a9161065582859f8f8f976106836106979360019a61068994611062565b9a016107e8565b508a6108906108838b98969798610dc3565b61088b611201565b610d1e565b945f936001965f975b6108a56106cd85610f02565b8911610967578a90848a148015610956575b61093c575f5b898b6101008310610914575050505f5b89602082106108f85750506108f2915f51602061130f5f395f51905f52910998611040565b97610899565b8961090d91610655849c866001961a926110e8565b98016108cd565b996109359161065582610697610689879f978f8f9960019a61068392611062565b98016108bd565b6108f2915f51602061130f5f395f51905f52910998611040565b506109608561128e565b8a146108b7565b6101e461097f84848d6109798d610cf6565b92610dd9565b60405190151581529081906020820190565b34610164576101e46101d86109a5366101e8565b906112c7565b34610164576109b9366104c4565b9092916109c7811515610f1a565b6109d48261053283610eb9565b6109f0604051602081019061055481610358878a888b88610fc6565b91610a0d604051602081019061055481610358868b898c88610ff6565b94610a1a61059784610ed4565b60015f86815b878a818510610c7f57505050505050610a3890610dc3565b610a4f6105976105ac610a4a87610f02565b611014565b935f9588925f975b610a68610a6385610f02565b611031565b8911610b1557878b918a8989610a7d89611023565b83148015610b0c575b610aeb5789610acf85610aca6001999789610100610ac5610abd610add9b5f51602061130f5f395f51905f529e9b610ad89b611062565b909214610f1a565b611301565b6112b8565b92830160200152565b6112aa565b96099801985b989793610a57565b505050955f51602061130f5f395f51905f5291509160019209980198610ae3565b50888314610a86565b50889193508992610b286107bd89610cf6565b92610b366002831015610f1a565b610b456105976105c084611023565b935f9587945f975b610b5686611023565b891015610ba7575f51602061130f5f395f51905f528a610b9c8a610ad88b610acf8f97610b97818f8f610b92610abd60019e8b94608094611062565b6112f5565b61129c565b980998019795610b4d565b508493508a8a610bb96108838a610dc3565b610bcb6105976105ac610a638a610f02565b965f94600192865b610bdf6106cd85610f02565b8811610c6c578a89918989898883148015610c5b575b610c3a5789610acf85610aca6001999789610100610ac5610abd610c2c9b5f51602061130f5f395f51905f529e9b610ad89b611062565b96099701985b989693610bd3565b505050955f51602061130f5f395f51905f5291509160019209970198610c32565b50610c658961128e565b8314610bf5565b506101e49161097f918a6109798d610cf6565b610cac83610b975f51602061130f5f395f51905f52958a6080610b92610abd8c60019c9a610cba9a611062565b8781016020018790526112aa565b9409929101908790610a20565b3d15610cf1573d90610cd882610103565b91610ce660405193846100dd565b82523d5f602084013e565b606090565b5f8091602081519101600e5afa50610192610cc7565b805191908290602001825e015f815290565b5f9190610358610d3d8493604051928391610285602084018097610d0c565b5190600b5afa50610192610cc7565b6040516101009190610d5e83826100dd565b60c8815291601f1901366020840137565b90610d7982610103565b610d8660405191826100dd565b8281528092610d97601f1991610103565b0190602036910137565b602081519101519060208110610db5575090565b5f199060200360031b1b1690565b5f8091602081519101600c5afa50610192610cc7565b90610e54610285916103585f9687808098604051610e2e602082610e008282018096610d0c565b7f73eda753299d7d483339d80809a1d80553bda402fffe5bfeffffffff0000000081520380845201826100dd565b5190600c5afa50610285610e40610cc7565b60405196879561028560208801809b610d0c565b5190600f5afa506001610e6861037c610cc7565b1490565b5f92610e9660208086956040519481869284840198893782019083820152030180845201826100dd565b5190600e5afa50610192610cc7565b634e487b7160e01b5f52601160045260245ffd5b908160011b9180830460021490151715610ecf57565b610ea5565b9060a082029180830460a01490151715610ecf57565b906101208202918083046101201490151715610ecf57565b600181901b91906001600160ff1b03811603610ecf57565b1561016457565b908060209392818452848401375f828201840152601f01601f1916010190565b90602083828152019060208160051b85010193835f915b838310610f685750505050505090565b909192939495601f198282030186528635601e198436030181121561016457830190602082359201916001600160401b03811161016457803603831361016457610fb86020928392600195610f21565b980196019493019190610f58565b9493925f93610fe3610ff19360409560608a5260608a0191610f41565b918783036020890152610f41565b930152565b949392600193610fe3610ff19360409560608a5260608a0191610f41565b600219810191908211610ecf57565b5f19810191908211610ecf57565b600119810191908211610ecf57565b5f198114610ecf5760010190565b634e487b7160e01b5f52603260045260245ffd5b919081101561075a5760051b81013590601e19813603018212156101645701908135916001600160401b038311610164576020018236038113610164579190565b156110aa57565b60405162461bcd60e51b815260206004820152600a6024820152693130b2102398903632b760b11b6044820152606490fd5b9082101561075a570190565b90815181101561075a570160200190565b60405190611109610120836100dd565b61010082527fcb3e287e85a763af267492ab572e99ab3f370d275cec1da1aaa9075ff05f79be610100836f024aa2b2f08f0a91260805272dc5105160208201527fc6e47ad4fa403b02b4510b647ae3d1770bac0326a805bbefd48056c8c121bdb860408201526f13e02b6052719f607dacd3a088274f6560608201527f596bd0d09920b61ab5da61bbdc7f5049334cf11213945d57e5ac7d055d042b7e60808201526f0ce5d527727d6e118cc9cdc6da2e351a60a08201527fadfd9baa8cbdd3a76d429a695160d12c923ac9cc3baca289e193548608b8280160c08201526f0606c4a02ea734cc32acd2b02bc28b9960e08201520152565b6040519061121060a0836100dd565b608082527ffcf5e095d5d00af600db18cb2c04b3edd03cc744a2888ae40caa232946c5e7e16080836f17f1d3a73197d7942695638c4fa9ac0f60208201527fc3688c4f9774b905a14e3a3f171bac586c55e83ff97a1aeffb3af00adb22c6bb60408201526f08b3f481e3aaa0f1a09e30ed741d8ae460608201520152565b9060018201809211610ecf57565b9060808201809211610ecf57565b9060208201809211610ecf57565b906101008201809211610ecf57565b5f91906103586112e68493604051928391610285602084018097610d0c565b5190600d5afa50610192610cc7565b90608092602091010137565b906101009260209101013756fe73eda753299d7d483339d80809a1d80553bda402fffe5bfeffffffff00000001a2646970667358221220ae1eb439550cc1a2bfd5b5d4fc60dfaddac00a7b8684bcabcc068b2f4a6c610164736f6c634300081f0033",
					"opcodes": "PUSH1 0x80 DUP1 PUSH1 0x40 MSTORE CALLVALUE PUSH1 0x15 JUMPI PUSH2 0x1364 SWAP1 DUP2 PUSH2 0x1A DUP3 CODECOPY RETURN JUMPDEST PUSH0 DUP1 REVERT INVALID PUSH1 0x80 PUSH1 0x40 MSTORE PUSH1 0x4 CALLDATASIZE LT ISZERO PUSH2 0x11 JUMPI PUSH0 DUP1 REVERT JUMPDEST PUSH0 CALLDATALOAD PUSH1 0xE0 SHR DUP1 PUSH4 0x3F009C16 EQ PUSH2 0xC4 JUMPI DUP1 PUSH4 0x4D919405 EQ PUSH2 0xBF JUMPI DUP1 PUSH4 0x578A34CE EQ PUSH2 0xBA JUMPI DUP1 PUSH4 0x5CDC73EF EQ PUSH2 0xB5 JUMPI DUP1 PUSH4 0x6592041A EQ PUSH2 0xB0 JUMPI DUP1 PUSH4 0x6F18B669 EQ PUSH2 0xAB JUMPI DUP1 PUSH4 0xAF1D0BD9 EQ PUSH2 0xA6 JUMPI DUP1 PUSH4 0xC1F2C915 EQ PUSH2 0xA1 JUMPI DUP1 PUSH4 0xCAC924E7 EQ PUSH2 0x9C JUMPI DUP1 PUSH4 0xD6385D60 EQ PUSH2 0x97 JUMPI PUSH4 0xE1F66C1B EQ PUSH2 0x92 JUMPI PUSH0 DUP1 REVERT JUMPDEST PUSH2 0x9AB JUMP JUMPDEST PUSH2 0x991 JUMP JUMPDEST PUSH2 0x514 JUMP JUMPDEST PUSH2 0x428 JUMP JUMPDEST PUSH2 0x3C9 JUMP JUMPDEST PUSH2 0x3A3 JUMP JUMPDEST PUSH2 0x38A JUMP JUMPDEST PUSH2 0x323 JUMP JUMPDEST PUSH2 0x24C JUMP JUMPDEST PUSH2 0x232 JUMP JUMPDEST PUSH2 0x1BF JUMP JUMPDEST PUSH4 0x4E487B71 PUSH1 0xE0 SHL PUSH0 MSTORE PUSH1 0x41 PUSH1 0x4 MSTORE PUSH1 0x24 PUSH0 REVERT JUMPDEST SWAP1 PUSH1 0x1F DUP1 NOT SWAP2 ADD AND DUP2 ADD SWAP1 DUP2 LT PUSH1 0x1 PUSH1 0x1 PUSH1 0x40 SHL SUB DUP3 GT OR PUSH2 0xFE JUMPI PUSH1 0x40 MSTORE JUMP JUMPDEST PUSH2 0xC9 JUMP JUMPDEST PUSH1 0x1 PUSH1 0x1 PUSH1 0x40 SHL SUB DUP2 GT PUSH2 0xFE JUMPI PUSH1 0x1F ADD PUSH1 0x1F NOT AND PUSH1 0x20 ADD SWAP1 JUMP JUMPDEST DUP2 PUSH1 0x1F DUP3 ADD SLT ISZERO PUSH2 0x164 JUMPI DUP1 CALLDATALOAD SWAP1 PUSH2 0x135 DUP3 PUSH2 0x103 JUMP JUMPDEST SWAP3 PUSH2 0x143 PUSH1 0x40 MLOAD SWAP5 DUP6 PUSH2 0xDD JUMP JUMPDEST DUP3 DUP5 MSTORE PUSH1 0x20 DUP4 DUP4 ADD ADD GT PUSH2 0x164 JUMPI DUP2 PUSH0 SWAP3 PUSH1 0x20 DUP1 SWAP4 ADD DUP4 DUP7 ADD CALLDATACOPY DUP4 ADD ADD MSTORE SWAP1 JUMP JUMPDEST PUSH0 DUP1 REVERT JUMPDEST PUSH1 0x20 PUSH1 0x3 NOT DUP3 ADD SLT PUSH2 0x164 JUMPI PUSH1 0x4 CALLDATALOAD SWAP1 PUSH1 0x1 PUSH1 0x1 PUSH1 0x40 SHL SUB DUP3 GT PUSH2 0x164 JUMPI PUSH2 0x192 SWAP2 PUSH1 0x4 ADD PUSH2 0x11E JUMP JUMPDEST SWAP1 JUMP JUMPDEST PUSH1 0x20 PUSH1 0x40 SWAP3 DUP2 DUP4 MSTORE DUP1 MLOAD SWAP2 DUP3 SWAP2 DUP3 DUP3 DUP7 ADD MSTORE ADD DUP5 DUP5 ADD MCOPY PUSH0 DUP3 DUP3 ADD DUP5 ADD MSTORE PUSH1 0x1F ADD PUSH1 0x1F NOT AND ADD ADD SWAP1 JUMP JUMPDEST CALLVALUE PUSH2 0x164 JUMPI PUSH2 0x1E4 PUSH2 0x1D8 PUSH2 0x1D3 CALLDATASIZE PUSH2 0x168 JUMP JUMPDEST PUSH2 0xCF6 JUMP JUMPDEST PUSH1 0x40 MLOAD SWAP2 DUP3 SWAP2 DUP3 PUSH2 0x195 JUMP JUMPDEST SUB SWAP1 RETURN JUMPDEST SWAP1 PUSH1 0x40 PUSH1 0x3 NOT DUP4 ADD SLT PUSH2 0x164 JUMPI PUSH1 0x4 CALLDATALOAD PUSH1 0x1 PUSH1 0x1 PUSH1 0x40 SHL SUB DUP2 GT PUSH2 0x164 JUMPI DUP3 PUSH2 0x213 SWAP2 PUSH1 0x4 ADD PUSH2 0x11E JUMP JUMPDEST SWAP2 PUSH1 0x24 CALLDATALOAD SWAP1 PUSH1 0x1 PUSH1 0x1 PUSH1 0x40 SHL SUB DUP3 GT PUSH2 0x164 JUMPI PUSH2 0x192 SWAP2 PUSH1 0x4 ADD PUSH2 0x11E JUMP JUMPDEST CALLVALUE PUSH2 0x164 JUMPI PUSH2 0x1E4 PUSH2 0x1D8 PUSH2 0x246 CALLDATASIZE PUSH2 0x1E8 JUMP JUMPDEST SWAP1 PUSH2 0xD1E JUMP JUMPDEST CALLVALUE PUSH2 0x164 JUMPI PUSH0 CALLDATASIZE PUSH1 0x3 NOT ADD SLT PUSH2 0x164 JUMPI PUSH2 0x299 PUSH2 0x285 PUSH2 0x26A PUSH2 0xD4C JUMP JUMPDEST PUSH2 0x28B PUSH2 0x275 PUSH2 0xD4C JUMP JUMPDEST PUSH1 0x40 MLOAD SWAP4 DUP5 SWAP4 PUSH1 0x20 DUP6 ADD SWAP1 PUSH2 0xD0C JUMP JUMPDEST SWAP1 PUSH2 0xD0C JUMP JUMPDEST SUB SWAP1 PUSH1 0x1F NOT DUP3 ADD DUP2 MSTORE PUSH2 0xDD JUMP JUMPDEST STOP JUMPDEST SWAP1 PUSH1 0x80 PUSH1 0x3 NOT DUP4 ADD SLT PUSH2 0x164 JUMPI PUSH1 0x4 CALLDATALOAD PUSH1 0x1 PUSH1 0x1 PUSH1 0x40 SHL SUB DUP2 GT PUSH2 0x164 JUMPI DUP3 PUSH2 0x2C6 SWAP2 PUSH1 0x4 ADD PUSH2 0x11E JUMP JUMPDEST SWAP2 PUSH1 0x24 CALLDATALOAD PUSH1 0x1 PUSH1 0x1 PUSH1 0x40 SHL SUB DUP2 GT PUSH2 0x164 JUMPI DUP2 PUSH2 0x2E5 SWAP2 PUSH1 0x4 ADD PUSH2 0x11E JUMP JUMPDEST SWAP2 PUSH1 0x44 CALLDATALOAD PUSH1 0x1 PUSH1 0x1 PUSH1 0x40 SHL SUB DUP2 GT PUSH2 0x164 JUMPI DUP3 PUSH2 0x304 SWAP2 PUSH1 0x4 ADD PUSH2 0x11E JUMP JUMPDEST SWAP2 PUSH1 0x64 CALLDATALOAD SWAP1 PUSH1 0x1 PUSH1 0x1 PUSH1 0x40 SHL SUB DUP3 GT PUSH2 0x164 JUMPI PUSH2 0x192 SWAP2 PUSH1 0x4 ADD PUSH2 0x11E JUMP JUMPDEST CALLVALUE PUSH2 0x164 JUMPI PUSH0 DUP1 PUSH2 0x285 PUSH2 0x285 PUSH2 0x366 PUSH2 0x358 PUSH2 0x33F CALLDATASIZE PUSH2 0x29B JUMP JUMPDEST SWAP2 SWAP4 SWAP3 SWAP7 SWAP1 PUSH1 0x40 MLOAD SWAP7 DUP8 SWAP6 PUSH2 0x285 PUSH1 0x20 DUP9 ADD DUP1 SWAP12 PUSH2 0xD0C JUMP JUMPDEST SUB PUSH1 0x1F NOT DUP2 ADD DUP4 MSTORE DUP3 PUSH2 0xDD JUMP JUMPDEST MLOAD SWAP1 PUSH1 0xF GAS STATICCALL POP PUSH1 0x20 PUSH1 0x1 PUSH2 0x381 PUSH2 0x37C PUSH2 0xCC7 JUMP JUMPDEST PUSH2 0xDA1 JUMP JUMPDEST EQ PUSH1 0x40 MLOAD SWAP1 DUP2 MSTORE RETURN JUMPDEST CALLVALUE PUSH2 0x164 JUMPI PUSH2 0x1E4 PUSH2 0x1D8 PUSH2 0x39E CALLDATASIZE PUSH2 0x168 JUMP JUMPDEST PUSH2 0xDC3 JUMP JUMPDEST CALLVALUE PUSH2 0x164 JUMPI PUSH1 0x20 PUSH2 0x3BF PUSH2 0x3B6 CALLDATASIZE PUSH2 0x29B JUMP JUMPDEST SWAP3 SWAP2 SWAP1 SWAP2 PUSH2 0xDD9 JUMP JUMPDEST PUSH1 0x40 MLOAD SWAP1 ISZERO ISZERO DUP2 MSTORE RETURN JUMPDEST CALLVALUE PUSH2 0x164 JUMPI PUSH1 0x40 CALLDATASIZE PUSH1 0x3 NOT ADD SLT PUSH2 0x164 JUMPI PUSH1 0x4 CALLDATALOAD PUSH1 0x1 PUSH1 0x1 PUSH1 0x40 SHL SUB DUP2 GT PUSH2 0x164 JUMPI CALLDATASIZE PUSH1 0x23 DUP3 ADD SLT ISZERO PUSH2 0x164 JUMPI DUP1 PUSH1 0x4 ADD CALLDATALOAD PUSH1 0x1 PUSH1 0x1 PUSH1 0x40 SHL SUB DUP2 GT PUSH2 0x164 JUMPI CALLDATASIZE PUSH1 0x24 DUP3 DUP5 ADD ADD GT PUSH2 0x164 JUMPI PUSH2 0x1E4 SWAP2 PUSH2 0x1D8 SWAP2 PUSH1 0x24 DUP1 CALLDATALOAD SWAP3 ADD PUSH2 0xE6C JUMP JUMPDEST CALLVALUE PUSH2 0x164 JUMPI PUSH1 0x40 CALLDATASIZE PUSH1 0x3 NOT ADD SLT PUSH2 0x164 JUMPI PUSH1 0x4 CALLDATALOAD PUSH1 0x1 PUSH1 0x1 PUSH1 0x40 SHL SUB DUP2 GT PUSH2 0x164 JUMPI PUSH0 PUSH2 0x45A DUP2 SWAP3 CALLDATASIZE SWAP1 PUSH1 0x4 ADD PUSH2 0x11E JUMP JUMPDEST PUSH1 0x24 CALLDATALOAD PUSH2 0x482 PUSH1 0x20 PUSH1 0x40 MLOAD DUP1 SWAP4 PUSH2 0x474 DUP4 DUP4 ADD DUP1 SWAP8 PUSH2 0xD0C JUMP JUMPDEST SWAP1 DUP2 MSTORE SUB DUP1 DUP5 MSTORE ADD DUP3 PUSH2 0xDD JUMP JUMPDEST MLOAD SWAP1 PUSH1 0xC GAS STATICCALL POP PUSH2 0x1E4 PUSH2 0x1D8 PUSH2 0xCC7 JUMP JUMPDEST SWAP2 DUP2 PUSH1 0x1F DUP5 ADD SLT ISZERO PUSH2 0x164 JUMPI DUP3 CALLDATALOAD SWAP2 PUSH1 0x1 PUSH1 0x1 PUSH1 0x40 SHL SUB DUP4 GT PUSH2 0x164 JUMPI PUSH1 0x20 DUP1 DUP6 ADD SWAP5 DUP5 PUSH1 0x5 SHL ADD ADD GT PUSH2 0x164 JUMPI JUMP JUMPDEST PUSH1 0x40 PUSH1 0x3 NOT DUP3 ADD SLT PUSH2 0x164 JUMPI PUSH1 0x4 CALLDATALOAD PUSH1 0x1 PUSH1 0x1 PUSH1 0x40 SHL SUB DUP2 GT PUSH2 0x164 JUMPI DUP2 PUSH2 0x4EE SWAP2 PUSH1 0x4 ADD PUSH2 0x494 JUMP JUMPDEST SWAP3 SWAP1 SWAP3 SWAP2 PUSH1 0x24 CALLDATALOAD SWAP1 PUSH1 0x1 PUSH1 0x1 PUSH1 0x40 SHL SUB DUP3 GT PUSH2 0x164 JUMPI PUSH2 0x510 SWAP2 PUSH1 0x4 ADD PUSH2 0x494 JUMP JUMPDEST SWAP1 SWAP2 JUMP JUMPDEST CALLVALUE PUSH2 0x164 JUMPI PUSH2 0x522 CALLDATASIZE PUSH2 0x4C4 JUMP JUMPDEST SWAP2 SWAP1 SWAP3 PUSH2 0x538 DUP4 PUSH2 0x532 DUP5 PUSH2 0xEB9 JUMP JUMPDEST EQ PUSH2 0xF1A JUMP JUMPDEST PUSH2 0x56A PUSH1 0x40 MLOAD PUSH1 0x20 DUP2 ADD SWAP1 PUSH2 0x554 DUP2 PUSH2 0x358 DUP9 DUP11 DUP10 DUP10 DUP9 PUSH2 0xFC6 JUMP JUMPDEST MLOAD SWAP1 KECCAK256 PUSH0 MLOAD PUSH1 0x20 PUSH2 0x130F PUSH0 CODECOPY PUSH0 MLOAD SWAP1 PUSH0 MSTORE SWAP1 MOD SWAP1 JUMP JUMPDEST SWAP4 PUSH2 0x587 PUSH1 0x40 MLOAD PUSH1 0x20 DUP2 ADD SWAP1 PUSH2 0x554 DUP2 PUSH2 0x358 DUP10 DUP8 DUP11 DUP11 DUP9 PUSH2 0xFF6 JUMP JUMPDEST SWAP2 PUSH1 0x1 SWAP4 PUSH2 0x59C PUSH2 0x597 DUP3 PUSH2 0xED4 JUMP JUMPDEST PUSH2 0xD6F JUMP JUMPDEST SWAP4 PUSH2 0x5B1 PUSH2 0x597 PUSH2 0x5AC DUP10 PUSH2 0x1014 JUMP JUMPDEST PUSH2 0xEEA JUMP JUMPDEST PUSH2 0x5C5 PUSH2 0x597 PUSH2 0x5C0 DUP6 PUSH2 0x1023 JUMP JUMPDEST PUSH2 0xED4 JUMP JUMPDEST SWAP1 PUSH2 0x5D5 PUSH2 0x597 PUSH2 0x5AC DUP12 PUSH2 0x1031 JUMP JUMPDEST SWAP2 PUSH0 SWAP7 PUSH0 SWAP10 JUMPDEST PUSH2 0x5E4 DUP8 PUSH2 0x1023 JUMP JUMPDEST DUP12 GT PUSH2 0x6A6 JUMPI DUP13 SWAP1 PUSH2 0x604 PUSH1 0x80 PUSH2 0x5FC DUP15 DUP12 DUP14 PUSH2 0x1062 JUMP JUMPDEST SWAP1 POP EQ PUSH2 0x10A3 JUMP JUMPDEST PUSH0 JUMPDEST DUP12 DUP14 PUSH1 0x80 DUP4 LT PUSH2 0x662 JUMPI POP POP POP PUSH0 JUMPDEST DUP12 PUSH1 0x20 DUP3 LT PUSH2 0x640 JUMPI POP POP PUSH2 0x63A SWAP2 PUSH0 MLOAD PUSH1 0x20 PUSH2 0x130F PUSH0 CODECOPY PUSH0 MLOAD SWAP1 PUSH0 MSTORE SWAP2 MULMOD SWAP11 PUSH2 0x1040 JUMP JUMPDEST SWAP10 PUSH2 0x5DB JUMP JUMPDEST DUP12 PUSH2 0x65B SWAP2 PUSH2 0x655 DUP5 SWAP15 DUP7 PUSH1 0x1 SWAP7 BYTE SWAP3 PUSH2 0x10E8 JUMP JUMPDEST MSTORE8 PUSH2 0x1040 JUMP JUMPDEST SWAP11 ADD PUSH2 0x615 JUMP JUMPDEST SWAP12 PUSH2 0x69F SWAP2 PUSH2 0x655 DUP3 DUP6 SWAP16 DUP16 DUP16 SWAP8 PUSH2 0x683 PUSH2 0x697 SWAP4 PUSH1 0x1 SWAP11 PUSH2 0x689 SWAP5 PUSH2 0x1062 JUMP JUMPDEST SWAP1 PUSH2 0x10DC JUMP JUMPDEST CALLDATALOAD PUSH1 0x1 PUSH1 0x1 PUSH1 0xF8 SHL SUB NOT AND SWAP1 JUMP JUMPDEST PUSH0 BYTE SWAP3 PUSH2 0x10E8 JUMP JUMPDEST SWAP11 ADD PUSH2 0x606 JUMP JUMPDEST POP DUP11 DUP8 SWAP5 SWAP6 SWAP7 DUP14 PUSH2 0x6B6 DUP13 PUSH2 0xDC3 JUMP JUMPDEST SWAP5 PUSH0 SWAP6 DUP11 SWAP9 PUSH0 SWAP10 JUMPDEST PUSH2 0x6D2 PUSH2 0x6CD PUSH2 0x6CD DUP9 PUSH2 0xF02 JUMP JUMPDEST PUSH2 0x1023 JUMP JUMPDEST DUP12 GT PUSH2 0x7AA JUMPI DUP13 SWAP1 PUSH2 0x6E3 DUP8 PUSH2 0x1023 JUMP JUMPDEST DUP13 EQ DUP1 ISZERO PUSH2 0x7A1 JUMPI JUMPDEST PUSH2 0x787 JUMPI PUSH0 JUMPDEST DUP12 DUP14 PUSH2 0x100 DUP4 LT PUSH2 0x75F JUMPI POP POP POP PUSH0 JUMPDEST PUSH1 0x1F DUP2 GT ISZERO PUSH2 0x72C JUMPI POP PUSH2 0x726 SWAP2 PUSH0 MLOAD PUSH1 0x20 PUSH2 0x130F PUSH0 CODECOPY PUSH0 MLOAD SWAP1 PUSH0 MSTORE SWAP2 MULMOD SWAP11 PUSH2 0x1040 JUMP JUMPDEST SWAP10 PUSH2 0x6BE JUMP JUMPDEST SWAP10 SWAP2 POP PUSH1 0x20 DUP11 LT ISZERO PUSH2 0x75A JUMPI PUSH2 0x755 PUSH2 0x74F DUP16 SWAP4 DUP14 PUSH2 0x655 DUP3 DUP16 DUP8 SWAP1 BYTE SWAP3 PUSH2 0x10E8 JUMP JUMPDEST SWAP11 PUSH2 0x1040 JUMP JUMPDEST PUSH2 0x702 JUMP JUMPDEST PUSH2 0x104E JUMP JUMPDEST SWAP12 PUSH2 0x780 SWAP2 PUSH2 0x655 DUP3 DUP6 SWAP16 DUP16 DUP16 SWAP8 PUSH2 0x683 PUSH2 0x697 SWAP4 PUSH1 0x1 SWAP11 PUSH2 0x689 SWAP5 PUSH2 0x1062 JUMP JUMPDEST SWAP11 ADD PUSH2 0x6F2 JUMP JUMPDEST PUSH2 0x726 SWAP2 PUSH0 MLOAD PUSH1 0x20 PUSH2 0x130F PUSH0 CODECOPY PUSH0 MLOAD SWAP1 PUSH0 MSTORE SWAP2 MULMOD SWAP11 PUSH2 0x1040 JUMP JUMPDEST POP DUP7 DUP13 EQ PUSH2 0x6EC JUMP JUMPDEST POP DUP7 SWAP4 SWAP6 SWAP5 DUP13 DUP13 PUSH2 0x7CA PUSH2 0x7BD DUP14 PUSH2 0xCF6 JUMP JUMPDEST PUSH2 0x7C5 PUSH2 0x10F9 JUMP JUMPDEST PUSH2 0x12C7 JUMP JUMPDEST SWAP1 PUSH0 SWAP6 DUP11 SWAP9 PUSH0 SWAP10 JUMPDEST PUSH2 0x7DE PUSH2 0x6CD DUP9 PUSH2 0x1023 JUMP JUMPDEST DUP12 GT PUSH2 0x871 JUMPI DUP13 SWAP1 PUSH0 JUMPDEST DUP12 DUP14 PUSH1 0x80 DUP4 LT PUSH2 0x849 JUMPI POP POP POP PUSH0 JUMPDEST PUSH1 0x1F DUP2 GT ISZERO PUSH2 0x821 JUMPI POP PUSH2 0x81B SWAP2 PUSH0 MLOAD PUSH1 0x20 PUSH2 0x130F PUSH0 CODECOPY PUSH0 MLOAD SWAP1 PUSH0 MSTORE SWAP2 MULMOD SWAP11 PUSH2 0x1040 JUMP JUMPDEST SWAP10 PUSH2 0x7D2 JUMP JUMPDEST SWAP10 SWAP2 POP PUSH1 0x20 DUP11 LT ISZERO PUSH2 0x75A JUMPI PUSH2 0x844 PUSH2 0x74F DUP16 SWAP4 DUP14 PUSH2 0x655 DUP3 DUP16 DUP8 SWAP1 BYTE SWAP3 PUSH2 0x10E8 JUMP JUMPDEST PUSH2 0x7F7 JUMP JUMPDEST SWAP12 PUSH2 0x86A SWAP2 PUSH2 0x655 DUP3 DUP6 SWAP16 DUP16 DUP16 SWAP8 PUSH2 0x683 PUSH2 0x697 SWAP4 PUSH1 0x1 SWAP11 PUSH2 0x689 SWAP5 PUSH2 0x1062 JUMP JUMPDEST SWAP11 ADD PUSH2 0x7E8 JUMP JUMPDEST POP DUP11 PUSH2 0x890 PUSH2 0x883 DUP12 SWAP9 SWAP7 SWAP8 SWAP9 PUSH2 0xDC3 JUMP JUMPDEST PUSH2 0x88B PUSH2 0x1201 JUMP JUMPDEST PUSH2 0xD1E JUMP JUMPDEST SWAP5 PUSH0 SWAP4 PUSH1 0x1 SWAP7 PUSH0 SWAP8 JUMPDEST PUSH2 0x8A5 PUSH2 0x6CD DUP6 PUSH2 0xF02 JUMP JUMPDEST DUP10 GT PUSH2 0x967 JUMPI DUP11 SWAP1 DUP5 DUP11 EQ DUP1 ISZERO PUSH2 0x956 JUMPI JUMPDEST PUSH2 0x93C JUMPI PUSH0 JUMPDEST DUP10 DUP12 PUSH2 0x100 DUP4 LT PUSH2 0x914 JUMPI POP POP POP PUSH0 JUMPDEST DUP10 PUSH1 0x20 DUP3 LT PUSH2 0x8F8 JUMPI POP POP PUSH2 0x8F2 SWAP2 PUSH0 MLOAD PUSH1 0x20 PUSH2 0x130F PUSH0 CODECOPY PUSH0 MLOAD SWAP1 PUSH0 MSTORE SWAP2 MULMOD SWAP9 PUSH2 0x1040 JUMP JUMPDEST SWAP8 PUSH2 0x899 JUMP JUMPDEST DUP10 PUSH2 0x90D SWAP2 PUSH2 0x655 DUP5 SWAP13 DUP7 PUSH1 0x1 SWAP7 BYTE SWAP3 PUSH2 0x10E8 JUMP JUMPDEST SWAP9 ADD PUSH2 0x8CD JUMP JUMPDEST SWAP10 PUSH2 0x935 SWAP2 PUSH2 0x655 DUP3 PUSH2 0x697 PUSH2 0x689 DUP8 SWAP16 SWAP8 DUP16 DUP16 SWAP10 PUSH1 0x1 SWAP11 PUSH2 0x683 SWAP3 PUSH2 0x1062 JUMP JUMPDEST SWAP9 ADD PUSH2 0x8BD JUMP JUMPDEST PUSH2 0x8F2 SWAP2 PUSH0 MLOAD PUSH1 0x20 PUSH2 0x130F PUSH0 CODECOPY PUSH0 MLOAD SWAP1 PUSH0 MSTORE SWAP2 MULMOD SWAP9 PUSH2 0x1040 JUMP JUMPDEST POP PUSH2 0x960 DUP6 PUSH2 0x128E JUMP JUMPDEST DUP11 EQ PUSH2 0x8B7 JUMP JUMPDEST PUSH2 0x1E4 PUSH2 0x97F DUP5 DUP5 DUP14 PUSH2 0x979 DUP14 PUSH2 0xCF6 JUMP JUMPDEST SWAP3 PUSH2 0xDD9 JUMP JUMPDEST PUSH1 0x40 MLOAD SWAP1 ISZERO ISZERO DUP2 MSTORE SWAP1 DUP2 SWAP1 PUSH1 0x20 DUP3 ADD SWAP1 JUMP JUMPDEST CALLVALUE PUSH2 0x164 JUMPI PUSH2 0x1E4 PUSH2 0x1D8 PUSH2 0x9A5 CALLDATASIZE PUSH2 0x1E8 JUMP JUMPDEST SWAP1 PUSH2 0x12C7 JUMP JUMPDEST CALLVALUE PUSH2 0x164 JUMPI PUSH2 0x9B9 CALLDATASIZE PUSH2 0x4C4 JUMP JUMPDEST SWAP1 SWAP3 SWAP2 PUSH2 0x9C7 DUP2 ISZERO ISZERO PUSH2 0xF1A JUMP JUMPDEST PUSH2 0x9D4 DUP3 PUSH2 0x532 DUP4 PUSH2 0xEB9 JUMP JUMPDEST PUSH2 0x9F0 PUSH1 0x40 MLOAD PUSH1 0x20 DUP2 ADD SWAP1 PUSH2 0x554 DUP2 PUSH2 0x358 DUP8 DUP11 DUP9 DUP12 DUP9 PUSH2 0xFC6 JUMP JUMPDEST SWAP2 PUSH2 0xA0D PUSH1 0x40 MLOAD PUSH1 0x20 DUP2 ADD SWAP1 PUSH2 0x554 DUP2 PUSH2 0x358 DUP7 DUP12 DUP10 DUP13 DUP9 PUSH2 0xFF6 JUMP JUMPDEST SWAP5 PUSH2 0xA1A PUSH2 0x597 DUP5 PUSH2 0xED4 JUMP JUMPDEST PUSH1 0x1 PUSH0 DUP7 DUP2 JUMPDEST DUP8 DUP11 DUP2 DUP6 LT PUSH2 0xC7F JUMPI POP POP POP POP POP POP PUSH2 0xA38 SWAP1 PUSH2 0xDC3 JUMP JUMPDEST PUSH2 0xA4F PUSH2 0x597 PUSH2 0x5AC PUSH2 0xA4A DUP8 PUSH2 0xF02 JUMP JUMPDEST PUSH2 0x1014 JUMP JUMPDEST SWAP4 PUSH0 SWAP6 DUP9 SWAP3 PUSH0 SWAP8 JUMPDEST PUSH2 0xA68 PUSH2 0xA63 DUP6 PUSH2 0xF02 JUMP JUMPDEST PUSH2 0x1031 JUMP JUMPDEST DUP10 GT PUSH2 0xB15 JUMPI DUP8 DUP12 SWAP2 DUP11 DUP10 DUP10 PUSH2 0xA7D DUP10 PUSH2 0x1023 JUMP JUMPDEST DUP4 EQ DUP1 ISZERO PUSH2 0xB0C JUMPI JUMPDEST PUSH2 0xAEB JUMPI DUP10 PUSH2 0xACF DUP6 PUSH2 0xACA PUSH1 0x1 SWAP10 SWAP8 DUP10 PUSH2 0x100 PUSH2 0xAC5 PUSH2 0xABD PUSH2 0xADD SWAP12 PUSH0 MLOAD PUSH1 0x20 PUSH2 0x130F PUSH0 CODECOPY PUSH0 MLOAD SWAP1 PUSH0 MSTORE SWAP15 SWAP12 PUSH2 0xAD8 SWAP12 PUSH2 0x1062 JUMP JUMPDEST SWAP1 SWAP3 EQ PUSH2 0xF1A JUMP JUMPDEST PUSH2 0x1301 JUMP JUMPDEST PUSH2 0x12B8 JUMP JUMPDEST SWAP3 DUP4 ADD PUSH1 0x20 ADD MSTORE JUMP JUMPDEST PUSH2 0x12AA JUMP JUMPDEST SWAP7 MULMOD SWAP9 ADD SWAP9 JUMPDEST SWAP9 SWAP8 SWAP4 PUSH2 0xA57 JUMP JUMPDEST POP POP POP SWAP6 PUSH0 MLOAD PUSH1 0x20 PUSH2 0x130F PUSH0 CODECOPY PUSH0 MLOAD SWAP1 PUSH0 MSTORE SWAP2 POP SWAP2 PUSH1 0x1 SWAP3 MULMOD SWAP9 ADD SWAP9 PUSH2 0xAE3 JUMP JUMPDEST POP DUP9 DUP4 EQ PUSH2 0xA86 JUMP JUMPDEST POP DUP9 SWAP2 SWAP4 POP DUP10 SWAP3 PUSH2 0xB28 PUSH2 0x7BD DUP10 PUSH2 0xCF6 JUMP JUMPDEST SWAP3 PUSH2 0xB36 PUSH1 0x2 DUP4 LT ISZERO PUSH2 0xF1A JUMP JUMPDEST PUSH2 0xB45 PUSH2 0x597 PUSH2 0x5C0 DUP5 PUSH2 0x1023 JUMP JUMPDEST SWAP4 PUSH0 SWAP6 DUP8 SWAP5 PUSH0 SWAP8 JUMPDEST PUSH2 0xB56 DUP7 PUSH2 0x1023 JUMP JUMPDEST DUP10 LT ISZERO PUSH2 0xBA7 JUMPI PUSH0 MLOAD PUSH1 0x20 PUSH2 0x130F PUSH0 CODECOPY PUSH0 MLOAD SWAP1 PUSH0 MSTORE DUP11 PUSH2 0xB9C DUP11 PUSH2 0xAD8 DUP12 PUSH2 0xACF DUP16 SWAP8 PUSH2 0xB97 DUP2 DUP16 DUP16 PUSH2 0xB92 PUSH2 0xABD PUSH1 0x1 SWAP15 DUP12 SWAP5 PUSH1 0x80 SWAP5 PUSH2 0x1062 JUMP JUMPDEST PUSH2 0x12F5 JUMP JUMPDEST PUSH2 0x129C JUMP JUMPDEST SWAP9 MULMOD SWAP9 ADD SWAP8 SWAP6 PUSH2 0xB4D JUMP JUMPDEST POP DUP5 SWAP4 POP DUP11 DUP11 PUSH2 0xBB9 PUSH2 0x883 DUP11 PUSH2 0xDC3 JUMP JUMPDEST PUSH2 0xBCB PUSH2 0x597 PUSH2 0x5AC PUSH2 0xA63 DUP11 PUSH2 0xF02 JUMP JUMPDEST SWAP7 PUSH0 SWAP5 PUSH1 0x1 SWAP3 DUP7 JUMPDEST PUSH2 0xBDF PUSH2 0x6CD DUP6 PUSH2 0xF02 JUMP JUMPDEST DUP9 GT PUSH2 0xC6C JUMPI DUP11 DUP10 SWAP2 DUP10 DUP10 DUP10 DUP9 DUP4 EQ DUP1 ISZERO PUSH2 0xC5B JUMPI JUMPDEST PUSH2 0xC3A JUMPI DUP10 PUSH2 0xACF DUP6 PUSH2 0xACA PUSH1 0x1 SWAP10 SWAP8 DUP10 PUSH2 0x100 PUSH2 0xAC5 PUSH2 0xABD PUSH2 0xC2C SWAP12 PUSH0 MLOAD PUSH1 0x20 PUSH2 0x130F PUSH0 CODECOPY PUSH0 MLOAD SWAP1 PUSH0 MSTORE SWAP15 SWAP12 PUSH2 0xAD8 SWAP12 PUSH2 0x1062 JUMP JUMPDEST SWAP7 MULMOD SWAP8 ADD SWAP9 JUMPDEST SWAP9 SWAP7 SWAP4 PUSH2 0xBD3 JUMP JUMPDEST POP POP POP SWAP6 PUSH0 MLOAD PUSH1 0x20 PUSH2 0x130F PUSH0 CODECOPY PUSH0 MLOAD SWAP1 PUSH0 MSTORE SWAP2 POP SWAP2 PUSH1 0x1 SWAP3 MULMOD SWAP8 ADD SWAP9 PUSH2 0xC32 JUMP JUMPDEST POP PUSH2 0xC65 DUP10 PUSH2 0x128E JUMP JUMPDEST DUP4 EQ PUSH2 0xBF5 JUMP JUMPDEST POP PUSH2 0x1E4 SWAP2 PUSH2 0x97F SWAP2 DUP11 PUSH2 0x979 DUP14 PUSH2 0xCF6 JUMP JUMPDEST PUSH2 0xCAC DUP4 PUSH2 0xB97 PUSH0 MLOAD PUSH1 0x20 PUSH2 0x130F PUSH0 CODECOPY PUSH0 MLOAD SWAP1 PUSH0 MSTORE SWAP6 DUP11 PUSH1 0x80 PUSH2 0xB92 PUSH2 0xABD DUP13 PUSH1 0x1 SWAP13 SWAP11 PUSH2 0xCBA SWAP11 PUSH2 0x1062 JUMP JUMPDEST DUP8 DUP2 ADD PUSH1 0x20 ADD DUP8 SWAP1 MSTORE PUSH2 0x12AA JUMP JUMPDEST SWAP5 MULMOD SWAP3 SWAP2 ADD SWAP1 DUP8 SWAP1 PUSH2 0xA20 JUMP JUMPDEST RETURNDATASIZE ISZERO PUSH2 0xCF1 JUMPI RETURNDATASIZE SWAP1 PUSH2 0xCD8 DUP3 PUSH2 0x103 JUMP JUMPDEST SWAP2 PUSH2 0xCE6 PUSH1 0x40 MLOAD SWAP4 DUP5 PUSH2 0xDD JUMP JUMPDEST DUP3 MSTORE RETURNDATASIZE PUSH0 PUSH1 0x20 DUP5 ADD RETURNDATACOPY JUMP JUMPDEST PUSH1 0x60 SWAP1 JUMP JUMPDEST PUSH0 DUP1 SWAP2 PUSH1 0x20 DUP2 MLOAD SWAP2 ADD PUSH1 0xE GAS STATICCALL POP PUSH2 0x192 PUSH2 0xCC7 JUMP JUMPDEST DUP1 MLOAD SWAP2 SWAP1 DUP3 SWAP1 PUSH1 0x20 ADD DUP3 MCOPY ADD PUSH0 DUP2 MSTORE SWAP1 JUMP JUMPDEST PUSH0 SWAP2 SWAP1 PUSH2 0x358 PUSH2 0xD3D DUP5 SWAP4 PUSH1 0x40 MLOAD SWAP3 DUP4 SWAP2 PUSH2 0x285 PUSH1 0x20 DUP5 ADD DUP1 SWAP8 PUSH2 0xD0C JUMP JUMPDEST MLOAD SWAP1 PUSH1 0xB GAS STATICCALL POP PUSH2 0x192 PUSH2 0xCC7 JUMP JUMPDEST PUSH1 0x40 MLOAD PUSH2 0x100 SWAP2 SWAP1 PUSH2 0xD5E DUP4 DUP3 PUSH2 0xDD JUMP JUMPDEST PUSH1 0xC8 DUP2 MSTORE SWAP2 PUSH1 0x1F NOT ADD CALLDATASIZE PUSH1 0x20 DUP5 ADD CALLDATACOPY JUMP JUMPDEST SWAP1 PUSH2 0xD79 DUP3 PUSH2 0x103 JUMP JUMPDEST PUSH2 0xD86 PUSH1 0x40 MLOAD SWAP2 DUP3 PUSH2 0xDD JUMP JUMPDEST DUP3 DUP2 MSTORE DUP1 SWAP3 PUSH2 0xD97 PUSH1 0x1F NOT SWAP2 PUSH2 0x103 JUMP JUMPDEST ADD SWAP1 PUSH1 0x20 CALLDATASIZE SWAP2 ADD CALLDATACOPY JUMP JUMPDEST PUSH1 0x20 DUP2 MLOAD SWAP2 ADD MLOAD SWAP1 PUSH1 0x20 DUP2 LT PUSH2 0xDB5 JUMPI POP SWAP1 JUMP JUMPDEST PUSH0 NOT SWAP1 PUSH1 0x20 SUB PUSH1 0x3 SHL SHL AND SWAP1 JUMP JUMPDEST PUSH0 DUP1 SWAP2 PUSH1 0x20 DUP2 MLOAD SWAP2 ADD PUSH1 0xC GAS STATICCALL POP PUSH2 0x192 PUSH2 0xCC7 JUMP JUMPDEST SWAP1 PUSH2 0xE54 PUSH2 0x285 SWAP2 PUSH2 0x358 PUSH0 SWAP7 DUP8 DUP1 DUP1 SWAP9 PUSH1 0x40 MLOAD PUSH2 0xE2E PUSH1 0x20 DUP3 PUSH2 0xE00 DUP3 DUP3 ADD DUP1 SWAP7 PUSH2 0xD0C JUMP JUMPDEST PUSH32 0x73EDA753299D7D483339D80809A1D80553BDA402FFFE5BFEFFFFFFFF00000000 DUP2 MSTORE SUB DUP1 DUP5 MSTORE ADD DUP3 PUSH2 0xDD JUMP JUMPDEST MLOAD SWAP1 PUSH1 0xC GAS STATICCALL POP PUSH2 0x285 PUSH2 0xE40 PUSH2 0xCC7 JUMP JUMPDEST PUSH1 0x40 MLOAD SWAP7 DUP8 SWAP6 PUSH2 0x285 PUSH1 0x20 DUP9 ADD DUP1 SWAP12 PUSH2 0xD0C JUMP JUMPDEST MLOAD SWAP1 PUSH1 0xF GAS STATICCALL POP PUSH1 0x1 PUSH2 0xE68 PUSH2 0x37C PUSH2 0xCC7 JUMP JUMPDEST EQ SWAP1 JUMP JUMPDEST PUSH0 SWAP3 PUSH2 0xE96 PUSH1 0x20 DUP1 DUP7 SWAP6 PUSH1 0x40 MLOAD SWAP5 DUP2 DUP7 SWAP3 DUP5 DUP5 ADD SWAP9 DUP10 CALLDATACOPY DUP3 ADD SWAP1 DUP4 DUP3 ADD MSTORE SUB ADD DUP1 DUP5 MSTORE ADD DUP3 PUSH2 0xDD JUMP JUMPDEST MLOAD SWAP1 PUSH1 0xE GAS STATICCALL POP PUSH2 0x192 PUSH2 0xCC7 JUMP JUMPDEST PUSH4 0x4E487B71 PUSH1 0xE0 SHL PUSH0 MSTORE PUSH1 0x11 PUSH1 0x4 MSTORE PUSH1 0x24 PUSH0 REVERT JUMPDEST SWAP1 DUP2 PUSH1 0x1 SHL SWAP2 DUP1 DUP4 DIV PUSH1 0x2 EQ SWAP1 ISZERO OR ISZERO PUSH2 0xECF JUMPI JUMP JUMPDEST PUSH2 0xEA5 JUMP JUMPDEST SWAP1 PUSH1 0xA0 DUP3 MUL SWAP2 DUP1 DUP4 DIV PUSH1 0xA0 EQ SWAP1 ISZERO OR ISZERO PUSH2 0xECF JUMPI JUMP JUMPDEST SWAP1 PUSH2 0x120 DUP3 MUL SWAP2 DUP1 DUP4 DIV PUSH2 0x120 EQ SWAP1 ISZERO OR ISZERO PUSH2 0xECF JUMPI JUMP JUMPDEST PUSH1 0x1 DUP2 SWAP1 SHL SWAP2 SWAP1 PUSH1 0x1 PUSH1 0x1 PUSH1 0xFF SHL SUB DUP2 AND SUB PUSH2 0xECF JUMPI JUMP JUMPDEST ISZERO PUSH2 0x164 JUMPI JUMP JUMPDEST SWAP1 DUP1 PUSH1 0x20 SWAP4 SWAP3 DUP2 DUP5 MSTORE DUP5 DUP5 ADD CALLDATACOPY PUSH0 DUP3 DUP3 ADD DUP5 ADD MSTORE PUSH1 0x1F ADD PUSH1 0x1F NOT AND ADD ADD SWAP1 JUMP JUMPDEST SWAP1 PUSH1 0x20 DUP4 DUP3 DUP2 MSTORE ADD SWAP1 PUSH1 0x20 DUP2 PUSH1 0x5 SHL DUP6 ADD ADD SWAP4 DUP4 PUSH0 SWAP2 JUMPDEST DUP4 DUP4 LT PUSH2 0xF68 JUMPI POP POP POP POP POP POP SWAP1 JUMP JUMPDEST SWAP1 SWAP2 SWAP3 SWAP4 SWAP5 SWAP6 PUSH1 0x1F NOT DUP3 DUP3 SUB ADD DUP7 MSTORE DUP7 CALLDATALOAD PUSH1 0x1E NOT DUP5 CALLDATASIZE SUB ADD DUP2 SLT ISZERO PUSH2 0x164 JUMPI DUP4 ADD SWAP1 PUSH1 0x20 DUP3 CALLDATALOAD SWAP3 ADD SWAP2 PUSH1 0x1 PUSH1 0x1 PUSH1 0x40 SHL SUB DUP2 GT PUSH2 0x164 JUMPI DUP1 CALLDATASIZE SUB DUP4 SGT PUSH2 0x164 JUMPI PUSH2 0xFB8 PUSH1 0x20 SWAP3 DUP4 SWAP3 PUSH1 0x1 SWAP6 PUSH2 0xF21 JUMP JUMPDEST SWAP9 ADD SWAP7 ADD SWAP5 SWAP4 ADD SWAP2 SWAP1 PUSH2 0xF58 JUMP JUMPDEST SWAP5 SWAP4 SWAP3 PUSH0 SWAP4 PUSH2 0xFE3 PUSH2 0xFF1 SWAP4 PUSH1 0x40 SWAP6 PUSH1 0x60 DUP11 MSTORE PUSH1 0x60 DUP11 ADD SWAP2 PUSH2 0xF41 JUMP JUMPDEST SWAP2 DUP8 DUP4 SUB PUSH1 0x20 DUP10 ADD MSTORE PUSH2 0xF41 JUMP JUMPDEST SWAP4 ADD MSTORE JUMP JUMPDEST SWAP5 SWAP4 SWAP3 PUSH1 0x1 SWAP4 PUSH2 0xFE3 PUSH2 0xFF1 SWAP4 PUSH1 0x40 SWAP6 PUSH1 0x60 DUP11 MSTORE PUSH1 0x60 DUP11 ADD SWAP2 PUSH2 0xF41 JUMP JUMPDEST PUSH1 0x2 NOT DUP2 ADD SWAP2 SWAP1 DUP3 GT PUSH2 0xECF JUMPI JUMP JUMPDEST PUSH0 NOT DUP2 ADD SWAP2 SWAP1 DUP3 GT PUSH2 0xECF JUMPI JUMP JUMPDEST PUSH1 0x1 NOT DUP2 ADD SWAP2 SWAP1 DUP3 GT PUSH2 0xECF JUMPI JUMP JUMPDEST PUSH0 NOT DUP2 EQ PUSH2 0xECF JUMPI PUSH1 0x1 ADD SWAP1 JUMP JUMPDEST PUSH4 0x4E487B71 PUSH1 0xE0 SHL PUSH0 MSTORE PUSH1 0x32 PUSH1 0x4 MSTORE PUSH1 0x24 PUSH0 REVERT JUMPDEST SWAP2 SWAP1 DUP2 LT ISZERO PUSH2 0x75A JUMPI PUSH1 0x5 SHL DUP2 ADD CALLDATALOAD SWAP1 PUSH1 0x1E NOT DUP2 CALLDATASIZE SUB ADD DUP3 SLT ISZERO PUSH2 0x164 JUMPI ADD SWAP1 DUP2 CALLDATALOAD SWAP2 PUSH1 0x1 PUSH1 0x1 PUSH1 0x40 SHL SUB DUP4 GT PUSH2 0x164 JUMPI PUSH1 0x20 ADD DUP3 CALLDATASIZE SUB DUP2 SGT PUSH2 0x164 JUMPI SWAP2 SWAP1 JUMP JUMPDEST ISZERO PUSH2 0x10AA JUMPI JUMP JUMPDEST PUSH1 0x40 MLOAD PUSH3 0x461BCD PUSH1 0xE5 SHL DUP2 MSTORE PUSH1 0x20 PUSH1 0x4 DUP3 ADD MSTORE PUSH1 0xA PUSH1 0x24 DUP3 ADD MSTORE PUSH10 0x3130B2102398903632B7 PUSH1 0xB1 SHL PUSH1 0x44 DUP3 ADD MSTORE PUSH1 0x64 SWAP1 REVERT JUMPDEST SWAP1 DUP3 LT ISZERO PUSH2 0x75A JUMPI ADD SWAP1 JUMP JUMPDEST SWAP1 DUP2 MLOAD DUP2 LT ISZERO PUSH2 0x75A JUMPI ADD PUSH1 0x20 ADD SWAP1 JUMP JUMPDEST PUSH1 0x40 MLOAD SWAP1 PUSH2 0x1109 PUSH2 0x120 DUP4 PUSH2 0xDD JUMP JUMPDEST PUSH2 0x100 DUP3 MSTORE PUSH32 0xCB3E287E85A763AF267492AB572E99AB3F370D275CEC1DA1AAA9075FF05F79BE PUSH2 0x100 DUP4 PUSH16 0x24AA2B2F08F0A91260805272DC51051 PUSH1 0x20 DUP3 ADD MSTORE PUSH32 0xC6E47AD4FA403B02B4510B647AE3D1770BAC0326A805BBEFD48056C8C121BDB8 PUSH1 0x40 DUP3 ADD MSTORE PUSH16 0x13E02B6052719F607DACD3A088274F65 PUSH1 0x60 DUP3 ADD MSTORE PUSH32 0x596BD0D09920B61AB5DA61BBDC7F5049334CF11213945D57E5AC7D055D042B7E PUSH1 0x80 DUP3 ADD MSTORE PUSH16 0xCE5D527727D6E118CC9CDC6DA2E351A PUSH1 0xA0 DUP3 ADD MSTORE PUSH32 0xADFD9BAA8CBDD3A76D429A695160D12C923AC9CC3BACA289E193548608B82801 PUSH1 0xC0 DUP3 ADD MSTORE PUSH16 0x606C4A02EA734CC32ACD2B02BC28B99 PUSH1 0xE0 DUP3 ADD MSTORE ADD MSTORE JUMP JUMPDEST PUSH1 0x40 MLOAD SWAP1 PUSH2 0x1210 PUSH1 0xA0 DUP4 PUSH2 0xDD JUMP JUMPDEST PUSH1 0x80 DUP3 MSTORE PUSH32 0xFCF5E095D5D00AF600DB18CB2C04B3EDD03CC744A2888AE40CAA232946C5E7E1 PUSH1 0x80 DUP4 PUSH16 0x17F1D3A73197D7942695638C4FA9AC0F PUSH1 0x20 DUP3 ADD MSTORE PUSH32 0xC3688C4F9774B905A14E3A3F171BAC586C55E83FF97A1AEFFB3AF00ADB22C6BB PUSH1 0x40 DUP3 ADD MSTORE PUSH16 0x8B3F481E3AAA0F1A09E30ED741D8AE4 PUSH1 0x60 DUP3 ADD MSTORE ADD MSTORE JUMP JUMPDEST SWAP1 PUSH1 0x1 DUP3 ADD DUP1 SWAP3 GT PUSH2 0xECF JUMPI JUMP JUMPDEST SWAP1 PUSH1 0x80 DUP3 ADD DUP1 SWAP3 GT PUSH2 0xECF JUMPI JUMP JUMPDEST SWAP1 PUSH1 0x20 DUP3 ADD DUP1 SWAP3 GT PUSH2 0xECF JUMPI JUMP JUMPDEST SWAP1 PUSH2 0x100 DUP3 ADD DUP1 SWAP3 GT PUSH2 0xECF JUMPI JUMP JUMPDEST PUSH0 SWAP2 SWAP1 PUSH2 0x358 PUSH2 0x12E6 DUP5 SWAP4 PUSH1 0x40 MLOAD SWAP3 DUP4 SWAP2 PUSH2 0x285 PUSH1 0x20 DUP5 ADD DUP1 SWAP8 PUSH2 0xD0C JUMP JUMPDEST MLOAD SWAP1 PUSH1 0xD GAS STATICCALL POP PUSH2 0x192 PUSH2 0xCC7 JUMP JUMPDEST SWAP1 PUSH1 0x80 SWAP3 PUSH1 0x20 SWAP2 ADD ADD CALLDATACOPY JUMP JUMPDEST SWAP1 PUSH2 0x100 SWAP3 PUSH1 0x20 SWAP2 ADD ADD CALLDATACOPY JUMP INVALID PUSH20 0xEDA753299D7D483339D80809A1D80553BDA402FF INVALID JUMPDEST INVALID SELFDESTRUCT SELFDESTRUCT SELFDESTRUCT SELFDESTRUCT STOP STOP STOP ADD LOG2 PUSH5 0x6970667358 0x22 SLT KECCAK256 0xAE CLZ 0xB4 CODECOPY SSTORE 0xC 0xC1 LOG2 0xBF 0xD5 0xB5 0xD4 0xFC PUSH1 0xDF 0xAD 0xDA 0xC0 EXP PUSH28 0x8684BCABCC068B2F4A6C610164736F6C634300081F00330000000000 "
				},
				"gasEstimates": {
					"creation": {
						"codeDepositCost": "992800",
						"executionCost": "1043",
						"totalCost": "993843"
					},
					"external": {
						"Check2(bytes[],bytes[])": "infinite",
						"Check3(bytes[],bytes[])": "infinite",
						"EqualPairingCheck(bytes,bytes,bytes,bytes)": "infinite",
						"G1Add(bytes,bytes)": "infinite",
						"G1Mul(bytes,uint256)": "infinite",
						"G1Muls(bytes)": "infinite",
						"G2Add(bytes,bytes)": "infinite",
						"G2Mul(bytes,uint256)": "infinite",
						"G2Muls(bytes)": "infinite",
						"Pairing(bytes,bytes,bytes,bytes)": "infinite",
						"testt()": "infinite"
					},
					"internal": {
						"_cdCopy(bytes calldata,uint256,bytes memory,uint256,uint256)": "infinite",
						"_mstoreScalar(bytes memory,uint256,uint256)": "infinite"
					}
				},
				"methodIdentifiers": {
					"Check2(bytes[],bytes[])": "e1f66c1b",
					"Check3(bytes[],bytes[])": "cac924e7",
					"EqualPairingCheck(bytes,bytes,bytes,bytes)": "6f18b669",
					"G1Add(bytes,bytes)": "4d919405",
					"G1Mul(bytes,uint256)": "c1f2c915",
					"G1Muls(bytes)": "6592041a",
					"G2Add(bytes,bytes)": "d6385d60",
					"G2Mul(bytes,uint256)": "af1d0bd9",
					"G2Muls(bytes)": "3f009c16",
					"Pairing(bytes,bytes,bytes,bytes)": "5cdc73ef",
					"testt()": "578a34ce"
				}
			},
			"storageLayout": {
				"storage": [],
				"types": null
			},
			"userdoc": {
				"kind": "user",
				"methods": {},
				"version": 1
			}
		}
	}
}