{
	"Verfiy.sol": {
		"Verify": {
			"abi": [
				{
					"inputs": [
						{
							"internalType": "bytes[]",
							"name": "g1s",
							"type": "bytes[]"
						},
						{
							"internalType": "bytes[]",
							"name": "g2s",
							"type": "bytes[]"
						}
					],
					"name": "Check2",
					"outputs": [
						{
							"internalType": "bool",
							"name": "",
							"type": "bool"
						}
					],
					"stateMutability": "nonpayable",
					"type": "function"
				},
				{
					"inputs": [
						{
							"internalType": "bytes[]",
							"name": "g1s",
							"type": "bytes[]"
						},
						{
							"internalType": "bytes[]",
							"name": "g2s",
							"type": "bytes[]"
						}
					],
					"name": "Check3",
					"outputs": [
						{
							"internalType": "bool",
							"name": "",
							"type": "bool"
						}
					],
					"stateMutability": "nonpayable",
					"type": "function"
				},
				{
					"inputs": [
						{
							"internalType": "bytes",
							"name": "p1",
							"type": "bytes"
						},
						{
							"internalType": "bytes",
							"name": "p2",
							"type": "bytes"
						},
						{
							"internalType": "bytes",
							"name": "p3",
							"type": "bytes"
						},
						{
							"internalType": "bytes",
							"name": "p4",
							"type": "bytes"
						}
					],
					"name": "EqualPairingCheck",
					"outputs": [
						{
							"internalType": "bool",
							"name": "",
							"type": "bool"
						}
					],
					"stateMutability": "view",
					"type": "function"
				},
				{
					"inputs": [
						{
							"internalType": "bytes",
							"name": "p1",
							"type": "bytes"
						},
						{
							"internalType": "bytes",
							"name": "p2",
							"type": "bytes"
						}
					],
					"name": "G1Add",
					"outputs": [
						{
							"internalType": "bytes",
							"name": "point",
							"type": "bytes"
						}
					],
					"stateMutability": "view",
					"type": "function"
				},
				{
					"inputs": [
						{
							"internalType": "bytes",
							"name": "p1",
							"type": "bytes"
						},
						{
							"internalType": "uint256",
							"name": "scalar",
							"type": "uint256"
						}
					],
					"name": "G1Mul",
					"outputs": [
						{
							"internalType": "bytes",
							"name": "point",
							"type": "bytes"
						}
					],
					"stateMutability": "view",
					"type": "function"
				},
				{
					"inputs": [
						{
							"internalType": "bytes",
							"name": "d",
							"type": "bytes"
						}
					],
					"name": "G1Muls",
					"outputs": [
						{
							"internalType": "bytes",
							"name": "point",
							"type": "bytes"
						}
					],
					"stateMutability": "view",
					"type": "function"
				},
				{
					"inputs": [
						{
							"internalType": "bytes",
							"name": "p1",
							"type": "bytes"
						},
						{
							"internalType": "bytes",
							"name": "p2",
							"type": "bytes"
						}
					],
					"name": "G2Add",
					"outputs": [
						{
							"internalType": "bytes",
							"name": "point",
							"type": "bytes"
						}
					],
					"stateMutability": "view",
					"type": "function"
				},
				{
					"inputs": [
						{
							"internalType": "bytes",
							"name": "p1",
							"type": "bytes"
						},
						{
							"internalType": "uint256",
							"name": "scalar",
							"type": "uint256"
						}
					],
					"name": "G2Mul",
					"outputs": [
						{
							"internalType": "bytes",
							"name": "point",
							"type": "bytes"
						}
					],
					"stateMutability": "view",
					"type": "function"
				},
				{
					"inputs": [
						{
							"internalType": "bytes",
							"name": "d",
							"type": "bytes"
						}
					],
					"name": "G2Muls",
					"outputs": [
						{
							"internalType": "bytes",
							"name": "point",
							"type": "bytes"
						}
					],
					"stateMutability": "view",
					"type": "function"
				},
				{
					"inputs": [
						{
							"internalType": "bytes",
							"name": "p1",
							"type": "bytes"
						},
						{
							"internalType": "bytes",
							"name": "p2",
							"type": "bytes"
						},
						{
							"internalType": "bytes",
							"name": "p3",
							"type": "bytes"
						},
						{
							"internalType": "bytes",
							"name": "p4",
							"type": "bytes"
						}
					],
					"name": "Pairing",
					"outputs": [
						{
							"internalType": "bool",
							"name": "",
							"type": "bool"
						}
					],
					"stateMutability": "view",
					"type": "function"
				},
				{
					"inputs": [],
					"name": "testt",
					"outputs": [],
					"stateMutability": "view",
					"type": "function"
				},
				{
					"inputs": [],
					"name": "w",
					"outputs": [
						{
							"internalType": "bool",
							"name": "",
							"type": "bool"
						}
					],
					"stateMutability": "view",
					"type": "function"
				},
				{
					"inputs": [
						{
							"internalType": "bytes[]",
							"name": "g1s",
							"type": "bytes[]"
						},
						{
							"internalType": "bytes[]",
							"name": "g2s",
							"type": "bytes[]"
						}
					],
					"name": "why1",
					"outputs": [],
					"stateMutability": "nonpayable",
					"type": "function"
				},
				{
					"inputs": [
						{
							"internalType": "bytes[]",
							"name": "g1s",
							"type": "bytes[]"
						},
						{
							"internalType": "bytes[]",
							"name": "g2s",
							"type": "bytes[]"
						}
					],
					"name": "why2",
					"outputs": [],
					"stateMutability": "nonpayable",
					"type": "function"
				}
			],
			"devdoc": {
				"kind": "dev",
				"methods": {},
				"version": 1
			},
			"evm": {
				"assembly": "    /* \"Verfiy.sol\":26:10527  contract Verify {... */\n  0x80\n  dup1\n  0x40\n  mstore\n  jumpi(tag_1, callvalue)\n  not(0xff)\n    /* \"Verfiy.sol\":7307:7312  false */\n  0x00\n    /* \"Verfiy.sol\":26:10527  contract Verify {... */\n  sload\n  and\n    /* \"Verfiy.sol\":7307:7312  false */\n  0x00\n    /* \"Verfiy.sol\":26:10527  contract Verify {... */\n  sstore\n  dataSize(sub_0)\n  swap1\n  dup2\n  dataOffset(sub_0)\n  dup3\n  codecopy\n  return\ntag_1:\n  0x00\n  dup1\n  revert\nstop\n\nsub_0: assembly {\n        /* \"Verfiy.sol\":26:10527  contract Verify {... */\n      mstore(0x40, 0x80)\n      jumpi(tag_73, iszero(lt(calldatasize, 0x04)))\n      0x00\n      dup1\n      revert\n    tag_73:\n      shr(0xe0, calldataload(0x00))\n      dup1\n      0x01f96f4a\n      eq\n      tag_75\n      jumpi\n      dup1\n      0x205c9cc7\n      eq\n      tag_77\n      jumpi\n      dup1\n      0x3d4e635f\n      eq\n      tag_79\n      jumpi\n      dup1\n      0x3f009c16\n      eq\n      tag_81\n      jumpi\n      dup1\n      0x4d919405\n      eq\n      tag_83\n      jumpi\n      dup1\n      0x578a34ce\n      eq\n      tag_85\n      jumpi\n      dup1\n      0x5cdc73ef\n      eq\n      tag_87\n      jumpi\n      dup1\n      0x6592041a\n      eq\n      tag_89\n      jumpi\n      dup1\n      0x6f18b669\n      eq\n      tag_91\n      jumpi\n      dup1\n      0xaf1d0bd9\n      eq\n      tag_93\n      jumpi\n      dup1\n      0xc1f2c915\n      eq\n      tag_95\n      jumpi\n      dup1\n      0xcac924e7\n      eq\n      tag_97\n      jumpi\n      dup1\n      0xd6385d60\n      eq\n      tag_99\n      jumpi\n      0xe1f66c1b\n      eq\n      tag_101\n      jumpi\n      0x00\n      dup1\n      revert\n    tag_101:\n      tag_28\n      jump\t// in\n    tag_99:\n      tag_27\n      jump\t// in\n    tag_97:\n      tag_26\n      jump\t// in\n    tag_95:\n      tag_25\n      jump\t// in\n    tag_93:\n      tag_24\n      jump\t// in\n    tag_91:\n      tag_22\n      jump\t// in\n    tag_89:\n      tag_21\n      jump\t// in\n    tag_87:\n      tag_20\n      jump\t// in\n    tag_85:\n      tag_18\n      jump\t// in\n    tag_83:\n      tag_17\n      jump\t// in\n    tag_81:\n      tag_15\n      jump\t// in\n    tag_79:\n      tag_7\n      jump\t// in\n    tag_77:\n      tag_6\n      jump\t// in\n    tag_75:\n      tag_3\n      jump\t// in\n    tag_1:\n      swap2\n      dup2\n      0x1f\n      dup5\n      add\n      slt\n      iszero\n      tag_107\n      jumpi\n      dup3\n      calldataload\n      swap2\n      sub(shl(0x40, 0x01), 0x01)\n      dup4\n      gt\n      tag_107\n      jumpi\n      0x20\n      dup1\n      dup6\n      add\n      swap5\n      dup5\n      0x05\n      shl\n      add\n      add\n      gt\n      tag_107\n      jumpi\n      jump\t// out\n    tag_107:\n      0x00\n      dup1\n      revert\n    tag_2:\n      0x40\n      not(0x03)\n      dup3\n      add\n      slt\n      tag_107\n      jumpi\n      calldataload(0x04)\n      sub(shl(0x40, 0x01), 0x01)\n      dup2\n      gt\n      tag_107\n      jumpi\n      dup2\n      tag_113\n      swap2\n      0x04\n      add\n      tag_1\n      jump\t// in\n    tag_113:\n      swap3\n      swap1\n      swap3\n      swap2\n      calldataload(0x24)\n      swap1\n      sub(shl(0x40, 0x01), 0x01)\n      dup3\n      gt\n      tag_107\n      jumpi\n      tag_116\n      swap2\n      0x04\n      add\n      tag_1\n      jump\t// in\n    tag_116:\n      swap1\n      swap2\n      jump\t// out\n    tag_3:\n      jumpi(tag_107, callvalue)\n      mload(0x00)\n      codecopy(0x00, data_3b2d02282c3edcbfc4f9664b53f75892ea03b8fe586039e3ee6fe41258ca9b0d, 0x20)\n      mload(0x00)\n      swap1\n      0x00\n      mstore\n      tag_119\n      tag_120\n        /* \"Verfiy.sol\":7649:7668  abi.encode(g1s,g2s) */\n      tag_121\n        /* \"Verfiy.sol\":26:10527  contract Verify {... */\n      tag_122\n      calldatasize\n      tag_2\n      jump\t// in\n    tag_122:\n      0x40\n      swap7\n      swap3\n      swap7\n      mload\n        /* \"Verfiy.sol\":7649:7668  abi.encode(g1s,g2s) */\n      swap6\n      dup7\n      swap5\n      0x20\n      dup7\n      add\n        /* \"Verfiy.sol\":26:10527  contract Verify {... */\n      swap9\n      0x40\n      dup11\n      mstore\n      0x60\n      dup8\n      add\n      swap2\n      tag_30\n      jump\t// in\n    tag_120:\n      dup5\n      dup2\n      sub\n      not(0x1f)\n      add\n      0x40\n      dup7\n      add\n      mstore\n      swap2\n      tag_30\n      jump\t// in\n    tag_119:\n        /* \"Verfiy.sol\":7649:7668  abi.encode(g1s,g2s) */\n      sub\n        /* \"Verfiy.sol\":26:10527  contract Verify {... */\n      not(0x1f)\n        /* \"Verfiy.sol\":7649:7668  abi.encode(g1s,g2s) */\n      dup2\n      add\n      dup4\n      mstore\n      dup3\n      tag_9\n      jump\t// in\n    tag_121:\n        /* \"Verfiy.sol\":26:10527  contract Verify {... */\n      mload\n        /* \"Verfiy.sol\":7639:7669  keccak256(abi.encode(g1s,g2s)) */\n      swap1\n      keccak256\n        /* \"Verfiy.sol\":77:143  0x73eda753299d7d483339d80809a1d80553bda402fffe5bfeffffffff00000001 */\n      mod\n        /* \"Verfiy.sol\":7678:7711  if (t!=0){... */\n      tag_123\n      jumpi\n        /* \"Verfiy.sol\":26:10527  contract Verify {... */\n      stop\n        /* \"Verfiy.sol\":7678:7711  if (t!=0){... */\n    tag_123:\n      0x00\n        /* \"Verfiy.sol\":77:143  0x73eda753299d7d483339d80809a1d80553bda402fffe5bfeffffffff00000001 */\n      dup1\n      sload\n      not(0xff)\n      and\n      swap1\n      sstore\n        /* \"Verfiy.sol\":26:10527  contract Verify {... */\n      stop\n    tag_6:\n      jumpi(tag_107, callvalue)\n      jumpi(tag_107, slt(add(not(0x03), calldatasize), 0x00))\n      0x20\n      and(sload(0x00), 0xff)\n      mload(0x40)\n      swap1\n      iszero\n      iszero\n      dup2\n      mstore\n      return\n    tag_7:\n      jumpi(tag_107, callvalue)\n      tag_131\n      calldatasize\n      tag_2\n      jump\t// in\n    tag_131:\n      swap3\n      swap1\n      swap2\n      tag_132\n      tag_32\n      jump\t// in\n    tag_132:\n        /* \"Verfiy.sol\":279:540  hex\"0000000000000000000000000000000017f1d3a73197d7942695638c4fa9ac0fc3688c4f9774b905a14e3a3f171bac586c55e83ff97a1aeffb3af00adb22c6bb0000000000000000000000000000000008b3f481e3aaa0f1a09e30ed741d8ae4fcf5e095d5d00af600db18cb2c04b3edd03cc744a2888ae40caa232946c5e7e1\" */\n      swap3\n        /* \"Verfiy.sol\":7525:7526  1 */\n      0x01\n        /* \"Verfiy.sol\":279:540  hex\"0000000000000000000000000000000017f1d3a73197d7942695638c4fa9ac0fc3688c4f9774b905a14e3a3f171bac586c55e83ff97a1aeffb3af00adb22c6bb0000000000000000000000000000000008b3f481e3aaa0f1a09e30ed741d8ae4fcf5e095d5d00af600db18cb2c04b3edd03cc744a2888ae40caa232946c5e7e1\" */\n      dup3\n      add\n      dup1\n      dup4\n      gt\n      tag_137\n      jumpi\n        /* \"Verfiy.sol\":7528:7534  g1s[1] */\n      tag_135\n        /* \"Verfiy.sol\":7518:7527  g2s[L1+1] */\n      tag_136\n      dup5\n      swap3\n      dup9\n      dup6\n      tag_40\n      jump\t// in\n    tag_136:\n        /* \"Verfiy.sol\":7528:7534  g1s[1] */\n      swap3\n      swap1\n      swap6\n      tag_39\n      jump\t// in\n    tag_135:\n        /* \"Verfiy.sol\":279:540  hex\"0000000000000000000000000000000017f1d3a73197d7942695638c4fa9ac0fc3688c4f9774b905a14e3a3f171bac586c55e83ff97a1aeffb3af00adb22c6bb0000000000000000000000000000000008b3f481e3aaa0f1a09e30ed741d8ae4fcf5e095d5d00af600db18cb2c04b3edd03cc744a2888ae40caa232946c5e7e1\" */\n      swap4\n      not(0x00)\n      dup2\n      add\n      swap2\n      swap1\n      dup3\n      gt\n      tag_137\n      jumpi\n      tag_139\n        /* \"Verfiy.sol\":7535:7544  g2s[L1-1] */\n      tag_140\n        /* \"Verfiy.sol\":279:540  hex\"0000000000000000000000000000000017f1d3a73197d7942695638c4fa9ac0fc3688c4f9774b905a14e3a3f171bac586c55e83ff97a1aeffb3af00adb22c6bb0000000000000000000000000000000008b3f481e3aaa0f1a09e30ed741d8ae4fcf5e095d5d00af600db18cb2c04b3edd03cc744a2888ae40caa232946c5e7e1\" */\n      tag_141\n        /* \"Verfiy.sol\":7535:7544  g2s[L1-1] */\n      swap4\n        /* \"Verfiy.sol\":7497:7545  EqualPairingCheck(g1,g2s[L1+1],g1s[1],g2s[L1-1]) */\n      tag_142\n        /* \"Verfiy.sol\":7535:7544  g2s[L1-1] */\n      swap11\n        /* \"Verfiy.sol\":279:540  hex\"0000000000000000000000000000000017f1d3a73197d7942695638c4fa9ac0fc3688c4f9774b905a14e3a3f171bac586c55e83ff97a1aeffb3af00adb22c6bb0000000000000000000000000000000008b3f481e3aaa0f1a09e30ed741d8ae4fcf5e095d5d00af600db18cb2c04b3edd03cc744a2888ae40caa232946c5e7e1\" */\n      tag_143\n        /* \"Verfiy.sol\":7535:7544  g2s[L1-1] */\n      swap8\n      tag_40\n      jump\t// in\n    tag_140:\n        /* \"Verfiy.sol\":26:10527  contract Verify {... */\n      swap8\n      swap1\n      swap5\n      calldatasize\n        /* \"Verfiy.sol\":279:540  hex\"0000000000000000000000000000000017f1d3a73197d7942695638c4fa9ac0fc3688c4f9774b905a14e3a3f171bac586c55e83ff97a1aeffb3af00adb22c6bb0000000000000000000000000000000008b3f481e3aaa0f1a09e30ed741d8ae4fcf5e095d5d00af600db18cb2c04b3edd03cc744a2888ae40caa232946c5e7e1\" */\n      swap2\n      tag_11\n      jump\t// in\n    tag_139:\n        /* \"Verfiy.sol\":26:10527  contract Verify {... */\n      swap5\n      calldatasize\n        /* \"Verfiy.sol\":279:540  hex\"0000000000000000000000000000000017f1d3a73197d7942695638c4fa9ac0fc3688c4f9774b905a14e3a3f171bac586c55e83ff97a1aeffb3af00adb22c6bb0000000000000000000000000000000008b3f481e3aaa0f1a09e30ed741d8ae4fcf5e095d5d00af600db18cb2c04b3edd03cc744a2888ae40caa232946c5e7e1\" */\n      swap2\n      tag_11\n      jump\t// in\n    tag_141:\n        /* \"Verfiy.sol\":26:10527  contract Verify {... */\n      swap4\n      calldatasize\n        /* \"Verfiy.sol\":279:540  hex\"0000000000000000000000000000000017f1d3a73197d7942695638c4fa9ac0fc3688c4f9774b905a14e3a3f171bac586c55e83ff97a1aeffb3af00adb22c6bb0000000000000000000000000000000008b3f481e3aaa0f1a09e30ed741d8ae4fcf5e095d5d00af600db18cb2c04b3edd03cc744a2888ae40caa232946c5e7e1\" */\n      swap2\n      tag_11\n      jump\t// in\n    tag_143:\n        /* \"Verfiy.sol\":7497:7545  EqualPairingCheck(g1,g2s[L1+1],g1s[1],g2s[L1-1]) */\n      swap3\n      tag_52\n      jump\t// in\n    tag_142:\n        /* \"Verfiy.sol\":26:10527  contract Verify {... */\n      iszero\n      iszero\n        /* \"Verfiy.sol\":77:143  0x73eda753299d7d483339d80809a1d80553bda402fffe5bfeffffffff00000001 */\n      0xff\n      dup1\n      not\n      sload(0x00)\n      and\n      swap2\n      and\n      or\n      0x00\n      sstore\n      0x00\n        /* \"Verfiy.sol\":26:10527  contract Verify {... */\n      dup1\n      return\n        /* \"Verfiy.sol\":279:540  hex\"0000000000000000000000000000000017f1d3a73197d7942695638c4fa9ac0fc3688c4f9774b905a14e3a3f171bac586c55e83ff97a1aeffb3af00adb22c6bb0000000000000000000000000000000008b3f481e3aaa0f1a09e30ed741d8ae4fcf5e095d5d00af600db18cb2c04b3edd03cc744a2888ae40caa232946c5e7e1\" */\n    tag_137:\n      tag_33\n      jump\t// in\n        /* \"Verfiy.sol\":26:10527  contract Verify {... */\n    tag_8:\n      mstore(0x00, shl(0xe0, 0x4e487b71))\n      mstore(0x04, 0x41)\n      revert(0x00, 0x24)\n    tag_9:\n      swap1\n      0x1f\n      dup1\n      not\n      swap2\n      add\n      and\n      dup2\n      add\n      swap1\n      dup2\n      lt\n      sub(shl(0x40, 0x01), 0x01)\n      dup3\n      gt\n      or\n      tag_144\n      jumpi\n      0x40\n      mstore\n      jump\t// out\n    tag_144:\n      tag_8\n      jump\t// in\n    tag_10:\n      sub(shl(0x40, 0x01), 0x01)\n      dup2\n      gt\n      tag_144\n      jumpi\n      0x1f\n      add\n      not(0x1f)\n      and\n      0x20\n      add\n      swap1\n      jump\t// out\n    tag_11:\n      swap3\n      swap2\n      swap3\n      tag_148\n      dup3\n      tag_10\n      jump\t// in\n    tag_148:\n      swap2\n      tag_149\n      mload(0x40)\n      swap4\n      dup5\n      tag_9\n      jump\t// in\n    tag_149:\n      dup3\n      swap5\n      dup2\n      dup5\n      mstore\n      dup2\n      dup4\n      add\n      gt\n      tag_107\n      jumpi\n      dup3\n      dup2\n      0x20\n      swap4\n      dup5\n      0x00\n      swap7\n      add\n      calldatacopy\n      add\n      add\n      mstore\n      jump\t// out\n    tag_12:\n      swap1\n      dup1\n      0x1f\n      dup4\n      add\n      slt\n      iszero\n      tag_107\n      jumpi\n      dup2\n      0x20\n      tag_154\n      swap4\n      calldataload\n      swap2\n      add\n      tag_11\n      jump\t// in\n    tag_154:\n      swap1\n      jump\t// out\n    tag_13:\n      0x20\n      not(0x03)\n      dup3\n      add\n      slt\n      tag_107\n      jumpi\n      calldataload(0x04)\n      swap1\n      sub(shl(0x40, 0x01), 0x01)\n      dup3\n      gt\n      tag_107\n      jumpi\n      tag_154\n      swap2\n      0x04\n      add\n      tag_12\n      jump\t// in\n    tag_14:\n      0x20\n      0x40\n      swap3\n      dup2\n      dup4\n      mstore\n      dup1\n      mload\n      swap2\n      dup3\n      swap2\n      dup3\n      dup3\n      dup7\n      add\n      mstore\n      add\n      dup5\n      dup5\n      add\n      mcopy\n      0x00\n      dup3\n      dup3\n      add\n      dup5\n      add\n      mstore\n      0x1f\n      add\n      not(0x1f)\n      and\n      add\n      add\n      swap1\n      jump\t// out\n    tag_15:\n      jumpi(tag_107, callvalue)\n      tag_162\n      tag_163\n      tag_164\n      calldatasize\n      tag_13\n      jump\t// in\n    tag_164:\n      tag_45\n      jump\t// in\n    tag_163:\n      mload(0x40)\n      swap2\n      dup3\n      swap2\n      dup3\n      tag_14\n      jump\t// in\n    tag_162:\n      sub\n      swap1\n      return\n    tag_16:\n      swap1\n      0x40\n      not(0x03)\n      dup4\n      add\n      slt\n      tag_107\n      jumpi\n      calldataload(0x04)\n      sub(shl(0x40, 0x01), 0x01)\n      dup2\n      gt\n      tag_107\n      jumpi\n      dup3\n      tag_169\n      swap2\n      0x04\n      add\n      tag_12\n      jump\t// in\n    tag_169:\n      swap2\n      calldataload(0x24)\n      swap1\n      sub(shl(0x40, 0x01), 0x01)\n      dup3\n      gt\n      tag_107\n      jumpi\n      tag_154\n      swap2\n      0x04\n      add\n      tag_12\n      jump\t// in\n    tag_17:\n      jumpi(tag_107, callvalue)\n      tag_162\n      tag_163\n      tag_177\n      calldatasize\n      tag_16\n      jump\t// in\n    tag_177:\n      swap1\n      tag_47\n      jump\t// in\n    tag_18:\n      jumpi(tag_107, callvalue)\n      jumpi(tag_107, slt(add(not(0x03), calldatasize), 0x00))\n        /* \"Verfiy.sol\":10497:10518  abi.encodePacked(a,b) */\n      tag_182\n        /* \"Verfiy.sol\":26:10527  contract Verify {... */\n      tag_183\n        /* \"Verfiy.sol\":10419:10433  new bytes(200) */\n      tag_184\n      tag_48\n      jump\t// in\n    tag_184:\n        /* \"Verfiy.sol\":26:10527  contract Verify {... */\n      tag_185\n        /* \"Verfiy.sol\":10458:10472  new bytes(200) */\n      tag_186\n      tag_48\n      jump\t// in\n    tag_186:\n        /* \"Verfiy.sol\":26:10527  contract Verify {... */\n      mload(0x40)\n        /* \"Verfiy.sol\":10497:10518  abi.encodePacked(a,b) */\n      swap4\n      dup5\n      swap4\n      0x20\n      dup6\n      add\n        /* \"Verfiy.sol\":26:10527  contract Verify {... */\n      swap1\n      tag_46\n      jump\t// in\n    tag_183:\n      swap1\n      tag_46\n      jump\t// in\n    tag_185:\n        /* \"Verfiy.sol\":10497:10518  abi.encodePacked(a,b) */\n      sub\n        /* \"Verfiy.sol\":26:10527  contract Verify {... */\n      swap1\n      not(0x1f)\n        /* \"Verfiy.sol\":10497:10518  abi.encodePacked(a,b) */\n      dup3\n      add\n      dup2\n      mstore\n      tag_9\n      jump\t// in\n    tag_182:\n        /* \"Verfiy.sol\":26:10527  contract Verify {... */\n      stop\n    tag_19:\n      swap1\n      0x80\n      not(0x03)\n      dup4\n      add\n      slt\n      tag_107\n      jumpi\n      calldataload(0x04)\n      sub(shl(0x40, 0x01), 0x01)\n      dup2\n      gt\n      tag_107\n      jumpi\n      dup3\n      tag_191\n      swap2\n      0x04\n      add\n      tag_12\n      jump\t// in\n    tag_191:\n      swap2\n      calldataload(0x24)\n      sub(shl(0x40, 0x01), 0x01)\n      dup2\n      gt\n      tag_107\n      jumpi\n      dup2\n      tag_194\n      swap2\n      0x04\n      add\n      tag_12\n      jump\t// in\n    tag_194:\n      swap2\n      calldataload(0x44)\n      sub(shl(0x40, 0x01), 0x01)\n      dup2\n      gt\n      tag_107\n      jumpi\n      dup3\n      tag_197\n      swap2\n      0x04\n      add\n      tag_12\n      jump\t// in\n    tag_197:\n      swap2\n      calldataload(0x64)\n      swap1\n      sub(shl(0x40, 0x01), 0x01)\n      dup3\n      gt\n      tag_107\n      jumpi\n      tag_154\n      swap2\n      0x04\n      add\n      tag_12\n      jump\t// in\n    tag_20:\n      jumpi(tag_107, callvalue)\n      0x00\n      dup1\n      tag_183\n      tag_183\n        /* \"Verfiy.sol\":9811:9843  abi.encodePacked(p1, p2, p3, p4) */\n      tag_205\n        /* \"Verfiy.sol\":26:10527  contract Verify {... */\n      tag_119\n      tag_207\n      calldatasize\n      tag_19\n      jump\t// in\n    tag_207:\n      swap2\n      swap4\n      swap3\n      swap7\n      swap1\n      mload(0x40)\n        /* \"Verfiy.sol\":9811:9843  abi.encodePacked(p1, p2, p3, p4) */\n      swap7\n      dup8\n      swap6\n        /* \"Verfiy.sol\":26:10527  contract Verify {... */\n      tag_183\n        /* \"Verfiy.sol\":9811:9843  abi.encodePacked(p1, p2, p3, p4) */\n      0x20\n      dup9\n      add\n        /* \"Verfiy.sol\":26:10527  contract Verify {... */\n      dup1\n      swap12\n      tag_46\n      jump\t// in\n        /* \"Verfiy.sol\":9811:9843  abi.encodePacked(p1, p2, p3, p4) */\n    tag_205:\n        /* \"Verfiy.sol\":9883:9914  address(0x0f).staticcall(input) */\n      mload\n      swap1\n        /* \"Verfiy.sol\":9891:9895  0x0f */\n      0x0f\n        /* \"Verfiy.sol\":9883:9914  address(0x0f).staticcall(input) */\n      gas\n      staticcall\n      pop\n        /* \"Verfiy.sol\":9811:9843  abi.encodePacked(p1, p2, p3, p4) */\n      0x20\n        /* \"Verfiy.sol\":9956:9957  1 */\n      0x01\n        /* \"Verfiy.sol\":9939:9951  bytes32(ret) */\n      tag_209\n        /* \"Verfiy.sol\":9883:9914  address(0x0f).staticcall(input) */\n      tag_210\n      tag_44\n      jump\t// in\n    tag_210:\n        /* \"Verfiy.sol\":9939:9951  bytes32(ret) */\n      tag_50\n      jump\t// in\n    tag_209:\n        /* \"Verfiy.sol\":9931:9957  uint256(bytes32(ret)) == 1 */\n      eq\n        /* \"Verfiy.sol\":26:10527  contract Verify {... */\n      mload(0x40)\n      swap1\n      dup2\n      mstore\n      return\n    tag_21:\n      jumpi(tag_107, callvalue)\n      tag_162\n      tag_163\n      tag_215\n      calldatasize\n      tag_13\n      jump\t// in\n    tag_215:\n      tag_51\n      jump\t// in\n    tag_22:\n      jumpi(tag_107, callvalue)\n      0x20\n      tag_218\n      tag_219\n      calldatasize\n      tag_19\n      jump\t// in\n    tag_219:\n      swap3\n      swap2\n      swap1\n      swap2\n      tag_52\n      jump\t// in\n    tag_218:\n      mload(0x40)\n      swap1\n      iszero\n      iszero\n      dup2\n      mstore\n      return\n    tag_24:\n      jumpi(tag_107, callvalue)\n      jumpi(tag_107, slt(add(not(0x03), calldatasize), 0x40))\n      calldataload(0x04)\n      sub(shl(0x40, 0x01), 0x01)\n      dup2\n      gt\n      tag_107\n      jumpi\n      calldatasize\n      0x23\n      dup3\n      add\n      slt\n      iszero\n      tag_107\n      jumpi\n      dup1\n      0x04\n      add\n      calldataload\n      sub(shl(0x40, 0x01), 0x01)\n      dup2\n      gt\n      tag_107\n      jumpi\n      calldatasize\n      0x24\n      dup3\n      dup5\n      add\n      add\n      gt\n      tag_107\n      jumpi\n      tag_162\n      swap2\n      tag_163\n      swap2\n      0x24\n      dup1\n      calldataload\n      swap3\n      add\n      tag_53\n      jump\t// in\n    tag_25:\n      jumpi(tag_107, callvalue)\n      jumpi(tag_107, slt(add(not(0x03), calldatasize), 0x40))\n      calldataload(0x04)\n      sub(shl(0x40, 0x01), 0x01)\n      dup2\n      gt\n      tag_107\n      jumpi\n      0x00\n      tag_241\n      dup2\n      swap3\n      calldatasize\n      swap1\n      0x04\n      add\n      tag_12\n      jump\t// in\n    tag_241:\n      calldataload(0x24)\n        /* \"Verfiy.sol\":8567:8595  abi.encodePacked(p1, scalar) */\n      tag_242\n      0x20\n        /* \"Verfiy.sol\":26:10527  contract Verify {... */\n      mload(0x40)\n        /* \"Verfiy.sol\":8567:8595  abi.encodePacked(p1, scalar) */\n      dup1\n      swap4\n        /* \"Verfiy.sol\":26:10527  contract Verify {... */\n      tag_243\n        /* \"Verfiy.sol\":8567:8595  abi.encodePacked(p1, scalar) */\n      dup4\n      dup4\n      add\n        /* \"Verfiy.sol\":26:10527  contract Verify {... */\n      dup1\n      swap8\n      tag_46\n      jump\t// in\n    tag_243:\n      swap1\n      dup2\n      mstore\n        /* \"Verfiy.sol\":8567:8595  abi.encodePacked(p1, scalar) */\n      sub\n      dup1\n      dup5\n      mstore\n      add\n      dup3\n      tag_9\n      jump\t// in\n    tag_242:\n        /* \"Verfiy.sol\":8635:8666  address(0x0c).staticcall(input) */\n      mload\n      swap1\n        /* \"Verfiy.sol\":8643:8647  0x0c */\n      0x0c\n        /* \"Verfiy.sol\":8635:8666  address(0x0c).staticcall(input) */\n      gas\n      staticcall\n      pop\n        /* \"Verfiy.sol\":26:10527  contract Verify {... */\n      tag_162\n        /* \"Verfiy.sol\":8635:8666  address(0x0c).staticcall(input) */\n      tag_163\n      tag_44\n      jump\t// in\n        /* \"Verfiy.sol\":26:10527  contract Verify {... */\n    tag_26:\n      jumpi(tag_107, callvalue)\n      tag_248\n      calldatasize\n      tag_2\n      jump\t// in\n    tag_248:\n        /* \"Verfiy.sol\":1291:1297  L1 * 2 */\n      swap2\n      swap1\n      swap3\n        /* \"Verfiy.sol\":1283:1304  require(L1 * 2 == L2) */\n      tag_249\n        /* \"Verfiy.sol\":1291:1297  L1 * 2 */\n      dup4\n      tag_250\n      dup5\n      tag_54\n      jump\t// in\n    tag_250:\n        /* \"Verfiy.sol\":1291:1303  L1 * 2 == L2 */\n      eq\n        /* \"Verfiy.sol\":1283:1304  require(L1 * 2 == L2) */\n      tag_58\n      jump\t// in\n    tag_249:\n        /* \"Verfiy.sol\":1355:1402  uint256(keccak256(abi.encode(g1s, g2s, 0))) % q */\n      tag_251\n        /* \"Verfiy.sol\":26:10527  contract Verify {... */\n      mload(0x40)\n        /* \"Verfiy.sol\":1373:1396  abi.encode(g1s, g2s, 0) */\n      0x20\n      dup2\n      add\n      swap1\n      tag_252\n      dup2\n      tag_119\n      dup9\n      dup11\n      dup10\n      dup10\n      dup9\n      tag_59\n      jump\t// in\n    tag_252:\n        /* \"Verfiy.sol\":26:10527  contract Verify {... */\n      mload\n        /* \"Verfiy.sol\":1363:1397  keccak256(abi.encode(g1s, g2s, 0)) */\n      swap1\n      keccak256\n      mload(0x00)\n      codecopy(0x00, data_3b2d02282c3edcbfc4f9664b53f75892ea03b8fe586039e3ee6fe41258ca9b0d, 0x20)\n      mload(0x00)\n      swap1\n      0x00\n      mstore\n        /* \"Verfiy.sol\":77:143  0x73eda753299d7d483339d80809a1d80553bda402fffe5bfeffffffff00000001 */\n      swap1\n      mod\n      swap1\n      jump\n        /* \"Verfiy.sol\":1355:1402  uint256(keccak256(abi.encode(g1s, g2s, 0))) % q */\n    tag_251:\n        /* \"Verfiy.sol\":26:10527  contract Verify {... */\n      swap4\n        /* \"Verfiy.sol\":1427:1474  uint256(keccak256(abi.encode(g1s, g2s, 1))) % q */\n      tag_254\n        /* \"Verfiy.sol\":26:10527  contract Verify {... */\n      mload(0x40)\n        /* \"Verfiy.sol\":1373:1396  abi.encode(g1s, g2s, 0) */\n      0x20\n        /* \"Verfiy.sol\":1445:1468  abi.encode(g1s, g2s, 1) */\n      dup2\n      add\n      swap1\n      tag_252\n      dup2\n      tag_119\n      dup10\n      dup8\n      dup11\n      dup11\n      dup9\n      tag_60\n      jump\t// in\n        /* \"Verfiy.sol\":1427:1474  uint256(keccak256(abi.encode(g1s, g2s, 1))) % q */\n    tag_254:\n        /* \"Verfiy.sol\":1484:1501  uint256 temp1 = 1 */\n      swap2\n        /* \"Verfiy.sol\":1466:1467  1 */\n      0x01\n        /* \"Verfiy.sol\":1511:1528  uint256 temp2 = 1 */\n      swap4\n        /* \"Verfiy.sol\":1580:1599  new bytes(L1 * 160) */\n      tag_257\n        /* \"Verfiy.sol\":1590:1598  L1 * 160 */\n      tag_258\n      dup3\n      tag_55\n      jump\t// in\n    tag_258:\n        /* \"Verfiy.sol\":1580:1599  new bytes(L1 * 160) */\n      tag_49\n      jump\t// in\n    tag_257:\n        /* \"Verfiy.sol\":1639:1645  L2 - 3 */\n      swap4\n        /* \"Verfiy.sol\":1628:1653  new bytes((L2 - 3) * 288) */\n      tag_259\n        /* \"Verfiy.sol\":1638:1652  (L2 - 3) * 288 */\n      tag_258\n        /* \"Verfiy.sol\":1639:1645  L2 - 3 */\n      tag_261\n      dup10\n      tag_41\n      jump\t// in\n    tag_261:\n        /* \"Verfiy.sol\":1638:1652  (L2 - 3) * 288 */\n      tag_56\n      jump\t// in\n        /* \"Verfiy.sol\":1628:1653  new bytes((L2 - 3) * 288) */\n    tag_259:\n        /* \"Verfiy.sol\":1682:1707  new bytes((L1 - 1) * 160) */\n      tag_262\n        /* \"Verfiy.sol\":1692:1706  (L1 - 1) * 160 */\n      tag_258\n        /* \"Verfiy.sol\":1693:1699  L1 - 1 */\n      tag_264\n      dup6\n      tag_42\n      jump\t// in\n    tag_264:\n        /* \"Verfiy.sol\":1692:1706  (L1 - 1) * 160 */\n      tag_55\n      jump\t// in\n        /* \"Verfiy.sol\":1682:1707  new bytes((L1 - 1) * 160) */\n    tag_262:\n        /* \"Verfiy.sol\":1747:1753  L2 - 2 */\n      swap1\n        /* \"Verfiy.sol\":1736:1761  new bytes((L2 - 2) * 288) */\n      tag_265\n        /* \"Verfiy.sol\":1746:1760  (L2 - 2) * 288 */\n      tag_258\n        /* \"Verfiy.sol\":1747:1753  L2 - 2 */\n      tag_261\n      dup12\n      tag_43\n      jump\t// in\n        /* \"Verfiy.sol\":1736:1761  new bytes((L2 - 2) * 288) */\n    tag_265:\n        /* \"Verfiy.sol\":1846:1851  k = 0 */\n      swap2\n      0x00\n        /* \"Verfiy.sol\":1866:1879  uint256 i = 0 */\n      swap7\n      0x00\n        /* \"Verfiy.sol\":1861:2289  for (uint256 i = 0; i <= L1 - 1; i++) {... */\n      swap10\n        /* \"Verfiy.sol\":1894:1897  i++ */\n    tag_268:\n        /* \"Verfiy.sol\":1886:1892  L1 - 1 */\n      tag_269\n      dup8\n      tag_42\n      jump\t// in\n    tag_269:\n        /* \"Verfiy.sol\":1881:1892  i <= L1 - 1 */\n      dup12\n      gt\n      tag_270\n      jumpi\n        /* \"Verfiy.sol\":1921:1927  g1s[i] */\n      dup13\n      swap1\n        /* \"Verfiy.sol\":1913:1956  require(g1s[i].length == 128, \"bad G1 len\") */\n      tag_272\n        /* \"Verfiy.sol\":1938:1941  128 */\n      0x80\n        /* \"Verfiy.sol\":1921:1927  g1s[i] */\n      tag_273\n      dup15\n      dup12\n      dup14\n      tag_40\n      jump\t// in\n    tag_273:\n        /* \"Verfiy.sol\":1921:1941  g1s[i].length == 128 */\n      swap1\n      pop\n      eq\n        /* \"Verfiy.sol\":1913:1956  require(g1s[i].length == 128, \"bad G1 len\") */\n      tag_62\n      jump\t// in\n    tag_272:\n      0x00\n        /* \"Verfiy.sol\":1990:1997  j < 128 */\n    tag_274:\n      dup12\n      dup14\n        /* \"Verfiy.sol\":1938:1941  128 */\n      0x80\n        /* \"Verfiy.sol\":1990:1997  j < 128 */\n      dup4\n      lt\n      tag_275\n      jumpi\n        /* \"Verfiy.sol\":2137:2150  uint256 j = 0 */\n      pop\n      pop\n      pop\n      0x00\n        /* \"Verfiy.sol\":2152:2158  j < 32 */\n    tag_277:\n      dup12\n        /* \"Verfiy.sol\":1373:1396  abi.encode(g1s, g2s, 0) */\n      0x20\n        /* \"Verfiy.sol\":2152:2158  j < 32 */\n      dup3\n      lt\n      tag_278\n      jumpi\n        /* \"Verfiy.sol\":2256:2278  mulmod(temp1, rho1, q) */\n      pop\n      pop\n        /* \"Verfiy.sol\":1894:1897  i++ */\n      tag_280\n        /* \"Verfiy.sol\":2256:2278  mulmod(temp1, rho1, q) */\n      swap2\n      mload(0x00)\n      codecopy(0x00, data_3b2d02282c3edcbfc4f9664b53f75892ea03b8fe586039e3ee6fe41258ca9b0d, 0x20)\n      mload(0x00)\n      swap1\n      0x00\n      mstore\n      swap2\n      mulmod\n        /* \"Verfiy.sol\":1894:1897  i++ */\n      swap11\n      tag_61\n      jump\t// in\n    tag_280:\n        /* \"Verfiy.sol\":1866:1879  uint256 i = 0 */\n      swap10\n      jump(tag_268)\n        /* \"Verfiy.sol\":2160:2163  j++ */\n    tag_278:\n        /* \"Verfiy.sol\":2192:2199  temp[j] */\n      dup12\n        /* \"Verfiy.sol\":2217:2220  k++ */\n      tag_281\n        /* \"Verfiy.sol\":2192:2199  temp[j] */\n      swap2\n        /* \"Verfiy.sol\":2183:2199  ag1[k] = temp[j] */\n      tag_282\n        /* \"Verfiy.sol\":2192:2199  temp[j] */\n      dup5\n      swap15\n      dup7\n        /* \"Verfiy.sol\":1466:1467  1 */\n      0x01\n        /* \"Verfiy.sol\":2192:2199  temp[j] */\n      swap7\n      byte\n        /* \"Verfiy.sol\":2183:2199  ag1[k] = temp[j] */\n      swap3\n      tag_65\n      jump\t// in\n    tag_282:\n      mstore8\n        /* \"Verfiy.sol\":2217:2220  k++ */\n      tag_61\n      jump\t// in\n    tag_281:\n        /* \"Verfiy.sol\":2160:2163  j++ */\n      swap11\n        /* \"Verfiy.sol\":26:10527  contract Verify {... */\n      add\n        /* \"Verfiy.sol\":2137:2150  uint256 j = 0 */\n      jump(tag_277)\n        /* \"Verfiy.sol\":1999:2002  j++ */\n    tag_275:\n        /* \"Verfiy.sol\":2031:2037  g1s[i] */\n      swap12\n        /* \"Verfiy.sol\":2058:2061  k++ */\n      tag_283\n        /* \"Verfiy.sol\":2031:2037  g1s[i] */\n      swap2\n        /* \"Verfiy.sol\":2022:2040  ag1[k] = g1s[i][j] */\n      tag_282\n        /* \"Verfiy.sol\":2031:2037  g1s[i] */\n      dup3\n      dup6\n      swap16\n      dup16\n      dup16\n      swap8\n      tag_285\n        /* \"Verfiy.sol\":2031:2040  g1s[i][j] */\n      tag_286\n        /* \"Verfiy.sol\":2031:2037  g1s[i] */\n      swap4\n        /* \"Verfiy.sol\":1466:1467  1 */\n      0x01\n        /* \"Verfiy.sol\":2031:2037  g1s[i] */\n      swap11\n        /* \"Verfiy.sol\":2031:2040  g1s[i][j] */\n      tag_287\n        /* \"Verfiy.sol\":2031:2037  g1s[i] */\n      swap5\n      tag_40\n      jump\t// in\n    tag_285:\n        /* \"Verfiy.sol\":2031:2040  g1s[i][j] */\n      swap1\n      tag_63\n      jump\t// in\n    tag_287:\n      calldataload\n      not(sub(shl(0xf8, 0x01), 0x01))\n        /* \"Verfiy.sol\":26:10527  contract Verify {... */\n      and\n      swap1\n      jump\n        /* \"Verfiy.sol\":2031:2040  g1s[i][j] */\n    tag_286:\n      0x00\n        /* \"Verfiy.sol\":2022:2040  ag1[k] = g1s[i][j] */\n      byte\n      swap3\n      tag_65\n      jump\t// in\n        /* \"Verfiy.sol\":2058:2061  k++ */\n    tag_283:\n        /* \"Verfiy.sol\":1999:2002  j++ */\n      swap11\n        /* \"Verfiy.sol\":26:10527  contract Verify {... */\n      add\n        /* \"Verfiy.sol\":1975:1988  uint256 j = 0 */\n      jump(tag_274)\n        /* \"Verfiy.sol\":1881:1892  i <= L1 - 1 */\n    tag_270:\n      pop\n      dup11\n      dup8\n      swap5\n      swap6\n      swap7\n      dup14\n        /* \"Verfiy.sol\":2319:2330  G1Muls(ag1) */\n      tag_288\n        /* \"Verfiy.sol\":1881:1892  i <= L1 - 1 */\n      dup13\n        /* \"Verfiy.sol\":2319:2330  G1Muls(ag1) */\n      tag_51\n      jump\t// in\n    tag_288:\n        /* \"Verfiy.sol\":2388:2393  k = 0 */\n      swap5\n      0x00\n        /* \"Verfiy.sol\":2403:2415  temp2 = rho2 */\n      swap6\n      dup11\n        /* \"Verfiy.sol\":2430:2443  uint256 i = 0 */\n      swap9\n      0x00\n        /* \"Verfiy.sol\":2425:2989  for (uint256 i = 0; i <= 2 * L1 - 1 - 1; i++) {... */\n      swap10\n        /* \"Verfiy.sol\":2466:2469  i++ */\n    tag_289:\n        /* \"Verfiy.sol\":2450:2464  2 * L1 - 1 - 1 */\n      tag_290\n        /* \"Verfiy.sol\":2450:2460  2 * L1 - 1 */\n      tag_292\n        /* \"Verfiy.sol\":2450:2456  2 * L1 */\n      tag_292\n      dup9\n      tag_57\n      jump\t// in\n    tag_292:\n        /* \"Verfiy.sol\":2450:2460  2 * L1 - 1 */\n      tag_42\n      jump\t// in\n        /* \"Verfiy.sol\":2450:2464  2 * L1 - 1 - 1 */\n    tag_290:\n        /* \"Verfiy.sol\":2445:2464  i <= 2 * L1 - 1 - 1 */\n      dup12\n      gt\n      tag_293\n      jumpi\n        /* \"Verfiy.sol\":2544:2550  L1 - 1 */\n      dup13\n      swap1\n      tag_295\n      dup8\n      tag_42\n      jump\t// in\n    tag_295:\n        /* \"Verfiy.sol\":2539:2550  i == L1 - 1 */\n      dup13\n      eq\n        /* \"Verfiy.sol\":2539:2561  i == L1 - 1 || i == L1 */\n      dup1\n      iszero\n      tag_296\n      jumpi\n        /* \"Verfiy.sol\":2466:2469  i++ */\n    tag_297:\n        /* \"Verfiy.sol\":2535:2652  if (i == L1 - 1 || i == L1) {... */\n      tag_298\n      jumpi\n      0x00\n        /* \"Verfiy.sol\":2685:2692  j < 256 */\n    tag_300:\n      dup12\n      dup14\n        /* \"Verfiy.sol\":2689:2692  256 */\n      0x0100\n        /* \"Verfiy.sol\":2685:2692  j < 256 */\n      dup4\n      lt\n      tag_301\n      jumpi\n        /* \"Verfiy.sol\":2832:2845  uint256 j = 0 */\n      pop\n      pop\n      pop\n      0x00\n        /* \"Verfiy.sol\":2847:2858  j <= 32 - 1 */\n    tag_303:\n        /* \"Verfiy.sol\":2852:2858  32 - 1 */\n      0x1f\n        /* \"Verfiy.sol\":2847:2858  j <= 32 - 1 */\n      dup2\n      gt\n      iszero\n      tag_304\n      jumpi\n        /* \"Verfiy.sol\":2956:2978  mulmod(temp2, rho2, q) */\n      pop\n        /* \"Verfiy.sol\":2466:2469  i++ */\n      tag_306\n        /* \"Verfiy.sol\":2956:2978  mulmod(temp2, rho2, q) */\n      swap2\n      mload(0x00)\n      codecopy(0x00, data_3b2d02282c3edcbfc4f9664b53f75892ea03b8fe586039e3ee6fe41258ca9b0d, 0x20)\n      mload(0x00)\n      swap1\n      0x00\n      mstore\n      swap2\n      mulmod\n        /* \"Verfiy.sol\":2466:2469  i++ */\n      swap11\n      tag_61\n      jump\t// in\n    tag_306:\n        /* \"Verfiy.sol\":2430:2443  uint256 i = 0 */\n      swap10\n      jump(tag_289)\n        /* \"Verfiy.sol\":2860:2863  j++ */\n    tag_304:\n        /* \"Verfiy.sol\":2892:2899  temp[j] */\n      swap10\n      swap2\n      pop\n        /* \"Verfiy.sol\":1373:1396  abi.encode(g1s, g2s, 0) */\n      0x20\n        /* \"Verfiy.sol\":2892:2899  temp[j] */\n      dup11\n      lt\n      iszero\n      tag_308\n      jumpi\n        /* \"Verfiy.sol\":2860:2863  j++ */\n      tag_310\n        /* \"Verfiy.sol\":2917:2920  k++ */\n      tag_311\n        /* \"Verfiy.sol\":2892:2899  temp[j] */\n      dup16\n      swap4\n      dup14\n        /* \"Verfiy.sol\":2883:2899  ag2[k] = temp[j] */\n      tag_282\n        /* \"Verfiy.sol\":2892:2899  temp[j] */\n      dup3\n      dup16\n      dup8\n      swap1\n      byte\n        /* \"Verfiy.sol\":2883:2899  ag2[k] = temp[j] */\n      swap3\n      tag_65\n      jump\t// in\n        /* \"Verfiy.sol\":2917:2920  k++ */\n    tag_311:\n        /* \"Verfiy.sol\":2860:2863  j++ */\n      swap11\n      tag_61\n      jump\t// in\n    tag_310:\n        /* \"Verfiy.sol\":2832:2845  uint256 j = 0 */\n      jump(tag_303)\n        /* \"Verfiy.sol\":2892:2899  temp[j] */\n    tag_308:\n      tag_38\n      jump\t// in\n        /* \"Verfiy.sol\":2694:2697  j++ */\n    tag_301:\n        /* \"Verfiy.sol\":2726:2732  g2s[i] */\n      swap12\n        /* \"Verfiy.sol\":2753:2756  k++ */\n      tag_313\n        /* \"Verfiy.sol\":2726:2732  g2s[i] */\n      swap2\n        /* \"Verfiy.sol\":2717:2735  ag2[k] = g2s[i][j] */\n      tag_282\n        /* \"Verfiy.sol\":2726:2732  g2s[i] */\n      dup3\n      dup6\n      swap16\n      dup16\n      dup16\n      swap8\n      tag_285\n        /* \"Verfiy.sol\":2726:2735  g2s[i][j] */\n      tag_286\n        /* \"Verfiy.sol\":2726:2732  g2s[i] */\n      swap4\n        /* \"Verfiy.sol\":1466:1467  1 */\n      0x01\n        /* \"Verfiy.sol\":2726:2732  g2s[i] */\n      swap11\n        /* \"Verfiy.sol\":2726:2735  g2s[i][j] */\n      tag_287\n        /* \"Verfiy.sol\":2726:2732  g2s[i] */\n      swap5\n      tag_40\n      jump\t// in\n        /* \"Verfiy.sol\":2753:2756  k++ */\n    tag_313:\n        /* \"Verfiy.sol\":2694:2697  j++ */\n      swap11\n        /* \"Verfiy.sol\":26:10527  contract Verify {... */\n      add\n        /* \"Verfiy.sol\":2670:2683  uint256 j = 0 */\n      jump(tag_300)\n        /* \"Verfiy.sol\":2535:2652  if (i == L1 - 1 || i == L1) {... */\n    tag_298:\n        /* \"Verfiy.sol\":2466:2469  i++ */\n      tag_306\n        /* \"Verfiy.sol\":2589:2611  mulmod(temp2, rho2, q) */\n      swap2\n      mload(0x00)\n      codecopy(0x00, data_3b2d02282c3edcbfc4f9664b53f75892ea03b8fe586039e3ee6fe41258ca9b0d, 0x20)\n      mload(0x00)\n      swap1\n      0x00\n      mstore\n      swap2\n      mulmod\n        /* \"Verfiy.sol\":2629:2637  continue */\n      swap11\n        /* \"Verfiy.sol\":2466:2469  i++ */\n      tag_61\n      jump\t// in\n        /* \"Verfiy.sol\":2539:2561  i == L1 - 1 || i == L1 */\n    tag_296:\n        /* \"Verfiy.sol\":2554:2561  i == L1 */\n      pop\n      dup7\n      dup13\n      eq\n        /* \"Verfiy.sol\":2539:2561  i == L1 - 1 || i == L1 */\n      jump(tag_297)\n        /* \"Verfiy.sol\":2445:2464  i <= 2 * L1 - 1 - 1 */\n    tag_293:\n      pop\n      dup7\n      swap4\n      swap6\n      swap5\n      dup13\n      dup13\n        /* \"Verfiy.sol\":3048:3064  G2Add(g2, part2) */\n      tag_318\n        /* \"Verfiy.sol\":3019:3030  G2Muls(ag2) */\n      tag_319\n        /* \"Verfiy.sol\":2445:2464  i <= 2 * L1 - 1 - 1 */\n      dup14\n        /* \"Verfiy.sol\":3019:3030  G2Muls(ag2) */\n      tag_45\n      jump\t// in\n    tag_319:\n        /* \"Verfiy.sol\":26:10527  contract Verify {... */\n      tag_320\n      tag_66\n      jump\t// in\n    tag_320:\n        /* \"Verfiy.sol\":3048:3064  G2Add(g2, part2) */\n      tag_67\n      jump\t// in\n    tag_318:\n        /* \"Verfiy.sol\":3122:3127  k = 0 */\n      swap1\n      0x00\n        /* \"Verfiy.sol\":3137:3149  temp1 = rho1 */\n      swap6\n      dup11\n        /* \"Verfiy.sol\":3164:3177  uint256 i = 0 */\n      swap9\n      0x00\n        /* \"Verfiy.sol\":3159:3539  for (uint256 i = 0; i <= L1 - 1 - 1; i++) {... */\n      swap10\n        /* \"Verfiy.sol\":3196:3199  i++ */\n    tag_321:\n        /* \"Verfiy.sol\":3184:3194  L1 - 1 - 1 */\n      tag_322\n        /* \"Verfiy.sol\":3184:3190  L1 - 1 */\n      tag_292\n      dup9\n      tag_42\n      jump\t// in\n        /* \"Verfiy.sol\":3184:3194  L1 - 1 - 1 */\n    tag_322:\n        /* \"Verfiy.sol\":3179:3194  i <= L1 - 1 - 1 */\n      dup12\n      gt\n      tag_324\n      jumpi\n        /* \"Verfiy.sol\":3220:3233  uint256 j = 0 */\n      dup13\n      swap1\n      0x00\n        /* \"Verfiy.sol\":3235:3242  j < 128 */\n    tag_326:\n      dup12\n      dup14\n        /* \"Verfiy.sol\":1938:1941  128 */\n      0x80\n        /* \"Verfiy.sol\":3235:3242  j < 128 */\n      dup4\n      lt\n      tag_327\n      jumpi\n        /* \"Verfiy.sol\":3382:3395  uint256 j = 0 */\n      pop\n      pop\n      pop\n      0x00\n        /* \"Verfiy.sol\":3397:3408  j <= 32 - 1 */\n    tag_329:\n        /* \"Verfiy.sol\":2852:2858  32 - 1 */\n      0x1f\n        /* \"Verfiy.sol\":3397:3408  j <= 32 - 1 */\n      dup2\n      gt\n      iszero\n      tag_330\n      jumpi\n        /* \"Verfiy.sol\":3506:3528  mulmod(temp1, rho1, q) */\n      pop\n        /* \"Verfiy.sol\":3196:3199  i++ */\n      tag_332\n        /* \"Verfiy.sol\":3506:3528  mulmod(temp1, rho1, q) */\n      swap2\n      mload(0x00)\n      codecopy(0x00, data_3b2d02282c3edcbfc4f9664b53f75892ea03b8fe586039e3ee6fe41258ca9b0d, 0x20)\n      mload(0x00)\n      swap1\n      0x00\n      mstore\n      swap2\n      mulmod\n        /* \"Verfiy.sol\":3196:3199  i++ */\n      swap11\n      tag_61\n      jump\t// in\n    tag_332:\n        /* \"Verfiy.sol\":3164:3177  uint256 i = 0 */\n      swap10\n      jump(tag_321)\n        /* \"Verfiy.sol\":3410:3413  j++ */\n    tag_330:\n        /* \"Verfiy.sol\":3442:3449  temp[j] */\n      swap10\n      swap2\n      pop\n        /* \"Verfiy.sol\":1373:1396  abi.encode(g1s, g2s, 0) */\n      0x20\n        /* \"Verfiy.sol\":3442:3449  temp[j] */\n      dup11\n      lt\n      iszero\n      tag_308\n      jumpi\n        /* \"Verfiy.sol\":3410:3413  j++ */\n      tag_335\n        /* \"Verfiy.sol\":3467:3470  k++ */\n      tag_311\n        /* \"Verfiy.sol\":3442:3449  temp[j] */\n      dup16\n      swap4\n      dup14\n        /* \"Verfiy.sol\":3433:3449  ag3[k] = temp[j] */\n      tag_282\n        /* \"Verfiy.sol\":3442:3449  temp[j] */\n      dup3\n      dup16\n      dup8\n      swap1\n      byte\n        /* \"Verfiy.sol\":3433:3449  ag3[k] = temp[j] */\n      swap3\n      tag_65\n      jump\t// in\n        /* \"Verfiy.sol\":3410:3413  j++ */\n    tag_335:\n        /* \"Verfiy.sol\":3382:3395  uint256 j = 0 */\n      jump(tag_329)\n        /* \"Verfiy.sol\":3244:3247  j++ */\n    tag_327:\n        /* \"Verfiy.sol\":3276:3282  g1s[i] */\n      swap12\n        /* \"Verfiy.sol\":3303:3306  k++ */\n      tag_338\n        /* \"Verfiy.sol\":3276:3282  g1s[i] */\n      swap2\n        /* \"Verfiy.sol\":3267:3285  ag3[k] = g1s[i][j] */\n      tag_282\n        /* \"Verfiy.sol\":3276:3282  g1s[i] */\n      dup3\n      dup6\n      swap16\n      dup16\n      dup16\n      swap8\n      tag_285\n        /* \"Verfiy.sol\":3276:3285  g1s[i][j] */\n      tag_286\n        /* \"Verfiy.sol\":3276:3282  g1s[i] */\n      swap4\n        /* \"Verfiy.sol\":1466:1467  1 */\n      0x01\n        /* \"Verfiy.sol\":3276:3282  g1s[i] */\n      swap11\n        /* \"Verfiy.sol\":3276:3285  g1s[i][j] */\n      tag_287\n        /* \"Verfiy.sol\":3276:3282  g1s[i] */\n      swap5\n      tag_40\n      jump\t// in\n        /* \"Verfiy.sol\":3303:3306  k++ */\n    tag_338:\n        /* \"Verfiy.sol\":3244:3247  j++ */\n      swap11\n        /* \"Verfiy.sol\":26:10527  contract Verify {... */\n      add\n        /* \"Verfiy.sol\":3220:3233  uint256 j = 0 */\n      jump(tag_326)\n        /* \"Verfiy.sol\":3179:3194  i <= L1 - 1 - 1 */\n    tag_324:\n      pop\n      dup11\n        /* \"Verfiy.sol\":3598:3614  G1Add(g1, part3) */\n      tag_343\n        /* \"Verfiy.sol\":3569:3580  G1Muls(ag3) */\n      tag_344\n        /* \"Verfiy.sol\":3179:3194  i <= L1 - 1 - 1 */\n      dup12\n      swap9\n      swap7\n      swap8\n      swap9\n        /* \"Verfiy.sol\":3569:3580  G1Muls(ag3) */\n      tag_51\n      jump\t// in\n    tag_344:\n        /* \"Verfiy.sol\":26:10527  contract Verify {... */\n      tag_345\n      tag_32\n      jump\t// in\n    tag_345:\n        /* \"Verfiy.sol\":3598:3614  G1Add(g1, part3) */\n      tag_47\n      jump\t// in\n    tag_343:\n        /* \"Verfiy.sol\":3673:3678  k = 0 */\n      swap5\n      0x00\n        /* \"Verfiy.sol\":3688:3697  temp2 = 1 */\n      swap4\n        /* \"Verfiy.sol\":1466:1467  1 */\n      0x01\n        /* \"Verfiy.sol\":3712:3725  uint256 i = 0 */\n      swap7\n      0x00\n        /* \"Verfiy.sol\":3707:4253  for (uint256 i = 0; i <= 2 * L1 - 1; i++) {... */\n      swap8\n        /* \"Verfiy.sol\":3744:3747  i++ */\n    tag_346:\n        /* \"Verfiy.sol\":3732:3742  2 * L1 - 1 */\n      tag_347\n        /* \"Verfiy.sol\":3732:3738  2 * L1 */\n      tag_292\n      dup6\n      tag_57\n      jump\t// in\n        /* \"Verfiy.sol\":3732:3742  2 * L1 - 1 */\n    tag_347:\n        /* \"Verfiy.sol\":3727:3742  i <= 2 * L1 - 1 */\n      dup10\n      gt\n      tag_349\n      jumpi\n        /* \"Verfiy.sol\":3767:3774  i == L1 */\n      dup11\n      swap1\n      dup5\n      dup11\n      eq\n        /* \"Verfiy.sol\":3767:3789  i == L1 || i == L1 + 1 */\n      dup1\n      iszero\n      tag_351\n      jumpi\n        /* \"Verfiy.sol\":3744:3747  i++ */\n    tag_352:\n        /* \"Verfiy.sol\":3763:3921  if (i == L1 || i == L1 + 1) {... */\n      tag_353\n      jumpi\n      0x00\n        /* \"Verfiy.sol\":3954:3961  j < 256 */\n    tag_355:\n      dup10\n      dup12\n        /* \"Verfiy.sol\":2689:2692  256 */\n      0x0100\n        /* \"Verfiy.sol\":3954:3961  j < 256 */\n      dup4\n      lt\n      tag_356\n      jumpi\n        /* \"Verfiy.sol\":4101:4114  uint256 j = 0 */\n      pop\n      pop\n      pop\n      0x00\n        /* \"Verfiy.sol\":4116:4122  j < 32 */\n    tag_358:\n      dup10\n        /* \"Verfiy.sol\":1373:1396  abi.encode(g1s, g2s, 0) */\n      0x20\n        /* \"Verfiy.sol\":4116:4122  j < 32 */\n      dup3\n      lt\n      tag_359\n      jumpi\n        /* \"Verfiy.sol\":4220:4242  mulmod(temp2, rho2, q) */\n      pop\n      pop\n        /* \"Verfiy.sol\":3744:3747  i++ */\n      tag_361\n        /* \"Verfiy.sol\":4220:4242  mulmod(temp2, rho2, q) */\n      swap2\n      mload(0x00)\n      codecopy(0x00, data_3b2d02282c3edcbfc4f9664b53f75892ea03b8fe586039e3ee6fe41258ca9b0d, 0x20)\n      mload(0x00)\n      swap1\n      0x00\n      mstore\n      swap2\n      mulmod\n        /* \"Verfiy.sol\":3744:3747  i++ */\n      swap9\n      tag_61\n      jump\t// in\n    tag_361:\n        /* \"Verfiy.sol\":3712:3725  uint256 i = 0 */\n      swap8\n      jump(tag_346)\n        /* \"Verfiy.sol\":4124:4127  j++ */\n    tag_359:\n        /* \"Verfiy.sol\":4156:4163  temp[j] */\n      dup10\n        /* \"Verfiy.sol\":4181:4184  k++ */\n      tag_363\n        /* \"Verfiy.sol\":4156:4163  temp[j] */\n      swap2\n        /* \"Verfiy.sol\":4147:4163  ag4[k] = temp[j] */\n      tag_282\n        /* \"Verfiy.sol\":4156:4163  temp[j] */\n      dup5\n      swap13\n      dup7\n        /* \"Verfiy.sol\":1466:1467  1 */\n      0x01\n        /* \"Verfiy.sol\":4156:4163  temp[j] */\n      swap7\n      byte\n        /* \"Verfiy.sol\":4147:4163  ag4[k] = temp[j] */\n      swap3\n      tag_65\n      jump\t// in\n        /* \"Verfiy.sol\":4181:4184  k++ */\n    tag_363:\n        /* \"Verfiy.sol\":4124:4127  j++ */\n      swap9\n        /* \"Verfiy.sol\":26:10527  contract Verify {... */\n      add\n        /* \"Verfiy.sol\":4101:4114  uint256 j = 0 */\n      jump(tag_358)\n        /* \"Verfiy.sol\":3963:3966  j++ */\n    tag_356:\n        /* \"Verfiy.sol\":3995:4001  g2s[i] */\n      swap10\n        /* \"Verfiy.sol\":4022:4025  k++ */\n      tag_365\n        /* \"Verfiy.sol\":3995:4001  g2s[i] */\n      swap2\n        /* \"Verfiy.sol\":3986:4004  ag4[k] = g2s[i][j] */\n      tag_282\n        /* \"Verfiy.sol\":3995:4001  g2s[i] */\n      dup3\n        /* \"Verfiy.sol\":3995:4004  g2s[i][j] */\n      tag_286\n      tag_287\n        /* \"Verfiy.sol\":3995:4001  g2s[i] */\n      dup8\n      swap16\n      swap8\n      dup16\n      dup16\n      swap10\n        /* \"Verfiy.sol\":1466:1467  1 */\n      0x01\n        /* \"Verfiy.sol\":3995:4001  g2s[i] */\n      swap11\n      tag_285\n      swap3\n      tag_40\n      jump\t// in\n        /* \"Verfiy.sol\":4022:4025  k++ */\n    tag_365:\n        /* \"Verfiy.sol\":3963:3966  j++ */\n      swap9\n        /* \"Verfiy.sol\":26:10527  contract Verify {... */\n      add\n        /* \"Verfiy.sol\":3939:3952  uint256 j = 0 */\n      jump(tag_355)\n        /* \"Verfiy.sol\":3763:3921  if (i == L1 || i == L1 + 1) {... */\n    tag_353:\n        /* \"Verfiy.sol\":3744:3747  i++ */\n      tag_361\n        /* \"Verfiy.sol\":3858:3880  mulmod(temp2, rho2, q) */\n      swap2\n      mload(0x00)\n      codecopy(0x00, data_3b2d02282c3edcbfc4f9664b53f75892ea03b8fe586039e3ee6fe41258ca9b0d, 0x20)\n      mload(0x00)\n      swap1\n      0x00\n      mstore\n      swap2\n      mulmod\n        /* \"Verfiy.sol\":3898:3906  continue */\n      swap9\n        /* \"Verfiy.sol\":3744:3747  i++ */\n      tag_61\n      jump\t// in\n        /* \"Verfiy.sol\":3767:3789  i == L1 || i == L1 + 1 */\n    tag_351:\n        /* \"Verfiy.sol\":3783:3789  L1 + 1 */\n      pop\n      tag_370\n      dup6\n      tag_34\n      jump\t// in\n    tag_370:\n        /* \"Verfiy.sol\":3778:3789  i == L1 + 1 */\n      dup11\n      eq\n        /* \"Verfiy.sol\":3767:3789  i == L1 || i == L1 + 1 */\n      jump(tag_352)\n        /* \"Verfiy.sol\":3727:3742  i <= 2 * L1 - 1 */\n    tag_349:\n        /* \"Verfiy.sol\":26:10527  contract Verify {... */\n      tag_162\n        /* \"Verfiy.sol\":4312:4357  EqualPairingCheck(part1, part2, part3, part4) */\n      tag_372\n        /* \"Verfiy.sol\":3727:3742  i <= 2 * L1 - 1 */\n      dup5\n      dup5\n      dup14\n        /* \"Verfiy.sol\":4283:4294  G2Muls(ag4) */\n      tag_143\n        /* \"Verfiy.sol\":3727:3742  i <= 2 * L1 - 1 */\n      dup14\n        /* \"Verfiy.sol\":4283:4294  G2Muls(ag4) */\n      tag_45\n      jump\t// in\n        /* \"Verfiy.sol\":4312:4357  EqualPairingCheck(part1, part2, part3, part4) */\n    tag_372:\n        /* \"Verfiy.sol\":26:10527  contract Verify {... */\n      mload(0x40)\n      swap1\n      iszero\n      iszero\n      dup2\n      mstore\n      swap1\n      dup2\n      swap1\n      0x20\n      dup3\n      add\n      swap1\n      jump\n    tag_27:\n      jumpi(tag_107, callvalue)\n      tag_162\n      tag_163\n      tag_378\n      calldatasize\n      tag_16\n      jump\t// in\n    tag_378:\n      swap1\n      tag_67\n      jump\t// in\n    tag_28:\n      jumpi(tag_107, callvalue)\n      tag_381\n      calldatasize\n      tag_2\n      jump\t// in\n    tag_381:\n        /* \"Verfiy.sol\":4526:4532  L1 > 0 */\n      swap1\n      swap3\n      swap2\n        /* \"Verfiy.sol\":4518:4533  require(L1 > 0) */\n      tag_382\n        /* \"Verfiy.sol\":4526:4532  L1 > 0 */\n      dup2\n      iszero\n      iszero\n        /* \"Verfiy.sol\":4518:4533  require(L1 > 0) */\n      tag_58\n      jump\t// in\n    tag_382:\n        /* \"Verfiy.sol\":4539:4560  require(L1 * 2 == L2) */\n      tag_383\n        /* \"Verfiy.sol\":4547:4553  L1 * 2 */\n      dup3\n      tag_250\n      dup4\n      tag_54\n      jump\t// in\n        /* \"Verfiy.sol\":4539:4560  require(L1 * 2 == L2) */\n    tag_383:\n        /* \"Verfiy.sol\":4582:4638  uint256(keccak256(abi.encode(g1s, g2s, uint256(0)))) % q */\n      tag_385\n        /* \"Verfiy.sol\":26:10527  contract Verify {... */\n      mload(0x40)\n        /* \"Verfiy.sol\":4600:4632  abi.encode(g1s, g2s, uint256(0)) */\n      0x20\n      dup2\n      add\n      swap1\n      tag_252\n      dup2\n      tag_119\n      dup8\n      dup11\n      dup9\n      dup12\n      dup9\n      tag_59\n      jump\t// in\n        /* \"Verfiy.sol\":4582:4638  uint256(keccak256(abi.encode(g1s, g2s, uint256(0)))) % q */\n    tag_385:\n        /* \"Verfiy.sol\":26:10527  contract Verify {... */\n      swap2\n        /* \"Verfiy.sol\":4659:4715  uint256(keccak256(abi.encode(g1s, g2s, uint256(1)))) % q */\n      tag_388\n        /* \"Verfiy.sol\":26:10527  contract Verify {... */\n      mload(0x40)\n        /* \"Verfiy.sol\":4600:4632  abi.encode(g1s, g2s, uint256(0)) */\n      0x20\n        /* \"Verfiy.sol\":4677:4709  abi.encode(g1s, g2s, uint256(1)) */\n      dup2\n      add\n      swap1\n      tag_252\n      dup2\n      tag_119\n      dup7\n      dup12\n      dup10\n      dup13\n      dup9\n      tag_60\n      jump\t// in\n        /* \"Verfiy.sol\":4659:4715  uint256(keccak256(abi.encode(g1s, g2s, uint256(1)))) % q */\n    tag_388:\n        /* \"Verfiy.sol\":4722:4731  uint256 k */\n      swap5\n        /* \"Verfiy.sol\":4827:4846  new bytes(L1 * 160) */\n      tag_391\n        /* \"Verfiy.sol\":4837:4845  L1 * 160 */\n      tag_258\n      dup5\n      tag_55\n      jump\t// in\n        /* \"Verfiy.sol\":4827:4846  new bytes(L1 * 160) */\n    tag_391:\n        /* \"Verfiy.sol\":4706:4707  1 */\n      0x01\n      0x00\n        /* \"Verfiy.sol\":4883:4896  uint256 i = 0 */\n      dup7\n      dup2\n        /* \"Verfiy.sol\":4898:4904  i < L1 */\n    tag_393:\n      dup8\n      dup11\n      dup2\n      dup6\n      lt\n      tag_394\n      jumpi\n        /* \"Verfiy.sol\":5189:5200  G1Muls(ag1) */\n      pop\n      pop\n      pop\n      pop\n      pop\n      pop\n      tag_396\n      swap1\n      tag_51\n      jump\t// in\n    tag_396:\n        /* \"Verfiy.sol\":5324:5330  2 * L1 */\n      swap4\n        /* \"Verfiy.sol\":5359:5383  new bytes(slices2 * 288) */\n      tag_397\n        /* \"Verfiy.sol\":5369:5382  slices2 * 288 */\n      tag_258\n        /* \"Verfiy.sol\":5324:5334  2 * L1 - 3 */\n      tag_261\n        /* \"Verfiy.sol\":5324:5330  2 * L1 */\n      tag_400\n      dup8\n      tag_57\n      jump\t// in\n    tag_400:\n        /* \"Verfiy.sol\":5324:5334  2 * L1 - 3 */\n      tag_41\n      jump\t// in\n        /* \"Verfiy.sol\":5359:5383  new bytes(slices2 * 288) */\n    tag_397:\n        /* \"Verfiy.sol\":5390:5395  k = 0 */\n      swap4\n      0x00\n        /* \"Verfiy.sol\":5401:5413  temp2 = rho2 */\n      swap6\n      dup9\n        /* \"Verfiy.sol\":5424:5437  uint256 i = 0 */\n      swap3\n      dup10\n      0x00\n        /* \"Verfiy.sol\":5419:5859  for (uint256 i = 0; i <= 2 * L1 - 2; ) {... */\n      swap9\n        /* \"Verfiy.sol\":5424:5437  uint256 i = 0 */\n    tag_401:\n        /* \"Verfiy.sol\":5444:5454  2 * L1 - 2 */\n      tag_402\n        /* \"Verfiy.sol\":5444:5450  2 * L1 */\n      tag_403\n      dup7\n      tag_57\n      jump\t// in\n    tag_403:\n        /* \"Verfiy.sol\":5444:5454  2 * L1 - 2 */\n      tag_43\n      jump\t// in\n    tag_402:\n        /* \"Verfiy.sol\":5439:5454  i <= 2 * L1 - 2 */\n      dup11\n      gt\n      tag_404\n      jumpi\n        /* \"Verfiy.sol\":5477:5483  L1 - 1 */\n      dup9\n      swap1\n      dup11\n      dup10\n      dup10\n      tag_406\n      dup10\n      tag_42\n      jump\t// in\n    tag_406:\n        /* \"Verfiy.sol\":5472:5483  i == L1 - 1 */\n      dup4\n      eq\n        /* \"Verfiy.sol\":5472:5494  i == L1 - 1 || i == L1 */\n      dup1\n      iszero\n      tag_407\n      jumpi\n        /* \"Verfiy.sol\":5424:5437  uint256 i = 0 */\n    tag_408:\n        /* \"Verfiy.sol\":5468:5604  if (i == L1 - 1 || i == L1) {... */\n      tag_409\n      jumpi\n        /* \"Verfiy.sol\":5633:5639  g2s[i] */\n      dup10\n        /* \"Verfiy.sol\":5720:5728  k += 256 */\n      tag_411\n        /* \"Verfiy.sol\":5633:5639  g2s[i] */\n      dup6\n        /* \"Verfiy.sol\":5669:5672  256 */\n      tag_412\n        /* \"Verfiy.sol\":4706:4707  1 */\n      0x01\n        /* \"Verfiy.sol\":5633:5639  g2s[i] */\n      swap10\n      swap8\n      dup10\n        /* \"Verfiy.sol\":5669:5672  256 */\n      0x0100\n        /* \"Verfiy.sol\":5649:5673  require(p.length == 256) */\n      tag_413\n        /* \"Verfiy.sol\":5633:5639  g2s[i] */\n      tag_414\n        /* \"Verfiy.sol\":5777:5784  k += 32 */\n      tag_415\n        /* \"Verfiy.sol\":5633:5639  g2s[i] */\n      swap12\n      mload(0x00)\n      codecopy(0x00, data_3b2d02282c3edcbfc4f9664b53f75892ea03b8fe586039e3ee6fe41258ca9b0d, 0x20)\n      mload(0x00)\n      swap1\n      0x00\n      mstore\n      swap15\n      swap12\n        /* \"Verfiy.sol\":5761:5766  temp2 */\n      tag_416\n        /* \"Verfiy.sol\":5633:5639  g2s[i] */\n      swap12\n      tag_40\n      jump\t// in\n    tag_414:\n        /* \"Verfiy.sol\":5657:5672  p.length == 256 */\n      swap1\n      swap3\n      eq\n        /* \"Verfiy.sol\":5649:5673  require(p.length == 256) */\n      tag_58\n      jump\t// in\n    tag_413:\n        /* \"Verfiy.sol\":5669:5672  256 */\n      tag_71\n      jump\t// in\n    tag_412:\n        /* \"Verfiy.sol\":5720:5728  k += 256 */\n      tag_37\n      jump\t// in\n    tag_411:\n        /* \"Verfiy.sol\":8042:8103  assembly {... */\n      swap3\n      dup4\n      add\n      0x20\n      add\n      mstore\n        /* \"Verfiy.sol\":7954:8105  function _mstoreScalar(bytes memory dst, uint256 dstOff, uint256 x) internal pure {... */\n      jump\n        /* \"Verfiy.sol\":5761:5766  temp2 */\n    tag_416:\n        /* \"Verfiy.sol\":5777:5784  k += 32 */\n      tag_36\n      jump\t// in\n    tag_415:\n        /* \"Verfiy.sol\":5803:5825  mulmod(temp2, rho2, q) */\n      swap7\n      mulmod\n        /* \"Verfiy.sol\":26:10527  contract Verify {... */\n      swap9\n      add\n        /* \"Verfiy.sol\":5424:5437  uint256 i = 0 */\n      swap9\n    tag_417:\n      swap9\n      swap8\n      swap4\n      dup11\n      swap1\n      jump(tag_401)\n        /* \"Verfiy.sol\":5468:5604  if (i == L1 - 1 || i == L1) {... */\n    tag_409:\n        /* \"Verfiy.sol\":5518:5540  mulmod(temp2, rho2, q) */\n      pop\n      pop\n      pop\n      swap6\n      mload(0x00)\n      codecopy(0x00, data_3b2d02282c3edcbfc4f9664b53f75892ea03b8fe586039e3ee6fe41258ca9b0d, 0x20)\n      mload(0x00)\n      swap1\n      0x00\n      mstore\n      swap2\n      pop\n      swap2\n        /* \"Verfiy.sol\":4706:4707  1 */\n      0x01\n        /* \"Verfiy.sol\":5518:5540  mulmod(temp2, rho2, q) */\n      swap3\n      mulmod\n        /* \"Verfiy.sol\":26:10527  contract Verify {... */\n      swap9\n      add\n        /* \"Verfiy.sol\":5585:5593  continue */\n      swap9\n      jump(tag_417)\n        /* \"Verfiy.sol\":5472:5494  i == L1 - 1 || i == L1 */\n    tag_407:\n        /* \"Verfiy.sol\":5487:5494  i == L1 */\n      pop\n      dup9\n      dup4\n      eq\n        /* \"Verfiy.sol\":5472:5494  i == L1 - 1 || i == L1 */\n      jump(tag_408)\n        /* \"Verfiy.sol\":5439:5454  i <= 2 * L1 - 2 */\n    tag_404:\n      pop\n      swap3\n      dup6\n      dup8\n      swap2\n      dup12\n        /* \"Verfiy.sol\":5910:5926  G2Add(g2, part2) */\n      tag_418\n        /* \"Verfiy.sol\":5885:5896  G2Muls(ag2) */\n      tag_319\n        /* \"Verfiy.sol\":5439:5454  i <= 2 * L1 - 2 */\n      dup13\n        /* \"Verfiy.sol\":5885:5896  G2Muls(ag2) */\n      tag_45\n      jump\t// in\n        /* \"Verfiy.sol\":5910:5926  G2Add(g2, part2) */\n    tag_418:\n        /* \"Verfiy.sol\":5973:5980  L1 >= 2 */\n      swap7\n        /* \"Verfiy.sol\":5965:5981  require(L1 >= 2) */\n      tag_421\n        /* \"Verfiy.sol\":4552:4553  2 */\n      0x02\n        /* \"Verfiy.sol\":5973:5980  L1 >= 2 */\n      dup5\n      lt\n      iszero\n        /* \"Verfiy.sol\":5965:5981  require(L1 >= 2) */\n      tag_58\n      jump\t// in\n    tag_421:\n        /* \"Verfiy.sol\":6006:6031  new bytes((L1 - 1) * 160) */\n      tag_422\n        /* \"Verfiy.sol\":6016:6030  (L1 - 1) * 160 */\n      tag_258\n        /* \"Verfiy.sol\":6017:6023  L1 - 1 */\n      tag_264\n      dup6\n      tag_42\n      jump\t// in\n        /* \"Verfiy.sol\":6006:6031  new bytes((L1 - 1) * 160) */\n    tag_422:\n        /* \"Verfiy.sol\":6038:6043  k = 0 */\n      swap8\n      0x00\n      swap6\n        /* \"Verfiy.sol\":6049:6061  temp1 = rho1 */\n      dup8\n      swap6\n      dup8\n        /* \"Verfiy.sol\":6072:6085  uint256 i = 0 */\n    tag_425:\n        /* \"Verfiy.sol\":6091:6097  L1 - 1 */\n      tag_426\n      dup8\n      tag_42\n      jump\t// in\n    tag_426:\n        /* \"Verfiy.sol\":6087:6097  i < L1 - 1 */\n      dup10\n      lt\n      iszero\n      tag_427\n      jumpi\n      mload(0x00)\n      codecopy(0x00, data_3b2d02282c3edcbfc4f9664b53f75892ea03b8fe586039e3ee6fe41258ca9b0d, 0x20)\n      mload(0x00)\n      swap1\n      0x00\n      mstore\n        /* \"Verfiy.sol\":6130:6136  g1s[i] */\n      dup11\n        /* \"Verfiy.sol\":6274:6281  k += 32 */\n      tag_429\n        /* \"Verfiy.sol\":6130:6136  g1s[i] */\n      dup15\n        /* \"Verfiy.sol\":6258:6263  temp1 */\n      tag_416\n        /* \"Verfiy.sol\":6130:6136  g1s[i] */\n      dup13\n        /* \"Verfiy.sol\":6217:6225  k += 128 */\n      tag_411\n        /* \"Verfiy.sol\":6130:6136  g1s[i] */\n      dup16\n      swap8\n        /* \"Verfiy.sol\":4973:4976  128 */\n      tag_432\n        /* \"Verfiy.sol\":6130:6136  g1s[i] */\n      dup16\n      dup16\n        /* \"Verfiy.sol\":4973:4976  128 */\n      0x80\n        /* \"Verfiy.sol\":6146:6170  require(p.length == 128) */\n      tag_433\n        /* \"Verfiy.sol\":6130:6136  g1s[i] */\n      tag_414\n        /* \"Verfiy.sol\":4706:4707  1 */\n      0x01\n        /* \"Verfiy.sol\":6130:6136  g1s[i] */\n      swap15\n      dup8\n      swap6\n      dup13\n      swap6\n      tag_40\n      jump\t// in\n        /* \"Verfiy.sol\":6146:6170  require(p.length == 128) */\n    tag_433:\n        /* \"Verfiy.sol\":4973:4976  128 */\n      tag_70\n      jump\t// in\n    tag_432:\n        /* \"Verfiy.sol\":6217:6225  k += 128 */\n      tag_35\n      jump\t// in\n        /* \"Verfiy.sol\":6274:6281  k += 32 */\n    tag_429:\n        /* \"Verfiy.sol\":6300:6322  mulmod(temp1, rho1, q) */\n      swap10\n      mulmod\n        /* \"Verfiy.sol\":26:10527  contract Verify {... */\n      swap9\n      add\n        /* \"Verfiy.sol\":6072:6085  uint256 i = 0 */\n      swap8\n      swap7\n      jump(tag_425)\n        /* \"Verfiy.sol\":6087:6097  i < L1 - 1 */\n    tag_427:\n      pop\n      dup10\n      swap2\n      dup6\n      swap2\n      dup8\n        /* \"Verfiy.sol\":6407:6423  G1Add(g1, part3) */\n      tag_435\n        /* \"Verfiy.sol\":6382:6393  G1Muls(ag3) */\n      tag_344\n        /* \"Verfiy.sol\":6087:6097  i < L1 - 1 */\n      dup16\n        /* \"Verfiy.sol\":6382:6393  G1Muls(ag3) */\n      tag_51\n      jump\t// in\n        /* \"Verfiy.sol\":6407:6423  G1Add(g1, part3) */\n    tag_435:\n        /* \"Verfiy.sol\":6546:6552  2 * L1 */\n      swap1\n        /* \"Verfiy.sol\":6581:6605  new bytes(slices4 * 288) */\n      tag_438\n        /* \"Verfiy.sol\":6591:6604  slices4 * 288 */\n      tag_258\n        /* \"Verfiy.sol\":6546:6556  2 * L1 - 2 */\n      tag_261\n        /* \"Verfiy.sol\":6546:6552  2 * L1 */\n      tag_403\n      dup5\n      tag_57\n      jump\t// in\n        /* \"Verfiy.sol\":6581:6605  new bytes(slices4 * 288) */\n    tag_438:\n        /* \"Verfiy.sol\":6612:6617  k = 0 */\n      swap5\n      0x00\n        /* \"Verfiy.sol\":6623:6632  temp2 = 1 */\n      swap7\n        /* \"Verfiy.sol\":4706:4707  1 */\n      0x01\n        /* \"Verfiy.sol\":6643:6656  uint256 i = 0 */\n      swap4\n      0x00\n        /* \"Verfiy.sol\":6638:7078  for (uint256 i = 0; i <= 2 * L1 - 1; ) {... */\n      swap9\n        /* \"Verfiy.sol\":6643:6656  uint256 i = 0 */\n    tag_442:\n        /* \"Verfiy.sol\":6663:6673  2 * L1 - 1 */\n      tag_443\n        /* \"Verfiy.sol\":6663:6669  2 * L1 */\n      tag_292\n      dup7\n      tag_57\n      jump\t// in\n        /* \"Verfiy.sol\":6663:6673  2 * L1 - 1 */\n    tag_443:\n        /* \"Verfiy.sol\":6658:6673  i <= 2 * L1 - 1 */\n      dup11\n      gt\n      tag_445\n      jumpi\n        /* \"Verfiy.sol\":6691:6698  i == L1 */\n      dup9\n      dup13\n      swap2\n      dup12\n      dup11\n      dup11\n      dup10\n      dup4\n      eq\n        /* \"Verfiy.sol\":6691:6713  i == L1 || i == L1 + 1 */\n      dup1\n      iszero\n      tag_447\n      jumpi\n        /* \"Verfiy.sol\":6643:6656  uint256 i = 0 */\n    tag_448:\n        /* \"Verfiy.sol\":6687:6823  if (i == L1 || i == L1 + 1) {... */\n      tag_449\n      jumpi\n        /* \"Verfiy.sol\":6852:6858  g2s[i] */\n      dup11\n        /* \"Verfiy.sol\":6939:6947  k += 256 */\n      tag_411\n        /* \"Verfiy.sol\":6852:6858  g2s[i] */\n      dup6\n        /* \"Verfiy.sol\":5669:5672  256 */\n      tag_412\n        /* \"Verfiy.sol\":4706:4707  1 */\n      0x01\n        /* \"Verfiy.sol\":6852:6858  g2s[i] */\n      swap10\n      swap8\n      dup10\n        /* \"Verfiy.sol\":5669:5672  256 */\n      0x0100\n        /* \"Verfiy.sol\":6868:6892  require(p.length == 256) */\n      tag_413\n        /* \"Verfiy.sol\":6852:6858  g2s[i] */\n      tag_414\n        /* \"Verfiy.sol\":6996:7003  k += 32 */\n      tag_455\n        /* \"Verfiy.sol\":6852:6858  g2s[i] */\n      swap12\n      mload(0x00)\n      codecopy(0x00, data_3b2d02282c3edcbfc4f9664b53f75892ea03b8fe586039e3ee6fe41258ca9b0d, 0x20)\n      mload(0x00)\n      swap1\n      0x00\n      mstore\n      swap15\n      swap12\n        /* \"Verfiy.sol\":6980:6985  temp2 */\n      tag_416\n        /* \"Verfiy.sol\":6852:6858  g2s[i] */\n      swap12\n      tag_40\n      jump\t// in\n        /* \"Verfiy.sol\":6996:7003  k += 32 */\n    tag_455:\n        /* \"Verfiy.sol\":7022:7044  mulmod(temp2, rho2, q) */\n      swap8\n      mulmod\n        /* \"Verfiy.sol\":26:10527  contract Verify {... */\n      swap10\n      add\n        /* \"Verfiy.sol\":6643:6656  uint256 i = 0 */\n      swap10\n    tag_457:\n      swap10\n      swap9\n      swap5\n      jump(tag_442)\n        /* \"Verfiy.sol\":6687:6823  if (i == L1 || i == L1 + 1) {... */\n    tag_449:\n        /* \"Verfiy.sol\":6737:6759  mulmod(temp2, rho2, q) */\n      pop\n      pop\n      pop\n      swap7\n      mload(0x00)\n      codecopy(0x00, data_3b2d02282c3edcbfc4f9664b53f75892ea03b8fe586039e3ee6fe41258ca9b0d, 0x20)\n      mload(0x00)\n      swap1\n      0x00\n      mstore\n      swap2\n      pop\n      swap2\n        /* \"Verfiy.sol\":4706:4707  1 */\n      0x01\n        /* \"Verfiy.sol\":6737:6759  mulmod(temp2, rho2, q) */\n      swap3\n      mulmod\n        /* \"Verfiy.sol\":26:10527  contract Verify {... */\n      swap10\n      add\n        /* \"Verfiy.sol\":6804:6812  continue */\n      swap10\n      jump(tag_457)\n        /* \"Verfiy.sol\":6691:6713  i == L1 || i == L1 + 1 */\n    tag_447:\n        /* \"Verfiy.sol\":6707:6713  L1 + 1 */\n      pop\n      tag_458\n      dup11\n      tag_34\n      jump\t// in\n    tag_458:\n        /* \"Verfiy.sol\":6702:6713  i == L1 + 1 */\n      dup4\n      eq\n        /* \"Verfiy.sol\":6691:6713  i == L1 || i == L1 + 1 */\n      jump(tag_448)\n        /* \"Verfiy.sol\":6658:6673  i <= 2 * L1 - 1 */\n    tag_445:\n      pop\n      dup7\n      dup4\n        /* \"Verfiy.sol\":7247:7251  L1-1 */\n      tag_459\n        /* \"Verfiy.sol\":279:540  hex\"0000000000000000000000000000000017f1d3a73197d7942695638c4fa9ac0fc3688c4f9774b905a14e3a3f171bac586c55e83ff97a1aeffb3af00adb22c6bb0000000000000000000000000000000008b3f481e3aaa0f1a09e30ed741d8ae4fcf5e095d5d00af600db18cb2c04b3edd03cc744a2888ae40caa232946c5e7e1\" */\n      tag_143\n        /* \"Verfiy.sol\":6658:6673  i <= 2 * L1 - 1 */\n      dup8\n        /* \"Verfiy.sol\":279:540  hex\"0000000000000000000000000000000017f1d3a73197d7942695638c4fa9ac0fc3688c4f9774b905a14e3a3f171bac586c55e83ff97a1aeffb3af00adb22c6bb0000000000000000000000000000000008b3f481e3aaa0f1a09e30ed741d8ae4fcf5e095d5d00af600db18cb2c04b3edd03cc744a2888ae40caa232946c5e7e1\" */\n      tag_141\n        /* \"Verfiy.sol\":6658:6673  i <= 2 * L1 - 1 */\n      dup16\n        /* \"Verfiy.sol\":279:540  hex\"0000000000000000000000000000000017f1d3a73197d7942695638c4fa9ac0fc3688c4f9774b905a14e3a3f171bac586c55e83ff97a1aeffb3af00adb22c6bb0000000000000000000000000000000008b3f481e3aaa0f1a09e30ed741d8ae4fcf5e095d5d00af600db18cb2c04b3edd03cc744a2888ae40caa232946c5e7e1\" */\n      tag_139\n        /* \"Verfiy.sol\":6658:6673  i <= 2 * L1 - 1 */\n      dup16\n      dup15\n        /* \"Verfiy.sol\":7121:7191  require(EqualPairingCheck(part1, part2, part3, part4),\"Check2 Failed\") */\n      tag_463\n        /* \"Verfiy.sol\":7129:7174  EqualPairingCheck(part1, part2, part3, part4) */\n      tag_464\n        /* \"Verfiy.sol\":7197:7270  require(EqualPairingCheck(g1,g2s[L1+1],g1s[1],g2s[L1-1]),\"Check3 Failed\") */\n      tag_465\n        /* \"Verfiy.sol\":6658:6673  i <= 2 * L1 - 1 */\n      swap14\n        /* \"Verfiy.sol\":7205:7253  EqualPairingCheck(g1,g2s[L1+1],g1s[1],g2s[L1-1]) */\n      tag_466\n        /* \"Verfiy.sol\":6658:6673  i <= 2 * L1 - 1 */\n      swap14\n      dup10\n      swap8\n        /* \"Verfiy.sol\":7104:7115  G2Muls(ag4) */\n      tag_143\n        /* \"Verfiy.sol\":7243:7252  g2s[L1-1] */\n      tag_140\n        /* \"Verfiy.sol\":6658:6673  i <= 2 * L1 - 1 */\n      swap8\n        /* \"Verfiy.sol\":7104:7115  G2Muls(ag4) */\n      tag_45\n      jump\t// in\n        /* \"Verfiy.sol\":7129:7174  EqualPairingCheck(part1, part2, part3, part4) */\n    tag_464:\n        /* \"Verfiy.sol\":7121:7191  require(EqualPairingCheck(part1, part2, part3, part4),\"Check2 Failed\") */\n      tag_68\n      jump\t// in\n    tag_463:\n        /* \"Verfiy.sol\":26:10527  contract Verify {... */\n      tag_469\n      tag_32\n      jump\t// in\n    tag_469:\n        /* \"Verfiy.sol\":7230:7234  L1+1 */\n      swap10\n        /* \"Verfiy.sol\":7236:7242  g1s[1] */\n      tag_470\n        /* \"Verfiy.sol\":7226:7235  g2s[L1+1] */\n      tag_471\n        /* \"Verfiy.sol\":7230:7234  L1+1 */\n      tag_472\n      dup8\n      tag_34\n      jump\t// in\n    tag_472:\n        /* \"Verfiy.sol\":7226:7235  g2s[L1+1] */\n      dup4\n      dup6\n      tag_40\n      jump\t// in\n    tag_471:\n        /* \"Verfiy.sol\":7236:7242  g1s[1] */\n      swap9\n      swap1\n      swap12\n      tag_39\n      jump\t// in\n    tag_470:\n        /* \"Verfiy.sol\":7247:7251  L1-1 */\n      swap10\n      swap1\n      swap6\n      tag_42\n      jump\t// in\n    tag_459:\n        /* \"Verfiy.sol\":7243:7252  g2s[L1-1] */\n      swap2\n      tag_40\n      jump\t// in\n        /* \"Verfiy.sol\":7205:7253  EqualPairingCheck(g1,g2s[L1+1],g1s[1],g2s[L1-1]) */\n    tag_466:\n        /* \"Verfiy.sol\":7197:7270  require(EqualPairingCheck(g1,g2s[L1+1],g1s[1],g2s[L1-1]),\"Check3 Failed\") */\n      tag_69\n      jump\t// in\n    tag_465:\n        /* \"Verfiy.sol\":26:10527  contract Verify {... */\n      mload(0x40)\n        /* \"Verfiy.sol\":4706:4707  1 */\n      0x01\n        /* \"Verfiy.sol\":26:10527  contract Verify {... */\n      dup2\n      mstore\n      0x20\n      swap1\n      return\n        /* \"Verfiy.sol\":4883:4896  uint256 i = 0 */\n    tag_394:\n        /* \"Verfiy.sol\":5024:5032  k += 128 */\n      tag_474\n        /* \"Verfiy.sol\":4937:4943  g1s[i] */\n      dup4\n        /* \"Verfiy.sol\":4973:4976  128 */\n      tag_432\n      mload(0x00)\n      codecopy(0x00, data_3b2d02282c3edcbfc4f9664b53f75892ea03b8fe586039e3ee6fe41258ca9b0d, 0x20)\n      mload(0x00)\n      swap1\n      0x00\n      mstore\n        /* \"Verfiy.sol\":4937:4943  g1s[i] */\n      swap6\n      dup11\n        /* \"Verfiy.sol\":4973:4976  128 */\n      0x80\n        /* \"Verfiy.sol\":4953:4977  require(p.length == 128) */\n      tag_433\n        /* \"Verfiy.sol\":4937:4943  g1s[i] */\n      tag_414\n      dup13\n        /* \"Verfiy.sol\":4706:4707  1 */\n      0x01\n        /* \"Verfiy.sol\":4937:4943  g1s[i] */\n      swap13\n      swap11\n        /* \"Verfiy.sol\":5081:5088  k += 32 */\n      tag_478\n        /* \"Verfiy.sol\":4937:4943  g1s[i] */\n      swap11\n      tag_40\n      jump\t// in\n        /* \"Verfiy.sol\":5024:5032  k += 128 */\n    tag_474:\n        /* \"Verfiy.sol\":8042:8103  assembly {... */\n      dup8\n      dup2\n      add\n      0x20\n      add\n      dup8\n      swap1\n      mstore\n        /* \"Verfiy.sol\":5777:5784  k += 32 */\n      tag_36\n      jump\t// in\n        /* \"Verfiy.sol\":5081:5088  k += 32 */\n    tag_478:\n        /* \"Verfiy.sol\":5107:5129  mulmod(temp1, rho1, q) */\n      swap5\n      mulmod\n        /* \"Verfiy.sol\":26:10527  contract Verify {... */\n      swap3\n      swap2\n      add\n      swap1\n        /* \"Verfiy.sol\":4883:4896  uint256 i = 0 */\n      dup8\n      swap1\n      jump(tag_393)\n        /* \"Verfiy.sol\":26:10527  contract Verify {... */\n    tag_29:\n      swap1\n      dup1\n      0x20\n      swap4\n      swap3\n      dup2\n      dup5\n      mstore\n      dup5\n      dup5\n      add\n      calldatacopy\n      0x00\n      dup3\n      dup3\n      add\n      dup5\n      add\n      mstore\n      0x1f\n      add\n      not(0x1f)\n      and\n      add\n      add\n      swap1\n      jump\t// out\n    tag_30:\n      swap1\n      0x20\n      dup4\n      dup3\n      dup2\n      mstore\n      add\n      swap1\n      0x20\n      dup2\n      0x05\n      shl\n      dup6\n      add\n      add\n      swap4\n      dup4\n      0x00\n      swap2\n    tag_480:\n      dup4\n      dup4\n      lt\n      tag_481\n      jumpi\n      pop\n      pop\n      pop\n      pop\n      pop\n      pop\n      swap1\n      jump\t// out\n    tag_481:\n      swap1\n      swap2\n      swap3\n      swap4\n      swap5\n      swap6\n      not(0x1f)\n      dup3\n      dup3\n      sub\n      add\n      dup7\n      mstore\n      dup7\n      calldataload\n      not(0x1e)\n      dup5\n      calldatasize\n      sub\n      add\n      dup2\n      slt\n      iszero\n      tag_107\n      jumpi\n      dup4\n      add\n      swap1\n      0x20\n      dup3\n      calldataload\n      swap3\n      add\n      swap2\n      sub(shl(0x40, 0x01), 0x01)\n      dup2\n      gt\n      tag_107\n      jumpi\n      dup1\n      calldatasize\n      sub\n      dup4\n      sgt\n      tag_107\n      jumpi\n      tag_489\n      0x20\n      swap3\n      dup4\n      swap3\n      0x01\n      swap6\n      tag_29\n      jump\t// in\n    tag_489:\n      swap9\n      add\n      swap7\n      add\n      swap5\n      swap4\n      add\n      swap2\n      swap1\n      jump(tag_480)\n    tag_32:\n      mload(0x40)\n      swap1\n      tag_490\n      0xa0\n      dup4\n      tag_9\n      jump\t// in\n    tag_490:\n      0x80\n      dup3\n      mstore\n      0xfcf5e095d5d00af600db18cb2c04b3edd03cc744a2888ae40caa232946c5e7e1\n      0x80\n      dup4\n      0x17f1d3a73197d7942695638c4fa9ac0f\n      0x20\n      dup3\n      add\n      mstore\n      0xc3688c4f9774b905a14e3a3f171bac586c55e83ff97a1aeffb3af00adb22c6bb\n      0x40\n      dup3\n      add\n      mstore\n      0x08b3f481e3aaa0f1a09e30ed741d8ae4\n      0x60\n      dup3\n      add\n      mstore\n      add\n      mstore\n      jump\t// out\n        /* \"Verfiy.sol\":279:540  hex\"0000000000000000000000000000000017f1d3a73197d7942695638c4fa9ac0fc3688c4f9774b905a14e3a3f171bac586c55e83ff97a1aeffb3af00adb22c6bb0000000000000000000000000000000008b3f481e3aaa0f1a09e30ed741d8ae4fcf5e095d5d00af600db18cb2c04b3edd03cc744a2888ae40caa232946c5e7e1\" */\n    tag_33:\n        /* \"Verfiy.sol\":26:10527  contract Verify {... */\n      shl(0xe0, 0x4e487b71)\n        /* \"Verfiy.sol\":279:540  hex\"0000000000000000000000000000000017f1d3a73197d7942695638c4fa9ac0fc3688c4f9774b905a14e3a3f171bac586c55e83ff97a1aeffb3af00adb22c6bb0000000000000000000000000000000008b3f481e3aaa0f1a09e30ed741d8ae4fcf5e095d5d00af600db18cb2c04b3edd03cc744a2888ae40caa232946c5e7e1\" */\n      0x00\n      mstore\n      mstore(0x04, 0x11)\n      revert(0x00, 0x24)\n    tag_34:\n      swap1\n        /* \"Verfiy.sol\":1466:1467  1 */\n      0x01\n        /* \"Verfiy.sol\":279:540  hex\"0000000000000000000000000000000017f1d3a73197d7942695638c4fa9ac0fc3688c4f9774b905a14e3a3f171bac586c55e83ff97a1aeffb3af00adb22c6bb0000000000000000000000000000000008b3f481e3aaa0f1a09e30ed741d8ae4fcf5e095d5d00af600db18cb2c04b3edd03cc744a2888ae40caa232946c5e7e1\" */\n      dup3\n      add\n      dup1\n      swap3\n      gt\n      tag_137\n      jumpi\n      jump\t// out\n    tag_35:\n      swap1\n        /* \"Verfiy.sol\":4973:4976  128 */\n      0x80\n        /* \"Verfiy.sol\":279:540  hex\"0000000000000000000000000000000017f1d3a73197d7942695638c4fa9ac0fc3688c4f9774b905a14e3a3f171bac586c55e83ff97a1aeffb3af00adb22c6bb0000000000000000000000000000000008b3f481e3aaa0f1a09e30ed741d8ae4fcf5e095d5d00af600db18cb2c04b3edd03cc744a2888ae40caa232946c5e7e1\" */\n      dup3\n      add\n      dup1\n      swap3\n      gt\n      tag_137\n      jumpi\n      jump\t// out\n    tag_36:\n      swap1\n        /* \"Verfiy.sol\":4600:4632  abi.encode(g1s, g2s, uint256(0)) */\n      0x20\n        /* \"Verfiy.sol\":279:540  hex\"0000000000000000000000000000000017f1d3a73197d7942695638c4fa9ac0fc3688c4f9774b905a14e3a3f171bac586c55e83ff97a1aeffb3af00adb22c6bb0000000000000000000000000000000008b3f481e3aaa0f1a09e30ed741d8ae4fcf5e095d5d00af600db18cb2c04b3edd03cc744a2888ae40caa232946c5e7e1\" */\n      dup3\n      add\n      dup1\n      swap3\n      gt\n      tag_137\n      jumpi\n      jump\t// out\n    tag_37:\n      swap1\n        /* \"Verfiy.sol\":5669:5672  256 */\n      0x0100\n        /* \"Verfiy.sol\":279:540  hex\"0000000000000000000000000000000017f1d3a73197d7942695638c4fa9ac0fc3688c4f9774b905a14e3a3f171bac586c55e83ff97a1aeffb3af00adb22c6bb0000000000000000000000000000000008b3f481e3aaa0f1a09e30ed741d8ae4fcf5e095d5d00af600db18cb2c04b3edd03cc744a2888ae40caa232946c5e7e1\" */\n      dup3\n      add\n      dup1\n      swap3\n      gt\n      tag_137\n      jumpi\n      jump\t// out\n    tag_38:\n        /* \"Verfiy.sol\":26:10527  contract Verify {... */\n      shl(0xe0, 0x4e487b71)\n        /* \"Verfiy.sol\":279:540  hex\"0000000000000000000000000000000017f1d3a73197d7942695638c4fa9ac0fc3688c4f9774b905a14e3a3f171bac586c55e83ff97a1aeffb3af00adb22c6bb0000000000000000000000000000000008b3f481e3aaa0f1a09e30ed741d8ae4fcf5e095d5d00af600db18cb2c04b3edd03cc744a2888ae40caa232946c5e7e1\" */\n      0x00\n      mstore\n      mstore(0x04, 0x32)\n      revert(0x00, 0x24)\n    tag_39:\n      swap1\n        /* \"Verfiy.sol\":7525:7526  1 */\n      0x01\n        /* \"Verfiy.sol\":279:540  hex\"0000000000000000000000000000000017f1d3a73197d7942695638c4fa9ac0fc3688c4f9774b905a14e3a3f171bac586c55e83ff97a1aeffb3af00adb22c6bb0000000000000000000000000000000008b3f481e3aaa0f1a09e30ed741d8ae4fcf5e095d5d00af600db18cb2c04b3edd03cc744a2888ae40caa232946c5e7e1\" */\n      lt\n      iszero\n      tag_308\n      jumpi\n      0x20\n      dup2\n      add\n      calldataload\n        /* \"Verfiy.sol\":26:10527  contract Verify {... */\n      swap1\n      not(0x1e)\n        /* \"Verfiy.sol\":279:540  hex\"0000000000000000000000000000000017f1d3a73197d7942695638c4fa9ac0fc3688c4f9774b905a14e3a3f171bac586c55e83ff97a1aeffb3af00adb22c6bb0000000000000000000000000000000008b3f481e3aaa0f1a09e30ed741d8ae4fcf5e095d5d00af600db18cb2c04b3edd03cc744a2888ae40caa232946c5e7e1\" */\n      dup2\n      calldatasize\n      sub\n      add\n      dup3\n      slt\n      iszero\n      tag_107\n      jumpi\n      add\n      swap1\n      dup2\n      calldataload\n      swap2\n      sub(shl(0x40, 0x01), 0x01)\n      dup4\n      gt\n      tag_107\n      jumpi\n      0x20\n      add\n      dup3\n      calldatasize\n      sub\n      dup2\n      sgt\n      tag_107\n      jumpi\n      swap2\n      swap1\n      jump\t// out\n    tag_40:\n      swap2\n      swap1\n      dup2\n      lt\n      iszero\n      tag_308\n      jumpi\n      0x05\n      shl\n      dup2\n      add\n      calldataload\n        /* \"Verfiy.sol\":26:10527  contract Verify {... */\n      swap1\n      not(0x1e)\n        /* \"Verfiy.sol\":279:540  hex\"0000000000000000000000000000000017f1d3a73197d7942695638c4fa9ac0fc3688c4f9774b905a14e3a3f171bac586c55e83ff97a1aeffb3af00adb22c6bb0000000000000000000000000000000008b3f481e3aaa0f1a09e30ed741d8ae4fcf5e095d5d00af600db18cb2c04b3edd03cc744a2888ae40caa232946c5e7e1\" */\n      dup2\n      calldatasize\n      sub\n      add\n      dup3\n      slt\n      iszero\n      tag_107\n      jumpi\n      add\n      swap1\n      dup2\n      calldataload\n      swap2\n      sub(shl(0x40, 0x01), 0x01)\n      dup4\n      gt\n      tag_107\n      jumpi\n      0x20\n      add\n      dup3\n      calldatasize\n      sub\n      dup2\n      sgt\n      tag_107\n      jumpi\n      swap2\n      swap1\n      jump\t// out\n    tag_41:\n      not(0x02)\n      dup2\n      add\n      swap2\n      swap1\n      dup3\n      gt\n      tag_137\n      jumpi\n      jump\t// out\n    tag_42:\n      not(0x00)\n      dup2\n      add\n      swap2\n      swap1\n      dup3\n      gt\n      tag_137\n      jumpi\n      jump\t// out\n    tag_43:\n      not(0x01)\n      dup2\n      add\n      swap2\n      swap1\n      dup3\n      gt\n      tag_137\n      jumpi\n      jump\t// out\n        /* \"Verfiy.sol\":26:10527  contract Verify {... */\n    tag_44:\n      jumpi(tag_521, iszero(returndatasize))\n      returndatasize\n      swap1\n      tag_523\n      dup3\n      tag_10\n      jump\t// in\n    tag_523:\n      swap2\n      tag_524\n      mload(0x40)\n      swap4\n      dup5\n      tag_9\n      jump\t// in\n    tag_524:\n      dup3\n      mstore\n      returndatasize\n      0x00\n      0x20\n      dup5\n      add\n      returndatacopy\n      jump\t// out\n    tag_521:\n      0x60\n      swap1\n      jump\t// out\n        /* \"Verfiy.sol\":9434:9601  function G2Muls(bytes memory d) public view returns (bytes memory point) {... */\n    tag_45:\n        /* \"Verfiy.sol\":9547:9574  address(0x0e).staticcall(d) */\n      0x00\n        /* \"Verfiy.sol\":9434:9601  function G2Muls(bytes memory d) public view returns (bytes memory point) {... */\n      dup1\n      swap2\n        /* \"Verfiy.sol\":9547:9574  address(0x0e).staticcall(d) */\n      0x20\n      dup2\n      mload\n      swap2\n      add\n        /* \"Verfiy.sol\":9555:9559  0x0e */\n      0x0e\n        /* \"Verfiy.sol\":9547:9574  address(0x0e).staticcall(d) */\n      gas\n      staticcall\n      pop\n      tag_154\n      tag_44\n      jump\t// in\n        /* \"Verfiy.sol\":26:10527  contract Verify {... */\n    tag_46:\n      dup1\n      mload\n      swap2\n      swap1\n      dup3\n      swap1\n      0x20\n      add\n      dup3\n      mcopy\n      add\n      0x00\n      dup2\n      mstore\n      swap1\n      jump\t// out\n        /* \"Verfiy.sol\":8155:8420  function G1Add(... */\n    tag_47:\n        /* \"Verfiy.sol\":8362:8393  address(0x0b).staticcall(input) */\n      0x00\n        /* \"Verfiy.sol\":8155:8420  function G1Add(... */\n      swap2\n      swap1\n        /* \"Verfiy.sol\":26:10527  contract Verify {... */\n      tag_119\n        /* \"Verfiy.sol\":8298:8322  abi.encodePacked(p1, p2) */\n      tag_528\n        /* \"Verfiy.sol\":8155:8420  function G1Add(... */\n      dup5\n      swap4\n        /* \"Verfiy.sol\":26:10527  contract Verify {... */\n      mload(0x40)\n        /* \"Verfiy.sol\":8298:8322  abi.encodePacked(p1, p2) */\n      swap3\n      dup4\n      swap2\n        /* \"Verfiy.sol\":26:10527  contract Verify {... */\n      tag_183\n        /* \"Verfiy.sol\":8298:8322  abi.encodePacked(p1, p2) */\n      0x20\n      dup5\n      add\n        /* \"Verfiy.sol\":26:10527  contract Verify {... */\n      dup1\n      swap8\n      tag_46\n      jump\t// in\n        /* \"Verfiy.sol\":8298:8322  abi.encodePacked(p1, p2) */\n    tag_528:\n        /* \"Verfiy.sol\":8362:8393  address(0x0b).staticcall(input) */\n      mload\n      swap1\n        /* \"Verfiy.sol\":8370:8374  0x0b */\n      0x0b\n        /* \"Verfiy.sol\":8362:8393  address(0x0b).staticcall(input) */\n      gas\n      staticcall\n      pop\n      tag_154\n      tag_44\n      jump\t// in\n        /* \"Verfiy.sol\":26:10527  contract Verify {... */\n    tag_48:\n      mload(0x40)\n      0x0100\n      swap2\n      swap1\n      tag_533\n      dup4\n      dup3\n      tag_9\n      jump\t// in\n    tag_533:\n        /* \"Verfiy.sol\":10429:10432  200 */\n      0xc8\n        /* \"Verfiy.sol\":26:10527  contract Verify {... */\n      dup2\n      mstore\n      swap2\n      not(0x1f)\n      add\n      calldatasize\n      0x20\n      dup5\n      add\n      calldatacopy\n      jump\t// out\n    tag_49:\n      swap1\n      tag_536\n      dup3\n      tag_10\n      jump\t// in\n    tag_536:\n      tag_537\n      mload(0x40)\n      swap2\n      dup3\n      tag_9\n      jump\t// in\n    tag_537:\n      dup3\n      dup2\n      mstore\n      dup1\n      swap3\n      tag_538\n      not(0x1f)\n      swap2\n      tag_10\n      jump\t// in\n    tag_538:\n      add\n      swap1\n      0x20\n      calldatasize\n      swap2\n      add\n      calldatacopy\n      jump\t// out\n    tag_50:\n      0x20\n      dup2\n      mload\n      swap2\n      add\n      mload\n      swap1\n      0x20\n      dup2\n      lt\n      tag_539\n      jumpi\n      pop\n      swap1\n      jump\t// out\n    tag_539:\n        /* \"Verfiy.sol\":279:540  hex\"0000000000000000000000000000000017f1d3a73197d7942695638c4fa9ac0fc3688c4f9774b905a14e3a3f171bac586c55e83ff97a1aeffb3af00adb22c6bb0000000000000000000000000000000008b3f481e3aaa0f1a09e30ed741d8ae4fcf5e095d5d00af600db18cb2c04b3edd03cc744a2888ae40caa232946c5e7e1\" */\n      not(0x00)\n        /* \"Verfiy.sol\":26:10527  contract Verify {... */\n      swap1\n      0x20\n      sub\n      0x03\n      shl\n      shl\n      and\n      swap1\n      jump\t// out\n        /* \"Verfiy.sol\":8698:8865  function G1Muls(bytes memory d) public view returns (bytes memory point) {... */\n    tag_51:\n        /* \"Verfiy.sol\":8811:8838  address(0x0c).staticcall(d) */\n      0x00\n        /* \"Verfiy.sol\":8698:8865  function G1Muls(bytes memory d) public view returns (bytes memory point) {... */\n      dup1\n      swap2\n        /* \"Verfiy.sol\":8811:8838  address(0x0c).staticcall(d) */\n      0x20\n      dup2\n      mload\n      swap2\n      add\n        /* \"Verfiy.sol\":8819:8823  0x0c */\n      0x0c\n        /* \"Verfiy.sol\":8811:8838  address(0x0c).staticcall(d) */\n      gas\n      staticcall\n      pop\n      tag_154\n      tag_44\n      jump\t// in\n        /* \"Verfiy.sol\":9969:10360  function EqualPairingCheck(... */\n    tag_52:\n      swap1\n        /* \"Verfiy.sol\":10204:10239  abi.encodePacked(p1, p2, negP3, p4) */\n      tag_542\n        /* \"Verfiy.sol\":26:10527  contract Verify {... */\n      tag_183\n        /* \"Verfiy.sol\":9969:10360  function EqualPairingCheck(... */\n      swap2\n        /* \"Verfiy.sol\":26:10527  contract Verify {... */\n      tag_119\n        /* \"Verfiy.sol\":10279:10310  address(0x0f).staticcall(input) */\n      0x00\n        /* \"Verfiy.sol\":9969:10360  function EqualPairingCheck(... */\n      swap7\n      dup8\n      dup1\n      dup1\n      swap9\n        /* \"Verfiy.sol\":26:10527  contract Verify {... */\n      mload(0x40)\n        /* \"Verfiy.sol\":8567:8595  abi.encodePacked(p1, scalar) */\n      tag_545\n      0x20\n      dup3\n        /* \"Verfiy.sol\":26:10527  contract Verify {... */\n      tag_546\n        /* \"Verfiy.sol\":8567:8595  abi.encodePacked(p1, scalar) */\n      dup3\n      dup3\n      add\n        /* \"Verfiy.sol\":26:10527  contract Verify {... */\n      dup1\n      swap7\n      tag_46\n      jump\t// in\n    tag_546:\n        /* \"Verfiy.sol\":179:245  0x73eda753299d7d483339d80809a1d80553bda402fffe5bfeffffffff00000000 */\n      0x73eda753299d7d483339d80809a1d80553bda402fffe5bfeffffffff00000000\n        /* \"Verfiy.sol\":26:10527  contract Verify {... */\n      dup2\n      mstore\n        /* \"Verfiy.sol\":8567:8595  abi.encodePacked(p1, scalar) */\n      sub\n      dup1\n      dup5\n      mstore\n      add\n      dup3\n      tag_9\n      jump\t// in\n    tag_545:\n        /* \"Verfiy.sol\":8635:8666  address(0x0c).staticcall(input) */\n      mload\n      swap1\n        /* \"Verfiy.sol\":8643:8647  0x0c */\n      0x0c\n        /* \"Verfiy.sol\":8635:8666  address(0x0c).staticcall(input) */\n      gas\n      staticcall\n      pop\n        /* \"Verfiy.sol\":26:10527  contract Verify {... */\n      tag_183\n        /* \"Verfiy.sol\":8635:8666  address(0x0c).staticcall(input) */\n      tag_548\n      tag_44\n      jump\t// in\n    tag_548:\n        /* \"Verfiy.sol\":26:10527  contract Verify {... */\n      mload(0x40)\n        /* \"Verfiy.sol\":10204:10239  abi.encodePacked(p1, p2, negP3, p4) */\n      swap7\n      dup8\n      swap6\n        /* \"Verfiy.sol\":26:10527  contract Verify {... */\n      tag_183\n        /* \"Verfiy.sol\":8567:8595  abi.encodePacked(p1, scalar) */\n      0x20\n        /* \"Verfiy.sol\":10204:10239  abi.encodePacked(p1, p2, negP3, p4) */\n      dup9\n      add\n        /* \"Verfiy.sol\":26:10527  contract Verify {... */\n      dup1\n      swap12\n      tag_46\n      jump\t// in\n        /* \"Verfiy.sol\":10204:10239  abi.encodePacked(p1, p2, negP3, p4) */\n    tag_542:\n        /* \"Verfiy.sol\":10279:10310  address(0x0f).staticcall(input) */\n      mload\n      swap1\n        /* \"Verfiy.sol\":10287:10291  0x0f */\n      0x0f\n        /* \"Verfiy.sol\":10279:10310  address(0x0f).staticcall(input) */\n      gas\n      staticcall\n      pop\n        /* \"Verfiy.sol\":10352:10353  1 */\n      0x01\n        /* \"Verfiy.sol\":10335:10347  bytes32(ret) */\n      tag_550\n        /* \"Verfiy.sol\":10279:10310  address(0x0f).staticcall(input) */\n      tag_210\n      tag_44\n      jump\t// in\n        /* \"Verfiy.sol\":10335:10347  bytes32(ret) */\n    tag_550:\n        /* \"Verfiy.sol\":10327:10353  uint256(bytes32(ret)) == 1 */\n      eq\n        /* \"Verfiy.sol\":9969:10360  function EqualPairingCheck(... */\n      swap1\n      jump\t// out\n        /* \"Verfiy.sol\":9159:9429  function G2Mul(... */\n    tag_53:\n      0x00\n      swap3\n        /* \"Verfiy.sol\":9303:9331  abi.encodePacked(p1, scalar) */\n      tag_552\n      0x20\n        /* \"Verfiy.sol\":9159:9429  function G2Mul(... */\n      dup1\n      dup7\n      swap6\n        /* \"Verfiy.sol\":26:10527  contract Verify {... */\n      mload(0x40)\n        /* \"Verfiy.sol\":9303:9331  abi.encodePacked(p1, scalar) */\n      swap5\n      dup2\n      dup7\n      swap3\n      dup5\n      dup5\n      add\n        /* \"Verfiy.sol\":26:10527  contract Verify {... */\n      swap9\n      dup10\n      calldatacopy\n      dup3\n      add\n      swap1\n      dup4\n      dup3\n      add\n      mstore\n        /* \"Verfiy.sol\":9303:9331  abi.encodePacked(p1, scalar) */\n      sub\n      add\n      dup1\n      dup5\n      mstore\n      add\n      dup3\n      tag_9\n      jump\t// in\n    tag_552:\n        /* \"Verfiy.sol\":9371:9402  address(0x0e).staticcall(input) */\n      mload\n      swap1\n        /* \"Verfiy.sol\":9379:9383  0x0e */\n      0x0e\n        /* \"Verfiy.sol\":9371:9402  address(0x0e).staticcall(input) */\n      gas\n      staticcall\n      pop\n      tag_154\n      tag_44\n      jump\t// in\n        /* \"Verfiy.sol\":26:10527  contract Verify {... */\n    tag_54:\n      swap1\n      dup2\n      0x01\n      shl\n      swap2\n      dup1\n      dup4\n      div\n        /* \"Verfiy.sol\":1296:1297  2 */\n      0x02\n        /* \"Verfiy.sol\":26:10527  contract Verify {... */\n      eq\n      swap1\n      iszero\n      or\n      iszero\n      tag_137\n      jumpi\n      jump\t// out\n    tag_55:\n      swap1\n        /* \"Verfiy.sol\":1595:1598  160 */\n      0xa0\n        /* \"Verfiy.sol\":26:10527  contract Verify {... */\n      dup3\n      mul\n      swap2\n      dup1\n      dup4\n      div\n        /* \"Verfiy.sol\":1595:1598  160 */\n      0xa0\n        /* \"Verfiy.sol\":26:10527  contract Verify {... */\n      eq\n      swap1\n      iszero\n      or\n      iszero\n      tag_137\n      jumpi\n      jump\t// out\n    tag_56:\n      swap1\n        /* \"Verfiy.sol\":1649:1652  288 */\n      0x0120\n        /* \"Verfiy.sol\":26:10527  contract Verify {... */\n      dup3\n      mul\n      swap2\n      dup1\n      dup4\n      div\n        /* \"Verfiy.sol\":1649:1652  288 */\n      0x0120\n        /* \"Verfiy.sol\":26:10527  contract Verify {... */\n      eq\n      swap1\n      iszero\n      or\n      iszero\n      tag_137\n      jumpi\n      jump\t// out\n    tag_57:\n      0x01\n      dup2\n      swap1\n      shl\n      swap2\n      swap1\n      sub(shl(0xff, 0x01), 0x01)\n      dup2\n      and\n      sub\n      tag_137\n      jumpi\n      jump\t// out\n    tag_58:\n      iszero\n      tag_107\n      jumpi\n      jump\t// out\n    tag_59:\n      swap5\n      swap4\n      swap3\n      0x00\n      swap4\n      tag_564\n      tag_565\n      swap4\n      0x40\n      swap6\n      0x60\n      dup11\n      mstore\n      0x60\n      dup11\n      add\n      swap2\n      tag_30\n      jump\t// in\n    tag_564:\n      swap2\n      dup8\n      dup4\n      sub\n      0x20\n      dup10\n      add\n      mstore\n      tag_30\n      jump\t// in\n    tag_565:\n      swap4\n      add\n      mstore\n      jump\t// out\n    tag_60:\n      swap5\n      swap4\n      swap3\n        /* \"Verfiy.sol\":1466:1467  1 */\n      0x01\n        /* \"Verfiy.sol\":26:10527  contract Verify {... */\n      swap4\n      tag_564\n      tag_565\n      swap4\n      0x40\n      swap6\n      0x60\n      dup11\n      mstore\n      0x60\n      dup11\n      add\n      swap2\n      tag_30\n      jump\t// in\n    tag_61:\n      not(0x00)\n      dup2\n      eq\n      tag_137\n      jumpi\n      0x01\n      add\n      swap1\n      jump\t// out\n    tag_62:\n      iszero\n      tag_570\n      jumpi\n      jump\t// out\n    tag_570:\n      mload(0x40)\n      shl(0xe5, 0x461bcd)\n      dup2\n      mstore\n      0x20\n      0x04\n      dup3\n      add\n      mstore\n      0x0a\n      0x24\n      dup3\n      add\n      mstore\n      shl(0xb1, 0x3130b2102398903632b7)\n      0x44\n      dup3\n      add\n      mstore\n      0x64\n      swap1\n      revert\n    tag_63:\n      swap1\n      dup3\n      lt\n      iszero\n      tag_308\n      jumpi\n      add\n      swap1\n      jump\t// out\n    tag_65:\n      swap1\n      dup2\n      mload\n      dup2\n      lt\n      iszero\n      tag_308\n      jumpi\n      add\n      0x20\n      add\n      swap1\n      jump\t// out\n    tag_66:\n      mload(0x40)\n      swap1\n      tag_576\n      0x0120\n      dup4\n      tag_9\n      jump\t// in\n    tag_576:\n      0x0100\n      dup3\n      mstore\n      0xcb3e287e85a763af267492ab572e99ab3f370d275cec1da1aaa9075ff05f79be\n      0x0100\n      dup4\n      0x024aa2b2f08f0a91260805272dc51051\n      0x20\n      dup3\n      add\n      mstore\n      0xc6e47ad4fa403b02b4510b647ae3d1770bac0326a805bbefd48056c8c121bdb8\n      0x40\n      dup3\n      add\n      mstore\n      0x13e02b6052719f607dacd3a088274f65\n      0x60\n      dup3\n      add\n      mstore\n      0x596bd0d09920b61ab5da61bbdc7f5049334cf11213945d57e5ac7d055d042b7e\n      0x80\n      dup3\n      add\n      mstore\n      0x0ce5d527727d6e118cc9cdc6da2e351a\n      0xa0\n      dup3\n      add\n      mstore\n      0xadfd9baa8cbdd3a76d429a695160d12c923ac9cc3baca289e193548608b82801\n      0xc0\n      dup3\n      add\n      mstore\n      0x0606c4a02ea734cc32acd2b02bc28b99\n      0xe0\n      dup3\n      add\n      mstore\n      add\n      mstore\n      jump\t// out\n        /* \"Verfiy.sol\":8889:9154  function G2Add(... */\n    tag_67:\n        /* \"Verfiy.sol\":9096:9127  address(0x0d).staticcall(input) */\n      0x00\n        /* \"Verfiy.sol\":8889:9154  function G2Add(... */\n      swap2\n      swap1\n        /* \"Verfiy.sol\":26:10527  contract Verify {... */\n      tag_119\n        /* \"Verfiy.sol\":9032:9056  abi.encodePacked(p1, p2) */\n      tag_578\n        /* \"Verfiy.sol\":8889:9154  function G2Add(... */\n      dup5\n      swap4\n        /* \"Verfiy.sol\":26:10527  contract Verify {... */\n      mload(0x40)\n        /* \"Verfiy.sol\":9032:9056  abi.encodePacked(p1, p2) */\n      swap3\n      dup4\n      swap2\n        /* \"Verfiy.sol\":26:10527  contract Verify {... */\n      tag_183\n        /* \"Verfiy.sol\":9032:9056  abi.encodePacked(p1, p2) */\n      0x20\n      dup5\n      add\n        /* \"Verfiy.sol\":26:10527  contract Verify {... */\n      dup1\n      swap8\n      tag_46\n      jump\t// in\n        /* \"Verfiy.sol\":9032:9056  abi.encodePacked(p1, p2) */\n    tag_578:\n        /* \"Verfiy.sol\":9096:9127  address(0x0d).staticcall(input) */\n      mload\n      swap1\n        /* \"Verfiy.sol\":9104:9108  0x0d */\n      0x0d\n        /* \"Verfiy.sol\":9096:9127  address(0x0d).staticcall(input) */\n      gas\n      staticcall\n      pop\n      tag_154\n      tag_44\n      jump\t// in\n        /* \"Verfiy.sol\":26:10527  contract Verify {... */\n    tag_68:\n      iszero\n      tag_581\n      jumpi\n      jump\t// out\n    tag_581:\n      mload(0x40)\n      shl(0xe5, 0x461bcd)\n      dup2\n      mstore\n      0x20\n      0x04\n      dup3\n      add\n      mstore\n      0x0d\n      0x24\n      dup3\n      add\n      mstore\n      shl(0x9a, 0x10da1958dacc8811985a5b1959)\n      0x44\n      dup3\n      add\n      mstore\n      0x64\n      swap1\n      revert\n    tag_69:\n      iszero\n      tag_583\n      jumpi\n      jump\t// out\n    tag_583:\n      mload(0x40)\n      shl(0xe5, 0x461bcd)\n      dup2\n      mstore\n      0x20\n      0x04\n      dup3\n      add\n      mstore\n      0x0d\n      0x24\n      dup3\n      add\n      mstore\n      shl(0x9a, 0x10da1958daccc811985a5b1959)\n      0x44\n      dup3\n      add\n      mstore\n      0x64\n      swap1\n      revert\n        /* \"Verfiy.sol\":7714:7952  function _cdCopy(... */\n    tag_70:\n      swap1\n        /* \"Verfiy.sol\":4973:4976  128 */\n      0x80\n        /* \"Verfiy.sol\":7714:7952  function _cdCopy(... */\n      swap3\n        /* \"Verfiy.sol\":7856:7950  assembly {... */\n      0x20\n        /* \"Verfiy.sol\":7714:7952  function _cdCopy(... */\n      swap2\n        /* \"Verfiy.sol\":7856:7950  assembly {... */\n      add\n      add\n      calldatacopy\n        /* \"Verfiy.sol\":7714:7952  function _cdCopy(... */\n      jump\t// out\n    tag_71:\n      swap1\n        /* \"Verfiy.sol\":5669:5672  256 */\n      0x0100\n        /* \"Verfiy.sol\":7714:7952  function _cdCopy(... */\n      swap3\n        /* \"Verfiy.sol\":7856:7950  assembly {... */\n      0x20\n        /* \"Verfiy.sol\":7714:7952  function _cdCopy(... */\n      swap2\n        /* \"Verfiy.sol\":7856:7950  assembly {... */\n      add\n      add\n      calldatacopy\n        /* \"Verfiy.sol\":7714:7952  function _cdCopy(... */\n      jump\t// out\n    stop\n    data_3b2d02282c3edcbfc4f9664b53f75892ea03b8fe586039e3ee6fe41258ca9b0d 73eda753299d7d483339d80809a1d80553bda402fffe5bfeffffffff00000001\n\n    auxdata: 0xa264697066735822122001362ac6db8acc1f780df57bf8e49c9cc8dbe41fc5cd1f562a5f9d667f22fba364736f6c634300081f0033\n}\n",
				"bytecode": {
					"linkReferences": {},
					"object": "60808060405234601d5760ff195f54165f556115d690816100228239f35b5f80fdfe60806040526004361015610011575f80fd5b5f3560e01c806301f96f4a146100f4578063205c9cc7146100ef5780633d4e635f146100ea5780633f009c16146100e55780634d919405146100e0578063578a34ce146100db5780635cdc73ef146100d65780636592041a146100d15780636f18b669146100cc578063af1d0bd9146100c7578063c1f2c915146100c2578063cac924e7146100bd578063d6385d60146100b85763e1f66c1b146100b3575f80fd5b610b00565b610ae6565b61066f565b610603565b6105a4565b61057e565b610565565b61050c565b610435565b61041b565b6103a8565b610214565b6101f3565b61017d565b9181601f84011215610129578235916001600160401b038311610129576020808501948460051b01011161012957565b5f80fd5b6040600319820112610129576004356001600160401b0381116101295781610157916004016100f9565b92909291602435906001600160401b03821161012957610179916004016100f9565b9091565b34610129575f5160206115815f395f51905f526101d06101be6101de6101a23661012d565b604096929651958694602086019860408a526060870191610ea6565b848103601f1901604086015291610ea6565b03601f1981018352826102bf565b519020066101e857005b5f805460ff19169055005b34610129575f36600319011261012957602060ff5f54166040519015158152f35b34610129576102223661012d565b92909161022d610f2b565b92600182018083116102a65761025061024884928885611059565b929095611019565b935f198101919082116102a65761027e610274610286936102949a61028e97611059565b9790943691610300565b943691610300565b933691610300565b926111d8565b151560ff80195f54169116175f555f80f35b610fb8565b634e487b7160e01b5f52604160045260245ffd5b90601f801991011681019081106001600160401b038211176102e057604052565b6102ab565b6001600160401b0381116102e057601f01601f191660200190565b92919261030c826102e5565b9161031a60405193846102bf565b829481845281830111610129578281602093845f960137010152565b9080601f830112156101295781602061035193359101610300565b90565b602060031982011261012957600435906001600160401b0382116101295761035191600401610336565b602060409281835280519182918282860152018484015e5f828201840152601f01601f1916010190565b34610129576103cd6103c16103bc36610354565b6110f5565b6040519182918261037e565b0390f35b906040600319830112610129576004356001600160401b03811161012957826103fc91600401610336565b91602435906001600160401b0382116101295761035191600401610336565b34610129576103cd6103c161042f366103d1565b9061111d565b34610129575f3660031901126101295761048261046e61045361114b565b61047461045e61114b565b604051938493602085019061110b565b9061110b565b0390601f19820181526102bf565b005b906080600319830112610129576004356001600160401b03811161012957826104af91600401610336565b916024356001600160401b03811161012957816104ce91600401610336565b916044356001600160401b03811161012957826104ed91600401610336565b91606435906001600160401b0382116101295761035191600401610336565b34610129575f8061046e61046e6105416101d061052836610484565b919392969060405196879561046e60208801809b61110b565b5190600f5afa506020600161055c6105576110c6565b6111a0565b14604051908152f35b34610129576103cd6103c161057936610354565b6111c2565b3461012957602061059a61059136610484565b929190916111d8565b6040519015158152f35b34610129576040366003190112610129576004356001600160401b03811161012957366023820112156101295780600401356001600160401b038111610129573660248284010111610129576103cd916103c19160248035920161126b565b34610129576040366003190112610129576004356001600160401b038111610129575f61063581923690600401610336565b60243561065d6020604051809361064f838301809761110b565b9081520380845201826102bf565b5190600c5afa506103cd6103c16110c6565b346101295761067d3661012d565b9190926106938361068d846112a4565b14611300565b6106c560405160208101906106af816101d0888a898988611307565b5190205f5160206115815f395f51905f52900690565b936106e260405160208101906106af816101d089878a8a88611337565b916001936106f76106f2826112ba565b61116e565b9361070c6106f26107078961109a565b6112d0565b6107206106f261071b856110a9565b6112ba565b906107306106f26107078b6110b7565b915f965f995b61073f876110a9565b8b11610801578c9061075f60806107578e8b8d611059565b905014611363565b5f5b8b8d608083106107bd575050505f5b8b6020821061079b575050610795915f5160206115815f395f51905f5291099a611355565b99610736565b8b6107b6916107b0849e866001961a926113a8565b53611355565b9a01610770565b9b6107fa916107b082859f8f8f976107de6107f29360019a6107e494611059565b9061139c565b356001600160f81b03191690565b5f1a926113a8565b9a01610761565b508a879495968d6108118c6111c2565b945f958a985f995b61082d610828610828886112e8565b6110a9565b8b11610905578c9061083e876110a9565b8c1480156108fc575b6108e2575f5b8b8d61010083106108ba575050505f5b601f8111156108875750610881915f5160206115815f395f51905f5291099a611355565b99610819565b99915060208a10156108b5576108b06108aa8f938d6107b0828f87901a926113a8565b9a611355565b61085d565b611005565b9b6108db916107b082859f8f8f976107de6107f29360019a6107e494611059565b9a0161084d565b610881915f5160206115815f395f51905f5291099a611355565b50868c14610847565b50869395948c8c6109256109188d6110f5565b6109206113b9565b6114c1565b905f958a985f995b610939610828886110a9565b8b116109cc578c905f5b8b8d608083106109a4575050505f5b601f81111561097c5750610976915f5160206115815f395f51905f5291099a611355565b9961092d565b99915060208a10156108b55761099f6108aa8f938d6107b0828f87901a926113a8565b610952565b9b6109c5916107b082859f8f8f976107de6107f29360019a6107e494611059565b9a01610943565b508a6109eb6109de8b989697986111c2565b6109e6610f2b565b61111d565b945f936001965f975b610a00610828856112e8565b8911610ac2578a90848a148015610ab1575b610a97575f5b898b6101008310610a6f575050505f5b8960208210610a53575050610a4d915f5160206115815f395f51905f52910998611355565b976109f4565b89610a68916107b0849c866001961a926113a8565b9801610a28565b99610a90916107b0826107f26107e4879f978f8f9960019a6107de92611059565b9801610a18565b610a4d915f5160206115815f395f51905f52910998611355565b50610abb85610fcc565b8a14610a12565b6103cd610ad484848d61028e8d6110f5565b60405190151581529081906020820190565b34610129576103cd6103c1610afa366103d1565b906114c1565b3461012957610b0e3661012d565b909291610b1c811515611300565b610b298261068d836112a4565b610b4560405160208101906106af816101d0878a888b88611307565b91610b6260405160208101906106af816101d0868b898c88611337565b94610b6f6106f2846112ba565b60015f86815b878a818510610e3e57505050505050610b8d906111c2565b93610ba56106f2610707610ba0876112e8565b61109a565b935f958892895f985b610bbf610bba866112e8565b6110b7565b8a11610c6d5788908a8989610bd3896110a9565b83148015610c64575b610c435789610c2585610c206001999789610100610c1b610c13610c339b5f5160206115815f395f51905f529e9b610c2e9b611059565b909214611300565b611573565b610ff6565b92830160200152565b610fe8565b96099801985b9897938a90610bae565b505050955f5160206115815f395f51905f5291509160019209980198610c39565b50888314610bdc565b50928587918b610c7f6109188c6110f5565b96610c8d6002841015611300565b610c9c6106f261071b856110a9565b975f958795875b610cac876110a9565b891015610cfd575f5160206115815f395f51905f528a610cf28e610c2e8c610c258f97610ced8f8f6080610ce8610c1360019e87958c95611059565b611567565b610fda565b990998019796610ca3565b508991859187610d0f6109de8f6111c2565b90610d226106f2610707610bba846112e8565b945f966001935f985b610d37610828866112e8565b8a11610dc457888c918b8a8a8983148015610db3575b610d92578a610c2585610c206001999789610100610c1b610c13610d849b5f5160206115815f395f51905f529e9b610c2e9b611059565b97099901995b999894610d2b565b505050965f5160206115815f395f51905f5291509160019209990199610d8a565b50610dbd8a610fcc565b8314610d4d565b508683610e2761028e876102868f61027e8f8e610df8610df3610e329d610e2d9d899761028e610274976110f5565b6114ef565b610e00610f2b565b99610e1f610e17610e1087610fcc565b8385611059565b98909b611019565b9990956110a9565b91611059565b61152b565b60405160018152602090f35b610e6b83610ced5f5160206115815f395f51905f52958a6080610ce8610c138c60019c9a610e799a611059565b878101602001879052610fe8565b9409929101908790610b75565b908060209392818452848401375f828201840152601f01601f1916010190565b90602083828152019060208160051b85010193835f915b838310610ecd5750505050505090565b909192939495601f198282030186528635601e198436030181121561012957830190602082359201916001600160401b03811161012957803603831361012957610f1d6020928392600195610e86565b980196019493019190610ebd565b60405190610f3a60a0836102bf565b608082527ffcf5e095d5d00af600db18cb2c04b3edd03cc744a2888ae40caa232946c5e7e16080836f17f1d3a73197d7942695638c4fa9ac0f60208201527fc3688c4f9774b905a14e3a3f171bac586c55e83ff97a1aeffb3af00adb22c6bb60408201526f08b3f481e3aaa0f1a09e30ed741d8ae460608201520152565b634e487b7160e01b5f52601160045260245ffd5b90600182018092116102a657565b90608082018092116102a657565b90602082018092116102a657565b9061010082018092116102a657565b634e487b7160e01b5f52603260045260245ffd5b90600110156108b557602081013590601e19813603018212156101295701908135916001600160401b038311610129576020018236038113610129579190565b91908110156108b55760051b81013590601e19813603018212156101295701908135916001600160401b038311610129576020018236038113610129579190565b6002198101919082116102a657565b5f198101919082116102a657565b6001198101919082116102a657565b3d156110f0573d906110d7826102e5565b916110e560405193846102bf565b82523d5f602084013e565b606090565b5f8091602081519101600e5afa506103516110c6565b805191908290602001825e015f815290565b5f91906101d061113c849360405192839161046e60208401809761110b565b5190600b5afa506103516110c6565b604051610100919061115d83826102bf565b60c8815291601f1901366020840137565b90611178826102e5565b61118560405191826102bf565b8281528092611196601f19916102e5565b0190602036910137565b6020815191015190602081106111b4575090565b5f199060200360031b1b1690565b5f8091602081519101600c5afa506103516110c6565b9061125361046e916101d05f968780809860405161122d6020826111ff828201809661110b565b7f73eda753299d7d483339d80809a1d80553bda402fffe5bfeffffffff0000000081520380845201826102bf565b5190600c5afa5061046e61123f6110c6565b60405196879561046e60208801809b61110b565b5190600f5afa5060016112676105576110c6565b1490565b5f9261129560208086956040519481869284840198893782019083820152030180845201826102bf565b5190600e5afa506103516110c6565b908160011b91808304600214901517156102a657565b9060a082029180830460a014901517156102a657565b9061012082029180830461012014901517156102a657565b600181901b91906001600160ff1b038116036102a657565b1561012957565b9493925f936113246113329360409560608a5260608a0191610ea6565b918783036020890152610ea6565b930152565b9493926001936113246113329360409560608a5260608a0191610ea6565b5f1981146102a65760010190565b1561136a57565b60405162461bcd60e51b815260206004820152600a6024820152693130b2102398903632b760b11b6044820152606490fd5b908210156108b5570190565b9081518110156108b5570160200190565b604051906113c9610120836102bf565b61010082527fcb3e287e85a763af267492ab572e99ab3f370d275cec1da1aaa9075ff05f79be610100836f024aa2b2f08f0a91260805272dc5105160208201527fc6e47ad4fa403b02b4510b647ae3d1770bac0326a805bbefd48056c8c121bdb860408201526f13e02b6052719f607dacd3a088274f6560608201527f596bd0d09920b61ab5da61bbdc7f5049334cf11213945d57e5ac7d055d042b7e60808201526f0ce5d527727d6e118cc9cdc6da2e351a60a08201527fadfd9baa8cbdd3a76d429a695160d12c923ac9cc3baca289e193548608b8280160c08201526f0606c4a02ea734cc32acd2b02bc28b9960e08201520152565b5f91906101d06114e0849360405192839161046e60208401809761110b565b5190600d5afa506103516110c6565b156114f657565b60405162461bcd60e51b815260206004820152600d60248201526c10da1958dacc8811985a5b1959609a1b6044820152606490fd5b1561153257565b60405162461bcd60e51b815260206004820152600d60248201526c10da1958daccc811985a5b1959609a1b6044820152606490fd5b90608092602091010137565b906101009260209101013756fe73eda753299d7d483339d80809a1d80553bda402fffe5bfeffffffff00000001a264697066735822122001362ac6db8acc1f780df57bf8e49c9cc8dbe41fc5cd1f562a5f9d667f22fba364736f6c634300081f0033",
					"opcodes": "PUSH1 0x80 DUP1 PUSH1 0x40 MSTORE CALLVALUE PUSH1 0x1D JUMPI PUSH1 0xFF NOT PUSH0 SLOAD AND PUSH0 SSTORE PUSH2 0x15D6 SWAP1 DUP2 PUSH2 0x22 DUP3 CODECOPY RETURN JUMPDEST PUSH0 DUP1 REVERT INVALID PUSH1 0x80 PUSH1 0x40 MSTORE PUSH1 0x4 CALLDATASIZE LT ISZERO PUSH2 0x11 JUMPI PUSH0 DUP1 REVERT JUMPDEST PUSH0 CALLDATALOAD PUSH1 0xE0 SHR DUP1 PUSH4 0x1F96F4A EQ PUSH2 0xF4 JUMPI DUP1 PUSH4 0x205C9CC7 EQ PUSH2 0xEF JUMPI DUP1 PUSH4 0x3D4E635F EQ PUSH2 0xEA JUMPI DUP1 PUSH4 0x3F009C16 EQ PUSH2 0xE5 JUMPI DUP1 PUSH4 0x4D919405 EQ PUSH2 0xE0 JUMPI DUP1 PUSH4 0x578A34CE EQ PUSH2 0xDB JUMPI DUP1 PUSH4 0x5CDC73EF EQ PUSH2 0xD6 JUMPI DUP1 PUSH4 0x6592041A EQ PUSH2 0xD1 JUMPI DUP1 PUSH4 0x6F18B669 EQ PUSH2 0xCC JUMPI DUP1 PUSH4 0xAF1D0BD9 EQ PUSH2 0xC7 JUMPI DUP1 PUSH4 0xC1F2C915 EQ PUSH2 0xC2 JUMPI DUP1 PUSH4 0xCAC924E7 EQ PUSH2 0xBD JUMPI DUP1 PUSH4 0xD6385D60 EQ PUSH2 0xB8 JUMPI PUSH4 0xE1F66C1B EQ PUSH2 0xB3 JUMPI PUSH0 DUP1 REVERT JUMPDEST PUSH2 0xB00 JUMP JUMPDEST PUSH2 0xAE6 JUMP JUMPDEST PUSH2 0x66F JUMP JUMPDEST PUSH2 0x603 JUMP JUMPDEST PUSH2 0x5A4 JUMP JUMPDEST PUSH2 0x57E JUMP JUMPDEST PUSH2 0x565 JUMP JUMPDEST PUSH2 0x50C JUMP JUMPDEST PUSH2 0x435 JUMP JUMPDEST PUSH2 0x41B JUMP JUMPDEST PUSH2 0x3A8 JUMP JUMPDEST PUSH2 0x214 JUMP JUMPDEST PUSH2 0x1F3 JUMP JUMPDEST PUSH2 0x17D JUMP JUMPDEST SWAP2 DUP2 PUSH1 0x1F DUP5 ADD SLT ISZERO PUSH2 0x129 JUMPI DUP3 CALLDATALOAD SWAP2 PUSH1 0x1 PUSH1 0x1 PUSH1 0x40 SHL SUB DUP4 GT PUSH2 0x129 JUMPI PUSH1 0x20 DUP1 DUP6 ADD SWAP5 DUP5 PUSH1 0x5 SHL ADD ADD GT PUSH2 0x129 JUMPI JUMP JUMPDEST PUSH0 DUP1 REVERT JUMPDEST PUSH1 0x40 PUSH1 0x3 NOT DUP3 ADD SLT PUSH2 0x129 JUMPI PUSH1 0x4 CALLDATALOAD PUSH1 0x1 PUSH1 0x1 PUSH1 0x40 SHL SUB DUP2 GT PUSH2 0x129 JUMPI DUP2 PUSH2 0x157 SWAP2 PUSH1 0x4 ADD PUSH2 0xF9 JUMP JUMPDEST SWAP3 SWAP1 SWAP3 SWAP2 PUSH1 0x24 CALLDATALOAD SWAP1 PUSH1 0x1 PUSH1 0x1 PUSH1 0x40 SHL SUB DUP3 GT PUSH2 0x129 JUMPI PUSH2 0x179 SWAP2 PUSH1 0x4 ADD PUSH2 0xF9 JUMP JUMPDEST SWAP1 SWAP2 JUMP JUMPDEST CALLVALUE PUSH2 0x129 JUMPI PUSH0 MLOAD PUSH1 0x20 PUSH2 0x1581 PUSH0 CODECOPY PUSH0 MLOAD SWAP1 PUSH0 MSTORE PUSH2 0x1D0 PUSH2 0x1BE PUSH2 0x1DE PUSH2 0x1A2 CALLDATASIZE PUSH2 0x12D JUMP JUMPDEST PUSH1 0x40 SWAP7 SWAP3 SWAP7 MLOAD SWAP6 DUP7 SWAP5 PUSH1 0x20 DUP7 ADD SWAP9 PUSH1 0x40 DUP11 MSTORE PUSH1 0x60 DUP8 ADD SWAP2 PUSH2 0xEA6 JUMP JUMPDEST DUP5 DUP2 SUB PUSH1 0x1F NOT ADD PUSH1 0x40 DUP7 ADD MSTORE SWAP2 PUSH2 0xEA6 JUMP JUMPDEST SUB PUSH1 0x1F NOT DUP2 ADD DUP4 MSTORE DUP3 PUSH2 0x2BF JUMP JUMPDEST MLOAD SWAP1 KECCAK256 MOD PUSH2 0x1E8 JUMPI STOP JUMPDEST PUSH0 DUP1 SLOAD PUSH1 0xFF NOT AND SWAP1 SSTORE STOP JUMPDEST CALLVALUE PUSH2 0x129 JUMPI PUSH0 CALLDATASIZE PUSH1 0x3 NOT ADD SLT PUSH2 0x129 JUMPI PUSH1 0x20 PUSH1 0xFF PUSH0 SLOAD AND PUSH1 0x40 MLOAD SWAP1 ISZERO ISZERO DUP2 MSTORE RETURN JUMPDEST CALLVALUE PUSH2 0x129 JUMPI PUSH2 0x222 CALLDATASIZE PUSH2 0x12D JUMP JUMPDEST SWAP3 SWAP1 SWAP2 PUSH2 0x22D PUSH2 0xF2B JUMP JUMPDEST SWAP3 PUSH1 0x1 DUP3 ADD DUP1 DUP4 GT PUSH2 0x2A6 JUMPI PUSH2 0x250 PUSH2 0x248 DUP5 SWAP3 DUP9 DUP6 PUSH2 0x1059 JUMP JUMPDEST SWAP3 SWAP1 SWAP6 PUSH2 0x1019 JUMP JUMPDEST SWAP4 PUSH0 NOT DUP2 ADD SWAP2 SWAP1 DUP3 GT PUSH2 0x2A6 JUMPI PUSH2 0x27E PUSH2 0x274 PUSH2 0x286 SWAP4 PUSH2 0x294 SWAP11 PUSH2 0x28E SWAP8 PUSH2 0x1059 JUMP JUMPDEST SWAP8 SWAP1 SWAP5 CALLDATASIZE SWAP2 PUSH2 0x300 JUMP JUMPDEST SWAP5 CALLDATASIZE SWAP2 PUSH2 0x300 JUMP JUMPDEST SWAP4 CALLDATASIZE SWAP2 PUSH2 0x300 JUMP JUMPDEST SWAP3 PUSH2 0x11D8 JUMP JUMPDEST ISZERO ISZERO PUSH1 0xFF DUP1 NOT PUSH0 SLOAD AND SWAP2 AND OR PUSH0 SSTORE PUSH0 DUP1 RETURN JUMPDEST PUSH2 0xFB8 JUMP JUMPDEST PUSH4 0x4E487B71 PUSH1 0xE0 SHL PUSH0 MSTORE PUSH1 0x41 PUSH1 0x4 MSTORE PUSH1 0x24 PUSH0 REVERT JUMPDEST SWAP1 PUSH1 0x1F DUP1 NOT SWAP2 ADD AND DUP2 ADD SWAP1 DUP2 LT PUSH1 0x1 PUSH1 0x1 PUSH1 0x40 SHL SUB DUP3 GT OR PUSH2 0x2E0 JUMPI PUSH1 0x40 MSTORE JUMP JUMPDEST PUSH2 0x2AB JUMP JUMPDEST PUSH1 0x1 PUSH1 0x1 PUSH1 0x40 SHL SUB DUP2 GT PUSH2 0x2E0 JUMPI PUSH1 0x1F ADD PUSH1 0x1F NOT AND PUSH1 0x20 ADD SWAP1 JUMP JUMPDEST SWAP3 SWAP2 SWAP3 PUSH2 0x30C DUP3 PUSH2 0x2E5 JUMP JUMPDEST SWAP2 PUSH2 0x31A PUSH1 0x40 MLOAD SWAP4 DUP5 PUSH2 0x2BF JUMP JUMPDEST DUP3 SWAP5 DUP2 DUP5 MSTORE DUP2 DUP4 ADD GT PUSH2 0x129 JUMPI DUP3 DUP2 PUSH1 0x20 SWAP4 DUP5 PUSH0 SWAP7 ADD CALLDATACOPY ADD ADD MSTORE JUMP JUMPDEST SWAP1 DUP1 PUSH1 0x1F DUP4 ADD SLT ISZERO PUSH2 0x129 JUMPI DUP2 PUSH1 0x20 PUSH2 0x351 SWAP4 CALLDATALOAD SWAP2 ADD PUSH2 0x300 JUMP JUMPDEST SWAP1 JUMP JUMPDEST PUSH1 0x20 PUSH1 0x3 NOT DUP3 ADD SLT PUSH2 0x129 JUMPI PUSH1 0x4 CALLDATALOAD SWAP1 PUSH1 0x1 PUSH1 0x1 PUSH1 0x40 SHL SUB DUP3 GT PUSH2 0x129 JUMPI PUSH2 0x351 SWAP2 PUSH1 0x4 ADD PUSH2 0x336 JUMP JUMPDEST PUSH1 0x20 PUSH1 0x40 SWAP3 DUP2 DUP4 MSTORE DUP1 MLOAD SWAP2 DUP3 SWAP2 DUP3 DUP3 DUP7 ADD MSTORE ADD DUP5 DUP5 ADD MCOPY PUSH0 DUP3 DUP3 ADD DUP5 ADD MSTORE PUSH1 0x1F ADD PUSH1 0x1F NOT AND ADD ADD SWAP1 JUMP JUMPDEST CALLVALUE PUSH2 0x129 JUMPI PUSH2 0x3CD PUSH2 0x3C1 PUSH2 0x3BC CALLDATASIZE PUSH2 0x354 JUMP JUMPDEST PUSH2 0x10F5 JUMP JUMPDEST PUSH1 0x40 MLOAD SWAP2 DUP3 SWAP2 DUP3 PUSH2 0x37E JUMP JUMPDEST SUB SWAP1 RETURN JUMPDEST SWAP1 PUSH1 0x40 PUSH1 0x3 NOT DUP4 ADD SLT PUSH2 0x129 JUMPI PUSH1 0x4 CALLDATALOAD PUSH1 0x1 PUSH1 0x1 PUSH1 0x40 SHL SUB DUP2 GT PUSH2 0x129 JUMPI DUP3 PUSH2 0x3FC SWAP2 PUSH1 0x4 ADD PUSH2 0x336 JUMP JUMPDEST SWAP2 PUSH1 0x24 CALLDATALOAD SWAP1 PUSH1 0x1 PUSH1 0x1 PUSH1 0x40 SHL SUB DUP3 GT PUSH2 0x129 JUMPI PUSH2 0x351 SWAP2 PUSH1 0x4 ADD PUSH2 0x336 JUMP JUMPDEST CALLVALUE PUSH2 0x129 JUMPI PUSH2 0x3CD PUSH2 0x3C1 PUSH2 0x42F CALLDATASIZE PUSH2 0x3D1 JUMP JUMPDEST SWAP1 PUSH2 0x111D JUMP JUMPDEST CALLVALUE PUSH2 0x129 JUMPI PUSH0 CALLDATASIZE PUSH1 0x3 NOT ADD SLT PUSH2 0x129 JUMPI PUSH2 0x482 PUSH2 0x46E PUSH2 0x453 PUSH2 0x114B JUMP JUMPDEST PUSH2 0x474 PUSH2 0x45E PUSH2 0x114B JUMP JUMPDEST PUSH1 0x40 MLOAD SWAP4 DUP5 SWAP4 PUSH1 0x20 DUP6 ADD SWAP1 PUSH2 0x110B JUMP JUMPDEST SWAP1 PUSH2 0x110B JUMP JUMPDEST SUB SWAP1 PUSH1 0x1F NOT DUP3 ADD DUP2 MSTORE PUSH2 0x2BF JUMP JUMPDEST STOP JUMPDEST SWAP1 PUSH1 0x80 PUSH1 0x3 NOT DUP4 ADD SLT PUSH2 0x129 JUMPI PUSH1 0x4 CALLDATALOAD PUSH1 0x1 PUSH1 0x1 PUSH1 0x40 SHL SUB DUP2 GT PUSH2 0x129 JUMPI DUP3 PUSH2 0x4AF SWAP2 PUSH1 0x4 ADD PUSH2 0x336 JUMP JUMPDEST SWAP2 PUSH1 0x24 CALLDATALOAD PUSH1 0x1 PUSH1 0x1 PUSH1 0x40 SHL SUB DUP2 GT PUSH2 0x129 JUMPI DUP2 PUSH2 0x4CE SWAP2 PUSH1 0x4 ADD PUSH2 0x336 JUMP JUMPDEST SWAP2 PUSH1 0x44 CALLDATALOAD PUSH1 0x1 PUSH1 0x1 PUSH1 0x40 SHL SUB DUP2 GT PUSH2 0x129 JUMPI DUP3 PUSH2 0x4ED SWAP2 PUSH1 0x4 ADD PUSH2 0x336 JUMP JUMPDEST SWAP2 PUSH1 0x64 CALLDATALOAD SWAP1 PUSH1 0x1 PUSH1 0x1 PUSH1 0x40 SHL SUB DUP3 GT PUSH2 0x129 JUMPI PUSH2 0x351 SWAP2 PUSH1 0x4 ADD PUSH2 0x336 JUMP JUMPDEST CALLVALUE PUSH2 0x129 JUMPI PUSH0 DUP1 PUSH2 0x46E PUSH2 0x46E PUSH2 0x541 PUSH2 0x1D0 PUSH2 0x528 CALLDATASIZE PUSH2 0x484 JUMP JUMPDEST SWAP2 SWAP4 SWAP3 SWAP7 SWAP1 PUSH1 0x40 MLOAD SWAP7 DUP8 SWAP6 PUSH2 0x46E PUSH1 0x20 DUP9 ADD DUP1 SWAP12 PUSH2 0x110B JUMP JUMPDEST MLOAD SWAP1 PUSH1 0xF GAS STATICCALL POP PUSH1 0x20 PUSH1 0x1 PUSH2 0x55C PUSH2 0x557 PUSH2 0x10C6 JUMP JUMPDEST PUSH2 0x11A0 JUMP JUMPDEST EQ PUSH1 0x40 MLOAD SWAP1 DUP2 MSTORE RETURN JUMPDEST CALLVALUE PUSH2 0x129 JUMPI PUSH2 0x3CD PUSH2 0x3C1 PUSH2 0x579 CALLDATASIZE PUSH2 0x354 JUMP JUMPDEST PUSH2 0x11C2 JUMP JUMPDEST CALLVALUE PUSH2 0x129 JUMPI PUSH1 0x20 PUSH2 0x59A PUSH2 0x591 CALLDATASIZE PUSH2 0x484 JUMP JUMPDEST SWAP3 SWAP2 SWAP1 SWAP2 PUSH2 0x11D8 JUMP JUMPDEST PUSH1 0x40 MLOAD SWAP1 ISZERO ISZERO DUP2 MSTORE RETURN JUMPDEST CALLVALUE PUSH2 0x129 JUMPI PUSH1 0x40 CALLDATASIZE PUSH1 0x3 NOT ADD SLT PUSH2 0x129 JUMPI PUSH1 0x4 CALLDATALOAD PUSH1 0x1 PUSH1 0x1 PUSH1 0x40 SHL SUB DUP2 GT PUSH2 0x129 JUMPI CALLDATASIZE PUSH1 0x23 DUP3 ADD SLT ISZERO PUSH2 0x129 JUMPI DUP1 PUSH1 0x4 ADD CALLDATALOAD PUSH1 0x1 PUSH1 0x1 PUSH1 0x40 SHL SUB DUP2 GT PUSH2 0x129 JUMPI CALLDATASIZE PUSH1 0x24 DUP3 DUP5 ADD ADD GT PUSH2 0x129 JUMPI PUSH2 0x3CD SWAP2 PUSH2 0x3C1 SWAP2 PUSH1 0x24 DUP1 CALLDATALOAD SWAP3 ADD PUSH2 0x126B JUMP JUMPDEST CALLVALUE PUSH2 0x129 JUMPI PUSH1 0x40 CALLDATASIZE PUSH1 0x3 NOT ADD SLT PUSH2 0x129 JUMPI PUSH1 0x4 CALLDATALOAD PUSH1 0x1 PUSH1 0x1 PUSH1 0x40 SHL SUB DUP2 GT PUSH2 0x129 JUMPI PUSH0 PUSH2 0x635 DUP2 SWAP3 CALLDATASIZE SWAP1 PUSH1 0x4 ADD PUSH2 0x336 JUMP JUMPDEST PUSH1 0x24 CALLDATALOAD PUSH2 0x65D PUSH1 0x20 PUSH1 0x40 MLOAD DUP1 SWAP4 PUSH2 0x64F DUP4 DUP4 ADD DUP1 SWAP8 PUSH2 0x110B JUMP JUMPDEST SWAP1 DUP2 MSTORE SUB DUP1 DUP5 MSTORE ADD DUP3 PUSH2 0x2BF JUMP JUMPDEST MLOAD SWAP1 PUSH1 0xC GAS STATICCALL POP PUSH2 0x3CD PUSH2 0x3C1 PUSH2 0x10C6 JUMP JUMPDEST CALLVALUE PUSH2 0x129 JUMPI PUSH2 0x67D CALLDATASIZE PUSH2 0x12D JUMP JUMPDEST SWAP2 SWAP1 SWAP3 PUSH2 0x693 DUP4 PUSH2 0x68D DUP5 PUSH2 0x12A4 JUMP JUMPDEST EQ PUSH2 0x1300 JUMP JUMPDEST PUSH2 0x6C5 PUSH1 0x40 MLOAD PUSH1 0x20 DUP2 ADD SWAP1 PUSH2 0x6AF DUP2 PUSH2 0x1D0 DUP9 DUP11 DUP10 DUP10 DUP9 PUSH2 0x1307 JUMP JUMPDEST MLOAD SWAP1 KECCAK256 PUSH0 MLOAD PUSH1 0x20 PUSH2 0x1581 PUSH0 CODECOPY PUSH0 MLOAD SWAP1 PUSH0 MSTORE SWAP1 MOD SWAP1 JUMP JUMPDEST SWAP4 PUSH2 0x6E2 PUSH1 0x40 MLOAD PUSH1 0x20 DUP2 ADD SWAP1 PUSH2 0x6AF DUP2 PUSH2 0x1D0 DUP10 DUP8 DUP11 DUP11 DUP9 PUSH2 0x1337 JUMP JUMPDEST SWAP2 PUSH1 0x1 SWAP4 PUSH2 0x6F7 PUSH2 0x6F2 DUP3 PUSH2 0x12BA JUMP JUMPDEST PUSH2 0x116E JUMP JUMPDEST SWAP4 PUSH2 0x70C PUSH2 0x6F2 PUSH2 0x707 DUP10 PUSH2 0x109A JUMP JUMPDEST PUSH2 0x12D0 JUMP JUMPDEST PUSH2 0x720 PUSH2 0x6F2 PUSH2 0x71B DUP6 PUSH2 0x10A9 JUMP JUMPDEST PUSH2 0x12BA JUMP JUMPDEST SWAP1 PUSH2 0x730 PUSH2 0x6F2 PUSH2 0x707 DUP12 PUSH2 0x10B7 JUMP JUMPDEST SWAP2 PUSH0 SWAP7 PUSH0 SWAP10 JUMPDEST PUSH2 0x73F DUP8 PUSH2 0x10A9 JUMP JUMPDEST DUP12 GT PUSH2 0x801 JUMPI DUP13 SWAP1 PUSH2 0x75F PUSH1 0x80 PUSH2 0x757 DUP15 DUP12 DUP14 PUSH2 0x1059 JUMP JUMPDEST SWAP1 POP EQ PUSH2 0x1363 JUMP JUMPDEST PUSH0 JUMPDEST DUP12 DUP14 PUSH1 0x80 DUP4 LT PUSH2 0x7BD JUMPI POP POP POP PUSH0 JUMPDEST DUP12 PUSH1 0x20 DUP3 LT PUSH2 0x79B JUMPI POP POP PUSH2 0x795 SWAP2 PUSH0 MLOAD PUSH1 0x20 PUSH2 0x1581 PUSH0 CODECOPY PUSH0 MLOAD SWAP1 PUSH0 MSTORE SWAP2 MULMOD SWAP11 PUSH2 0x1355 JUMP JUMPDEST SWAP10 PUSH2 0x736 JUMP JUMPDEST DUP12 PUSH2 0x7B6 SWAP2 PUSH2 0x7B0 DUP5 SWAP15 DUP7 PUSH1 0x1 SWAP7 BYTE SWAP3 PUSH2 0x13A8 JUMP JUMPDEST MSTORE8 PUSH2 0x1355 JUMP JUMPDEST SWAP11 ADD PUSH2 0x770 JUMP JUMPDEST SWAP12 PUSH2 0x7FA SWAP2 PUSH2 0x7B0 DUP3 DUP6 SWAP16 DUP16 DUP16 SWAP8 PUSH2 0x7DE PUSH2 0x7F2 SWAP4 PUSH1 0x1 SWAP11 PUSH2 0x7E4 SWAP5 PUSH2 0x1059 JUMP JUMPDEST SWAP1 PUSH2 0x139C JUMP JUMPDEST CALLDATALOAD PUSH1 0x1 PUSH1 0x1 PUSH1 0xF8 SHL SUB NOT AND SWAP1 JUMP JUMPDEST PUSH0 BYTE SWAP3 PUSH2 0x13A8 JUMP JUMPDEST SWAP11 ADD PUSH2 0x761 JUMP JUMPDEST POP DUP11 DUP8 SWAP5 SWAP6 SWAP7 DUP14 PUSH2 0x811 DUP13 PUSH2 0x11C2 JUMP JUMPDEST SWAP5 PUSH0 SWAP6 DUP11 SWAP9 PUSH0 SWAP10 JUMPDEST PUSH2 0x82D PUSH2 0x828 PUSH2 0x828 DUP9 PUSH2 0x12E8 JUMP JUMPDEST PUSH2 0x10A9 JUMP JUMPDEST DUP12 GT PUSH2 0x905 JUMPI DUP13 SWAP1 PUSH2 0x83E DUP8 PUSH2 0x10A9 JUMP JUMPDEST DUP13 EQ DUP1 ISZERO PUSH2 0x8FC JUMPI JUMPDEST PUSH2 0x8E2 JUMPI PUSH0 JUMPDEST DUP12 DUP14 PUSH2 0x100 DUP4 LT PUSH2 0x8BA JUMPI POP POP POP PUSH0 JUMPDEST PUSH1 0x1F DUP2 GT ISZERO PUSH2 0x887 JUMPI POP PUSH2 0x881 SWAP2 PUSH0 MLOAD PUSH1 0x20 PUSH2 0x1581 PUSH0 CODECOPY PUSH0 MLOAD SWAP1 PUSH0 MSTORE SWAP2 MULMOD SWAP11 PUSH2 0x1355 JUMP JUMPDEST SWAP10 PUSH2 0x819 JUMP JUMPDEST SWAP10 SWAP2 POP PUSH1 0x20 DUP11 LT ISZERO PUSH2 0x8B5 JUMPI PUSH2 0x8B0 PUSH2 0x8AA DUP16 SWAP4 DUP14 PUSH2 0x7B0 DUP3 DUP16 DUP8 SWAP1 BYTE SWAP3 PUSH2 0x13A8 JUMP JUMPDEST SWAP11 PUSH2 0x1355 JUMP JUMPDEST PUSH2 0x85D JUMP JUMPDEST PUSH2 0x1005 JUMP JUMPDEST SWAP12 PUSH2 0x8DB SWAP2 PUSH2 0x7B0 DUP3 DUP6 SWAP16 DUP16 DUP16 SWAP8 PUSH2 0x7DE PUSH2 0x7F2 SWAP4 PUSH1 0x1 SWAP11 PUSH2 0x7E4 SWAP5 PUSH2 0x1059 JUMP JUMPDEST SWAP11 ADD PUSH2 0x84D JUMP JUMPDEST PUSH2 0x881 SWAP2 PUSH0 MLOAD PUSH1 0x20 PUSH2 0x1581 PUSH0 CODECOPY PUSH0 MLOAD SWAP1 PUSH0 MSTORE SWAP2 MULMOD SWAP11 PUSH2 0x1355 JUMP JUMPDEST POP DUP7 DUP13 EQ PUSH2 0x847 JUMP JUMPDEST POP DUP7 SWAP4 SWAP6 SWAP5 DUP13 DUP13 PUSH2 0x925 PUSH2 0x918 DUP14 PUSH2 0x10F5 JUMP JUMPDEST PUSH2 0x920 PUSH2 0x13B9 JUMP JUMPDEST PUSH2 0x14C1 JUMP JUMPDEST SWAP1 PUSH0 SWAP6 DUP11 SWAP9 PUSH0 SWAP10 JUMPDEST PUSH2 0x939 PUSH2 0x828 DUP9 PUSH2 0x10A9 JUMP JUMPDEST DUP12 GT PUSH2 0x9CC JUMPI DUP13 SWAP1 PUSH0 JUMPDEST DUP12 DUP14 PUSH1 0x80 DUP4 LT PUSH2 0x9A4 JUMPI POP POP POP PUSH0 JUMPDEST PUSH1 0x1F DUP2 GT ISZERO PUSH2 0x97C JUMPI POP PUSH2 0x976 SWAP2 PUSH0 MLOAD PUSH1 0x20 PUSH2 0x1581 PUSH0 CODECOPY PUSH0 MLOAD SWAP1 PUSH0 MSTORE SWAP2 MULMOD SWAP11 PUSH2 0x1355 JUMP JUMPDEST SWAP10 PUSH2 0x92D JUMP JUMPDEST SWAP10 SWAP2 POP PUSH1 0x20 DUP11 LT ISZERO PUSH2 0x8B5 JUMPI PUSH2 0x99F PUSH2 0x8AA DUP16 SWAP4 DUP14 PUSH2 0x7B0 DUP3 DUP16 DUP8 SWAP1 BYTE SWAP3 PUSH2 0x13A8 JUMP JUMPDEST PUSH2 0x952 JUMP JUMPDEST SWAP12 PUSH2 0x9C5 SWAP2 PUSH2 0x7B0 DUP3 DUP6 SWAP16 DUP16 DUP16 SWAP8 PUSH2 0x7DE PUSH2 0x7F2 SWAP4 PUSH1 0x1 SWAP11 PUSH2 0x7E4 SWAP5 PUSH2 0x1059 JUMP JUMPDEST SWAP11 ADD PUSH2 0x943 JUMP JUMPDEST POP DUP11 PUSH2 0x9EB PUSH2 0x9DE DUP12 SWAP9 SWAP7 SWAP8 SWAP9 PUSH2 0x11C2 JUMP JUMPDEST PUSH2 0x9E6 PUSH2 0xF2B JUMP JUMPDEST PUSH2 0x111D JUMP JUMPDEST SWAP5 PUSH0 SWAP4 PUSH1 0x1 SWAP7 PUSH0 SWAP8 JUMPDEST PUSH2 0xA00 PUSH2 0x828 DUP6 PUSH2 0x12E8 JUMP JUMPDEST DUP10 GT PUSH2 0xAC2 JUMPI DUP11 SWAP1 DUP5 DUP11 EQ DUP1 ISZERO PUSH2 0xAB1 JUMPI JUMPDEST PUSH2 0xA97 JUMPI PUSH0 JUMPDEST DUP10 DUP12 PUSH2 0x100 DUP4 LT PUSH2 0xA6F JUMPI POP POP POP PUSH0 JUMPDEST DUP10 PUSH1 0x20 DUP3 LT PUSH2 0xA53 JUMPI POP POP PUSH2 0xA4D SWAP2 PUSH0 MLOAD PUSH1 0x20 PUSH2 0x1581 PUSH0 CODECOPY PUSH0 MLOAD SWAP1 PUSH0 MSTORE SWAP2 MULMOD SWAP9 PUSH2 0x1355 JUMP JUMPDEST SWAP8 PUSH2 0x9F4 JUMP JUMPDEST DUP10 PUSH2 0xA68 SWAP2 PUSH2 0x7B0 DUP5 SWAP13 DUP7 PUSH1 0x1 SWAP7 BYTE SWAP3 PUSH2 0x13A8 JUMP JUMPDEST SWAP9 ADD PUSH2 0xA28 JUMP JUMPDEST SWAP10 PUSH2 0xA90 SWAP2 PUSH2 0x7B0 DUP3 PUSH2 0x7F2 PUSH2 0x7E4 DUP8 SWAP16 SWAP8 DUP16 DUP16 SWAP10 PUSH1 0x1 SWAP11 PUSH2 0x7DE SWAP3 PUSH2 0x1059 JUMP JUMPDEST SWAP9 ADD PUSH2 0xA18 JUMP JUMPDEST PUSH2 0xA4D SWAP2 PUSH0 MLOAD PUSH1 0x20 PUSH2 0x1581 PUSH0 CODECOPY PUSH0 MLOAD SWAP1 PUSH0 MSTORE SWAP2 MULMOD SWAP9 PUSH2 0x1355 JUMP JUMPDEST POP PUSH2 0xABB DUP6 PUSH2 0xFCC JUMP JUMPDEST DUP11 EQ PUSH2 0xA12 JUMP JUMPDEST PUSH2 0x3CD PUSH2 0xAD4 DUP5 DUP5 DUP14 PUSH2 0x28E DUP14 PUSH2 0x10F5 JUMP JUMPDEST PUSH1 0x40 MLOAD SWAP1 ISZERO ISZERO DUP2 MSTORE SWAP1 DUP2 SWAP1 PUSH1 0x20 DUP3 ADD SWAP1 JUMP JUMPDEST CALLVALUE PUSH2 0x129 JUMPI PUSH2 0x3CD PUSH2 0x3C1 PUSH2 0xAFA CALLDATASIZE PUSH2 0x3D1 JUMP JUMPDEST SWAP1 PUSH2 0x14C1 JUMP JUMPDEST CALLVALUE PUSH2 0x129 JUMPI PUSH2 0xB0E CALLDATASIZE PUSH2 0x12D JUMP JUMPDEST SWAP1 SWAP3 SWAP2 PUSH2 0xB1C DUP2 ISZERO ISZERO PUSH2 0x1300 JUMP JUMPDEST PUSH2 0xB29 DUP3 PUSH2 0x68D DUP4 PUSH2 0x12A4 JUMP JUMPDEST PUSH2 0xB45 PUSH1 0x40 MLOAD PUSH1 0x20 DUP2 ADD SWAP1 PUSH2 0x6AF DUP2 PUSH2 0x1D0 DUP8 DUP11 DUP9 DUP12 DUP9 PUSH2 0x1307 JUMP JUMPDEST SWAP2 PUSH2 0xB62 PUSH1 0x40 MLOAD PUSH1 0x20 DUP2 ADD SWAP1 PUSH2 0x6AF DUP2 PUSH2 0x1D0 DUP7 DUP12 DUP10 DUP13 DUP9 PUSH2 0x1337 JUMP JUMPDEST SWAP5 PUSH2 0xB6F PUSH2 0x6F2 DUP5 PUSH2 0x12BA JUMP JUMPDEST PUSH1 0x1 PUSH0 DUP7 DUP2 JUMPDEST DUP8 DUP11 DUP2 DUP6 LT PUSH2 0xE3E JUMPI POP POP POP POP POP POP PUSH2 0xB8D SWAP1 PUSH2 0x11C2 JUMP JUMPDEST SWAP4 PUSH2 0xBA5 PUSH2 0x6F2 PUSH2 0x707 PUSH2 0xBA0 DUP8 PUSH2 0x12E8 JUMP JUMPDEST PUSH2 0x109A JUMP JUMPDEST SWAP4 PUSH0 SWAP6 DUP9 SWAP3 DUP10 PUSH0 SWAP9 JUMPDEST PUSH2 0xBBF PUSH2 0xBBA DUP7 PUSH2 0x12E8 JUMP JUMPDEST PUSH2 0x10B7 JUMP JUMPDEST DUP11 GT PUSH2 0xC6D JUMPI DUP9 SWAP1 DUP11 DUP10 DUP10 PUSH2 0xBD3 DUP10 PUSH2 0x10A9 JUMP JUMPDEST DUP4 EQ DUP1 ISZERO PUSH2 0xC64 JUMPI JUMPDEST PUSH2 0xC43 JUMPI DUP10 PUSH2 0xC25 DUP6 PUSH2 0xC20 PUSH1 0x1 SWAP10 SWAP8 DUP10 PUSH2 0x100 PUSH2 0xC1B PUSH2 0xC13 PUSH2 0xC33 SWAP12 PUSH0 MLOAD PUSH1 0x20 PUSH2 0x1581 PUSH0 CODECOPY PUSH0 MLOAD SWAP1 PUSH0 MSTORE SWAP15 SWAP12 PUSH2 0xC2E SWAP12 PUSH2 0x1059 JUMP JUMPDEST SWAP1 SWAP3 EQ PUSH2 0x1300 JUMP JUMPDEST PUSH2 0x1573 JUMP JUMPDEST PUSH2 0xFF6 JUMP JUMPDEST SWAP3 DUP4 ADD PUSH1 0x20 ADD MSTORE JUMP JUMPDEST PUSH2 0xFE8 JUMP JUMPDEST SWAP7 MULMOD SWAP9 ADD SWAP9 JUMPDEST SWAP9 SWAP8 SWAP4 DUP11 SWAP1 PUSH2 0xBAE JUMP JUMPDEST POP POP POP SWAP6 PUSH0 MLOAD PUSH1 0x20 PUSH2 0x1581 PUSH0 CODECOPY PUSH0 MLOAD SWAP1 PUSH0 MSTORE SWAP2 POP SWAP2 PUSH1 0x1 SWAP3 MULMOD SWAP9 ADD SWAP9 PUSH2 0xC39 JUMP JUMPDEST POP DUP9 DUP4 EQ PUSH2 0xBDC JUMP JUMPDEST POP SWAP3 DUP6 DUP8 SWAP2 DUP12 PUSH2 0xC7F PUSH2 0x918 DUP13 PUSH2 0x10F5 JUMP JUMPDEST SWAP7 PUSH2 0xC8D PUSH1 0x2 DUP5 LT ISZERO PUSH2 0x1300 JUMP JUMPDEST PUSH2 0xC9C PUSH2 0x6F2 PUSH2 0x71B DUP6 PUSH2 0x10A9 JUMP JUMPDEST SWAP8 PUSH0 SWAP6 DUP8 SWAP6 DUP8 JUMPDEST PUSH2 0xCAC DUP8 PUSH2 0x10A9 JUMP JUMPDEST DUP10 LT ISZERO PUSH2 0xCFD JUMPI PUSH0 MLOAD PUSH1 0x20 PUSH2 0x1581 PUSH0 CODECOPY PUSH0 MLOAD SWAP1 PUSH0 MSTORE DUP11 PUSH2 0xCF2 DUP15 PUSH2 0xC2E DUP13 PUSH2 0xC25 DUP16 SWAP8 PUSH2 0xCED DUP16 DUP16 PUSH1 0x80 PUSH2 0xCE8 PUSH2 0xC13 PUSH1 0x1 SWAP15 DUP8 SWAP6 DUP13 SWAP6 PUSH2 0x1059 JUMP JUMPDEST PUSH2 0x1567 JUMP JUMPDEST PUSH2 0xFDA JUMP JUMPDEST SWAP10 MULMOD SWAP9 ADD SWAP8 SWAP7 PUSH2 0xCA3 JUMP JUMPDEST POP DUP10 SWAP2 DUP6 SWAP2 DUP8 PUSH2 0xD0F PUSH2 0x9DE DUP16 PUSH2 0x11C2 JUMP JUMPDEST SWAP1 PUSH2 0xD22 PUSH2 0x6F2 PUSH2 0x707 PUSH2 0xBBA DUP5 PUSH2 0x12E8 JUMP JUMPDEST SWAP5 PUSH0 SWAP7 PUSH1 0x1 SWAP4 PUSH0 SWAP9 JUMPDEST PUSH2 0xD37 PUSH2 0x828 DUP7 PUSH2 0x12E8 JUMP JUMPDEST DUP11 GT PUSH2 0xDC4 JUMPI DUP9 DUP13 SWAP2 DUP12 DUP11 DUP11 DUP10 DUP4 EQ DUP1 ISZERO PUSH2 0xDB3 JUMPI JUMPDEST PUSH2 0xD92 JUMPI DUP11 PUSH2 0xC25 DUP6 PUSH2 0xC20 PUSH1 0x1 SWAP10 SWAP8 DUP10 PUSH2 0x100 PUSH2 0xC1B PUSH2 0xC13 PUSH2 0xD84 SWAP12 PUSH0 MLOAD PUSH1 0x20 PUSH2 0x1581 PUSH0 CODECOPY PUSH0 MLOAD SWAP1 PUSH0 MSTORE SWAP15 SWAP12 PUSH2 0xC2E SWAP12 PUSH2 0x1059 JUMP JUMPDEST SWAP8 MULMOD SWAP10 ADD SWAP10 JUMPDEST SWAP10 SWAP9 SWAP5 PUSH2 0xD2B JUMP JUMPDEST POP POP POP SWAP7 PUSH0 MLOAD PUSH1 0x20 PUSH2 0x1581 PUSH0 CODECOPY PUSH0 MLOAD SWAP1 PUSH0 MSTORE SWAP2 POP SWAP2 PUSH1 0x1 SWAP3 MULMOD SWAP10 ADD SWAP10 PUSH2 0xD8A JUMP JUMPDEST POP PUSH2 0xDBD DUP11 PUSH2 0xFCC JUMP JUMPDEST DUP4 EQ PUSH2 0xD4D JUMP JUMPDEST POP DUP7 DUP4 PUSH2 0xE27 PUSH2 0x28E DUP8 PUSH2 0x286 DUP16 PUSH2 0x27E DUP16 DUP15 PUSH2 0xDF8 PUSH2 0xDF3 PUSH2 0xE32 SWAP14 PUSH2 0xE2D SWAP14 DUP10 SWAP8 PUSH2 0x28E PUSH2 0x274 SWAP8 PUSH2 0x10F5 JUMP JUMPDEST PUSH2 0x14EF JUMP JUMPDEST PUSH2 0xE00 PUSH2 0xF2B JUMP JUMPDEST SWAP10 PUSH2 0xE1F PUSH2 0xE17 PUSH2 0xE10 DUP8 PUSH2 0xFCC JUMP JUMPDEST DUP4 DUP6 PUSH2 0x1059 JUMP JUMPDEST SWAP9 SWAP1 SWAP12 PUSH2 0x1019 JUMP JUMPDEST SWAP10 SWAP1 SWAP6 PUSH2 0x10A9 JUMP JUMPDEST SWAP2 PUSH2 0x1059 JUMP JUMPDEST PUSH2 0x152B JUMP JUMPDEST PUSH1 0x40 MLOAD PUSH1 0x1 DUP2 MSTORE PUSH1 0x20 SWAP1 RETURN JUMPDEST PUSH2 0xE6B DUP4 PUSH2 0xCED PUSH0 MLOAD PUSH1 0x20 PUSH2 0x1581 PUSH0 CODECOPY PUSH0 MLOAD SWAP1 PUSH0 MSTORE SWAP6 DUP11 PUSH1 0x80 PUSH2 0xCE8 PUSH2 0xC13 DUP13 PUSH1 0x1 SWAP13 SWAP11 PUSH2 0xE79 SWAP11 PUSH2 0x1059 JUMP JUMPDEST DUP8 DUP2 ADD PUSH1 0x20 ADD DUP8 SWAP1 MSTORE PUSH2 0xFE8 JUMP JUMPDEST SWAP5 MULMOD SWAP3 SWAP2 ADD SWAP1 DUP8 SWAP1 PUSH2 0xB75 JUMP JUMPDEST SWAP1 DUP1 PUSH1 0x20 SWAP4 SWAP3 DUP2 DUP5 MSTORE DUP5 DUP5 ADD CALLDATACOPY PUSH0 DUP3 DUP3 ADD DUP5 ADD MSTORE PUSH1 0x1F ADD PUSH1 0x1F NOT AND ADD ADD SWAP1 JUMP JUMPDEST SWAP1 PUSH1 0x20 DUP4 DUP3 DUP2 MSTORE ADD SWAP1 PUSH1 0x20 DUP2 PUSH1 0x5 SHL DUP6 ADD ADD SWAP4 DUP4 PUSH0 SWAP2 JUMPDEST DUP4 DUP4 LT PUSH2 0xECD JUMPI POP POP POP POP POP POP SWAP1 JUMP JUMPDEST SWAP1 SWAP2 SWAP3 SWAP4 SWAP5 SWAP6 PUSH1 0x1F NOT DUP3 DUP3 SUB ADD DUP7 MSTORE DUP7 CALLDATALOAD PUSH1 0x1E NOT DUP5 CALLDATASIZE SUB ADD DUP2 SLT ISZERO PUSH2 0x129 JUMPI DUP4 ADD SWAP1 PUSH1 0x20 DUP3 CALLDATALOAD SWAP3 ADD SWAP2 PUSH1 0x1 PUSH1 0x1 PUSH1 0x40 SHL SUB DUP2 GT PUSH2 0x129 JUMPI DUP1 CALLDATASIZE SUB DUP4 SGT PUSH2 0x129 JUMPI PUSH2 0xF1D PUSH1 0x20 SWAP3 DUP4 SWAP3 PUSH1 0x1 SWAP6 PUSH2 0xE86 JUMP JUMPDEST SWAP9 ADD SWAP7 ADD SWAP5 SWAP4 ADD SWAP2 SWAP1 PUSH2 0xEBD JUMP JUMPDEST PUSH1 0x40 MLOAD SWAP1 PUSH2 0xF3A PUSH1 0xA0 DUP4 PUSH2 0x2BF JUMP JUMPDEST PUSH1 0x80 DUP3 MSTORE PUSH32 0xFCF5E095D5D00AF600DB18CB2C04B3EDD03CC744A2888AE40CAA232946C5E7E1 PUSH1 0x80 DUP4 PUSH16 0x17F1D3A73197D7942695638C4FA9AC0F PUSH1 0x20 DUP3 ADD MSTORE PUSH32 0xC3688C4F9774B905A14E3A3F171BAC586C55E83FF97A1AEFFB3AF00ADB22C6BB PUSH1 0x40 DUP3 ADD MSTORE PUSH16 0x8B3F481E3AAA0F1A09E30ED741D8AE4 PUSH1 0x60 DUP3 ADD MSTORE ADD MSTORE JUMP JUMPDEST PUSH4 0x4E487B71 PUSH1 0xE0 SHL PUSH0 MSTORE PUSH1 0x11 PUSH1 0x4 MSTORE PUSH1 0x24 PUSH0 REVERT JUMPDEST SWAP1 PUSH1 0x1 DUP3 ADD DUP1 SWAP3 GT PUSH2 0x2A6 JUMPI JUMP JUMPDEST SWAP1 PUSH1 0x80 DUP3 ADD DUP1 SWAP3 GT PUSH2 0x2A6 JUMPI JUMP JUMPDEST SWAP1 PUSH1 0x20 DUP3 ADD DUP1 SWAP3 GT PUSH2 0x2A6 JUMPI JUMP JUMPDEST SWAP1 PUSH2 0x100 DUP3 ADD DUP1 SWAP3 GT PUSH2 0x2A6 JUMPI JUMP JUMPDEST PUSH4 0x4E487B71 PUSH1 0xE0 SHL PUSH0 MSTORE PUSH1 0x32 PUSH1 0x4 MSTORE PUSH1 0x24 PUSH0 REVERT JUMPDEST SWAP1 PUSH1 0x1 LT ISZERO PUSH2 0x8B5 JUMPI PUSH1 0x20 DUP2 ADD CALLDATALOAD SWAP1 PUSH1 0x1E NOT DUP2 CALLDATASIZE SUB ADD DUP3 SLT ISZERO PUSH2 0x129 JUMPI ADD SWAP1 DUP2 CALLDATALOAD SWAP2 PUSH1 0x1 PUSH1 0x1 PUSH1 0x40 SHL SUB DUP4 GT PUSH2 0x129 JUMPI PUSH1 0x20 ADD DUP3 CALLDATASIZE SUB DUP2 SGT PUSH2 0x129 JUMPI SWAP2 SWAP1 JUMP JUMPDEST SWAP2 SWAP1 DUP2 LT ISZERO PUSH2 0x8B5 JUMPI PUSH1 0x5 SHL DUP2 ADD CALLDATALOAD SWAP1 PUSH1 0x1E NOT DUP2 CALLDATASIZE SUB ADD DUP3 SLT ISZERO PUSH2 0x129 JUMPI ADD SWAP1 DUP2 CALLDATALOAD SWAP2 PUSH1 0x1 PUSH1 0x1 PUSH1 0x40 SHL SUB DUP4 GT PUSH2 0x129 JUMPI PUSH1 0x20 ADD DUP3 CALLDATASIZE SUB DUP2 SGT PUSH2 0x129 JUMPI SWAP2 SWAP1 JUMP JUMPDEST PUSH1 0x2 NOT DUP2 ADD SWAP2 SWAP1 DUP3 GT PUSH2 0x2A6 JUMPI JUMP JUMPDEST PUSH0 NOT DUP2 ADD SWAP2 SWAP1 DUP3 GT PUSH2 0x2A6 JUMPI JUMP JUMPDEST PUSH1 0x1 NOT DUP2 ADD SWAP2 SWAP1 DUP3 GT PUSH2 0x2A6 JUMPI JUMP JUMPDEST RETURNDATASIZE ISZERO PUSH2 0x10F0 JUMPI RETURNDATASIZE SWAP1 PUSH2 0x10D7 DUP3 PUSH2 0x2E5 JUMP JUMPDEST SWAP2 PUSH2 0x10E5 PUSH1 0x40 MLOAD SWAP4 DUP5 PUSH2 0x2BF JUMP JUMPDEST DUP3 MSTORE RETURNDATASIZE PUSH0 PUSH1 0x20 DUP5 ADD RETURNDATACOPY JUMP JUMPDEST PUSH1 0x60 SWAP1 JUMP JUMPDEST PUSH0 DUP1 SWAP2 PUSH1 0x20 DUP2 MLOAD SWAP2 ADD PUSH1 0xE GAS STATICCALL POP PUSH2 0x351 PUSH2 0x10C6 JUMP JUMPDEST DUP1 MLOAD SWAP2 SWAP1 DUP3 SWAP1 PUSH1 0x20 ADD DUP3 MCOPY ADD PUSH0 DUP2 MSTORE SWAP1 JUMP JUMPDEST PUSH0 SWAP2 SWAP1 PUSH2 0x1D0 PUSH2 0x113C DUP5 SWAP4 PUSH1 0x40 MLOAD SWAP3 DUP4 SWAP2 PUSH2 0x46E PUSH1 0x20 DUP5 ADD DUP1 SWAP8 PUSH2 0x110B JUMP JUMPDEST MLOAD SWAP1 PUSH1 0xB GAS STATICCALL POP PUSH2 0x351 PUSH2 0x10C6 JUMP JUMPDEST PUSH1 0x40 MLOAD PUSH2 0x100 SWAP2 SWAP1 PUSH2 0x115D DUP4 DUP3 PUSH2 0x2BF JUMP JUMPDEST PUSH1 0xC8 DUP2 MSTORE SWAP2 PUSH1 0x1F NOT ADD CALLDATASIZE PUSH1 0x20 DUP5 ADD CALLDATACOPY JUMP JUMPDEST SWAP1 PUSH2 0x1178 DUP3 PUSH2 0x2E5 JUMP JUMPDEST PUSH2 0x1185 PUSH1 0x40 MLOAD SWAP2 DUP3 PUSH2 0x2BF JUMP JUMPDEST DUP3 DUP2 MSTORE DUP1 SWAP3 PUSH2 0x1196 PUSH1 0x1F NOT SWAP2 PUSH2 0x2E5 JUMP JUMPDEST ADD SWAP1 PUSH1 0x20 CALLDATASIZE SWAP2 ADD CALLDATACOPY JUMP JUMPDEST PUSH1 0x20 DUP2 MLOAD SWAP2 ADD MLOAD SWAP1 PUSH1 0x20 DUP2 LT PUSH2 0x11B4 JUMPI POP SWAP1 JUMP JUMPDEST PUSH0 NOT SWAP1 PUSH1 0x20 SUB PUSH1 0x3 SHL SHL AND SWAP1 JUMP JUMPDEST PUSH0 DUP1 SWAP2 PUSH1 0x20 DUP2 MLOAD SWAP2 ADD PUSH1 0xC GAS STATICCALL POP PUSH2 0x351 PUSH2 0x10C6 JUMP JUMPDEST SWAP1 PUSH2 0x1253 PUSH2 0x46E SWAP2 PUSH2 0x1D0 PUSH0 SWAP7 DUP8 DUP1 DUP1 SWAP9 PUSH1 0x40 MLOAD PUSH2 0x122D PUSH1 0x20 DUP3 PUSH2 0x11FF DUP3 DUP3 ADD DUP1 SWAP7 PUSH2 0x110B JUMP JUMPDEST PUSH32 0x73EDA753299D7D483339D80809A1D80553BDA402FFFE5BFEFFFFFFFF00000000 DUP2 MSTORE SUB DUP1 DUP5 MSTORE ADD DUP3 PUSH2 0x2BF JUMP JUMPDEST MLOAD SWAP1 PUSH1 0xC GAS STATICCALL POP PUSH2 0x46E PUSH2 0x123F PUSH2 0x10C6 JUMP JUMPDEST PUSH1 0x40 MLOAD SWAP7 DUP8 SWAP6 PUSH2 0x46E PUSH1 0x20 DUP9 ADD DUP1 SWAP12 PUSH2 0x110B JUMP JUMPDEST MLOAD SWAP1 PUSH1 0xF GAS STATICCALL POP PUSH1 0x1 PUSH2 0x1267 PUSH2 0x557 PUSH2 0x10C6 JUMP JUMPDEST EQ SWAP1 JUMP JUMPDEST PUSH0 SWAP3 PUSH2 0x1295 PUSH1 0x20 DUP1 DUP7 SWAP6 PUSH1 0x40 MLOAD SWAP5 DUP2 DUP7 SWAP3 DUP5 DUP5 ADD SWAP9 DUP10 CALLDATACOPY DUP3 ADD SWAP1 DUP4 DUP3 ADD MSTORE SUB ADD DUP1 DUP5 MSTORE ADD DUP3 PUSH2 0x2BF JUMP JUMPDEST MLOAD SWAP1 PUSH1 0xE GAS STATICCALL POP PUSH2 0x351 PUSH2 0x10C6 JUMP JUMPDEST SWAP1 DUP2 PUSH1 0x1 SHL SWAP2 DUP1 DUP4 DIV PUSH1 0x2 EQ SWAP1 ISZERO OR ISZERO PUSH2 0x2A6 JUMPI JUMP JUMPDEST SWAP1 PUSH1 0xA0 DUP3 MUL SWAP2 DUP1 DUP4 DIV PUSH1 0xA0 EQ SWAP1 ISZERO OR ISZERO PUSH2 0x2A6 JUMPI JUMP JUMPDEST SWAP1 PUSH2 0x120 DUP3 MUL SWAP2 DUP1 DUP4 DIV PUSH2 0x120 EQ SWAP1 ISZERO OR ISZERO PUSH2 0x2A6 JUMPI JUMP JUMPDEST PUSH1 0x1 DUP2 SWAP1 SHL SWAP2 SWAP1 PUSH1 0x1 PUSH1 0x1 PUSH1 0xFF SHL SUB DUP2 AND SUB PUSH2 0x2A6 JUMPI JUMP JUMPDEST ISZERO PUSH2 0x129 JUMPI JUMP JUMPDEST SWAP5 SWAP4 SWAP3 PUSH0 SWAP4 PUSH2 0x1324 PUSH2 0x1332 SWAP4 PUSH1 0x40 SWAP6 PUSH1 0x60 DUP11 MSTORE PUSH1 0x60 DUP11 ADD SWAP2 PUSH2 0xEA6 JUMP JUMPDEST SWAP2 DUP8 DUP4 SUB PUSH1 0x20 DUP10 ADD MSTORE PUSH2 0xEA6 JUMP JUMPDEST SWAP4 ADD MSTORE JUMP JUMPDEST SWAP5 SWAP4 SWAP3 PUSH1 0x1 SWAP4 PUSH2 0x1324 PUSH2 0x1332 SWAP4 PUSH1 0x40 SWAP6 PUSH1 0x60 DUP11 MSTORE PUSH1 0x60 DUP11 ADD SWAP2 PUSH2 0xEA6 JUMP JUMPDEST PUSH0 NOT DUP2 EQ PUSH2 0x2A6 JUMPI PUSH1 0x1 ADD SWAP1 JUMP JUMPDEST ISZERO PUSH2 0x136A JUMPI JUMP JUMPDEST PUSH1 0x40 MLOAD PUSH3 0x461BCD PUSH1 0xE5 SHL DUP2 MSTORE PUSH1 0x20 PUSH1 0x4 DUP3 ADD MSTORE PUSH1 0xA PUSH1 0x24 DUP3 ADD MSTORE PUSH10 0x3130B2102398903632B7 PUSH1 0xB1 SHL PUSH1 0x44 DUP3 ADD MSTORE PUSH1 0x64 SWAP1 REVERT JUMPDEST SWAP1 DUP3 LT ISZERO PUSH2 0x8B5 JUMPI ADD SWAP1 JUMP JUMPDEST SWAP1 DUP2 MLOAD DUP2 LT ISZERO PUSH2 0x8B5 JUMPI ADD PUSH1 0x20 ADD SWAP1 JUMP JUMPDEST PUSH1 0x40 MLOAD SWAP1 PUSH2 0x13C9 PUSH2 0x120 DUP4 PUSH2 0x2BF JUMP JUMPDEST PUSH2 0x100 DUP3 MSTORE PUSH32 0xCB3E287E85A763AF267492AB572E99AB3F370D275CEC1DA1AAA9075FF05F79BE PUSH2 0x100 DUP4 PUSH16 0x24AA2B2F08F0A91260805272DC51051 PUSH1 0x20 DUP3 ADD MSTORE PUSH32 0xC6E47AD4FA403B02B4510B647AE3D1770BAC0326A805BBEFD48056C8C121BDB8 PUSH1 0x40 DUP3 ADD MSTORE PUSH16 0x13E02B6052719F607DACD3A088274F65 PUSH1 0x60 DUP3 ADD MSTORE PUSH32 0x596BD0D09920B61AB5DA61BBDC7F5049334CF11213945D57E5AC7D055D042B7E PUSH1 0x80 DUP3 ADD MSTORE PUSH16 0xCE5D527727D6E118CC9CDC6DA2E351A PUSH1 0xA0 DUP3 ADD MSTORE PUSH32 0xADFD9BAA8CBDD3A76D429A695160D12C923AC9CC3BACA289E193548608B82801 PUSH1 0xC0 DUP3 ADD MSTORE PUSH16 0x606C4A02EA734CC32ACD2B02BC28B99 PUSH1 0xE0 DUP3 ADD MSTORE ADD MSTORE JUMP JUMPDEST PUSH0 SWAP2 SWAP1 PUSH2 0x1D0 PUSH2 0x14E0 DUP5 SWAP4 PUSH1 0x40 MLOAD SWAP3 DUP4 SWAP2 PUSH2 0x46E PUSH1 0x20 DUP5 ADD DUP1 SWAP8 PUSH2 0x110B JUMP JUMPDEST MLOAD SWAP1 PUSH1 0xD GAS STATICCALL POP PUSH2 0x351 PUSH2 0x10C6 JUMP JUMPDEST ISZERO PUSH2 0x14F6 JUMPI JUMP JUMPDEST PUSH1 0x40 MLOAD PUSH3 0x461BCD PUSH1 0xE5 SHL DUP2 MSTORE PUSH1 0x20 PUSH1 0x4 DUP3 ADD MSTORE PUSH1 0xD PUSH1 0x24 DUP3 ADD MSTORE PUSH13 0x10DA1958DACC8811985A5B1959 PUSH1 0x9A SHL PUSH1 0x44 DUP3 ADD MSTORE PUSH1 0x64 SWAP1 REVERT JUMPDEST ISZERO PUSH2 0x1532 JUMPI JUMP JUMPDEST PUSH1 0x40 MLOAD PUSH3 0x461BCD PUSH1 0xE5 SHL DUP2 MSTORE PUSH1 0x20 PUSH1 0x4 DUP3 ADD MSTORE PUSH1 0xD PUSH1 0x24 DUP3 ADD MSTORE PUSH13 0x10DA1958DACCC811985A5B1959 PUSH1 0x9A SHL PUSH1 0x44 DUP3 ADD MSTORE PUSH1 0x64 SWAP1 REVERT JUMPDEST SWAP1 PUSH1 0x80 SWAP3 PUSH1 0x20 SWAP2 ADD ADD CALLDATACOPY JUMP JUMPDEST SWAP1 PUSH2 0x100 SWAP3 PUSH1 0x20 SWAP2 ADD ADD CALLDATACOPY JUMP INVALID PUSH20 0xEDA753299D7D483339D80809A1D80553BDA402FF INVALID JUMPDEST INVALID SELFDESTRUCT SELFDESTRUCT SELFDESTRUCT SELFDESTRUCT STOP STOP STOP ADD LOG2 PUSH5 0x6970667358 0x22 SLT KECCAK256 ADD CALLDATASIZE 0x2A 0xC6 0xDB DUP11 0xCC 0x1F PUSH25 0xDF57BF8E49C9CC8DBE41FC5CD1F562A5F9D667F22FBA36473 PUSH16 0x6C634300081F00330000000000000000 "
				},
				"gasEstimates": {
					"creation": {
						"codeDepositCost": "1118000",
						"executionCost": "25382",
						"totalCost": "1143382"
					},
					"external": {
						"Check2(bytes[],bytes[])": "infinite",
						"Check3(bytes[],bytes[])": "infinite",
						"EqualPairingCheck(bytes,bytes,bytes,bytes)": "infinite",
						"G1Add(bytes,bytes)": "infinite",
						"G1Mul(bytes,uint256)": "infinite",
						"G1Muls(bytes)": "infinite",
						"G2Add(bytes,bytes)": "infinite",
						"G2Mul(bytes,uint256)": "infinite",
						"G2Muls(bytes)": "infinite",
						"Pairing(bytes,bytes,bytes,bytes)": "infinite",
						"testt()": "infinite",
						"w()": "2293",
						"why1(bytes[],bytes[])": "infinite",
						"why2(bytes[],bytes[])": "infinite"
					},
					"internal": {
						"_cdCopy(bytes calldata,uint256,bytes memory,uint256,uint256)": "infinite",
						"_mstoreScalar(bytes memory,uint256,uint256)": "infinite"
					}
				},
				"methodIdentifiers": {
					"Check2(bytes[],bytes[])": "e1f66c1b",
					"Check3(bytes[],bytes[])": "cac924e7",
					"EqualPairingCheck(bytes,bytes,bytes,bytes)": "6f18b669",
					"G1Add(bytes,bytes)": "4d919405",
					"G1Mul(bytes,uint256)": "c1f2c915",
					"G1Muls(bytes)": "6592041a",
					"G2Add(bytes,bytes)": "d6385d60",
					"G2Mul(bytes,uint256)": "af1d0bd9",
					"G2Muls(bytes)": "3f009c16",
					"Pairing(bytes,bytes,bytes,bytes)": "5cdc73ef",
					"testt()": "578a34ce",
					"w()": "205c9cc7",
					"why1(bytes[],bytes[])": "3d4e635f",
					"why2(bytes[],bytes[])": "01f96f4a"
				}
			},
			"storageLayout": {
				"storage": [
					{
						"astId": 1106,
						"contract": "Verfiy.sol:Verify",
						"label": "w",
						"offset": 0,
						"slot": "0",
						"type": "t_bool"
					}
				],
				"types": {
					"t_bool": {
						"encoding": "inplace",
						"label": "bool",
						"numberOfBytes": "1"
					}
				}
			},
			"userdoc": {
				"kind": "user",
				"methods": {},
				"version": 1
			}
		}
	}
}