{
	"data": {
		"bytecode": {
			"linkReferences": {},
			"object": "610b9a61004d600b8282823980515f1a6073146041577f4e487b71000000000000000000000000000000000000000000000000000000005f525f60045260245ffd5b305f52607381538281f3fe7300000000000000000000000000000000000000003014608060405260043610610086575f3560e01c80636592041a116100645780636592041a1461011a578063af1d0bd91461014a578063c1f2c9151461017a578063d6385d60146101aa57610086565b80633f009c161461008a5780634d919405146100ba5780635cdc73ef146100ea575b5f5ffd5b6100a4600480360381019061009f9190610677565b6101da565b6040516100b19190610732565b60405180910390f35b6100d460048036038101906100cf9190610752565b610253565b6040516100e19190610732565b60405180910390f35b61010460048036038101906100ff91906107d0565b6102f6565b60405161011191906108ce565b60405180910390f35b610134600480360381019061012f9190610677565b6103b2565b6040516101419190610732565b60405180910390f35b610164600480360381019061015f919061091a565b61042b565b6040516101719190610732565b60405180910390f35b610194600480360381019061018f919061091a565b6104cb565b6040516101a19190610732565b60405180910390f35b6101c460048036038101906101bf9190610752565b61056b565b6040516101d19190610732565b60405180910390f35b60605f5f600e73ffffffffffffffffffffffffffffffffffffffff1685856040516102069291906109b3565b5f60405180830381855afa9150503d805f811461023e576040519150601f19603f3d011682016040523d82523d5f602084013e610243565b606091505b5091509150809250505092915050565b60605f8585858560405160200161026d94939291906109cb565b60405160208183030381529060405290505f5f600b73ffffffffffffffffffffffffffffffffffffffff16836040516102a69190610a22565b5f60405180830381855afa9150503d805f81146102de576040519150601f19603f3d011682016040523d82523d5f602084013e6102e3565b606091505b5091509150809350505050949350505050565b5f5f8989898989898989604051602001610317989796959493929190610a38565b60405160208183030381529060405290505f5f600f73ffffffffffffffffffffffffffffffffffffffff16836040516103509190610a22565b5f60405180830381855afa9150503d805f8114610388576040519150601f19603f3d011682016040523d82523d5f602084013e61038d565b606091505b509150915060018161039e90610ab5565b5f1c14935050505098975050505050505050565b60605f5f600c73ffffffffffffffffffffffffffffffffffffffff1685856040516103de9291906109b3565b5f60405180830381855afa9150503d805f8114610416576040519150601f19603f3d011682016040523d82523d5f602084013e61041b565b606091505b5091509150809250505092915050565b60605f84848460405160200161044393929190610b3b565b60405160208183030381529060405290505f5f600e73ffffffffffffffffffffffffffffffffffffffff168360405161047c9190610a22565b5f60405180830381855afa9150503d805f81146104b4576040519150601f19603f3d011682016040523d82523d5f602084013e6104b9565b606091505b50915091508093505050509392505050565b60605f8484846040516020016104e393929190610b3b565b60405160208183030381529060405290505f5f600c73ffffffffffffffffffffffffffffffffffffffff168360405161051c9190610a22565b5f60405180830381855afa9150503d805f8114610554576040519150601f19603f3d011682016040523d82523d5f602084013e610559565b606091505b50915091508093505050509392505050565b60605f8585858560405160200161058594939291906109cb565b60405160208183030381529060405290505f5f600d73ffffffffffffffffffffffffffffffffffffffff16836040516105be9190610a22565b5f60405180830381855afa9150503d805f81146105f6576040519150601f19603f3d011682016040523d82523d5f602084013e6105fb565b606091505b5091509150809350505050949350505050565b5f5ffd5b5f5ffd5b5f5ffd5b5f5ffd5b5f5ffd5b5f5f83601f84011261063757610636610616565b5b8235905067ffffffffffffffff8111156106545761065361061a565b5b6020830191508360018202830111156106705761066f61061e565b5b9250929050565b5f5f6020838503121561068d5761068c61060e565b5b5f83013567ffffffffffffffff8111156106aa576106a9610612565b5b6106b685828601610622565b92509250509250929050565b5f81519050919050565b5f82825260208201905092915050565b8281835e5f83830152505050565b5f601f19601f8301169050919050565b5f610704826106c2565b61070e81856106cc565b935061071e8185602086016106dc565b610727816106ea565b840191505092915050565b5f6020820190508181035f83015261074a81846106fa565b905092915050565b5f5f5f5f6040858703121561076a5761076961060e565b5b5f85013567ffffffffffffffff81111561078757610786610612565b5b61079387828801610622565b9450945050602085013567ffffffffffffffff8111156107b6576107b5610612565b5b6107c287828801610622565b925092505092959194509250565b5f5f5f5f5f5f5f5f6080898b0312156107ec576107eb61060e565b5b5f89013567ffffffffffffffff81111561080957610808610612565b5b6108158b828c01610622565b9850985050602089013567ffffffffffffffff81111561083857610837610612565b5b6108448b828c01610622565b9650965050604089013567ffffffffffffffff81111561086757610866610612565b5b6108738b828c01610622565b9450945050606089013567ffffffffffffffff81111561089657610895610612565b5b6108a28b828c01610622565b92509250509295985092959890939650565b5f8115159050919050565b6108c8816108b4565b82525050565b5f6020820190506108e15f8301846108bf565b92915050565b5f819050919050565b6108f9816108e7565b8114610903575f5ffd5b50565b5f81359050610914816108f0565b92915050565b5f5f5f604084860312156109315761093061060e565b5b5f84013567ffffffffffffffff81111561094e5761094d610612565b5b61095a86828701610622565b9350935050602061096d86828701610906565b9150509250925092565b5f81905092915050565b828183375f83830152505050565b5f61099a8385610977565b93506109a7838584610981565b82840190509392505050565b5f6109bf82848661098f565b91508190509392505050565b5f6109d782868861098f565b91506109e482848661098f565b915081905095945050505050565b5f6109fc826106c2565b610a068185610977565b9350610a168185602086016106dc565b80840191505092915050565b5f610a2d82846109f2565b915081905092915050565b5f610a44828a8c61098f565b9150610a5182888a61098f565b9150610a5e82868861098f565b9150610a6b82848661098f565b91508190509998505050505050505050565b5f819050602082019050919050565b5f819050919050565b5f610aa08251610a8c565b80915050919050565b5f82821b905092915050565b5f610abf826106c2565b82610ac984610a7d565b9050610ad481610a95565b92506020821015610b1457610b0f7fffffffffffffffffffffffffffffffffffffffffffffffffffffffffffffffff83602003600802610aa9565b831692505b5050919050565b5f819050919050565b610b35610b30826108e7565b610b1b565b82525050565b5f610b4782858761098f565b9150610b538284610b24565b60208201915081905094935050505056fea2646970667358221220428c7c071490dc7a21962193c5fa03d7b855740b7a795b868eb6e2bf30ce9fce64736f6c634300081f0033",
			"opcodes": "PUSH2 0xB9A PUSH2 0x4D PUSH1 0xB DUP3 DUP3 DUP3 CODECOPY DUP1 MLOAD PUSH0 BYTE PUSH1 0x73 EQ PUSH1 0x41 JUMPI PUSH32 0x4E487B7100000000000000000000000000000000000000000000000000000000 PUSH0 MSTORE PUSH0 PUSH1 0x4 MSTORE PUSH1 0x24 PUSH0 REVERT JUMPDEST ADDRESS PUSH0 MSTORE PUSH1 0x73 DUP2 MSTORE8 DUP3 DUP2 RETURN INVALID PUSH20 0x0 ADDRESS EQ PUSH1 0x80 PUSH1 0x40 MSTORE PUSH1 0x4 CALLDATASIZE LT PUSH2 0x86 JUMPI PUSH0 CALLDATALOAD PUSH1 0xE0 SHR DUP1 PUSH4 0x6592041A GT PUSH2 0x64 JUMPI DUP1 PUSH4 0x6592041A EQ PUSH2 0x11A JUMPI DUP1 PUSH4 0xAF1D0BD9 EQ PUSH2 0x14A JUMPI DUP1 PUSH4 0xC1F2C915 EQ PUSH2 0x17A JUMPI DUP1 PUSH4 0xD6385D60 EQ PUSH2 0x1AA JUMPI PUSH2 0x86 JUMP JUMPDEST DUP1 PUSH4 0x3F009C16 EQ PUSH2 0x8A JUMPI DUP1 PUSH4 0x4D919405 EQ PUSH2 0xBA JUMPI DUP1 PUSH4 0x5CDC73EF EQ PUSH2 0xEA JUMPI JUMPDEST PUSH0 PUSH0 REVERT JUMPDEST PUSH2 0xA4 PUSH1 0x4 DUP1 CALLDATASIZE SUB DUP2 ADD SWAP1 PUSH2 0x9F SWAP2 SWAP1 PUSH2 0x677 JUMP JUMPDEST PUSH2 0x1DA JUMP JUMPDEST PUSH1 0x40 MLOAD PUSH2 0xB1 SWAP2 SWAP1 PUSH2 0x732 JUMP JUMPDEST PUSH1 0x40 MLOAD DUP1 SWAP2 SUB SWAP1 RETURN JUMPDEST PUSH2 0xD4 PUSH1 0x4 DUP1 CALLDATASIZE SUB DUP2 ADD SWAP1 PUSH2 0xCF SWAP2 SWAP1 PUSH2 0x752 JUMP JUMPDEST PUSH2 0x253 JUMP JUMPDEST PUSH1 0x40 MLOAD PUSH2 0xE1 SWAP2 SWAP1 PUSH2 0x732 JUMP JUMPDEST PUSH1 0x40 MLOAD DUP1 SWAP2 SUB SWAP1 RETURN JUMPDEST PUSH2 0x104 PUSH1 0x4 DUP1 CALLDATASIZE SUB DUP2 ADD SWAP1 PUSH2 0xFF SWAP2 SWAP1 PUSH2 0x7D0 JUMP JUMPDEST PUSH2 0x2F6 JUMP JUMPDEST PUSH1 0x40 MLOAD PUSH2 0x111 SWAP2 SWAP1 PUSH2 0x8CE JUMP JUMPDEST PUSH1 0x40 MLOAD DUP1 SWAP2 SUB SWAP1 RETURN JUMPDEST PUSH2 0x134 PUSH1 0x4 DUP1 CALLDATASIZE SUB DUP2 ADD SWAP1 PUSH2 0x12F SWAP2 SWAP1 PUSH2 0x677 JUMP JUMPDEST PUSH2 0x3B2 JUMP JUMPDEST PUSH1 0x40 MLOAD PUSH2 0x141 SWAP2 SWAP1 PUSH2 0x732 JUMP JUMPDEST PUSH1 0x40 MLOAD DUP1 SWAP2 SUB SWAP1 RETURN JUMPDEST PUSH2 0x164 PUSH1 0x4 DUP1 CALLDATASIZE SUB DUP2 ADD SWAP1 PUSH2 0x15F SWAP2 SWAP1 PUSH2 0x91A JUMP JUMPDEST PUSH2 0x42B JUMP JUMPDEST PUSH1 0x40 MLOAD PUSH2 0x171 SWAP2 SWAP1 PUSH2 0x732 JUMP JUMPDEST PUSH1 0x40 MLOAD DUP1 SWAP2 SUB SWAP1 RETURN JUMPDEST PUSH2 0x194 PUSH1 0x4 DUP1 CALLDATASIZE SUB DUP2 ADD SWAP1 PUSH2 0x18F SWAP2 SWAP1 PUSH2 0x91A JUMP JUMPDEST PUSH2 0x4CB JUMP JUMPDEST PUSH1 0x40 MLOAD PUSH2 0x1A1 SWAP2 SWAP1 PUSH2 0x732 JUMP JUMPDEST PUSH1 0x40 MLOAD DUP1 SWAP2 SUB SWAP1 RETURN JUMPDEST PUSH2 0x1C4 PUSH1 0x4 DUP1 CALLDATASIZE SUB DUP2 ADD SWAP1 PUSH2 0x1BF SWAP2 SWAP1 PUSH2 0x752 JUMP JUMPDEST PUSH2 0x56B JUMP JUMPDEST PUSH1 0x40 MLOAD PUSH2 0x1D1 SWAP2 SWAP1 PUSH2 0x732 JUMP JUMPDEST PUSH1 0x40 MLOAD DUP1 SWAP2 SUB SWAP1 RETURN JUMPDEST PUSH1 0x60 PUSH0 PUSH0 PUSH1 0xE PUSH20 0xFFFFFFFFFFFFFFFFFFFFFFFFFFFFFFFFFFFFFFFF AND DUP6 DUP6 PUSH1 0x40 MLOAD PUSH2 0x206 SWAP3 SWAP2 SWAP1 PUSH2 0x9B3 JUMP JUMPDEST PUSH0 PUSH1 0x40 MLOAD DUP1 DUP4 SUB DUP2 DUP6 GAS STATICCALL SWAP2 POP POP RETURNDATASIZE DUP1 PUSH0 DUP2 EQ PUSH2 0x23E JUMPI PUSH1 0x40 MLOAD SWAP2 POP PUSH1 0x1F NOT PUSH1 0x3F RETURNDATASIZE ADD AND DUP3 ADD PUSH1 0x40 MSTORE RETURNDATASIZE DUP3 MSTORE RETURNDATASIZE PUSH0 PUSH1 0x20 DUP5 ADD RETURNDATACOPY PUSH2 0x243 JUMP JUMPDEST PUSH1 0x60 SWAP2 POP JUMPDEST POP SWAP2 POP SWAP2 POP DUP1 SWAP3 POP POP POP SWAP3 SWAP2 POP POP JUMP JUMPDEST PUSH1 0x60 PUSH0 DUP6 DUP6 DUP6 DUP6 PUSH1 0x40 MLOAD PUSH1 0x20 ADD PUSH2 0x26D SWAP5 SWAP4 SWAP3 SWAP2 SWAP1 PUSH2 0x9CB JUMP JUMPDEST PUSH1 0x40 MLOAD PUSH1 0x20 DUP2 DUP4 SUB SUB DUP2 MSTORE SWAP1 PUSH1 0x40 MSTORE SWAP1 POP PUSH0 PUSH0 PUSH1 0xB PUSH20 0xFFFFFFFFFFFFFFFFFFFFFFFFFFFFFFFFFFFFFFFF AND DUP4 PUSH1 0x40 MLOAD PUSH2 0x2A6 SWAP2 SWAP1 PUSH2 0xA22 JUMP JUMPDEST PUSH0 PUSH1 0x40 MLOAD DUP1 DUP4 SUB DUP2 DUP6 GAS STATICCALL SWAP2 POP POP RETURNDATASIZE DUP1 PUSH0 DUP2 EQ PUSH2 0x2DE JUMPI PUSH1 0x40 MLOAD SWAP2 POP PUSH1 0x1F NOT PUSH1 0x3F RETURNDATASIZE ADD AND DUP3 ADD PUSH1 0x40 MSTORE RETURNDATASIZE DUP3 MSTORE RETURNDATASIZE PUSH0 PUSH1 0x20 DUP5 ADD RETURNDATACOPY PUSH2 0x2E3 JUMP JUMPDEST PUSH1 0x60 SWAP2 POP JUMPDEST POP SWAP2 POP SWAP2 POP DUP1 SWAP4 POP POP POP POP SWAP5 SWAP4 POP POP POP POP JUMP JUMPDEST PUSH0 PUSH0 DUP10 DUP10 DUP10 DUP10 DUP10 DUP10 DUP10 DUP10 PUSH1 0x40 MLOAD PUSH1 0x20 ADD PUSH2 0x317 SWAP9 SWAP8 SWAP7 SWAP6 SWAP5 SWAP4 SWAP3 SWAP2 SWAP1 PUSH2 0xA38 JUMP JUMPDEST PUSH1 0x40 MLOAD PUSH1 0x20 DUP2 DUP4 SUB SUB DUP2 MSTORE SWAP1 PUSH1 0x40 MSTORE SWAP1 POP PUSH0 PUSH0 PUSH1 0xF PUSH20 0xFFFFFFFFFFFFFFFFFFFFFFFFFFFFFFFFFFFFFFFF AND DUP4 PUSH1 0x40 MLOAD PUSH2 0x350 SWAP2 SWAP1 PUSH2 0xA22 JUMP JUMPDEST PUSH0 PUSH1 0x40 MLOAD DUP1 DUP4 SUB DUP2 DUP6 GAS STATICCALL SWAP2 POP POP RETURNDATASIZE DUP1 PUSH0 DUP2 EQ PUSH2 0x388 JUMPI PUSH1 0x40 MLOAD SWAP2 POP PUSH1 0x1F NOT PUSH1 0x3F RETURNDATASIZE ADD AND DUP3 ADD PUSH1 0x40 MSTORE RETURNDATASIZE DUP3 MSTORE RETURNDATASIZE PUSH0 PUSH1 0x20 DUP5 ADD RETURNDATACOPY PUSH2 0x38D JUMP JUMPDEST PUSH1 0x60 SWAP2 POP JUMPDEST POP SWAP2 POP SWAP2 POP PUSH1 0x1 DUP2 PUSH2 0x39E SWAP1 PUSH2 0xAB5 JUMP JUMPDEST PUSH0 SHR EQ SWAP4 POP POP POP POP SWAP9 SWAP8 POP POP POP POP POP POP POP POP JUMP JUMPDEST PUSH1 0x60 PUSH0 PUSH0 PUSH1 0xC PUSH20 0xFFFFFFFFFFFFFFFFFFFFFFFFFFFFFFFFFFFFFFFF AND DUP6 DUP6 PUSH1 0x40 MLOAD PUSH2 0x3DE SWAP3 SWAP2 SWAP1 PUSH2 0x9B3 JUMP JUMPDEST PUSH0 PUSH1 0x40 MLOAD DUP1 DUP4 SUB DUP2 DUP6 GAS STATICCALL SWAP2 POP POP RETURNDATASIZE DUP1 PUSH0 DUP2 EQ PUSH2 0x416 JUMPI PUSH1 0x40 MLOAD SWAP2 POP PUSH1 0x1F NOT PUSH1 0x3F RETURNDATASIZE ADD AND DUP3 ADD PUSH1 0x40 MSTORE RETURNDATASIZE DUP3 MSTORE RETURNDATASIZE PUSH0 PUSH1 0x20 DUP5 ADD RETURNDATACOPY PUSH2 0x41B JUMP JUMPDEST PUSH1 0x60 SWAP2 POP JUMPDEST POP SWAP2 POP SWAP2 POP DUP1 SWAP3 POP POP POP SWAP3 SWAP2 POP POP JUMP JUMPDEST PUSH1 0x60 PUSH0 DUP5 DUP5 DUP5 PUSH1 0x40 MLOAD PUSH1 0x20 ADD PUSH2 0x443 SWAP4 SWAP3 SWAP2 SWAP1 PUSH2 0xB3B JUMP JUMPDEST PUSH1 0x40 MLOAD PUSH1 0x20 DUP2 DUP4 SUB SUB DUP2 MSTORE SWAP1 PUSH1 0x40 MSTORE SWAP1 POP PUSH0 PUSH0 PUSH1 0xE PUSH20 0xFFFFFFFFFFFFFFFFFFFFFFFFFFFFFFFFFFFFFFFF AND DUP4 PUSH1 0x40 MLOAD PUSH2 0x47C SWAP2 SWAP1 PUSH2 0xA22 JUMP JUMPDEST PUSH0 PUSH1 0x40 MLOAD DUP1 DUP4 SUB DUP2 DUP6 GAS STATICCALL SWAP2 POP POP RETURNDATASIZE DUP1 PUSH0 DUP2 EQ PUSH2 0x4B4 JUMPI PUSH1 0x40 MLOAD SWAP2 POP PUSH1 0x1F NOT PUSH1 0x3F RETURNDATASIZE ADD AND DUP3 ADD PUSH1 0x40 MSTORE RETURNDATASIZE DUP3 MSTORE RETURNDATASIZE PUSH0 PUSH1 0x20 DUP5 ADD RETURNDATACOPY PUSH2 0x4B9 JUMP JUMPDEST PUSH1 0x60 SWAP2 POP JUMPDEST POP SWAP2 POP SWAP2 POP DUP1 SWAP4 POP POP POP POP SWAP4 SWAP3 POP POP POP JUMP JUMPDEST PUSH1 0x60 PUSH0 DUP5 DUP5 DUP5 PUSH1 0x40 MLOAD PUSH1 0x20 ADD PUSH2 0x4E3 SWAP4 SWAP3 SWAP2 SWAP1 PUSH2 0xB3B JUMP JUMPDEST PUSH1 0x40 MLOAD PUSH1 0x20 DUP2 DUP4 SUB SUB DUP2 MSTORE SWAP1 PUSH1 0x40 MSTORE SWAP1 POP PUSH0 PUSH0 PUSH1 0xC PUSH20 0xFFFFFFFFFFFFFFFFFFFFFFFFFFFFFFFFFFFFFFFF AND DUP4 PUSH1 0x40 MLOAD PUSH2 0x51C SWAP2 SWAP1 PUSH2 0xA22 JUMP JUMPDEST PUSH0 PUSH1 0x40 MLOAD DUP1 DUP4 SUB DUP2 DUP6 GAS STATICCALL SWAP2 POP POP RETURNDATASIZE DUP1 PUSH0 DUP2 EQ PUSH2 0x554 JUMPI PUSH1 0x40 MLOAD SWAP2 POP PUSH1 0x1F NOT PUSH1 0x3F RETURNDATASIZE ADD AND DUP3 ADD PUSH1 0x40 MSTORE RETURNDATASIZE DUP3 MSTORE RETURNDATASIZE PUSH0 PUSH1 0x20 DUP5 ADD RETURNDATACOPY PUSH2 0x559 JUMP JUMPDEST PUSH1 0x60 SWAP2 POP JUMPDEST POP SWAP2 POP SWAP2 POP DUP1 SWAP4 POP POP POP POP SWAP4 SWAP3 POP POP POP JUMP JUMPDEST PUSH1 0x60 PUSH0 DUP6 DUP6 DUP6 DUP6 PUSH1 0x40 MLOAD PUSH1 0x20 ADD PUSH2 0x585 SWAP5 SWAP4 SWAP3 SWAP2 SWAP1 PUSH2 0x9CB JUMP JUMPDEST PUSH1 0x40 MLOAD PUSH1 0x20 DUP2 DUP4 SUB SUB DUP2 MSTORE SWAP1 PUSH1 0x40 MSTORE SWAP1 POP PUSH0 PUSH0 PUSH1 0xD PUSH20 0xFFFFFFFFFFFFFFFFFFFFFFFFFFFFFFFFFFFFFFFF AND DUP4 PUSH1 0x40 MLOAD PUSH2 0x5BE SWAP2 SWAP1 PUSH2 0xA22 JUMP JUMPDEST PUSH0 PUSH1 0x40 MLOAD DUP1 DUP4 SUB DUP2 DUP6 GAS STATICCALL SWAP2 POP POP RETURNDATASIZE DUP1 PUSH0 DUP2 EQ PUSH2 0x5F6 JUMPI PUSH1 0x40 MLOAD SWAP2 POP PUSH1 0x1F NOT PUSH1 0x3F RETURNDATASIZE ADD AND DUP3 ADD PUSH1 0x40 MSTORE RETURNDATASIZE DUP3 MSTORE RETURNDATASIZE PUSH0 PUSH1 0x20 DUP5 ADD RETURNDATACOPY PUSH2 0x5FB JUMP JUMPDEST PUSH1 0x60 SWAP2 POP JUMPDEST POP SWAP2 POP SWAP2 POP DUP1 SWAP4 POP POP POP POP SWAP5 SWAP4 POP POP POP POP JUMP JUMPDEST PUSH0 PUSH0 REVERT JUMPDEST PUSH0 PUSH0 REVERT JUMPDEST PUSH0 PUSH0 REVERT JUMPDEST PUSH0 PUSH0 REVERT JUMPDEST PUSH0 PUSH0 REVERT JUMPDEST PUSH0 PUSH0 DUP4 PUSH1 0x1F DUP5 ADD SLT PUSH2 0x637 JUMPI PUSH2 0x636 PUSH2 0x616 JUMP JUMPDEST JUMPDEST DUP3 CALLDATALOAD SWAP1 POP PUSH8 0xFFFFFFFFFFFFFFFF DUP2 GT ISZERO PUSH2 0x654 JUMPI PUSH2 0x653 PUSH2 0x61A JUMP JUMPDEST JUMPDEST PUSH1 0x20 DUP4 ADD SWAP2 POP DUP4 PUSH1 0x1 DUP3 MUL DUP4 ADD GT ISZERO PUSH2 0x670 JUMPI PUSH2 0x66F PUSH2 0x61E JUMP JUMPDEST JUMPDEST SWAP3 POP SWAP3 SWAP1 POP JUMP JUMPDEST PUSH0 PUSH0 PUSH1 0x20 DUP4 DUP6 SUB SLT ISZERO PUSH2 0x68D JUMPI PUSH2 0x68C PUSH2 0x60E JUMP JUMPDEST JUMPDEST PUSH0 DUP4 ADD CALLDATALOAD PUSH8 0xFFFFFFFFFFFFFFFF DUP2 GT ISZERO PUSH2 0x6AA JUMPI PUSH2 0x6A9 PUSH2 0x612 JUMP JUMPDEST JUMPDEST PUSH2 0x6B6 DUP6 DUP3 DUP7 ADD PUSH2 0x622 JUMP JUMPDEST SWAP3 POP SWAP3 POP POP SWAP3 POP SWAP3 SWAP1 POP JUMP JUMPDEST PUSH0 DUP2 MLOAD SWAP1 POP SWAP2 SWAP1 POP JUMP JUMPDEST PUSH0 DUP3 DUP3 MSTORE PUSH1 0x20 DUP3 ADD SWAP1 POP SWAP3 SWAP2 POP POP JUMP JUMPDEST DUP3 DUP2 DUP4 MCOPY PUSH0 DUP4 DUP4 ADD MSTORE POP POP POP JUMP JUMPDEST PUSH0 PUSH1 0x1F NOT PUSH1 0x1F DUP4 ADD AND SWAP1 POP SWAP2 SWAP1 POP JUMP JUMPDEST PUSH0 PUSH2 0x704 DUP3 PUSH2 0x6C2 JUMP JUMPDEST PUSH2 0x70E DUP2 DUP6 PUSH2 0x6CC JUMP JUMPDEST SWAP4 POP PUSH2 0x71E DUP2 DUP6 PUSH1 0x20 DUP7 ADD PUSH2 0x6DC JUMP JUMPDEST PUSH2 0x727 DUP2 PUSH2 0x6EA JUMP JUMPDEST DUP5 ADD SWAP2 POP POP SWAP3 SWAP2 POP POP JUMP JUMPDEST PUSH0 PUSH1 0x20 DUP3 ADD SWAP1 POP DUP2 DUP2 SUB PUSH0 DUP4 ADD MSTORE PUSH2 0x74A DUP2 DUP5 PUSH2 0x6FA JUMP JUMPDEST SWAP1 POP SWAP3 SWAP2 POP POP JUMP JUMPDEST PUSH0 PUSH0 PUSH0 PUSH0 PUSH1 0x40 DUP6 DUP8 SUB SLT ISZERO PUSH2 0x76A JUMPI PUSH2 0x769 PUSH2 0x60E JUMP JUMPDEST JUMPDEST PUSH0 DUP6 ADD CALLDATALOAD PUSH8 0xFFFFFFFFFFFFFFFF DUP2 GT ISZERO PUSH2 0x787 JUMPI PUSH2 0x786 PUSH2 0x612 JUMP JUMPDEST JUMPDEST PUSH2 0x793 DUP8 DUP3 DUP9 ADD PUSH2 0x622 JUMP JUMPDEST SWAP5 POP SWAP5 POP POP PUSH1 0x20 DUP6 ADD CALLDATALOAD PUSH8 0xFFFFFFFFFFFFFFFF DUP2 GT ISZERO PUSH2 0x7B6 JUMPI PUSH2 0x7B5 PUSH2 0x612 JUMP JUMPDEST JUMPDEST PUSH2 0x7C2 DUP8 DUP3 DUP9 ADD PUSH2 0x622 JUMP JUMPDEST SWAP3 POP SWAP3 POP POP SWAP3 SWAP6 SWAP2 SWAP5 POP SWAP3 POP JUMP JUMPDEST PUSH0 PUSH0 PUSH0 PUSH0 PUSH0 PUSH0 PUSH0 PUSH0 PUSH1 0x80 DUP10 DUP12 SUB SLT ISZERO PUSH2 0x7EC JUMPI PUSH2 0x7EB PUSH2 0x60E JUMP JUMPDEST JUMPDEST PUSH0 DUP10 ADD CALLDATALOAD PUSH8 0xFFFFFFFFFFFFFFFF DUP2 GT ISZERO PUSH2 0x809 JUMPI PUSH2 0x808 PUSH2 0x612 JUMP JUMPDEST JUMPDEST PUSH2 0x815 DUP12 DUP3 DUP13 ADD PUSH2 0x622 JUMP JUMPDEST SWAP9 POP SWAP9 POP POP PUSH1 0x20 DUP10 ADD CALLDATALOAD PUSH8 0xFFFFFFFFFFFFFFFF DUP2 GT ISZERO PUSH2 0x838 JUMPI PUSH2 0x837 PUSH2 0x612 JUMP JUMPDEST JUMPDEST PUSH2 0x844 DUP12 DUP3 DUP13 ADD PUSH2 0x622 JUMP JUMPDEST SWAP7 POP SWAP7 POP POP PUSH1 0x40 DUP10 ADD CALLDATALOAD PUSH8 0xFFFFFFFFFFFFFFFF DUP2 GT ISZERO PUSH2 0x867 JUMPI PUSH2 0x866 PUSH2 0x612 JUMP JUMPDEST JUMPDEST PUSH2 0x873 DUP12 DUP3 DUP13 ADD PUSH2 0x622 JUMP JUMPDEST SWAP5 POP SWAP5 POP POP PUSH1 0x60 DUP10 ADD CALLDATALOAD PUSH8 0xFFFFFFFFFFFFFFFF DUP2 GT ISZERO PUSH2 0x896 JUMPI PUSH2 0x895 PUSH2 0x612 JUMP JUMPDEST JUMPDEST PUSH2 0x8A2 DUP12 DUP3 DUP13 ADD PUSH2 0x622 JUMP JUMPDEST SWAP3 POP SWAP3 POP POP SWAP3 SWAP6 SWAP9 POP SWAP3 SWAP6 SWAP9 SWAP1 SWAP4 SWAP7 POP JUMP JUMPDEST PUSH0 DUP2 ISZERO ISZERO SWAP1 POP SWAP2 SWAP1 POP JUMP JUMPDEST PUSH2 0x8C8 DUP2 PUSH2 0x8B4 JUMP JUMPDEST DUP3 MSTORE POP POP JUMP JUMPDEST PUSH0 PUSH1 0x20 DUP3 ADD SWAP1 POP PUSH2 0x8E1 PUSH0 DUP4 ADD DUP5 PUSH2 0x8BF JUMP JUMPDEST SWAP3 SWAP2 POP POP JUMP JUMPDEST PUSH0 DUP2 SWAP1 POP SWAP2 SWAP1 POP JUMP JUMPDEST PUSH2 0x8F9 DUP2 PUSH2 0x8E7 JUMP JUMPDEST DUP2 EQ PUSH2 0x903 JUMPI PUSH0 PUSH0 REVERT JUMPDEST POP JUMP JUMPDEST PUSH0 DUP2 CALLDATALOAD SWAP1 POP PUSH2 0x914 DUP2 PUSH2 0x8F0 JUMP JUMPDEST SWAP3 SWAP2 POP POP JUMP JUMPDEST PUSH0 PUSH0 PUSH0 PUSH1 0x40 DUP5 DUP7 SUB SLT ISZERO PUSH2 0x931 JUMPI PUSH2 0x930 PUSH2 0x60E JUMP JUMPDEST JUMPDEST PUSH0 DUP5 ADD CALLDATALOAD PUSH8 0xFFFFFFFFFFFFFFFF DUP2 GT ISZERO PUSH2 0x94E JUMPI PUSH2 0x94D PUSH2 0x612 JUMP JUMPDEST JUMPDEST PUSH2 0x95A DUP7 DUP3 DUP8 ADD PUSH2 0x622 JUMP JUMPDEST SWAP4 POP SWAP4 POP POP PUSH1 0x20 PUSH2 0x96D DUP7 DUP3 DUP8 ADD PUSH2 0x906 JUMP JUMPDEST SWAP2 POP POP SWAP3 POP SWAP3 POP SWAP3 JUMP JUMPDEST PUSH0 DUP2 SWAP1 POP SWAP3 SWAP2 POP POP JUMP JUMPDEST DUP3 DUP2 DUP4 CALLDATACOPY PUSH0 DUP4 DUP4 ADD MSTORE POP POP POP JUMP JUMPDEST PUSH0 PUSH2 0x99A DUP4 DUP6 PUSH2 0x977 JUMP JUMPDEST SWAP4 POP PUSH2 0x9A7 DUP4 DUP6 DUP5 PUSH2 0x981 JUMP JUMPDEST DUP3 DUP5 ADD SWAP1 POP SWAP4 SWAP3 POP POP POP JUMP JUMPDEST PUSH0 PUSH2 0x9BF DUP3 DUP5 DUP7 PUSH2 0x98F JUMP JUMPDEST SWAP2 POP DUP2 SWAP1 POP SWAP4 SWAP3 POP POP POP JUMP JUMPDEST PUSH0 PUSH2 0x9D7 DUP3 DUP7 DUP9 PUSH2 0x98F JUMP JUMPDEST SWAP2 POP PUSH2 0x9E4 DUP3 DUP5 DUP7 PUSH2 0x98F JUMP JUMPDEST SWAP2 POP DUP2 SWAP1 POP SWAP6 SWAP5 POP POP POP POP POP JUMP JUMPDEST PUSH0 PUSH2 0x9FC DUP3 PUSH2 0x6C2 JUMP JUMPDEST PUSH2 0xA06 DUP2 DUP6 PUSH2 0x977 JUMP JUMPDEST SWAP4 POP PUSH2 0xA16 DUP2 DUP6 PUSH1 0x20 DUP7 ADD PUSH2 0x6DC JUMP JUMPDEST DUP1 DUP5 ADD SWAP2 POP POP SWAP3 SWAP2 POP POP JUMP JUMPDEST PUSH0 PUSH2 0xA2D DUP3 DUP5 PUSH2 0x9F2 JUMP JUMPDEST SWAP2 POP DUP2 SWAP1 POP SWAP3 SWAP2 POP POP JUMP JUMPDEST PUSH0 PUSH2 0xA44 DUP3 DUP11 DUP13 PUSH2 0x98F JUMP JUMPDEST SWAP2 POP PUSH2 0xA51 DUP3 DUP9 DUP11 PUSH2 0x98F JUMP JUMPDEST SWAP2 POP PUSH2 0xA5E DUP3 DUP7 DUP9 PUSH2 0x98F JUMP JUMPDEST SWAP2 POP PUSH2 0xA6B DUP3 DUP5 DUP7 PUSH2 0x98F JUMP JUMPDEST SWAP2 POP DUP2 SWAP1 POP SWAP10 SWAP9 POP POP POP POP POP POP POP POP POP JUMP JUMPDEST PUSH0 DUP2 SWAP1 POP PUSH1 0x20 DUP3 ADD SWAP1 POP SWAP2 SWAP1 POP JUMP JUMPDEST PUSH0 DUP2 SWAP1 POP SWAP2 SWAP1 POP JUMP JUMPDEST PUSH0 PUSH2 0xAA0 DUP3 MLOAD PUSH2 0xA8C JUMP JUMPDEST DUP1 SWAP2 POP POP SWAP2 SWAP1 POP JUMP JUMPDEST PUSH0 DUP3 DUP3 SHL SWAP1 POP SWAP3 SWAP2 POP POP JUMP JUMPDEST PUSH0 PUSH2 0xABF DUP3 PUSH2 0x6C2 JUMP JUMPDEST DUP3 PUSH2 0xAC9 DUP5 PUSH2 0xA7D JUMP JUMPDEST SWAP1 POP PUSH2 0xAD4 DUP2 PUSH2 0xA95 JUMP JUMPDEST SWAP3 POP PUSH1 0x20 DUP3 LT ISZERO PUSH2 0xB14 JUMPI PUSH2 0xB0F PUSH32 0xFFFFFFFFFFFFFFFFFFFFFFFFFFFFFFFFFFFFFFFFFFFFFFFFFFFFFFFFFFFFFFFF DUP4 PUSH1 0x20 SUB PUSH1 0x8 MUL PUSH2 0xAA9 JUMP JUMPDEST DUP4 AND SWAP3 POP JUMPDEST POP POP SWAP2 SWAP1 POP JUMP JUMPDEST PUSH0 DUP2 SWAP1 POP SWAP2 SWAP1 POP JUMP JUMPDEST PUSH2 0xB35 PUSH2 0xB30 DUP3 PUSH2 0x8E7 JUMP JUMPDEST PUSH2 0xB1B JUMP JUMPDEST DUP3 MSTORE POP POP JUMP JUMPDEST PUSH0 PUSH2 0xB47 DUP3 DUP6 DUP8 PUSH2 0x98F JUMP JUMPDEST SWAP2 POP PUSH2 0xB53 DUP3 DUP5 PUSH2 0xB24 JUMP JUMPDEST PUSH1 0x20 DUP3 ADD SWAP2 POP DUP2 SWAP1 POP SWAP5 SWAP4 POP POP POP POP JUMP INVALID LOG2 PUSH5 0x6970667358 0x22 SLT KECCAK256 TIMESTAMP DUP13 PUSH29 0x71490DC7A21962193C5FA03D7B855740B7A795B868EB6E2BF30CE9FCE PUSH5 0x736F6C6343 STOP ADDMOD 0x1F STOP CALLER "
		},
		"gasEstimates": {
			"creation": {
				"codeDepositCost": "594000",
				"executionCost": "652",
				"totalCost": "594652"
			},
			"external": {
				"G1Add(bytes,bytes)": "infinite",
				"G1Mul(bytes,uint256)": "infinite",
				"G1Muls(bytes)": "infinite",
				"G2Add(bytes,bytes)": "infinite",
				"G2Mul(bytes,uint256)": "infinite",
				"G2Muls(bytes)": "infinite",
				"Pairing(bytes,bytes,bytes,bytes)": "infinite"
			}
		},
		"methodIdentifiers": {
			"G1Add(bytes,bytes)": "4d919405",
			"G1Mul(bytes,uint256)": "c1f2c915",
			"G1Muls(bytes)": "6592041a",
			"G2Add(bytes,bytes)": "d6385d60",
			"G2Mul(bytes,uint256)": "af1d0bd9",
			"G2Muls(bytes)": "3f009c16",
			"Pairing(bytes,bytes,bytes,bytes)": "5cdc73ef"
		}
	},
	"abi": [
		{
			"inputs": [
				{
					"internalType": "bytes",
					"name": "p1",
					"type": "bytes"
				},
				{
					"internalType": "bytes",
					"name": "p2",
					"type": "bytes"
				}
			],
			"name": "G1Add",
			"outputs": [
				{
					"internalType": "bytes",
					"name": "point",
					"type": "bytes"
				}
			],
			"stateMutability": "view",
			"type": "function"
		},
		{
			"inputs": [
				{
					"internalType": "bytes",
					"name": "p1",
					"type": "bytes"
				},
				{
					"internalType": "uint256",
					"name": "scalar",
					"type": "uint256"
				}
			],
			"name": "G1Mul",
			"outputs": [
				{
					"internalType": "bytes",
					"name": "point",
					"type": "bytes"
				}
			],
			"stateMutability": "view",
			"type": "function"
		},
		{
			"inputs": [
				{
					"internalType": "bytes",
					"name": "d",
					"type": "bytes"
				}
			],
			"name": "G1Muls",
			"outputs": [
				{
					"internalType": "bytes",
					"name": "point",
					"type": "bytes"
				}
			],
			"stateMutability": "view",
			"type": "function"
		},
		{
			"inputs": [
				{
					"internalType": "bytes",
					"name": "p1",
					"type": "bytes"
				},
				{
					"internalType": "bytes",
					"name": "p2",
					"type": "bytes"
				}
			],
			"name": "G2Add",
			"outputs": [
				{
					"internalType": "bytes",
					"name": "point",
					"type": "bytes"
				}
			],
			"stateMutability": "view",
			"type": "function"
		},
		{
			"inputs": [
				{
					"internalType": "bytes",
					"name": "p1",
					"type": "bytes"
				},
				{
					"internalType": "uint256",
					"name": "scalar",
					"type": "uint256"
				}
			],
			"name": "G2Mul",
			"outputs": [
				{
					"internalType": "bytes",
					"name": "point",
					"type": "bytes"
				}
			],
			"stateMutability": "view",
			"type": "function"
		},
		{
			"inputs": [
				{
					"internalType": "bytes",
					"name": "d",
					"type": "bytes"
				}
			],
			"name": "G2Muls",
			"outputs": [
				{
					"internalType": "bytes",
					"name": "point",
					"type": "bytes"
				}
			],
			"stateMutability": "view",
			"type": "function"
		},
		{
			"inputs": [
				{
					"internalType": "bytes",
					"name": "p1",
					"type": "bytes"
				},
				{
					"internalType": "bytes",
					"name": "p2",
					"type": "bytes"
				},
				{
					"internalType": "bytes",
					"name": "p3",
					"type": "bytes"
				},
				{
					"internalType": "bytes",
					"name": "p4",
					"type": "bytes"
				}
			],
			"name": "Pairing",
			"outputs": [
				{
					"internalType": "bool",
					"name": "",
					"type": "bool"
				}
			],
			"stateMutability": "view",
			"type": "function"
		}
	]
}