{
	"data": {
		"bytecode": {
			"linkReferences": {},
			"object": "6080346101985760a081016001600160401b0381118282101761018457604052608081526f17f1d3a73197d7942695638c4fa9ac0f60208201527fc3688c4f9774b905a14e3a3f171bac586c55e83ff97a1aeffb3af00adb22c6bb60408201526f08b3f481e3aaa0f1a09e30ed741d8ae460608201527ffcf5e095d5d00af600db18cb2c04b3edd03cc744a2888ae40caa232946c5e7e160808201525f54600190600181811c9116801561017a575b602082101461016657601f8111610115575b50505f80805260205f516020611a305f395f51905f525b608083106100fd576101015f5560ff1960015416600155604051611893908161019d8239f35b602060018192848701518155019201920191906100d7565b5f8052601f0160051c5f516020611a305f395f51905f52017f290decd9548b62a8d60345a988386fc84ba6bc95484008f6362f93160ef3e5675b81811061015c57506100c0565b5f8155820161014f565b634e487b7160e01b5f52602260045260245ffd5b90607f16906100ae565b634e487b7160e01b5f52604160045260245ffd5b5f80fdfe60806040526004361015610011575f80fd5b5f3560e01c806301f96f4a146101045780631feb6a03146100ff578063205c9cc7146100fa5780633d4e635f146100f55780633f009c16146100f05780634d919405146100eb5780635cdc73ef146100e65780636592041a146100e15780636f18b669146100dc5780638a2ba01c146100d7578063a66339b7146100d2578063af1d0bd9146100cd578063c1f2c915146100c8578063d6385d60146100c35763e86d06c7146100be575f80fd5b610bb8565b610b9e565b610b32565b610ac4565b610a74565b610a2c565b61091a565b610901565b6108a2565b610800565b610791565b61061b565b6105f9565b610204565b61018d565b9181601f84011215610139578235916001600160401b038311610139576020808501948460051b01011161013957565b5f80fd5b6040600319820112610139576004356001600160401b038111610139578161016791600401610109565b92909291602435906001600160401b0382116101395761018991600401610109565b9091565b34610139575f51602061183e5f395f51905f526101e06101ce6101ee6101b23661013d565b604096929651958694602086019860408a526060870191610fbf565b848103601f1901604086015291610fbf565b03601f1981018352826106a8565b519020066101f857005b6001805460ff19169055005b34610139576102123661013d565b909291610220811515611044565b6102338261022d8361105f565b14611044565b610265604051602081019061024f816101e0878a888b886110bb565b5190205f51602061183e5f395f51905f52900690565b91610282604051602081019061024f816101e0868b898c886110eb565b9461029461028f84611075565b611109565b60015f86815b878a8185106105b1575050505050506102b290611523565b936102cf61028f6102ca6102c58761108b565b611243565b6110a3565b935f958892895f985b6102e96102e48661108b565b611252565b8a116103975788908a89896102fd89611261565b8314801561038e575b61036d578961034f8561034a600199978961010061034561033d61035d9b5f51602061183e5f395f51905f529e9b6103589b6111c9565b909214611044565b611830565b611226565b92830160200152565b611218565b96099801985b9897938a906102d8565b505050955f51602061183e5f395f51905f5291509160019209980198610363565b50888314610306565b50928587918b6103b66103a98c6114ab565b6103b161126f565b6115cc565b966103c46002841015611044565b6103d861028f6103d385611261565b611075565b975f958795875b6103e887611261565b891015610439575f51602061183e5f395f51905f528a61042e8e6103588c61034f8f976104298f8f608061042461033d60019e87958c956111c9565b611824565b61120a565b9909980197966103df565b50899185918761045861044b8f611523565b610453611377565b6114d3565b9061046b61028f6102ca6102e48461108b565b945f966001935f985b6104856104808661108b565b611261565b8a1161051257888c918b8a8a8983148015610501575b6104e0578a61034f8561034a600199978961010061034561033d6104d29b5f51602061183e5f395f51905f529e9b6103589b6111c9565b97099901995b999894610474565b505050965f51602061183e5f395f51905f52915091600192099901996104d8565b5061050b8a611235565b831461049b565b50868361057b610541876105938f61058b8f8e61054c6105476105a09d61059b9d8997610541610581976114ab565b92611539565b611404565b610554611377565b9961057361056b61056487611235565b83856111c9565b98909b61113b565b999095611261565b916111c9565b97909436916106e9565b9436916106e9565b9336916106e9565b611440565b6040516001815280602081015b0390f35b6105de836104295f51602061183e5f395f51905f52958a608061042461033d8c60019c9a6105ec9a6111c9565b878101602001879052611218565b940992910190879061029a565b34610139575f36600319011261013957602060ff600154166040519015158152f35b34610139576106293661013d565b929091610634611377565b926001820180831161068f5761065761064f849288856111c9565b92909561113b565b935f1981019190821161068f5761058b6105816105939361067b9a610541976111c9565b151560ff8019600154169116176001555f80f35b61104b565b634e487b7160e01b5f52604160045260245ffd5b90601f801991011681019081106001600160401b038211176106c957604052565b610694565b6001600160401b0381116106c957601f01601f191660200190565b9291926106f5826106ce565b9161070360405193846106a8565b829481845281830111610139578281602093845f960137010152565b9080601f830112156101395781602061073a933591016106e9565b90565b602060031982011261013957600435906001600160401b0382116101395761073a9160040161071f565b602060409281835280519182918282860152018484015e5f828201840152601f01601f1916010190565b34610139576105ad6107aa6107a53661073d565b6114ab565b60405191829182610767565b906040600319830112610139576004356001600160401b03811161013957826107e19160040161071f565b91602435906001600160401b0382116101395761073a9160040161071f565b34610139576105ad6107aa610814366107b6565b906114d3565b906080600319830112610139576004356001600160401b03811161013957826108459160040161071f565b916024356001600160401b03811161013957816108649160040161071f565b916044356001600160401b03811161013957826108839160040161071f565b91606435906001600160401b0382116101395761073a9160040161071f565b34610139575f806108d76108d76108dd6101e06108be3661081a565b91939296906040519687956108d760208801809b6114c1565b906114c1565b5190600f5afa50602060016108f86108f361147c565b611501565b14604051908152f35b34610139576105ad6107aa6109153661073d565b611523565b3461013957602061093661092d3661081a565b92919091611539565b6040519015158152f35b90600182811c9216801561096e575b602083101461095a57565b634e487b7160e01b5f52602260045260245ffd5b91607f169161094f565b604051905f825f549161098a83610940565b8083529260018116908115610a0d57506001146109b0575b6109ae925003836106a8565b565b505f80805290917f290decd9548b62a8d60345a988386fc84ba6bc95484008f6362f93160ef3e5635b8183106109f15750509060206109ae928201016109a2565b60209193508060019154838589010152019101909184926109d9565b602092506109ae94915060ff191682840152151560051b8201016109a2565b34610139575f366003190112610139576105ad6107aa610978565b9181601f84011215610139578235916001600160401b038311610139576020838186019501011161013957565b34610139576020366003190112610139576004356001600160401b03811161013957610936610aa96020923690600401610a47565b50606081013590604081013590602081013590351717171590565b34610139576040366003190112610139576004356001600160401b038111610139575f610af681923690600401610a47565b610b20602080602435936040519481869284840198893782019083820152030180845201826106a8565b5190600e5afa506105ad6107aa61147c565b34610139576040366003190112610139576004356001600160401b038111610139575f610b648192369060040161071f565b602435610b8c60206040518093610b7e83830180976114c1565b9081520380845201826106a8565b5190600c5afa506105ad6107aa61147c565b34610139576105ad6107aa610bb2366107b6565b906115cc565b34610139576060366003190112610139576004356001600160401b03811161013957610be8903690600401610109565b6024356001600160401b03811161013957610c07903690600401610109565b9290916044356001600160401b03811161013957610c2c909491943690600401610a47565b94610c3a8361022d8361105f565b610c56604051602081019061024f816101e0888b888c886110bb565b93610c73604051602081019061024f816101e0898c8989886110eb565b96600193610c8361028f85611075565b98610c9361028f6102ca89611243565b98610ca361028f6103d388611261565b99610cb361028f6102ca8b611252565b5f99908a5b610cc18a611261565b8c11610d27575f51602061183e5f395f51905f528f610d188f918f8f8f8f976104298186610d1287868e610d209f6080610d056103589d61034f9c610d0d946111c9565b905014611608565b6111c9565b50611824565b9c099b6115fa565b9a99610cb8565b5095888c8f988f610d388c9b611523565b905f9b8a965f9d8e5b610d506104806104808b61108b565b10610ddf578a8f918e928c8f610d658d611261565b83148015610dd6575b610db6578d61034f8561034a610dae999789610da0610da6995f51602061183e5f395f51905f529c99610358996111c9565b50611830565b9a099e6115fa565b9d978e610d41565b505050995f51602061183e5f395f51905f52915091610dae92099e6115fa565b508c8314610d6e565b508893918c88928f8e610df58f6103a9906114ab565b995f998c988b5b610e086104808b611261565b8d11610e4f575f51602061183e5f395f51905f528f610e408f8f908f8f8f976104298186610d126103589761034f96610e489e6111c9565b9c099c6115fa565b9b99610dfc565b509388888e610e6061044b8f611523565b905f986001955f9a5b610e756104808861108b565b8c11610efd57898e918d8b8e8b83148015610eec575b610ecc578c61034f8561034a610ec5999789610da0610ebd995f51602061183e5f395f51905f529c99610358996111c9565b99099b6115fa565b9a96610e69565b505050985f51602061183e5f395f51905f52915091610ec592099b6115fa565b50610ef68c611235565b8314610e8b565b50849650856105938161058b8f6105a09e61054c610f999f859f9b9c610f749d610f799f9c61057b9c610f6a849f6105419e6105819a610f5c610541610f52610f6595610f4c610f6f9d6114ab565b9b61118f565b929061059361126f565b93610593610978565b611641565b611539565b61167d565b6116bb565b610f946001610f8b610aa9858561118f565b15151415611440565b61118f565b90611748565b908060209392818452848401375f828201840152601f01601f1916010190565b90602083828152019060208160051b85010193835f915b838310610fe65750505050505090565b909192939495601f198282030186528635601e198436030181121561013957830190602082359201916001600160401b038111610139578036038313610139576110366020928392600195610f9f565b980196019493019190610fd6565b1561013957565b634e487b7160e01b5f52601160045260245ffd5b908160011b918083046002149015171561068f57565b9060a082029180830460a0149015171561068f57565b600181901b91906001600160ff1b0381160361068f57565b90610120820291808304610120149015171561068f57565b9493925f936110d86110e69360409560608a5260608a0191610fbf565b918783036020890152610fbf565b930152565b9493926001936110d86110e69360409560608a5260608a0191610fbf565b90611113826106ce565b61112060405191826106a8565b8281528092611131601f19916106ce565b0190602036910137565b906001101561117b57602081013590601e19813603018212156101395701908135916001600160401b038311610139576020018236038113610139579190565b634e487b7160e01b5f52603260045260245ffd5b901561117b57803590601e19813603018212156101395701908135916001600160401b038311610139576020018236038113610139579190565b919081101561117b5760051b81013590601e19813603018212156101395701908135916001600160401b038311610139576020018236038113610139579190565b906080820180921161068f57565b906020820180921161068f57565b90610100820180921161068f57565b906001820180921161068f57565b60021981019190821161068f57565b60011981019190821161068f57565b5f1981019190821161068f57565b6040519061127f610120836106a8565b61010082527fcb3e287e85a763af267492ab572e99ab3f370d275cec1da1aaa9075ff05f79be610100836f024aa2b2f08f0a91260805272dc5105160208201527fc6e47ad4fa403b02b4510b647ae3d1770bac0326a805bbefd48056c8c121bdb860408201526f13e02b6052719f607dacd3a088274f6560608201527f596bd0d09920b61ab5da61bbdc7f5049334cf11213945d57e5ac7d055d042b7e60808201526f0ce5d527727d6e118cc9cdc6da2e351a60a08201527fadfd9baa8cbdd3a76d429a695160d12c923ac9cc3baca289e193548608b8280160c08201526f0606c4a02ea734cc32acd2b02bc28b9960e08201520152565b6040519061138660a0836106a8565b608082527ffcf5e095d5d00af600db18cb2c04b3edd03cc744a2888ae40caa232946c5e7e16080836f17f1d3a73197d7942695638c4fa9ac0f60208201527fc3688c4f9774b905a14e3a3f171bac586c55e83ff97a1aeffb3af00adb22c6bb60408201526f08b3f481e3aaa0f1a09e30ed741d8ae460608201520152565b1561140b57565b60405162461bcd60e51b815260206004820152600d60248201526c10da1958dacc8811985a5b1959609a1b6044820152606490fd5b1561144757565b60405162461bcd60e51b815260206004820152600d60248201526c10da1958daccc811985a5b1959609a1b6044820152606490fd5b3d156114a6573d9061148d826106ce565b9161149b60405193846106a8565b82523d5f602084013e565b606090565b5f8091602081519101600e5afa5061073a61147c565b805191908290602001825e015f815290565b5f91906101e06114f284936040519283916108d76020840180976114c1565b5190600b5afa5061073a61147c565b602081519101519060208110611515575090565b5f199060200360031b1b1690565b5f8091602081519101600c5afa5061073a61147c565b906115b46108d7916101e05f968780809860405161158e60208261156082820180966114c1565b7f73eda753299d7d483339d80809a1d80553bda402fffe5bfeffffffff0000000081520380845201826106a8565b5190600c5afa506108d76115a061147c565b6040519687956108d760208801809b6114c1565b5190600f5afa5060016115c86108f361147c565b1490565b5f91906101e06115eb84936040519283916108d76020840180976114c1565b5190600d5afa5061073a61147c565b5f19811461068f5760010190565b1561160f57565b60405162461bcd60e51b815260206004820152600a6024820152693130b2102398903632b760b11b6044820152606490fd5b1561164857565b60405162461bcd60e51b815260206004820152600d60248201526c10da1958dacc4811985a5b1959609a1b6044820152606490fd5b1561168457565b60405162461bcd60e51b815260206004820152600f60248201526e10da1958dacc8b4c4811985a5b1959608a1b6044820152606490fd5b156116c257565b60405162461bcd60e51b815260206004820152600f60248201526e10da1958dacc8b4c8811985a5b1959608a1b6044820152606490fd5b601f821161170657505050565b5f5260205f20906020601f840160051c8301931061173e575b601f0160051c01905b818110611733575050565b5f8155600101611728565b909150819061171f565b91906001600160401b0381116106c95761176c816117665f54610940565b5f6116f9565b5f601f82116001146117a957819061179a93945f9261179e575b50508160011b915f199060031b1c19161790565b5f55565b013590505f80611786565b5f8052601f198216937f290decd9548b62a8d60345a988386fc84ba6bc95484008f6362f93160ef3e563915f5b86811061180c57508360019596106117f3575b505050811b015f55565b01355f19600384901b60f8161c191690555f80806117e9565b909260206001819286860135815501940191016117d6565b90608092602091010137565b906101009260209101013756fe73eda753299d7d483339d80809a1d80553bda402fffe5bfeffffffff00000001a26469706673582212200bb0e06a06044c400948a93864c67feb54b0ef36b9fc8b7dcb2856958357cb9164736f6c634300081f0033290decd9548b62a8d60345a988386fc84ba6bc95484008f6362f93160ef3e563",
			"opcodes": "PUSH1 0x80 CALLVALUE PUSH2 0x198 JUMPI PUSH1 0xA0 DUP2 ADD PUSH1 0x1 PUSH1 0x1 PUSH1 0x40 SHL SUB DUP2 GT DUP3 DUP3 LT OR PUSH2 0x184 JUMPI PUSH1 0x40 MSTORE PUSH1 0x80 DUP2 MSTORE PUSH16 0x17F1D3A73197D7942695638C4FA9AC0F PUSH1 0x20 DUP3 ADD MSTORE PUSH32 0xC3688C4F9774B905A14E3A3F171BAC586C55E83FF97A1AEFFB3AF00ADB22C6BB PUSH1 0x40 DUP3 ADD MSTORE PUSH16 0x8B3F481E3AAA0F1A09E30ED741D8AE4 PUSH1 0x60 DUP3 ADD MSTORE PUSH32 0xFCF5E095D5D00AF600DB18CB2C04B3EDD03CC744A2888AE40CAA232946C5E7E1 PUSH1 0x80 DUP3 ADD MSTORE PUSH0 SLOAD PUSH1 0x1 SWAP1 PUSH1 0x1 DUP2 DUP2 SHR SWAP2 AND DUP1 ISZERO PUSH2 0x17A JUMPI JUMPDEST PUSH1 0x20 DUP3 LT EQ PUSH2 0x166 JUMPI PUSH1 0x1F DUP2 GT PUSH2 0x115 JUMPI JUMPDEST POP POP PUSH0 DUP1 DUP1 MSTORE PUSH1 0x20 PUSH0 MLOAD PUSH1 0x20 PUSH2 0x1A30 PUSH0 CODECOPY PUSH0 MLOAD SWAP1 PUSH0 MSTORE JUMPDEST PUSH1 0x80 DUP4 LT PUSH2 0xFD JUMPI PUSH2 0x101 PUSH0 SSTORE PUSH1 0xFF NOT PUSH1 0x1 SLOAD AND PUSH1 0x1 SSTORE PUSH1 0x40 MLOAD PUSH2 0x1893 SWAP1 DUP2 PUSH2 0x19D DUP3 CODECOPY RETURN JUMPDEST PUSH1 0x20 PUSH1 0x1 DUP2 SWAP3 DUP5 DUP8 ADD MLOAD DUP2 SSTORE ADD SWAP3 ADD SWAP3 ADD SWAP2 SWAP1 PUSH2 0xD7 JUMP JUMPDEST PUSH0 DUP1 MSTORE PUSH1 0x1F ADD PUSH1 0x5 SHR PUSH0 MLOAD PUSH1 0x20 PUSH2 0x1A30 PUSH0 CODECOPY PUSH0 MLOAD SWAP1 PUSH0 MSTORE ADD PUSH32 0x290DECD9548B62A8D60345A988386FC84BA6BC95484008F6362F93160EF3E567 JUMPDEST DUP2 DUP2 LT PUSH2 0x15C JUMPI POP PUSH2 0xC0 JUMP JUMPDEST PUSH0 DUP2 SSTORE DUP3 ADD PUSH2 0x14F JUMP JUMPDEST PUSH4 0x4E487B71 PUSH1 0xE0 SHL PUSH0 MSTORE PUSH1 0x22 PUSH1 0x4 MSTORE PUSH1 0x24 PUSH0 REVERT JUMPDEST SWAP1 PUSH1 0x7F AND SWAP1 PUSH2 0xAE JUMP JUMPDEST PUSH4 0x4E487B71 PUSH1 0xE0 SHL PUSH0 MSTORE PUSH1 0x41 PUSH1 0x4 MSTORE PUSH1 0x24 PUSH0 REVERT JUMPDEST PUSH0 DUP1 REVERT INVALID PUSH1 0x80 PUSH1 0x40 MSTORE PUSH1 0x4 CALLDATASIZE LT ISZERO PUSH2 0x11 JUMPI PUSH0 DUP1 REVERT JUMPDEST PUSH0 CALLDATALOAD PUSH1 0xE0 SHR DUP1 PUSH4 0x1F96F4A EQ PUSH2 0x104 JUMPI DUP1 PUSH4 0x1FEB6A03 EQ PUSH2 0xFF JUMPI DUP1 PUSH4 0x205C9CC7 EQ PUSH2 0xFA JUMPI DUP1 PUSH4 0x3D4E635F EQ PUSH2 0xF5 JUMPI DUP1 PUSH4 0x3F009C16 EQ PUSH2 0xF0 JUMPI DUP1 PUSH4 0x4D919405 EQ PUSH2 0xEB JUMPI DUP1 PUSH4 0x5CDC73EF EQ PUSH2 0xE6 JUMPI DUP1 PUSH4 0x6592041A EQ PUSH2 0xE1 JUMPI DUP1 PUSH4 0x6F18B669 EQ PUSH2 0xDC JUMPI DUP1 PUSH4 0x8A2BA01C EQ PUSH2 0xD7 JUMPI DUP1 PUSH4 0xA66339B7 EQ PUSH2 0xD2 JUMPI DUP1 PUSH4 0xAF1D0BD9 EQ PUSH2 0xCD JUMPI DUP1 PUSH4 0xC1F2C915 EQ PUSH2 0xC8 JUMPI DUP1 PUSH4 0xD6385D60 EQ PUSH2 0xC3 JUMPI PUSH4 0xE86D06C7 EQ PUSH2 0xBE JUMPI PUSH0 DUP1 REVERT JUMPDEST PUSH2 0xBB8 JUMP JUMPDEST PUSH2 0xB9E JUMP JUMPDEST PUSH2 0xB32 JUMP JUMPDEST PUSH2 0xAC4 JUMP JUMPDEST PUSH2 0xA74 JUMP JUMPDEST PUSH2 0xA2C JUMP JUMPDEST PUSH2 0x91A JUMP JUMPDEST PUSH2 0x901 JUMP JUMPDEST PUSH2 0x8A2 JUMP JUMPDEST PUSH2 0x800 JUMP JUMPDEST PUSH2 0x791 JUMP JUMPDEST PUSH2 0x61B JUMP JUMPDEST PUSH2 0x5F9 JUMP JUMPDEST PUSH2 0x204 JUMP JUMPDEST PUSH2 0x18D JUMP JUMPDEST SWAP2 DUP2 PUSH1 0x1F DUP5 ADD SLT ISZERO PUSH2 0x139 JUMPI DUP3 CALLDATALOAD SWAP2 PUSH1 0x1 PUSH1 0x1 PUSH1 0x40 SHL SUB DUP4 GT PUSH2 0x139 JUMPI PUSH1 0x20 DUP1 DUP6 ADD SWAP5 DUP5 PUSH1 0x5 SHL ADD ADD GT PUSH2 0x139 JUMPI JUMP JUMPDEST PUSH0 DUP1 REVERT JUMPDEST PUSH1 0x40 PUSH1 0x3 NOT DUP3 ADD SLT PUSH2 0x139 JUMPI PUSH1 0x4 CALLDATALOAD PUSH1 0x1 PUSH1 0x1 PUSH1 0x40 SHL SUB DUP2 GT PUSH2 0x139 JUMPI DUP2 PUSH2 0x167 SWAP2 PUSH1 0x4 ADD PUSH2 0x109 JUMP JUMPDEST SWAP3 SWAP1 SWAP3 SWAP2 PUSH1 0x24 CALLDATALOAD SWAP1 PUSH1 0x1 PUSH1 0x1 PUSH1 0x40 SHL SUB DUP3 GT PUSH2 0x139 JUMPI PUSH2 0x189 SWAP2 PUSH1 0x4 ADD PUSH2 0x109 JUMP JUMPDEST SWAP1 SWAP2 JUMP JUMPDEST CALLVALUE PUSH2 0x139 JUMPI PUSH0 MLOAD PUSH1 0x20 PUSH2 0x183E PUSH0 CODECOPY PUSH0 MLOAD SWAP1 PUSH0 MSTORE PUSH2 0x1E0 PUSH2 0x1CE PUSH2 0x1EE PUSH2 0x1B2 CALLDATASIZE PUSH2 0x13D JUMP JUMPDEST PUSH1 0x40 SWAP7 SWAP3 SWAP7 MLOAD SWAP6 DUP7 SWAP5 PUSH1 0x20 DUP7 ADD SWAP9 PUSH1 0x40 DUP11 MSTORE PUSH1 0x60 DUP8 ADD SWAP2 PUSH2 0xFBF JUMP JUMPDEST DUP5 DUP2 SUB PUSH1 0x1F NOT ADD PUSH1 0x40 DUP7 ADD MSTORE SWAP2 PUSH2 0xFBF JUMP JUMPDEST SUB PUSH1 0x1F NOT DUP2 ADD DUP4 MSTORE DUP3 PUSH2 0x6A8 JUMP JUMPDEST MLOAD SWAP1 KECCAK256 MOD PUSH2 0x1F8 JUMPI STOP JUMPDEST PUSH1 0x1 DUP1 SLOAD PUSH1 0xFF NOT AND SWAP1 SSTORE STOP JUMPDEST CALLVALUE PUSH2 0x139 JUMPI PUSH2 0x212 CALLDATASIZE PUSH2 0x13D JUMP JUMPDEST SWAP1 SWAP3 SWAP2 PUSH2 0x220 DUP2 ISZERO ISZERO PUSH2 0x1044 JUMP JUMPDEST PUSH2 0x233 DUP3 PUSH2 0x22D DUP4 PUSH2 0x105F JUMP JUMPDEST EQ PUSH2 0x1044 JUMP JUMPDEST PUSH2 0x265 PUSH1 0x40 MLOAD PUSH1 0x20 DUP2 ADD SWAP1 PUSH2 0x24F DUP2 PUSH2 0x1E0 DUP8 DUP11 DUP9 DUP12 DUP9 PUSH2 0x10BB JUMP JUMPDEST MLOAD SWAP1 KECCAK256 PUSH0 MLOAD PUSH1 0x20 PUSH2 0x183E PUSH0 CODECOPY PUSH0 MLOAD SWAP1 PUSH0 MSTORE SWAP1 MOD SWAP1 JUMP JUMPDEST SWAP2 PUSH2 0x282 PUSH1 0x40 MLOAD PUSH1 0x20 DUP2 ADD SWAP1 PUSH2 0x24F DUP2 PUSH2 0x1E0 DUP7 DUP12 DUP10 DUP13 DUP9 PUSH2 0x10EB JUMP JUMPDEST SWAP5 PUSH2 0x294 PUSH2 0x28F DUP5 PUSH2 0x1075 JUMP JUMPDEST PUSH2 0x1109 JUMP JUMPDEST PUSH1 0x1 PUSH0 DUP7 DUP2 JUMPDEST DUP8 DUP11 DUP2 DUP6 LT PUSH2 0x5B1 JUMPI POP POP POP POP POP POP PUSH2 0x2B2 SWAP1 PUSH2 0x1523 JUMP JUMPDEST SWAP4 PUSH2 0x2CF PUSH2 0x28F PUSH2 0x2CA PUSH2 0x2C5 DUP8 PUSH2 0x108B JUMP JUMPDEST PUSH2 0x1243 JUMP JUMPDEST PUSH2 0x10A3 JUMP JUMPDEST SWAP4 PUSH0 SWAP6 DUP9 SWAP3 DUP10 PUSH0 SWAP9 JUMPDEST PUSH2 0x2E9 PUSH2 0x2E4 DUP7 PUSH2 0x108B JUMP JUMPDEST PUSH2 0x1252 JUMP JUMPDEST DUP11 GT PUSH2 0x397 JUMPI DUP9 SWAP1 DUP11 DUP10 DUP10 PUSH2 0x2FD DUP10 PUSH2 0x1261 JUMP JUMPDEST DUP4 EQ DUP1 ISZERO PUSH2 0x38E JUMPI JUMPDEST PUSH2 0x36D JUMPI DUP10 PUSH2 0x34F DUP6 PUSH2 0x34A PUSH1 0x1 SWAP10 SWAP8 DUP10 PUSH2 0x100 PUSH2 0x345 PUSH2 0x33D PUSH2 0x35D SWAP12 PUSH0 MLOAD PUSH1 0x20 PUSH2 0x183E PUSH0 CODECOPY PUSH0 MLOAD SWAP1 PUSH0 MSTORE SWAP15 SWAP12 PUSH2 0x358 SWAP12 PUSH2 0x11C9 JUMP JUMPDEST SWAP1 SWAP3 EQ PUSH2 0x1044 JUMP JUMPDEST PUSH2 0x1830 JUMP JUMPDEST PUSH2 0x1226 JUMP JUMPDEST SWAP3 DUP4 ADD PUSH1 0x20 ADD MSTORE JUMP JUMPDEST PUSH2 0x1218 JUMP JUMPDEST SWAP7 MULMOD SWAP9 ADD SWAP9 JUMPDEST SWAP9 SWAP8 SWAP4 DUP11 SWAP1 PUSH2 0x2D8 JUMP JUMPDEST POP POP POP SWAP6 PUSH0 MLOAD PUSH1 0x20 PUSH2 0x183E PUSH0 CODECOPY PUSH0 MLOAD SWAP1 PUSH0 MSTORE SWAP2 POP SWAP2 PUSH1 0x1 SWAP3 MULMOD SWAP9 ADD SWAP9 PUSH2 0x363 JUMP JUMPDEST POP DUP9 DUP4 EQ PUSH2 0x306 JUMP JUMPDEST POP SWAP3 DUP6 DUP8 SWAP2 DUP12 PUSH2 0x3B6 PUSH2 0x3A9 DUP13 PUSH2 0x14AB JUMP JUMPDEST PUSH2 0x3B1 PUSH2 0x126F JUMP JUMPDEST PUSH2 0x15CC JUMP JUMPDEST SWAP7 PUSH2 0x3C4 PUSH1 0x2 DUP5 LT ISZERO PUSH2 0x1044 JUMP JUMPDEST PUSH2 0x3D8 PUSH2 0x28F PUSH2 0x3D3 DUP6 PUSH2 0x1261 JUMP JUMPDEST PUSH2 0x1075 JUMP JUMPDEST SWAP8 PUSH0 SWAP6 DUP8 SWAP6 DUP8 JUMPDEST PUSH2 0x3E8 DUP8 PUSH2 0x1261 JUMP JUMPDEST DUP10 LT ISZERO PUSH2 0x439 JUMPI PUSH0 MLOAD PUSH1 0x20 PUSH2 0x183E PUSH0 CODECOPY PUSH0 MLOAD SWAP1 PUSH0 MSTORE DUP11 PUSH2 0x42E DUP15 PUSH2 0x358 DUP13 PUSH2 0x34F DUP16 SWAP8 PUSH2 0x429 DUP16 DUP16 PUSH1 0x80 PUSH2 0x424 PUSH2 0x33D PUSH1 0x1 SWAP15 DUP8 SWAP6 DUP13 SWAP6 PUSH2 0x11C9 JUMP JUMPDEST PUSH2 0x1824 JUMP JUMPDEST PUSH2 0x120A JUMP JUMPDEST SWAP10 MULMOD SWAP9 ADD SWAP8 SWAP7 PUSH2 0x3DF JUMP JUMPDEST POP DUP10 SWAP2 DUP6 SWAP2 DUP8 PUSH2 0x458 PUSH2 0x44B DUP16 PUSH2 0x1523 JUMP JUMPDEST PUSH2 0x453 PUSH2 0x1377 JUMP JUMPDEST PUSH2 0x14D3 JUMP JUMPDEST SWAP1 PUSH2 0x46B PUSH2 0x28F PUSH2 0x2CA PUSH2 0x2E4 DUP5 PUSH2 0x108B JUMP JUMPDEST SWAP5 PUSH0 SWAP7 PUSH1 0x1 SWAP4 PUSH0 SWAP9 JUMPDEST PUSH2 0x485 PUSH2 0x480 DUP7 PUSH2 0x108B JUMP JUMPDEST PUSH2 0x1261 JUMP JUMPDEST DUP11 GT PUSH2 0x512 JUMPI DUP9 DUP13 SWAP2 DUP12 DUP11 DUP11 DUP10 DUP4 EQ DUP1 ISZERO PUSH2 0x501 JUMPI JUMPDEST PUSH2 0x4E0 JUMPI DUP11 PUSH2 0x34F DUP6 PUSH2 0x34A PUSH1 0x1 SWAP10 SWAP8 DUP10 PUSH2 0x100 PUSH2 0x345 PUSH2 0x33D PUSH2 0x4D2 SWAP12 PUSH0 MLOAD PUSH1 0x20 PUSH2 0x183E PUSH0 CODECOPY PUSH0 MLOAD SWAP1 PUSH0 MSTORE SWAP15 SWAP12 PUSH2 0x358 SWAP12 PUSH2 0x11C9 JUMP JUMPDEST SWAP8 MULMOD SWAP10 ADD SWAP10 JUMPDEST SWAP10 SWAP9 SWAP5 PUSH2 0x474 JUMP JUMPDEST POP POP POP SWAP7 PUSH0 MLOAD PUSH1 0x20 PUSH2 0x183E PUSH0 CODECOPY PUSH0 MLOAD SWAP1 PUSH0 MSTORE SWAP2 POP SWAP2 PUSH1 0x1 SWAP3 MULMOD SWAP10 ADD SWAP10 PUSH2 0x4D8 JUMP JUMPDEST POP PUSH2 0x50B DUP11 PUSH2 0x1235 JUMP JUMPDEST DUP4 EQ PUSH2 0x49B JUMP JUMPDEST POP DUP7 DUP4 PUSH2 0x57B PUSH2 0x541 DUP8 PUSH2 0x593 DUP16 PUSH2 0x58B DUP16 DUP15 PUSH2 0x54C PUSH2 0x547 PUSH2 0x5A0 SWAP14 PUSH2 0x59B SWAP14 DUP10 SWAP8 PUSH2 0x541 PUSH2 0x581 SWAP8 PUSH2 0x14AB JUMP JUMPDEST SWAP3 PUSH2 0x1539 JUMP JUMPDEST PUSH2 0x1404 JUMP JUMPDEST PUSH2 0x554 PUSH2 0x1377 JUMP JUMPDEST SWAP10 PUSH2 0x573 PUSH2 0x56B PUSH2 0x564 DUP8 PUSH2 0x1235 JUMP JUMPDEST DUP4 DUP6 PUSH2 0x11C9 JUMP JUMPDEST SWAP9 SWAP1 SWAP12 PUSH2 0x113B JUMP JUMPDEST SWAP10 SWAP1 SWAP6 PUSH2 0x1261 JUMP JUMPDEST SWAP2 PUSH2 0x11C9 JUMP JUMPDEST SWAP8 SWAP1 SWAP5 CALLDATASIZE SWAP2 PUSH2 0x6E9 JUMP JUMPDEST SWAP5 CALLDATASIZE SWAP2 PUSH2 0x6E9 JUMP JUMPDEST SWAP4 CALLDATASIZE SWAP2 PUSH2 0x6E9 JUMP JUMPDEST PUSH2 0x1440 JUMP JUMPDEST PUSH1 0x40 MLOAD PUSH1 0x1 DUP2 MSTORE DUP1 PUSH1 0x20 DUP2 ADD JUMPDEST SUB SWAP1 RETURN JUMPDEST PUSH2 0x5DE DUP4 PUSH2 0x429 PUSH0 MLOAD PUSH1 0x20 PUSH2 0x183E PUSH0 CODECOPY PUSH0 MLOAD SWAP1 PUSH0 MSTORE SWAP6 DUP11 PUSH1 0x80 PUSH2 0x424 PUSH2 0x33D DUP13 PUSH1 0x1 SWAP13 SWAP11 PUSH2 0x5EC SWAP11 PUSH2 0x11C9 JUMP JUMPDEST DUP8 DUP2 ADD PUSH1 0x20 ADD DUP8 SWAP1 MSTORE PUSH2 0x1218 JUMP JUMPDEST SWAP5 MULMOD SWAP3 SWAP2 ADD SWAP1 DUP8 SWAP1 PUSH2 0x29A JUMP JUMPDEST CALLVALUE PUSH2 0x139 JUMPI PUSH0 CALLDATASIZE PUSH1 0x3 NOT ADD SLT PUSH2 0x139 JUMPI PUSH1 0x20 PUSH1 0xFF PUSH1 0x1 SLOAD AND PUSH1 0x40 MLOAD SWAP1 ISZERO ISZERO DUP2 MSTORE RETURN JUMPDEST CALLVALUE PUSH2 0x139 JUMPI PUSH2 0x629 CALLDATASIZE PUSH2 0x13D JUMP JUMPDEST SWAP3 SWAP1 SWAP2 PUSH2 0x634 PUSH2 0x1377 JUMP JUMPDEST SWAP3 PUSH1 0x1 DUP3 ADD DUP1 DUP4 GT PUSH2 0x68F JUMPI PUSH2 0x657 PUSH2 0x64F DUP5 SWAP3 DUP9 DUP6 PUSH2 0x11C9 JUMP JUMPDEST SWAP3 SWAP1 SWAP6 PUSH2 0x113B JUMP JUMPDEST SWAP4 PUSH0 NOT DUP2 ADD SWAP2 SWAP1 DUP3 GT PUSH2 0x68F JUMPI PUSH2 0x58B PUSH2 0x581 PUSH2 0x593 SWAP4 PUSH2 0x67B SWAP11 PUSH2 0x541 SWAP8 PUSH2 0x11C9 JUMP JUMPDEST ISZERO ISZERO PUSH1 0xFF DUP1 NOT PUSH1 0x1 SLOAD AND SWAP2 AND OR PUSH1 0x1 SSTORE PUSH0 DUP1 RETURN JUMPDEST PUSH2 0x104B JUMP JUMPDEST PUSH4 0x4E487B71 PUSH1 0xE0 SHL PUSH0 MSTORE PUSH1 0x41 PUSH1 0x4 MSTORE PUSH1 0x24 PUSH0 REVERT JUMPDEST SWAP1 PUSH1 0x1F DUP1 NOT SWAP2 ADD AND DUP2 ADD SWAP1 DUP2 LT PUSH1 0x1 PUSH1 0x1 PUSH1 0x40 SHL SUB DUP3 GT OR PUSH2 0x6C9 JUMPI PUSH1 0x40 MSTORE JUMP JUMPDEST PUSH2 0x694 JUMP JUMPDEST PUSH1 0x1 PUSH1 0x1 PUSH1 0x40 SHL SUB DUP2 GT PUSH2 0x6C9 JUMPI PUSH1 0x1F ADD PUSH1 0x1F NOT AND PUSH1 0x20 ADD SWAP1 JUMP JUMPDEST SWAP3 SWAP2 SWAP3 PUSH2 0x6F5 DUP3 PUSH2 0x6CE JUMP JUMPDEST SWAP2 PUSH2 0x703 PUSH1 0x40 MLOAD SWAP4 DUP5 PUSH2 0x6A8 JUMP JUMPDEST DUP3 SWAP5 DUP2 DUP5 MSTORE DUP2 DUP4 ADD GT PUSH2 0x139 JUMPI DUP3 DUP2 PUSH1 0x20 SWAP4 DUP5 PUSH0 SWAP7 ADD CALLDATACOPY ADD ADD MSTORE JUMP JUMPDEST SWAP1 DUP1 PUSH1 0x1F DUP4 ADD SLT ISZERO PUSH2 0x139 JUMPI DUP2 PUSH1 0x20 PUSH2 0x73A SWAP4 CALLDATALOAD SWAP2 ADD PUSH2 0x6E9 JUMP JUMPDEST SWAP1 JUMP JUMPDEST PUSH1 0x20 PUSH1 0x3 NOT DUP3 ADD SLT PUSH2 0x139 JUMPI PUSH1 0x4 CALLDATALOAD SWAP1 PUSH1 0x1 PUSH1 0x1 PUSH1 0x40 SHL SUB DUP3 GT PUSH2 0x139 JUMPI PUSH2 0x73A SWAP2 PUSH1 0x4 ADD PUSH2 0x71F JUMP JUMPDEST PUSH1 0x20 PUSH1 0x40 SWAP3 DUP2 DUP4 MSTORE DUP1 MLOAD SWAP2 DUP3 SWAP2 DUP3 DUP3 DUP7 ADD MSTORE ADD DUP5 DUP5 ADD MCOPY PUSH0 DUP3 DUP3 ADD DUP5 ADD MSTORE PUSH1 0x1F ADD PUSH1 0x1F NOT AND ADD ADD SWAP1 JUMP JUMPDEST CALLVALUE PUSH2 0x139 JUMPI PUSH2 0x5AD PUSH2 0x7AA PUSH2 0x7A5 CALLDATASIZE PUSH2 0x73D JUMP JUMPDEST PUSH2 0x14AB JUMP JUMPDEST PUSH1 0x40 MLOAD SWAP2 DUP3 SWAP2 DUP3 PUSH2 0x767 JUMP JUMPDEST SWAP1 PUSH1 0x40 PUSH1 0x3 NOT DUP4 ADD SLT PUSH2 0x139 JUMPI PUSH1 0x4 CALLDATALOAD PUSH1 0x1 PUSH1 0x1 PUSH1 0x40 SHL SUB DUP2 GT PUSH2 0x139 JUMPI DUP3 PUSH2 0x7E1 SWAP2 PUSH1 0x4 ADD PUSH2 0x71F JUMP JUMPDEST SWAP2 PUSH1 0x24 CALLDATALOAD SWAP1 PUSH1 0x1 PUSH1 0x1 PUSH1 0x40 SHL SUB DUP3 GT PUSH2 0x139 JUMPI PUSH2 0x73A SWAP2 PUSH1 0x4 ADD PUSH2 0x71F JUMP JUMPDEST CALLVALUE PUSH2 0x139 JUMPI PUSH2 0x5AD PUSH2 0x7AA PUSH2 0x814 CALLDATASIZE PUSH2 0x7B6 JUMP JUMPDEST SWAP1 PUSH2 0x14D3 JUMP JUMPDEST SWAP1 PUSH1 0x80 PUSH1 0x3 NOT DUP4 ADD SLT PUSH2 0x139 JUMPI PUSH1 0x4 CALLDATALOAD PUSH1 0x1 PUSH1 0x1 PUSH1 0x40 SHL SUB DUP2 GT PUSH2 0x139 JUMPI DUP3 PUSH2 0x845 SWAP2 PUSH1 0x4 ADD PUSH2 0x71F JUMP JUMPDEST SWAP2 PUSH1 0x24 CALLDATALOAD PUSH1 0x1 PUSH1 0x1 PUSH1 0x40 SHL SUB DUP2 GT PUSH2 0x139 JUMPI DUP2 PUSH2 0x864 SWAP2 PUSH1 0x4 ADD PUSH2 0x71F JUMP JUMPDEST SWAP2 PUSH1 0x44 CALLDATALOAD PUSH1 0x1 PUSH1 0x1 PUSH1 0x40 SHL SUB DUP2 GT PUSH2 0x139 JUMPI DUP3 PUSH2 0x883 SWAP2 PUSH1 0x4 ADD PUSH2 0x71F JUMP JUMPDEST SWAP2 PUSH1 0x64 CALLDATALOAD SWAP1 PUSH1 0x1 PUSH1 0x1 PUSH1 0x40 SHL SUB DUP3 GT PUSH2 0x139 JUMPI PUSH2 0x73A SWAP2 PUSH1 0x4 ADD PUSH2 0x71F JUMP JUMPDEST CALLVALUE PUSH2 0x139 JUMPI PUSH0 DUP1 PUSH2 0x8D7 PUSH2 0x8D7 PUSH2 0x8DD PUSH2 0x1E0 PUSH2 0x8BE CALLDATASIZE PUSH2 0x81A JUMP JUMPDEST SWAP2 SWAP4 SWAP3 SWAP7 SWAP1 PUSH1 0x40 MLOAD SWAP7 DUP8 SWAP6 PUSH2 0x8D7 PUSH1 0x20 DUP9 ADD DUP1 SWAP12 PUSH2 0x14C1 JUMP JUMPDEST SWAP1 PUSH2 0x14C1 JUMP JUMPDEST MLOAD SWAP1 PUSH1 0xF GAS STATICCALL POP PUSH1 0x20 PUSH1 0x1 PUSH2 0x8F8 PUSH2 0x8F3 PUSH2 0x147C JUMP JUMPDEST PUSH2 0x1501 JUMP JUMPDEST EQ PUSH1 0x40 MLOAD SWAP1 DUP2 MSTORE RETURN JUMPDEST CALLVALUE PUSH2 0x139 JUMPI PUSH2 0x5AD PUSH2 0x7AA PUSH2 0x915 CALLDATASIZE PUSH2 0x73D JUMP JUMPDEST PUSH2 0x1523 JUMP JUMPDEST CALLVALUE PUSH2 0x139 JUMPI PUSH1 0x20 PUSH2 0x936 PUSH2 0x92D CALLDATASIZE PUSH2 0x81A JUMP JUMPDEST SWAP3 SWAP2 SWAP1 SWAP2 PUSH2 0x1539 JUMP JUMPDEST PUSH1 0x40 MLOAD SWAP1 ISZERO ISZERO DUP2 MSTORE RETURN JUMPDEST SWAP1 PUSH1 0x1 DUP3 DUP2 SHR SWAP3 AND DUP1 ISZERO PUSH2 0x96E JUMPI JUMPDEST PUSH1 0x20 DUP4 LT EQ PUSH2 0x95A JUMPI JUMP JUMPDEST PUSH4 0x4E487B71 PUSH1 0xE0 SHL PUSH0 MSTORE PUSH1 0x22 PUSH1 0x4 MSTORE PUSH1 0x24 PUSH0 REVERT JUMPDEST SWAP2 PUSH1 0x7F AND SWAP2 PUSH2 0x94F JUMP JUMPDEST PUSH1 0x40 MLOAD SWAP1 PUSH0 DUP3 PUSH0 SLOAD SWAP2 PUSH2 0x98A DUP4 PUSH2 0x940 JUMP JUMPDEST DUP1 DUP4 MSTORE SWAP3 PUSH1 0x1 DUP2 AND SWAP1 DUP2 ISZERO PUSH2 0xA0D JUMPI POP PUSH1 0x1 EQ PUSH2 0x9B0 JUMPI JUMPDEST PUSH2 0x9AE SWAP3 POP SUB DUP4 PUSH2 0x6A8 JUMP JUMPDEST JUMP JUMPDEST POP PUSH0 DUP1 DUP1 MSTORE SWAP1 SWAP2 PUSH32 0x290DECD9548B62A8D60345A988386FC84BA6BC95484008F6362F93160EF3E563 JUMPDEST DUP2 DUP4 LT PUSH2 0x9F1 JUMPI POP POP SWAP1 PUSH1 0x20 PUSH2 0x9AE SWAP3 DUP3 ADD ADD PUSH2 0x9A2 JUMP JUMPDEST PUSH1 0x20 SWAP2 SWAP4 POP DUP1 PUSH1 0x1 SWAP2 SLOAD DUP4 DUP6 DUP10 ADD ADD MSTORE ADD SWAP2 ADD SWAP1 SWAP2 DUP5 SWAP3 PUSH2 0x9D9 JUMP JUMPDEST PUSH1 0x20 SWAP3 POP PUSH2 0x9AE SWAP5 SWAP2 POP PUSH1 0xFF NOT AND DUP3 DUP5 ADD MSTORE ISZERO ISZERO PUSH1 0x5 SHL DUP3 ADD ADD PUSH2 0x9A2 JUMP JUMPDEST CALLVALUE PUSH2 0x139 JUMPI PUSH0 CALLDATASIZE PUSH1 0x3 NOT ADD SLT PUSH2 0x139 JUMPI PUSH2 0x5AD PUSH2 0x7AA PUSH2 0x978 JUMP JUMPDEST SWAP2 DUP2 PUSH1 0x1F DUP5 ADD SLT ISZERO PUSH2 0x139 JUMPI DUP3 CALLDATALOAD SWAP2 PUSH1 0x1 PUSH1 0x1 PUSH1 0x40 SHL SUB DUP4 GT PUSH2 0x139 JUMPI PUSH1 0x20 DUP4 DUP2 DUP7 ADD SWAP6 ADD ADD GT PUSH2 0x139 JUMPI JUMP JUMPDEST CALLVALUE PUSH2 0x139 JUMPI PUSH1 0x20 CALLDATASIZE PUSH1 0x3 NOT ADD SLT PUSH2 0x139 JUMPI PUSH1 0x4 CALLDATALOAD PUSH1 0x1 PUSH1 0x1 PUSH1 0x40 SHL SUB DUP2 GT PUSH2 0x139 JUMPI PUSH2 0x936 PUSH2 0xAA9 PUSH1 0x20 SWAP3 CALLDATASIZE SWAP1 PUSH1 0x4 ADD PUSH2 0xA47 JUMP JUMPDEST POP PUSH1 0x60 DUP2 ADD CALLDATALOAD SWAP1 PUSH1 0x40 DUP2 ADD CALLDATALOAD SWAP1 PUSH1 0x20 DUP2 ADD CALLDATALOAD SWAP1 CALLDATALOAD OR OR OR ISZERO SWAP1 JUMP JUMPDEST CALLVALUE PUSH2 0x139 JUMPI PUSH1 0x40 CALLDATASIZE PUSH1 0x3 NOT ADD SLT PUSH2 0x139 JUMPI PUSH1 0x4 CALLDATALOAD PUSH1 0x1 PUSH1 0x1 PUSH1 0x40 SHL SUB DUP2 GT PUSH2 0x139 JUMPI PUSH0 PUSH2 0xAF6 DUP2 SWAP3 CALLDATASIZE SWAP1 PUSH1 0x4 ADD PUSH2 0xA47 JUMP JUMPDEST PUSH2 0xB20 PUSH1 0x20 DUP1 PUSH1 0x24 CALLDATALOAD SWAP4 PUSH1 0x40 MLOAD SWAP5 DUP2 DUP7 SWAP3 DUP5 DUP5 ADD SWAP9 DUP10 CALLDATACOPY DUP3 ADD SWAP1 DUP4 DUP3 ADD MSTORE SUB ADD DUP1 DUP5 MSTORE ADD DUP3 PUSH2 0x6A8 JUMP JUMPDEST MLOAD SWAP1 PUSH1 0xE GAS STATICCALL POP PUSH2 0x5AD PUSH2 0x7AA PUSH2 0x147C JUMP JUMPDEST CALLVALUE PUSH2 0x139 JUMPI PUSH1 0x40 CALLDATASIZE PUSH1 0x3 NOT ADD SLT PUSH2 0x139 JUMPI PUSH1 0x4 CALLDATALOAD PUSH1 0x1 PUSH1 0x1 PUSH1 0x40 SHL SUB DUP2 GT PUSH2 0x139 JUMPI PUSH0 PUSH2 0xB64 DUP2 SWAP3 CALLDATASIZE SWAP1 PUSH1 0x4 ADD PUSH2 0x71F JUMP JUMPDEST PUSH1 0x24 CALLDATALOAD PUSH2 0xB8C PUSH1 0x20 PUSH1 0x40 MLOAD DUP1 SWAP4 PUSH2 0xB7E DUP4 DUP4 ADD DUP1 SWAP8 PUSH2 0x14C1 JUMP JUMPDEST SWAP1 DUP2 MSTORE SUB DUP1 DUP5 MSTORE ADD DUP3 PUSH2 0x6A8 JUMP JUMPDEST MLOAD SWAP1 PUSH1 0xC GAS STATICCALL POP PUSH2 0x5AD PUSH2 0x7AA PUSH2 0x147C JUMP JUMPDEST CALLVALUE PUSH2 0x139 JUMPI PUSH2 0x5AD PUSH2 0x7AA PUSH2 0xBB2 CALLDATASIZE PUSH2 0x7B6 JUMP JUMPDEST SWAP1 PUSH2 0x15CC JUMP JUMPDEST CALLVALUE PUSH2 0x139 JUMPI PUSH1 0x60 CALLDATASIZE PUSH1 0x3 NOT ADD SLT PUSH2 0x139 JUMPI PUSH1 0x4 CALLDATALOAD PUSH1 0x1 PUSH1 0x1 PUSH1 0x40 SHL SUB DUP2 GT PUSH2 0x139 JUMPI PUSH2 0xBE8 SWAP1 CALLDATASIZE SWAP1 PUSH1 0x4 ADD PUSH2 0x109 JUMP JUMPDEST PUSH1 0x24 CALLDATALOAD PUSH1 0x1 PUSH1 0x1 PUSH1 0x40 SHL SUB DUP2 GT PUSH2 0x139 JUMPI PUSH2 0xC07 SWAP1 CALLDATASIZE SWAP1 PUSH1 0x4 ADD PUSH2 0x109 JUMP JUMPDEST SWAP3 SWAP1 SWAP2 PUSH1 0x44 CALLDATALOAD PUSH1 0x1 PUSH1 0x1 PUSH1 0x40 SHL SUB DUP2 GT PUSH2 0x139 JUMPI PUSH2 0xC2C SWAP1 SWAP5 SWAP2 SWAP5 CALLDATASIZE SWAP1 PUSH1 0x4 ADD PUSH2 0xA47 JUMP JUMPDEST SWAP5 PUSH2 0xC3A DUP4 PUSH2 0x22D DUP4 PUSH2 0x105F JUMP JUMPDEST PUSH2 0xC56 PUSH1 0x40 MLOAD PUSH1 0x20 DUP2 ADD SWAP1 PUSH2 0x24F DUP2 PUSH2 0x1E0 DUP9 DUP12 DUP9 DUP13 DUP9 PUSH2 0x10BB JUMP JUMPDEST SWAP4 PUSH2 0xC73 PUSH1 0x40 MLOAD PUSH1 0x20 DUP2 ADD SWAP1 PUSH2 0x24F DUP2 PUSH2 0x1E0 DUP10 DUP13 DUP10 DUP10 DUP9 PUSH2 0x10EB JUMP JUMPDEST SWAP7 PUSH1 0x1 SWAP4 PUSH2 0xC83 PUSH2 0x28F DUP6 PUSH2 0x1075 JUMP JUMPDEST SWAP9 PUSH2 0xC93 PUSH2 0x28F PUSH2 0x2CA DUP10 PUSH2 0x1243 JUMP JUMPDEST SWAP9 PUSH2 0xCA3 PUSH2 0x28F PUSH2 0x3D3 DUP9 PUSH2 0x1261 JUMP JUMPDEST SWAP10 PUSH2 0xCB3 PUSH2 0x28F PUSH2 0x2CA DUP12 PUSH2 0x1252 JUMP JUMPDEST PUSH0 SWAP10 SWAP1 DUP11 JUMPDEST PUSH2 0xCC1 DUP11 PUSH2 0x1261 JUMP JUMPDEST DUP13 GT PUSH2 0xD27 JUMPI PUSH0 MLOAD PUSH1 0x20 PUSH2 0x183E PUSH0 CODECOPY PUSH0 MLOAD SWAP1 PUSH0 MSTORE DUP16 PUSH2 0xD18 DUP16 SWAP2 DUP16 DUP16 DUP16 DUP16 SWAP8 PUSH2 0x429 DUP2 DUP7 PUSH2 0xD12 DUP8 DUP7 DUP15 PUSH2 0xD20 SWAP16 PUSH1 0x80 PUSH2 0xD05 PUSH2 0x358 SWAP14 PUSH2 0x34F SWAP13 PUSH2 0xD0D SWAP5 PUSH2 0x11C9 JUMP JUMPDEST SWAP1 POP EQ PUSH2 0x1608 JUMP JUMPDEST PUSH2 0x11C9 JUMP JUMPDEST POP PUSH2 0x1824 JUMP JUMPDEST SWAP13 MULMOD SWAP12 PUSH2 0x15FA JUMP JUMPDEST SWAP11 SWAP10 PUSH2 0xCB8 JUMP JUMPDEST POP SWAP6 DUP9 DUP13 DUP16 SWAP9 DUP16 PUSH2 0xD38 DUP13 SWAP12 PUSH2 0x1523 JUMP JUMPDEST SWAP1 PUSH0 SWAP12 DUP11 SWAP7 PUSH0 SWAP14 DUP15 JUMPDEST PUSH2 0xD50 PUSH2 0x480 PUSH2 0x480 DUP12 PUSH2 0x108B JUMP JUMPDEST LT PUSH2 0xDDF JUMPI DUP11 DUP16 SWAP2 DUP15 SWAP3 DUP13 DUP16 PUSH2 0xD65 DUP14 PUSH2 0x1261 JUMP JUMPDEST DUP4 EQ DUP1 ISZERO PUSH2 0xDD6 JUMPI JUMPDEST PUSH2 0xDB6 JUMPI DUP14 PUSH2 0x34F DUP6 PUSH2 0x34A PUSH2 0xDAE SWAP10 SWAP8 DUP10 PUSH2 0xDA0 PUSH2 0xDA6 SWAP10 PUSH0 MLOAD PUSH1 0x20 PUSH2 0x183E PUSH0 CODECOPY PUSH0 MLOAD SWAP1 PUSH0 MSTORE SWAP13 SWAP10 PUSH2 0x358 SWAP10 PUSH2 0x11C9 JUMP JUMPDEST POP PUSH2 0x1830 JUMP JUMPDEST SWAP11 MULMOD SWAP15 PUSH2 0x15FA JUMP JUMPDEST SWAP14 SWAP8 DUP15 PUSH2 0xD41 JUMP JUMPDEST POP POP POP SWAP10 PUSH0 MLOAD PUSH1 0x20 PUSH2 0x183E PUSH0 CODECOPY PUSH0 MLOAD SWAP1 PUSH0 MSTORE SWAP2 POP SWAP2 PUSH2 0xDAE SWAP3 MULMOD SWAP15 PUSH2 0x15FA JUMP JUMPDEST POP DUP13 DUP4 EQ PUSH2 0xD6E JUMP JUMPDEST POP DUP9 SWAP4 SWAP2 DUP13 DUP9 SWAP3 DUP16 DUP15 PUSH2 0xDF5 DUP16 PUSH2 0x3A9 SWAP1 PUSH2 0x14AB JUMP JUMPDEST SWAP10 PUSH0 SWAP10 DUP13 SWAP9 DUP12 JUMPDEST PUSH2 0xE08 PUSH2 0x480 DUP12 PUSH2 0x1261 JUMP JUMPDEST DUP14 GT PUSH2 0xE4F JUMPI PUSH0 MLOAD PUSH1 0x20 PUSH2 0x183E PUSH0 CODECOPY PUSH0 MLOAD SWAP1 PUSH0 MSTORE DUP16 PUSH2 0xE40 DUP16 DUP16 SWAP1 DUP16 DUP16 DUP16 SWAP8 PUSH2 0x429 DUP2 DUP7 PUSH2 0xD12 PUSH2 0x358 SWAP8 PUSH2 0x34F SWAP7 PUSH2 0xE48 SWAP15 PUSH2 0x11C9 JUMP JUMPDEST SWAP13 MULMOD SWAP13 PUSH2 0x15FA JUMP JUMPDEST SWAP12 SWAP10 PUSH2 0xDFC JUMP JUMPDEST POP SWAP4 DUP9 DUP9 DUP15 PUSH2 0xE60 PUSH2 0x44B DUP16 PUSH2 0x1523 JUMP JUMPDEST SWAP1 PUSH0 SWAP9 PUSH1 0x1 SWAP6 PUSH0 SWAP11 JUMPDEST PUSH2 0xE75 PUSH2 0x480 DUP9 PUSH2 0x108B JUMP JUMPDEST DUP13 GT PUSH2 0xEFD JUMPI DUP10 DUP15 SWAP2 DUP14 DUP12 DUP15 DUP12 DUP4 EQ DUP1 ISZERO PUSH2 0xEEC JUMPI JUMPDEST PUSH2 0xECC JUMPI DUP13 PUSH2 0x34F DUP6 PUSH2 0x34A PUSH2 0xEC5 SWAP10 SWAP8 DUP10 PUSH2 0xDA0 PUSH2 0xEBD SWAP10 PUSH0 MLOAD PUSH1 0x20 PUSH2 0x183E PUSH0 CODECOPY PUSH0 MLOAD SWAP1 PUSH0 MSTORE SWAP13 SWAP10 PUSH2 0x358 SWAP10 PUSH2 0x11C9 JUMP JUMPDEST SWAP10 MULMOD SWAP12 PUSH2 0x15FA JUMP JUMPDEST SWAP11 SWAP7 PUSH2 0xE69 JUMP JUMPDEST POP POP POP SWAP9 PUSH0 MLOAD PUSH1 0x20 PUSH2 0x183E PUSH0 CODECOPY PUSH0 MLOAD SWAP1 PUSH0 MSTORE SWAP2 POP SWAP2 PUSH2 0xEC5 SWAP3 MULMOD SWAP12 PUSH2 0x15FA JUMP JUMPDEST POP PUSH2 0xEF6 DUP13 PUSH2 0x1235 JUMP JUMPDEST DUP4 EQ PUSH2 0xE8B JUMP JUMPDEST POP DUP5 SWAP7 POP DUP6 PUSH2 0x593 DUP2 PUSH2 0x58B DUP16 PUSH2 0x5A0 SWAP15 PUSH2 0x54C PUSH2 0xF99 SWAP16 DUP6 SWAP16 SWAP12 SWAP13 PUSH2 0xF74 SWAP14 PUSH2 0xF79 SWAP16 SWAP13 PUSH2 0x57B SWAP13 PUSH2 0xF6A DUP5 SWAP16 PUSH2 0x541 SWAP15 PUSH2 0x581 SWAP11 PUSH2 0xF5C PUSH2 0x541 PUSH2 0xF52 PUSH2 0xF65 SWAP6 PUSH2 0xF4C PUSH2 0xF6F SWAP14 PUSH2 0x14AB JUMP JUMPDEST SWAP12 PUSH2 0x118F JUMP JUMPDEST SWAP3 SWAP1 PUSH2 0x593 PUSH2 0x126F JUMP JUMPDEST SWAP4 PUSH2 0x593 PUSH2 0x978 JUMP JUMPDEST PUSH2 0x1641 JUMP JUMPDEST PUSH2 0x1539 JUMP JUMPDEST PUSH2 0x167D JUMP JUMPDEST PUSH2 0x16BB JUMP JUMPDEST PUSH2 0xF94 PUSH1 0x1 PUSH2 0xF8B PUSH2 0xAA9 DUP6 DUP6 PUSH2 0x118F JUMP JUMPDEST ISZERO ISZERO EQ ISZERO PUSH2 0x1440 JUMP JUMPDEST PUSH2 0x118F JUMP JUMPDEST SWAP1 PUSH2 0x1748 JUMP JUMPDEST SWAP1 DUP1 PUSH1 0x20 SWAP4 SWAP3 DUP2 DUP5 MSTORE DUP5 DUP5 ADD CALLDATACOPY PUSH0 DUP3 DUP3 ADD DUP5 ADD MSTORE PUSH1 0x1F ADD PUSH1 0x1F NOT AND ADD ADD SWAP1 JUMP JUMPDEST SWAP1 PUSH1 0x20 DUP4 DUP3 DUP2 MSTORE ADD SWAP1 PUSH1 0x20 DUP2 PUSH1 0x5 SHL DUP6 ADD ADD SWAP4 DUP4 PUSH0 SWAP2 JUMPDEST DUP4 DUP4 LT PUSH2 0xFE6 JUMPI POP POP POP POP POP POP SWAP1 JUMP JUMPDEST SWAP1 SWAP2 SWAP3 SWAP4 SWAP5 SWAP6 PUSH1 0x1F NOT DUP3 DUP3 SUB ADD DUP7 MSTORE DUP7 CALLDATALOAD PUSH1 0x1E NOT DUP5 CALLDATASIZE SUB ADD DUP2 SLT ISZERO PUSH2 0x139 JUMPI DUP4 ADD SWAP1 PUSH1 0x20 DUP3 CALLDATALOAD SWAP3 ADD SWAP2 PUSH1 0x1 PUSH1 0x1 PUSH1 0x40 SHL SUB DUP2 GT PUSH2 0x139 JUMPI DUP1 CALLDATASIZE SUB DUP4 SGT PUSH2 0x139 JUMPI PUSH2 0x1036 PUSH1 0x20 SWAP3 DUP4 SWAP3 PUSH1 0x1 SWAP6 PUSH2 0xF9F JUMP JUMPDEST SWAP9 ADD SWAP7 ADD SWAP5 SWAP4 ADD SWAP2 SWAP1 PUSH2 0xFD6 JUMP JUMPDEST ISZERO PUSH2 0x139 JUMPI JUMP JUMPDEST PUSH4 0x4E487B71 PUSH1 0xE0 SHL PUSH0 MSTORE PUSH1 0x11 PUSH1 0x4 MSTORE PUSH1 0x24 PUSH0 REVERT JUMPDEST SWAP1 DUP2 PUSH1 0x1 SHL SWAP2 DUP1 DUP4 DIV PUSH1 0x2 EQ SWAP1 ISZERO OR ISZERO PUSH2 0x68F JUMPI JUMP JUMPDEST SWAP1 PUSH1 0xA0 DUP3 MUL SWAP2 DUP1 DUP4 DIV PUSH1 0xA0 EQ SWAP1 ISZERO OR ISZERO PUSH2 0x68F JUMPI JUMP JUMPDEST PUSH1 0x1 DUP2 SWAP1 SHL SWAP2 SWAP1 PUSH1 0x1 PUSH1 0x1 PUSH1 0xFF SHL SUB DUP2 AND SUB PUSH2 0x68F JUMPI JUMP JUMPDEST SWAP1 PUSH2 0x120 DUP3 MUL SWAP2 DUP1 DUP4 DIV PUSH2 0x120 EQ SWAP1 ISZERO OR ISZERO PUSH2 0x68F JUMPI JUMP JUMPDEST SWAP5 SWAP4 SWAP3 PUSH0 SWAP4 PUSH2 0x10D8 PUSH2 0x10E6 SWAP4 PUSH1 0x40 SWAP6 PUSH1 0x60 DUP11 MSTORE PUSH1 0x60 DUP11 ADD SWAP2 PUSH2 0xFBF JUMP JUMPDEST SWAP2 DUP8 DUP4 SUB PUSH1 0x20 DUP10 ADD MSTORE PUSH2 0xFBF JUMP JUMPDEST SWAP4 ADD MSTORE JUMP JUMPDEST SWAP5 SWAP4 SWAP3 PUSH1 0x1 SWAP4 PUSH2 0x10D8 PUSH2 0x10E6 SWAP4 PUSH1 0x40 SWAP6 PUSH1 0x60 DUP11 MSTORE PUSH1 0x60 DUP11 ADD SWAP2 PUSH2 0xFBF JUMP JUMPDEST SWAP1 PUSH2 0x1113 DUP3 PUSH2 0x6CE JUMP JUMPDEST PUSH2 0x1120 PUSH1 0x40 MLOAD SWAP2 DUP3 PUSH2 0x6A8 JUMP JUMPDEST DUP3 DUP2 MSTORE DUP1 SWAP3 PUSH2 0x1131 PUSH1 0x1F NOT SWAP2 PUSH2 0x6CE JUMP JUMPDEST ADD SWAP1 PUSH1 0x20 CALLDATASIZE SWAP2 ADD CALLDATACOPY JUMP JUMPDEST SWAP1 PUSH1 0x1 LT ISZERO PUSH2 0x117B JUMPI PUSH1 0x20 DUP2 ADD CALLDATALOAD SWAP1 PUSH1 0x1E NOT DUP2 CALLDATASIZE SUB ADD DUP3 SLT ISZERO PUSH2 0x139 JUMPI ADD SWAP1 DUP2 CALLDATALOAD SWAP2 PUSH1 0x1 PUSH1 0x1 PUSH1 0x40 SHL SUB DUP4 GT PUSH2 0x139 JUMPI PUSH1 0x20 ADD DUP3 CALLDATASIZE SUB DUP2 SGT PUSH2 0x139 JUMPI SWAP2 SWAP1 JUMP JUMPDEST PUSH4 0x4E487B71 PUSH1 0xE0 SHL PUSH0 MSTORE PUSH1 0x32 PUSH1 0x4 MSTORE PUSH1 0x24 PUSH0 REVERT JUMPDEST SWAP1 ISZERO PUSH2 0x117B JUMPI DUP1 CALLDATALOAD SWAP1 PUSH1 0x1E NOT DUP2 CALLDATASIZE SUB ADD DUP3 SLT ISZERO PUSH2 0x139 JUMPI ADD SWAP1 DUP2 CALLDATALOAD SWAP2 PUSH1 0x1 PUSH1 0x1 PUSH1 0x40 SHL SUB DUP4 GT PUSH2 0x139 JUMPI PUSH1 0x20 ADD DUP3 CALLDATASIZE SUB DUP2 SGT PUSH2 0x139 JUMPI SWAP2 SWAP1 JUMP JUMPDEST SWAP2 SWAP1 DUP2 LT ISZERO PUSH2 0x117B JUMPI PUSH1 0x5 SHL DUP2 ADD CALLDATALOAD SWAP1 PUSH1 0x1E NOT DUP2 CALLDATASIZE SUB ADD DUP3 SLT ISZERO PUSH2 0x139 JUMPI ADD SWAP1 DUP2 CALLDATALOAD SWAP2 PUSH1 0x1 PUSH1 0x1 PUSH1 0x40 SHL SUB DUP4 GT PUSH2 0x139 JUMPI PUSH1 0x20 ADD DUP3 CALLDATASIZE SUB DUP2 SGT PUSH2 0x139 JUMPI SWAP2 SWAP1 JUMP JUMPDEST SWAP1 PUSH1 0x80 DUP3 ADD DUP1 SWAP3 GT PUSH2 0x68F JUMPI JUMP JUMPDEST SWAP1 PUSH1 0x20 DUP3 ADD DUP1 SWAP3 GT PUSH2 0x68F JUMPI JUMP JUMPDEST SWAP1 PUSH2 0x100 DUP3 ADD DUP1 SWAP3 GT PUSH2 0x68F JUMPI JUMP JUMPDEST SWAP1 PUSH1 0x1 DUP3 ADD DUP1 SWAP3 GT PUSH2 0x68F JUMPI JUMP JUMPDEST PUSH1 0x2 NOT DUP2 ADD SWAP2 SWAP1 DUP3 GT PUSH2 0x68F JUMPI JUMP JUMPDEST PUSH1 0x1 NOT DUP2 ADD SWAP2 SWAP1 DUP3 GT PUSH2 0x68F JUMPI JUMP JUMPDEST PUSH0 NOT DUP2 ADD SWAP2 SWAP1 DUP3 GT PUSH2 0x68F JUMPI JUMP JUMPDEST PUSH1 0x40 MLOAD SWAP1 PUSH2 0x127F PUSH2 0x120 DUP4 PUSH2 0x6A8 JUMP JUMPDEST PUSH2 0x100 DUP3 MSTORE PUSH32 0xCB3E287E85A763AF267492AB572E99AB3F370D275CEC1DA1AAA9075FF05F79BE PUSH2 0x100 DUP4 PUSH16 0x24AA2B2F08F0A91260805272DC51051 PUSH1 0x20 DUP3 ADD MSTORE PUSH32 0xC6E47AD4FA403B02B4510B647AE3D1770BAC0326A805BBEFD48056C8C121BDB8 PUSH1 0x40 DUP3 ADD MSTORE PUSH16 0x13E02B6052719F607DACD3A088274F65 PUSH1 0x60 DUP3 ADD MSTORE PUSH32 0x596BD0D09920B61AB5DA61BBDC7F5049334CF11213945D57E5AC7D055D042B7E PUSH1 0x80 DUP3 ADD MSTORE PUSH16 0xCE5D527727D6E118CC9CDC6DA2E351A PUSH1 0xA0 DUP3 ADD MSTORE PUSH32 0xADFD9BAA8CBDD3A76D429A695160D12C923AC9CC3BACA289E193548608B82801 PUSH1 0xC0 DUP3 ADD MSTORE PUSH16 0x606C4A02EA734CC32ACD2B02BC28B99 PUSH1 0xE0 DUP3 ADD MSTORE ADD MSTORE JUMP JUMPDEST PUSH1 0x40 MLOAD SWAP1 PUSH2 0x1386 PUSH1 0xA0 DUP4 PUSH2 0x6A8 JUMP JUMPDEST PUSH1 0x80 DUP3 MSTORE PUSH32 0xFCF5E095D5D00AF600DB18CB2C04B3EDD03CC744A2888AE40CAA232946C5E7E1 PUSH1 0x80 DUP4 PUSH16 0x17F1D3A73197D7942695638C4FA9AC0F PUSH1 0x20 DUP3 ADD MSTORE PUSH32 0xC3688C4F9774B905A14E3A3F171BAC586C55E83FF97A1AEFFB3AF00ADB22C6BB PUSH1 0x40 DUP3 ADD MSTORE PUSH16 0x8B3F481E3AAA0F1A09E30ED741D8AE4 PUSH1 0x60 DUP3 ADD MSTORE ADD MSTORE JUMP JUMPDEST ISZERO PUSH2 0x140B JUMPI JUMP JUMPDEST PUSH1 0x40 MLOAD PUSH3 0x461BCD PUSH1 0xE5 SHL DUP2 MSTORE PUSH1 0x20 PUSH1 0x4 DUP3 ADD MSTORE PUSH1 0xD PUSH1 0x24 DUP3 ADD MSTORE PUSH13 0x10DA1958DACC8811985A5B1959 PUSH1 0x9A SHL PUSH1 0x44 DUP3 ADD MSTORE PUSH1 0x64 SWAP1 REVERT JUMPDEST ISZERO PUSH2 0x1447 JUMPI JUMP JUMPDEST PUSH1 0x40 MLOAD PUSH3 0x461BCD PUSH1 0xE5 SHL DUP2 MSTORE PUSH1 0x20 PUSH1 0x4 DUP3 ADD MSTORE PUSH1 0xD PUSH1 0x24 DUP3 ADD MSTORE PUSH13 0x10DA1958DACCC811985A5B1959 PUSH1 0x9A SHL PUSH1 0x44 DUP3 ADD MSTORE PUSH1 0x64 SWAP1 REVERT JUMPDEST RETURNDATASIZE ISZERO PUSH2 0x14A6 JUMPI RETURNDATASIZE SWAP1 PUSH2 0x148D DUP3 PUSH2 0x6CE JUMP JUMPDEST SWAP2 PUSH2 0x149B PUSH1 0x40 MLOAD SWAP4 DUP5 PUSH2 0x6A8 JUMP JUMPDEST DUP3 MSTORE RETURNDATASIZE PUSH0 PUSH1 0x20 DUP5 ADD RETURNDATACOPY JUMP JUMPDEST PUSH1 0x60 SWAP1 JUMP JUMPDEST PUSH0 DUP1 SWAP2 PUSH1 0x20 DUP2 MLOAD SWAP2 ADD PUSH1 0xE GAS STATICCALL POP PUSH2 0x73A PUSH2 0x147C JUMP JUMPDEST DUP1 MLOAD SWAP2 SWAP1 DUP3 SWAP1 PUSH1 0x20 ADD DUP3 MCOPY ADD PUSH0 DUP2 MSTORE SWAP1 JUMP JUMPDEST PUSH0 SWAP2 SWAP1 PUSH2 0x1E0 PUSH2 0x14F2 DUP5 SWAP4 PUSH1 0x40 MLOAD SWAP3 DUP4 SWAP2 PUSH2 0x8D7 PUSH1 0x20 DUP5 ADD DUP1 SWAP8 PUSH2 0x14C1 JUMP JUMPDEST MLOAD SWAP1 PUSH1 0xB GAS STATICCALL POP PUSH2 0x73A PUSH2 0x147C JUMP JUMPDEST PUSH1 0x20 DUP2 MLOAD SWAP2 ADD MLOAD SWAP1 PUSH1 0x20 DUP2 LT PUSH2 0x1515 JUMPI POP SWAP1 JUMP JUMPDEST PUSH0 NOT SWAP1 PUSH1 0x20 SUB PUSH1 0x3 SHL SHL AND SWAP1 JUMP JUMPDEST PUSH0 DUP1 SWAP2 PUSH1 0x20 DUP2 MLOAD SWAP2 ADD PUSH1 0xC GAS STATICCALL POP PUSH2 0x73A PUSH2 0x147C JUMP JUMPDEST SWAP1 PUSH2 0x15B4 PUSH2 0x8D7 SWAP2 PUSH2 0x1E0 PUSH0 SWAP7 DUP8 DUP1 DUP1 SWAP9 PUSH1 0x40 MLOAD PUSH2 0x158E PUSH1 0x20 DUP3 PUSH2 0x1560 DUP3 DUP3 ADD DUP1 SWAP7 PUSH2 0x14C1 JUMP JUMPDEST PUSH32 0x73EDA753299D7D483339D80809A1D80553BDA402FFFE5BFEFFFFFFFF00000000 DUP2 MSTORE SUB DUP1 DUP5 MSTORE ADD DUP3 PUSH2 0x6A8 JUMP JUMPDEST MLOAD SWAP1 PUSH1 0xC GAS STATICCALL POP PUSH2 0x8D7 PUSH2 0x15A0 PUSH2 0x147C JUMP JUMPDEST PUSH1 0x40 MLOAD SWAP7 DUP8 SWAP6 PUSH2 0x8D7 PUSH1 0x20 DUP9 ADD DUP1 SWAP12 PUSH2 0x14C1 JUMP JUMPDEST MLOAD SWAP1 PUSH1 0xF GAS STATICCALL POP PUSH1 0x1 PUSH2 0x15C8 PUSH2 0x8F3 PUSH2 0x147C JUMP JUMPDEST EQ SWAP1 JUMP JUMPDEST PUSH0 SWAP2 SWAP1 PUSH2 0x1E0 PUSH2 0x15EB DUP5 SWAP4 PUSH1 0x40 MLOAD SWAP3 DUP4 SWAP2 PUSH2 0x8D7 PUSH1 0x20 DUP5 ADD DUP1 SWAP8 PUSH2 0x14C1 JUMP JUMPDEST MLOAD SWAP1 PUSH1 0xD GAS STATICCALL POP PUSH2 0x73A PUSH2 0x147C JUMP JUMPDEST PUSH0 NOT DUP2 EQ PUSH2 0x68F JUMPI PUSH1 0x1 ADD SWAP1 JUMP JUMPDEST ISZERO PUSH2 0x160F JUMPI JUMP JUMPDEST PUSH1 0x40 MLOAD PUSH3 0x461BCD PUSH1 0xE5 SHL DUP2 MSTORE PUSH1 0x20 PUSH1 0x4 DUP3 ADD MSTORE PUSH1 0xA PUSH1 0x24 DUP3 ADD MSTORE PUSH10 0x3130B2102398903632B7 PUSH1 0xB1 SHL PUSH1 0x44 DUP3 ADD MSTORE PUSH1 0x64 SWAP1 REVERT JUMPDEST ISZERO PUSH2 0x1648 JUMPI JUMP JUMPDEST PUSH1 0x40 MLOAD PUSH3 0x461BCD PUSH1 0xE5 SHL DUP2 MSTORE PUSH1 0x20 PUSH1 0x4 DUP3 ADD MSTORE PUSH1 0xD PUSH1 0x24 DUP3 ADD MSTORE PUSH13 0x10DA1958DACC4811985A5B1959 PUSH1 0x9A SHL PUSH1 0x44 DUP3 ADD MSTORE PUSH1 0x64 SWAP1 REVERT JUMPDEST ISZERO PUSH2 0x1684 JUMPI JUMP JUMPDEST PUSH1 0x40 MLOAD PUSH3 0x461BCD PUSH1 0xE5 SHL DUP2 MSTORE PUSH1 0x20 PUSH1 0x4 DUP3 ADD MSTORE PUSH1 0xF PUSH1 0x24 DUP3 ADD MSTORE PUSH15 0x10DA1958DACC8B4C4811985A5B1959 PUSH1 0x8A SHL PUSH1 0x44 DUP3 ADD MSTORE PUSH1 0x64 SWAP1 REVERT JUMPDEST ISZERO PUSH2 0x16C2 JUMPI JUMP JUMPDEST PUSH1 0x40 MLOAD PUSH3 0x461BCD PUSH1 0xE5 SHL DUP2 MSTORE PUSH1 0x20 PUSH1 0x4 DUP3 ADD MSTORE PUSH1 0xF PUSH1 0x24 DUP3 ADD MSTORE PUSH15 0x10DA1958DACC8B4C8811985A5B1959 PUSH1 0x8A SHL PUSH1 0x44 DUP3 ADD MSTORE PUSH1 0x64 SWAP1 REVERT JUMPDEST PUSH1 0x1F DUP3 GT PUSH2 0x1706 JUMPI POP POP POP JUMP JUMPDEST PUSH0 MSTORE PUSH1 0x20 PUSH0 KECCAK256 SWAP1 PUSH1 0x20 PUSH1 0x1F DUP5 ADD PUSH1 0x5 SHR DUP4 ADD SWAP4 LT PUSH2 0x173E JUMPI JUMPDEST PUSH1 0x1F ADD PUSH1 0x5 SHR ADD SWAP1 JUMPDEST DUP2 DUP2 LT PUSH2 0x1733 JUMPI POP POP JUMP JUMPDEST PUSH0 DUP2 SSTORE PUSH1 0x1 ADD PUSH2 0x1728 JUMP JUMPDEST SWAP1 SWAP2 POP DUP2 SWAP1 PUSH2 0x171F JUMP JUMPDEST SWAP2 SWAP1 PUSH1 0x1 PUSH1 0x1 PUSH1 0x40 SHL SUB DUP2 GT PUSH2 0x6C9 JUMPI PUSH2 0x176C DUP2 PUSH2 0x1766 PUSH0 SLOAD PUSH2 0x940 JUMP JUMPDEST PUSH0 PUSH2 0x16F9 JUMP JUMPDEST PUSH0 PUSH1 0x1F DUP3 GT PUSH1 0x1 EQ PUSH2 0x17A9 JUMPI DUP2 SWAP1 PUSH2 0x179A SWAP4 SWAP5 PUSH0 SWAP3 PUSH2 0x179E JUMPI JUMPDEST POP POP DUP2 PUSH1 0x1 SHL SWAP2 PUSH0 NOT SWAP1 PUSH1 0x3 SHL SHR NOT AND OR SWAP1 JUMP JUMPDEST PUSH0 SSTORE JUMP JUMPDEST ADD CALLDATALOAD SWAP1 POP PUSH0 DUP1 PUSH2 0x1786 JUMP JUMPDEST PUSH0 DUP1 MSTORE PUSH1 0x1F NOT DUP3 AND SWAP4 PUSH32 0x290DECD9548B62A8D60345A988386FC84BA6BC95484008F6362F93160EF3E563 SWAP2 PUSH0 JUMPDEST DUP7 DUP2 LT PUSH2 0x180C JUMPI POP DUP4 PUSH1 0x1 SWAP6 SWAP7 LT PUSH2 0x17F3 JUMPI JUMPDEST POP POP POP DUP2 SHL ADD PUSH0 SSTORE JUMP JUMPDEST ADD CALLDATALOAD PUSH0 NOT PUSH1 0x3 DUP5 SWAP1 SHL PUSH1 0xF8 AND SHR NOT AND SWAP1 SSTORE PUSH0 DUP1 DUP1 PUSH2 0x17E9 JUMP JUMPDEST SWAP1 SWAP3 PUSH1 0x20 PUSH1 0x1 DUP2 SWAP3 DUP7 DUP7 ADD CALLDATALOAD DUP2 SSTORE ADD SWAP5 ADD SWAP2 ADD PUSH2 0x17D6 JUMP JUMPDEST SWAP1 PUSH1 0x80 SWAP3 PUSH1 0x20 SWAP2 ADD ADD CALLDATACOPY JUMP JUMPDEST SWAP1 PUSH2 0x100 SWAP3 PUSH1 0x20 SWAP2 ADD ADD CALLDATACOPY JUMP INVALID PUSH20 0xEDA753299D7D483339D80809A1D80553BDA402FF INVALID JUMPDEST INVALID SELFDESTRUCT SELFDESTRUCT SELFDESTRUCT SELFDESTRUCT STOP STOP STOP ADD LOG2 PUSH5 0x6970667358 0x22 SLT KECCAK256 SIGNEXTEND 0xB0 RJUMP 0x6A06 DIV 0x4C BLOCKHASH MULMOD BASEFEE 0xA9 CODESIZE PUSH5 0xC67FEB54B0 0xEF CALLDATASIZE 0xB9 0xFC DUP12 PUSH30 0xCB2856958357CB9164736F6C634300081F0033290DECD9548B62A8D60345 0xA9 DUP9 CODESIZE PUSH16 0xC84BA6BC95484008F6362F93160EF3E5 PUSH4 0x0 "
		},
		"gasEstimates": {
			"creation": {
				"codeDepositCost": "1258200",
				"executionCost": "infinite",
				"totalCost": "infinite"
			},
			"external": {
				"Check(bytes[],bytes[],bytes)": "infinite",
				"CheckTest(bytes[],bytes[])": "infinite",
				"EqualPairingCheck(bytes,bytes,bytes,bytes)": "infinite",
				"G1Add(bytes,bytes)": "infinite",
				"G1Mul(bytes,uint256)": "infinite",
				"G1Muls(bytes)": "infinite",
				"G2Add(bytes,bytes)": "infinite",
				"G2Mul(bytes,uint256)": "infinite",
				"G2Muls(bytes)": "infinite",
				"Pairing(bytes,bytes,bytes,bytes)": "infinite",
				"ZeroCheck(bytes)": "656",
				"lastg()": "infinite",
				"w()": "2316",
				"why1(bytes[],bytes[])": "infinite",
				"why2(bytes[],bytes[])": "infinite"
			},
			"internal": {
				"CopyBytes(bytes calldata,uint256,bytes memory,uint256,uint256)": "infinite",
				"CopyUint(uint256,bytes memory,uint256)": "infinite",
				"_cdCopy(bytes calldata,uint256,bytes memory,uint256,uint256)": "infinite",
				"_mstoreScalar(bytes memory,uint256,uint256)": "infinite"
			}
		},
		"methodIdentifiers": {
			"Check(bytes[],bytes[],bytes)": "e86d06c7",
			"CheckTest(bytes[],bytes[])": "1feb6a03",
			"EqualPairingCheck(bytes,bytes,bytes,bytes)": "6f18b669",
			"G1Add(bytes,bytes)": "4d919405",
			"G1Mul(bytes,uint256)": "c1f2c915",
			"G1Muls(bytes)": "6592041a",
			"G2Add(bytes,bytes)": "d6385d60",
			"G2Mul(bytes,uint256)": "af1d0bd9",
			"G2Muls(bytes)": "3f009c16",
			"Pairing(bytes,bytes,bytes,bytes)": "5cdc73ef",
			"ZeroCheck(bytes)": "a66339b7",
			"lastg()": "8a2ba01c",
			"w()": "205c9cc7",
			"why1(bytes[],bytes[])": "3d4e635f",
			"why2(bytes[],bytes[])": "01f96f4a"
		}
	},
	"abi": [
		{
			"inputs": [
				{
					"internalType": "bytes[]",
					"name": "g1s",
					"type": "bytes[]"
				},
				{
					"internalType": "bytes[]",
					"name": "g2s",
					"type": "bytes[]"
				},
				{
					"internalType": "bytes",
					"name": "gtau",
					"type": "bytes"
				}
			],
			"name": "Check",
			"outputs": [
				{
					"internalType": "bool",
					"name": "",
					"type": "bool"
				}
			],
			"stateMutability": "nonpayable",
			"type": "function"
		},
		{
			"inputs": [
				{
					"internalType": "bytes[]",
					"name": "g1s",
					"type": "bytes[]"
				},
				{
					"internalType": "bytes[]",
					"name": "g2s",
					"type": "bytes[]"
				}
			],
			"name": "CheckTest",
			"outputs": [
				{
					"internalType": "bool",
					"name": "",
					"type": "bool"
				}
			],
			"stateMutability": "nonpayable",
			"type": "function"
		},
		{
			"inputs": [
				{
					"internalType": "bytes",
					"name": "p1",
					"type": "bytes"
				},
				{
					"internalType": "bytes",
					"name": "p2",
					"type": "bytes"
				},
				{
					"internalType": "bytes",
					"name": "p3",
					"type": "bytes"
				},
				{
					"internalType": "bytes",
					"name": "p4",
					"type": "bytes"
				}
			],
			"name": "EqualPairingCheck",
			"outputs": [
				{
					"internalType": "bool",
					"name": "",
					"type": "bool"
				}
			],
			"stateMutability": "view",
			"type": "function"
		},
		{
			"inputs": [
				{
					"internalType": "bytes",
					"name": "p1",
					"type": "bytes"
				},
				{
					"internalType": "bytes",
					"name": "p2",
					"type": "bytes"
				}
			],
			"name": "G1Add",
			"outputs": [
				{
					"internalType": "bytes",
					"name": "point",
					"type": "bytes"
				}
			],
			"stateMutability": "view",
			"type": "function"
		},
		{
			"inputs": [
				{
					"internalType": "bytes",
					"name": "p1",
					"type": "bytes"
				},
				{
					"internalType": "uint256",
					"name": "scalar",
					"type": "uint256"
				}
			],
			"name": "G1Mul",
			"outputs": [
				{
					"internalType": "bytes",
					"name": "point",
					"type": "bytes"
				}
			],
			"stateMutability": "view",
			"type": "function"
		},
		{
			"inputs": [
				{
					"internalType": "bytes",
					"name": "d",
					"type": "bytes"
				}
			],
			"name": "G1Muls",
			"outputs": [
				{
					"internalType": "bytes",
					"name": "point",
					"type": "bytes"
				}
			],
			"stateMutability": "view",
			"type": "function"
		},
		{
			"inputs": [
				{
					"internalType": "bytes",
					"name": "p1",
					"type": "bytes"
				},
				{
					"internalType": "bytes",
					"name": "p2",
					"type": "bytes"
				}
			],
			"name": "G2Add",
			"outputs": [
				{
					"internalType": "bytes",
					"name": "point",
					"type": "bytes"
				}
			],
			"stateMutability": "view",
			"type": "function"
		},
		{
			"inputs": [
				{
					"internalType": "bytes",
					"name": "p1",
					"type": "bytes"
				},
				{
					"internalType": "uint256",
					"name": "scalar",
					"type": "uint256"
				}
			],
			"name": "G2Mul",
			"outputs": [
				{
					"internalType": "bytes",
					"name": "point",
					"type": "bytes"
				}
			],
			"stateMutability": "view",
			"type": "function"
		},
		{
			"inputs": [
				{
					"internalType": "bytes",
					"name": "d",
					"type": "bytes"
				}
			],
			"name": "G2Muls",
			"outputs": [
				{
					"internalType": "bytes",
					"name": "point",
					"type": "bytes"
				}
			],
			"stateMutability": "view",
			"type": "function"
		},
		{
			"inputs": [
				{
					"internalType": "bytes",
					"name": "p1",
					"type": "bytes"
				},
				{
					"internalType": "bytes",
					"name": "p2",
					"type": "bytes"
				},
				{
					"internalType": "bytes",
					"name": "p3",
					"type": "bytes"
				},
				{
					"internalType": "bytes",
					"name": "p4",
					"type": "bytes"
				}
			],
			"name": "Pairing",
			"outputs": [
				{
					"internalType": "bool",
					"name": "",
					"type": "bool"
				}
			],
			"stateMutability": "view",
			"type": "function"
		},
		{
			"inputs": [
				{
					"internalType": "bytes",
					"name": "x",
					"type": "bytes"
				}
			],
			"name": "ZeroCheck",
			"outputs": [
				{
					"internalType": "bool",
					"name": "ok",
					"type": "bool"
				}
			],
			"stateMutability": "pure",
			"type": "function"
		},
		{
			"inputs": [],
			"name": "lastg",
			"outputs": [
				{
					"internalType": "bytes",
					"name": "",
					"type": "bytes"
				}
			],
			"stateMutability": "view",
			"type": "function"
		},
		{
			"inputs": [],
			"name": "w",
			"outputs": [
				{
					"internalType": "bool",
					"name": "",
					"type": "bool"
				}
			],
			"stateMutability": "view",
			"type": "function"
		},
		{
			"inputs": [
				{
					"internalType": "bytes[]",
					"name": "g1s",
					"type": "bytes[]"
				},
				{
					"internalType": "bytes[]",
					"name": "g2s",
					"type": "bytes[]"
				}
			],
			"name": "why1",
			"outputs": [],
			"stateMutability": "nonpayable",
			"type": "function"
		},
		{
			"inputs": [
				{
					"internalType": "bytes[]",
					"name": "g1s",
					"type": "bytes[]"
				},
				{
					"internalType": "bytes[]",
					"name": "g2s",
					"type": "bytes[]"
				}
			],
			"name": "why2",
			"outputs": [],
			"stateMutability": "nonpayable",
			"type": "function"
		}
	]
}