{
	"data": {
		"bytecode": {
			"linkReferences": {},
			"object": "6080346101985760a081016001600160401b0381118282101761018457604052608081526f17f1d3a73197d7942695638c4fa9ac0f60208201527fc3688c4f9774b905a14e3a3f171bac586c55e83ff97a1aeffb3af00adb22c6bb60408201526f08b3f481e3aaa0f1a09e30ed741d8ae460608201527ffcf5e095d5d00af600db18cb2c04b3edd03cc744a2888ae40caa232946c5e7e160808201525f54600190600181811c9116801561017a575b602082101461016657601f8111610115575b50505f80805260205f5160206122d35f395f51905f525b608083106100fd576101015f5560ff1960015416600155604051612136908161019d8239f35b602060018192848701518155019201920191906100d7565b5f8052601f0160051c5f5160206122d35f395f51905f52017f290decd9548b62a8d60345a988386fc84ba6bc95484008f6362f93160ef3e5675b81811061015c57506100c0565b5f8155820161014f565b634e487b7160e01b5f52602260045260245ffd5b90607f16906100ae565b634e487b7160e01b5f52604160045260245ffd5b5f80fdfe60806040526004361015610011575f80fd5b5f3560e01c80630632523914610134578063205c9cc71461012f5780633f009c161461012a5780634d9194051461012557806351e543081461012057806354b57f701461011b5780635cdc73ef146101165780636592041a146101115780636f18b6691461010c5780638a2ba01c14610107578063a66339b714610102578063af1d0bd9146100fd578063c1f2c915146100f8578063c588e555146100f3578063d6385d60146100ee578063e63c1828146100e9578063e6859b9a146100e45763e86d06c7146100df575f80fd5b610bf2565b610ba2565b610ad9565b610abf565b610a2c565b6109ed565b61097f565b61092f565b610913565b6108f7565b6108de565b61087f565b6107a7565b6103c0565b6103a6565b610333565b610214565b6101ee565b9181601f84011215610166578235916001600160401b038311610166576020838186019501011161016657565b5f80fd5b9181601f84011215610166578235916001600160401b038311610166576020808501948460051b01011161016657565b6060600319820112610166576004356001600160401b03811161016657816101c491600401610139565b92909291602435906001600160401b038211610166576101e69160040161016a565b909160443590565b3461016657602061020a6102013661019a565b9392909261127e565b6040519015158152f35b34610166575f36600319011261016657602060ff600154166040519015158152f35b634e487b7160e01b5f52604160045260245ffd5b90601f801991011681019081106001600160401b0382111761026b57604052565b610236565b6001600160401b03811161026b57601f01601f191660200190565b92919261029782610270565b916102a5604051938461024a565b829481845281830111610166578281602093845f960137010152565b9080601f83011215610166578160206102dc9335910161028b565b90565b602060031982011261016657600435906001600160401b038211610166576102dc916004016102c1565b602060409281835280519182918282860152018484015e5f828201840152601f01601f1916010190565b346101665761035861034c610347366102df565b61139f565b60405191829182610309565b0390f35b906040600319830112610166576004356001600160401b0381116101665782610387916004016102c1565b91602435906001600160401b038211610166576102dc916004016102c1565b346101665761035861034c6103ba3661035c565b906113c7565b34610166576103ce3661019a565b9293909161041260405160208101906103fc816103ee88878c8a8861149a565b03601f19810183528261024a565b5190205f5160206120e15f395f51905f52900690565b9261042c6104276104228361107f565b6114c1565b611530565b9561043c6104276104228461107f565b958591865f968a5f985b61044f8861107f565b8a116104e457908a918a898b6104658a836110ab565b83146104c4576104a38461049e6104bb9896886104986104b3985f5160206120e15f395f51905f529b986104ae98611132565b50612050565b611562565b9182016020018b9052565b611571565b970998611071565b97948b90610446565b505050965f5160206120e15f395f51905f529150916104bb920998611071565b5094509089899394875f945f955b6104fb8361107f565b871161058d5787908761050e86866110ab565b811461057157916105626105548361049e5f5160206120e15f395f51905f52958b61054e8961054861054261056a9c6105e8565b50610709565b506105e8565b50612069565b8881016020018a9052611571565b970996611071565b95946104f2565b509561056a915f5160206120e15f395f51905f52910996611071565b506105c36105c89189866105bd6105ac6105a68f61139f565b9261139f565b936105b56111b2565b93369161028b565b9161160f565b61159b565b60405160018152602090f35b634e487b7160e01b5f52603260045260245ffd5b6003548110156106005760035f5260205f2001905f90565b6105d4565b6002548110156106005760025f5260205f2001905f90565b90600182811c9216801561064b575b602083101461063757565b634e487b7160e01b5f52602260045260245ffd5b91607f169161062c565b604051905f825f54916106678361061d565b80835292600181169081156106ea575060011461068d575b61068b9250038361024a565b565b505f80805290917f290decd9548b62a8d60345a988386fc84ba6bc95484008f6362f93160ef3e5635b8183106106ce57505090602061068b9282010161067f565b60209193508060019154838589010152019101909184926106b6565b6020925061068b94915060ff191682840152151560051b82010161067f565b9060405191825f82549261071c8461061d565b80845293600181169081156107855750600114610741575b5061068b9250038361024a565b90505f9291925260205f20905f915b81831061076957505090602061068b928201015f610734565b6020919350806001915483858901015201910190918492610750565b90506020925061068b94915060ff191682840152151560051b8201015f610734565b34610166576020366003190112610166576004356002548110156101665761034c6103589160025f527f405787fa12a823e0f2b7631cc41b3ba8828b3321ca811111fa75cd3aa3bb5ace01610709565b906080600319830112610166576004356001600160401b0381116101665782610822916004016102c1565b916024356001600160401b0381116101665781610841916004016102c1565b916044356001600160401b0381116101665782610860916004016102c1565b91606435906001600160401b038211610166576102dc916004016102c1565b34610166575f806108b46108b46108ba6103ee61089b366107f7565b91939296906040519687956108b460208801809b6113b5565b906113b5565b5190600f5afa50602060016108d56108d0611370565b6115d7565b14604051908152f35b346101665761035861034c6108f2366102df565b6115f9565b3461016657602061020a61090a366107f7565b9291909161160f565b34610166575f3660031901126101665761035861034c5f610709565b34610166576020366003190112610166576004356001600160401b0381116101665761020a6109646020923690600401610139565b50606081013590604081013590602081013590351717171590565b34610166576040366003190112610166576004356001600160401b038111610166575f6109b181923690600401610139565b6109db6020806024359360405194818692848401988937820190838201520301808452018261024a565b5190600e5afa5061035861034c611370565b34610166576040366003190112610166576004356001600160401b0381116101665761034c610a236103589236906004016102c1565b602435906116a2565b34610166576080366003190112610166576004356001600160401b03811161016657610a5c90369060040161016a565b6024356001600160401b03811161016657610a7b90369060040161016a565b919092604435926001600160401b0384116101665761035894610aa5610aad953690600401610139565b949093611b46565b60405190151581529081906020820190565b346101665761035861034c610ad33661035c565b90611f44565b34610166576040366003190112610166576004356001600160401b03811161016657610b0990369060040161016a565b906024356001600160401b03811161016657610b2990369060040161016a565b5f1984018481119392905f855b610b9d57818111610b645780610b59610b53610b5e938a89611132565b90611f72565b611071565b85610b36565b50505f19820182811191905f835b610b9d57818111610b9b5780610b59610b8f610b95938887611132565b90611fc3565b83610b72565b005b61105d565b34610166576020366003190112610166576004356003548110156101665761034c6103589160035f527fc2575a0e9e593c00f959f8c92f12db2869c3395a3b0502d05e2516446f71f85b01610709565b34610166576060366003190112610166576004356001600160401b03811161016657610c2290369060040161016a565b6024356001600160401b03811161016657610c4190369060040161016a565b9290916044356001600160401b03811161016657610c66909491943690600401610139565b94610c7a83610c74836114d4565b146116db565b610c9660405160208101906103fc816103ee888b888c886116e2565b93610cb360405160208101906103fc816103ee898c898988611712565b96600193610cc3610427856114ea565b98610cd8610427610cd38961108d565b611500565b98610ced610427610ce88861107f565b6114ea565b99610cfd610427610cd38b61109c565b5f99908a5b610d0b8a61107f565b8c11610d7f575f5160206120e15f395f51905f528f610d708f918f8f8f8f97610d628186610d5c87868e610d789f6080610d4f6104ae9d610d679c610d5794611132565b905014611730565b611132565b5061205d565b61157f565b92830160200152565b9c099b611071565b9a99610d02565b5095888c8f988f610d908c9b6115f9565b905f9b8a965f9d8e5b610dad610da8610da88b611518565b61107f565b10610e36578a8f918e928c8f610dc28d61107f565b83148015610e2d575b610e0d578d610d678561049e610e05999789610498610dfd995f5160206120e15f395f51905f529c996104ae99611132565b9a099e611071565b9d978e610d99565b505050995f5160206120e15f395f51905f52915091610e0592099e611071565b508c8314610dcb565b508893918c88928f8e610e598f610e4c9061139f565b610e54611769565b611f44565b995f998c988b5b610e6c610da88b61107f565b8d11610eb3575f5160206120e15f395f51905f528f610ea48f8f908f8f8f97610d628186610d5c6104ae97610d6796610eac9e611132565b9c099c611071565b9b99610e60565b509388888e610ed1610ec48f6115f9565b610ecc6111b2565b6113c7565b905f986001955f9a5b610ee6610da888611518565b8c11610f6e57898e918d8b8e8b83148015610f5d575b610f3d578c610d678561049e610f36999789610498610f2e995f5160206120e15f395f51905f529c996104ae99611132565b99099b611071565b9a96610eda565b505050985f5160206120e15f395f51905f52915091610f3692099b611071565b50610f678c61158d565b8314610efc565b50849650856105b58161102a8f6105c89e610feb6110579f859f9b9c6110329d6110379f9c61101a9c610fe1849f610fd69e6110209a610fcd610fd6610fc3610fdc95610fbd610fe69d61139f565b9b6110b8565b92906105b5611769565b936105b5610655565b9261160f565b612014565b61160f565b611871565b610ff36111b2565b9961101261100a6110038761158d565b8385611132565b98909b6110f2565b99909561107f565b91611132565b979094369161028b565b94369161028b565b6118af565b611052600161104961096485856110b8565b151514156118ed565b6110b8565b90611978565b634e487b7160e01b5f52601160045260245ffd5b5f198114610b9d5760010190565b5f19810191908211610b9d57565b600219810191908211610b9d57565b600119810191908211610b9d57565b91908203918211610b9d57565b901561060057803590601e19813603018212156101665701908135916001600160401b038311610166576020018236038113610166579190565b906001101561060057602081013590601e19813603018212156101665701908135916001600160401b038311610166576020018236038113610166579190565b91908110156106005760051b81013590601e19813603018212156101665701908135916001600160401b038311610166576020018236038113610166579190565b1561117a57565b60405162461bcd60e51b815260206004820152601060248201526f12d95e50da1958dacc4811985a5b195960821b6044820152606490fd5b604051906111c160a08361024a565b608082527ffcf5e095d5d00af600db18cb2c04b3edd03cc744a2888ae40caa232946c5e7e16080836f17f1d3a73197d7942695638c4fa9ac0f60208201527fc3688c4f9774b905a14e3a3f171bac586c55e83ff97a1aeffb3af00adb22c6bb60408201526f08b3f481e3aaa0f1a09e30ed741d8ae460608201520152565b1561124657565b60405162461bcd60e51b815260206004820152601060248201526f12d95e50da1958dacc8811985a5b195960821b6044820152606490fd5b919493949290925f5b6112908361109c565b81116113125761130d906112a488856110ab565b8114610b5957610b596113086112f46112cb6112c6610da8610da8878b6110ab565b610605565b506112d7858989611132565b92906105b56112ed6112e88c61107f565b6105e8565b5093610709565b610fd6611302368d8d61028b565b92610709565b611173565b611287565b50919293946001146113675761136293610fd661130261135d956105b56112e89561135461134c6113416111b2565b998361101a8161107f565b98909261107f565b5096369161028b565b61123f565b600190565b50505050600190565b3d1561139a573d9061138182610270565b9161138f604051938461024a565b82523d5f602084013e565b606090565b5f8091602081519101600e5afa506102dc611370565b805191908290602001825e015f815290565b5f91906103ee6113e684936040519283916108b46020840180976113b5565b5190600b5afa506102dc611370565b908060209392818452848401375f828201840152601f01601f1916010190565b90602083828152019060208160051b85010193835f915b83831061143c5750505050505090565b909192939495601f198282030186528635601e198436030181121561016657830190602082359201916001600160401b0381116101665780360383136101665761148c60209283926001956113f5565b98019601949301919061142c565b92906114b3906102dc95936040865260408601916113f5565b926020818503910152611415565b90816101200291610120830403610b9d57565b908160011b9180830460021490151715610b9d57565b9060a082029180830460a01490151715610b9d57565b906101208202918083046101201490151715610b9d57565b600181901b91906001600160ff1b03811603610b9d57565b9061153a82610270565b611547604051918261024a565b8281528092611558601f1991610270565b0190602036910137565b906101008201809211610b9d57565b9060208201809211610b9d57565b9060808201809211610b9d57565b9060018201809211610b9d57565b156115a257565b60405162461bcd60e51b815260206004820152600d60248201526c10da1958dad2d95e4811985a5b609a1b6044820152606490fd5b6020815191015190602081106115eb575090565b5f199060200360031b1b1690565b5f8091602081519101600c5afa506102dc611370565b9061168a6108b4916103ee5f968780809860405161166460208261163682820180966113b5565b7f73eda753299d7d483339d80809a1d80553bda402fffe5bfeffffffff00000000815203808452018261024a565b5190600c5afa506108b4611676611370565b6040519687956108b460208801809b6113b5565b5190600f5afa50600161169e6108d0611370565b1490565b5f919082916116cc602060405180936116be83830180976113b5565b90815203808452018261024a565b5190600c5afa506102dc611370565b1561016657565b9493925f936116ff61170d9360409560608a5260608a0191611415565b918783036020890152611415565b930152565b9493926001936116ff61170d9360409560608a5260608a0191611415565b1561173757565b60405162461bcd60e51b815260206004820152600a6024820152693130b2102398903632b760b11b6044820152606490fd5b604051906117796101208361024a565b61010082527fcb3e287e85a763af267492ab572e99ab3f370d275cec1da1aaa9075ff05f79be610100836f024aa2b2f08f0a91260805272dc5105160208201527fc6e47ad4fa403b02b4510b647ae3d1770bac0326a805bbefd48056c8c121bdb860408201526f13e02b6052719f607dacd3a088274f6560608201527f596bd0d09920b61ab5da61bbdc7f5049334cf11213945d57e5ac7d055d042b7e60808201526f0ce5d527727d6e118cc9cdc6da2e351a60a08201527fadfd9baa8cbdd3a76d429a695160d12c923ac9cc3baca289e193548608b8280160c08201526f0606c4a02ea734cc32acd2b02bc28b9960e08201520152565b1561187857565b60405162461bcd60e51b815260206004820152600f60248201526e10da1958dacc8b4c4811985a5b1959608a1b6044820152606490fd5b156118b657565b60405162461bcd60e51b815260206004820152600f60248201526e10da1958dacc8b4c8811985a5b1959608a1b6044820152606490fd5b156118f457565b60405162461bcd60e51b815260206004820152600d60248201526c10da1958daccc811985a5b1959609a1b6044820152606490fd5b601f821161193657505050565b5f5260205f20906020601f840160051c8301931061196e575b601f0160051c01905b818110611963575050565b5f8155600101611958565b909150819061194f565b91906001600160401b03811161026b5761199c816119965f5461061d565b5f611929565b5f601f82116001146119d95781906119ca93945f926119ce575b50508160011b915f199060031b1c19161790565b5f55565b013590505f806119b6565b5f8052601f198216937f290decd9548b62a8d60345a988386fc84ba6bc95484008f6362f93160ef3e563915f5b868110611a3c5750836001959610611a23575b505050811b015f55565b01355f19600384901b60f8161c191690555f8080611a19565b90926020600181928686013581550194019101611a06565b9092916001600160401b03811161026b57611a7981611a73845461061d565b84611929565b5f601f8211600114611aab578190611aa79394955f926119ce5750508160011b915f199060031b1c19161790565b9055565b601f19821694611abe845f5260205f2090565b915f5b878110611af8575083600195969710611adf575b505050811b019055565b01355f19600384901b60f8161c191690555f8080611ad5565b90926020600181928686013581550194019101611ac1565b92906114b3906102dc9593604086526040860191611415565b908151811015610600570160200190565b90821015610600570190565b959195949294611b5986610c74846114d4565b611b7560405160208101906103fc816103ee8b8d8989886116e2565b94611b92886040516103fc816103ee8c60208301958a8a88611712565b90600194611ba2610427866114ea565b99611bb2610427610cd38c61108d565b611bc1610427610ce88961107f565b9a611bd1610427610cd38361109c565b945f9a5f9b5b611be08b61107f565b8d11611c34578f8e611c258f928f8f908f87610d62611c2d9986610d5c8b8887610d575f5160206120e15f395f51905f529f610d4f6080916104ae9e610d679d611132565b9d099c611071565b9b9a611bd7565b50939a5093969a949b91985096949b611c4c906115f9565b5f9a8d978c5b8d611c62610da8610da88c611518565b10611ceb578f908c908f8f8e90611c788e61107f565b83148015611ce2575b611cc2578e610d678561049e611cbb999789610498611cb3995f5160206120e15f395f51905f529c996104ae99611132565b9b099d611071565b9c98611c52565b5050509a5f5160206120e15f395f51905f52915091611cbb92099d611071565b508d8314611c81565b509698959d949c929a9399611d07929c50610e4c91985061139f565b935f9a8d995f9c5b8d611d1c610da88d61107f565b10611d63578f5f5160206120e15f395f51905f52908f8f8f8f908f87610d62611d5c9986610d5c611d54996104ae98610d6797611132565b9d099d611071565b9c9a611d0f565b50949b5099610ec49197969d50611d7f9298959c9399506115f9565b5f98600195918a5b611d93610da888611518565b8c11611e1357898d918d8b8e8b83148015611e02575b611de2578c610d678561049e611ddb999789610498610f2e995f5160206120e15f395f51905f529c996104ae99611132565b9a96611d87565b505050985f5160206120e15f395f51905f52915091611ddb92099b611071565b50611e0c8c61158d565b8314611da9565b50611ebd99939b50611ec89a50611eb1965096611e47610fe66103fc93611eab979f9a611eb89b610fd66103ee989e61139f565b611e79611032858b61101a610fd68b6105b58161102a611020611e686111b2565b988c61101261100a6110038761158d565b611e8b6001611049610964898d6110b8565b611e98611057878b6110b8565b6040519283916020830195888c88611b10565b936110b8565b369161028b565b6116a2565b6103ba36858561028b565b915f5b60808110611edc5750505050600190565b611ef7611ee98286611b29565b516001600160f81b03191690565b611f23611f16611f08848688611b3a565b356001600160f81b03191690565b6001600160f81b03191690565b6001600160f81b031990911603611f3c57600101611ecb565b505050505f90565b5f91906103ee611f6384936040519283916108b46020840180976113b5565b5190600d5afa506102dc611370565b9060025491600160401b83101561026b57600183016002556002548310156106005760025f5261068b927f405787fa12a823e0f2b7631cc41b3ba8828b3321ca811111fa75cd3aa3bb5ace01611a54565b9060035491600160401b83101561026b57600183016003556003548310156106005760035f5261068b927fc2575a0e9e593c00f959f8c92f12db2869c3395a3b0502d05e2516446f71f85b01611a54565b1561201b57565b60405162461bcd60e51b815260206004820152600d60248201526c10da1958dacc4811985a5b1959609a1b6044820152606490fd5b9061010092602091010137565b90608092602091010137565b9190918054600181161561016657610100905f190160011c0361016657610100916007915f5260205f2093019280546020850152600181015460408501526002810154606085015260038101546080850152600481015460a0850152600581015460c0850152600681015460e0850152015491015256fe73eda753299d7d483339d80809a1d80553bda402fffe5bfeffffffff00000001a26469706673582212203d924b84751171b08a229d3d1a4903e71b1be867e3f9df6b99c1b6c3fd212f3064736f6c634300081f0033290decd9548b62a8d60345a988386fc84ba6bc95484008f6362f93160ef3e563",
			"opcodes": "PUSH1 0x80 CALLVALUE PUSH2 0x198 JUMPI PUSH1 0xA0 DUP2 ADD PUSH1 0x1 PUSH1 0x1 PUSH1 0x40 SHL SUB DUP2 GT DUP3 DUP3 LT OR PUSH2 0x184 JUMPI PUSH1 0x40 MSTORE PUSH1 0x80 DUP2 MSTORE PUSH16 0x17F1D3A73197D7942695638C4FA9AC0F PUSH1 0x20 DUP3 ADD MSTORE PUSH32 0xC3688C4F9774B905A14E3A3F171BAC586C55E83FF97A1AEFFB3AF00ADB22C6BB PUSH1 0x40 DUP3 ADD MSTORE PUSH16 0x8B3F481E3AAA0F1A09E30ED741D8AE4 PUSH1 0x60 DUP3 ADD MSTORE PUSH32 0xFCF5E095D5D00AF600DB18CB2C04B3EDD03CC744A2888AE40CAA232946C5E7E1 PUSH1 0x80 DUP3 ADD MSTORE PUSH0 SLOAD PUSH1 0x1 SWAP1 PUSH1 0x1 DUP2 DUP2 SHR SWAP2 AND DUP1 ISZERO PUSH2 0x17A JUMPI JUMPDEST PUSH1 0x20 DUP3 LT EQ PUSH2 0x166 JUMPI PUSH1 0x1F DUP2 GT PUSH2 0x115 JUMPI JUMPDEST POP POP PUSH0 DUP1 DUP1 MSTORE PUSH1 0x20 PUSH0 MLOAD PUSH1 0x20 PUSH2 0x22D3 PUSH0 CODECOPY PUSH0 MLOAD SWAP1 PUSH0 MSTORE JUMPDEST PUSH1 0x80 DUP4 LT PUSH2 0xFD JUMPI PUSH2 0x101 PUSH0 SSTORE PUSH1 0xFF NOT PUSH1 0x1 SLOAD AND PUSH1 0x1 SSTORE PUSH1 0x40 MLOAD PUSH2 0x2136 SWAP1 DUP2 PUSH2 0x19D DUP3 CODECOPY RETURN JUMPDEST PUSH1 0x20 PUSH1 0x1 DUP2 SWAP3 DUP5 DUP8 ADD MLOAD DUP2 SSTORE ADD SWAP3 ADD SWAP3 ADD SWAP2 SWAP1 PUSH2 0xD7 JUMP JUMPDEST PUSH0 DUP1 MSTORE PUSH1 0x1F ADD PUSH1 0x5 SHR PUSH0 MLOAD PUSH1 0x20 PUSH2 0x22D3 PUSH0 CODECOPY PUSH0 MLOAD SWAP1 PUSH0 MSTORE ADD PUSH32 0x290DECD9548B62A8D60345A988386FC84BA6BC95484008F6362F93160EF3E567 JUMPDEST DUP2 DUP2 LT PUSH2 0x15C JUMPI POP PUSH2 0xC0 JUMP JUMPDEST PUSH0 DUP2 SSTORE DUP3 ADD PUSH2 0x14F JUMP JUMPDEST PUSH4 0x4E487B71 PUSH1 0xE0 SHL PUSH0 MSTORE PUSH1 0x22 PUSH1 0x4 MSTORE PUSH1 0x24 PUSH0 REVERT JUMPDEST SWAP1 PUSH1 0x7F AND SWAP1 PUSH2 0xAE JUMP JUMPDEST PUSH4 0x4E487B71 PUSH1 0xE0 SHL PUSH0 MSTORE PUSH1 0x41 PUSH1 0x4 MSTORE PUSH1 0x24 PUSH0 REVERT JUMPDEST PUSH0 DUP1 REVERT INVALID PUSH1 0x80 PUSH1 0x40 MSTORE PUSH1 0x4 CALLDATASIZE LT ISZERO PUSH2 0x11 JUMPI PUSH0 DUP1 REVERT JUMPDEST PUSH0 CALLDATALOAD PUSH1 0xE0 SHR DUP1 PUSH4 0x6325239 EQ PUSH2 0x134 JUMPI DUP1 PUSH4 0x205C9CC7 EQ PUSH2 0x12F JUMPI DUP1 PUSH4 0x3F009C16 EQ PUSH2 0x12A JUMPI DUP1 PUSH4 0x4D919405 EQ PUSH2 0x125 JUMPI DUP1 PUSH4 0x51E54308 EQ PUSH2 0x120 JUMPI DUP1 PUSH4 0x54B57F70 EQ PUSH2 0x11B JUMPI DUP1 PUSH4 0x5CDC73EF EQ PUSH2 0x116 JUMPI DUP1 PUSH4 0x6592041A EQ PUSH2 0x111 JUMPI DUP1 PUSH4 0x6F18B669 EQ PUSH2 0x10C JUMPI DUP1 PUSH4 0x8A2BA01C EQ PUSH2 0x107 JUMPI DUP1 PUSH4 0xA66339B7 EQ PUSH2 0x102 JUMPI DUP1 PUSH4 0xAF1D0BD9 EQ PUSH2 0xFD JUMPI DUP1 PUSH4 0xC1F2C915 EQ PUSH2 0xF8 JUMPI DUP1 PUSH4 0xC588E555 EQ PUSH2 0xF3 JUMPI DUP1 PUSH4 0xD6385D60 EQ PUSH2 0xEE JUMPI DUP1 PUSH4 0xE63C1828 EQ PUSH2 0xE9 JUMPI DUP1 PUSH4 0xE6859B9A EQ PUSH2 0xE4 JUMPI PUSH4 0xE86D06C7 EQ PUSH2 0xDF JUMPI PUSH0 DUP1 REVERT JUMPDEST PUSH2 0xBF2 JUMP JUMPDEST PUSH2 0xBA2 JUMP JUMPDEST PUSH2 0xAD9 JUMP JUMPDEST PUSH2 0xABF JUMP JUMPDEST PUSH2 0xA2C JUMP JUMPDEST PUSH2 0x9ED JUMP JUMPDEST PUSH2 0x97F JUMP JUMPDEST PUSH2 0x92F JUMP JUMPDEST PUSH2 0x913 JUMP JUMPDEST PUSH2 0x8F7 JUMP JUMPDEST PUSH2 0x8DE JUMP JUMPDEST PUSH2 0x87F JUMP JUMPDEST PUSH2 0x7A7 JUMP JUMPDEST PUSH2 0x3C0 JUMP JUMPDEST PUSH2 0x3A6 JUMP JUMPDEST PUSH2 0x333 JUMP JUMPDEST PUSH2 0x214 JUMP JUMPDEST PUSH2 0x1EE JUMP JUMPDEST SWAP2 DUP2 PUSH1 0x1F DUP5 ADD SLT ISZERO PUSH2 0x166 JUMPI DUP3 CALLDATALOAD SWAP2 PUSH1 0x1 PUSH1 0x1 PUSH1 0x40 SHL SUB DUP4 GT PUSH2 0x166 JUMPI PUSH1 0x20 DUP4 DUP2 DUP7 ADD SWAP6 ADD ADD GT PUSH2 0x166 JUMPI JUMP JUMPDEST PUSH0 DUP1 REVERT JUMPDEST SWAP2 DUP2 PUSH1 0x1F DUP5 ADD SLT ISZERO PUSH2 0x166 JUMPI DUP3 CALLDATALOAD SWAP2 PUSH1 0x1 PUSH1 0x1 PUSH1 0x40 SHL SUB DUP4 GT PUSH2 0x166 JUMPI PUSH1 0x20 DUP1 DUP6 ADD SWAP5 DUP5 PUSH1 0x5 SHL ADD ADD GT PUSH2 0x166 JUMPI JUMP JUMPDEST PUSH1 0x60 PUSH1 0x3 NOT DUP3 ADD SLT PUSH2 0x166 JUMPI PUSH1 0x4 CALLDATALOAD PUSH1 0x1 PUSH1 0x1 PUSH1 0x40 SHL SUB DUP2 GT PUSH2 0x166 JUMPI DUP2 PUSH2 0x1C4 SWAP2 PUSH1 0x4 ADD PUSH2 0x139 JUMP JUMPDEST SWAP3 SWAP1 SWAP3 SWAP2 PUSH1 0x24 CALLDATALOAD SWAP1 PUSH1 0x1 PUSH1 0x1 PUSH1 0x40 SHL SUB DUP3 GT PUSH2 0x166 JUMPI PUSH2 0x1E6 SWAP2 PUSH1 0x4 ADD PUSH2 0x16A JUMP JUMPDEST SWAP1 SWAP2 PUSH1 0x44 CALLDATALOAD SWAP1 JUMP JUMPDEST CALLVALUE PUSH2 0x166 JUMPI PUSH1 0x20 PUSH2 0x20A PUSH2 0x201 CALLDATASIZE PUSH2 0x19A JUMP JUMPDEST SWAP4 SWAP3 SWAP1 SWAP3 PUSH2 0x127E JUMP JUMPDEST PUSH1 0x40 MLOAD SWAP1 ISZERO ISZERO DUP2 MSTORE RETURN JUMPDEST CALLVALUE PUSH2 0x166 JUMPI PUSH0 CALLDATASIZE PUSH1 0x3 NOT ADD SLT PUSH2 0x166 JUMPI PUSH1 0x20 PUSH1 0xFF PUSH1 0x1 SLOAD AND PUSH1 0x40 MLOAD SWAP1 ISZERO ISZERO DUP2 MSTORE RETURN JUMPDEST PUSH4 0x4E487B71 PUSH1 0xE0 SHL PUSH0 MSTORE PUSH1 0x41 PUSH1 0x4 MSTORE PUSH1 0x24 PUSH0 REVERT JUMPDEST SWAP1 PUSH1 0x1F DUP1 NOT SWAP2 ADD AND DUP2 ADD SWAP1 DUP2 LT PUSH1 0x1 PUSH1 0x1 PUSH1 0x40 SHL SUB DUP3 GT OR PUSH2 0x26B JUMPI PUSH1 0x40 MSTORE JUMP JUMPDEST PUSH2 0x236 JUMP JUMPDEST PUSH1 0x1 PUSH1 0x1 PUSH1 0x40 SHL SUB DUP2 GT PUSH2 0x26B JUMPI PUSH1 0x1F ADD PUSH1 0x1F NOT AND PUSH1 0x20 ADD SWAP1 JUMP JUMPDEST SWAP3 SWAP2 SWAP3 PUSH2 0x297 DUP3 PUSH2 0x270 JUMP JUMPDEST SWAP2 PUSH2 0x2A5 PUSH1 0x40 MLOAD SWAP4 DUP5 PUSH2 0x24A JUMP JUMPDEST DUP3 SWAP5 DUP2 DUP5 MSTORE DUP2 DUP4 ADD GT PUSH2 0x166 JUMPI DUP3 DUP2 PUSH1 0x20 SWAP4 DUP5 PUSH0 SWAP7 ADD CALLDATACOPY ADD ADD MSTORE JUMP JUMPDEST SWAP1 DUP1 PUSH1 0x1F DUP4 ADD SLT ISZERO PUSH2 0x166 JUMPI DUP2 PUSH1 0x20 PUSH2 0x2DC SWAP4 CALLDATALOAD SWAP2 ADD PUSH2 0x28B JUMP JUMPDEST SWAP1 JUMP JUMPDEST PUSH1 0x20 PUSH1 0x3 NOT DUP3 ADD SLT PUSH2 0x166 JUMPI PUSH1 0x4 CALLDATALOAD SWAP1 PUSH1 0x1 PUSH1 0x1 PUSH1 0x40 SHL SUB DUP3 GT PUSH2 0x166 JUMPI PUSH2 0x2DC SWAP2 PUSH1 0x4 ADD PUSH2 0x2C1 JUMP JUMPDEST PUSH1 0x20 PUSH1 0x40 SWAP3 DUP2 DUP4 MSTORE DUP1 MLOAD SWAP2 DUP3 SWAP2 DUP3 DUP3 DUP7 ADD MSTORE ADD DUP5 DUP5 ADD MCOPY PUSH0 DUP3 DUP3 ADD DUP5 ADD MSTORE PUSH1 0x1F ADD PUSH1 0x1F NOT AND ADD ADD SWAP1 JUMP JUMPDEST CALLVALUE PUSH2 0x166 JUMPI PUSH2 0x358 PUSH2 0x34C PUSH2 0x347 CALLDATASIZE PUSH2 0x2DF JUMP JUMPDEST PUSH2 0x139F JUMP JUMPDEST PUSH1 0x40 MLOAD SWAP2 DUP3 SWAP2 DUP3 PUSH2 0x309 JUMP JUMPDEST SUB SWAP1 RETURN JUMPDEST SWAP1 PUSH1 0x40 PUSH1 0x3 NOT DUP4 ADD SLT PUSH2 0x166 JUMPI PUSH1 0x4 CALLDATALOAD PUSH1 0x1 PUSH1 0x1 PUSH1 0x40 SHL SUB DUP2 GT PUSH2 0x166 JUMPI DUP3 PUSH2 0x387 SWAP2 PUSH1 0x4 ADD PUSH2 0x2C1 JUMP JUMPDEST SWAP2 PUSH1 0x24 CALLDATALOAD SWAP1 PUSH1 0x1 PUSH1 0x1 PUSH1 0x40 SHL SUB DUP3 GT PUSH2 0x166 JUMPI PUSH2 0x2DC SWAP2 PUSH1 0x4 ADD PUSH2 0x2C1 JUMP JUMPDEST CALLVALUE PUSH2 0x166 JUMPI PUSH2 0x358 PUSH2 0x34C PUSH2 0x3BA CALLDATASIZE PUSH2 0x35C JUMP JUMPDEST SWAP1 PUSH2 0x13C7 JUMP JUMPDEST CALLVALUE PUSH2 0x166 JUMPI PUSH2 0x3CE CALLDATASIZE PUSH2 0x19A JUMP JUMPDEST SWAP3 SWAP4 SWAP1 SWAP2 PUSH2 0x412 PUSH1 0x40 MLOAD PUSH1 0x20 DUP2 ADD SWAP1 PUSH2 0x3FC DUP2 PUSH2 0x3EE DUP9 DUP8 DUP13 DUP11 DUP9 PUSH2 0x149A JUMP JUMPDEST SUB PUSH1 0x1F NOT DUP2 ADD DUP4 MSTORE DUP3 PUSH2 0x24A JUMP JUMPDEST MLOAD SWAP1 KECCAK256 PUSH0 MLOAD PUSH1 0x20 PUSH2 0x20E1 PUSH0 CODECOPY PUSH0 MLOAD SWAP1 PUSH0 MSTORE SWAP1 MOD SWAP1 JUMP JUMPDEST SWAP3 PUSH2 0x42C PUSH2 0x427 PUSH2 0x422 DUP4 PUSH2 0x107F JUMP JUMPDEST PUSH2 0x14C1 JUMP JUMPDEST PUSH2 0x1530 JUMP JUMPDEST SWAP6 PUSH2 0x43C PUSH2 0x427 PUSH2 0x422 DUP5 PUSH2 0x107F JUMP JUMPDEST SWAP6 DUP6 SWAP2 DUP7 PUSH0 SWAP7 DUP11 PUSH0 SWAP9 JUMPDEST PUSH2 0x44F DUP9 PUSH2 0x107F JUMP JUMPDEST DUP11 GT PUSH2 0x4E4 JUMPI SWAP1 DUP11 SWAP2 DUP11 DUP10 DUP12 PUSH2 0x465 DUP11 DUP4 PUSH2 0x10AB JUMP JUMPDEST DUP4 EQ PUSH2 0x4C4 JUMPI PUSH2 0x4A3 DUP5 PUSH2 0x49E PUSH2 0x4BB SWAP9 SWAP7 DUP9 PUSH2 0x498 PUSH2 0x4B3 SWAP9 PUSH0 MLOAD PUSH1 0x20 PUSH2 0x20E1 PUSH0 CODECOPY PUSH0 MLOAD SWAP1 PUSH0 MSTORE SWAP12 SWAP9 PUSH2 0x4AE SWAP9 PUSH2 0x1132 JUMP JUMPDEST POP PUSH2 0x2050 JUMP JUMPDEST PUSH2 0x1562 JUMP JUMPDEST SWAP2 DUP3 ADD PUSH1 0x20 ADD DUP12 SWAP1 MSTORE JUMP JUMPDEST PUSH2 0x1571 JUMP JUMPDEST SWAP8 MULMOD SWAP9 PUSH2 0x1071 JUMP JUMPDEST SWAP8 SWAP5 DUP12 SWAP1 PUSH2 0x446 JUMP JUMPDEST POP POP POP SWAP7 PUSH0 MLOAD PUSH1 0x20 PUSH2 0x20E1 PUSH0 CODECOPY PUSH0 MLOAD SWAP1 PUSH0 MSTORE SWAP2 POP SWAP2 PUSH2 0x4BB SWAP3 MULMOD SWAP9 PUSH2 0x1071 JUMP JUMPDEST POP SWAP5 POP SWAP1 DUP10 DUP10 SWAP4 SWAP5 DUP8 PUSH0 SWAP5 PUSH0 SWAP6 JUMPDEST PUSH2 0x4FB DUP4 PUSH2 0x107F JUMP JUMPDEST DUP8 GT PUSH2 0x58D JUMPI DUP8 SWAP1 DUP8 PUSH2 0x50E DUP7 DUP7 PUSH2 0x10AB JUMP JUMPDEST DUP2 EQ PUSH2 0x571 JUMPI SWAP2 PUSH2 0x562 PUSH2 0x554 DUP4 PUSH2 0x49E PUSH0 MLOAD PUSH1 0x20 PUSH2 0x20E1 PUSH0 CODECOPY PUSH0 MLOAD SWAP1 PUSH0 MSTORE SWAP6 DUP12 PUSH2 0x54E DUP10 PUSH2 0x548 PUSH2 0x542 PUSH2 0x56A SWAP13 PUSH2 0x5E8 JUMP JUMPDEST POP PUSH2 0x709 JUMP JUMPDEST POP PUSH2 0x5E8 JUMP JUMPDEST POP PUSH2 0x2069 JUMP JUMPDEST DUP9 DUP2 ADD PUSH1 0x20 ADD DUP11 SWAP1 MSTORE PUSH2 0x1571 JUMP JUMPDEST SWAP8 MULMOD SWAP7 PUSH2 0x1071 JUMP JUMPDEST SWAP6 SWAP5 PUSH2 0x4F2 JUMP JUMPDEST POP SWAP6 PUSH2 0x56A SWAP2 PUSH0 MLOAD PUSH1 0x20 PUSH2 0x20E1 PUSH0 CODECOPY PUSH0 MLOAD SWAP1 PUSH0 MSTORE SWAP2 MULMOD SWAP7 PUSH2 0x1071 JUMP JUMPDEST POP PUSH2 0x5C3 PUSH2 0x5C8 SWAP2 DUP10 DUP7 PUSH2 0x5BD PUSH2 0x5AC PUSH2 0x5A6 DUP16 PUSH2 0x139F JUMP JUMPDEST SWAP3 PUSH2 0x139F JUMP JUMPDEST SWAP4 PUSH2 0x5B5 PUSH2 0x11B2 JUMP JUMPDEST SWAP4 CALLDATASIZE SWAP2 PUSH2 0x28B JUMP JUMPDEST SWAP2 PUSH2 0x160F JUMP JUMPDEST PUSH2 0x159B JUMP JUMPDEST PUSH1 0x40 MLOAD PUSH1 0x1 DUP2 MSTORE PUSH1 0x20 SWAP1 RETURN JUMPDEST PUSH4 0x4E487B71 PUSH1 0xE0 SHL PUSH0 MSTORE PUSH1 0x32 PUSH1 0x4 MSTORE PUSH1 0x24 PUSH0 REVERT JUMPDEST PUSH1 0x3 SLOAD DUP2 LT ISZERO PUSH2 0x600 JUMPI PUSH1 0x3 PUSH0 MSTORE PUSH1 0x20 PUSH0 KECCAK256 ADD SWAP1 PUSH0 SWAP1 JUMP JUMPDEST PUSH2 0x5D4 JUMP JUMPDEST PUSH1 0x2 SLOAD DUP2 LT ISZERO PUSH2 0x600 JUMPI PUSH1 0x2 PUSH0 MSTORE PUSH1 0x20 PUSH0 KECCAK256 ADD SWAP1 PUSH0 SWAP1 JUMP JUMPDEST SWAP1 PUSH1 0x1 DUP3 DUP2 SHR SWAP3 AND DUP1 ISZERO PUSH2 0x64B JUMPI JUMPDEST PUSH1 0x20 DUP4 LT EQ PUSH2 0x637 JUMPI JUMP JUMPDEST PUSH4 0x4E487B71 PUSH1 0xE0 SHL PUSH0 MSTORE PUSH1 0x22 PUSH1 0x4 MSTORE PUSH1 0x24 PUSH0 REVERT JUMPDEST SWAP2 PUSH1 0x7F AND SWAP2 PUSH2 0x62C JUMP JUMPDEST PUSH1 0x40 MLOAD SWAP1 PUSH0 DUP3 PUSH0 SLOAD SWAP2 PUSH2 0x667 DUP4 PUSH2 0x61D JUMP JUMPDEST DUP1 DUP4 MSTORE SWAP3 PUSH1 0x1 DUP2 AND SWAP1 DUP2 ISZERO PUSH2 0x6EA JUMPI POP PUSH1 0x1 EQ PUSH2 0x68D JUMPI JUMPDEST PUSH2 0x68B SWAP3 POP SUB DUP4 PUSH2 0x24A JUMP JUMPDEST JUMP JUMPDEST POP PUSH0 DUP1 DUP1 MSTORE SWAP1 SWAP2 PUSH32 0x290DECD9548B62A8D60345A988386FC84BA6BC95484008F6362F93160EF3E563 JUMPDEST DUP2 DUP4 LT PUSH2 0x6CE JUMPI POP POP SWAP1 PUSH1 0x20 PUSH2 0x68B SWAP3 DUP3 ADD ADD PUSH2 0x67F JUMP JUMPDEST PUSH1 0x20 SWAP2 SWAP4 POP DUP1 PUSH1 0x1 SWAP2 SLOAD DUP4 DUP6 DUP10 ADD ADD MSTORE ADD SWAP2 ADD SWAP1 SWAP2 DUP5 SWAP3 PUSH2 0x6B6 JUMP JUMPDEST PUSH1 0x20 SWAP3 POP PUSH2 0x68B SWAP5 SWAP2 POP PUSH1 0xFF NOT AND DUP3 DUP5 ADD MSTORE ISZERO ISZERO PUSH1 0x5 SHL DUP3 ADD ADD PUSH2 0x67F JUMP JUMPDEST SWAP1 PUSH1 0x40 MLOAD SWAP2 DUP3 PUSH0 DUP3 SLOAD SWAP3 PUSH2 0x71C DUP5 PUSH2 0x61D JUMP JUMPDEST DUP1 DUP5 MSTORE SWAP4 PUSH1 0x1 DUP2 AND SWAP1 DUP2 ISZERO PUSH2 0x785 JUMPI POP PUSH1 0x1 EQ PUSH2 0x741 JUMPI JUMPDEST POP PUSH2 0x68B SWAP3 POP SUB DUP4 PUSH2 0x24A JUMP JUMPDEST SWAP1 POP PUSH0 SWAP3 SWAP2 SWAP3 MSTORE PUSH1 0x20 PUSH0 KECCAK256 SWAP1 PUSH0 SWAP2 JUMPDEST DUP2 DUP4 LT PUSH2 0x769 JUMPI POP POP SWAP1 PUSH1 0x20 PUSH2 0x68B SWAP3 DUP3 ADD ADD PUSH0 PUSH2 0x734 JUMP JUMPDEST PUSH1 0x20 SWAP2 SWAP4 POP DUP1 PUSH1 0x1 SWAP2 SLOAD DUP4 DUP6 DUP10 ADD ADD MSTORE ADD SWAP2 ADD SWAP1 SWAP2 DUP5 SWAP3 PUSH2 0x750 JUMP JUMPDEST SWAP1 POP PUSH1 0x20 SWAP3 POP PUSH2 0x68B SWAP5 SWAP2 POP PUSH1 0xFF NOT AND DUP3 DUP5 ADD MSTORE ISZERO ISZERO PUSH1 0x5 SHL DUP3 ADD ADD PUSH0 PUSH2 0x734 JUMP JUMPDEST CALLVALUE PUSH2 0x166 JUMPI PUSH1 0x20 CALLDATASIZE PUSH1 0x3 NOT ADD SLT PUSH2 0x166 JUMPI PUSH1 0x4 CALLDATALOAD PUSH1 0x2 SLOAD DUP2 LT ISZERO PUSH2 0x166 JUMPI PUSH2 0x34C PUSH2 0x358 SWAP2 PUSH1 0x2 PUSH0 MSTORE PUSH32 0x405787FA12A823E0F2B7631CC41B3BA8828B3321CA811111FA75CD3AA3BB5ACE ADD PUSH2 0x709 JUMP JUMPDEST SWAP1 PUSH1 0x80 PUSH1 0x3 NOT DUP4 ADD SLT PUSH2 0x166 JUMPI PUSH1 0x4 CALLDATALOAD PUSH1 0x1 PUSH1 0x1 PUSH1 0x40 SHL SUB DUP2 GT PUSH2 0x166 JUMPI DUP3 PUSH2 0x822 SWAP2 PUSH1 0x4 ADD PUSH2 0x2C1 JUMP JUMPDEST SWAP2 PUSH1 0x24 CALLDATALOAD PUSH1 0x1 PUSH1 0x1 PUSH1 0x40 SHL SUB DUP2 GT PUSH2 0x166 JUMPI DUP2 PUSH2 0x841 SWAP2 PUSH1 0x4 ADD PUSH2 0x2C1 JUMP JUMPDEST SWAP2 PUSH1 0x44 CALLDATALOAD PUSH1 0x1 PUSH1 0x1 PUSH1 0x40 SHL SUB DUP2 GT PUSH2 0x166 JUMPI DUP3 PUSH2 0x860 SWAP2 PUSH1 0x4 ADD PUSH2 0x2C1 JUMP JUMPDEST SWAP2 PUSH1 0x64 CALLDATALOAD SWAP1 PUSH1 0x1 PUSH1 0x1 PUSH1 0x40 SHL SUB DUP3 GT PUSH2 0x166 JUMPI PUSH2 0x2DC SWAP2 PUSH1 0x4 ADD PUSH2 0x2C1 JUMP JUMPDEST CALLVALUE PUSH2 0x166 JUMPI PUSH0 DUP1 PUSH2 0x8B4 PUSH2 0x8B4 PUSH2 0x8BA PUSH2 0x3EE PUSH2 0x89B CALLDATASIZE PUSH2 0x7F7 JUMP JUMPDEST SWAP2 SWAP4 SWAP3 SWAP7 SWAP1 PUSH1 0x40 MLOAD SWAP7 DUP8 SWAP6 PUSH2 0x8B4 PUSH1 0x20 DUP9 ADD DUP1 SWAP12 PUSH2 0x13B5 JUMP JUMPDEST SWAP1 PUSH2 0x13B5 JUMP JUMPDEST MLOAD SWAP1 PUSH1 0xF GAS STATICCALL POP PUSH1 0x20 PUSH1 0x1 PUSH2 0x8D5 PUSH2 0x8D0 PUSH2 0x1370 JUMP JUMPDEST PUSH2 0x15D7 JUMP JUMPDEST EQ PUSH1 0x40 MLOAD SWAP1 DUP2 MSTORE RETURN JUMPDEST CALLVALUE PUSH2 0x166 JUMPI PUSH2 0x358 PUSH2 0x34C PUSH2 0x8F2 CALLDATASIZE PUSH2 0x2DF JUMP JUMPDEST PUSH2 0x15F9 JUMP JUMPDEST CALLVALUE PUSH2 0x166 JUMPI PUSH1 0x20 PUSH2 0x20A PUSH2 0x90A CALLDATASIZE PUSH2 0x7F7 JUMP JUMPDEST SWAP3 SWAP2 SWAP1 SWAP2 PUSH2 0x160F JUMP JUMPDEST CALLVALUE PUSH2 0x166 JUMPI PUSH0 CALLDATASIZE PUSH1 0x3 NOT ADD SLT PUSH2 0x166 JUMPI PUSH2 0x358 PUSH2 0x34C PUSH0 PUSH2 0x709 JUMP JUMPDEST CALLVALUE PUSH2 0x166 JUMPI PUSH1 0x20 CALLDATASIZE PUSH1 0x3 NOT ADD SLT PUSH2 0x166 JUMPI PUSH1 0x4 CALLDATALOAD PUSH1 0x1 PUSH1 0x1 PUSH1 0x40 SHL SUB DUP2 GT PUSH2 0x166 JUMPI PUSH2 0x20A PUSH2 0x964 PUSH1 0x20 SWAP3 CALLDATASIZE SWAP1 PUSH1 0x4 ADD PUSH2 0x139 JUMP JUMPDEST POP PUSH1 0x60 DUP2 ADD CALLDATALOAD SWAP1 PUSH1 0x40 DUP2 ADD CALLDATALOAD SWAP1 PUSH1 0x20 DUP2 ADD CALLDATALOAD SWAP1 CALLDATALOAD OR OR OR ISZERO SWAP1 JUMP JUMPDEST CALLVALUE PUSH2 0x166 JUMPI PUSH1 0x40 CALLDATASIZE PUSH1 0x3 NOT ADD SLT PUSH2 0x166 JUMPI PUSH1 0x4 CALLDATALOAD PUSH1 0x1 PUSH1 0x1 PUSH1 0x40 SHL SUB DUP2 GT PUSH2 0x166 JUMPI PUSH0 PUSH2 0x9B1 DUP2 SWAP3 CALLDATASIZE SWAP1 PUSH1 0x4 ADD PUSH2 0x139 JUMP JUMPDEST PUSH2 0x9DB PUSH1 0x20 DUP1 PUSH1 0x24 CALLDATALOAD SWAP4 PUSH1 0x40 MLOAD SWAP5 DUP2 DUP7 SWAP3 DUP5 DUP5 ADD SWAP9 DUP10 CALLDATACOPY DUP3 ADD SWAP1 DUP4 DUP3 ADD MSTORE SUB ADD DUP1 DUP5 MSTORE ADD DUP3 PUSH2 0x24A JUMP JUMPDEST MLOAD SWAP1 PUSH1 0xE GAS STATICCALL POP PUSH2 0x358 PUSH2 0x34C PUSH2 0x1370 JUMP JUMPDEST CALLVALUE PUSH2 0x166 JUMPI PUSH1 0x40 CALLDATASIZE PUSH1 0x3 NOT ADD SLT PUSH2 0x166 JUMPI PUSH1 0x4 CALLDATALOAD PUSH1 0x1 PUSH1 0x1 PUSH1 0x40 SHL SUB DUP2 GT PUSH2 0x166 JUMPI PUSH2 0x34C PUSH2 0xA23 PUSH2 0x358 SWAP3 CALLDATASIZE SWAP1 PUSH1 0x4 ADD PUSH2 0x2C1 JUMP JUMPDEST PUSH1 0x24 CALLDATALOAD SWAP1 PUSH2 0x16A2 JUMP JUMPDEST CALLVALUE PUSH2 0x166 JUMPI PUSH1 0x80 CALLDATASIZE PUSH1 0x3 NOT ADD SLT PUSH2 0x166 JUMPI PUSH1 0x4 CALLDATALOAD PUSH1 0x1 PUSH1 0x1 PUSH1 0x40 SHL SUB DUP2 GT PUSH2 0x166 JUMPI PUSH2 0xA5C SWAP1 CALLDATASIZE SWAP1 PUSH1 0x4 ADD PUSH2 0x16A JUMP JUMPDEST PUSH1 0x24 CALLDATALOAD PUSH1 0x1 PUSH1 0x1 PUSH1 0x40 SHL SUB DUP2 GT PUSH2 0x166 JUMPI PUSH2 0xA7B SWAP1 CALLDATASIZE SWAP1 PUSH1 0x4 ADD PUSH2 0x16A JUMP JUMPDEST SWAP2 SWAP1 SWAP3 PUSH1 0x44 CALLDATALOAD SWAP3 PUSH1 0x1 PUSH1 0x1 PUSH1 0x40 SHL SUB DUP5 GT PUSH2 0x166 JUMPI PUSH2 0x358 SWAP5 PUSH2 0xAA5 PUSH2 0xAAD SWAP6 CALLDATASIZE SWAP1 PUSH1 0x4 ADD PUSH2 0x139 JUMP JUMPDEST SWAP5 SWAP1 SWAP4 PUSH2 0x1B46 JUMP JUMPDEST PUSH1 0x40 MLOAD SWAP1 ISZERO ISZERO DUP2 MSTORE SWAP1 DUP2 SWAP1 PUSH1 0x20 DUP3 ADD SWAP1 JUMP JUMPDEST CALLVALUE PUSH2 0x166 JUMPI PUSH2 0x358 PUSH2 0x34C PUSH2 0xAD3 CALLDATASIZE PUSH2 0x35C JUMP JUMPDEST SWAP1 PUSH2 0x1F44 JUMP JUMPDEST CALLVALUE PUSH2 0x166 JUMPI PUSH1 0x40 CALLDATASIZE PUSH1 0x3 NOT ADD SLT PUSH2 0x166 JUMPI PUSH1 0x4 CALLDATALOAD PUSH1 0x1 PUSH1 0x1 PUSH1 0x40 SHL SUB DUP2 GT PUSH2 0x166 JUMPI PUSH2 0xB09 SWAP1 CALLDATASIZE SWAP1 PUSH1 0x4 ADD PUSH2 0x16A JUMP JUMPDEST SWAP1 PUSH1 0x24 CALLDATALOAD PUSH1 0x1 PUSH1 0x1 PUSH1 0x40 SHL SUB DUP2 GT PUSH2 0x166 JUMPI PUSH2 0xB29 SWAP1 CALLDATASIZE SWAP1 PUSH1 0x4 ADD PUSH2 0x16A JUMP JUMPDEST PUSH0 NOT DUP5 ADD DUP5 DUP2 GT SWAP4 SWAP3 SWAP1 PUSH0 DUP6 JUMPDEST PUSH2 0xB9D JUMPI DUP2 DUP2 GT PUSH2 0xB64 JUMPI DUP1 PUSH2 0xB59 PUSH2 0xB53 PUSH2 0xB5E SWAP4 DUP11 DUP10 PUSH2 0x1132 JUMP JUMPDEST SWAP1 PUSH2 0x1F72 JUMP JUMPDEST PUSH2 0x1071 JUMP JUMPDEST DUP6 PUSH2 0xB36 JUMP JUMPDEST POP POP PUSH0 NOT DUP3 ADD DUP3 DUP2 GT SWAP2 SWAP1 PUSH0 DUP4 JUMPDEST PUSH2 0xB9D JUMPI DUP2 DUP2 GT PUSH2 0xB9B JUMPI DUP1 PUSH2 0xB59 PUSH2 0xB8F PUSH2 0xB95 SWAP4 DUP9 DUP8 PUSH2 0x1132 JUMP JUMPDEST SWAP1 PUSH2 0x1FC3 JUMP JUMPDEST DUP4 PUSH2 0xB72 JUMP JUMPDEST STOP JUMPDEST PUSH2 0x105D JUMP JUMPDEST CALLVALUE PUSH2 0x166 JUMPI PUSH1 0x20 CALLDATASIZE PUSH1 0x3 NOT ADD SLT PUSH2 0x166 JUMPI PUSH1 0x4 CALLDATALOAD PUSH1 0x3 SLOAD DUP2 LT ISZERO PUSH2 0x166 JUMPI PUSH2 0x34C PUSH2 0x358 SWAP2 PUSH1 0x3 PUSH0 MSTORE PUSH32 0xC2575A0E9E593C00F959F8C92F12DB2869C3395A3B0502D05E2516446F71F85B ADD PUSH2 0x709 JUMP JUMPDEST CALLVALUE PUSH2 0x166 JUMPI PUSH1 0x60 CALLDATASIZE PUSH1 0x3 NOT ADD SLT PUSH2 0x166 JUMPI PUSH1 0x4 CALLDATALOAD PUSH1 0x1 PUSH1 0x1 PUSH1 0x40 SHL SUB DUP2 GT PUSH2 0x166 JUMPI PUSH2 0xC22 SWAP1 CALLDATASIZE SWAP1 PUSH1 0x4 ADD PUSH2 0x16A JUMP JUMPDEST PUSH1 0x24 CALLDATALOAD PUSH1 0x1 PUSH1 0x1 PUSH1 0x40 SHL SUB DUP2 GT PUSH2 0x166 JUMPI PUSH2 0xC41 SWAP1 CALLDATASIZE SWAP1 PUSH1 0x4 ADD PUSH2 0x16A JUMP JUMPDEST SWAP3 SWAP1 SWAP2 PUSH1 0x44 CALLDATALOAD PUSH1 0x1 PUSH1 0x1 PUSH1 0x40 SHL SUB DUP2 GT PUSH2 0x166 JUMPI PUSH2 0xC66 SWAP1 SWAP5 SWAP2 SWAP5 CALLDATASIZE SWAP1 PUSH1 0x4 ADD PUSH2 0x139 JUMP JUMPDEST SWAP5 PUSH2 0xC7A DUP4 PUSH2 0xC74 DUP4 PUSH2 0x14D4 JUMP JUMPDEST EQ PUSH2 0x16DB JUMP JUMPDEST PUSH2 0xC96 PUSH1 0x40 MLOAD PUSH1 0x20 DUP2 ADD SWAP1 PUSH2 0x3FC DUP2 PUSH2 0x3EE DUP9 DUP12 DUP9 DUP13 DUP9 PUSH2 0x16E2 JUMP JUMPDEST SWAP4 PUSH2 0xCB3 PUSH1 0x40 MLOAD PUSH1 0x20 DUP2 ADD SWAP1 PUSH2 0x3FC DUP2 PUSH2 0x3EE DUP10 DUP13 DUP10 DUP10 DUP9 PUSH2 0x1712 JUMP JUMPDEST SWAP7 PUSH1 0x1 SWAP4 PUSH2 0xCC3 PUSH2 0x427 DUP6 PUSH2 0x14EA JUMP JUMPDEST SWAP9 PUSH2 0xCD8 PUSH2 0x427 PUSH2 0xCD3 DUP10 PUSH2 0x108D JUMP JUMPDEST PUSH2 0x1500 JUMP JUMPDEST SWAP9 PUSH2 0xCED PUSH2 0x427 PUSH2 0xCE8 DUP9 PUSH2 0x107F JUMP JUMPDEST PUSH2 0x14EA JUMP JUMPDEST SWAP10 PUSH2 0xCFD PUSH2 0x427 PUSH2 0xCD3 DUP12 PUSH2 0x109C JUMP JUMPDEST PUSH0 SWAP10 SWAP1 DUP11 JUMPDEST PUSH2 0xD0B DUP11 PUSH2 0x107F JUMP JUMPDEST DUP13 GT PUSH2 0xD7F JUMPI PUSH0 MLOAD PUSH1 0x20 PUSH2 0x20E1 PUSH0 CODECOPY PUSH0 MLOAD SWAP1 PUSH0 MSTORE DUP16 PUSH2 0xD70 DUP16 SWAP2 DUP16 DUP16 DUP16 DUP16 SWAP8 PUSH2 0xD62 DUP2 DUP7 PUSH2 0xD5C DUP8 DUP7 DUP15 PUSH2 0xD78 SWAP16 PUSH1 0x80 PUSH2 0xD4F PUSH2 0x4AE SWAP14 PUSH2 0xD67 SWAP13 PUSH2 0xD57 SWAP5 PUSH2 0x1132 JUMP JUMPDEST SWAP1 POP EQ PUSH2 0x1730 JUMP JUMPDEST PUSH2 0x1132 JUMP JUMPDEST POP PUSH2 0x205D JUMP JUMPDEST PUSH2 0x157F JUMP JUMPDEST SWAP3 DUP4 ADD PUSH1 0x20 ADD MSTORE JUMP JUMPDEST SWAP13 MULMOD SWAP12 PUSH2 0x1071 JUMP JUMPDEST SWAP11 SWAP10 PUSH2 0xD02 JUMP JUMPDEST POP SWAP6 DUP9 DUP13 DUP16 SWAP9 DUP16 PUSH2 0xD90 DUP13 SWAP12 PUSH2 0x15F9 JUMP JUMPDEST SWAP1 PUSH0 SWAP12 DUP11 SWAP7 PUSH0 SWAP14 DUP15 JUMPDEST PUSH2 0xDAD PUSH2 0xDA8 PUSH2 0xDA8 DUP12 PUSH2 0x1518 JUMP JUMPDEST PUSH2 0x107F JUMP JUMPDEST LT PUSH2 0xE36 JUMPI DUP11 DUP16 SWAP2 DUP15 SWAP3 DUP13 DUP16 PUSH2 0xDC2 DUP14 PUSH2 0x107F JUMP JUMPDEST DUP4 EQ DUP1 ISZERO PUSH2 0xE2D JUMPI JUMPDEST PUSH2 0xE0D JUMPI DUP14 PUSH2 0xD67 DUP6 PUSH2 0x49E PUSH2 0xE05 SWAP10 SWAP8 DUP10 PUSH2 0x498 PUSH2 0xDFD SWAP10 PUSH0 MLOAD PUSH1 0x20 PUSH2 0x20E1 PUSH0 CODECOPY PUSH0 MLOAD SWAP1 PUSH0 MSTORE SWAP13 SWAP10 PUSH2 0x4AE SWAP10 PUSH2 0x1132 JUMP JUMPDEST SWAP11 MULMOD SWAP15 PUSH2 0x1071 JUMP JUMPDEST SWAP14 SWAP8 DUP15 PUSH2 0xD99 JUMP JUMPDEST POP POP POP SWAP10 PUSH0 MLOAD PUSH1 0x20 PUSH2 0x20E1 PUSH0 CODECOPY PUSH0 MLOAD SWAP1 PUSH0 MSTORE SWAP2 POP SWAP2 PUSH2 0xE05 SWAP3 MULMOD SWAP15 PUSH2 0x1071 JUMP JUMPDEST POP DUP13 DUP4 EQ PUSH2 0xDCB JUMP JUMPDEST POP DUP9 SWAP4 SWAP2 DUP13 DUP9 SWAP3 DUP16 DUP15 PUSH2 0xE59 DUP16 PUSH2 0xE4C SWAP1 PUSH2 0x139F JUMP JUMPDEST PUSH2 0xE54 PUSH2 0x1769 JUMP JUMPDEST PUSH2 0x1F44 JUMP JUMPDEST SWAP10 PUSH0 SWAP10 DUP13 SWAP9 DUP12 JUMPDEST PUSH2 0xE6C PUSH2 0xDA8 DUP12 PUSH2 0x107F JUMP JUMPDEST DUP14 GT PUSH2 0xEB3 JUMPI PUSH0 MLOAD PUSH1 0x20 PUSH2 0x20E1 PUSH0 CODECOPY PUSH0 MLOAD SWAP1 PUSH0 MSTORE DUP16 PUSH2 0xEA4 DUP16 DUP16 SWAP1 DUP16 DUP16 DUP16 SWAP8 PUSH2 0xD62 DUP2 DUP7 PUSH2 0xD5C PUSH2 0x4AE SWAP8 PUSH2 0xD67 SWAP7 PUSH2 0xEAC SWAP15 PUSH2 0x1132 JUMP JUMPDEST SWAP13 MULMOD SWAP13 PUSH2 0x1071 JUMP JUMPDEST SWAP12 SWAP10 PUSH2 0xE60 JUMP JUMPDEST POP SWAP4 DUP9 DUP9 DUP15 PUSH2 0xED1 PUSH2 0xEC4 DUP16 PUSH2 0x15F9 JUMP JUMPDEST PUSH2 0xECC PUSH2 0x11B2 JUMP JUMPDEST PUSH2 0x13C7 JUMP JUMPDEST SWAP1 PUSH0 SWAP9 PUSH1 0x1 SWAP6 PUSH0 SWAP11 JUMPDEST PUSH2 0xEE6 PUSH2 0xDA8 DUP9 PUSH2 0x1518 JUMP JUMPDEST DUP13 GT PUSH2 0xF6E JUMPI DUP10 DUP15 SWAP2 DUP14 DUP12 DUP15 DUP12 DUP4 EQ DUP1 ISZERO PUSH2 0xF5D JUMPI JUMPDEST PUSH2 0xF3D JUMPI DUP13 PUSH2 0xD67 DUP6 PUSH2 0x49E PUSH2 0xF36 SWAP10 SWAP8 DUP10 PUSH2 0x498 PUSH2 0xF2E SWAP10 PUSH0 MLOAD PUSH1 0x20 PUSH2 0x20E1 PUSH0 CODECOPY PUSH0 MLOAD SWAP1 PUSH0 MSTORE SWAP13 SWAP10 PUSH2 0x4AE SWAP10 PUSH2 0x1132 JUMP JUMPDEST SWAP10 MULMOD SWAP12 PUSH2 0x1071 JUMP JUMPDEST SWAP11 SWAP7 PUSH2 0xEDA JUMP JUMPDEST POP POP POP SWAP9 PUSH0 MLOAD PUSH1 0x20 PUSH2 0x20E1 PUSH0 CODECOPY PUSH0 MLOAD SWAP1 PUSH0 MSTORE SWAP2 POP SWAP2 PUSH2 0xF36 SWAP3 MULMOD SWAP12 PUSH2 0x1071 JUMP JUMPDEST POP PUSH2 0xF67 DUP13 PUSH2 0x158D JUMP JUMPDEST DUP4 EQ PUSH2 0xEFC JUMP JUMPDEST POP DUP5 SWAP7 POP DUP6 PUSH2 0x5B5 DUP2 PUSH2 0x102A DUP16 PUSH2 0x5C8 SWAP15 PUSH2 0xFEB PUSH2 0x1057 SWAP16 DUP6 SWAP16 SWAP12 SWAP13 PUSH2 0x1032 SWAP14 PUSH2 0x1037 SWAP16 SWAP13 PUSH2 0x101A SWAP13 PUSH2 0xFE1 DUP5 SWAP16 PUSH2 0xFD6 SWAP15 PUSH2 0x1020 SWAP11 PUSH2 0xFCD PUSH2 0xFD6 PUSH2 0xFC3 PUSH2 0xFDC SWAP6 PUSH2 0xFBD PUSH2 0xFE6 SWAP14 PUSH2 0x139F JUMP JUMPDEST SWAP12 PUSH2 0x10B8 JUMP JUMPDEST SWAP3 SWAP1 PUSH2 0x5B5 PUSH2 0x1769 JUMP JUMPDEST SWAP4 PUSH2 0x5B5 PUSH2 0x655 JUMP JUMPDEST SWAP3 PUSH2 0x160F JUMP JUMPDEST PUSH2 0x2014 JUMP JUMPDEST PUSH2 0x160F JUMP JUMPDEST PUSH2 0x1871 JUMP JUMPDEST PUSH2 0xFF3 PUSH2 0x11B2 JUMP JUMPDEST SWAP10 PUSH2 0x1012 PUSH2 0x100A PUSH2 0x1003 DUP8 PUSH2 0x158D JUMP JUMPDEST DUP4 DUP6 PUSH2 0x1132 JUMP JUMPDEST SWAP9 SWAP1 SWAP12 PUSH2 0x10F2 JUMP JUMPDEST SWAP10 SWAP1 SWAP6 PUSH2 0x107F JUMP JUMPDEST SWAP2 PUSH2 0x1132 JUMP JUMPDEST SWAP8 SWAP1 SWAP5 CALLDATASIZE SWAP2 PUSH2 0x28B JUMP JUMPDEST SWAP5 CALLDATASIZE SWAP2 PUSH2 0x28B JUMP JUMPDEST PUSH2 0x18AF JUMP JUMPDEST PUSH2 0x1052 PUSH1 0x1 PUSH2 0x1049 PUSH2 0x964 DUP6 DUP6 PUSH2 0x10B8 JUMP JUMPDEST ISZERO ISZERO EQ ISZERO PUSH2 0x18ED JUMP JUMPDEST PUSH2 0x10B8 JUMP JUMPDEST SWAP1 PUSH2 0x1978 JUMP JUMPDEST PUSH4 0x4E487B71 PUSH1 0xE0 SHL PUSH0 MSTORE PUSH1 0x11 PUSH1 0x4 MSTORE PUSH1 0x24 PUSH0 REVERT JUMPDEST PUSH0 NOT DUP2 EQ PUSH2 0xB9D JUMPI PUSH1 0x1 ADD SWAP1 JUMP JUMPDEST PUSH0 NOT DUP2 ADD SWAP2 SWAP1 DUP3 GT PUSH2 0xB9D JUMPI JUMP JUMPDEST PUSH1 0x2 NOT DUP2 ADD SWAP2 SWAP1 DUP3 GT PUSH2 0xB9D JUMPI JUMP JUMPDEST PUSH1 0x1 NOT DUP2 ADD SWAP2 SWAP1 DUP3 GT PUSH2 0xB9D JUMPI JUMP JUMPDEST SWAP2 SWAP1 DUP3 SUB SWAP2 DUP3 GT PUSH2 0xB9D JUMPI JUMP JUMPDEST SWAP1 ISZERO PUSH2 0x600 JUMPI DUP1 CALLDATALOAD SWAP1 PUSH1 0x1E NOT DUP2 CALLDATASIZE SUB ADD DUP3 SLT ISZERO PUSH2 0x166 JUMPI ADD SWAP1 DUP2 CALLDATALOAD SWAP2 PUSH1 0x1 PUSH1 0x1 PUSH1 0x40 SHL SUB DUP4 GT PUSH2 0x166 JUMPI PUSH1 0x20 ADD DUP3 CALLDATASIZE SUB DUP2 SGT PUSH2 0x166 JUMPI SWAP2 SWAP1 JUMP JUMPDEST SWAP1 PUSH1 0x1 LT ISZERO PUSH2 0x600 JUMPI PUSH1 0x20 DUP2 ADD CALLDATALOAD SWAP1 PUSH1 0x1E NOT DUP2 CALLDATASIZE SUB ADD DUP3 SLT ISZERO PUSH2 0x166 JUMPI ADD SWAP1 DUP2 CALLDATALOAD SWAP2 PUSH1 0x1 PUSH1 0x1 PUSH1 0x40 SHL SUB DUP4 GT PUSH2 0x166 JUMPI PUSH1 0x20 ADD DUP3 CALLDATASIZE SUB DUP2 SGT PUSH2 0x166 JUMPI SWAP2 SWAP1 JUMP JUMPDEST SWAP2 SWAP1 DUP2 LT ISZERO PUSH2 0x600 JUMPI PUSH1 0x5 SHL DUP2 ADD CALLDATALOAD SWAP1 PUSH1 0x1E NOT DUP2 CALLDATASIZE SUB ADD DUP3 SLT ISZERO PUSH2 0x166 JUMPI ADD SWAP1 DUP2 CALLDATALOAD SWAP2 PUSH1 0x1 PUSH1 0x1 PUSH1 0x40 SHL SUB DUP4 GT PUSH2 0x166 JUMPI PUSH1 0x20 ADD DUP3 CALLDATASIZE SUB DUP2 SGT PUSH2 0x166 JUMPI SWAP2 SWAP1 JUMP JUMPDEST ISZERO PUSH2 0x117A JUMPI JUMP JUMPDEST PUSH1 0x40 MLOAD PUSH3 0x461BCD PUSH1 0xE5 SHL DUP2 MSTORE PUSH1 0x20 PUSH1 0x4 DUP3 ADD MSTORE PUSH1 0x10 PUSH1 0x24 DUP3 ADD MSTORE PUSH16 0x12D95E50DA1958DACC4811985A5B1959 PUSH1 0x82 SHL PUSH1 0x44 DUP3 ADD MSTORE PUSH1 0x64 SWAP1 REVERT JUMPDEST PUSH1 0x40 MLOAD SWAP1 PUSH2 0x11C1 PUSH1 0xA0 DUP4 PUSH2 0x24A JUMP JUMPDEST PUSH1 0x80 DUP3 MSTORE PUSH32 0xFCF5E095D5D00AF600DB18CB2C04B3EDD03CC744A2888AE40CAA232946C5E7E1 PUSH1 0x80 DUP4 PUSH16 0x17F1D3A73197D7942695638C4FA9AC0F PUSH1 0x20 DUP3 ADD MSTORE PUSH32 0xC3688C4F9774B905A14E3A3F171BAC586C55E83FF97A1AEFFB3AF00ADB22C6BB PUSH1 0x40 DUP3 ADD MSTORE PUSH16 0x8B3F481E3AAA0F1A09E30ED741D8AE4 PUSH1 0x60 DUP3 ADD MSTORE ADD MSTORE JUMP JUMPDEST ISZERO PUSH2 0x1246 JUMPI JUMP JUMPDEST PUSH1 0x40 MLOAD PUSH3 0x461BCD PUSH1 0xE5 SHL DUP2 MSTORE PUSH1 0x20 PUSH1 0x4 DUP3 ADD MSTORE PUSH1 0x10 PUSH1 0x24 DUP3 ADD MSTORE PUSH16 0x12D95E50DA1958DACC8811985A5B1959 PUSH1 0x82 SHL PUSH1 0x44 DUP3 ADD MSTORE PUSH1 0x64 SWAP1 REVERT JUMPDEST SWAP2 SWAP5 SWAP4 SWAP5 SWAP3 SWAP1 SWAP3 PUSH0 JUMPDEST PUSH2 0x1290 DUP4 PUSH2 0x109C JUMP JUMPDEST DUP2 GT PUSH2 0x1312 JUMPI PUSH2 0x130D SWAP1 PUSH2 0x12A4 DUP9 DUP6 PUSH2 0x10AB JUMP JUMPDEST DUP2 EQ PUSH2 0xB59 JUMPI PUSH2 0xB59 PUSH2 0x1308 PUSH2 0x12F4 PUSH2 0x12CB PUSH2 0x12C6 PUSH2 0xDA8 PUSH2 0xDA8 DUP8 DUP12 PUSH2 0x10AB JUMP JUMPDEST PUSH2 0x605 JUMP JUMPDEST POP PUSH2 0x12D7 DUP6 DUP10 DUP10 PUSH2 0x1132 JUMP JUMPDEST SWAP3 SWAP1 PUSH2 0x5B5 PUSH2 0x12ED PUSH2 0x12E8 DUP13 PUSH2 0x107F JUMP JUMPDEST PUSH2 0x5E8 JUMP JUMPDEST POP SWAP4 PUSH2 0x709 JUMP JUMPDEST PUSH2 0xFD6 PUSH2 0x1302 CALLDATASIZE DUP14 DUP14 PUSH2 0x28B JUMP JUMPDEST SWAP3 PUSH2 0x709 JUMP JUMPDEST PUSH2 0x1173 JUMP JUMPDEST PUSH2 0x1287 JUMP JUMPDEST POP SWAP2 SWAP3 SWAP4 SWAP5 PUSH1 0x1 EQ PUSH2 0x1367 JUMPI PUSH2 0x1362 SWAP4 PUSH2 0xFD6 PUSH2 0x1302 PUSH2 0x135D SWAP6 PUSH2 0x5B5 PUSH2 0x12E8 SWAP6 PUSH2 0x1354 PUSH2 0x134C PUSH2 0x1341 PUSH2 0x11B2 JUMP JUMPDEST SWAP10 DUP4 PUSH2 0x101A DUP2 PUSH2 0x107F JUMP JUMPDEST SWAP9 SWAP1 SWAP3 PUSH2 0x107F JUMP JUMPDEST POP SWAP7 CALLDATASIZE SWAP2 PUSH2 0x28B JUMP JUMPDEST PUSH2 0x123F JUMP JUMPDEST PUSH1 0x1 SWAP1 JUMP JUMPDEST POP POP POP POP PUSH1 0x1 SWAP1 JUMP JUMPDEST RETURNDATASIZE ISZERO PUSH2 0x139A JUMPI RETURNDATASIZE SWAP1 PUSH2 0x1381 DUP3 PUSH2 0x270 JUMP JUMPDEST SWAP2 PUSH2 0x138F PUSH1 0x40 MLOAD SWAP4 DUP5 PUSH2 0x24A JUMP JUMPDEST DUP3 MSTORE RETURNDATASIZE PUSH0 PUSH1 0x20 DUP5 ADD RETURNDATACOPY JUMP JUMPDEST PUSH1 0x60 SWAP1 JUMP JUMPDEST PUSH0 DUP1 SWAP2 PUSH1 0x20 DUP2 MLOAD SWAP2 ADD PUSH1 0xE GAS STATICCALL POP PUSH2 0x2DC PUSH2 0x1370 JUMP JUMPDEST DUP1 MLOAD SWAP2 SWAP1 DUP3 SWAP1 PUSH1 0x20 ADD DUP3 MCOPY ADD PUSH0 DUP2 MSTORE SWAP1 JUMP JUMPDEST PUSH0 SWAP2 SWAP1 PUSH2 0x3EE PUSH2 0x13E6 DUP5 SWAP4 PUSH1 0x40 MLOAD SWAP3 DUP4 SWAP2 PUSH2 0x8B4 PUSH1 0x20 DUP5 ADD DUP1 SWAP8 PUSH2 0x13B5 JUMP JUMPDEST MLOAD SWAP1 PUSH1 0xB GAS STATICCALL POP PUSH2 0x2DC PUSH2 0x1370 JUMP JUMPDEST SWAP1 DUP1 PUSH1 0x20 SWAP4 SWAP3 DUP2 DUP5 MSTORE DUP5 DUP5 ADD CALLDATACOPY PUSH0 DUP3 DUP3 ADD DUP5 ADD MSTORE PUSH1 0x1F ADD PUSH1 0x1F NOT AND ADD ADD SWAP1 JUMP JUMPDEST SWAP1 PUSH1 0x20 DUP4 DUP3 DUP2 MSTORE ADD SWAP1 PUSH1 0x20 DUP2 PUSH1 0x5 SHL DUP6 ADD ADD SWAP4 DUP4 PUSH0 SWAP2 JUMPDEST DUP4 DUP4 LT PUSH2 0x143C JUMPI POP POP POP POP POP POP SWAP1 JUMP JUMPDEST SWAP1 SWAP2 SWAP3 SWAP4 SWAP5 SWAP6 PUSH1 0x1F NOT DUP3 DUP3 SUB ADD DUP7 MSTORE DUP7 CALLDATALOAD PUSH1 0x1E NOT DUP5 CALLDATASIZE SUB ADD DUP2 SLT ISZERO PUSH2 0x166 JUMPI DUP4 ADD SWAP1 PUSH1 0x20 DUP3 CALLDATALOAD SWAP3 ADD SWAP2 PUSH1 0x1 PUSH1 0x1 PUSH1 0x40 SHL SUB DUP2 GT PUSH2 0x166 JUMPI DUP1 CALLDATASIZE SUB DUP4 SGT PUSH2 0x166 JUMPI PUSH2 0x148C PUSH1 0x20 SWAP3 DUP4 SWAP3 PUSH1 0x1 SWAP6 PUSH2 0x13F5 JUMP JUMPDEST SWAP9 ADD SWAP7 ADD SWAP5 SWAP4 ADD SWAP2 SWAP1 PUSH2 0x142C JUMP JUMPDEST SWAP3 SWAP1 PUSH2 0x14B3 SWAP1 PUSH2 0x2DC SWAP6 SWAP4 PUSH1 0x40 DUP7 MSTORE PUSH1 0x40 DUP7 ADD SWAP2 PUSH2 0x13F5 JUMP JUMPDEST SWAP3 PUSH1 0x20 DUP2 DUP6 SUB SWAP2 ADD MSTORE PUSH2 0x1415 JUMP JUMPDEST SWAP1 DUP2 PUSH2 0x120 MUL SWAP2 PUSH2 0x120 DUP4 DIV SUB PUSH2 0xB9D JUMPI JUMP JUMPDEST SWAP1 DUP2 PUSH1 0x1 SHL SWAP2 DUP1 DUP4 DIV PUSH1 0x2 EQ SWAP1 ISZERO OR ISZERO PUSH2 0xB9D JUMPI JUMP JUMPDEST SWAP1 PUSH1 0xA0 DUP3 MUL SWAP2 DUP1 DUP4 DIV PUSH1 0xA0 EQ SWAP1 ISZERO OR ISZERO PUSH2 0xB9D JUMPI JUMP JUMPDEST SWAP1 PUSH2 0x120 DUP3 MUL SWAP2 DUP1 DUP4 DIV PUSH2 0x120 EQ SWAP1 ISZERO OR ISZERO PUSH2 0xB9D JUMPI JUMP JUMPDEST PUSH1 0x1 DUP2 SWAP1 SHL SWAP2 SWAP1 PUSH1 0x1 PUSH1 0x1 PUSH1 0xFF SHL SUB DUP2 AND SUB PUSH2 0xB9D JUMPI JUMP JUMPDEST SWAP1 PUSH2 0x153A DUP3 PUSH2 0x270 JUMP JUMPDEST PUSH2 0x1547 PUSH1 0x40 MLOAD SWAP2 DUP3 PUSH2 0x24A JUMP JUMPDEST DUP3 DUP2 MSTORE DUP1 SWAP3 PUSH2 0x1558 PUSH1 0x1F NOT SWAP2 PUSH2 0x270 JUMP JUMPDEST ADD SWAP1 PUSH1 0x20 CALLDATASIZE SWAP2 ADD CALLDATACOPY JUMP JUMPDEST SWAP1 PUSH2 0x100 DUP3 ADD DUP1 SWAP3 GT PUSH2 0xB9D JUMPI JUMP JUMPDEST SWAP1 PUSH1 0x20 DUP3 ADD DUP1 SWAP3 GT PUSH2 0xB9D JUMPI JUMP JUMPDEST SWAP1 PUSH1 0x80 DUP3 ADD DUP1 SWAP3 GT PUSH2 0xB9D JUMPI JUMP JUMPDEST SWAP1 PUSH1 0x1 DUP3 ADD DUP1 SWAP3 GT PUSH2 0xB9D JUMPI JUMP JUMPDEST ISZERO PUSH2 0x15A2 JUMPI JUMP JUMPDEST PUSH1 0x40 MLOAD PUSH3 0x461BCD PUSH1 0xE5 SHL DUP2 MSTORE PUSH1 0x20 PUSH1 0x4 DUP3 ADD MSTORE PUSH1 0xD PUSH1 0x24 DUP3 ADD MSTORE PUSH13 0x10DA1958DAD2D95E4811985A5B PUSH1 0x9A SHL PUSH1 0x44 DUP3 ADD MSTORE PUSH1 0x64 SWAP1 REVERT JUMPDEST PUSH1 0x20 DUP2 MLOAD SWAP2 ADD MLOAD SWAP1 PUSH1 0x20 DUP2 LT PUSH2 0x15EB JUMPI POP SWAP1 JUMP JUMPDEST PUSH0 NOT SWAP1 PUSH1 0x20 SUB PUSH1 0x3 SHL SHL AND SWAP1 JUMP JUMPDEST PUSH0 DUP1 SWAP2 PUSH1 0x20 DUP2 MLOAD SWAP2 ADD PUSH1 0xC GAS STATICCALL POP PUSH2 0x2DC PUSH2 0x1370 JUMP JUMPDEST SWAP1 PUSH2 0x168A PUSH2 0x8B4 SWAP2 PUSH2 0x3EE PUSH0 SWAP7 DUP8 DUP1 DUP1 SWAP9 PUSH1 0x40 MLOAD PUSH2 0x1664 PUSH1 0x20 DUP3 PUSH2 0x1636 DUP3 DUP3 ADD DUP1 SWAP7 PUSH2 0x13B5 JUMP JUMPDEST PUSH32 0x73EDA753299D7D483339D80809A1D80553BDA402FFFE5BFEFFFFFFFF00000000 DUP2 MSTORE SUB DUP1 DUP5 MSTORE ADD DUP3 PUSH2 0x24A JUMP JUMPDEST MLOAD SWAP1 PUSH1 0xC GAS STATICCALL POP PUSH2 0x8B4 PUSH2 0x1676 PUSH2 0x1370 JUMP JUMPDEST PUSH1 0x40 MLOAD SWAP7 DUP8 SWAP6 PUSH2 0x8B4 PUSH1 0x20 DUP9 ADD DUP1 SWAP12 PUSH2 0x13B5 JUMP JUMPDEST MLOAD SWAP1 PUSH1 0xF GAS STATICCALL POP PUSH1 0x1 PUSH2 0x169E PUSH2 0x8D0 PUSH2 0x1370 JUMP JUMPDEST EQ SWAP1 JUMP JUMPDEST PUSH0 SWAP2 SWAP1 DUP3 SWAP2 PUSH2 0x16CC PUSH1 0x20 PUSH1 0x40 MLOAD DUP1 SWAP4 PUSH2 0x16BE DUP4 DUP4 ADD DUP1 SWAP8 PUSH2 0x13B5 JUMP JUMPDEST SWAP1 DUP2 MSTORE SUB DUP1 DUP5 MSTORE ADD DUP3 PUSH2 0x24A JUMP JUMPDEST MLOAD SWAP1 PUSH1 0xC GAS STATICCALL POP PUSH2 0x2DC PUSH2 0x1370 JUMP JUMPDEST ISZERO PUSH2 0x166 JUMPI JUMP JUMPDEST SWAP5 SWAP4 SWAP3 PUSH0 SWAP4 PUSH2 0x16FF PUSH2 0x170D SWAP4 PUSH1 0x40 SWAP6 PUSH1 0x60 DUP11 MSTORE PUSH1 0x60 DUP11 ADD SWAP2 PUSH2 0x1415 JUMP JUMPDEST SWAP2 DUP8 DUP4 SUB PUSH1 0x20 DUP10 ADD MSTORE PUSH2 0x1415 JUMP JUMPDEST SWAP4 ADD MSTORE JUMP JUMPDEST SWAP5 SWAP4 SWAP3 PUSH1 0x1 SWAP4 PUSH2 0x16FF PUSH2 0x170D SWAP4 PUSH1 0x40 SWAP6 PUSH1 0x60 DUP11 MSTORE PUSH1 0x60 DUP11 ADD SWAP2 PUSH2 0x1415 JUMP JUMPDEST ISZERO PUSH2 0x1737 JUMPI JUMP JUMPDEST PUSH1 0x40 MLOAD PUSH3 0x461BCD PUSH1 0xE5 SHL DUP2 MSTORE PUSH1 0x20 PUSH1 0x4 DUP3 ADD MSTORE PUSH1 0xA PUSH1 0x24 DUP3 ADD MSTORE PUSH10 0x3130B2102398903632B7 PUSH1 0xB1 SHL PUSH1 0x44 DUP3 ADD MSTORE PUSH1 0x64 SWAP1 REVERT JUMPDEST PUSH1 0x40 MLOAD SWAP1 PUSH2 0x1779 PUSH2 0x120 DUP4 PUSH2 0x24A JUMP JUMPDEST PUSH2 0x100 DUP3 MSTORE PUSH32 0xCB3E287E85A763AF267492AB572E99AB3F370D275CEC1DA1AAA9075FF05F79BE PUSH2 0x100 DUP4 PUSH16 0x24AA2B2F08F0A91260805272DC51051 PUSH1 0x20 DUP3 ADD MSTORE PUSH32 0xC6E47AD4FA403B02B4510B647AE3D1770BAC0326A805BBEFD48056C8C121BDB8 PUSH1 0x40 DUP3 ADD MSTORE PUSH16 0x13E02B6052719F607DACD3A088274F65 PUSH1 0x60 DUP3 ADD MSTORE PUSH32 0x596BD0D09920B61AB5DA61BBDC7F5049334CF11213945D57E5AC7D055D042B7E PUSH1 0x80 DUP3 ADD MSTORE PUSH16 0xCE5D527727D6E118CC9CDC6DA2E351A PUSH1 0xA0 DUP3 ADD MSTORE PUSH32 0xADFD9BAA8CBDD3A76D429A695160D12C923AC9CC3BACA289E193548608B82801 PUSH1 0xC0 DUP3 ADD MSTORE PUSH16 0x606C4A02EA734CC32ACD2B02BC28B99 PUSH1 0xE0 DUP3 ADD MSTORE ADD MSTORE JUMP JUMPDEST ISZERO PUSH2 0x1878 JUMPI JUMP JUMPDEST PUSH1 0x40 MLOAD PUSH3 0x461BCD PUSH1 0xE5 SHL DUP2 MSTORE PUSH1 0x20 PUSH1 0x4 DUP3 ADD MSTORE PUSH1 0xF PUSH1 0x24 DUP3 ADD MSTORE PUSH15 0x10DA1958DACC8B4C4811985A5B1959 PUSH1 0x8A SHL PUSH1 0x44 DUP3 ADD MSTORE PUSH1 0x64 SWAP1 REVERT JUMPDEST ISZERO PUSH2 0x18B6 JUMPI JUMP JUMPDEST PUSH1 0x40 MLOAD PUSH3 0x461BCD PUSH1 0xE5 SHL DUP2 MSTORE PUSH1 0x20 PUSH1 0x4 DUP3 ADD MSTORE PUSH1 0xF PUSH1 0x24 DUP3 ADD MSTORE PUSH15 0x10DA1958DACC8B4C8811985A5B1959 PUSH1 0x8A SHL PUSH1 0x44 DUP3 ADD MSTORE PUSH1 0x64 SWAP1 REVERT JUMPDEST ISZERO PUSH2 0x18F4 JUMPI JUMP JUMPDEST PUSH1 0x40 MLOAD PUSH3 0x461BCD PUSH1 0xE5 SHL DUP2 MSTORE PUSH1 0x20 PUSH1 0x4 DUP3 ADD MSTORE PUSH1 0xD PUSH1 0x24 DUP3 ADD MSTORE PUSH13 0x10DA1958DACCC811985A5B1959 PUSH1 0x9A SHL PUSH1 0x44 DUP3 ADD MSTORE PUSH1 0x64 SWAP1 REVERT JUMPDEST PUSH1 0x1F DUP3 GT PUSH2 0x1936 JUMPI POP POP POP JUMP JUMPDEST PUSH0 MSTORE PUSH1 0x20 PUSH0 KECCAK256 SWAP1 PUSH1 0x20 PUSH1 0x1F DUP5 ADD PUSH1 0x5 SHR DUP4 ADD SWAP4 LT PUSH2 0x196E JUMPI JUMPDEST PUSH1 0x1F ADD PUSH1 0x5 SHR ADD SWAP1 JUMPDEST DUP2 DUP2 LT PUSH2 0x1963 JUMPI POP POP JUMP JUMPDEST PUSH0 DUP2 SSTORE PUSH1 0x1 ADD PUSH2 0x1958 JUMP JUMPDEST SWAP1 SWAP2 POP DUP2 SWAP1 PUSH2 0x194F JUMP JUMPDEST SWAP2 SWAP1 PUSH1 0x1 PUSH1 0x1 PUSH1 0x40 SHL SUB DUP2 GT PUSH2 0x26B JUMPI PUSH2 0x199C DUP2 PUSH2 0x1996 PUSH0 SLOAD PUSH2 0x61D JUMP JUMPDEST PUSH0 PUSH2 0x1929 JUMP JUMPDEST PUSH0 PUSH1 0x1F DUP3 GT PUSH1 0x1 EQ PUSH2 0x19D9 JUMPI DUP2 SWAP1 PUSH2 0x19CA SWAP4 SWAP5 PUSH0 SWAP3 PUSH2 0x19CE JUMPI JUMPDEST POP POP DUP2 PUSH1 0x1 SHL SWAP2 PUSH0 NOT SWAP1 PUSH1 0x3 SHL SHR NOT AND OR SWAP1 JUMP JUMPDEST PUSH0 SSTORE JUMP JUMPDEST ADD CALLDATALOAD SWAP1 POP PUSH0 DUP1 PUSH2 0x19B6 JUMP JUMPDEST PUSH0 DUP1 MSTORE PUSH1 0x1F NOT DUP3 AND SWAP4 PUSH32 0x290DECD9548B62A8D60345A988386FC84BA6BC95484008F6362F93160EF3E563 SWAP2 PUSH0 JUMPDEST DUP7 DUP2 LT PUSH2 0x1A3C JUMPI POP DUP4 PUSH1 0x1 SWAP6 SWAP7 LT PUSH2 0x1A23 JUMPI JUMPDEST POP POP POP DUP2 SHL ADD PUSH0 SSTORE JUMP JUMPDEST ADD CALLDATALOAD PUSH0 NOT PUSH1 0x3 DUP5 SWAP1 SHL PUSH1 0xF8 AND SHR NOT AND SWAP1 SSTORE PUSH0 DUP1 DUP1 PUSH2 0x1A19 JUMP JUMPDEST SWAP1 SWAP3 PUSH1 0x20 PUSH1 0x1 DUP2 SWAP3 DUP7 DUP7 ADD CALLDATALOAD DUP2 SSTORE ADD SWAP5 ADD SWAP2 ADD PUSH2 0x1A06 JUMP JUMPDEST SWAP1 SWAP3 SWAP2 PUSH1 0x1 PUSH1 0x1 PUSH1 0x40 SHL SUB DUP2 GT PUSH2 0x26B JUMPI PUSH2 0x1A79 DUP2 PUSH2 0x1A73 DUP5 SLOAD PUSH2 0x61D JUMP JUMPDEST DUP5 PUSH2 0x1929 JUMP JUMPDEST PUSH0 PUSH1 0x1F DUP3 GT PUSH1 0x1 EQ PUSH2 0x1AAB JUMPI DUP2 SWAP1 PUSH2 0x1AA7 SWAP4 SWAP5 SWAP6 PUSH0 SWAP3 PUSH2 0x19CE JUMPI POP POP DUP2 PUSH1 0x1 SHL SWAP2 PUSH0 NOT SWAP1 PUSH1 0x3 SHL SHR NOT AND OR SWAP1 JUMP JUMPDEST SWAP1 SSTORE JUMP JUMPDEST PUSH1 0x1F NOT DUP3 AND SWAP5 PUSH2 0x1ABE DUP5 PUSH0 MSTORE PUSH1 0x20 PUSH0 KECCAK256 SWAP1 JUMP JUMPDEST SWAP2 PUSH0 JUMPDEST DUP8 DUP2 LT PUSH2 0x1AF8 JUMPI POP DUP4 PUSH1 0x1 SWAP6 SWAP7 SWAP8 LT PUSH2 0x1ADF JUMPI JUMPDEST POP POP POP DUP2 SHL ADD SWAP1 SSTORE JUMP JUMPDEST ADD CALLDATALOAD PUSH0 NOT PUSH1 0x3 DUP5 SWAP1 SHL PUSH1 0xF8 AND SHR NOT AND SWAP1 SSTORE PUSH0 DUP1 DUP1 PUSH2 0x1AD5 JUMP JUMPDEST SWAP1 SWAP3 PUSH1 0x20 PUSH1 0x1 DUP2 SWAP3 DUP7 DUP7 ADD CALLDATALOAD DUP2 SSTORE ADD SWAP5 ADD SWAP2 ADD PUSH2 0x1AC1 JUMP JUMPDEST SWAP3 SWAP1 PUSH2 0x14B3 SWAP1 PUSH2 0x2DC SWAP6 SWAP4 PUSH1 0x40 DUP7 MSTORE PUSH1 0x40 DUP7 ADD SWAP2 PUSH2 0x1415 JUMP JUMPDEST SWAP1 DUP2 MLOAD DUP2 LT ISZERO PUSH2 0x600 JUMPI ADD PUSH1 0x20 ADD SWAP1 JUMP JUMPDEST SWAP1 DUP3 LT ISZERO PUSH2 0x600 JUMPI ADD SWAP1 JUMP JUMPDEST SWAP6 SWAP2 SWAP6 SWAP5 SWAP3 SWAP5 PUSH2 0x1B59 DUP7 PUSH2 0xC74 DUP5 PUSH2 0x14D4 JUMP JUMPDEST PUSH2 0x1B75 PUSH1 0x40 MLOAD PUSH1 0x20 DUP2 ADD SWAP1 PUSH2 0x3FC DUP2 PUSH2 0x3EE DUP12 DUP14 DUP10 DUP10 DUP9 PUSH2 0x16E2 JUMP JUMPDEST SWAP5 PUSH2 0x1B92 DUP9 PUSH1 0x40 MLOAD PUSH2 0x3FC DUP2 PUSH2 0x3EE DUP13 PUSH1 0x20 DUP4 ADD SWAP6 DUP11 DUP11 DUP9 PUSH2 0x1712 JUMP JUMPDEST SWAP1 PUSH1 0x1 SWAP5 PUSH2 0x1BA2 PUSH2 0x427 DUP7 PUSH2 0x14EA JUMP JUMPDEST SWAP10 PUSH2 0x1BB2 PUSH2 0x427 PUSH2 0xCD3 DUP13 PUSH2 0x108D JUMP JUMPDEST PUSH2 0x1BC1 PUSH2 0x427 PUSH2 0xCE8 DUP10 PUSH2 0x107F JUMP JUMPDEST SWAP11 PUSH2 0x1BD1 PUSH2 0x427 PUSH2 0xCD3 DUP4 PUSH2 0x109C JUMP JUMPDEST SWAP5 PUSH0 SWAP11 PUSH0 SWAP12 JUMPDEST PUSH2 0x1BE0 DUP12 PUSH2 0x107F JUMP JUMPDEST DUP14 GT PUSH2 0x1C34 JUMPI DUP16 DUP15 PUSH2 0x1C25 DUP16 SWAP3 DUP16 DUP16 SWAP1 DUP16 DUP8 PUSH2 0xD62 PUSH2 0x1C2D SWAP10 DUP7 PUSH2 0xD5C DUP12 DUP9 DUP8 PUSH2 0xD57 PUSH0 MLOAD PUSH1 0x20 PUSH2 0x20E1 PUSH0 CODECOPY PUSH0 MLOAD SWAP1 PUSH0 MSTORE SWAP16 PUSH2 0xD4F PUSH1 0x80 SWAP2 PUSH2 0x4AE SWAP15 PUSH2 0xD67 SWAP14 PUSH2 0x1132 JUMP JUMPDEST SWAP14 MULMOD SWAP13 PUSH2 0x1071 JUMP JUMPDEST SWAP12 SWAP11 PUSH2 0x1BD7 JUMP JUMPDEST POP SWAP4 SWAP11 POP SWAP4 SWAP7 SWAP11 SWAP5 SWAP12 SWAP2 SWAP9 POP SWAP7 SWAP5 SWAP12 PUSH2 0x1C4C SWAP1 PUSH2 0x15F9 JUMP JUMPDEST PUSH0 SWAP11 DUP14 SWAP8 DUP13 JUMPDEST DUP14 PUSH2 0x1C62 PUSH2 0xDA8 PUSH2 0xDA8 DUP13 PUSH2 0x1518 JUMP JUMPDEST LT PUSH2 0x1CEB JUMPI DUP16 SWAP1 DUP13 SWAP1 DUP16 DUP16 DUP15 SWAP1 PUSH2 0x1C78 DUP15 PUSH2 0x107F JUMP JUMPDEST DUP4 EQ DUP1 ISZERO PUSH2 0x1CE2 JUMPI JUMPDEST PUSH2 0x1CC2 JUMPI DUP15 PUSH2 0xD67 DUP6 PUSH2 0x49E PUSH2 0x1CBB SWAP10 SWAP8 DUP10 PUSH2 0x498 PUSH2 0x1CB3 SWAP10 PUSH0 MLOAD PUSH1 0x20 PUSH2 0x20E1 PUSH0 CODECOPY PUSH0 MLOAD SWAP1 PUSH0 MSTORE SWAP13 SWAP10 PUSH2 0x4AE SWAP10 PUSH2 0x1132 JUMP JUMPDEST SWAP12 MULMOD SWAP14 PUSH2 0x1071 JUMP JUMPDEST SWAP13 SWAP9 PUSH2 0x1C52 JUMP JUMPDEST POP POP POP SWAP11 PUSH0 MLOAD PUSH1 0x20 PUSH2 0x20E1 PUSH0 CODECOPY PUSH0 MLOAD SWAP1 PUSH0 MSTORE SWAP2 POP SWAP2 PUSH2 0x1CBB SWAP3 MULMOD SWAP14 PUSH2 0x1071 JUMP JUMPDEST POP DUP14 DUP4 EQ PUSH2 0x1C81 JUMP JUMPDEST POP SWAP7 SWAP9 SWAP6 SWAP14 SWAP5 SWAP13 SWAP3 SWAP11 SWAP4 SWAP10 PUSH2 0x1D07 SWAP3 SWAP13 POP PUSH2 0xE4C SWAP2 SWAP9 POP PUSH2 0x139F JUMP JUMPDEST SWAP4 PUSH0 SWAP11 DUP14 SWAP10 PUSH0 SWAP13 JUMPDEST DUP14 PUSH2 0x1D1C PUSH2 0xDA8 DUP14 PUSH2 0x107F JUMP JUMPDEST LT PUSH2 0x1D63 JUMPI DUP16 PUSH0 MLOAD PUSH1 0x20 PUSH2 0x20E1 PUSH0 CODECOPY PUSH0 MLOAD SWAP1 PUSH0 MSTORE SWAP1 DUP16 DUP16 DUP16 DUP16 SWAP1 DUP16 DUP8 PUSH2 0xD62 PUSH2 0x1D5C SWAP10 DUP7 PUSH2 0xD5C PUSH2 0x1D54 SWAP10 PUSH2 0x4AE SWAP9 PUSH2 0xD67 SWAP8 PUSH2 0x1132 JUMP JUMPDEST SWAP14 MULMOD SWAP14 PUSH2 0x1071 JUMP JUMPDEST SWAP13 SWAP11 PUSH2 0x1D0F JUMP JUMPDEST POP SWAP5 SWAP12 POP SWAP10 PUSH2 0xEC4 SWAP2 SWAP8 SWAP7 SWAP14 POP PUSH2 0x1D7F SWAP3 SWAP9 SWAP6 SWAP13 SWAP4 SWAP10 POP PUSH2 0x15F9 JUMP JUMPDEST PUSH0 SWAP9 PUSH1 0x1 SWAP6 SWAP2 DUP11 JUMPDEST PUSH2 0x1D93 PUSH2 0xDA8 DUP9 PUSH2 0x1518 JUMP JUMPDEST DUP13 GT PUSH2 0x1E13 JUMPI DUP10 DUP14 SWAP2 DUP14 DUP12 DUP15 DUP12 DUP4 EQ DUP1 ISZERO PUSH2 0x1E02 JUMPI JUMPDEST PUSH2 0x1DE2 JUMPI DUP13 PUSH2 0xD67 DUP6 PUSH2 0x49E PUSH2 0x1DDB SWAP10 SWAP8 DUP10 PUSH2 0x498 PUSH2 0xF2E SWAP10 PUSH0 MLOAD PUSH1 0x20 PUSH2 0x20E1 PUSH0 CODECOPY PUSH0 MLOAD SWAP1 PUSH0 MSTORE SWAP13 SWAP10 PUSH2 0x4AE SWAP10 PUSH2 0x1132 JUMP JUMPDEST SWAP11 SWAP7 PUSH2 0x1D87 JUMP JUMPDEST POP POP POP SWAP9 PUSH0 MLOAD PUSH1 0x20 PUSH2 0x20E1 PUSH0 CODECOPY PUSH0 MLOAD SWAP1 PUSH0 MSTORE SWAP2 POP SWAP2 PUSH2 0x1DDB SWAP3 MULMOD SWAP12 PUSH2 0x1071 JUMP JUMPDEST POP PUSH2 0x1E0C DUP13 PUSH2 0x158D JUMP JUMPDEST DUP4 EQ PUSH2 0x1DA9 JUMP JUMPDEST POP PUSH2 0x1EBD SWAP10 SWAP4 SWAP12 POP PUSH2 0x1EC8 SWAP11 POP PUSH2 0x1EB1 SWAP7 POP SWAP7 PUSH2 0x1E47 PUSH2 0xFE6 PUSH2 0x3FC SWAP4 PUSH2 0x1EAB SWAP8 SWAP16 SWAP11 PUSH2 0x1EB8 SWAP12 PUSH2 0xFD6 PUSH2 0x3EE SWAP9 SWAP15 PUSH2 0x139F JUMP JUMPDEST PUSH2 0x1E79 PUSH2 0x1032 DUP6 DUP12 PUSH2 0x101A PUSH2 0xFD6 DUP12 PUSH2 0x5B5 DUP2 PUSH2 0x102A PUSH2 0x1020 PUSH2 0x1E68 PUSH2 0x11B2 JUMP JUMPDEST SWAP9 DUP13 PUSH2 0x1012 PUSH2 0x100A PUSH2 0x1003 DUP8 PUSH2 0x158D JUMP JUMPDEST PUSH2 0x1E8B PUSH1 0x1 PUSH2 0x1049 PUSH2 0x964 DUP10 DUP14 PUSH2 0x10B8 JUMP JUMPDEST PUSH2 0x1E98 PUSH2 0x1057 DUP8 DUP12 PUSH2 0x10B8 JUMP JUMPDEST PUSH1 0x40 MLOAD SWAP3 DUP4 SWAP2 PUSH1 0x20 DUP4 ADD SWAP6 DUP9 DUP13 DUP9 PUSH2 0x1B10 JUMP JUMPDEST SWAP4 PUSH2 0x10B8 JUMP JUMPDEST CALLDATASIZE SWAP2 PUSH2 0x28B JUMP JUMPDEST PUSH2 0x16A2 JUMP JUMPDEST PUSH2 0x3BA CALLDATASIZE DUP6 DUP6 PUSH2 0x28B JUMP JUMPDEST SWAP2 PUSH0 JUMPDEST PUSH1 0x80 DUP2 LT PUSH2 0x1EDC JUMPI POP POP POP POP PUSH1 0x1 SWAP1 JUMP JUMPDEST PUSH2 0x1EF7 PUSH2 0x1EE9 DUP3 DUP7 PUSH2 0x1B29 JUMP JUMPDEST MLOAD PUSH1 0x1 PUSH1 0x1 PUSH1 0xF8 SHL SUB NOT AND SWAP1 JUMP JUMPDEST PUSH2 0x1F23 PUSH2 0x1F16 PUSH2 0x1F08 DUP5 DUP7 DUP9 PUSH2 0x1B3A JUMP JUMPDEST CALLDATALOAD PUSH1 0x1 PUSH1 0x1 PUSH1 0xF8 SHL SUB NOT AND SWAP1 JUMP JUMPDEST PUSH1 0x1 PUSH1 0x1 PUSH1 0xF8 SHL SUB NOT AND SWAP1 JUMP JUMPDEST PUSH1 0x1 PUSH1 0x1 PUSH1 0xF8 SHL SUB NOT SWAP1 SWAP2 AND SUB PUSH2 0x1F3C JUMPI PUSH1 0x1 ADD PUSH2 0x1ECB JUMP JUMPDEST POP POP POP POP PUSH0 SWAP1 JUMP JUMPDEST PUSH0 SWAP2 SWAP1 PUSH2 0x3EE PUSH2 0x1F63 DUP5 SWAP4 PUSH1 0x40 MLOAD SWAP3 DUP4 SWAP2 PUSH2 0x8B4 PUSH1 0x20 DUP5 ADD DUP1 SWAP8 PUSH2 0x13B5 JUMP JUMPDEST MLOAD SWAP1 PUSH1 0xD GAS STATICCALL POP PUSH2 0x2DC PUSH2 0x1370 JUMP JUMPDEST SWAP1 PUSH1 0x2 SLOAD SWAP2 PUSH1 0x1 PUSH1 0x40 SHL DUP4 LT ISZERO PUSH2 0x26B JUMPI PUSH1 0x1 DUP4 ADD PUSH1 0x2 SSTORE PUSH1 0x2 SLOAD DUP4 LT ISZERO PUSH2 0x600 JUMPI PUSH1 0x2 PUSH0 MSTORE PUSH2 0x68B SWAP3 PUSH32 0x405787FA12A823E0F2B7631CC41B3BA8828B3321CA811111FA75CD3AA3BB5ACE ADD PUSH2 0x1A54 JUMP JUMPDEST SWAP1 PUSH1 0x3 SLOAD SWAP2 PUSH1 0x1 PUSH1 0x40 SHL DUP4 LT ISZERO PUSH2 0x26B JUMPI PUSH1 0x1 DUP4 ADD PUSH1 0x3 SSTORE PUSH1 0x3 SLOAD DUP4 LT ISZERO PUSH2 0x600 JUMPI PUSH1 0x3 PUSH0 MSTORE PUSH2 0x68B SWAP3 PUSH32 0xC2575A0E9E593C00F959F8C92F12DB2869C3395A3B0502D05E2516446F71F85B ADD PUSH2 0x1A54 JUMP JUMPDEST ISZERO PUSH2 0x201B JUMPI JUMP JUMPDEST PUSH1 0x40 MLOAD PUSH3 0x461BCD PUSH1 0xE5 SHL DUP2 MSTORE PUSH1 0x20 PUSH1 0x4 DUP3 ADD MSTORE PUSH1 0xD PUSH1 0x24 DUP3 ADD MSTORE PUSH13 0x10DA1958DACC4811985A5B1959 PUSH1 0x9A SHL PUSH1 0x44 DUP3 ADD MSTORE PUSH1 0x64 SWAP1 REVERT JUMPDEST SWAP1 PUSH2 0x100 SWAP3 PUSH1 0x20 SWAP2 ADD ADD CALLDATACOPY JUMP JUMPDEST SWAP1 PUSH1 0x80 SWAP3 PUSH1 0x20 SWAP2 ADD ADD CALLDATACOPY JUMP JUMPDEST SWAP2 SWAP1 SWAP2 DUP1 SLOAD PUSH1 0x1 DUP2 AND ISZERO PUSH2 0x166 JUMPI PUSH2 0x100 SWAP1 PUSH0 NOT ADD PUSH1 0x1 SHR SUB PUSH2 0x166 JUMPI PUSH2 0x100 SWAP2 PUSH1 0x7 SWAP2 PUSH0 MSTORE PUSH1 0x20 PUSH0 KECCAK256 SWAP4 ADD SWAP3 DUP1 SLOAD PUSH1 0x20 DUP6 ADD MSTORE PUSH1 0x1 DUP2 ADD SLOAD PUSH1 0x40 DUP6 ADD MSTORE PUSH1 0x2 DUP2 ADD SLOAD PUSH1 0x60 DUP6 ADD MSTORE PUSH1 0x3 DUP2 ADD SLOAD PUSH1 0x80 DUP6 ADD MSTORE PUSH1 0x4 DUP2 ADD SLOAD PUSH1 0xA0 DUP6 ADD MSTORE PUSH1 0x5 DUP2 ADD SLOAD PUSH1 0xC0 DUP6 ADD MSTORE PUSH1 0x6 DUP2 ADD SLOAD PUSH1 0xE0 DUP6 ADD MSTORE ADD SLOAD SWAP2 ADD MSTORE JUMP INVALID PUSH20 0xEDA753299D7D483339D80809A1D80553BDA402FF INVALID JUMPDEST INVALID SELFDESTRUCT SELFDESTRUCT SELFDESTRUCT SELFDESTRUCT STOP STOP STOP ADD LOG2 PUSH5 0x6970667358 0x22 SLT KECCAK256 RETURNDATASIZE SWAP3 0x4B DUP5 PUSH22 0x1171B08A229D3D1A4903E71B1BE867E3F9DF6B99C1B6 0xC3 REVERT 0x21 0x2F ADDRESS PUSH5 0x736F6C6343 STOP ADDMOD 0x1F STOP CALLER 0x29 0xD EOFCREATE 0xD9 SLOAD DUP12 PUSH3 0xA8D603 GASLIMIT 0xA9 DUP9 CODESIZE PUSH16 0xC84BA6BC95484008F6362F93160EF3E5 PUSH4 0x0 "
		},
		"gasEstimates": {
			"creation": {
				"codeDepositCost": "1700400",
				"executionCost": "infinite",
				"totalCost": "infinite"
			},
			"external": {
				"Check(bytes[],bytes[],bytes)": "infinite",
				"CheckKey(bytes,bytes[],uint256)": "infinite",
				"CheckKeyDBE(bytes,bytes[],uint256)": "infinite",
				"CheckTest(bytes[],bytes[],bytes,uint256)": "infinite",
				"EqualPairingCheck(bytes,bytes,bytes,bytes)": "infinite",
				"G1Add(bytes,bytes)": "infinite",
				"G1Mul(bytes,uint256)": "infinite",
				"G1Muls(bytes)": "infinite",
				"G2Add(bytes,bytes)": "infinite",
				"G2Mul(bytes,uint256)": "infinite",
				"G2Muls(bytes)": "infinite",
				"Pairing(bytes,bytes,bytes,bytes)": "infinite",
				"SetPP(bytes[],bytes[])": "infinite",
				"ZeroCheck(bytes)": "656",
				"lastg()": "infinite",
				"ppg1s(uint256)": "infinite",
				"ppg2s(uint256)": "infinite",
				"w()": "2294"
			},
			"internal": {
				"CopyBytes(bytes calldata,uint256,bytes memory,uint256,uint256)": "infinite",
				"CopyStorageBytes256(bytes storage pointer,bytes memory,uint256)": "infinite",
				"CopyUint(uint256,bytes memory,uint256)": "infinite"
			}
		},
		"methodIdentifiers": {
			"Check(bytes[],bytes[],bytes)": "e86d06c7",
			"CheckKey(bytes,bytes[],uint256)": "51e54308",
			"CheckKeyDBE(bytes,bytes[],uint256)": "06325239",
			"CheckTest(bytes[],bytes[],bytes,uint256)": "c588e555",
			"EqualPairingCheck(bytes,bytes,bytes,bytes)": "6f18b669",
			"G1Add(bytes,bytes)": "4d919405",
			"G1Mul(bytes,uint256)": "c1f2c915",
			"G1Muls(bytes)": "6592041a",
			"G2Add(bytes,bytes)": "d6385d60",
			"G2Mul(bytes,uint256)": "af1d0bd9",
			"G2Muls(bytes)": "3f009c16",
			"Pairing(bytes,bytes,bytes,bytes)": "5cdc73ef",
			"SetPP(bytes[],bytes[])": "e63c1828",
			"ZeroCheck(bytes)": "a66339b7",
			"lastg()": "8a2ba01c",
			"ppg1s(uint256)": "54b57f70",
			"ppg2s(uint256)": "e6859b9a",
			"w()": "205c9cc7"
		}
	},
	"abi": [
		{
			"inputs": [
				{
					"internalType": "bytes[]",
					"name": "g1s",
					"type": "bytes[]"
				},
				{
					"internalType": "bytes[]",
					"name": "g2s",
					"type": "bytes[]"
				},
				{
					"internalType": "bytes",
					"name": "gtau",
					"type": "bytes"
				}
			],
			"name": "Check",
			"outputs": [
				{
					"internalType": "bool",
					"name": "",
					"type": "bool"
				}
			],
			"stateMutability": "nonpayable",
			"type": "function"
		},
		{
			"inputs": [
				{
					"internalType": "bytes",
					"name": "g1s",
					"type": "bytes"
				},
				{
					"internalType": "bytes[]",
					"name": "g2s",
					"type": "bytes[]"
				},
				{
					"internalType": "uint256",
					"name": "index",
					"type": "uint256"
				}
			],
			"name": "CheckKey",
			"outputs": [
				{
					"internalType": "bool",
					"name": "",
					"type": "bool"
				}
			],
			"stateMutability": "nonpayable",
			"type": "function"
		},
		{
			"inputs": [
				{
					"internalType": "bytes",
					"name": "g1s",
					"type": "bytes"
				},
				{
					"internalType": "bytes[]",
					"name": "g2s",
					"type": "bytes[]"
				},
				{
					"internalType": "uint256",
					"name": "index",
					"type": "uint256"
				}
			],
			"name": "CheckKeyDBE",
			"outputs": [
				{
					"internalType": "bool",
					"name": "",
					"type": "bool"
				}
			],
			"stateMutability": "nonpayable",
			"type": "function"
		},
		{
			"inputs": [
				{
					"internalType": "bytes[]",
					"name": "g1s",
					"type": "bytes[]"
				},
				{
					"internalType": "bytes[]",
					"name": "g2s",
					"type": "bytes[]"
				},
				{
					"internalType": "bytes",
					"name": "pi1",
					"type": "bytes"
				},
				{
					"internalType": "uint256",
					"name": "pi2",
					"type": "uint256"
				}
			],
			"name": "CheckTest",
			"outputs": [
				{
					"internalType": "bool",
					"name": "",
					"type": "bool"
				}
			],
			"stateMutability": "nonpayable",
			"type": "function"
		},
		{
			"inputs": [
				{
					"internalType": "bytes",
					"name": "p1",
					"type": "bytes"
				},
				{
					"internalType": "bytes",
					"name": "p2",
					"type": "bytes"
				},
				{
					"internalType": "bytes",
					"name": "p3",
					"type": "bytes"
				},
				{
					"internalType": "bytes",
					"name": "p4",
					"type": "bytes"
				}
			],
			"name": "EqualPairingCheck",
			"outputs": [
				{
					"internalType": "bool",
					"name": "",
					"type": "bool"
				}
			],
			"stateMutability": "view",
			"type": "function"
		},
		{
			"inputs": [
				{
					"internalType": "bytes",
					"name": "p1",
					"type": "bytes"
				},
				{
					"internalType": "bytes",
					"name": "p2",
					"type": "bytes"
				}
			],
			"name": "G1Add",
			"outputs": [
				{
					"internalType": "bytes",
					"name": "point",
					"type": "bytes"
				}
			],
			"stateMutability": "view",
			"type": "function"
		},
		{
			"inputs": [
				{
					"internalType": "bytes",
					"name": "p1",
					"type": "bytes"
				},
				{
					"internalType": "uint256",
					"name": "scalar",
					"type": "uint256"
				}
			],
			"name": "G1Mul",
			"outputs": [
				{
					"internalType": "bytes",
					"name": "point",
					"type": "bytes"
				}
			],
			"stateMutability": "view",
			"type": "function"
		},
		{
			"inputs": [
				{
					"internalType": "bytes",
					"name": "d",
					"type": "bytes"
				}
			],
			"name": "G1Muls",
			"outputs": [
				{
					"internalType": "bytes",
					"name": "point",
					"type": "bytes"
				}
			],
			"stateMutability": "view",
			"type": "function"
		},
		{
			"inputs": [
				{
					"internalType": "bytes",
					"name": "p1",
					"type": "bytes"
				},
				{
					"internalType": "bytes",
					"name": "p2",
					"type": "bytes"
				}
			],
			"name": "G2Add",
			"outputs": [
				{
					"internalType": "bytes",
					"name": "point",
					"type": "bytes"
				}
			],
			"stateMutability": "view",
			"type": "function"
		},
		{
			"inputs": [
				{
					"internalType": "bytes",
					"name": "p1",
					"type": "bytes"
				},
				{
					"internalType": "uint256",
					"name": "scalar",
					"type": "uint256"
				}
			],
			"name": "G2Mul",
			"outputs": [
				{
					"internalType": "bytes",
					"name": "point",
					"type": "bytes"
				}
			],
			"stateMutability": "view",
			"type": "function"
		},
		{
			"inputs": [
				{
					"internalType": "bytes",
					"name": "d",
					"type": "bytes"
				}
			],
			"name": "G2Muls",
			"outputs": [
				{
					"internalType": "bytes",
					"name": "point",
					"type": "bytes"
				}
			],
			"stateMutability": "view",
			"type": "function"
		},
		{
			"inputs": [
				{
					"internalType": "bytes",
					"name": "p1",
					"type": "bytes"
				},
				{
					"internalType": "bytes",
					"name": "p2",
					"type": "bytes"
				},
				{
					"internalType": "bytes",
					"name": "p3",
					"type": "bytes"
				},
				{
					"internalType": "bytes",
					"name": "p4",
					"type": "bytes"
				}
			],
			"name": "Pairing",
			"outputs": [
				{
					"internalType": "bool",
					"name": "",
					"type": "bool"
				}
			],
			"stateMutability": "view",
			"type": "function"
		},
		{
			"inputs": [
				{
					"internalType": "bytes[]",
					"name": "g1s",
					"type": "bytes[]"
				},
				{
					"internalType": "bytes[]",
					"name": "g2s",
					"type": "bytes[]"
				}
			],
			"name": "SetPP",
			"outputs": [],
			"stateMutability": "nonpayable",
			"type": "function"
		},
		{
			"inputs": [
				{
					"internalType": "bytes",
					"name": "x",
					"type": "bytes"
				}
			],
			"name": "ZeroCheck",
			"outputs": [
				{
					"internalType": "bool",
					"name": "ok",
					"type": "bool"
				}
			],
			"stateMutability": "pure",
			"type": "function"
		},
		{
			"inputs": [],
			"name": "lastg",
			"outputs": [
				{
					"internalType": "bytes",
					"name": "",
					"type": "bytes"
				}
			],
			"stateMutability": "view",
			"type": "function"
		},
		{
			"inputs": [
				{
					"internalType": "uint256",
					"name": "",
					"type": "uint256"
				}
			],
			"name": "ppg1s",
			"outputs": [
				{
					"internalType": "bytes",
					"name": "",
					"type": "bytes"
				}
			],
			"stateMutability": "view",
			"type": "function"
		},
		{
			"inputs": [
				{
					"internalType": "uint256",
					"name": "",
					"type": "uint256"
				}
			],
			"name": "ppg2s",
			"outputs": [
				{
					"internalType": "bytes",
					"name": "",
					"type": "bytes"
				}
			],
			"stateMutability": "view",
			"type": "function"
		},
		{
			"inputs": [],
			"name": "w",
			"outputs": [
				{
					"internalType": "bool",
					"name": "",
					"type": "bool"
				}
			],
			"stateMutability": "view",
			"type": "function"
		}
	]
}