{
	"data": {
		"bytecode": {
			"linkReferences": {},
			"object": "6080346101985760a081016001600160401b0381118282101761018457604052608081526f17f1d3a73197d7942695638c4fa9ac0f60208201527fc3688c4f9774b905a14e3a3f171bac586c55e83ff97a1aeffb3af00adb22c6bb60408201526f08b3f481e3aaa0f1a09e30ed741d8ae460608201527ffcf5e095d5d00af600db18cb2c04b3edd03cc744a2888ae40caa232946c5e7e160808201525f54600190600181811c9116801561017a575b602082101461016657601f8111610115575b50505f80805260205f516020611a5a5f395f51905f525b608083106100fd576101015f5560ff19600154166001556040516118bd908161019d8239f35b602060018192848701518155019201920191906100d7565b5f8052601f0160051c5f516020611a5a5f395f51905f52017f290decd9548b62a8d60345a988386fc84ba6bc95484008f6362f93160ef3e5675b81811061015c57506100c0565b5f8155820161014f565b634e487b7160e01b5f52602260045260245ffd5b90607f16906100ae565b634e487b7160e01b5f52604160045260245ffd5b5f80fdfe60806040526004361015610011575f80fd5b5f3560e01c8063205c9cc7146100e45780633f009c16146100df5780634d919405146100da5780635cdc73ef146100d55780636592041a146100d05780636f18b669146100cb5780638a2ba01c146100c6578063a66339b7146100c1578063af1d0bd9146100bc578063c1f2c915146100b7578063c588e555146100b2578063d6385d60146100ad5763e86d06c7146100a8575f80fd5b6106d6565b6106bc565b610629565b6105ba565b61054c565b6104fc565b6104b4565b6103a2565b610389565b61031c565b61027a565b610207565b34610106575f36600319011261010657602060ff600154166040519015158152f35b5f80fd5b634e487b7160e01b5f52604160045260245ffd5b90601f801991011681019081106001600160401b0382111761013f57604052565b61010a565b6001600160401b03811161013f57601f01601f191660200190565b92919261016b82610144565b91610179604051938461011e565b829481845281830111610106578281602093845f960137010152565b9080601f83011215610106578160206101b09335910161015f565b90565b602060031982011261010657600435906001600160401b038211610106576101b091600401610195565b602060409281835280519182918282860152018484015e5f828201840152601f01601f1916010190565b346101065761022c61022061021b366101b3565b610baf565b604051918291826101dd565b0390f35b906040600319830112610106576004356001600160401b038111610106578261025b91600401610195565b91602435906001600160401b038211610106576101b091600401610195565b346101065761022c61022061028e36610230565b90610bd7565b906080600319830112610106576004356001600160401b03811161010657826102bf91600401610195565b916024356001600160401b03811161010657816102de91600401610195565b916044356001600160401b03811161010657826102fd91600401610195565b91606435906001600160401b038211610106576101b091600401610195565b34610106575f8061035161035161036561035761033836610294565b919392969060405196879561035160208801809b610bc5565b90610bc5565b03601f19810183528261011e565b5190600f5afa506020600161038061037b610b80565b610c05565b14604051908152f35b346101065761022c61022061039d366101b3565b610c27565b346101065760206103be6103b536610294565b92919091610c3d565b6040519015158152f35b90600182811c921680156103f6575b60208310146103e257565b634e487b7160e01b5f52602260045260245ffd5b91607f16916103d7565b604051905f825f5491610412836103c8565b80835292600181169081156104955750600114610438575b6104369250038361011e565b565b505f80805290917f290decd9548b62a8d60345a988386fc84ba6bc95484008f6362f93160ef3e5635b8183106104795750509060206104369282010161042a565b6020919350806001915483858901015201910190918492610461565b6020925061043694915060ff191682840152151560051b82010161042a565b34610106575f3660031901126101065761022c610220610400565b9181601f84011215610106578235916001600160401b038311610106576020838186019501011161010657565b34610106576020366003190112610106576004356001600160401b038111610106576103be61053160209236906004016104cf565b50606081013590604081013590602081013590351717171590565b34610106576040366003190112610106576004356001600160401b038111610106575f61057e819236906004016104cf565b6105a86020806024359360405194818692848401988937820190838201520301808452018261011e565b5190600e5afa5061022c610220610b80565b34610106576040366003190112610106576004356001600160401b038111610106576102206105f061022c923690600401610195565b60243590610cd0565b9181601f84011215610106578235916001600160401b038311610106576020808501948460051b01011161010657565b34610106576080366003190112610106576004356001600160401b038111610106576106599036906004016105f9565b6024356001600160401b038111610106576106789036906004016105f9565b919092604435926001600160401b0384116101065761022c946106a26106aa9536906004016104cf565b9490936113e6565b60405190151581529081906020820190565b346101065761022c6102206106d036610230565b906117e4565b34610106576060366003190112610106576004356001600160401b038111610106576107069036906004016105f9565b6024356001600160401b038111610106576107259036906004016105f9565b9290916044356001600160401b0381116101065761074a9094919436906004016104cf565b9461075e8361075883610d1d565b14610d7e565b610790604051602081019061077a81610357888b888c88610e2a565b5190205f5160206118685f395f51905f52900690565b936107ad604051602081019061077a81610357898c898988610e5a565b966001936107c26107bd85610d38565b610e78565b986107d76107bd6107d289610eaa565b610d4e565b986107ec6107bd6107e788610eb9565b610d38565b996107fc6107bd6107d28b610ec7565b5f99908a5b61080a8a610eb9565b8c11610883575f5160206118685f395f51905f528f6108748f918f8f8f8f97610861818661085b87868e61087c9f608061084e61086f9d6108669c61085694610f77565b905014610fb8565b610f77565b5061184e565b610ff1565b92830160200152565b610fff565b9c099b610ed6565b9a99610801565b5095888c8f988f6108948c9b610c27565b905f9b8a965f9d8e5b6108b16108ac6108ac8b610d66565b610eb9565b10610945578a8f918e928c8f6108c68d610eb9565b8314801561093c575b61091c578d6108668561090761091499978961090161090c995f5160206118685f395f51905f529c9961086f99610f77565b5061185a565b61100d565b9a099e610ed6565b9d978e61089d565b505050995f5160206118685f395f51905f5291509161091492099e610ed6565b508c83146108cf565b508893918c88928f8e6109688f61095b90610baf565b61096361102a565b6117e4565b995f998c988b5b61097b6108ac8b610eb9565b8d116109c2575f5160206118685f395f51905f528f6109b38f8f908f8f8f97610861818661085b61086f97610866966109bb9e610f77565b9c099c610ed6565b9b9961096f565b509388888e6109e06109d38f610c27565b6109db611132565b610bd7565b905f986001955f9a5b6109f56108ac88610d66565b8c11610a7d57898e918d8b8e8b83148015610a6c575b610a4c578c61086685610907610a45999789610901610a3d995f5160206118685f395f51905f529c9961086f99610f77565b99099b610ed6565b9a966109e9565b505050985f5160206118685f395f51905f52915091610a4592099b610ed6565b50610a768c61101c565b8314610a0b565b5084965085610adc81610b418f610b749e610b02610b6e9f859f9b9c610b499d610b4e9f9c610b319c610af8849f610aed9e610b379a610ae4610aed610ad2610af395610acc610afd9d610baf565b9b610ef8565b9290610adc61102a565b93369161015f565b93610adc610400565b92610c3d565b611812565b610c3d565b6111bf565b610b0a611132565b99610b29610b21610b1a8761101c565b8385610f77565b98909b610f37565b999095610eb9565b91610f77565b979094369161015f565b94369161015f565b6111fd565b610b696001610b606105318585610ef8565b1515141561123b565b610ef8565b906112c6565b60405160018152602090f35b3d15610baa573d90610b9182610144565b91610b9f604051938461011e565b82523d5f602084013e565b606090565b5f8091602081519101600e5afa506101b0610b80565b805191908290602001825e015f815290565b5f9190610357610bf68493604051928391610351602084018097610bc5565b5190600b5afa506101b0610b80565b602081519101519060208110610c19575090565b5f199060200360031b1b1690565b5f8091602081519101600c5afa506101b0610b80565b90610cb8610351916103575f9687808098604051610c92602082610c648282018096610bc5565b7f73eda753299d7d483339d80809a1d80553bda402fffe5bfeffffffff00000000815203808452018261011e565b5190600c5afa50610351610ca4610b80565b60405196879561035160208801809b610bc5565b5190600f5afa506001610ccc61037b610b80565b1490565b5f91908291610cfa60206040518093610cec8383018097610bc5565b90815203808452018261011e565b5190600c5afa506101b0610b80565b634e487b7160e01b5f52601160045260245ffd5b908160011b9180830460021490151715610d3357565b610d09565b9060a082029180830460a01490151715610d3357565b906101208202918083046101201490151715610d3357565b600181901b91906001600160ff1b03811603610d3357565b1561010657565b908060209392818452848401375f828201840152601f01601f1916010190565b90602083828152019060208160051b85010193835f915b838310610dcc5750505050505090565b909192939495601f198282030186528635601e198436030181121561010657830190602082359201916001600160401b03811161010657803603831361010657610e1c6020928392600195610d85565b980196019493019190610dbc565b9493925f93610e47610e559360409560608a5260608a0191610da5565b918783036020890152610da5565b930152565b949392600193610e47610e559360409560608a5260608a0191610da5565b90610e8282610144565b610e8f604051918261011e565b8281528092610ea0601f1991610144565b0190602036910137565b600219810191908211610d3357565b5f19810191908211610d3357565b600119810191908211610d3357565b5f198114610d335760010190565b634e487b7160e01b5f52603260045260245ffd5b9015610f3257803590601e19813603018212156101065701908135916001600160401b038311610106576020018236038113610106579190565b610ee4565b9060011015610f3257602081013590601e19813603018212156101065701908135916001600160401b038311610106576020018236038113610106579190565b9190811015610f325760051b81013590601e19813603018212156101065701908135916001600160401b038311610106576020018236038113610106579190565b15610fbf57565b60405162461bcd60e51b815260206004820152600a6024820152693130b2102398903632b760b11b6044820152606490fd5b9060808201809211610d3357565b9060208201809211610d3357565b906101008201809211610d3357565b9060018201809211610d3357565b6040519061103a6101208361011e565b61010082527fcb3e287e85a763af267492ab572e99ab3f370d275cec1da1aaa9075ff05f79be610100836f024aa2b2f08f0a91260805272dc5105160208201527fc6e47ad4fa403b02b4510b647ae3d1770bac0326a805bbefd48056c8c121bdb860408201526f13e02b6052719f607dacd3a088274f6560608201527f596bd0d09920b61ab5da61bbdc7f5049334cf11213945d57e5ac7d055d042b7e60808201526f0ce5d527727d6e118cc9cdc6da2e351a60a08201527fadfd9baa8cbdd3a76d429a695160d12c923ac9cc3baca289e193548608b8280160c08201526f0606c4a02ea734cc32acd2b02bc28b9960e08201520152565b6040519061114160a08361011e565b608082527ffcf5e095d5d00af600db18cb2c04b3edd03cc744a2888ae40caa232946c5e7e16080836f17f1d3a73197d7942695638c4fa9ac0f60208201527fc3688c4f9774b905a14e3a3f171bac586c55e83ff97a1aeffb3af00adb22c6bb60408201526f08b3f481e3aaa0f1a09e30ed741d8ae460608201520152565b156111c657565b60405162461bcd60e51b815260206004820152600f60248201526e10da1958dacc8b4c4811985a5b1959608a1b6044820152606490fd5b1561120457565b60405162461bcd60e51b815260206004820152600f60248201526e10da1958dacc8b4c8811985a5b1959608a1b6044820152606490fd5b1561124257565b60405162461bcd60e51b815260206004820152600d60248201526c10da1958daccc811985a5b1959609a1b6044820152606490fd5b601f821161128457505050565b5f5260205f20906020601f840160051c830193106112bc575b601f0160051c01905b8181106112b1575050565b5f81556001016112a6565b909150819061129d565b91906001600160401b03811161013f576112ea816112e45f546103c8565b5f611277565b5f601f821160011461132757819061131893945f9261131c575b50508160011b915f199060031b1c19161790565b5f55565b013590505f80611304565b5f8052601f198216937f290decd9548b62a8d60345a988386fc84ba6bc95484008f6362f93160ef3e563915f5b86811061138a5750836001959610611371575b505050811b015f55565b01355f19600384901b60f8161c191690555f8080611367565b90926020600181928686013581550194019101611354565b92906113bb906101b09593604086526040860191610da5565b926020818503910152610da5565b908151811015610f32570160200190565b90821015610f32570190565b9591959492946113f98661075884610d1d565b611415604051602081019061077a816103578b8d898988610e2a565b946114328860405161077a816103578c60208301958a8a88610e5a565b906001946114426107bd86610d38565b996114526107bd6107d28c610eaa565b6114616107bd6107e789610eb9565b9a6114716107bd6107d283610ec7565b945f9a5f9b5b6114808b610eb9565b8d116114d4578f8e6114c58f928f8f908f876108616114cd998661085b8b88876108565f5160206118685f395f51905f529f61084e60809161086f9e6108669d610f77565b9d099c610ed6565b9b9a611477565b50939a5093969a949b91985096949b6114ec90610c27565b5f9a8d978c5b8d6115026108ac6108ac8c610d66565b1061158b578f908c908f8f8e906115188e610eb9565b83148015611582575b611562578e6108668561090761155b999789610901611553995f5160206118685f395f51905f529c9961086f99610f77565b9b099d610ed6565b9c986114f2565b5050509a5f5160206118685f395f51905f5291509161155b92099d610ed6565b508d8314611521565b509698959d949c929a93996115a7929c5061095b919850610baf565b935f9a8d995f9c5b8d6115bc6108ac8d610eb9565b10611603578f5f5160206118685f395f51905f52908f8f8f8f908f876108616115fc998661085b6115f49961086f9861086697610f77565b9d099d610ed6565b9c9a6115af565b50949b50996109d39197969d5061161f9298959c939950610c27565b5f98600195918a5b6116336108ac88610d66565b8c116116b357898d918d8b8e8b831480156116a2575b611682578c6108668561090761167b999789610901610a3d995f5160206118685f395f51905f529c9961086f99610f77565b9a96611627565b505050985f5160206118685f395f51905f5291509161167b92099b610ed6565b506116ac8c61101c565b8314611649565b5061175d99939b506117689a506117519650966116e7610afd61077a9361174b979f9a6117589b610aed610357989e610baf565b611719610b49858b610b31610aed8b610adc81610b41610b37611708611132565b988c610b29610b21610b1a8761101c565b61172b6001610b60610531898d610ef8565b611738610b6e878b610ef8565b6040519283916020830195888c886113a2565b93610ef8565b369161015f565b610cd0565b61028e36858561015f565b915f5b6080811061177c5750505050600190565b61179761178982866113c9565b516001600160f81b03191690565b6117c36117b66117a88486886113da565b356001600160f81b03191690565b6001600160f81b03191690565b6001600160f81b0319909116036117dc5760010161176b565b505050505f90565b5f91906103576118038493604051928391610351602084018097610bc5565b5190600d5afa506101b0610b80565b1561181957565b60405162461bcd60e51b815260206004820152600d60248201526c10da1958dacc4811985a5b1959609a1b6044820152606490fd5b90608092602091010137565b906101009260209101013756fe73eda753299d7d483339d80809a1d80553bda402fffe5bfeffffffff00000001a2646970667358221220ef08933d8f8fb3927898ddd7f3a6870ea1df3e35152ab9d4910d92ecade043a564736f6c634300081f0033290decd9548b62a8d60345a988386fc84ba6bc95484008f6362f93160ef3e563",
			"opcodes": "PUSH1 0x80 CALLVALUE PUSH2 0x198 JUMPI PUSH1 0xA0 DUP2 ADD PUSH1 0x1 PUSH1 0x1 PUSH1 0x40 SHL SUB DUP2 GT DUP3 DUP3 LT OR PUSH2 0x184 JUMPI PUSH1 0x40 MSTORE PUSH1 0x80 DUP2 MSTORE PUSH16 0x17F1D3A73197D7942695638C4FA9AC0F PUSH1 0x20 DUP3 ADD MSTORE PUSH32 0xC3688C4F9774B905A14E3A3F171BAC586C55E83FF97A1AEFFB3AF00ADB22C6BB PUSH1 0x40 DUP3 ADD MSTORE PUSH16 0x8B3F481E3AAA0F1A09E30ED741D8AE4 PUSH1 0x60 DUP3 ADD MSTORE PUSH32 0xFCF5E095D5D00AF600DB18CB2C04B3EDD03CC744A2888AE40CAA232946C5E7E1 PUSH1 0x80 DUP3 ADD MSTORE PUSH0 SLOAD PUSH1 0x1 SWAP1 PUSH1 0x1 DUP2 DUP2 SHR SWAP2 AND DUP1 ISZERO PUSH2 0x17A JUMPI JUMPDEST PUSH1 0x20 DUP3 LT EQ PUSH2 0x166 JUMPI PUSH1 0x1F DUP2 GT PUSH2 0x115 JUMPI JUMPDEST POP POP PUSH0 DUP1 DUP1 MSTORE PUSH1 0x20 PUSH0 MLOAD PUSH1 0x20 PUSH2 0x1A5A PUSH0 CODECOPY PUSH0 MLOAD SWAP1 PUSH0 MSTORE JUMPDEST PUSH1 0x80 DUP4 LT PUSH2 0xFD JUMPI PUSH2 0x101 PUSH0 SSTORE PUSH1 0xFF NOT PUSH1 0x1 SLOAD AND PUSH1 0x1 SSTORE PUSH1 0x40 MLOAD PUSH2 0x18BD SWAP1 DUP2 PUSH2 0x19D DUP3 CODECOPY RETURN JUMPDEST PUSH1 0x20 PUSH1 0x1 DUP2 SWAP3 DUP5 DUP8 ADD MLOAD DUP2 SSTORE ADD SWAP3 ADD SWAP3 ADD SWAP2 SWAP1 PUSH2 0xD7 JUMP JUMPDEST PUSH0 DUP1 MSTORE PUSH1 0x1F ADD PUSH1 0x5 SHR PUSH0 MLOAD PUSH1 0x20 PUSH2 0x1A5A PUSH0 CODECOPY PUSH0 MLOAD SWAP1 PUSH0 MSTORE ADD PUSH32 0x290DECD9548B62A8D60345A988386FC84BA6BC95484008F6362F93160EF3E567 JUMPDEST DUP2 DUP2 LT PUSH2 0x15C JUMPI POP PUSH2 0xC0 JUMP JUMPDEST PUSH0 DUP2 SSTORE DUP3 ADD PUSH2 0x14F JUMP JUMPDEST PUSH4 0x4E487B71 PUSH1 0xE0 SHL PUSH0 MSTORE PUSH1 0x22 PUSH1 0x4 MSTORE PUSH1 0x24 PUSH0 REVERT JUMPDEST SWAP1 PUSH1 0x7F AND SWAP1 PUSH2 0xAE JUMP JUMPDEST PUSH4 0x4E487B71 PUSH1 0xE0 SHL PUSH0 MSTORE PUSH1 0x41 PUSH1 0x4 MSTORE PUSH1 0x24 PUSH0 REVERT JUMPDEST PUSH0 DUP1 REVERT INVALID PUSH1 0x80 PUSH1 0x40 MSTORE PUSH1 0x4 CALLDATASIZE LT ISZERO PUSH2 0x11 JUMPI PUSH0 DUP1 REVERT JUMPDEST PUSH0 CALLDATALOAD PUSH1 0xE0 SHR DUP1 PUSH4 0x205C9CC7 EQ PUSH2 0xE4 JUMPI DUP1 PUSH4 0x3F009C16 EQ PUSH2 0xDF JUMPI DUP1 PUSH4 0x4D919405 EQ PUSH2 0xDA JUMPI DUP1 PUSH4 0x5CDC73EF EQ PUSH2 0xD5 JUMPI DUP1 PUSH4 0x6592041A EQ PUSH2 0xD0 JUMPI DUP1 PUSH4 0x6F18B669 EQ PUSH2 0xCB JUMPI DUP1 PUSH4 0x8A2BA01C EQ PUSH2 0xC6 JUMPI DUP1 PUSH4 0xA66339B7 EQ PUSH2 0xC1 JUMPI DUP1 PUSH4 0xAF1D0BD9 EQ PUSH2 0xBC JUMPI DUP1 PUSH4 0xC1F2C915 EQ PUSH2 0xB7 JUMPI DUP1 PUSH4 0xC588E555 EQ PUSH2 0xB2 JUMPI DUP1 PUSH4 0xD6385D60 EQ PUSH2 0xAD JUMPI PUSH4 0xE86D06C7 EQ PUSH2 0xA8 JUMPI PUSH0 DUP1 REVERT JUMPDEST PUSH2 0x6D6 JUMP JUMPDEST PUSH2 0x6BC JUMP JUMPDEST PUSH2 0x629 JUMP JUMPDEST PUSH2 0x5BA JUMP JUMPDEST PUSH2 0x54C JUMP JUMPDEST PUSH2 0x4FC JUMP JUMPDEST PUSH2 0x4B4 JUMP JUMPDEST PUSH2 0x3A2 JUMP JUMPDEST PUSH2 0x389 JUMP JUMPDEST PUSH2 0x31C JUMP JUMPDEST PUSH2 0x27A JUMP JUMPDEST PUSH2 0x207 JUMP JUMPDEST CALLVALUE PUSH2 0x106 JUMPI PUSH0 CALLDATASIZE PUSH1 0x3 NOT ADD SLT PUSH2 0x106 JUMPI PUSH1 0x20 PUSH1 0xFF PUSH1 0x1 SLOAD AND PUSH1 0x40 MLOAD SWAP1 ISZERO ISZERO DUP2 MSTORE RETURN JUMPDEST PUSH0 DUP1 REVERT JUMPDEST PUSH4 0x4E487B71 PUSH1 0xE0 SHL PUSH0 MSTORE PUSH1 0x41 PUSH1 0x4 MSTORE PUSH1 0x24 PUSH0 REVERT JUMPDEST SWAP1 PUSH1 0x1F DUP1 NOT SWAP2 ADD AND DUP2 ADD SWAP1 DUP2 LT PUSH1 0x1 PUSH1 0x1 PUSH1 0x40 SHL SUB DUP3 GT OR PUSH2 0x13F JUMPI PUSH1 0x40 MSTORE JUMP JUMPDEST PUSH2 0x10A JUMP JUMPDEST PUSH1 0x1 PUSH1 0x1 PUSH1 0x40 SHL SUB DUP2 GT PUSH2 0x13F JUMPI PUSH1 0x1F ADD PUSH1 0x1F NOT AND PUSH1 0x20 ADD SWAP1 JUMP JUMPDEST SWAP3 SWAP2 SWAP3 PUSH2 0x16B DUP3 PUSH2 0x144 JUMP JUMPDEST SWAP2 PUSH2 0x179 PUSH1 0x40 MLOAD SWAP4 DUP5 PUSH2 0x11E JUMP JUMPDEST DUP3 SWAP5 DUP2 DUP5 MSTORE DUP2 DUP4 ADD GT PUSH2 0x106 JUMPI DUP3 DUP2 PUSH1 0x20 SWAP4 DUP5 PUSH0 SWAP7 ADD CALLDATACOPY ADD ADD MSTORE JUMP JUMPDEST SWAP1 DUP1 PUSH1 0x1F DUP4 ADD SLT ISZERO PUSH2 0x106 JUMPI DUP2 PUSH1 0x20 PUSH2 0x1B0 SWAP4 CALLDATALOAD SWAP2 ADD PUSH2 0x15F JUMP JUMPDEST SWAP1 JUMP JUMPDEST PUSH1 0x20 PUSH1 0x3 NOT DUP3 ADD SLT PUSH2 0x106 JUMPI PUSH1 0x4 CALLDATALOAD SWAP1 PUSH1 0x1 PUSH1 0x1 PUSH1 0x40 SHL SUB DUP3 GT PUSH2 0x106 JUMPI PUSH2 0x1B0 SWAP2 PUSH1 0x4 ADD PUSH2 0x195 JUMP JUMPDEST PUSH1 0x20 PUSH1 0x40 SWAP3 DUP2 DUP4 MSTORE DUP1 MLOAD SWAP2 DUP3 SWAP2 DUP3 DUP3 DUP7 ADD MSTORE ADD DUP5 DUP5 ADD MCOPY PUSH0 DUP3 DUP3 ADD DUP5 ADD MSTORE PUSH1 0x1F ADD PUSH1 0x1F NOT AND ADD ADD SWAP1 JUMP JUMPDEST CALLVALUE PUSH2 0x106 JUMPI PUSH2 0x22C PUSH2 0x220 PUSH2 0x21B CALLDATASIZE PUSH2 0x1B3 JUMP JUMPDEST PUSH2 0xBAF JUMP JUMPDEST PUSH1 0x40 MLOAD SWAP2 DUP3 SWAP2 DUP3 PUSH2 0x1DD JUMP JUMPDEST SUB SWAP1 RETURN JUMPDEST SWAP1 PUSH1 0x40 PUSH1 0x3 NOT DUP4 ADD SLT PUSH2 0x106 JUMPI PUSH1 0x4 CALLDATALOAD PUSH1 0x1 PUSH1 0x1 PUSH1 0x40 SHL SUB DUP2 GT PUSH2 0x106 JUMPI DUP3 PUSH2 0x25B SWAP2 PUSH1 0x4 ADD PUSH2 0x195 JUMP JUMPDEST SWAP2 PUSH1 0x24 CALLDATALOAD SWAP1 PUSH1 0x1 PUSH1 0x1 PUSH1 0x40 SHL SUB DUP3 GT PUSH2 0x106 JUMPI PUSH2 0x1B0 SWAP2 PUSH1 0x4 ADD PUSH2 0x195 JUMP JUMPDEST CALLVALUE PUSH2 0x106 JUMPI PUSH2 0x22C PUSH2 0x220 PUSH2 0x28E CALLDATASIZE PUSH2 0x230 JUMP JUMPDEST SWAP1 PUSH2 0xBD7 JUMP JUMPDEST SWAP1 PUSH1 0x80 PUSH1 0x3 NOT DUP4 ADD SLT PUSH2 0x106 JUMPI PUSH1 0x4 CALLDATALOAD PUSH1 0x1 PUSH1 0x1 PUSH1 0x40 SHL SUB DUP2 GT PUSH2 0x106 JUMPI DUP3 PUSH2 0x2BF SWAP2 PUSH1 0x4 ADD PUSH2 0x195 JUMP JUMPDEST SWAP2 PUSH1 0x24 CALLDATALOAD PUSH1 0x1 PUSH1 0x1 PUSH1 0x40 SHL SUB DUP2 GT PUSH2 0x106 JUMPI DUP2 PUSH2 0x2DE SWAP2 PUSH1 0x4 ADD PUSH2 0x195 JUMP JUMPDEST SWAP2 PUSH1 0x44 CALLDATALOAD PUSH1 0x1 PUSH1 0x1 PUSH1 0x40 SHL SUB DUP2 GT PUSH2 0x106 JUMPI DUP3 PUSH2 0x2FD SWAP2 PUSH1 0x4 ADD PUSH2 0x195 JUMP JUMPDEST SWAP2 PUSH1 0x64 CALLDATALOAD SWAP1 PUSH1 0x1 PUSH1 0x1 PUSH1 0x40 SHL SUB DUP3 GT PUSH2 0x106 JUMPI PUSH2 0x1B0 SWAP2 PUSH1 0x4 ADD PUSH2 0x195 JUMP JUMPDEST CALLVALUE PUSH2 0x106 JUMPI PUSH0 DUP1 PUSH2 0x351 PUSH2 0x351 PUSH2 0x365 PUSH2 0x357 PUSH2 0x338 CALLDATASIZE PUSH2 0x294 JUMP JUMPDEST SWAP2 SWAP4 SWAP3 SWAP7 SWAP1 PUSH1 0x40 MLOAD SWAP7 DUP8 SWAP6 PUSH2 0x351 PUSH1 0x20 DUP9 ADD DUP1 SWAP12 PUSH2 0xBC5 JUMP JUMPDEST SWAP1 PUSH2 0xBC5 JUMP JUMPDEST SUB PUSH1 0x1F NOT DUP2 ADD DUP4 MSTORE DUP3 PUSH2 0x11E JUMP JUMPDEST MLOAD SWAP1 PUSH1 0xF GAS STATICCALL POP PUSH1 0x20 PUSH1 0x1 PUSH2 0x380 PUSH2 0x37B PUSH2 0xB80 JUMP JUMPDEST PUSH2 0xC05 JUMP JUMPDEST EQ PUSH1 0x40 MLOAD SWAP1 DUP2 MSTORE RETURN JUMPDEST CALLVALUE PUSH2 0x106 JUMPI PUSH2 0x22C PUSH2 0x220 PUSH2 0x39D CALLDATASIZE PUSH2 0x1B3 JUMP JUMPDEST PUSH2 0xC27 JUMP JUMPDEST CALLVALUE PUSH2 0x106 JUMPI PUSH1 0x20 PUSH2 0x3BE PUSH2 0x3B5 CALLDATASIZE PUSH2 0x294 JUMP JUMPDEST SWAP3 SWAP2 SWAP1 SWAP2 PUSH2 0xC3D JUMP JUMPDEST PUSH1 0x40 MLOAD SWAP1 ISZERO ISZERO DUP2 MSTORE RETURN JUMPDEST SWAP1 PUSH1 0x1 DUP3 DUP2 SHR SWAP3 AND DUP1 ISZERO PUSH2 0x3F6 JUMPI JUMPDEST PUSH1 0x20 DUP4 LT EQ PUSH2 0x3E2 JUMPI JUMP JUMPDEST PUSH4 0x4E487B71 PUSH1 0xE0 SHL PUSH0 MSTORE PUSH1 0x22 PUSH1 0x4 MSTORE PUSH1 0x24 PUSH0 REVERT JUMPDEST SWAP2 PUSH1 0x7F AND SWAP2 PUSH2 0x3D7 JUMP JUMPDEST PUSH1 0x40 MLOAD SWAP1 PUSH0 DUP3 PUSH0 SLOAD SWAP2 PUSH2 0x412 DUP4 PUSH2 0x3C8 JUMP JUMPDEST DUP1 DUP4 MSTORE SWAP3 PUSH1 0x1 DUP2 AND SWAP1 DUP2 ISZERO PUSH2 0x495 JUMPI POP PUSH1 0x1 EQ PUSH2 0x438 JUMPI JUMPDEST PUSH2 0x436 SWAP3 POP SUB DUP4 PUSH2 0x11E JUMP JUMPDEST JUMP JUMPDEST POP PUSH0 DUP1 DUP1 MSTORE SWAP1 SWAP2 PUSH32 0x290DECD9548B62A8D60345A988386FC84BA6BC95484008F6362F93160EF3E563 JUMPDEST DUP2 DUP4 LT PUSH2 0x479 JUMPI POP POP SWAP1 PUSH1 0x20 PUSH2 0x436 SWAP3 DUP3 ADD ADD PUSH2 0x42A JUMP JUMPDEST PUSH1 0x20 SWAP2 SWAP4 POP DUP1 PUSH1 0x1 SWAP2 SLOAD DUP4 DUP6 DUP10 ADD ADD MSTORE ADD SWAP2 ADD SWAP1 SWAP2 DUP5 SWAP3 PUSH2 0x461 JUMP JUMPDEST PUSH1 0x20 SWAP3 POP PUSH2 0x436 SWAP5 SWAP2 POP PUSH1 0xFF NOT AND DUP3 DUP5 ADD MSTORE ISZERO ISZERO PUSH1 0x5 SHL DUP3 ADD ADD PUSH2 0x42A JUMP JUMPDEST CALLVALUE PUSH2 0x106 JUMPI PUSH0 CALLDATASIZE PUSH1 0x3 NOT ADD SLT PUSH2 0x106 JUMPI PUSH2 0x22C PUSH2 0x220 PUSH2 0x400 JUMP JUMPDEST SWAP2 DUP2 PUSH1 0x1F DUP5 ADD SLT ISZERO PUSH2 0x106 JUMPI DUP3 CALLDATALOAD SWAP2 PUSH1 0x1 PUSH1 0x1 PUSH1 0x40 SHL SUB DUP4 GT PUSH2 0x106 JUMPI PUSH1 0x20 DUP4 DUP2 DUP7 ADD SWAP6 ADD ADD GT PUSH2 0x106 JUMPI JUMP JUMPDEST CALLVALUE PUSH2 0x106 JUMPI PUSH1 0x20 CALLDATASIZE PUSH1 0x3 NOT ADD SLT PUSH2 0x106 JUMPI PUSH1 0x4 CALLDATALOAD PUSH1 0x1 PUSH1 0x1 PUSH1 0x40 SHL SUB DUP2 GT PUSH2 0x106 JUMPI PUSH2 0x3BE PUSH2 0x531 PUSH1 0x20 SWAP3 CALLDATASIZE SWAP1 PUSH1 0x4 ADD PUSH2 0x4CF JUMP JUMPDEST POP PUSH1 0x60 DUP2 ADD CALLDATALOAD SWAP1 PUSH1 0x40 DUP2 ADD CALLDATALOAD SWAP1 PUSH1 0x20 DUP2 ADD CALLDATALOAD SWAP1 CALLDATALOAD OR OR OR ISZERO SWAP1 JUMP JUMPDEST CALLVALUE PUSH2 0x106 JUMPI PUSH1 0x40 CALLDATASIZE PUSH1 0x3 NOT ADD SLT PUSH2 0x106 JUMPI PUSH1 0x4 CALLDATALOAD PUSH1 0x1 PUSH1 0x1 PUSH1 0x40 SHL SUB DUP2 GT PUSH2 0x106 JUMPI PUSH0 PUSH2 0x57E DUP2 SWAP3 CALLDATASIZE SWAP1 PUSH1 0x4 ADD PUSH2 0x4CF JUMP JUMPDEST PUSH2 0x5A8 PUSH1 0x20 DUP1 PUSH1 0x24 CALLDATALOAD SWAP4 PUSH1 0x40 MLOAD SWAP5 DUP2 DUP7 SWAP3 DUP5 DUP5 ADD SWAP9 DUP10 CALLDATACOPY DUP3 ADD SWAP1 DUP4 DUP3 ADD MSTORE SUB ADD DUP1 DUP5 MSTORE ADD DUP3 PUSH2 0x11E JUMP JUMPDEST MLOAD SWAP1 PUSH1 0xE GAS STATICCALL POP PUSH2 0x22C PUSH2 0x220 PUSH2 0xB80 JUMP JUMPDEST CALLVALUE PUSH2 0x106 JUMPI PUSH1 0x40 CALLDATASIZE PUSH1 0x3 NOT ADD SLT PUSH2 0x106 JUMPI PUSH1 0x4 CALLDATALOAD PUSH1 0x1 PUSH1 0x1 PUSH1 0x40 SHL SUB DUP2 GT PUSH2 0x106 JUMPI PUSH2 0x220 PUSH2 0x5F0 PUSH2 0x22C SWAP3 CALLDATASIZE SWAP1 PUSH1 0x4 ADD PUSH2 0x195 JUMP JUMPDEST PUSH1 0x24 CALLDATALOAD SWAP1 PUSH2 0xCD0 JUMP JUMPDEST SWAP2 DUP2 PUSH1 0x1F DUP5 ADD SLT ISZERO PUSH2 0x106 JUMPI DUP3 CALLDATALOAD SWAP2 PUSH1 0x1 PUSH1 0x1 PUSH1 0x40 SHL SUB DUP4 GT PUSH2 0x106 JUMPI PUSH1 0x20 DUP1 DUP6 ADD SWAP5 DUP5 PUSH1 0x5 SHL ADD ADD GT PUSH2 0x106 JUMPI JUMP JUMPDEST CALLVALUE PUSH2 0x106 JUMPI PUSH1 0x80 CALLDATASIZE PUSH1 0x3 NOT ADD SLT PUSH2 0x106 JUMPI PUSH1 0x4 CALLDATALOAD PUSH1 0x1 PUSH1 0x1 PUSH1 0x40 SHL SUB DUP2 GT PUSH2 0x106 JUMPI PUSH2 0x659 SWAP1 CALLDATASIZE SWAP1 PUSH1 0x4 ADD PUSH2 0x5F9 JUMP JUMPDEST PUSH1 0x24 CALLDATALOAD PUSH1 0x1 PUSH1 0x1 PUSH1 0x40 SHL SUB DUP2 GT PUSH2 0x106 JUMPI PUSH2 0x678 SWAP1 CALLDATASIZE SWAP1 PUSH1 0x4 ADD PUSH2 0x5F9 JUMP JUMPDEST SWAP2 SWAP1 SWAP3 PUSH1 0x44 CALLDATALOAD SWAP3 PUSH1 0x1 PUSH1 0x1 PUSH1 0x40 SHL SUB DUP5 GT PUSH2 0x106 JUMPI PUSH2 0x22C SWAP5 PUSH2 0x6A2 PUSH2 0x6AA SWAP6 CALLDATASIZE SWAP1 PUSH1 0x4 ADD PUSH2 0x4CF JUMP JUMPDEST SWAP5 SWAP1 SWAP4 PUSH2 0x13E6 JUMP JUMPDEST PUSH1 0x40 MLOAD SWAP1 ISZERO ISZERO DUP2 MSTORE SWAP1 DUP2 SWAP1 PUSH1 0x20 DUP3 ADD SWAP1 JUMP JUMPDEST CALLVALUE PUSH2 0x106 JUMPI PUSH2 0x22C PUSH2 0x220 PUSH2 0x6D0 CALLDATASIZE PUSH2 0x230 JUMP JUMPDEST SWAP1 PUSH2 0x17E4 JUMP JUMPDEST CALLVALUE PUSH2 0x106 JUMPI PUSH1 0x60 CALLDATASIZE PUSH1 0x3 NOT ADD SLT PUSH2 0x106 JUMPI PUSH1 0x4 CALLDATALOAD PUSH1 0x1 PUSH1 0x1 PUSH1 0x40 SHL SUB DUP2 GT PUSH2 0x106 JUMPI PUSH2 0x706 SWAP1 CALLDATASIZE SWAP1 PUSH1 0x4 ADD PUSH2 0x5F9 JUMP JUMPDEST PUSH1 0x24 CALLDATALOAD PUSH1 0x1 PUSH1 0x1 PUSH1 0x40 SHL SUB DUP2 GT PUSH2 0x106 JUMPI PUSH2 0x725 SWAP1 CALLDATASIZE SWAP1 PUSH1 0x4 ADD PUSH2 0x5F9 JUMP JUMPDEST SWAP3 SWAP1 SWAP2 PUSH1 0x44 CALLDATALOAD PUSH1 0x1 PUSH1 0x1 PUSH1 0x40 SHL SUB DUP2 GT PUSH2 0x106 JUMPI PUSH2 0x74A SWAP1 SWAP5 SWAP2 SWAP5 CALLDATASIZE SWAP1 PUSH1 0x4 ADD PUSH2 0x4CF JUMP JUMPDEST SWAP5 PUSH2 0x75E DUP4 PUSH2 0x758 DUP4 PUSH2 0xD1D JUMP JUMPDEST EQ PUSH2 0xD7E JUMP JUMPDEST PUSH2 0x790 PUSH1 0x40 MLOAD PUSH1 0x20 DUP2 ADD SWAP1 PUSH2 0x77A DUP2 PUSH2 0x357 DUP9 DUP12 DUP9 DUP13 DUP9 PUSH2 0xE2A JUMP JUMPDEST MLOAD SWAP1 KECCAK256 PUSH0 MLOAD PUSH1 0x20 PUSH2 0x1868 PUSH0 CODECOPY PUSH0 MLOAD SWAP1 PUSH0 MSTORE SWAP1 MOD SWAP1 JUMP JUMPDEST SWAP4 PUSH2 0x7AD PUSH1 0x40 MLOAD PUSH1 0x20 DUP2 ADD SWAP1 PUSH2 0x77A DUP2 PUSH2 0x357 DUP10 DUP13 DUP10 DUP10 DUP9 PUSH2 0xE5A JUMP JUMPDEST SWAP7 PUSH1 0x1 SWAP4 PUSH2 0x7C2 PUSH2 0x7BD DUP6 PUSH2 0xD38 JUMP JUMPDEST PUSH2 0xE78 JUMP JUMPDEST SWAP9 PUSH2 0x7D7 PUSH2 0x7BD PUSH2 0x7D2 DUP10 PUSH2 0xEAA JUMP JUMPDEST PUSH2 0xD4E JUMP JUMPDEST SWAP9 PUSH2 0x7EC PUSH2 0x7BD PUSH2 0x7E7 DUP9 PUSH2 0xEB9 JUMP JUMPDEST PUSH2 0xD38 JUMP JUMPDEST SWAP10 PUSH2 0x7FC PUSH2 0x7BD PUSH2 0x7D2 DUP12 PUSH2 0xEC7 JUMP JUMPDEST PUSH0 SWAP10 SWAP1 DUP11 JUMPDEST PUSH2 0x80A DUP11 PUSH2 0xEB9 JUMP JUMPDEST DUP13 GT PUSH2 0x883 JUMPI PUSH0 MLOAD PUSH1 0x20 PUSH2 0x1868 PUSH0 CODECOPY PUSH0 MLOAD SWAP1 PUSH0 MSTORE DUP16 PUSH2 0x874 DUP16 SWAP2 DUP16 DUP16 DUP16 DUP16 SWAP8 PUSH2 0x861 DUP2 DUP7 PUSH2 0x85B DUP8 DUP7 DUP15 PUSH2 0x87C SWAP16 PUSH1 0x80 PUSH2 0x84E PUSH2 0x86F SWAP14 PUSH2 0x866 SWAP13 PUSH2 0x856 SWAP5 PUSH2 0xF77 JUMP JUMPDEST SWAP1 POP EQ PUSH2 0xFB8 JUMP JUMPDEST PUSH2 0xF77 JUMP JUMPDEST POP PUSH2 0x184E JUMP JUMPDEST PUSH2 0xFF1 JUMP JUMPDEST SWAP3 DUP4 ADD PUSH1 0x20 ADD MSTORE JUMP JUMPDEST PUSH2 0xFFF JUMP JUMPDEST SWAP13 MULMOD SWAP12 PUSH2 0xED6 JUMP JUMPDEST SWAP11 SWAP10 PUSH2 0x801 JUMP JUMPDEST POP SWAP6 DUP9 DUP13 DUP16 SWAP9 DUP16 PUSH2 0x894 DUP13 SWAP12 PUSH2 0xC27 JUMP JUMPDEST SWAP1 PUSH0 SWAP12 DUP11 SWAP7 PUSH0 SWAP14 DUP15 JUMPDEST PUSH2 0x8B1 PUSH2 0x8AC PUSH2 0x8AC DUP12 PUSH2 0xD66 JUMP JUMPDEST PUSH2 0xEB9 JUMP JUMPDEST LT PUSH2 0x945 JUMPI DUP11 DUP16 SWAP2 DUP15 SWAP3 DUP13 DUP16 PUSH2 0x8C6 DUP14 PUSH2 0xEB9 JUMP JUMPDEST DUP4 EQ DUP1 ISZERO PUSH2 0x93C JUMPI JUMPDEST PUSH2 0x91C JUMPI DUP14 PUSH2 0x866 DUP6 PUSH2 0x907 PUSH2 0x914 SWAP10 SWAP8 DUP10 PUSH2 0x901 PUSH2 0x90C SWAP10 PUSH0 MLOAD PUSH1 0x20 PUSH2 0x1868 PUSH0 CODECOPY PUSH0 MLOAD SWAP1 PUSH0 MSTORE SWAP13 SWAP10 PUSH2 0x86F SWAP10 PUSH2 0xF77 JUMP JUMPDEST POP PUSH2 0x185A JUMP JUMPDEST PUSH2 0x100D JUMP JUMPDEST SWAP11 MULMOD SWAP15 PUSH2 0xED6 JUMP JUMPDEST SWAP14 SWAP8 DUP15 PUSH2 0x89D JUMP JUMPDEST POP POP POP SWAP10 PUSH0 MLOAD PUSH1 0x20 PUSH2 0x1868 PUSH0 CODECOPY PUSH0 MLOAD SWAP1 PUSH0 MSTORE SWAP2 POP SWAP2 PUSH2 0x914 SWAP3 MULMOD SWAP15 PUSH2 0xED6 JUMP JUMPDEST POP DUP13 DUP4 EQ PUSH2 0x8CF JUMP JUMPDEST POP DUP9 SWAP4 SWAP2 DUP13 DUP9 SWAP3 DUP16 DUP15 PUSH2 0x968 DUP16 PUSH2 0x95B SWAP1 PUSH2 0xBAF JUMP JUMPDEST PUSH2 0x963 PUSH2 0x102A JUMP JUMPDEST PUSH2 0x17E4 JUMP JUMPDEST SWAP10 PUSH0 SWAP10 DUP13 SWAP9 DUP12 JUMPDEST PUSH2 0x97B PUSH2 0x8AC DUP12 PUSH2 0xEB9 JUMP JUMPDEST DUP14 GT PUSH2 0x9C2 JUMPI PUSH0 MLOAD PUSH1 0x20 PUSH2 0x1868 PUSH0 CODECOPY PUSH0 MLOAD SWAP1 PUSH0 MSTORE DUP16 PUSH2 0x9B3 DUP16 DUP16 SWAP1 DUP16 DUP16 DUP16 SWAP8 PUSH2 0x861 DUP2 DUP7 PUSH2 0x85B PUSH2 0x86F SWAP8 PUSH2 0x866 SWAP7 PUSH2 0x9BB SWAP15 PUSH2 0xF77 JUMP JUMPDEST SWAP13 MULMOD SWAP13 PUSH2 0xED6 JUMP JUMPDEST SWAP12 SWAP10 PUSH2 0x96F JUMP JUMPDEST POP SWAP4 DUP9 DUP9 DUP15 PUSH2 0x9E0 PUSH2 0x9D3 DUP16 PUSH2 0xC27 JUMP JUMPDEST PUSH2 0x9DB PUSH2 0x1132 JUMP JUMPDEST PUSH2 0xBD7 JUMP JUMPDEST SWAP1 PUSH0 SWAP9 PUSH1 0x1 SWAP6 PUSH0 SWAP11 JUMPDEST PUSH2 0x9F5 PUSH2 0x8AC DUP9 PUSH2 0xD66 JUMP JUMPDEST DUP13 GT PUSH2 0xA7D JUMPI DUP10 DUP15 SWAP2 DUP14 DUP12 DUP15 DUP12 DUP4 EQ DUP1 ISZERO PUSH2 0xA6C JUMPI JUMPDEST PUSH2 0xA4C JUMPI DUP13 PUSH2 0x866 DUP6 PUSH2 0x907 PUSH2 0xA45 SWAP10 SWAP8 DUP10 PUSH2 0x901 PUSH2 0xA3D SWAP10 PUSH0 MLOAD PUSH1 0x20 PUSH2 0x1868 PUSH0 CODECOPY PUSH0 MLOAD SWAP1 PUSH0 MSTORE SWAP13 SWAP10 PUSH2 0x86F SWAP10 PUSH2 0xF77 JUMP JUMPDEST SWAP10 MULMOD SWAP12 PUSH2 0xED6 JUMP JUMPDEST SWAP11 SWAP7 PUSH2 0x9E9 JUMP JUMPDEST POP POP POP SWAP9 PUSH0 MLOAD PUSH1 0x20 PUSH2 0x1868 PUSH0 CODECOPY PUSH0 MLOAD SWAP1 PUSH0 MSTORE SWAP2 POP SWAP2 PUSH2 0xA45 SWAP3 MULMOD SWAP12 PUSH2 0xED6 JUMP JUMPDEST POP PUSH2 0xA76 DUP13 PUSH2 0x101C JUMP JUMPDEST DUP4 EQ PUSH2 0xA0B JUMP JUMPDEST POP DUP5 SWAP7 POP DUP6 PUSH2 0xADC DUP2 PUSH2 0xB41 DUP16 PUSH2 0xB74 SWAP15 PUSH2 0xB02 PUSH2 0xB6E SWAP16 DUP6 SWAP16 SWAP12 SWAP13 PUSH2 0xB49 SWAP14 PUSH2 0xB4E SWAP16 SWAP13 PUSH2 0xB31 SWAP13 PUSH2 0xAF8 DUP5 SWAP16 PUSH2 0xAED SWAP15 PUSH2 0xB37 SWAP11 PUSH2 0xAE4 PUSH2 0xAED PUSH2 0xAD2 PUSH2 0xAF3 SWAP6 PUSH2 0xACC PUSH2 0xAFD SWAP14 PUSH2 0xBAF JUMP JUMPDEST SWAP12 PUSH2 0xEF8 JUMP JUMPDEST SWAP3 SWAP1 PUSH2 0xADC PUSH2 0x102A JUMP JUMPDEST SWAP4 CALLDATASIZE SWAP2 PUSH2 0x15F JUMP JUMPDEST SWAP4 PUSH2 0xADC PUSH2 0x400 JUMP JUMPDEST SWAP3 PUSH2 0xC3D JUMP JUMPDEST PUSH2 0x1812 JUMP JUMPDEST PUSH2 0xC3D JUMP JUMPDEST PUSH2 0x11BF JUMP JUMPDEST PUSH2 0xB0A PUSH2 0x1132 JUMP JUMPDEST SWAP10 PUSH2 0xB29 PUSH2 0xB21 PUSH2 0xB1A DUP8 PUSH2 0x101C JUMP JUMPDEST DUP4 DUP6 PUSH2 0xF77 JUMP JUMPDEST SWAP9 SWAP1 SWAP12 PUSH2 0xF37 JUMP JUMPDEST SWAP10 SWAP1 SWAP6 PUSH2 0xEB9 JUMP JUMPDEST SWAP2 PUSH2 0xF77 JUMP JUMPDEST SWAP8 SWAP1 SWAP5 CALLDATASIZE SWAP2 PUSH2 0x15F JUMP JUMPDEST SWAP5 CALLDATASIZE SWAP2 PUSH2 0x15F JUMP JUMPDEST PUSH2 0x11FD JUMP JUMPDEST PUSH2 0xB69 PUSH1 0x1 PUSH2 0xB60 PUSH2 0x531 DUP6 DUP6 PUSH2 0xEF8 JUMP JUMPDEST ISZERO ISZERO EQ ISZERO PUSH2 0x123B JUMP JUMPDEST PUSH2 0xEF8 JUMP JUMPDEST SWAP1 PUSH2 0x12C6 JUMP JUMPDEST PUSH1 0x40 MLOAD PUSH1 0x1 DUP2 MSTORE PUSH1 0x20 SWAP1 RETURN JUMPDEST RETURNDATASIZE ISZERO PUSH2 0xBAA JUMPI RETURNDATASIZE SWAP1 PUSH2 0xB91 DUP3 PUSH2 0x144 JUMP JUMPDEST SWAP2 PUSH2 0xB9F PUSH1 0x40 MLOAD SWAP4 DUP5 PUSH2 0x11E JUMP JUMPDEST DUP3 MSTORE RETURNDATASIZE PUSH0 PUSH1 0x20 DUP5 ADD RETURNDATACOPY JUMP JUMPDEST PUSH1 0x60 SWAP1 JUMP JUMPDEST PUSH0 DUP1 SWAP2 PUSH1 0x20 DUP2 MLOAD SWAP2 ADD PUSH1 0xE GAS STATICCALL POP PUSH2 0x1B0 PUSH2 0xB80 JUMP JUMPDEST DUP1 MLOAD SWAP2 SWAP1 DUP3 SWAP1 PUSH1 0x20 ADD DUP3 MCOPY ADD PUSH0 DUP2 MSTORE SWAP1 JUMP JUMPDEST PUSH0 SWAP2 SWAP1 PUSH2 0x357 PUSH2 0xBF6 DUP5 SWAP4 PUSH1 0x40 MLOAD SWAP3 DUP4 SWAP2 PUSH2 0x351 PUSH1 0x20 DUP5 ADD DUP1 SWAP8 PUSH2 0xBC5 JUMP JUMPDEST MLOAD SWAP1 PUSH1 0xB GAS STATICCALL POP PUSH2 0x1B0 PUSH2 0xB80 JUMP JUMPDEST PUSH1 0x20 DUP2 MLOAD SWAP2 ADD MLOAD SWAP1 PUSH1 0x20 DUP2 LT PUSH2 0xC19 JUMPI POP SWAP1 JUMP JUMPDEST PUSH0 NOT SWAP1 PUSH1 0x20 SUB PUSH1 0x3 SHL SHL AND SWAP1 JUMP JUMPDEST PUSH0 DUP1 SWAP2 PUSH1 0x20 DUP2 MLOAD SWAP2 ADD PUSH1 0xC GAS STATICCALL POP PUSH2 0x1B0 PUSH2 0xB80 JUMP JUMPDEST SWAP1 PUSH2 0xCB8 PUSH2 0x351 SWAP2 PUSH2 0x357 PUSH0 SWAP7 DUP8 DUP1 DUP1 SWAP9 PUSH1 0x40 MLOAD PUSH2 0xC92 PUSH1 0x20 DUP3 PUSH2 0xC64 DUP3 DUP3 ADD DUP1 SWAP7 PUSH2 0xBC5 JUMP JUMPDEST PUSH32 0x73EDA753299D7D483339D80809A1D80553BDA402FFFE5BFEFFFFFFFF00000000 DUP2 MSTORE SUB DUP1 DUP5 MSTORE ADD DUP3 PUSH2 0x11E JUMP JUMPDEST MLOAD SWAP1 PUSH1 0xC GAS STATICCALL POP PUSH2 0x351 PUSH2 0xCA4 PUSH2 0xB80 JUMP JUMPDEST PUSH1 0x40 MLOAD SWAP7 DUP8 SWAP6 PUSH2 0x351 PUSH1 0x20 DUP9 ADD DUP1 SWAP12 PUSH2 0xBC5 JUMP JUMPDEST MLOAD SWAP1 PUSH1 0xF GAS STATICCALL POP PUSH1 0x1 PUSH2 0xCCC PUSH2 0x37B PUSH2 0xB80 JUMP JUMPDEST EQ SWAP1 JUMP JUMPDEST PUSH0 SWAP2 SWAP1 DUP3 SWAP2 PUSH2 0xCFA PUSH1 0x20 PUSH1 0x40 MLOAD DUP1 SWAP4 PUSH2 0xCEC DUP4 DUP4 ADD DUP1 SWAP8 PUSH2 0xBC5 JUMP JUMPDEST SWAP1 DUP2 MSTORE SUB DUP1 DUP5 MSTORE ADD DUP3 PUSH2 0x11E JUMP JUMPDEST MLOAD SWAP1 PUSH1 0xC GAS STATICCALL POP PUSH2 0x1B0 PUSH2 0xB80 JUMP JUMPDEST PUSH4 0x4E487B71 PUSH1 0xE0 SHL PUSH0 MSTORE PUSH1 0x11 PUSH1 0x4 MSTORE PUSH1 0x24 PUSH0 REVERT JUMPDEST SWAP1 DUP2 PUSH1 0x1 SHL SWAP2 DUP1 DUP4 DIV PUSH1 0x2 EQ SWAP1 ISZERO OR ISZERO PUSH2 0xD33 JUMPI JUMP JUMPDEST PUSH2 0xD09 JUMP JUMPDEST SWAP1 PUSH1 0xA0 DUP3 MUL SWAP2 DUP1 DUP4 DIV PUSH1 0xA0 EQ SWAP1 ISZERO OR ISZERO PUSH2 0xD33 JUMPI JUMP JUMPDEST SWAP1 PUSH2 0x120 DUP3 MUL SWAP2 DUP1 DUP4 DIV PUSH2 0x120 EQ SWAP1 ISZERO OR ISZERO PUSH2 0xD33 JUMPI JUMP JUMPDEST PUSH1 0x1 DUP2 SWAP1 SHL SWAP2 SWAP1 PUSH1 0x1 PUSH1 0x1 PUSH1 0xFF SHL SUB DUP2 AND SUB PUSH2 0xD33 JUMPI JUMP JUMPDEST ISZERO PUSH2 0x106 JUMPI JUMP JUMPDEST SWAP1 DUP1 PUSH1 0x20 SWAP4 SWAP3 DUP2 DUP5 MSTORE DUP5 DUP5 ADD CALLDATACOPY PUSH0 DUP3 DUP3 ADD DUP5 ADD MSTORE PUSH1 0x1F ADD PUSH1 0x1F NOT AND ADD ADD SWAP1 JUMP JUMPDEST SWAP1 PUSH1 0x20 DUP4 DUP3 DUP2 MSTORE ADD SWAP1 PUSH1 0x20 DUP2 PUSH1 0x5 SHL DUP6 ADD ADD SWAP4 DUP4 PUSH0 SWAP2 JUMPDEST DUP4 DUP4 LT PUSH2 0xDCC JUMPI POP POP POP POP POP POP SWAP1 JUMP JUMPDEST SWAP1 SWAP2 SWAP3 SWAP4 SWAP5 SWAP6 PUSH1 0x1F NOT DUP3 DUP3 SUB ADD DUP7 MSTORE DUP7 CALLDATALOAD PUSH1 0x1E NOT DUP5 CALLDATASIZE SUB ADD DUP2 SLT ISZERO PUSH2 0x106 JUMPI DUP4 ADD SWAP1 PUSH1 0x20 DUP3 CALLDATALOAD SWAP3 ADD SWAP2 PUSH1 0x1 PUSH1 0x1 PUSH1 0x40 SHL SUB DUP2 GT PUSH2 0x106 JUMPI DUP1 CALLDATASIZE SUB DUP4 SGT PUSH2 0x106 JUMPI PUSH2 0xE1C PUSH1 0x20 SWAP3 DUP4 SWAP3 PUSH1 0x1 SWAP6 PUSH2 0xD85 JUMP JUMPDEST SWAP9 ADD SWAP7 ADD SWAP5 SWAP4 ADD SWAP2 SWAP1 PUSH2 0xDBC JUMP JUMPDEST SWAP5 SWAP4 SWAP3 PUSH0 SWAP4 PUSH2 0xE47 PUSH2 0xE55 SWAP4 PUSH1 0x40 SWAP6 PUSH1 0x60 DUP11 MSTORE PUSH1 0x60 DUP11 ADD SWAP2 PUSH2 0xDA5 JUMP JUMPDEST SWAP2 DUP8 DUP4 SUB PUSH1 0x20 DUP10 ADD MSTORE PUSH2 0xDA5 JUMP JUMPDEST SWAP4 ADD MSTORE JUMP JUMPDEST SWAP5 SWAP4 SWAP3 PUSH1 0x1 SWAP4 PUSH2 0xE47 PUSH2 0xE55 SWAP4 PUSH1 0x40 SWAP6 PUSH1 0x60 DUP11 MSTORE PUSH1 0x60 DUP11 ADD SWAP2 PUSH2 0xDA5 JUMP JUMPDEST SWAP1 PUSH2 0xE82 DUP3 PUSH2 0x144 JUMP JUMPDEST PUSH2 0xE8F PUSH1 0x40 MLOAD SWAP2 DUP3 PUSH2 0x11E JUMP JUMPDEST DUP3 DUP2 MSTORE DUP1 SWAP3 PUSH2 0xEA0 PUSH1 0x1F NOT SWAP2 PUSH2 0x144 JUMP JUMPDEST ADD SWAP1 PUSH1 0x20 CALLDATASIZE SWAP2 ADD CALLDATACOPY JUMP JUMPDEST PUSH1 0x2 NOT DUP2 ADD SWAP2 SWAP1 DUP3 GT PUSH2 0xD33 JUMPI JUMP JUMPDEST PUSH0 NOT DUP2 ADD SWAP2 SWAP1 DUP3 GT PUSH2 0xD33 JUMPI JUMP JUMPDEST PUSH1 0x1 NOT DUP2 ADD SWAP2 SWAP1 DUP3 GT PUSH2 0xD33 JUMPI JUMP JUMPDEST PUSH0 NOT DUP2 EQ PUSH2 0xD33 JUMPI PUSH1 0x1 ADD SWAP1 JUMP JUMPDEST PUSH4 0x4E487B71 PUSH1 0xE0 SHL PUSH0 MSTORE PUSH1 0x32 PUSH1 0x4 MSTORE PUSH1 0x24 PUSH0 REVERT JUMPDEST SWAP1 ISZERO PUSH2 0xF32 JUMPI DUP1 CALLDATALOAD SWAP1 PUSH1 0x1E NOT DUP2 CALLDATASIZE SUB ADD DUP3 SLT ISZERO PUSH2 0x106 JUMPI ADD SWAP1 DUP2 CALLDATALOAD SWAP2 PUSH1 0x1 PUSH1 0x1 PUSH1 0x40 SHL SUB DUP4 GT PUSH2 0x106 JUMPI PUSH1 0x20 ADD DUP3 CALLDATASIZE SUB DUP2 SGT PUSH2 0x106 JUMPI SWAP2 SWAP1 JUMP JUMPDEST PUSH2 0xEE4 JUMP JUMPDEST SWAP1 PUSH1 0x1 LT ISZERO PUSH2 0xF32 JUMPI PUSH1 0x20 DUP2 ADD CALLDATALOAD SWAP1 PUSH1 0x1E NOT DUP2 CALLDATASIZE SUB ADD DUP3 SLT ISZERO PUSH2 0x106 JUMPI ADD SWAP1 DUP2 CALLDATALOAD SWAP2 PUSH1 0x1 PUSH1 0x1 PUSH1 0x40 SHL SUB DUP4 GT PUSH2 0x106 JUMPI PUSH1 0x20 ADD DUP3 CALLDATASIZE SUB DUP2 SGT PUSH2 0x106 JUMPI SWAP2 SWAP1 JUMP JUMPDEST SWAP2 SWAP1 DUP2 LT ISZERO PUSH2 0xF32 JUMPI PUSH1 0x5 SHL DUP2 ADD CALLDATALOAD SWAP1 PUSH1 0x1E NOT DUP2 CALLDATASIZE SUB ADD DUP3 SLT ISZERO PUSH2 0x106 JUMPI ADD SWAP1 DUP2 CALLDATALOAD SWAP2 PUSH1 0x1 PUSH1 0x1 PUSH1 0x40 SHL SUB DUP4 GT PUSH2 0x106 JUMPI PUSH1 0x20 ADD DUP3 CALLDATASIZE SUB DUP2 SGT PUSH2 0x106 JUMPI SWAP2 SWAP1 JUMP JUMPDEST ISZERO PUSH2 0xFBF JUMPI JUMP JUMPDEST PUSH1 0x40 MLOAD PUSH3 0x461BCD PUSH1 0xE5 SHL DUP2 MSTORE PUSH1 0x20 PUSH1 0x4 DUP3 ADD MSTORE PUSH1 0xA PUSH1 0x24 DUP3 ADD MSTORE PUSH10 0x3130B2102398903632B7 PUSH1 0xB1 SHL PUSH1 0x44 DUP3 ADD MSTORE PUSH1 0x64 SWAP1 REVERT JUMPDEST SWAP1 PUSH1 0x80 DUP3 ADD DUP1 SWAP3 GT PUSH2 0xD33 JUMPI JUMP JUMPDEST SWAP1 PUSH1 0x20 DUP3 ADD DUP1 SWAP3 GT PUSH2 0xD33 JUMPI JUMP JUMPDEST SWAP1 PUSH2 0x100 DUP3 ADD DUP1 SWAP3 GT PUSH2 0xD33 JUMPI JUMP JUMPDEST SWAP1 PUSH1 0x1 DUP3 ADD DUP1 SWAP3 GT PUSH2 0xD33 JUMPI JUMP JUMPDEST PUSH1 0x40 MLOAD SWAP1 PUSH2 0x103A PUSH2 0x120 DUP4 PUSH2 0x11E JUMP JUMPDEST PUSH2 0x100 DUP3 MSTORE PUSH32 0xCB3E287E85A763AF267492AB572E99AB3F370D275CEC1DA1AAA9075FF05F79BE PUSH2 0x100 DUP4 PUSH16 0x24AA2B2F08F0A91260805272DC51051 PUSH1 0x20 DUP3 ADD MSTORE PUSH32 0xC6E47AD4FA403B02B4510B647AE3D1770BAC0326A805BBEFD48056C8C121BDB8 PUSH1 0x40 DUP3 ADD MSTORE PUSH16 0x13E02B6052719F607DACD3A088274F65 PUSH1 0x60 DUP3 ADD MSTORE PUSH32 0x596BD0D09920B61AB5DA61BBDC7F5049334CF11213945D57E5AC7D055D042B7E PUSH1 0x80 DUP3 ADD MSTORE PUSH16 0xCE5D527727D6E118CC9CDC6DA2E351A PUSH1 0xA0 DUP3 ADD MSTORE PUSH32 0xADFD9BAA8CBDD3A76D429A695160D12C923AC9CC3BACA289E193548608B82801 PUSH1 0xC0 DUP3 ADD MSTORE PUSH16 0x606C4A02EA734CC32ACD2B02BC28B99 PUSH1 0xE0 DUP3 ADD MSTORE ADD MSTORE JUMP JUMPDEST PUSH1 0x40 MLOAD SWAP1 PUSH2 0x1141 PUSH1 0xA0 DUP4 PUSH2 0x11E JUMP JUMPDEST PUSH1 0x80 DUP3 MSTORE PUSH32 0xFCF5E095D5D00AF600DB18CB2C04B3EDD03CC744A2888AE40CAA232946C5E7E1 PUSH1 0x80 DUP4 PUSH16 0x17F1D3A73197D7942695638C4FA9AC0F PUSH1 0x20 DUP3 ADD MSTORE PUSH32 0xC3688C4F9774B905A14E3A3F171BAC586C55E83FF97A1AEFFB3AF00ADB22C6BB PUSH1 0x40 DUP3 ADD MSTORE PUSH16 0x8B3F481E3AAA0F1A09E30ED741D8AE4 PUSH1 0x60 DUP3 ADD MSTORE ADD MSTORE JUMP JUMPDEST ISZERO PUSH2 0x11C6 JUMPI JUMP JUMPDEST PUSH1 0x40 MLOAD PUSH3 0x461BCD PUSH1 0xE5 SHL DUP2 MSTORE PUSH1 0x20 PUSH1 0x4 DUP3 ADD MSTORE PUSH1 0xF PUSH1 0x24 DUP3 ADD MSTORE PUSH15 0x10DA1958DACC8B4C4811985A5B1959 PUSH1 0x8A SHL PUSH1 0x44 DUP3 ADD MSTORE PUSH1 0x64 SWAP1 REVERT JUMPDEST ISZERO PUSH2 0x1204 JUMPI JUMP JUMPDEST PUSH1 0x40 MLOAD PUSH3 0x461BCD PUSH1 0xE5 SHL DUP2 MSTORE PUSH1 0x20 PUSH1 0x4 DUP3 ADD MSTORE PUSH1 0xF PUSH1 0x24 DUP3 ADD MSTORE PUSH15 0x10DA1958DACC8B4C8811985A5B1959 PUSH1 0x8A SHL PUSH1 0x44 DUP3 ADD MSTORE PUSH1 0x64 SWAP1 REVERT JUMPDEST ISZERO PUSH2 0x1242 JUMPI JUMP JUMPDEST PUSH1 0x40 MLOAD PUSH3 0x461BCD PUSH1 0xE5 SHL DUP2 MSTORE PUSH1 0x20 PUSH1 0x4 DUP3 ADD MSTORE PUSH1 0xD PUSH1 0x24 DUP3 ADD MSTORE PUSH13 0x10DA1958DACCC811985A5B1959 PUSH1 0x9A SHL PUSH1 0x44 DUP3 ADD MSTORE PUSH1 0x64 SWAP1 REVERT JUMPDEST PUSH1 0x1F DUP3 GT PUSH2 0x1284 JUMPI POP POP POP JUMP JUMPDEST PUSH0 MSTORE PUSH1 0x20 PUSH0 KECCAK256 SWAP1 PUSH1 0x20 PUSH1 0x1F DUP5 ADD PUSH1 0x5 SHR DUP4 ADD SWAP4 LT PUSH2 0x12BC JUMPI JUMPDEST PUSH1 0x1F ADD PUSH1 0x5 SHR ADD SWAP1 JUMPDEST DUP2 DUP2 LT PUSH2 0x12B1 JUMPI POP POP JUMP JUMPDEST PUSH0 DUP2 SSTORE PUSH1 0x1 ADD PUSH2 0x12A6 JUMP JUMPDEST SWAP1 SWAP2 POP DUP2 SWAP1 PUSH2 0x129D JUMP JUMPDEST SWAP2 SWAP1 PUSH1 0x1 PUSH1 0x1 PUSH1 0x40 SHL SUB DUP2 GT PUSH2 0x13F JUMPI PUSH2 0x12EA DUP2 PUSH2 0x12E4 PUSH0 SLOAD PUSH2 0x3C8 JUMP JUMPDEST PUSH0 PUSH2 0x1277 JUMP JUMPDEST PUSH0 PUSH1 0x1F DUP3 GT PUSH1 0x1 EQ PUSH2 0x1327 JUMPI DUP2 SWAP1 PUSH2 0x1318 SWAP4 SWAP5 PUSH0 SWAP3 PUSH2 0x131C JUMPI JUMPDEST POP POP DUP2 PUSH1 0x1 SHL SWAP2 PUSH0 NOT SWAP1 PUSH1 0x3 SHL SHR NOT AND OR SWAP1 JUMP JUMPDEST PUSH0 SSTORE JUMP JUMPDEST ADD CALLDATALOAD SWAP1 POP PUSH0 DUP1 PUSH2 0x1304 JUMP JUMPDEST PUSH0 DUP1 MSTORE PUSH1 0x1F NOT DUP3 AND SWAP4 PUSH32 0x290DECD9548B62A8D60345A988386FC84BA6BC95484008F6362F93160EF3E563 SWAP2 PUSH0 JUMPDEST DUP7 DUP2 LT PUSH2 0x138A JUMPI POP DUP4 PUSH1 0x1 SWAP6 SWAP7 LT PUSH2 0x1371 JUMPI JUMPDEST POP POP POP DUP2 SHL ADD PUSH0 SSTORE JUMP JUMPDEST ADD CALLDATALOAD PUSH0 NOT PUSH1 0x3 DUP5 SWAP1 SHL PUSH1 0xF8 AND SHR NOT AND SWAP1 SSTORE PUSH0 DUP1 DUP1 PUSH2 0x1367 JUMP JUMPDEST SWAP1 SWAP3 PUSH1 0x20 PUSH1 0x1 DUP2 SWAP3 DUP7 DUP7 ADD CALLDATALOAD DUP2 SSTORE ADD SWAP5 ADD SWAP2 ADD PUSH2 0x1354 JUMP JUMPDEST SWAP3 SWAP1 PUSH2 0x13BB SWAP1 PUSH2 0x1B0 SWAP6 SWAP4 PUSH1 0x40 DUP7 MSTORE PUSH1 0x40 DUP7 ADD SWAP2 PUSH2 0xDA5 JUMP JUMPDEST SWAP3 PUSH1 0x20 DUP2 DUP6 SUB SWAP2 ADD MSTORE PUSH2 0xDA5 JUMP JUMPDEST SWAP1 DUP2 MLOAD DUP2 LT ISZERO PUSH2 0xF32 JUMPI ADD PUSH1 0x20 ADD SWAP1 JUMP JUMPDEST SWAP1 DUP3 LT ISZERO PUSH2 0xF32 JUMPI ADD SWAP1 JUMP JUMPDEST SWAP6 SWAP2 SWAP6 SWAP5 SWAP3 SWAP5 PUSH2 0x13F9 DUP7 PUSH2 0x758 DUP5 PUSH2 0xD1D JUMP JUMPDEST PUSH2 0x1415 PUSH1 0x40 MLOAD PUSH1 0x20 DUP2 ADD SWAP1 PUSH2 0x77A DUP2 PUSH2 0x357 DUP12 DUP14 DUP10 DUP10 DUP9 PUSH2 0xE2A JUMP JUMPDEST SWAP5 PUSH2 0x1432 DUP9 PUSH1 0x40 MLOAD PUSH2 0x77A DUP2 PUSH2 0x357 DUP13 PUSH1 0x20 DUP4 ADD SWAP6 DUP11 DUP11 DUP9 PUSH2 0xE5A JUMP JUMPDEST SWAP1 PUSH1 0x1 SWAP5 PUSH2 0x1442 PUSH2 0x7BD DUP7 PUSH2 0xD38 JUMP JUMPDEST SWAP10 PUSH2 0x1452 PUSH2 0x7BD PUSH2 0x7D2 DUP13 PUSH2 0xEAA JUMP JUMPDEST PUSH2 0x1461 PUSH2 0x7BD PUSH2 0x7E7 DUP10 PUSH2 0xEB9 JUMP JUMPDEST SWAP11 PUSH2 0x1471 PUSH2 0x7BD PUSH2 0x7D2 DUP4 PUSH2 0xEC7 JUMP JUMPDEST SWAP5 PUSH0 SWAP11 PUSH0 SWAP12 JUMPDEST PUSH2 0x1480 DUP12 PUSH2 0xEB9 JUMP JUMPDEST DUP14 GT PUSH2 0x14D4 JUMPI DUP16 DUP15 PUSH2 0x14C5 DUP16 SWAP3 DUP16 DUP16 SWAP1 DUP16 DUP8 PUSH2 0x861 PUSH2 0x14CD SWAP10 DUP7 PUSH2 0x85B DUP12 DUP9 DUP8 PUSH2 0x856 PUSH0 MLOAD PUSH1 0x20 PUSH2 0x1868 PUSH0 CODECOPY PUSH0 MLOAD SWAP1 PUSH0 MSTORE SWAP16 PUSH2 0x84E PUSH1 0x80 SWAP2 PUSH2 0x86F SWAP15 PUSH2 0x866 SWAP14 PUSH2 0xF77 JUMP JUMPDEST SWAP14 MULMOD SWAP13 PUSH2 0xED6 JUMP JUMPDEST SWAP12 SWAP11 PUSH2 0x1477 JUMP JUMPDEST POP SWAP4 SWAP11 POP SWAP4 SWAP7 SWAP11 SWAP5 SWAP12 SWAP2 SWAP9 POP SWAP7 SWAP5 SWAP12 PUSH2 0x14EC SWAP1 PUSH2 0xC27 JUMP JUMPDEST PUSH0 SWAP11 DUP14 SWAP8 DUP13 JUMPDEST DUP14 PUSH2 0x1502 PUSH2 0x8AC PUSH2 0x8AC DUP13 PUSH2 0xD66 JUMP JUMPDEST LT PUSH2 0x158B JUMPI DUP16 SWAP1 DUP13 SWAP1 DUP16 DUP16 DUP15 SWAP1 PUSH2 0x1518 DUP15 PUSH2 0xEB9 JUMP JUMPDEST DUP4 EQ DUP1 ISZERO PUSH2 0x1582 JUMPI JUMPDEST PUSH2 0x1562 JUMPI DUP15 PUSH2 0x866 DUP6 PUSH2 0x907 PUSH2 0x155B SWAP10 SWAP8 DUP10 PUSH2 0x901 PUSH2 0x1553 SWAP10 PUSH0 MLOAD PUSH1 0x20 PUSH2 0x1868 PUSH0 CODECOPY PUSH0 MLOAD SWAP1 PUSH0 MSTORE SWAP13 SWAP10 PUSH2 0x86F SWAP10 PUSH2 0xF77 JUMP JUMPDEST SWAP12 MULMOD SWAP14 PUSH2 0xED6 JUMP JUMPDEST SWAP13 SWAP9 PUSH2 0x14F2 JUMP JUMPDEST POP POP POP SWAP11 PUSH0 MLOAD PUSH1 0x20 PUSH2 0x1868 PUSH0 CODECOPY PUSH0 MLOAD SWAP1 PUSH0 MSTORE SWAP2 POP SWAP2 PUSH2 0x155B SWAP3 MULMOD SWAP14 PUSH2 0xED6 JUMP JUMPDEST POP DUP14 DUP4 EQ PUSH2 0x1521 JUMP JUMPDEST POP SWAP7 SWAP9 SWAP6 SWAP14 SWAP5 SWAP13 SWAP3 SWAP11 SWAP4 SWAP10 PUSH2 0x15A7 SWAP3 SWAP13 POP PUSH2 0x95B SWAP2 SWAP9 POP PUSH2 0xBAF JUMP JUMPDEST SWAP4 PUSH0 SWAP11 DUP14 SWAP10 PUSH0 SWAP13 JUMPDEST DUP14 PUSH2 0x15BC PUSH2 0x8AC DUP14 PUSH2 0xEB9 JUMP JUMPDEST LT PUSH2 0x1603 JUMPI DUP16 PUSH0 MLOAD PUSH1 0x20 PUSH2 0x1868 PUSH0 CODECOPY PUSH0 MLOAD SWAP1 PUSH0 MSTORE SWAP1 DUP16 DUP16 DUP16 DUP16 SWAP1 DUP16 DUP8 PUSH2 0x861 PUSH2 0x15FC SWAP10 DUP7 PUSH2 0x85B PUSH2 0x15F4 SWAP10 PUSH2 0x86F SWAP9 PUSH2 0x866 SWAP8 PUSH2 0xF77 JUMP JUMPDEST SWAP14 MULMOD SWAP14 PUSH2 0xED6 JUMP JUMPDEST SWAP13 SWAP11 PUSH2 0x15AF JUMP JUMPDEST POP SWAP5 SWAP12 POP SWAP10 PUSH2 0x9D3 SWAP2 SWAP8 SWAP7 SWAP14 POP PUSH2 0x161F SWAP3 SWAP9 SWAP6 SWAP13 SWAP4 SWAP10 POP PUSH2 0xC27 JUMP JUMPDEST PUSH0 SWAP9 PUSH1 0x1 SWAP6 SWAP2 DUP11 JUMPDEST PUSH2 0x1633 PUSH2 0x8AC DUP9 PUSH2 0xD66 JUMP JUMPDEST DUP13 GT PUSH2 0x16B3 JUMPI DUP10 DUP14 SWAP2 DUP14 DUP12 DUP15 DUP12 DUP4 EQ DUP1 ISZERO PUSH2 0x16A2 JUMPI JUMPDEST PUSH2 0x1682 JUMPI DUP13 PUSH2 0x866 DUP6 PUSH2 0x907 PUSH2 0x167B SWAP10 SWAP8 DUP10 PUSH2 0x901 PUSH2 0xA3D SWAP10 PUSH0 MLOAD PUSH1 0x20 PUSH2 0x1868 PUSH0 CODECOPY PUSH0 MLOAD SWAP1 PUSH0 MSTORE SWAP13 SWAP10 PUSH2 0x86F SWAP10 PUSH2 0xF77 JUMP JUMPDEST SWAP11 SWAP7 PUSH2 0x1627 JUMP JUMPDEST POP POP POP SWAP9 PUSH0 MLOAD PUSH1 0x20 PUSH2 0x1868 PUSH0 CODECOPY PUSH0 MLOAD SWAP1 PUSH0 MSTORE SWAP2 POP SWAP2 PUSH2 0x167B SWAP3 MULMOD SWAP12 PUSH2 0xED6 JUMP JUMPDEST POP PUSH2 0x16AC DUP13 PUSH2 0x101C JUMP JUMPDEST DUP4 EQ PUSH2 0x1649 JUMP JUMPDEST POP PUSH2 0x175D SWAP10 SWAP4 SWAP12 POP PUSH2 0x1768 SWAP11 POP PUSH2 0x1751 SWAP7 POP SWAP7 PUSH2 0x16E7 PUSH2 0xAFD PUSH2 0x77A SWAP4 PUSH2 0x174B SWAP8 SWAP16 SWAP11 PUSH2 0x1758 SWAP12 PUSH2 0xAED PUSH2 0x357 SWAP9 SWAP15 PUSH2 0xBAF JUMP JUMPDEST PUSH2 0x1719 PUSH2 0xB49 DUP6 DUP12 PUSH2 0xB31 PUSH2 0xAED DUP12 PUSH2 0xADC DUP2 PUSH2 0xB41 PUSH2 0xB37 PUSH2 0x1708 PUSH2 0x1132 JUMP JUMPDEST SWAP9 DUP13 PUSH2 0xB29 PUSH2 0xB21 PUSH2 0xB1A DUP8 PUSH2 0x101C JUMP JUMPDEST PUSH2 0x172B PUSH1 0x1 PUSH2 0xB60 PUSH2 0x531 DUP10 DUP14 PUSH2 0xEF8 JUMP JUMPDEST PUSH2 0x1738 PUSH2 0xB6E DUP8 DUP12 PUSH2 0xEF8 JUMP JUMPDEST PUSH1 0x40 MLOAD SWAP3 DUP4 SWAP2 PUSH1 0x20 DUP4 ADD SWAP6 DUP9 DUP13 DUP9 PUSH2 0x13A2 JUMP JUMPDEST SWAP4 PUSH2 0xEF8 JUMP JUMPDEST CALLDATASIZE SWAP2 PUSH2 0x15F JUMP JUMPDEST PUSH2 0xCD0 JUMP JUMPDEST PUSH2 0x28E CALLDATASIZE DUP6 DUP6 PUSH2 0x15F JUMP JUMPDEST SWAP2 PUSH0 JUMPDEST PUSH1 0x80 DUP2 LT PUSH2 0x177C JUMPI POP POP POP POP PUSH1 0x1 SWAP1 JUMP JUMPDEST PUSH2 0x1797 PUSH2 0x1789 DUP3 DUP7 PUSH2 0x13C9 JUMP JUMPDEST MLOAD PUSH1 0x1 PUSH1 0x1 PUSH1 0xF8 SHL SUB NOT AND SWAP1 JUMP JUMPDEST PUSH2 0x17C3 PUSH2 0x17B6 PUSH2 0x17A8 DUP5 DUP7 DUP9 PUSH2 0x13DA JUMP JUMPDEST CALLDATALOAD PUSH1 0x1 PUSH1 0x1 PUSH1 0xF8 SHL SUB NOT AND SWAP1 JUMP JUMPDEST PUSH1 0x1 PUSH1 0x1 PUSH1 0xF8 SHL SUB NOT AND SWAP1 JUMP JUMPDEST PUSH1 0x1 PUSH1 0x1 PUSH1 0xF8 SHL SUB NOT SWAP1 SWAP2 AND SUB PUSH2 0x17DC JUMPI PUSH1 0x1 ADD PUSH2 0x176B JUMP JUMPDEST POP POP POP POP PUSH0 SWAP1 JUMP JUMPDEST PUSH0 SWAP2 SWAP1 PUSH2 0x357 PUSH2 0x1803 DUP5 SWAP4 PUSH1 0x40 MLOAD SWAP3 DUP4 SWAP2 PUSH2 0x351 PUSH1 0x20 DUP5 ADD DUP1 SWAP8 PUSH2 0xBC5 JUMP JUMPDEST MLOAD SWAP1 PUSH1 0xD GAS STATICCALL POP PUSH2 0x1B0 PUSH2 0xB80 JUMP JUMPDEST ISZERO PUSH2 0x1819 JUMPI JUMP JUMPDEST PUSH1 0x40 MLOAD PUSH3 0x461BCD PUSH1 0xE5 SHL DUP2 MSTORE PUSH1 0x20 PUSH1 0x4 DUP3 ADD MSTORE PUSH1 0xD PUSH1 0x24 DUP3 ADD MSTORE PUSH13 0x10DA1958DACC4811985A5B1959 PUSH1 0x9A SHL PUSH1 0x44 DUP3 ADD MSTORE PUSH1 0x64 SWAP1 REVERT JUMPDEST SWAP1 PUSH1 0x80 SWAP3 PUSH1 0x20 SWAP2 ADD ADD CALLDATACOPY JUMP JUMPDEST SWAP1 PUSH2 0x100 SWAP3 PUSH1 0x20 SWAP2 ADD ADD CALLDATACOPY JUMP INVALID PUSH20 0xEDA753299D7D483339D80809A1D80553BDA402FF INVALID JUMPDEST INVALID SELFDESTRUCT SELFDESTRUCT SELFDESTRUCT SELFDESTRUCT STOP STOP STOP ADD LOG2 PUSH5 0x6970667358 0x22 SLT KECCAK256 0xEF ADDMOD SWAP4 RETURNDATASIZE DUP16 DUP16 0xB3 SWAP3 PUSH25 0x98DDD7F3A6870EA1DF3E35152AB9D4910D92ECADE043A56473 PUSH16 0x6C634300081F0033290DECD9548B62A8 0xD6 SUB GASLIMIT 0xA9 DUP9 CODESIZE PUSH16 0xC84BA6BC95484008F6362F93160EF3E5 PUSH4 0x0 "
		},
		"gasEstimates": {
			"creation": {
				"codeDepositCost": "1266600",
				"executionCost": "infinite",
				"totalCost": "infinite"
			},
			"external": {
				"Check(bytes[],bytes[],bytes)": "infinite",
				"CheckTest(bytes[],bytes[],bytes,uint256)": "infinite",
				"EqualPairingCheck(bytes,bytes,bytes,bytes)": "infinite",
				"G1Add(bytes,bytes)": "infinite",
				"G1Mul(bytes,uint256)": "infinite",
				"G1Muls(bytes)": "infinite",
				"G2Add(bytes,bytes)": "infinite",
				"G2Mul(bytes,uint256)": "infinite",
				"G2Muls(bytes)": "infinite",
				"Pairing(bytes,bytes,bytes,bytes)": "infinite",
				"ZeroCheck(bytes)": "590",
				"lastg()": "infinite",
				"w()": "2260"
			},
			"internal": {
				"CopyBytes(bytes calldata,uint256,bytes memory,uint256,uint256)": "infinite",
				"CopyUint(uint256,bytes memory,uint256)": "infinite"
			}
		},
		"methodIdentifiers": {
			"Check(bytes[],bytes[],bytes)": "e86d06c7",
			"CheckTest(bytes[],bytes[],bytes,uint256)": "c588e555",
			"EqualPairingCheck(bytes,bytes,bytes,bytes)": "6f18b669",
			"G1Add(bytes,bytes)": "4d919405",
			"G1Mul(bytes,uint256)": "c1f2c915",
			"G1Muls(bytes)": "6592041a",
			"G2Add(bytes,bytes)": "d6385d60",
			"G2Mul(bytes,uint256)": "af1d0bd9",
			"G2Muls(bytes)": "3f009c16",
			"Pairing(bytes,bytes,bytes,bytes)": "5cdc73ef",
			"ZeroCheck(bytes)": "a66339b7",
			"lastg()": "8a2ba01c",
			"w()": "205c9cc7"
		}
	},
	"abi": [
		{
			"inputs": [
				{
					"internalType": "bytes[]",
					"name": "g1s",
					"type": "bytes[]"
				},
				{
					"internalType": "bytes[]",
					"name": "g2s",
					"type": "bytes[]"
				},
				{
					"internalType": "bytes",
					"name": "gtau",
					"type": "bytes"
				}
			],
			"name": "Check",
			"outputs": [
				{
					"internalType": "bool",
					"name": "",
					"type": "bool"
				}
			],
			"stateMutability": "nonpayable",
			"type": "function"
		},
		{
			"inputs": [
				{
					"internalType": "bytes[]",
					"name": "g1s",
					"type": "bytes[]"
				},
				{
					"internalType": "bytes[]",
					"name": "g2s",
					"type": "bytes[]"
				},
				{
					"internalType": "bytes",
					"name": "pi1",
					"type": "bytes"
				},
				{
					"internalType": "uint256",
					"name": "pi2",
					"type": "uint256"
				}
			],
			"name": "CheckTest",
			"outputs": [
				{
					"internalType": "bool",
					"name": "",
					"type": "bool"
				}
			],
			"stateMutability": "nonpayable",
			"type": "function"
		},
		{
			"inputs": [
				{
					"internalType": "bytes",
					"name": "p1",
					"type": "bytes"
				},
				{
					"internalType": "bytes",
					"name": "p2",
					"type": "bytes"
				},
				{
					"internalType": "bytes",
					"name": "p3",
					"type": "bytes"
				},
				{
					"internalType": "bytes",
					"name": "p4",
					"type": "bytes"
				}
			],
			"name": "EqualPairingCheck",
			"outputs": [
				{
					"internalType": "bool",
					"name": "",
					"type": "bool"
				}
			],
			"stateMutability": "view",
			"type": "function"
		},
		{
			"inputs": [
				{
					"internalType": "bytes",
					"name": "p1",
					"type": "bytes"
				},
				{
					"internalType": "bytes",
					"name": "p2",
					"type": "bytes"
				}
			],
			"name": "G1Add",
			"outputs": [
				{
					"internalType": "bytes",
					"name": "point",
					"type": "bytes"
				}
			],
			"stateMutability": "view",
			"type": "function"
		},
		{
			"inputs": [
				{
					"internalType": "bytes",
					"name": "p1",
					"type": "bytes"
				},
				{
					"internalType": "uint256",
					"name": "scalar",
					"type": "uint256"
				}
			],
			"name": "G1Mul",
			"outputs": [
				{
					"internalType": "bytes",
					"name": "point",
					"type": "bytes"
				}
			],
			"stateMutability": "view",
			"type": "function"
		},
		{
			"inputs": [
				{
					"internalType": "bytes",
					"name": "d",
					"type": "bytes"
				}
			],
			"name": "G1Muls",
			"outputs": [
				{
					"internalType": "bytes",
					"name": "point",
					"type": "bytes"
				}
			],
			"stateMutability": "view",
			"type": "function"
		},
		{
			"inputs": [
				{
					"internalType": "bytes",
					"name": "p1",
					"type": "bytes"
				},
				{
					"internalType": "bytes",
					"name": "p2",
					"type": "bytes"
				}
			],
			"name": "G2Add",
			"outputs": [
				{
					"internalType": "bytes",
					"name": "point",
					"type": "bytes"
				}
			],
			"stateMutability": "view",
			"type": "function"
		},
		{
			"inputs": [
				{
					"internalType": "bytes",
					"name": "p1",
					"type": "bytes"
				},
				{
					"internalType": "uint256",
					"name": "scalar",
					"type": "uint256"
				}
			],
			"name": "G2Mul",
			"outputs": [
				{
					"internalType": "bytes",
					"name": "point",
					"type": "bytes"
				}
			],
			"stateMutability": "view",
			"type": "function"
		},
		{
			"inputs": [
				{
					"internalType": "bytes",
					"name": "d",
					"type": "bytes"
				}
			],
			"name": "G2Muls",
			"outputs": [
				{
					"internalType": "bytes",
					"name": "point",
					"type": "bytes"
				}
			],
			"stateMutability": "view",
			"type": "function"
		},
		{
			"inputs": [
				{
					"internalType": "bytes",
					"name": "p1",
					"type": "bytes"
				},
				{
					"internalType": "bytes",
					"name": "p2",
					"type": "bytes"
				},
				{
					"internalType": "bytes",
					"name": "p3",
					"type": "bytes"
				},
				{
					"internalType": "bytes",
					"name": "p4",
					"type": "bytes"
				}
			],
			"name": "Pairing",
			"outputs": [
				{
					"internalType": "bool",
					"name": "",
					"type": "bool"
				}
			],
			"stateMutability": "view",
			"type": "function"
		},
		{
			"inputs": [
				{
					"internalType": "bytes",
					"name": "x",
					"type": "bytes"
				}
			],
			"name": "ZeroCheck",
			"outputs": [
				{
					"internalType": "bool",
					"name": "ok",
					"type": "bool"
				}
			],
			"stateMutability": "pure",
			"type": "function"
		},
		{
			"inputs": [],
			"name": "lastg",
			"outputs": [
				{
					"internalType": "bytes",
					"name": "",
					"type": "bytes"
				}
			],
			"stateMutability": "view",
			"type": "function"
		},
		{
			"inputs": [],
			"name": "w",
			"outputs": [
				{
					"internalType": "bool",
					"name": "",
					"type": "bool"
				}
			],
			"stateMutability": "view",
			"type": "function"
		}
	]
}