{
	"data": {
		"bytecode": {
			"linkReferences": {},
			"object": "60808060405234601d5760ff195f54165f556115d690816100228239f35b5f80fdfe60806040526004361015610011575f80fd5b5f3560e01c806301f96f4a146100f4578063205c9cc7146100ef5780633d4e635f146100ea5780633f009c16146100e55780634d919405146100e0578063578a34ce146100db5780635cdc73ef146100d65780636592041a146100d15780636f18b669146100cc578063af1d0bd9146100c7578063c1f2c915146100c2578063cac924e7146100bd578063d6385d60146100b85763e1f66c1b146100b3575f80fd5b610b00565b610ae6565b61066f565b610603565b6105a4565b61057e565b610565565b61050c565b610435565b61041b565b6103a8565b610214565b6101f3565b61017d565b9181601f84011215610129578235916001600160401b038311610129576020808501948460051b01011161012957565b5f80fd5b6040600319820112610129576004356001600160401b0381116101295781610157916004016100f9565b92909291602435906001600160401b03821161012957610179916004016100f9565b9091565b34610129575f5160206115815f395f51905f526101d06101be6101de6101a23661012d565b604096929651958694602086019860408a526060870191610ea6565b848103601f1901604086015291610ea6565b03601f1981018352826102bf565b519020066101e857005b5f805460ff19169055005b34610129575f36600319011261012957602060ff5f54166040519015158152f35b34610129576102223661012d565b92909161022d610f2b565b92600182018083116102a65761025061024884928885611059565b929095611019565b935f198101919082116102a65761027e610274610286936102949a61028e97611059565b9790943691610300565b943691610300565b933691610300565b926111d8565b151560ff80195f54169116175f555f80f35b610fb8565b634e487b7160e01b5f52604160045260245ffd5b90601f801991011681019081106001600160401b038211176102e057604052565b6102ab565b6001600160401b0381116102e057601f01601f191660200190565b92919261030c826102e5565b9161031a60405193846102bf565b829481845281830111610129578281602093845f960137010152565b9080601f830112156101295781602061035193359101610300565b90565b602060031982011261012957600435906001600160401b0382116101295761035191600401610336565b602060409281835280519182918282860152018484015e5f828201840152601f01601f1916010190565b34610129576103cd6103c16103bc36610354565b6110f5565b6040519182918261037e565b0390f35b906040600319830112610129576004356001600160401b03811161012957826103fc91600401610336565b91602435906001600160401b0382116101295761035191600401610336565b34610129576103cd6103c161042f366103d1565b9061111d565b34610129575f3660031901126101295761048261046e61045361114b565b61047461045e61114b565b604051938493602085019061110b565b9061110b565b0390601f19820181526102bf565b005b906080600319830112610129576004356001600160401b03811161012957826104af91600401610336565b916024356001600160401b03811161012957816104ce91600401610336565b916044356001600160401b03811161012957826104ed91600401610336565b91606435906001600160401b0382116101295761035191600401610336565b34610129575f8061046e61046e6105416101d061052836610484565b919392969060405196879561046e60208801809b61110b565b5190600f5afa506020600161055c6105576110c6565b6111a0565b14604051908152f35b34610129576103cd6103c161057936610354565b6111c2565b3461012957602061059a61059136610484565b929190916111d8565b6040519015158152f35b34610129576040366003190112610129576004356001600160401b03811161012957366023820112156101295780600401356001600160401b038111610129573660248284010111610129576103cd916103c19160248035920161126b565b34610129576040366003190112610129576004356001600160401b038111610129575f61063581923690600401610336565b60243561065d6020604051809361064f838301809761110b565b9081520380845201826102bf565b5190600c5afa506103cd6103c16110c6565b346101295761067d3661012d565b9190926106938361068d846112a4565b14611300565b6106c560405160208101906106af816101d0888a898988611307565b5190205f5160206115815f395f51905f52900690565b936106e260405160208101906106af816101d089878a8a88611337565b916001936106f76106f2826112ba565b61116e565b9361070c6106f26107078961109a565b6112d0565b6107206106f261071b856110a9565b6112ba565b906107306106f26107078b6110b7565b915f965f995b61073f876110a9565b8b11610801578c9061075f60806107578e8b8d611059565b905014611363565b5f5b8b8d608083106107bd575050505f5b8b6020821061079b575050610795915f5160206115815f395f51905f5291099a611355565b99610736565b8b6107b6916107b0849e866001961a926113a8565b53611355565b9a01610770565b9b6107fa916107b082859f8f8f976107de6107f29360019a6107e494611059565b9061139c565b356001600160f81b03191690565b5f1a926113a8565b9a01610761565b508a879495968d6108118c6111c2565b945f958a985f995b61082d610828610828886112e8565b6110a9565b8b11610905578c9061083e876110a9565b8c1480156108fc575b6108e2575f5b8b8d61010083106108ba575050505f5b601f8111156108875750610881915f5160206115815f395f51905f5291099a611355565b99610819565b99915060208a10156108b5576108b06108aa8f938d6107b0828f87901a926113a8565b9a611355565b61085d565b611005565b9b6108db916107b082859f8f8f976107de6107f29360019a6107e494611059565b9a0161084d565b610881915f5160206115815f395f51905f5291099a611355565b50868c14610847565b50869395948c8c6109256109188d6110f5565b6109206113b9565b6114c1565b905f958a985f995b610939610828886110a9565b8b116109cc578c905f5b8b8d608083106109a4575050505f5b601f81111561097c5750610976915f5160206115815f395f51905f5291099a611355565b9961092d565b99915060208a10156108b55761099f6108aa8f938d6107b0828f87901a926113a8565b610952565b9b6109c5916107b082859f8f8f976107de6107f29360019a6107e494611059565b9a01610943565b508a6109eb6109de8b989697986111c2565b6109e6610f2b565b61111d565b945f936001965f975b610a00610828856112e8565b8911610ac2578a90848a148015610ab1575b610a97575f5b898b6101008310610a6f575050505f5b8960208210610a53575050610a4d915f5160206115815f395f51905f52910998611355565b976109f4565b89610a68916107b0849c866001961a926113a8565b9801610a28565b99610a90916107b0826107f26107e4879f978f8f9960019a6107de92611059565b9801610a18565b610a4d915f5160206115815f395f51905f52910998611355565b50610abb85610fcc565b8a14610a12565b6103cd610ad484848d61028e8d6110f5565b60405190151581529081906020820190565b34610129576103cd6103c1610afa366103d1565b906114c1565b3461012957610b0e3661012d565b909291610b1c811515611300565b610b298261068d836112a4565b610b4560405160208101906106af816101d0878a888b88611307565b91610b6260405160208101906106af816101d0868b898c88611337565b94610b6f6106f2846112ba565b60015f86815b878a818510610e3e57505050505050610b8d906111c2565b93610ba56106f2610707610ba0876112e8565b61109a565b935f958892895f985b610bbf610bba866112e8565b6110b7565b8a11610c6d5788908a8989610bd3896110a9565b83148015610c64575b610c435789610c2585610c206001999789610100610c1b610c13610c339b5f5160206115815f395f51905f529e9b610c2e9b611059565b909214611300565b611573565b610ff6565b92830160200152565b610fe8565b96099801985b9897938a90610bae565b505050955f5160206115815f395f51905f5291509160019209980198610c39565b50888314610bdc565b50928587918b610c7f6109188c6110f5565b96610c8d6002841015611300565b610c9c6106f261071b856110a9565b975f958795875b610cac876110a9565b891015610cfd575f5160206115815f395f51905f528a610cf28e610c2e8c610c258f97610ced8f8f6080610ce8610c1360019e87958c95611059565b611567565b610fda565b990998019796610ca3565b508991859187610d0f6109de8f6111c2565b90610d226106f2610707610bba846112e8565b945f966001935f985b610d37610828866112e8565b8a11610dc457888c918b8a8a8983148015610db3575b610d92578a610c2585610c206001999789610100610c1b610c13610d849b5f5160206115815f395f51905f529e9b610c2e9b611059565b97099901995b999894610d2b565b505050965f5160206115815f395f51905f5291509160019209990199610d8a565b50610dbd8a610fcc565b8314610d4d565b508683610e2761028e876102868f61027e8f8e610df8610df3610e329d610e2d9d899761028e610274976110f5565b6114ef565b610e00610f2b565b99610e1f610e17610e1087610fcc565b8385611059565b98909b611019565b9990956110a9565b91611059565b61152b565b60405160018152602090f35b610e6b83610ced5f5160206115815f395f51905f52958a6080610ce8610c138c60019c9a610e799a611059565b878101602001879052610fe8565b9409929101908790610b75565b908060209392818452848401375f828201840152601f01601f1916010190565b90602083828152019060208160051b85010193835f915b838310610ecd5750505050505090565b909192939495601f198282030186528635601e198436030181121561012957830190602082359201916001600160401b03811161012957803603831361012957610f1d6020928392600195610e86565b980196019493019190610ebd565b60405190610f3a60a0836102bf565b608082527ffcf5e095d5d00af600db18cb2c04b3edd03cc744a2888ae40caa232946c5e7e16080836f17f1d3a73197d7942695638c4fa9ac0f60208201527fc3688c4f9774b905a14e3a3f171bac586c55e83ff97a1aeffb3af00adb22c6bb60408201526f08b3f481e3aaa0f1a09e30ed741d8ae460608201520152565b634e487b7160e01b5f52601160045260245ffd5b90600182018092116102a657565b90608082018092116102a657565b90602082018092116102a657565b9061010082018092116102a657565b634e487b7160e01b5f52603260045260245ffd5b90600110156108b557602081013590601e19813603018212156101295701908135916001600160401b038311610129576020018236038113610129579190565b91908110156108b55760051b81013590601e19813603018212156101295701908135916001600160401b038311610129576020018236038113610129579190565b6002198101919082116102a657565b5f198101919082116102a657565b6001198101919082116102a657565b3d156110f0573d906110d7826102e5565b916110e560405193846102bf565b82523d5f602084013e565b606090565b5f8091602081519101600e5afa506103516110c6565b805191908290602001825e015f815290565b5f91906101d061113c849360405192839161046e60208401809761110b565b5190600b5afa506103516110c6565b604051610100919061115d83826102bf565b60c8815291601f1901366020840137565b90611178826102e5565b61118560405191826102bf565b8281528092611196601f19916102e5565b0190602036910137565b6020815191015190602081106111b4575090565b5f199060200360031b1b1690565b5f8091602081519101600c5afa506103516110c6565b9061125361046e916101d05f968780809860405161122d6020826111ff828201809661110b565b7f73eda753299d7d483339d80809a1d80553bda402fffe5bfeffffffff0000000081520380845201826102bf565b5190600c5afa5061046e61123f6110c6565b60405196879561046e60208801809b61110b565b5190600f5afa5060016112676105576110c6565b1490565b5f9261129560208086956040519481869284840198893782019083820152030180845201826102bf565b5190600e5afa506103516110c6565b908160011b91808304600214901517156102a657565b9060a082029180830460a014901517156102a657565b9061012082029180830461012014901517156102a657565b600181901b91906001600160ff1b038116036102a657565b1561012957565b9493925f936113246113329360409560608a5260608a0191610ea6565b918783036020890152610ea6565b930152565b9493926001936113246113329360409560608a5260608a0191610ea6565b5f1981146102a65760010190565b1561136a57565b60405162461bcd60e51b815260206004820152600a6024820152693130b2102398903632b760b11b6044820152606490fd5b908210156108b5570190565b9081518110156108b5570160200190565b604051906113c9610120836102bf565b61010082527fcb3e287e85a763af267492ab572e99ab3f370d275cec1da1aaa9075ff05f79be610100836f024aa2b2f08f0a91260805272dc5105160208201527fc6e47ad4fa403b02b4510b647ae3d1770bac0326a805bbefd48056c8c121bdb860408201526f13e02b6052719f607dacd3a088274f6560608201527f596bd0d09920b61ab5da61bbdc7f5049334cf11213945d57e5ac7d055d042b7e60808201526f0ce5d527727d6e118cc9cdc6da2e351a60a08201527fadfd9baa8cbdd3a76d429a695160d12c923ac9cc3baca289e193548608b8280160c08201526f0606c4a02ea734cc32acd2b02bc28b9960e08201520152565b5f91906101d06114e0849360405192839161046e60208401809761110b565b5190600d5afa506103516110c6565b156114f657565b60405162461bcd60e51b815260206004820152600d60248201526c10da1958dacc8811985a5b1959609a1b6044820152606490fd5b1561153257565b60405162461bcd60e51b815260206004820152600d60248201526c10da1958daccc811985a5b1959609a1b6044820152606490fd5b90608092602091010137565b906101009260209101013756fe73eda753299d7d483339d80809a1d80553bda402fffe5bfeffffffff00000001a264697066735822122001362ac6db8acc1f780df57bf8e49c9cc8dbe41fc5cd1f562a5f9d667f22fba364736f6c634300081f0033",
			"opcodes": "PUSH1 0x80 DUP1 PUSH1 0x40 MSTORE CALLVALUE PUSH1 0x1D JUMPI PUSH1 0xFF NOT PUSH0 SLOAD AND PUSH0 SSTORE PUSH2 0x15D6 SWAP1 DUP2 PUSH2 0x22 DUP3 CODECOPY RETURN JUMPDEST PUSH0 DUP1 REVERT INVALID PUSH1 0x80 PUSH1 0x40 MSTORE PUSH1 0x4 CALLDATASIZE LT ISZERO PUSH2 0x11 JUMPI PUSH0 DUP1 REVERT JUMPDEST PUSH0 CALLDATALOAD PUSH1 0xE0 SHR DUP1 PUSH4 0x1F96F4A EQ PUSH2 0xF4 JUMPI DUP1 PUSH4 0x205C9CC7 EQ PUSH2 0xEF JUMPI DUP1 PUSH4 0x3D4E635F EQ PUSH2 0xEA JUMPI DUP1 PUSH4 0x3F009C16 EQ PUSH2 0xE5 JUMPI DUP1 PUSH4 0x4D919405 EQ PUSH2 0xE0 JUMPI DUP1 PUSH4 0x578A34CE EQ PUSH2 0xDB JUMPI DUP1 PUSH4 0x5CDC73EF EQ PUSH2 0xD6 JUMPI DUP1 PUSH4 0x6592041A EQ PUSH2 0xD1 JUMPI DUP1 PUSH4 0x6F18B669 EQ PUSH2 0xCC JUMPI DUP1 PUSH4 0xAF1D0BD9 EQ PUSH2 0xC7 JUMPI DUP1 PUSH4 0xC1F2C915 EQ PUSH2 0xC2 JUMPI DUP1 PUSH4 0xCAC924E7 EQ PUSH2 0xBD JUMPI DUP1 PUSH4 0xD6385D60 EQ PUSH2 0xB8 JUMPI PUSH4 0xE1F66C1B EQ PUSH2 0xB3 JUMPI PUSH0 DUP1 REVERT JUMPDEST PUSH2 0xB00 JUMP JUMPDEST PUSH2 0xAE6 JUMP JUMPDEST PUSH2 0x66F JUMP JUMPDEST PUSH2 0x603 JUMP JUMPDEST PUSH2 0x5A4 JUMP JUMPDEST PUSH2 0x57E JUMP JUMPDEST PUSH2 0x565 JUMP JUMPDEST PUSH2 0x50C JUMP JUMPDEST PUSH2 0x435 JUMP JUMPDEST PUSH2 0x41B JUMP JUMPDEST PUSH2 0x3A8 JUMP JUMPDEST PUSH2 0x214 JUMP JUMPDEST PUSH2 0x1F3 JUMP JUMPDEST PUSH2 0x17D JUMP JUMPDEST SWAP2 DUP2 PUSH1 0x1F DUP5 ADD SLT ISZERO PUSH2 0x129 JUMPI DUP3 CALLDATALOAD SWAP2 PUSH1 0x1 PUSH1 0x1 PUSH1 0x40 SHL SUB DUP4 GT PUSH2 0x129 JUMPI PUSH1 0x20 DUP1 DUP6 ADD SWAP5 DUP5 PUSH1 0x5 SHL ADD ADD GT PUSH2 0x129 JUMPI JUMP JUMPDEST PUSH0 DUP1 REVERT JUMPDEST PUSH1 0x40 PUSH1 0x3 NOT DUP3 ADD SLT PUSH2 0x129 JUMPI PUSH1 0x4 CALLDATALOAD PUSH1 0x1 PUSH1 0x1 PUSH1 0x40 SHL SUB DUP2 GT PUSH2 0x129 JUMPI DUP2 PUSH2 0x157 SWAP2 PUSH1 0x4 ADD PUSH2 0xF9 JUMP JUMPDEST SWAP3 SWAP1 SWAP3 SWAP2 PUSH1 0x24 CALLDATALOAD SWAP1 PUSH1 0x1 PUSH1 0x1 PUSH1 0x40 SHL SUB DUP3 GT PUSH2 0x129 JUMPI PUSH2 0x179 SWAP2 PUSH1 0x4 ADD PUSH2 0xF9 JUMP JUMPDEST SWAP1 SWAP2 JUMP JUMPDEST CALLVALUE PUSH2 0x129 JUMPI PUSH0 MLOAD PUSH1 0x20 PUSH2 0x1581 PUSH0 CODECOPY PUSH0 MLOAD SWAP1 PUSH0 MSTORE PUSH2 0x1D0 PUSH2 0x1BE PUSH2 0x1DE PUSH2 0x1A2 CALLDATASIZE PUSH2 0x12D JUMP JUMPDEST PUSH1 0x40 SWAP7 SWAP3 SWAP7 MLOAD SWAP6 DUP7 SWAP5 PUSH1 0x20 DUP7 ADD SWAP9 PUSH1 0x40 DUP11 MSTORE PUSH1 0x60 DUP8 ADD SWAP2 PUSH2 0xEA6 JUMP JUMPDEST DUP5 DUP2 SUB PUSH1 0x1F NOT ADD PUSH1 0x40 DUP7 ADD MSTORE SWAP2 PUSH2 0xEA6 JUMP JUMPDEST SUB PUSH1 0x1F NOT DUP2 ADD DUP4 MSTORE DUP3 PUSH2 0x2BF JUMP JUMPDEST MLOAD SWAP1 KECCAK256 MOD PUSH2 0x1E8 JUMPI STOP JUMPDEST PUSH0 DUP1 SLOAD PUSH1 0xFF NOT AND SWAP1 SSTORE STOP JUMPDEST CALLVALUE PUSH2 0x129 JUMPI PUSH0 CALLDATASIZE PUSH1 0x3 NOT ADD SLT PUSH2 0x129 JUMPI PUSH1 0x20 PUSH1 0xFF PUSH0 SLOAD AND PUSH1 0x40 MLOAD SWAP1 ISZERO ISZERO DUP2 MSTORE RETURN JUMPDEST CALLVALUE PUSH2 0x129 JUMPI PUSH2 0x222 CALLDATASIZE PUSH2 0x12D JUMP JUMPDEST SWAP3 SWAP1 SWAP2 PUSH2 0x22D PUSH2 0xF2B JUMP JUMPDEST SWAP3 PUSH1 0x1 DUP3 ADD DUP1 DUP4 GT PUSH2 0x2A6 JUMPI PUSH2 0x250 PUSH2 0x248 DUP5 SWAP3 DUP9 DUP6 PUSH2 0x1059 JUMP JUMPDEST SWAP3 SWAP1 SWAP6 PUSH2 0x1019 JUMP JUMPDEST SWAP4 PUSH0 NOT DUP2 ADD SWAP2 SWAP1 DUP3 GT PUSH2 0x2A6 JUMPI PUSH2 0x27E PUSH2 0x274 PUSH2 0x286 SWAP4 PUSH2 0x294 SWAP11 PUSH2 0x28E SWAP8 PUSH2 0x1059 JUMP JUMPDEST SWAP8 SWAP1 SWAP5 CALLDATASIZE SWAP2 PUSH2 0x300 JUMP JUMPDEST SWAP5 CALLDATASIZE SWAP2 PUSH2 0x300 JUMP JUMPDEST SWAP4 CALLDATASIZE SWAP2 PUSH2 0x300 JUMP JUMPDEST SWAP3 PUSH2 0x11D8 JUMP JUMPDEST ISZERO ISZERO PUSH1 0xFF DUP1 NOT PUSH0 SLOAD AND SWAP2 AND OR PUSH0 SSTORE PUSH0 DUP1 RETURN JUMPDEST PUSH2 0xFB8 JUMP JUMPDEST PUSH4 0x4E487B71 PUSH1 0xE0 SHL PUSH0 MSTORE PUSH1 0x41 PUSH1 0x4 MSTORE PUSH1 0x24 PUSH0 REVERT JUMPDEST SWAP1 PUSH1 0x1F DUP1 NOT SWAP2 ADD AND DUP2 ADD SWAP1 DUP2 LT PUSH1 0x1 PUSH1 0x1 PUSH1 0x40 SHL SUB DUP3 GT OR PUSH2 0x2E0 JUMPI PUSH1 0x40 MSTORE JUMP JUMPDEST PUSH2 0x2AB JUMP JUMPDEST PUSH1 0x1 PUSH1 0x1 PUSH1 0x40 SHL SUB DUP2 GT PUSH2 0x2E0 JUMPI PUSH1 0x1F ADD PUSH1 0x1F NOT AND PUSH1 0x20 ADD SWAP1 JUMP JUMPDEST SWAP3 SWAP2 SWAP3 PUSH2 0x30C DUP3 PUSH2 0x2E5 JUMP JUMPDEST SWAP2 PUSH2 0x31A PUSH1 0x40 MLOAD SWAP4 DUP5 PUSH2 0x2BF JUMP JUMPDEST DUP3 SWAP5 DUP2 DUP5 MSTORE DUP2 DUP4 ADD GT PUSH2 0x129 JUMPI DUP3 DUP2 PUSH1 0x20 SWAP4 DUP5 PUSH0 SWAP7 ADD CALLDATACOPY ADD ADD MSTORE JUMP JUMPDEST SWAP1 DUP1 PUSH1 0x1F DUP4 ADD SLT ISZERO PUSH2 0x129 JUMPI DUP2 PUSH1 0x20 PUSH2 0x351 SWAP4 CALLDATALOAD SWAP2 ADD PUSH2 0x300 JUMP JUMPDEST SWAP1 JUMP JUMPDEST PUSH1 0x20 PUSH1 0x3 NOT DUP3 ADD SLT PUSH2 0x129 JUMPI PUSH1 0x4 CALLDATALOAD SWAP1 PUSH1 0x1 PUSH1 0x1 PUSH1 0x40 SHL SUB DUP3 GT PUSH2 0x129 JUMPI PUSH2 0x351 SWAP2 PUSH1 0x4 ADD PUSH2 0x336 JUMP JUMPDEST PUSH1 0x20 PUSH1 0x40 SWAP3 DUP2 DUP4 MSTORE DUP1 MLOAD SWAP2 DUP3 SWAP2 DUP3 DUP3 DUP7 ADD MSTORE ADD DUP5 DUP5 ADD MCOPY PUSH0 DUP3 DUP3 ADD DUP5 ADD MSTORE PUSH1 0x1F ADD PUSH1 0x1F NOT AND ADD ADD SWAP1 JUMP JUMPDEST CALLVALUE PUSH2 0x129 JUMPI PUSH2 0x3CD PUSH2 0x3C1 PUSH2 0x3BC CALLDATASIZE PUSH2 0x354 JUMP JUMPDEST PUSH2 0x10F5 JUMP JUMPDEST PUSH1 0x40 MLOAD SWAP2 DUP3 SWAP2 DUP3 PUSH2 0x37E JUMP JUMPDEST SUB SWAP1 RETURN JUMPDEST SWAP1 PUSH1 0x40 PUSH1 0x3 NOT DUP4 ADD SLT PUSH2 0x129 JUMPI PUSH1 0x4 CALLDATALOAD PUSH1 0x1 PUSH1 0x1 PUSH1 0x40 SHL SUB DUP2 GT PUSH2 0x129 JUMPI DUP3 PUSH2 0x3FC SWAP2 PUSH1 0x4 ADD PUSH2 0x336 JUMP JUMPDEST SWAP2 PUSH1 0x24 CALLDATALOAD SWAP1 PUSH1 0x1 PUSH1 0x1 PUSH1 0x40 SHL SUB DUP3 GT PUSH2 0x129 JUMPI PUSH2 0x351 SWAP2 PUSH1 0x4 ADD PUSH2 0x336 JUMP JUMPDEST CALLVALUE PUSH2 0x129 JUMPI PUSH2 0x3CD PUSH2 0x3C1 PUSH2 0x42F CALLDATASIZE PUSH2 0x3D1 JUMP JUMPDEST SWAP1 PUSH2 0x111D JUMP JUMPDEST CALLVALUE PUSH2 0x129 JUMPI PUSH0 CALLDATASIZE PUSH1 0x3 NOT ADD SLT PUSH2 0x129 JUMPI PUSH2 0x482 PUSH2 0x46E PUSH2 0x453 PUSH2 0x114B JUMP JUMPDEST PUSH2 0x474 PUSH2 0x45E PUSH2 0x114B JUMP JUMPDEST PUSH1 0x40 MLOAD SWAP4 DUP5 SWAP4 PUSH1 0x20 DUP6 ADD SWAP1 PUSH2 0x110B JUMP JUMPDEST SWAP1 PUSH2 0x110B JUMP JUMPDEST SUB SWAP1 PUSH1 0x1F NOT DUP3 ADD DUP2 MSTORE PUSH2 0x2BF JUMP JUMPDEST STOP JUMPDEST SWAP1 PUSH1 0x80 PUSH1 0x3 NOT DUP4 ADD SLT PUSH2 0x129 JUMPI PUSH1 0x4 CALLDATALOAD PUSH1 0x1 PUSH1 0x1 PUSH1 0x40 SHL SUB DUP2 GT PUSH2 0x129 JUMPI DUP3 PUSH2 0x4AF SWAP2 PUSH1 0x4 ADD PUSH2 0x336 JUMP JUMPDEST SWAP2 PUSH1 0x24 CALLDATALOAD PUSH1 0x1 PUSH1 0x1 PUSH1 0x40 SHL SUB DUP2 GT PUSH2 0x129 JUMPI DUP2 PUSH2 0x4CE SWAP2 PUSH1 0x4 ADD PUSH2 0x336 JUMP JUMPDEST SWAP2 PUSH1 0x44 CALLDATALOAD PUSH1 0x1 PUSH1 0x1 PUSH1 0x40 SHL SUB DUP2 GT PUSH2 0x129 JUMPI DUP3 PUSH2 0x4ED SWAP2 PUSH1 0x4 ADD PUSH2 0x336 JUMP JUMPDEST SWAP2 PUSH1 0x64 CALLDATALOAD SWAP1 PUSH1 0x1 PUSH1 0x1 PUSH1 0x40 SHL SUB DUP3 GT PUSH2 0x129 JUMPI PUSH2 0x351 SWAP2 PUSH1 0x4 ADD PUSH2 0x336 JUMP JUMPDEST CALLVALUE PUSH2 0x129 JUMPI PUSH0 DUP1 PUSH2 0x46E PUSH2 0x46E PUSH2 0x541 PUSH2 0x1D0 PUSH2 0x528 CALLDATASIZE PUSH2 0x484 JUMP JUMPDEST SWAP2 SWAP4 SWAP3 SWAP7 SWAP1 PUSH1 0x40 MLOAD SWAP7 DUP8 SWAP6 PUSH2 0x46E PUSH1 0x20 DUP9 ADD DUP1 SWAP12 PUSH2 0x110B JUMP JUMPDEST MLOAD SWAP1 PUSH1 0xF GAS STATICCALL POP PUSH1 0x20 PUSH1 0x1 PUSH2 0x55C PUSH2 0x557 PUSH2 0x10C6 JUMP JUMPDEST PUSH2 0x11A0 JUMP JUMPDEST EQ PUSH1 0x40 MLOAD SWAP1 DUP2 MSTORE RETURN JUMPDEST CALLVALUE PUSH2 0x129 JUMPI PUSH2 0x3CD PUSH2 0x3C1 PUSH2 0x579 CALLDATASIZE PUSH2 0x354 JUMP JUMPDEST PUSH2 0x11C2 JUMP JUMPDEST CALLVALUE PUSH2 0x129 JUMPI PUSH1 0x20 PUSH2 0x59A PUSH2 0x591 CALLDATASIZE PUSH2 0x484 JUMP JUMPDEST SWAP3 SWAP2 SWAP1 SWAP2 PUSH2 0x11D8 JUMP JUMPDEST PUSH1 0x40 MLOAD SWAP1 ISZERO ISZERO DUP2 MSTORE RETURN JUMPDEST CALLVALUE PUSH2 0x129 JUMPI PUSH1 0x40 CALLDATASIZE PUSH1 0x3 NOT ADD SLT PUSH2 0x129 JUMPI PUSH1 0x4 CALLDATALOAD PUSH1 0x1 PUSH1 0x1 PUSH1 0x40 SHL SUB DUP2 GT PUSH2 0x129 JUMPI CALLDATASIZE PUSH1 0x23 DUP3 ADD SLT ISZERO PUSH2 0x129 JUMPI DUP1 PUSH1 0x4 ADD CALLDATALOAD PUSH1 0x1 PUSH1 0x1 PUSH1 0x40 SHL SUB DUP2 GT PUSH2 0x129 JUMPI CALLDATASIZE PUSH1 0x24 DUP3 DUP5 ADD ADD GT PUSH2 0x129 JUMPI PUSH2 0x3CD SWAP2 PUSH2 0x3C1 SWAP2 PUSH1 0x24 DUP1 CALLDATALOAD SWAP3 ADD PUSH2 0x126B JUMP JUMPDEST CALLVALUE PUSH2 0x129 JUMPI PUSH1 0x40 CALLDATASIZE PUSH1 0x3 NOT ADD SLT PUSH2 0x129 JUMPI PUSH1 0x4 CALLDATALOAD PUSH1 0x1 PUSH1 0x1 PUSH1 0x40 SHL SUB DUP2 GT PUSH2 0x129 JUMPI PUSH0 PUSH2 0x635 DUP2 SWAP3 CALLDATASIZE SWAP1 PUSH1 0x4 ADD PUSH2 0x336 JUMP JUMPDEST PUSH1 0x24 CALLDATALOAD PUSH2 0x65D PUSH1 0x20 PUSH1 0x40 MLOAD DUP1 SWAP4 PUSH2 0x64F DUP4 DUP4 ADD DUP1 SWAP8 PUSH2 0x110B JUMP JUMPDEST SWAP1 DUP2 MSTORE SUB DUP1 DUP5 MSTORE ADD DUP3 PUSH2 0x2BF JUMP JUMPDEST MLOAD SWAP1 PUSH1 0xC GAS STATICCALL POP PUSH2 0x3CD PUSH2 0x3C1 PUSH2 0x10C6 JUMP JUMPDEST CALLVALUE PUSH2 0x129 JUMPI PUSH2 0x67D CALLDATASIZE PUSH2 0x12D JUMP JUMPDEST SWAP2 SWAP1 SWAP3 PUSH2 0x693 DUP4 PUSH2 0x68D DUP5 PUSH2 0x12A4 JUMP JUMPDEST EQ PUSH2 0x1300 JUMP JUMPDEST PUSH2 0x6C5 PUSH1 0x40 MLOAD PUSH1 0x20 DUP2 ADD SWAP1 PUSH2 0x6AF DUP2 PUSH2 0x1D0 DUP9 DUP11 DUP10 DUP10 DUP9 PUSH2 0x1307 JUMP JUMPDEST MLOAD SWAP1 KECCAK256 PUSH0 MLOAD PUSH1 0x20 PUSH2 0x1581 PUSH0 CODECOPY PUSH0 MLOAD SWAP1 PUSH0 MSTORE SWAP1 MOD SWAP1 JUMP JUMPDEST SWAP4 PUSH2 0x6E2 PUSH1 0x40 MLOAD PUSH1 0x20 DUP2 ADD SWAP1 PUSH2 0x6AF DUP2 PUSH2 0x1D0 DUP10 DUP8 DUP11 DUP11 DUP9 PUSH2 0x1337 JUMP JUMPDEST SWAP2 PUSH1 0x1 SWAP4 PUSH2 0x6F7 PUSH2 0x6F2 DUP3 PUSH2 0x12BA JUMP JUMPDEST PUSH2 0x116E JUMP JUMPDEST SWAP4 PUSH2 0x70C PUSH2 0x6F2 PUSH2 0x707 DUP10 PUSH2 0x109A JUMP JUMPDEST PUSH2 0x12D0 JUMP JUMPDEST PUSH2 0x720 PUSH2 0x6F2 PUSH2 0x71B DUP6 PUSH2 0x10A9 JUMP JUMPDEST PUSH2 0x12BA JUMP JUMPDEST SWAP1 PUSH2 0x730 PUSH2 0x6F2 PUSH2 0x707 DUP12 PUSH2 0x10B7 JUMP JUMPDEST SWAP2 PUSH0 SWAP7 PUSH0 SWAP10 JUMPDEST PUSH2 0x73F DUP8 PUSH2 0x10A9 JUMP JUMPDEST DUP12 GT PUSH2 0x801 JUMPI DUP13 SWAP1 PUSH2 0x75F PUSH1 0x80 PUSH2 0x757 DUP15 DUP12 DUP14 PUSH2 0x1059 JUMP JUMPDEST SWAP1 POP EQ PUSH2 0x1363 JUMP JUMPDEST PUSH0 JUMPDEST DUP12 DUP14 PUSH1 0x80 DUP4 LT PUSH2 0x7BD JUMPI POP POP POP PUSH0 JUMPDEST DUP12 PUSH1 0x20 DUP3 LT PUSH2 0x79B JUMPI POP POP PUSH2 0x795 SWAP2 PUSH0 MLOAD PUSH1 0x20 PUSH2 0x1581 PUSH0 CODECOPY PUSH0 MLOAD SWAP1 PUSH0 MSTORE SWAP2 MULMOD SWAP11 PUSH2 0x1355 JUMP JUMPDEST SWAP10 PUSH2 0x736 JUMP JUMPDEST DUP12 PUSH2 0x7B6 SWAP2 PUSH2 0x7B0 DUP5 SWAP15 DUP7 PUSH1 0x1 SWAP7 BYTE SWAP3 PUSH2 0x13A8 JUMP JUMPDEST MSTORE8 PUSH2 0x1355 JUMP JUMPDEST SWAP11 ADD PUSH2 0x770 JUMP JUMPDEST SWAP12 PUSH2 0x7FA SWAP2 PUSH2 0x7B0 DUP3 DUP6 SWAP16 DUP16 DUP16 SWAP8 PUSH2 0x7DE PUSH2 0x7F2 SWAP4 PUSH1 0x1 SWAP11 PUSH2 0x7E4 SWAP5 PUSH2 0x1059 JUMP JUMPDEST SWAP1 PUSH2 0x139C JUMP JUMPDEST CALLDATALOAD PUSH1 0x1 PUSH1 0x1 PUSH1 0xF8 SHL SUB NOT AND SWAP1 JUMP JUMPDEST PUSH0 BYTE SWAP3 PUSH2 0x13A8 JUMP JUMPDEST SWAP11 ADD PUSH2 0x761 JUMP JUMPDEST POP DUP11 DUP8 SWAP5 SWAP6 SWAP7 DUP14 PUSH2 0x811 DUP13 PUSH2 0x11C2 JUMP JUMPDEST SWAP5 PUSH0 SWAP6 DUP11 SWAP9 PUSH0 SWAP10 JUMPDEST PUSH2 0x82D PUSH2 0x828 PUSH2 0x828 DUP9 PUSH2 0x12E8 JUMP JUMPDEST PUSH2 0x10A9 JUMP JUMPDEST DUP12 GT PUSH2 0x905 JUMPI DUP13 SWAP1 PUSH2 0x83E DUP8 PUSH2 0x10A9 JUMP JUMPDEST DUP13 EQ DUP1 ISZERO PUSH2 0x8FC JUMPI JUMPDEST PUSH2 0x8E2 JUMPI PUSH0 JUMPDEST DUP12 DUP14 PUSH2 0x100 DUP4 LT PUSH2 0x8BA JUMPI POP POP POP PUSH0 JUMPDEST PUSH1 0x1F DUP2 GT ISZERO PUSH2 0x887 JUMPI POP PUSH2 0x881 SWAP2 PUSH0 MLOAD PUSH1 0x20 PUSH2 0x1581 PUSH0 CODECOPY PUSH0 MLOAD SWAP1 PUSH0 MSTORE SWAP2 MULMOD SWAP11 PUSH2 0x1355 JUMP JUMPDEST SWAP10 PUSH2 0x819 JUMP JUMPDEST SWAP10 SWAP2 POP PUSH1 0x20 DUP11 LT ISZERO PUSH2 0x8B5 JUMPI PUSH2 0x8B0 PUSH2 0x8AA DUP16 SWAP4 DUP14 PUSH2 0x7B0 DUP3 DUP16 DUP8 SWAP1 BYTE SWAP3 PUSH2 0x13A8 JUMP JUMPDEST SWAP11 PUSH2 0x1355 JUMP JUMPDEST PUSH2 0x85D JUMP JUMPDEST PUSH2 0x1005 JUMP JUMPDEST SWAP12 PUSH2 0x8DB SWAP2 PUSH2 0x7B0 DUP3 DUP6 SWAP16 DUP16 DUP16 SWAP8 PUSH2 0x7DE PUSH2 0x7F2 SWAP4 PUSH1 0x1 SWAP11 PUSH2 0x7E4 SWAP5 PUSH2 0x1059 JUMP JUMPDEST SWAP11 ADD PUSH2 0x84D JUMP JUMPDEST PUSH2 0x881 SWAP2 PUSH0 MLOAD PUSH1 0x20 PUSH2 0x1581 PUSH0 CODECOPY PUSH0 MLOAD SWAP1 PUSH0 MSTORE SWAP2 MULMOD SWAP11 PUSH2 0x1355 JUMP JUMPDEST POP DUP7 DUP13 EQ PUSH2 0x847 JUMP JUMPDEST POP DUP7 SWAP4 SWAP6 SWAP5 DUP13 DUP13 PUSH2 0x925 PUSH2 0x918 DUP14 PUSH2 0x10F5 JUMP JUMPDEST PUSH2 0x920 PUSH2 0x13B9 JUMP JUMPDEST PUSH2 0x14C1 JUMP JUMPDEST SWAP1 PUSH0 SWAP6 DUP11 SWAP9 PUSH0 SWAP10 JUMPDEST PUSH2 0x939 PUSH2 0x828 DUP9 PUSH2 0x10A9 JUMP JUMPDEST DUP12 GT PUSH2 0x9CC JUMPI DUP13 SWAP1 PUSH0 JUMPDEST DUP12 DUP14 PUSH1 0x80 DUP4 LT PUSH2 0x9A4 JUMPI POP POP POP PUSH0 JUMPDEST PUSH1 0x1F DUP2 GT ISZERO PUSH2 0x97C JUMPI POP PUSH2 0x976 SWAP2 PUSH0 MLOAD PUSH1 0x20 PUSH2 0x1581 PUSH0 CODECOPY PUSH0 MLOAD SWAP1 PUSH0 MSTORE SWAP2 MULMOD SWAP11 PUSH2 0x1355 JUMP JUMPDEST SWAP10 PUSH2 0x92D JUMP JUMPDEST SWAP10 SWAP2 POP PUSH1 0x20 DUP11 LT ISZERO PUSH2 0x8B5 JUMPI PUSH2 0x99F PUSH2 0x8AA DUP16 SWAP4 DUP14 PUSH2 0x7B0 DUP3 DUP16 DUP8 SWAP1 BYTE SWAP3 PUSH2 0x13A8 JUMP JUMPDEST PUSH2 0x952 JUMP JUMPDEST SWAP12 PUSH2 0x9C5 SWAP2 PUSH2 0x7B0 DUP3 DUP6 SWAP16 DUP16 DUP16 SWAP8 PUSH2 0x7DE PUSH2 0x7F2 SWAP4 PUSH1 0x1 SWAP11 PUSH2 0x7E4 SWAP5 PUSH2 0x1059 JUMP JUMPDEST SWAP11 ADD PUSH2 0x943 JUMP JUMPDEST POP DUP11 PUSH2 0x9EB PUSH2 0x9DE DUP12 SWAP9 SWAP7 SWAP8 SWAP9 PUSH2 0x11C2 JUMP JUMPDEST PUSH2 0x9E6 PUSH2 0xF2B JUMP JUMPDEST PUSH2 0x111D JUMP JUMPDEST SWAP5 PUSH0 SWAP4 PUSH1 0x1 SWAP7 PUSH0 SWAP8 JUMPDEST PUSH2 0xA00 PUSH2 0x828 DUP6 PUSH2 0x12E8 JUMP JUMPDEST DUP10 GT PUSH2 0xAC2 JUMPI DUP11 SWAP1 DUP5 DUP11 EQ DUP1 ISZERO PUSH2 0xAB1 JUMPI JUMPDEST PUSH2 0xA97 JUMPI PUSH0 JUMPDEST DUP10 DUP12 PUSH2 0x100 DUP4 LT PUSH2 0xA6F JUMPI POP POP POP PUSH0 JUMPDEST DUP10 PUSH1 0x20 DUP3 LT PUSH2 0xA53 JUMPI POP POP PUSH2 0xA4D SWAP2 PUSH0 MLOAD PUSH1 0x20 PUSH2 0x1581 PUSH0 CODECOPY PUSH0 MLOAD SWAP1 PUSH0 MSTORE SWAP2 MULMOD SWAP9 PUSH2 0x1355 JUMP JUMPDEST SWAP8 PUSH2 0x9F4 JUMP JUMPDEST DUP10 PUSH2 0xA68 SWAP2 PUSH2 0x7B0 DUP5 SWAP13 DUP7 PUSH1 0x1 SWAP7 BYTE SWAP3 PUSH2 0x13A8 JUMP JUMPDEST SWAP9 ADD PUSH2 0xA28 JUMP JUMPDEST SWAP10 PUSH2 0xA90 SWAP2 PUSH2 0x7B0 DUP3 PUSH2 0x7F2 PUSH2 0x7E4 DUP8 SWAP16 SWAP8 DUP16 DUP16 SWAP10 PUSH1 0x1 SWAP11 PUSH2 0x7DE SWAP3 PUSH2 0x1059 JUMP JUMPDEST SWAP9 ADD PUSH2 0xA18 JUMP JUMPDEST PUSH2 0xA4D SWAP2 PUSH0 MLOAD PUSH1 0x20 PUSH2 0x1581 PUSH0 CODECOPY PUSH0 MLOAD SWAP1 PUSH0 MSTORE SWAP2 MULMOD SWAP9 PUSH2 0x1355 JUMP JUMPDEST POP PUSH2 0xABB DUP6 PUSH2 0xFCC JUMP JUMPDEST DUP11 EQ PUSH2 0xA12 JUMP JUMPDEST PUSH2 0x3CD PUSH2 0xAD4 DUP5 DUP5 DUP14 PUSH2 0x28E DUP14 PUSH2 0x10F5 JUMP JUMPDEST PUSH1 0x40 MLOAD SWAP1 ISZERO ISZERO DUP2 MSTORE SWAP1 DUP2 SWAP1 PUSH1 0x20 DUP3 ADD SWAP1 JUMP JUMPDEST CALLVALUE PUSH2 0x129 JUMPI PUSH2 0x3CD PUSH2 0x3C1 PUSH2 0xAFA CALLDATASIZE PUSH2 0x3D1 JUMP JUMPDEST SWAP1 PUSH2 0x14C1 JUMP JUMPDEST CALLVALUE PUSH2 0x129 JUMPI PUSH2 0xB0E CALLDATASIZE PUSH2 0x12D JUMP JUMPDEST SWAP1 SWAP3 SWAP2 PUSH2 0xB1C DUP2 ISZERO ISZERO PUSH2 0x1300 JUMP JUMPDEST PUSH2 0xB29 DUP3 PUSH2 0x68D DUP4 PUSH2 0x12A4 JUMP JUMPDEST PUSH2 0xB45 PUSH1 0x40 MLOAD PUSH1 0x20 DUP2 ADD SWAP1 PUSH2 0x6AF DUP2 PUSH2 0x1D0 DUP8 DUP11 DUP9 DUP12 DUP9 PUSH2 0x1307 JUMP JUMPDEST SWAP2 PUSH2 0xB62 PUSH1 0x40 MLOAD PUSH1 0x20 DUP2 ADD SWAP1 PUSH2 0x6AF DUP2 PUSH2 0x1D0 DUP7 DUP12 DUP10 DUP13 DUP9 PUSH2 0x1337 JUMP JUMPDEST SWAP5 PUSH2 0xB6F PUSH2 0x6F2 DUP5 PUSH2 0x12BA JUMP JUMPDEST PUSH1 0x1 PUSH0 DUP7 DUP2 JUMPDEST DUP8 DUP11 DUP2 DUP6 LT PUSH2 0xE3E JUMPI POP POP POP POP POP POP PUSH2 0xB8D SWAP1 PUSH2 0x11C2 JUMP JUMPDEST SWAP4 PUSH2 0xBA5 PUSH2 0x6F2 PUSH2 0x707 PUSH2 0xBA0 DUP8 PUSH2 0x12E8 JUMP JUMPDEST PUSH2 0x109A JUMP JUMPDEST SWAP4 PUSH0 SWAP6 DUP9 SWAP3 DUP10 PUSH0 SWAP9 JUMPDEST PUSH2 0xBBF PUSH2 0xBBA DUP7 PUSH2 0x12E8 JUMP JUMPDEST PUSH2 0x10B7 JUMP JUMPDEST DUP11 GT PUSH2 0xC6D JUMPI DUP9 SWAP1 DUP11 DUP10 DUP10 PUSH2 0xBD3 DUP10 PUSH2 0x10A9 JUMP JUMPDEST DUP4 EQ DUP1 ISZERO PUSH2 0xC64 JUMPI JUMPDEST PUSH2 0xC43 JUMPI DUP10 PUSH2 0xC25 DUP6 PUSH2 0xC20 PUSH1 0x1 SWAP10 SWAP8 DUP10 PUSH2 0x100 PUSH2 0xC1B PUSH2 0xC13 PUSH2 0xC33 SWAP12 PUSH0 MLOAD PUSH1 0x20 PUSH2 0x1581 PUSH0 CODECOPY PUSH0 MLOAD SWAP1 PUSH0 MSTORE SWAP15 SWAP12 PUSH2 0xC2E SWAP12 PUSH2 0x1059 JUMP JUMPDEST SWAP1 SWAP3 EQ PUSH2 0x1300 JUMP JUMPDEST PUSH2 0x1573 JUMP JUMPDEST PUSH2 0xFF6 JUMP JUMPDEST SWAP3 DUP4 ADD PUSH1 0x20 ADD MSTORE JUMP JUMPDEST PUSH2 0xFE8 JUMP JUMPDEST SWAP7 MULMOD SWAP9 ADD SWAP9 JUMPDEST SWAP9 SWAP8 SWAP4 DUP11 SWAP1 PUSH2 0xBAE JUMP JUMPDEST POP POP POP SWAP6 PUSH0 MLOAD PUSH1 0x20 PUSH2 0x1581 PUSH0 CODECOPY PUSH0 MLOAD SWAP1 PUSH0 MSTORE SWAP2 POP SWAP2 PUSH1 0x1 SWAP3 MULMOD SWAP9 ADD SWAP9 PUSH2 0xC39 JUMP JUMPDEST POP DUP9 DUP4 EQ PUSH2 0xBDC JUMP JUMPDEST POP SWAP3 DUP6 DUP8 SWAP2 DUP12 PUSH2 0xC7F PUSH2 0x918 DUP13 PUSH2 0x10F5 JUMP JUMPDEST SWAP7 PUSH2 0xC8D PUSH1 0x2 DUP5 LT ISZERO PUSH2 0x1300 JUMP JUMPDEST PUSH2 0xC9C PUSH2 0x6F2 PUSH2 0x71B DUP6 PUSH2 0x10A9 JUMP JUMPDEST SWAP8 PUSH0 SWAP6 DUP8 SWAP6 DUP8 JUMPDEST PUSH2 0xCAC DUP8 PUSH2 0x10A9 JUMP JUMPDEST DUP10 LT ISZERO PUSH2 0xCFD JUMPI PUSH0 MLOAD PUSH1 0x20 PUSH2 0x1581 PUSH0 CODECOPY PUSH0 MLOAD SWAP1 PUSH0 MSTORE DUP11 PUSH2 0xCF2 DUP15 PUSH2 0xC2E DUP13 PUSH2 0xC25 DUP16 SWAP8 PUSH2 0xCED DUP16 DUP16 PUSH1 0x80 PUSH2 0xCE8 PUSH2 0xC13 PUSH1 0x1 SWAP15 DUP8 SWAP6 DUP13 SWAP6 PUSH2 0x1059 JUMP JUMPDEST PUSH2 0x1567 JUMP JUMPDEST PUSH2 0xFDA JUMP JUMPDEST SWAP10 MULMOD SWAP9 ADD SWAP8 SWAP7 PUSH2 0xCA3 JUMP JUMPDEST POP DUP10 SWAP2 DUP6 SWAP2 DUP8 PUSH2 0xD0F PUSH2 0x9DE DUP16 PUSH2 0x11C2 JUMP JUMPDEST SWAP1 PUSH2 0xD22 PUSH2 0x6F2 PUSH2 0x707 PUSH2 0xBBA DUP5 PUSH2 0x12E8 JUMP JUMPDEST SWAP5 PUSH0 SWAP7 PUSH1 0x1 SWAP4 PUSH0 SWAP9 JUMPDEST PUSH2 0xD37 PUSH2 0x828 DUP7 PUSH2 0x12E8 JUMP JUMPDEST DUP11 GT PUSH2 0xDC4 JUMPI DUP9 DUP13 SWAP2 DUP12 DUP11 DUP11 DUP10 DUP4 EQ DUP1 ISZERO PUSH2 0xDB3 JUMPI JUMPDEST PUSH2 0xD92 JUMPI DUP11 PUSH2 0xC25 DUP6 PUSH2 0xC20 PUSH1 0x1 SWAP10 SWAP8 DUP10 PUSH2 0x100 PUSH2 0xC1B PUSH2 0xC13 PUSH2 0xD84 SWAP12 PUSH0 MLOAD PUSH1 0x20 PUSH2 0x1581 PUSH0 CODECOPY PUSH0 MLOAD SWAP1 PUSH0 MSTORE SWAP15 SWAP12 PUSH2 0xC2E SWAP12 PUSH2 0x1059 JUMP JUMPDEST SWAP8 MULMOD SWAP10 ADD SWAP10 JUMPDEST SWAP10 SWAP9 SWAP5 PUSH2 0xD2B JUMP JUMPDEST POP POP POP SWAP7 PUSH0 MLOAD PUSH1 0x20 PUSH2 0x1581 PUSH0 CODECOPY PUSH0 MLOAD SWAP1 PUSH0 MSTORE SWAP2 POP SWAP2 PUSH1 0x1 SWAP3 MULMOD SWAP10 ADD SWAP10 PUSH2 0xD8A JUMP JUMPDEST POP PUSH2 0xDBD DUP11 PUSH2 0xFCC JUMP JUMPDEST DUP4 EQ PUSH2 0xD4D JUMP JUMPDEST POP DUP7 DUP4 PUSH2 0xE27 PUSH2 0x28E DUP8 PUSH2 0x286 DUP16 PUSH2 0x27E DUP16 DUP15 PUSH2 0xDF8 PUSH2 0xDF3 PUSH2 0xE32 SWAP14 PUSH2 0xE2D SWAP14 DUP10 SWAP8 PUSH2 0x28E PUSH2 0x274 SWAP8 PUSH2 0x10F5 JUMP JUMPDEST PUSH2 0x14EF JUMP JUMPDEST PUSH2 0xE00 PUSH2 0xF2B JUMP JUMPDEST SWAP10 PUSH2 0xE1F PUSH2 0xE17 PUSH2 0xE10 DUP8 PUSH2 0xFCC JUMP JUMPDEST DUP4 DUP6 PUSH2 0x1059 JUMP JUMPDEST SWAP9 SWAP1 SWAP12 PUSH2 0x1019 JUMP JUMPDEST SWAP10 SWAP1 SWAP6 PUSH2 0x10A9 JUMP JUMPDEST SWAP2 PUSH2 0x1059 JUMP JUMPDEST PUSH2 0x152B JUMP JUMPDEST PUSH1 0x40 MLOAD PUSH1 0x1 DUP2 MSTORE PUSH1 0x20 SWAP1 RETURN JUMPDEST PUSH2 0xE6B DUP4 PUSH2 0xCED PUSH0 MLOAD PUSH1 0x20 PUSH2 0x1581 PUSH0 CODECOPY PUSH0 MLOAD SWAP1 PUSH0 MSTORE SWAP6 DUP11 PUSH1 0x80 PUSH2 0xCE8 PUSH2 0xC13 DUP13 PUSH1 0x1 SWAP13 SWAP11 PUSH2 0xE79 SWAP11 PUSH2 0x1059 JUMP JUMPDEST DUP8 DUP2 ADD PUSH1 0x20 ADD DUP8 SWAP1 MSTORE PUSH2 0xFE8 JUMP JUMPDEST SWAP5 MULMOD SWAP3 SWAP2 ADD SWAP1 DUP8 SWAP1 PUSH2 0xB75 JUMP JUMPDEST SWAP1 DUP1 PUSH1 0x20 SWAP4 SWAP3 DUP2 DUP5 MSTORE DUP5 DUP5 ADD CALLDATACOPY PUSH0 DUP3 DUP3 ADD DUP5 ADD MSTORE PUSH1 0x1F ADD PUSH1 0x1F NOT AND ADD ADD SWAP1 JUMP JUMPDEST SWAP1 PUSH1 0x20 DUP4 DUP3 DUP2 MSTORE ADD SWAP1 PUSH1 0x20 DUP2 PUSH1 0x5 SHL DUP6 ADD ADD SWAP4 DUP4 PUSH0 SWAP2 JUMPDEST DUP4 DUP4 LT PUSH2 0xECD JUMPI POP POP POP POP POP POP SWAP1 JUMP JUMPDEST SWAP1 SWAP2 SWAP3 SWAP4 SWAP5 SWAP6 PUSH1 0x1F NOT DUP3 DUP3 SUB ADD DUP7 MSTORE DUP7 CALLDATALOAD PUSH1 0x1E NOT DUP5 CALLDATASIZE SUB ADD DUP2 SLT ISZERO PUSH2 0x129 JUMPI DUP4 ADD SWAP1 PUSH1 0x20 DUP3 CALLDATALOAD SWAP3 ADD SWAP2 PUSH1 0x1 PUSH1 0x1 PUSH1 0x40 SHL SUB DUP2 GT PUSH2 0x129 JUMPI DUP1 CALLDATASIZE SUB DUP4 SGT PUSH2 0x129 JUMPI PUSH2 0xF1D PUSH1 0x20 SWAP3 DUP4 SWAP3 PUSH1 0x1 SWAP6 PUSH2 0xE86 JUMP JUMPDEST SWAP9 ADD SWAP7 ADD SWAP5 SWAP4 ADD SWAP2 SWAP1 PUSH2 0xEBD JUMP JUMPDEST PUSH1 0x40 MLOAD SWAP1 PUSH2 0xF3A PUSH1 0xA0 DUP4 PUSH2 0x2BF JUMP JUMPDEST PUSH1 0x80 DUP3 MSTORE PUSH32 0xFCF5E095D5D00AF600DB18CB2C04B3EDD03CC744A2888AE40CAA232946C5E7E1 PUSH1 0x80 DUP4 PUSH16 0x17F1D3A73197D7942695638C4FA9AC0F PUSH1 0x20 DUP3 ADD MSTORE PUSH32 0xC3688C4F9774B905A14E3A3F171BAC586C55E83FF97A1AEFFB3AF00ADB22C6BB PUSH1 0x40 DUP3 ADD MSTORE PUSH16 0x8B3F481E3AAA0F1A09E30ED741D8AE4 PUSH1 0x60 DUP3 ADD MSTORE ADD MSTORE JUMP JUMPDEST PUSH4 0x4E487B71 PUSH1 0xE0 SHL PUSH0 MSTORE PUSH1 0x11 PUSH1 0x4 MSTORE PUSH1 0x24 PUSH0 REVERT JUMPDEST SWAP1 PUSH1 0x1 DUP3 ADD DUP1 SWAP3 GT PUSH2 0x2A6 JUMPI JUMP JUMPDEST SWAP1 PUSH1 0x80 DUP3 ADD DUP1 SWAP3 GT PUSH2 0x2A6 JUMPI JUMP JUMPDEST SWAP1 PUSH1 0x20 DUP3 ADD DUP1 SWAP3 GT PUSH2 0x2A6 JUMPI JUMP JUMPDEST SWAP1 PUSH2 0x100 DUP3 ADD DUP1 SWAP3 GT PUSH2 0x2A6 JUMPI JUMP JUMPDEST PUSH4 0x4E487B71 PUSH1 0xE0 SHL PUSH0 MSTORE PUSH1 0x32 PUSH1 0x4 MSTORE PUSH1 0x24 PUSH0 REVERT JUMPDEST SWAP1 PUSH1 0x1 LT ISZERO PUSH2 0x8B5 JUMPI PUSH1 0x20 DUP2 ADD CALLDATALOAD SWAP1 PUSH1 0x1E NOT DUP2 CALLDATASIZE SUB ADD DUP3 SLT ISZERO PUSH2 0x129 JUMPI ADD SWAP1 DUP2 CALLDATALOAD SWAP2 PUSH1 0x1 PUSH1 0x1 PUSH1 0x40 SHL SUB DUP4 GT PUSH2 0x129 JUMPI PUSH1 0x20 ADD DUP3 CALLDATASIZE SUB DUP2 SGT PUSH2 0x129 JUMPI SWAP2 SWAP1 JUMP JUMPDEST SWAP2 SWAP1 DUP2 LT ISZERO PUSH2 0x8B5 JUMPI PUSH1 0x5 SHL DUP2 ADD CALLDATALOAD SWAP1 PUSH1 0x1E NOT DUP2 CALLDATASIZE SUB ADD DUP3 SLT ISZERO PUSH2 0x129 JUMPI ADD SWAP1 DUP2 CALLDATALOAD SWAP2 PUSH1 0x1 PUSH1 0x1 PUSH1 0x40 SHL SUB DUP4 GT PUSH2 0x129 JUMPI PUSH1 0x20 ADD DUP3 CALLDATASIZE SUB DUP2 SGT PUSH2 0x129 JUMPI SWAP2 SWAP1 JUMP JUMPDEST PUSH1 0x2 NOT DUP2 ADD SWAP2 SWAP1 DUP3 GT PUSH2 0x2A6 JUMPI JUMP JUMPDEST PUSH0 NOT DUP2 ADD SWAP2 SWAP1 DUP3 GT PUSH2 0x2A6 JUMPI JUMP JUMPDEST PUSH1 0x1 NOT DUP2 ADD SWAP2 SWAP1 DUP3 GT PUSH2 0x2A6 JUMPI JUMP JUMPDEST RETURNDATASIZE ISZERO PUSH2 0x10F0 JUMPI RETURNDATASIZE SWAP1 PUSH2 0x10D7 DUP3 PUSH2 0x2E5 JUMP JUMPDEST SWAP2 PUSH2 0x10E5 PUSH1 0x40 MLOAD SWAP4 DUP5 PUSH2 0x2BF JUMP JUMPDEST DUP3 MSTORE RETURNDATASIZE PUSH0 PUSH1 0x20 DUP5 ADD RETURNDATACOPY JUMP JUMPDEST PUSH1 0x60 SWAP1 JUMP JUMPDEST PUSH0 DUP1 SWAP2 PUSH1 0x20 DUP2 MLOAD SWAP2 ADD PUSH1 0xE GAS STATICCALL POP PUSH2 0x351 PUSH2 0x10C6 JUMP JUMPDEST DUP1 MLOAD SWAP2 SWAP1 DUP3 SWAP1 PUSH1 0x20 ADD DUP3 MCOPY ADD PUSH0 DUP2 MSTORE SWAP1 JUMP JUMPDEST PUSH0 SWAP2 SWAP1 PUSH2 0x1D0 PUSH2 0x113C DUP5 SWAP4 PUSH1 0x40 MLOAD SWAP3 DUP4 SWAP2 PUSH2 0x46E PUSH1 0x20 DUP5 ADD DUP1 SWAP8 PUSH2 0x110B JUMP JUMPDEST MLOAD SWAP1 PUSH1 0xB GAS STATICCALL POP PUSH2 0x351 PUSH2 0x10C6 JUMP JUMPDEST PUSH1 0x40 MLOAD PUSH2 0x100 SWAP2 SWAP1 PUSH2 0x115D DUP4 DUP3 PUSH2 0x2BF JUMP JUMPDEST PUSH1 0xC8 DUP2 MSTORE SWAP2 PUSH1 0x1F NOT ADD CALLDATASIZE PUSH1 0x20 DUP5 ADD CALLDATACOPY JUMP JUMPDEST SWAP1 PUSH2 0x1178 DUP3 PUSH2 0x2E5 JUMP JUMPDEST PUSH2 0x1185 PUSH1 0x40 MLOAD SWAP2 DUP3 PUSH2 0x2BF JUMP JUMPDEST DUP3 DUP2 MSTORE DUP1 SWAP3 PUSH2 0x1196 PUSH1 0x1F NOT SWAP2 PUSH2 0x2E5 JUMP JUMPDEST ADD SWAP1 PUSH1 0x20 CALLDATASIZE SWAP2 ADD CALLDATACOPY JUMP JUMPDEST PUSH1 0x20 DUP2 MLOAD SWAP2 ADD MLOAD SWAP1 PUSH1 0x20 DUP2 LT PUSH2 0x11B4 JUMPI POP SWAP1 JUMP JUMPDEST PUSH0 NOT SWAP1 PUSH1 0x20 SUB PUSH1 0x3 SHL SHL AND SWAP1 JUMP JUMPDEST PUSH0 DUP1 SWAP2 PUSH1 0x20 DUP2 MLOAD SWAP2 ADD PUSH1 0xC GAS STATICCALL POP PUSH2 0x351 PUSH2 0x10C6 JUMP JUMPDEST SWAP1 PUSH2 0x1253 PUSH2 0x46E SWAP2 PUSH2 0x1D0 PUSH0 SWAP7 DUP8 DUP1 DUP1 SWAP9 PUSH1 0x40 MLOAD PUSH2 0x122D PUSH1 0x20 DUP3 PUSH2 0x11FF DUP3 DUP3 ADD DUP1 SWAP7 PUSH2 0x110B JUMP JUMPDEST PUSH32 0x73EDA753299D7D483339D80809A1D80553BDA402FFFE5BFEFFFFFFFF00000000 DUP2 MSTORE SUB DUP1 DUP5 MSTORE ADD DUP3 PUSH2 0x2BF JUMP JUMPDEST MLOAD SWAP1 PUSH1 0xC GAS STATICCALL POP PUSH2 0x46E PUSH2 0x123F PUSH2 0x10C6 JUMP JUMPDEST PUSH1 0x40 MLOAD SWAP7 DUP8 SWAP6 PUSH2 0x46E PUSH1 0x20 DUP9 ADD DUP1 SWAP12 PUSH2 0x110B JUMP JUMPDEST MLOAD SWAP1 PUSH1 0xF GAS STATICCALL POP PUSH1 0x1 PUSH2 0x1267 PUSH2 0x557 PUSH2 0x10C6 JUMP JUMPDEST EQ SWAP1 JUMP JUMPDEST PUSH0 SWAP3 PUSH2 0x1295 PUSH1 0x20 DUP1 DUP7 SWAP6 PUSH1 0x40 MLOAD SWAP5 DUP2 DUP7 SWAP3 DUP5 DUP5 ADD SWAP9 DUP10 CALLDATACOPY DUP3 ADD SWAP1 DUP4 DUP3 ADD MSTORE SUB ADD DUP1 DUP5 MSTORE ADD DUP3 PUSH2 0x2BF JUMP JUMPDEST MLOAD SWAP1 PUSH1 0xE GAS STATICCALL POP PUSH2 0x351 PUSH2 0x10C6 JUMP JUMPDEST SWAP1 DUP2 PUSH1 0x1 SHL SWAP2 DUP1 DUP4 DIV PUSH1 0x2 EQ SWAP1 ISZERO OR ISZERO PUSH2 0x2A6 JUMPI JUMP JUMPDEST SWAP1 PUSH1 0xA0 DUP3 MUL SWAP2 DUP1 DUP4 DIV PUSH1 0xA0 EQ SWAP1 ISZERO OR ISZERO PUSH2 0x2A6 JUMPI JUMP JUMPDEST SWAP1 PUSH2 0x120 DUP3 MUL SWAP2 DUP1 DUP4 DIV PUSH2 0x120 EQ SWAP1 ISZERO OR ISZERO PUSH2 0x2A6 JUMPI JUMP JUMPDEST PUSH1 0x1 DUP2 SWAP1 SHL SWAP2 SWAP1 PUSH1 0x1 PUSH1 0x1 PUSH1 0xFF SHL SUB DUP2 AND SUB PUSH2 0x2A6 JUMPI JUMP JUMPDEST ISZERO PUSH2 0x129 JUMPI JUMP JUMPDEST SWAP5 SWAP4 SWAP3 PUSH0 SWAP4 PUSH2 0x1324 PUSH2 0x1332 SWAP4 PUSH1 0x40 SWAP6 PUSH1 0x60 DUP11 MSTORE PUSH1 0x60 DUP11 ADD SWAP2 PUSH2 0xEA6 JUMP JUMPDEST SWAP2 DUP8 DUP4 SUB PUSH1 0x20 DUP10 ADD MSTORE PUSH2 0xEA6 JUMP JUMPDEST SWAP4 ADD MSTORE JUMP JUMPDEST SWAP5 SWAP4 SWAP3 PUSH1 0x1 SWAP4 PUSH2 0x1324 PUSH2 0x1332 SWAP4 PUSH1 0x40 SWAP6 PUSH1 0x60 DUP11 MSTORE PUSH1 0x60 DUP11 ADD SWAP2 PUSH2 0xEA6 JUMP JUMPDEST PUSH0 NOT DUP2 EQ PUSH2 0x2A6 JUMPI PUSH1 0x1 ADD SWAP1 JUMP JUMPDEST ISZERO PUSH2 0x136A JUMPI JUMP JUMPDEST PUSH1 0x40 MLOAD PUSH3 0x461BCD PUSH1 0xE5 SHL DUP2 MSTORE PUSH1 0x20 PUSH1 0x4 DUP3 ADD MSTORE PUSH1 0xA PUSH1 0x24 DUP3 ADD MSTORE PUSH10 0x3130B2102398903632B7 PUSH1 0xB1 SHL PUSH1 0x44 DUP3 ADD MSTORE PUSH1 0x64 SWAP1 REVERT JUMPDEST SWAP1 DUP3 LT ISZERO PUSH2 0x8B5 JUMPI ADD SWAP1 JUMP JUMPDEST SWAP1 DUP2 MLOAD DUP2 LT ISZERO PUSH2 0x8B5 JUMPI ADD PUSH1 0x20 ADD SWAP1 JUMP JUMPDEST PUSH1 0x40 MLOAD SWAP1 PUSH2 0x13C9 PUSH2 0x120 DUP4 PUSH2 0x2BF JUMP JUMPDEST PUSH2 0x100 DUP3 MSTORE PUSH32 0xCB3E287E85A763AF267492AB572E99AB3F370D275CEC1DA1AAA9075FF05F79BE PUSH2 0x100 DUP4 PUSH16 0x24AA2B2F08F0A91260805272DC51051 PUSH1 0x20 DUP3 ADD MSTORE PUSH32 0xC6E47AD4FA403B02B4510B647AE3D1770BAC0326A805BBEFD48056C8C121BDB8 PUSH1 0x40 DUP3 ADD MSTORE PUSH16 0x13E02B6052719F607DACD3A088274F65 PUSH1 0x60 DUP3 ADD MSTORE PUSH32 0x596BD0D09920B61AB5DA61BBDC7F5049334CF11213945D57E5AC7D055D042B7E PUSH1 0x80 DUP3 ADD MSTORE PUSH16 0xCE5D527727D6E118CC9CDC6DA2E351A PUSH1 0xA0 DUP3 ADD MSTORE PUSH32 0xADFD9BAA8CBDD3A76D429A695160D12C923AC9CC3BACA289E193548608B82801 PUSH1 0xC0 DUP3 ADD MSTORE PUSH16 0x606C4A02EA734CC32ACD2B02BC28B99 PUSH1 0xE0 DUP3 ADD MSTORE ADD MSTORE JUMP JUMPDEST PUSH0 SWAP2 SWAP1 PUSH2 0x1D0 PUSH2 0x14E0 DUP5 SWAP4 PUSH1 0x40 MLOAD SWAP3 DUP4 SWAP2 PUSH2 0x46E PUSH1 0x20 DUP5 ADD DUP1 SWAP8 PUSH2 0x110B JUMP JUMPDEST MLOAD SWAP1 PUSH1 0xD GAS STATICCALL POP PUSH2 0x351 PUSH2 0x10C6 JUMP JUMPDEST ISZERO PUSH2 0x14F6 JUMPI JUMP JUMPDEST PUSH1 0x40 MLOAD PUSH3 0x461BCD PUSH1 0xE5 SHL DUP2 MSTORE PUSH1 0x20 PUSH1 0x4 DUP3 ADD MSTORE PUSH1 0xD PUSH1 0x24 DUP3 ADD MSTORE PUSH13 0x10DA1958DACC8811985A5B1959 PUSH1 0x9A SHL PUSH1 0x44 DUP3 ADD MSTORE PUSH1 0x64 SWAP1 REVERT JUMPDEST ISZERO PUSH2 0x1532 JUMPI JUMP JUMPDEST PUSH1 0x40 MLOAD PUSH3 0x461BCD PUSH1 0xE5 SHL DUP2 MSTORE PUSH1 0x20 PUSH1 0x4 DUP3 ADD MSTORE PUSH1 0xD PUSH1 0x24 DUP3 ADD MSTORE PUSH13 0x10DA1958DACCC811985A5B1959 PUSH1 0x9A SHL PUSH1 0x44 DUP3 ADD MSTORE PUSH1 0x64 SWAP1 REVERT JUMPDEST SWAP1 PUSH1 0x80 SWAP3 PUSH1 0x20 SWAP2 ADD ADD CALLDATACOPY JUMP JUMPDEST SWAP1 PUSH2 0x100 SWAP3 PUSH1 0x20 SWAP2 ADD ADD CALLDATACOPY JUMP INVALID PUSH20 0xEDA753299D7D483339D80809A1D80553BDA402FF INVALID JUMPDEST INVALID SELFDESTRUCT SELFDESTRUCT SELFDESTRUCT SELFDESTRUCT STOP STOP STOP ADD LOG2 PUSH5 0x6970667358 0x22 SLT KECCAK256 ADD CALLDATASIZE 0x2A 0xC6 0xDB DUP11 0xCC 0x1F PUSH25 0xDF57BF8E49C9CC8DBE41FC5CD1F562A5F9D667F22FBA36473 PUSH16 0x6C634300081F00330000000000000000 "
		},
		"gasEstimates": {
			"creation": {
				"codeDepositCost": "1118000",
				"executionCost": "25382",
				"totalCost": "1143382"
			},
			"external": {
				"Check2(bytes[],bytes[])": "infinite",
				"Check3(bytes[],bytes[])": "infinite",
				"EqualPairingCheck(bytes,bytes,bytes,bytes)": "infinite",
				"G1Add(bytes,bytes)": "infinite",
				"G1Mul(bytes,uint256)": "infinite",
				"G1Muls(bytes)": "infinite",
				"G2Add(bytes,bytes)": "infinite",
				"G2Mul(bytes,uint256)": "infinite",
				"G2Muls(bytes)": "infinite",
				"Pairing(bytes,bytes,bytes,bytes)": "infinite",
				"testt()": "infinite",
				"w()": "2293",
				"why1(bytes[],bytes[])": "infinite",
				"why2(bytes[],bytes[])": "infinite"
			},
			"internal": {
				"_cdCopy(bytes calldata,uint256,bytes memory,uint256,uint256)": "infinite",
				"_mstoreScalar(bytes memory,uint256,uint256)": "infinite"
			}
		},
		"methodIdentifiers": {
			"Check2(bytes[],bytes[])": "e1f66c1b",
			"Check3(bytes[],bytes[])": "cac924e7",
			"EqualPairingCheck(bytes,bytes,bytes,bytes)": "6f18b669",
			"G1Add(bytes,bytes)": "4d919405",
			"G1Mul(bytes,uint256)": "c1f2c915",
			"G1Muls(bytes)": "6592041a",
			"G2Add(bytes,bytes)": "d6385d60",
			"G2Mul(bytes,uint256)": "af1d0bd9",
			"G2Muls(bytes)": "3f009c16",
			"Pairing(bytes,bytes,bytes,bytes)": "5cdc73ef",
			"testt()": "578a34ce",
			"w()": "205c9cc7",
			"why1(bytes[],bytes[])": "3d4e635f",
			"why2(bytes[],bytes[])": "01f96f4a"
		}
	},
	"abi": [
		{
			"inputs": [
				{
					"internalType": "bytes[]",
					"name": "g1s",
					"type": "bytes[]"
				},
				{
					"internalType": "bytes[]",
					"name": "g2s",
					"type": "bytes[]"
				}
			],
			"name": "Check2",
			"outputs": [
				{
					"internalType": "bool",
					"name": "",
					"type": "bool"
				}
			],
			"stateMutability": "nonpayable",
			"type": "function"
		},
		{
			"inputs": [
				{
					"internalType": "bytes[]",
					"name": "g1s",
					"type": "bytes[]"
				},
				{
					"internalType": "bytes[]",
					"name": "g2s",
					"type": "bytes[]"
				}
			],
			"name": "Check3",
			"outputs": [
				{
					"internalType": "bool",
					"name": "",
					"type": "bool"
				}
			],
			"stateMutability": "nonpayable",
			"type": "function"
		},
		{
			"inputs": [
				{
					"internalType": "bytes",
					"name": "p1",
					"type": "bytes"
				},
				{
					"internalType": "bytes",
					"name": "p2",
					"type": "bytes"
				},
				{
					"internalType": "bytes",
					"name": "p3",
					"type": "bytes"
				},
				{
					"internalType": "bytes",
					"name": "p4",
					"type": "bytes"
				}
			],
			"name": "EqualPairingCheck",
			"outputs": [
				{
					"internalType": "bool",
					"name": "",
					"type": "bool"
				}
			],
			"stateMutability": "view",
			"type": "function"
		},
		{
			"inputs": [
				{
					"internalType": "bytes",
					"name": "p1",
					"type": "bytes"
				},
				{
					"internalType": "bytes",
					"name": "p2",
					"type": "bytes"
				}
			],
			"name": "G1Add",
			"outputs": [
				{
					"internalType": "bytes",
					"name": "point",
					"type": "bytes"
				}
			],
			"stateMutability": "view",
			"type": "function"
		},
		{
			"inputs": [
				{
					"internalType": "bytes",
					"name": "p1",
					"type": "bytes"
				},
				{
					"internalType": "uint256",
					"name": "scalar",
					"type": "uint256"
				}
			],
			"name": "G1Mul",
			"outputs": [
				{
					"internalType": "bytes",
					"name": "point",
					"type": "bytes"
				}
			],
			"stateMutability": "view",
			"type": "function"
		},
		{
			"inputs": [
				{
					"internalType": "bytes",
					"name": "d",
					"type": "bytes"
				}
			],
			"name": "G1Muls",
			"outputs": [
				{
					"internalType": "bytes",
					"name": "point",
					"type": "bytes"
				}
			],
			"stateMutability": "view",
			"type": "function"
		},
		{
			"inputs": [
				{
					"internalType": "bytes",
					"name": "p1",
					"type": "bytes"
				},
				{
					"internalType": "bytes",
					"name": "p2",
					"type": "bytes"
				}
			],
			"name": "G2Add",
			"outputs": [
				{
					"internalType": "bytes",
					"name": "point",
					"type": "bytes"
				}
			],
			"stateMutability": "view",
			"type": "function"
		},
		{
			"inputs": [
				{
					"internalType": "bytes",
					"name": "p1",
					"type": "bytes"
				},
				{
					"internalType": "uint256",
					"name": "scalar",
					"type": "uint256"
				}
			],
			"name": "G2Mul",
			"outputs": [
				{
					"internalType": "bytes",
					"name": "point",
					"type": "bytes"
				}
			],
			"stateMutability": "view",
			"type": "function"
		},
		{
			"inputs": [
				{
					"internalType": "bytes",
					"name": "d",
					"type": "bytes"
				}
			],
			"name": "G2Muls",
			"outputs": [
				{
					"internalType": "bytes",
					"name": "point",
					"type": "bytes"
				}
			],
			"stateMutability": "view",
			"type": "function"
		},
		{
			"inputs": [
				{
					"internalType": "bytes",
					"name": "p1",
					"type": "bytes"
				},
				{
					"internalType": "bytes",
					"name": "p2",
					"type": "bytes"
				},
				{
					"internalType": "bytes",
					"name": "p3",
					"type": "bytes"
				},
				{
					"internalType": "bytes",
					"name": "p4",
					"type": "bytes"
				}
			],
			"name": "Pairing",
			"outputs": [
				{
					"internalType": "bool",
					"name": "",
					"type": "bool"
				}
			],
			"stateMutability": "view",
			"type": "function"
		},
		{
			"inputs": [],
			"name": "testt",
			"outputs": [],
			"stateMutability": "view",
			"type": "function"
		},
		{
			"inputs": [],
			"name": "w",
			"outputs": [
				{
					"internalType": "bool",
					"name": "",
					"type": "bool"
				}
			],
			"stateMutability": "view",
			"type": "function"
		},
		{
			"inputs": [
				{
					"internalType": "bytes[]",
					"name": "g1s",
					"type": "bytes[]"
				},
				{
					"internalType": "bytes[]",
					"name": "g2s",
					"type": "bytes[]"
				}
			],
			"name": "why1",
			"outputs": [],
			"stateMutability": "nonpayable",
			"type": "function"
		},
		{
			"inputs": [
				{
					"internalType": "bytes[]",
					"name": "g1s",
					"type": "bytes[]"
				},
				{
					"internalType": "bytes[]",
					"name": "g2s",
					"type": "bytes[]"
				}
			],
			"name": "why2",
			"outputs": [],
			"stateMutability": "nonpayable",
			"type": "function"
		}
	]
}