{
	"data": {
		"bytecode": {
			"linkReferences": {},
			"object": "6080346101985760a081016001600160401b0381118282101761018457604052608081526f17f1d3a73197d7942695638c4fa9ac0f60208201527fc3688c4f9774b905a14e3a3f171bac586c55e83ff97a1aeffb3af00adb22c6bb60408201526f08b3f481e3aaa0f1a09e30ed741d8ae460608201527ffcf5e095d5d00af600db18cb2c04b3edd03cc744a2888ae40caa232946c5e7e160808201525f54600190600181811c9116801561017a575b602082101461016657601f8111610115575b50505f80805260205f51602061210a5f395f51905f525b608083106100fd576101015f5560ff1960015416600155604051611f6d908161019d8239f35b602060018192848701518155019201920191906100d7565b5f8052601f0160051c5f51602061210a5f395f51905f52017f290decd9548b62a8d60345a988386fc84ba6bc95484008f6362f93160ef3e5675b81811061015c57506100c0565b5f8155820161014f565b634e487b7160e01b5f52602260045260245ffd5b90607f16906100ae565b634e487b7160e01b5f52604160045260245ffd5b5f80fdfe60806040526004361015610011575f80fd5b5f3560e01c8063205c9cc7146101245780633f009c161461011f5780634d9194051461011a57806351e543081461011557806354b57f70146101105780635cdc73ef1461010b5780636592041a146101065780636f18b669146101015780638a2ba01c146100fc578063a66339b7146100f7578063af1d0bd9146100f2578063c1f2c915146100ed578063c588e555146100e8578063d6385d60146100e3578063e63c1828146100de578063e6859b9a146100d95763e86d06c7146100d4575f80fd5b610b99565b610b49565b610a80565b610a66565b6109d3565b610994565b610926565b6108d6565b6108ba565b610894565b61087b565b61081c565b610744565b610331565b6102ba565b610247565b34610146575f36600319011261014657602060ff600154166040519015158152f35b5f80fd5b634e487b7160e01b5f52604160045260245ffd5b90601f801991011681019081106001600160401b0382111761017f57604052565b61014a565b6001600160401b03811161017f57601f01601f191660200190565b9291926101ab82610184565b916101b9604051938461015e565b829481845281830111610146578281602093845f960137010152565b9080601f83011215610146578160206101f09335910161019f565b90565b602060031982011261014657600435906001600160401b038211610146576101f0916004016101d5565b602060409281835280519182918282860152018484015e5f828201840152601f01601f1916010190565b346101465761026c61026061025b366101f3565b611033565b6040519182918261021d565b0390f35b906040600319830112610146576004356001600160401b038111610146578261029b916004016101d5565b91602435906001600160401b038211610146576101f0916004016101d5565b346101465761026c6102606102ce36610270565b9061105b565b9181601f84011215610146578235916001600160401b038311610146576020838186019501011161014657565b9181601f84011215610146578235916001600160401b038311610146576020808501948460051b01011161014657565b34610146576060366003190112610146576004356001600160401b038111610146576103619036906004016102d4565b6024356001600160401b0381116101465761038183913690600401610301565b9091604435926103c760405160208101906103b1816103a388878c8a8861112e565b03601f19810183528261015e565b5190205f516020611f185f395f51905f52900690565b926103e16103dc6103d783611169565b6111a2565b611211565b956103f16103dc6103d784611169565b958591865f968a5f985b61040488611169565b8a1161049957908a918a898b61041a8a83611195565b8314610479576104588461045361047098968861044d610468985f516020611f185f395f51905f529b98610463986112cb565b50611e87565b61130c565b9182016020018b9052565b61131b565b970998611243565b97948b906103fb565b505050965f516020611f185f395f51905f52915091610470920998611243565b5094509089899394875f945f955b6104b083611169565b8711610542578790876104c38686611195565b81146105265791610517610509836104535f516020611f185f395f51905f52958b610503896104fd6104f761051f9c61059d565b506106a6565b5061059d565b50611ea0565b8881016020018a905261131b565b970996611243565b95946104a7565b509561051f915f516020611f185f395f51905f52910996611243565b5061057861057d91898661057261056161055b8f611033565b92611033565b9361056a611345565b93369161019f565b91611446565b6113d2565b60405160018152602090f35b634e487b7160e01b5f52603260045260245ffd5b6003548110156105b55760035f5260205f2001905f90565b610589565b90600182811c921680156105e8575b60208310146105d457565b634e487b7160e01b5f52602260045260245ffd5b91607f16916105c9565b604051905f825f5491610604836105ba565b8083529260018116908115610687575060011461062a575b6106289250038361015e565b565b505f80805290917f290decd9548b62a8d60345a988386fc84ba6bc95484008f6362f93160ef3e5635b81831061066b5750509060206106289282010161061c565b6020919350806001915483858901015201910190918492610653565b6020925061062894915060ff191682840152151560051b82010161061c565b9060405191825f8254926106b9846105ba565b808452936001811690811561072257506001146106de575b506106289250038361015e565b90505f9291925260205f20905f915b818310610706575050906020610628928201015f6106d1565b60209193508060019154838589010152019101909184926106ed565b90506020925061062894915060ff191682840152151560051b8201015f6106d1565b34610146576020366003190112610146576004356002548110156101465761026061026c9160025f527f405787fa12a823e0f2b7631cc41b3ba8828b3321ca811111fa75cd3aa3bb5ace016106a6565b906080600319830112610146576004356001600160401b03811161014657826107bf916004016101d5565b916024356001600160401b03811161014657816107de916004016101d5565b916044356001600160401b03811161014657826107fd916004016101d5565b91606435906001600160401b038211610146576101f0916004016101d5565b34610146575f806108516108516108576103a361083836610794565b919392969060405196879561085160208801809b611049565b90611049565b5190600f5afa506020600161087261086d611004565b61140e565b14604051908152f35b346101465761026c61026061088f366101f3565b611430565b346101465760206108b06108a736610794565b92919091611446565b6040519015158152f35b34610146575f3660031901126101465761026c6102605f6106a6565b34610146576020366003190112610146576004356001600160401b038111610146576108b061090b60209236906004016102d4565b50606081013590604081013590602081013590351717171590565b34610146576040366003190112610146576004356001600160401b038111610146575f610958819236906004016102d4565b6109826020806024359360405194818692848401988937820190838201520301808452018261015e565b5190600e5afa5061026c610260611004565b34610146576040366003190112610146576004356001600160401b038111610146576102606109ca61026c9236906004016101d5565b602435906114d9565b34610146576080366003190112610146576004356001600160401b03811161014657610a03903690600401610301565b6024356001600160401b03811161014657610a22903690600401610301565b919092604435926001600160401b0384116101465761026c94610a4c610a549536906004016102d4565b94909361197d565b60405190151581529081906020820190565b346101465761026c610260610a7a36610270565b90611d7b565b34610146576040366003190112610146576004356001600160401b03811161014657610ab0903690600401610301565b906024356001600160401b03811161014657610ad0903690600401610301565b5f1984018481119392905f855b610b4457818111610b0b5780610b00610afa610b05938a896112cb565b90611da9565b611243565b85610add565b50505f19820182811191905f835b610b4457818111610b425780610b00610b36610b3c9388876112cb565b90611dfa565b83610b19565b005b611155565b34610146576020366003190112610146576004356003548110156101465761026061026c9160035f527fc2575a0e9e593c00f959f8c92f12db2869c3395a3b0502d05e2516446f71f85b016106a6565b34610146576060366003190112610146576004356001600160401b03811161014657610bc9903690600401610301565b6024356001600160401b03811161014657610be8903690600401610301565b9290916044356001600160401b03811161014657610c0d9094919436906004016102d4565b94610c2183610c1b836111b5565b14611512565b610c3d60405160208101906103b1816103a3888b888c88611519565b93610c5a60405160208101906103b1816103a3898c898988611549565b96600193610c6a6103dc856111cb565b98610c7f6103dc610c7a89611177565b6111e1565b98610c946103dc610c8f88611169565b6111cb565b99610ca46103dc610c7a8b611186565b5f99908a5b610cb28a611169565b8c11610d26575f516020611f185f395f51905f528f610d178f918f8f8f8f97610d098186610d0387868e610d1f9f6080610cf66104639d610d0e9c610cfe946112cb565b905014611567565b6112cb565b50611e94565b611329565b92830160200152565b9c099b611243565b9a99610ca9565b5095888c8f988f610d378c9b611430565b905f9b8a965f9d8e5b610d54610d4f610d4f8b6111f9565b611169565b10610ddd578a8f918e928c8f610d698d611169565b83148015610dd4575b610db4578d610d0e85610453610dac99978961044d610da4995f516020611f185f395f51905f529c99610463996112cb565b9a099e611243565b9d978e610d40565b505050995f516020611f185f395f51905f52915091610dac92099e611243565b508c8314610d72565b508893918c88928f8e610e008f610df390611033565b610dfb6115a0565b611d7b565b995f998c988b5b610e13610d4f8b611169565b8d11610e5a575f516020611f185f395f51905f528f610e4b8f8f908f8f8f97610d098186610d0361046397610d0e96610e539e6112cb565b9c099c611243565b9b99610e07565b509388888e610e78610e6b8f611430565b610e73611345565b61105b565b905f986001955f9a5b610e8d610d4f886111f9565b8c11610f1557898e918d8b8e8b83148015610f04575b610ee4578c610d0e85610453610edd99978961044d610ed5995f516020611f185f395f51905f529c99610463996112cb565b99099b611243565b9a96610e81565b505050985f516020611f185f395f51905f52915091610edd92099b611243565b50610f0e8c611337565b8314610ea3565b508496508561056a81610fd18f61057d9e610f92610ffe9f859f9b9c610fd99d610fde9f9c610fc19c610f88849f610f7d9e610fc79a610f74610f7d610f6a610f8395610f64610f8d9d611033565b9b611251565b929061056a6115a0565b9361056a6105f2565b92611446565b611e4b565b611446565b6116a8565b610f9a611345565b99610fb9610fb1610faa87611337565b83856112cb565b98909b61128b565b999095611169565b916112cb565b979094369161019f565b94369161019f565b6116e6565b610ff96001610ff061090b8585611251565b15151415611724565b611251565b906117af565b3d1561102e573d9061101582610184565b91611023604051938461015e565b82523d5f602084013e565b606090565b5f8091602081519101600e5afa506101f0611004565b805191908290602001825e015f815290565b5f91906103a361107a8493604051928391610851602084018097611049565b5190600b5afa506101f0611004565b908060209392818452848401375f828201840152601f01601f1916010190565b90602083828152019060208160051b85010193835f915b8383106110d05750505050505090565b909192939495601f198282030186528635601e198436030181121561014657830190602082359201916001600160401b038111610146578036038313610146576111206020928392600195611089565b9801960194930191906110c0565b9290611147906101f09593604086526040860191611089565b9260208185039101526110a9565b634e487b7160e01b5f52601160045260245ffd5b5f19810191908211610b4457565b600219810191908211610b4457565b600119810191908211610b4457565b91908203918211610b4457565b90816101200291610120830403610b4457565b908160011b9180830460021490151715610b4457565b9060a082029180830460a01490151715610b4457565b906101208202918083046101201490151715610b4457565b600181901b91906001600160ff1b03811603610b4457565b9061121b82610184565b611228604051918261015e565b8281528092611239601f1991610184565b0190602036910137565b5f198114610b445760010190565b90156105b557803590601e19813603018212156101465701908135916001600160401b038311610146576020018236038113610146579190565b90600110156105b557602081013590601e19813603018212156101465701908135916001600160401b038311610146576020018236038113610146579190565b91908110156105b55760051b81013590601e19813603018212156101465701908135916001600160401b038311610146576020018236038113610146579190565b906101008201809211610b4457565b9060208201809211610b4457565b9060808201809211610b4457565b9060018201809211610b4457565b6040519061135460a08361015e565b608082527ffcf5e095d5d00af600db18cb2c04b3edd03cc744a2888ae40caa232946c5e7e16080836f17f1d3a73197d7942695638c4fa9ac0f60208201527fc3688c4f9774b905a14e3a3f171bac586c55e83ff97a1aeffb3af00adb22c6bb60408201526f08b3f481e3aaa0f1a09e30ed741d8ae460608201520152565b156113d957565b60405162461bcd60e51b815260206004820152600d60248201526c10da1958dad2d95e4811985a5b609a1b6044820152606490fd5b602081519101519060208110611422575090565b5f199060200360031b1b1690565b5f8091602081519101600c5afa506101f0611004565b906114c1610851916103a35f968780809860405161149b60208261146d8282018096611049565b7f73eda753299d7d483339d80809a1d80553bda402fffe5bfeffffffff00000000815203808452018261015e565b5190600c5afa506108516114ad611004565b60405196879561085160208801809b611049565b5190600f5afa5060016114d561086d611004565b1490565b5f91908291611503602060405180936114f58383018097611049565b90815203808452018261015e565b5190600c5afa506101f0611004565b1561014657565b9493925f936115366115449360409560608a5260608a01916110a9565b9187830360208901526110a9565b930152565b9493926001936115366115449360409560608a5260608a01916110a9565b1561156e57565b60405162461bcd60e51b815260206004820152600a6024820152693130b2102398903632b760b11b6044820152606490fd5b604051906115b06101208361015e565b61010082527fcb3e287e85a763af267492ab572e99ab3f370d275cec1da1aaa9075ff05f79be610100836f024aa2b2f08f0a91260805272dc5105160208201527fc6e47ad4fa403b02b4510b647ae3d1770bac0326a805bbefd48056c8c121bdb860408201526f13e02b6052719f607dacd3a088274f6560608201527f596bd0d09920b61ab5da61bbdc7f5049334cf11213945d57e5ac7d055d042b7e60808201526f0ce5d527727d6e118cc9cdc6da2e351a60a08201527fadfd9baa8cbdd3a76d429a695160d12c923ac9cc3baca289e193548608b8280160c08201526f0606c4a02ea734cc32acd2b02bc28b9960e08201520152565b156116af57565b60405162461bcd60e51b815260206004820152600f60248201526e10da1958dacc8b4c4811985a5b1959608a1b6044820152606490fd5b156116ed57565b60405162461bcd60e51b815260206004820152600f60248201526e10da1958dacc8b4c8811985a5b1959608a1b6044820152606490fd5b1561172b57565b60405162461bcd60e51b815260206004820152600d60248201526c10da1958daccc811985a5b1959609a1b6044820152606490fd5b601f821161176d57505050565b5f5260205f20906020601f840160051c830193106117a5575b601f0160051c01905b81811061179a575050565b5f815560010161178f565b9091508190611786565b91906001600160401b03811161017f576117d3816117cd5f546105ba565b5f611760565b5f601f821160011461181057819061180193945f92611805575b50508160011b915f199060031b1c19161790565b5f55565b013590505f806117ed565b5f8052601f198216937f290decd9548b62a8d60345a988386fc84ba6bc95484008f6362f93160ef3e563915f5b868110611873575083600195961061185a575b505050811b015f55565b01355f19600384901b60f8161c191690555f8080611850565b9092602060018192868601358155019401910161183d565b9092916001600160401b03811161017f576118b0816118aa84546105ba565b84611760565b5f601f82116001146118e25781906118de9394955f926118055750508160011b915f199060031b1c19161790565b9055565b601f198216946118f5845f5260205f2090565b915f5b87811061192f575083600195969710611916575b505050811b019055565b01355f19600384901b60f8161c191690555f808061190c565b909260206001819286860135815501940191016118f8565b9290611147906101f095936040865260408601916110a9565b9081518110156105b5570160200190565b908210156105b5570190565b95919594929461199086610c1b846111b5565b6119ac60405160208101906103b1816103a38b8d898988611519565b946119c9886040516103b1816103a38c60208301958a8a88611549565b906001946119d96103dc866111cb565b996119e96103dc610c7a8c611177565b6119f86103dc610c8f89611169565b9a611a086103dc610c7a83611186565b945f9a5f9b5b611a178b611169565b8d11611a6b578f8e611a5c8f928f8f908f87610d09611a649986610d038b8887610cfe5f516020611f185f395f51905f529f610cf66080916104639e610d0e9d6112cb565b9d099c611243565b9b9a611a0e565b50939a5093969a949b91985096949b611a8390611430565b5f9a8d978c5b8d611a99610d4f610d4f8c6111f9565b10611b22578f908c908f8f8e90611aaf8e611169565b83148015611b19575b611af9578e610d0e85610453611af299978961044d611aea995f516020611f185f395f51905f529c99610463996112cb565b9b099d611243565b9c98611a89565b5050509a5f516020611f185f395f51905f52915091611af292099d611243565b508d8314611ab8565b509698959d949c929a9399611b3e929c50610df3919850611033565b935f9a8d995f9c5b8d611b53610d4f8d611169565b10611b9a578f5f516020611f185f395f51905f52908f8f8f8f908f87610d09611b939986610d03611b8b9961046398610d0e976112cb565b9d099d611243565b9c9a611b46565b50949b5099610e6b9197969d50611bb69298959c939950611430565b5f98600195918a5b611bca610d4f886111f9565b8c11611c4a57898d918d8b8e8b83148015611c39575b611c19578c610d0e85610453611c1299978961044d610ed5995f516020611f185f395f51905f529c99610463996112cb565b9a96611bbe565b505050985f516020611f185f395f51905f52915091611c1292099b611243565b50611c438c611337565b8314611be0565b50611cf499939b50611cff9a50611ce8965096611c7e610f8d6103b193611ce2979f9a611cef9b610f7d6103a3989e611033565b611cb0610fd9858b610fc1610f7d8b61056a81610fd1610fc7611c9f611345565b988c610fb9610fb1610faa87611337565b611cc26001610ff061090b898d611251565b611ccf610ffe878b611251565b6040519283916020830195888c88611947565b93611251565b369161019f565b6114d9565b6102ce36858561019f565b915f5b60808110611d135750505050600190565b611d2e611d208286611960565b516001600160f81b03191690565b611d5a611d4d611d3f848688611971565b356001600160f81b03191690565b6001600160f81b03191690565b6001600160f81b031990911603611d7357600101611d02565b505050505f90565b5f91906103a3611d9a8493604051928391610851602084018097611049565b5190600d5afa506101f0611004565b9060025491600160401b83101561017f57600183016002556002548310156105b55760025f52610628927f405787fa12a823e0f2b7631cc41b3ba8828b3321ca811111fa75cd3aa3bb5ace0161188b565b9060035491600160401b83101561017f57600183016003556003548310156105b55760035f52610628927fc2575a0e9e593c00f959f8c92f12db2869c3395a3b0502d05e2516446f71f85b0161188b565b15611e5257565b60405162461bcd60e51b815260206004820152600d60248201526c10da1958dacc4811985a5b1959609a1b6044820152606490fd5b9061010092602091010137565b90608092602091010137565b9190918054600181161561014657610100905f190160011c0361014657610100916007915f5260205f2093019280546020850152600181015460408501526002810154606085015260038101546080850152600481015460a0850152600581015460c0850152600681015460e0850152015491015256fe73eda753299d7d483339d80809a1d80553bda402fffe5bfeffffffff00000001a26469706673582212209926b000bd8b9968a6af67277c67482a92b034b9e6577e387e73f8dea357863e64736f6c634300081f0033290decd9548b62a8d60345a988386fc84ba6bc95484008f6362f93160ef3e563",
			"opcodes": "PUSH1 0x80 CALLVALUE PUSH2 0x198 JUMPI PUSH1 0xA0 DUP2 ADD PUSH1 0x1 PUSH1 0x1 PUSH1 0x40 SHL SUB DUP2 GT DUP3 DUP3 LT OR PUSH2 0x184 JUMPI PUSH1 0x40 MSTORE PUSH1 0x80 DUP2 MSTORE PUSH16 0x17F1D3A73197D7942695638C4FA9AC0F PUSH1 0x20 DUP3 ADD MSTORE PUSH32 0xC3688C4F9774B905A14E3A3F171BAC586C55E83FF97A1AEFFB3AF00ADB22C6BB PUSH1 0x40 DUP3 ADD MSTORE PUSH16 0x8B3F481E3AAA0F1A09E30ED741D8AE4 PUSH1 0x60 DUP3 ADD MSTORE PUSH32 0xFCF5E095D5D00AF600DB18CB2C04B3EDD03CC744A2888AE40CAA232946C5E7E1 PUSH1 0x80 DUP3 ADD MSTORE PUSH0 SLOAD PUSH1 0x1 SWAP1 PUSH1 0x1 DUP2 DUP2 SHR SWAP2 AND DUP1 ISZERO PUSH2 0x17A JUMPI JUMPDEST PUSH1 0x20 DUP3 LT EQ PUSH2 0x166 JUMPI PUSH1 0x1F DUP2 GT PUSH2 0x115 JUMPI JUMPDEST POP POP PUSH0 DUP1 DUP1 MSTORE PUSH1 0x20 PUSH0 MLOAD PUSH1 0x20 PUSH2 0x210A PUSH0 CODECOPY PUSH0 MLOAD SWAP1 PUSH0 MSTORE JUMPDEST PUSH1 0x80 DUP4 LT PUSH2 0xFD JUMPI PUSH2 0x101 PUSH0 SSTORE PUSH1 0xFF NOT PUSH1 0x1 SLOAD AND PUSH1 0x1 SSTORE PUSH1 0x40 MLOAD PUSH2 0x1F6D SWAP1 DUP2 PUSH2 0x19D DUP3 CODECOPY RETURN JUMPDEST PUSH1 0x20 PUSH1 0x1 DUP2 SWAP3 DUP5 DUP8 ADD MLOAD DUP2 SSTORE ADD SWAP3 ADD SWAP3 ADD SWAP2 SWAP1 PUSH2 0xD7 JUMP JUMPDEST PUSH0 DUP1 MSTORE PUSH1 0x1F ADD PUSH1 0x5 SHR PUSH0 MLOAD PUSH1 0x20 PUSH2 0x210A PUSH0 CODECOPY PUSH0 MLOAD SWAP1 PUSH0 MSTORE ADD PUSH32 0x290DECD9548B62A8D60345A988386FC84BA6BC95484008F6362F93160EF3E567 JUMPDEST DUP2 DUP2 LT PUSH2 0x15C JUMPI POP PUSH2 0xC0 JUMP JUMPDEST PUSH0 DUP2 SSTORE DUP3 ADD PUSH2 0x14F JUMP JUMPDEST PUSH4 0x4E487B71 PUSH1 0xE0 SHL PUSH0 MSTORE PUSH1 0x22 PUSH1 0x4 MSTORE PUSH1 0x24 PUSH0 REVERT JUMPDEST SWAP1 PUSH1 0x7F AND SWAP1 PUSH2 0xAE JUMP JUMPDEST PUSH4 0x4E487B71 PUSH1 0xE0 SHL PUSH0 MSTORE PUSH1 0x41 PUSH1 0x4 MSTORE PUSH1 0x24 PUSH0 REVERT JUMPDEST PUSH0 DUP1 REVERT INVALID PUSH1 0x80 PUSH1 0x40 MSTORE PUSH1 0x4 CALLDATASIZE LT ISZERO PUSH2 0x11 JUMPI PUSH0 DUP1 REVERT JUMPDEST PUSH0 CALLDATALOAD PUSH1 0xE0 SHR DUP1 PUSH4 0x205C9CC7 EQ PUSH2 0x124 JUMPI DUP1 PUSH4 0x3F009C16 EQ PUSH2 0x11F JUMPI DUP1 PUSH4 0x4D919405 EQ PUSH2 0x11A JUMPI DUP1 PUSH4 0x51E54308 EQ PUSH2 0x115 JUMPI DUP1 PUSH4 0x54B57F70 EQ PUSH2 0x110 JUMPI DUP1 PUSH4 0x5CDC73EF EQ PUSH2 0x10B JUMPI DUP1 PUSH4 0x6592041A EQ PUSH2 0x106 JUMPI DUP1 PUSH4 0x6F18B669 EQ PUSH2 0x101 JUMPI DUP1 PUSH4 0x8A2BA01C EQ PUSH2 0xFC JUMPI DUP1 PUSH4 0xA66339B7 EQ PUSH2 0xF7 JUMPI DUP1 PUSH4 0xAF1D0BD9 EQ PUSH2 0xF2 JUMPI DUP1 PUSH4 0xC1F2C915 EQ PUSH2 0xED JUMPI DUP1 PUSH4 0xC588E555 EQ PUSH2 0xE8 JUMPI DUP1 PUSH4 0xD6385D60 EQ PUSH2 0xE3 JUMPI DUP1 PUSH4 0xE63C1828 EQ PUSH2 0xDE JUMPI DUP1 PUSH4 0xE6859B9A EQ PUSH2 0xD9 JUMPI PUSH4 0xE86D06C7 EQ PUSH2 0xD4 JUMPI PUSH0 DUP1 REVERT JUMPDEST PUSH2 0xB99 JUMP JUMPDEST PUSH2 0xB49 JUMP JUMPDEST PUSH2 0xA80 JUMP JUMPDEST PUSH2 0xA66 JUMP JUMPDEST PUSH2 0x9D3 JUMP JUMPDEST PUSH2 0x994 JUMP JUMPDEST PUSH2 0x926 JUMP JUMPDEST PUSH2 0x8D6 JUMP JUMPDEST PUSH2 0x8BA JUMP JUMPDEST PUSH2 0x894 JUMP JUMPDEST PUSH2 0x87B JUMP JUMPDEST PUSH2 0x81C JUMP JUMPDEST PUSH2 0x744 JUMP JUMPDEST PUSH2 0x331 JUMP JUMPDEST PUSH2 0x2BA JUMP JUMPDEST PUSH2 0x247 JUMP JUMPDEST CALLVALUE PUSH2 0x146 JUMPI PUSH0 CALLDATASIZE PUSH1 0x3 NOT ADD SLT PUSH2 0x146 JUMPI PUSH1 0x20 PUSH1 0xFF PUSH1 0x1 SLOAD AND PUSH1 0x40 MLOAD SWAP1 ISZERO ISZERO DUP2 MSTORE RETURN JUMPDEST PUSH0 DUP1 REVERT JUMPDEST PUSH4 0x4E487B71 PUSH1 0xE0 SHL PUSH0 MSTORE PUSH1 0x41 PUSH1 0x4 MSTORE PUSH1 0x24 PUSH0 REVERT JUMPDEST SWAP1 PUSH1 0x1F DUP1 NOT SWAP2 ADD AND DUP2 ADD SWAP1 DUP2 LT PUSH1 0x1 PUSH1 0x1 PUSH1 0x40 SHL SUB DUP3 GT OR PUSH2 0x17F JUMPI PUSH1 0x40 MSTORE JUMP JUMPDEST PUSH2 0x14A JUMP JUMPDEST PUSH1 0x1 PUSH1 0x1 PUSH1 0x40 SHL SUB DUP2 GT PUSH2 0x17F JUMPI PUSH1 0x1F ADD PUSH1 0x1F NOT AND PUSH1 0x20 ADD SWAP1 JUMP JUMPDEST SWAP3 SWAP2 SWAP3 PUSH2 0x1AB DUP3 PUSH2 0x184 JUMP JUMPDEST SWAP2 PUSH2 0x1B9 PUSH1 0x40 MLOAD SWAP4 DUP5 PUSH2 0x15E JUMP JUMPDEST DUP3 SWAP5 DUP2 DUP5 MSTORE DUP2 DUP4 ADD GT PUSH2 0x146 JUMPI DUP3 DUP2 PUSH1 0x20 SWAP4 DUP5 PUSH0 SWAP7 ADD CALLDATACOPY ADD ADD MSTORE JUMP JUMPDEST SWAP1 DUP1 PUSH1 0x1F DUP4 ADD SLT ISZERO PUSH2 0x146 JUMPI DUP2 PUSH1 0x20 PUSH2 0x1F0 SWAP4 CALLDATALOAD SWAP2 ADD PUSH2 0x19F JUMP JUMPDEST SWAP1 JUMP JUMPDEST PUSH1 0x20 PUSH1 0x3 NOT DUP3 ADD SLT PUSH2 0x146 JUMPI PUSH1 0x4 CALLDATALOAD SWAP1 PUSH1 0x1 PUSH1 0x1 PUSH1 0x40 SHL SUB DUP3 GT PUSH2 0x146 JUMPI PUSH2 0x1F0 SWAP2 PUSH1 0x4 ADD PUSH2 0x1D5 JUMP JUMPDEST PUSH1 0x20 PUSH1 0x40 SWAP3 DUP2 DUP4 MSTORE DUP1 MLOAD SWAP2 DUP3 SWAP2 DUP3 DUP3 DUP7 ADD MSTORE ADD DUP5 DUP5 ADD MCOPY PUSH0 DUP3 DUP3 ADD DUP5 ADD MSTORE PUSH1 0x1F ADD PUSH1 0x1F NOT AND ADD ADD SWAP1 JUMP JUMPDEST CALLVALUE PUSH2 0x146 JUMPI PUSH2 0x26C PUSH2 0x260 PUSH2 0x25B CALLDATASIZE PUSH2 0x1F3 JUMP JUMPDEST PUSH2 0x1033 JUMP JUMPDEST PUSH1 0x40 MLOAD SWAP2 DUP3 SWAP2 DUP3 PUSH2 0x21D JUMP JUMPDEST SUB SWAP1 RETURN JUMPDEST SWAP1 PUSH1 0x40 PUSH1 0x3 NOT DUP4 ADD SLT PUSH2 0x146 JUMPI PUSH1 0x4 CALLDATALOAD PUSH1 0x1 PUSH1 0x1 PUSH1 0x40 SHL SUB DUP2 GT PUSH2 0x146 JUMPI DUP3 PUSH2 0x29B SWAP2 PUSH1 0x4 ADD PUSH2 0x1D5 JUMP JUMPDEST SWAP2 PUSH1 0x24 CALLDATALOAD SWAP1 PUSH1 0x1 PUSH1 0x1 PUSH1 0x40 SHL SUB DUP3 GT PUSH2 0x146 JUMPI PUSH2 0x1F0 SWAP2 PUSH1 0x4 ADD PUSH2 0x1D5 JUMP JUMPDEST CALLVALUE PUSH2 0x146 JUMPI PUSH2 0x26C PUSH2 0x260 PUSH2 0x2CE CALLDATASIZE PUSH2 0x270 JUMP JUMPDEST SWAP1 PUSH2 0x105B JUMP JUMPDEST SWAP2 DUP2 PUSH1 0x1F DUP5 ADD SLT ISZERO PUSH2 0x146 JUMPI DUP3 CALLDATALOAD SWAP2 PUSH1 0x1 PUSH1 0x1 PUSH1 0x40 SHL SUB DUP4 GT PUSH2 0x146 JUMPI PUSH1 0x20 DUP4 DUP2 DUP7 ADD SWAP6 ADD ADD GT PUSH2 0x146 JUMPI JUMP JUMPDEST SWAP2 DUP2 PUSH1 0x1F DUP5 ADD SLT ISZERO PUSH2 0x146 JUMPI DUP3 CALLDATALOAD SWAP2 PUSH1 0x1 PUSH1 0x1 PUSH1 0x40 SHL SUB DUP4 GT PUSH2 0x146 JUMPI PUSH1 0x20 DUP1 DUP6 ADD SWAP5 DUP5 PUSH1 0x5 SHL ADD ADD GT PUSH2 0x146 JUMPI JUMP JUMPDEST CALLVALUE PUSH2 0x146 JUMPI PUSH1 0x60 CALLDATASIZE PUSH1 0x3 NOT ADD SLT PUSH2 0x146 JUMPI PUSH1 0x4 CALLDATALOAD PUSH1 0x1 PUSH1 0x1 PUSH1 0x40 SHL SUB DUP2 GT PUSH2 0x146 JUMPI PUSH2 0x361 SWAP1 CALLDATASIZE SWAP1 PUSH1 0x4 ADD PUSH2 0x2D4 JUMP JUMPDEST PUSH1 0x24 CALLDATALOAD PUSH1 0x1 PUSH1 0x1 PUSH1 0x40 SHL SUB DUP2 GT PUSH2 0x146 JUMPI PUSH2 0x381 DUP4 SWAP2 CALLDATASIZE SWAP1 PUSH1 0x4 ADD PUSH2 0x301 JUMP JUMPDEST SWAP1 SWAP2 PUSH1 0x44 CALLDATALOAD SWAP3 PUSH2 0x3C7 PUSH1 0x40 MLOAD PUSH1 0x20 DUP2 ADD SWAP1 PUSH2 0x3B1 DUP2 PUSH2 0x3A3 DUP9 DUP8 DUP13 DUP11 DUP9 PUSH2 0x112E JUMP JUMPDEST SUB PUSH1 0x1F NOT DUP2 ADD DUP4 MSTORE DUP3 PUSH2 0x15E JUMP JUMPDEST MLOAD SWAP1 KECCAK256 PUSH0 MLOAD PUSH1 0x20 PUSH2 0x1F18 PUSH0 CODECOPY PUSH0 MLOAD SWAP1 PUSH0 MSTORE SWAP1 MOD SWAP1 JUMP JUMPDEST SWAP3 PUSH2 0x3E1 PUSH2 0x3DC PUSH2 0x3D7 DUP4 PUSH2 0x1169 JUMP JUMPDEST PUSH2 0x11A2 JUMP JUMPDEST PUSH2 0x1211 JUMP JUMPDEST SWAP6 PUSH2 0x3F1 PUSH2 0x3DC PUSH2 0x3D7 DUP5 PUSH2 0x1169 JUMP JUMPDEST SWAP6 DUP6 SWAP2 DUP7 PUSH0 SWAP7 DUP11 PUSH0 SWAP9 JUMPDEST PUSH2 0x404 DUP9 PUSH2 0x1169 JUMP JUMPDEST DUP11 GT PUSH2 0x499 JUMPI SWAP1 DUP11 SWAP2 DUP11 DUP10 DUP12 PUSH2 0x41A DUP11 DUP4 PUSH2 0x1195 JUMP JUMPDEST DUP4 EQ PUSH2 0x479 JUMPI PUSH2 0x458 DUP5 PUSH2 0x453 PUSH2 0x470 SWAP9 SWAP7 DUP9 PUSH2 0x44D PUSH2 0x468 SWAP9 PUSH0 MLOAD PUSH1 0x20 PUSH2 0x1F18 PUSH0 CODECOPY PUSH0 MLOAD SWAP1 PUSH0 MSTORE SWAP12 SWAP9 PUSH2 0x463 SWAP9 PUSH2 0x12CB JUMP JUMPDEST POP PUSH2 0x1E87 JUMP JUMPDEST PUSH2 0x130C JUMP JUMPDEST SWAP2 DUP3 ADD PUSH1 0x20 ADD DUP12 SWAP1 MSTORE JUMP JUMPDEST PUSH2 0x131B JUMP JUMPDEST SWAP8 MULMOD SWAP9 PUSH2 0x1243 JUMP JUMPDEST SWAP8 SWAP5 DUP12 SWAP1 PUSH2 0x3FB JUMP JUMPDEST POP POP POP SWAP7 PUSH0 MLOAD PUSH1 0x20 PUSH2 0x1F18 PUSH0 CODECOPY PUSH0 MLOAD SWAP1 PUSH0 MSTORE SWAP2 POP SWAP2 PUSH2 0x470 SWAP3 MULMOD SWAP9 PUSH2 0x1243 JUMP JUMPDEST POP SWAP5 POP SWAP1 DUP10 DUP10 SWAP4 SWAP5 DUP8 PUSH0 SWAP5 PUSH0 SWAP6 JUMPDEST PUSH2 0x4B0 DUP4 PUSH2 0x1169 JUMP JUMPDEST DUP8 GT PUSH2 0x542 JUMPI DUP8 SWAP1 DUP8 PUSH2 0x4C3 DUP7 DUP7 PUSH2 0x1195 JUMP JUMPDEST DUP2 EQ PUSH2 0x526 JUMPI SWAP2 PUSH2 0x517 PUSH2 0x509 DUP4 PUSH2 0x453 PUSH0 MLOAD PUSH1 0x20 PUSH2 0x1F18 PUSH0 CODECOPY PUSH0 MLOAD SWAP1 PUSH0 MSTORE SWAP6 DUP12 PUSH2 0x503 DUP10 PUSH2 0x4FD PUSH2 0x4F7 PUSH2 0x51F SWAP13 PUSH2 0x59D JUMP JUMPDEST POP PUSH2 0x6A6 JUMP JUMPDEST POP PUSH2 0x59D JUMP JUMPDEST POP PUSH2 0x1EA0 JUMP JUMPDEST DUP9 DUP2 ADD PUSH1 0x20 ADD DUP11 SWAP1 MSTORE PUSH2 0x131B JUMP JUMPDEST SWAP8 MULMOD SWAP7 PUSH2 0x1243 JUMP JUMPDEST SWAP6 SWAP5 PUSH2 0x4A7 JUMP JUMPDEST POP SWAP6 PUSH2 0x51F SWAP2 PUSH0 MLOAD PUSH1 0x20 PUSH2 0x1F18 PUSH0 CODECOPY PUSH0 MLOAD SWAP1 PUSH0 MSTORE SWAP2 MULMOD SWAP7 PUSH2 0x1243 JUMP JUMPDEST POP PUSH2 0x578 PUSH2 0x57D SWAP2 DUP10 DUP7 PUSH2 0x572 PUSH2 0x561 PUSH2 0x55B DUP16 PUSH2 0x1033 JUMP JUMPDEST SWAP3 PUSH2 0x1033 JUMP JUMPDEST SWAP4 PUSH2 0x56A PUSH2 0x1345 JUMP JUMPDEST SWAP4 CALLDATASIZE SWAP2 PUSH2 0x19F JUMP JUMPDEST SWAP2 PUSH2 0x1446 JUMP JUMPDEST PUSH2 0x13D2 JUMP JUMPDEST PUSH1 0x40 MLOAD PUSH1 0x1 DUP2 MSTORE PUSH1 0x20 SWAP1 RETURN JUMPDEST PUSH4 0x4E487B71 PUSH1 0xE0 SHL PUSH0 MSTORE PUSH1 0x32 PUSH1 0x4 MSTORE PUSH1 0x24 PUSH0 REVERT JUMPDEST PUSH1 0x3 SLOAD DUP2 LT ISZERO PUSH2 0x5B5 JUMPI PUSH1 0x3 PUSH0 MSTORE PUSH1 0x20 PUSH0 KECCAK256 ADD SWAP1 PUSH0 SWAP1 JUMP JUMPDEST PUSH2 0x589 JUMP JUMPDEST SWAP1 PUSH1 0x1 DUP3 DUP2 SHR SWAP3 AND DUP1 ISZERO PUSH2 0x5E8 JUMPI JUMPDEST PUSH1 0x20 DUP4 LT EQ PUSH2 0x5D4 JUMPI JUMP JUMPDEST PUSH4 0x4E487B71 PUSH1 0xE0 SHL PUSH0 MSTORE PUSH1 0x22 PUSH1 0x4 MSTORE PUSH1 0x24 PUSH0 REVERT JUMPDEST SWAP2 PUSH1 0x7F AND SWAP2 PUSH2 0x5C9 JUMP JUMPDEST PUSH1 0x40 MLOAD SWAP1 PUSH0 DUP3 PUSH0 SLOAD SWAP2 PUSH2 0x604 DUP4 PUSH2 0x5BA JUMP JUMPDEST DUP1 DUP4 MSTORE SWAP3 PUSH1 0x1 DUP2 AND SWAP1 DUP2 ISZERO PUSH2 0x687 JUMPI POP PUSH1 0x1 EQ PUSH2 0x62A JUMPI JUMPDEST PUSH2 0x628 SWAP3 POP SUB DUP4 PUSH2 0x15E JUMP JUMPDEST JUMP JUMPDEST POP PUSH0 DUP1 DUP1 MSTORE SWAP1 SWAP2 PUSH32 0x290DECD9548B62A8D60345A988386FC84BA6BC95484008F6362F93160EF3E563 JUMPDEST DUP2 DUP4 LT PUSH2 0x66B JUMPI POP POP SWAP1 PUSH1 0x20 PUSH2 0x628 SWAP3 DUP3 ADD ADD PUSH2 0x61C JUMP JUMPDEST PUSH1 0x20 SWAP2 SWAP4 POP DUP1 PUSH1 0x1 SWAP2 SLOAD DUP4 DUP6 DUP10 ADD ADD MSTORE ADD SWAP2 ADD SWAP1 SWAP2 DUP5 SWAP3 PUSH2 0x653 JUMP JUMPDEST PUSH1 0x20 SWAP3 POP PUSH2 0x628 SWAP5 SWAP2 POP PUSH1 0xFF NOT AND DUP3 DUP5 ADD MSTORE ISZERO ISZERO PUSH1 0x5 SHL DUP3 ADD ADD PUSH2 0x61C JUMP JUMPDEST SWAP1 PUSH1 0x40 MLOAD SWAP2 DUP3 PUSH0 DUP3 SLOAD SWAP3 PUSH2 0x6B9 DUP5 PUSH2 0x5BA JUMP JUMPDEST DUP1 DUP5 MSTORE SWAP4 PUSH1 0x1 DUP2 AND SWAP1 DUP2 ISZERO PUSH2 0x722 JUMPI POP PUSH1 0x1 EQ PUSH2 0x6DE JUMPI JUMPDEST POP PUSH2 0x628 SWAP3 POP SUB DUP4 PUSH2 0x15E JUMP JUMPDEST SWAP1 POP PUSH0 SWAP3 SWAP2 SWAP3 MSTORE PUSH1 0x20 PUSH0 KECCAK256 SWAP1 PUSH0 SWAP2 JUMPDEST DUP2 DUP4 LT PUSH2 0x706 JUMPI POP POP SWAP1 PUSH1 0x20 PUSH2 0x628 SWAP3 DUP3 ADD ADD PUSH0 PUSH2 0x6D1 JUMP JUMPDEST PUSH1 0x20 SWAP2 SWAP4 POP DUP1 PUSH1 0x1 SWAP2 SLOAD DUP4 DUP6 DUP10 ADD ADD MSTORE ADD SWAP2 ADD SWAP1 SWAP2 DUP5 SWAP3 PUSH2 0x6ED JUMP JUMPDEST SWAP1 POP PUSH1 0x20 SWAP3 POP PUSH2 0x628 SWAP5 SWAP2 POP PUSH1 0xFF NOT AND DUP3 DUP5 ADD MSTORE ISZERO ISZERO PUSH1 0x5 SHL DUP3 ADD ADD PUSH0 PUSH2 0x6D1 JUMP JUMPDEST CALLVALUE PUSH2 0x146 JUMPI PUSH1 0x20 CALLDATASIZE PUSH1 0x3 NOT ADD SLT PUSH2 0x146 JUMPI PUSH1 0x4 CALLDATALOAD PUSH1 0x2 SLOAD DUP2 LT ISZERO PUSH2 0x146 JUMPI PUSH2 0x260 PUSH2 0x26C SWAP2 PUSH1 0x2 PUSH0 MSTORE PUSH32 0x405787FA12A823E0F2B7631CC41B3BA8828B3321CA811111FA75CD3AA3BB5ACE ADD PUSH2 0x6A6 JUMP JUMPDEST SWAP1 PUSH1 0x80 PUSH1 0x3 NOT DUP4 ADD SLT PUSH2 0x146 JUMPI PUSH1 0x4 CALLDATALOAD PUSH1 0x1 PUSH1 0x1 PUSH1 0x40 SHL SUB DUP2 GT PUSH2 0x146 JUMPI DUP3 PUSH2 0x7BF SWAP2 PUSH1 0x4 ADD PUSH2 0x1D5 JUMP JUMPDEST SWAP2 PUSH1 0x24 CALLDATALOAD PUSH1 0x1 PUSH1 0x1 PUSH1 0x40 SHL SUB DUP2 GT PUSH2 0x146 JUMPI DUP2 PUSH2 0x7DE SWAP2 PUSH1 0x4 ADD PUSH2 0x1D5 JUMP JUMPDEST SWAP2 PUSH1 0x44 CALLDATALOAD PUSH1 0x1 PUSH1 0x1 PUSH1 0x40 SHL SUB DUP2 GT PUSH2 0x146 JUMPI DUP3 PUSH2 0x7FD SWAP2 PUSH1 0x4 ADD PUSH2 0x1D5 JUMP JUMPDEST SWAP2 PUSH1 0x64 CALLDATALOAD SWAP1 PUSH1 0x1 PUSH1 0x1 PUSH1 0x40 SHL SUB DUP3 GT PUSH2 0x146 JUMPI PUSH2 0x1F0 SWAP2 PUSH1 0x4 ADD PUSH2 0x1D5 JUMP JUMPDEST CALLVALUE PUSH2 0x146 JUMPI PUSH0 DUP1 PUSH2 0x851 PUSH2 0x851 PUSH2 0x857 PUSH2 0x3A3 PUSH2 0x838 CALLDATASIZE PUSH2 0x794 JUMP JUMPDEST SWAP2 SWAP4 SWAP3 SWAP7 SWAP1 PUSH1 0x40 MLOAD SWAP7 DUP8 SWAP6 PUSH2 0x851 PUSH1 0x20 DUP9 ADD DUP1 SWAP12 PUSH2 0x1049 JUMP JUMPDEST SWAP1 PUSH2 0x1049 JUMP JUMPDEST MLOAD SWAP1 PUSH1 0xF GAS STATICCALL POP PUSH1 0x20 PUSH1 0x1 PUSH2 0x872 PUSH2 0x86D PUSH2 0x1004 JUMP JUMPDEST PUSH2 0x140E JUMP JUMPDEST EQ PUSH1 0x40 MLOAD SWAP1 DUP2 MSTORE RETURN JUMPDEST CALLVALUE PUSH2 0x146 JUMPI PUSH2 0x26C PUSH2 0x260 PUSH2 0x88F CALLDATASIZE PUSH2 0x1F3 JUMP JUMPDEST PUSH2 0x1430 JUMP JUMPDEST CALLVALUE PUSH2 0x146 JUMPI PUSH1 0x20 PUSH2 0x8B0 PUSH2 0x8A7 CALLDATASIZE PUSH2 0x794 JUMP JUMPDEST SWAP3 SWAP2 SWAP1 SWAP2 PUSH2 0x1446 JUMP JUMPDEST PUSH1 0x40 MLOAD SWAP1 ISZERO ISZERO DUP2 MSTORE RETURN JUMPDEST CALLVALUE PUSH2 0x146 JUMPI PUSH0 CALLDATASIZE PUSH1 0x3 NOT ADD SLT PUSH2 0x146 JUMPI PUSH2 0x26C PUSH2 0x260 PUSH0 PUSH2 0x6A6 JUMP JUMPDEST CALLVALUE PUSH2 0x146 JUMPI PUSH1 0x20 CALLDATASIZE PUSH1 0x3 NOT ADD SLT PUSH2 0x146 JUMPI PUSH1 0x4 CALLDATALOAD PUSH1 0x1 PUSH1 0x1 PUSH1 0x40 SHL SUB DUP2 GT PUSH2 0x146 JUMPI PUSH2 0x8B0 PUSH2 0x90B PUSH1 0x20 SWAP3 CALLDATASIZE SWAP1 PUSH1 0x4 ADD PUSH2 0x2D4 JUMP JUMPDEST POP PUSH1 0x60 DUP2 ADD CALLDATALOAD SWAP1 PUSH1 0x40 DUP2 ADD CALLDATALOAD SWAP1 PUSH1 0x20 DUP2 ADD CALLDATALOAD SWAP1 CALLDATALOAD OR OR OR ISZERO SWAP1 JUMP JUMPDEST CALLVALUE PUSH2 0x146 JUMPI PUSH1 0x40 CALLDATASIZE PUSH1 0x3 NOT ADD SLT PUSH2 0x146 JUMPI PUSH1 0x4 CALLDATALOAD PUSH1 0x1 PUSH1 0x1 PUSH1 0x40 SHL SUB DUP2 GT PUSH2 0x146 JUMPI PUSH0 PUSH2 0x958 DUP2 SWAP3 CALLDATASIZE SWAP1 PUSH1 0x4 ADD PUSH2 0x2D4 JUMP JUMPDEST PUSH2 0x982 PUSH1 0x20 DUP1 PUSH1 0x24 CALLDATALOAD SWAP4 PUSH1 0x40 MLOAD SWAP5 DUP2 DUP7 SWAP3 DUP5 DUP5 ADD SWAP9 DUP10 CALLDATACOPY DUP3 ADD SWAP1 DUP4 DUP3 ADD MSTORE SUB ADD DUP1 DUP5 MSTORE ADD DUP3 PUSH2 0x15E JUMP JUMPDEST MLOAD SWAP1 PUSH1 0xE GAS STATICCALL POP PUSH2 0x26C PUSH2 0x260 PUSH2 0x1004 JUMP JUMPDEST CALLVALUE PUSH2 0x146 JUMPI PUSH1 0x40 CALLDATASIZE PUSH1 0x3 NOT ADD SLT PUSH2 0x146 JUMPI PUSH1 0x4 CALLDATALOAD PUSH1 0x1 PUSH1 0x1 PUSH1 0x40 SHL SUB DUP2 GT PUSH2 0x146 JUMPI PUSH2 0x260 PUSH2 0x9CA PUSH2 0x26C SWAP3 CALLDATASIZE SWAP1 PUSH1 0x4 ADD PUSH2 0x1D5 JUMP JUMPDEST PUSH1 0x24 CALLDATALOAD SWAP1 PUSH2 0x14D9 JUMP JUMPDEST CALLVALUE PUSH2 0x146 JUMPI PUSH1 0x80 CALLDATASIZE PUSH1 0x3 NOT ADD SLT PUSH2 0x146 JUMPI PUSH1 0x4 CALLDATALOAD PUSH1 0x1 PUSH1 0x1 PUSH1 0x40 SHL SUB DUP2 GT PUSH2 0x146 JUMPI PUSH2 0xA03 SWAP1 CALLDATASIZE SWAP1 PUSH1 0x4 ADD PUSH2 0x301 JUMP JUMPDEST PUSH1 0x24 CALLDATALOAD PUSH1 0x1 PUSH1 0x1 PUSH1 0x40 SHL SUB DUP2 GT PUSH2 0x146 JUMPI PUSH2 0xA22 SWAP1 CALLDATASIZE SWAP1 PUSH1 0x4 ADD PUSH2 0x301 JUMP JUMPDEST SWAP2 SWAP1 SWAP3 PUSH1 0x44 CALLDATALOAD SWAP3 PUSH1 0x1 PUSH1 0x1 PUSH1 0x40 SHL SUB DUP5 GT PUSH2 0x146 JUMPI PUSH2 0x26C SWAP5 PUSH2 0xA4C PUSH2 0xA54 SWAP6 CALLDATASIZE SWAP1 PUSH1 0x4 ADD PUSH2 0x2D4 JUMP JUMPDEST SWAP5 SWAP1 SWAP4 PUSH2 0x197D JUMP JUMPDEST PUSH1 0x40 MLOAD SWAP1 ISZERO ISZERO DUP2 MSTORE SWAP1 DUP2 SWAP1 PUSH1 0x20 DUP3 ADD SWAP1 JUMP JUMPDEST CALLVALUE PUSH2 0x146 JUMPI PUSH2 0x26C PUSH2 0x260 PUSH2 0xA7A CALLDATASIZE PUSH2 0x270 JUMP JUMPDEST SWAP1 PUSH2 0x1D7B JUMP JUMPDEST CALLVALUE PUSH2 0x146 JUMPI PUSH1 0x40 CALLDATASIZE PUSH1 0x3 NOT ADD SLT PUSH2 0x146 JUMPI PUSH1 0x4 CALLDATALOAD PUSH1 0x1 PUSH1 0x1 PUSH1 0x40 SHL SUB DUP2 GT PUSH2 0x146 JUMPI PUSH2 0xAB0 SWAP1 CALLDATASIZE SWAP1 PUSH1 0x4 ADD PUSH2 0x301 JUMP JUMPDEST SWAP1 PUSH1 0x24 CALLDATALOAD PUSH1 0x1 PUSH1 0x1 PUSH1 0x40 SHL SUB DUP2 GT PUSH2 0x146 JUMPI PUSH2 0xAD0 SWAP1 CALLDATASIZE SWAP1 PUSH1 0x4 ADD PUSH2 0x301 JUMP JUMPDEST PUSH0 NOT DUP5 ADD DUP5 DUP2 GT SWAP4 SWAP3 SWAP1 PUSH0 DUP6 JUMPDEST PUSH2 0xB44 JUMPI DUP2 DUP2 GT PUSH2 0xB0B JUMPI DUP1 PUSH2 0xB00 PUSH2 0xAFA PUSH2 0xB05 SWAP4 DUP11 DUP10 PUSH2 0x12CB JUMP JUMPDEST SWAP1 PUSH2 0x1DA9 JUMP JUMPDEST PUSH2 0x1243 JUMP JUMPDEST DUP6 PUSH2 0xADD JUMP JUMPDEST POP POP PUSH0 NOT DUP3 ADD DUP3 DUP2 GT SWAP2 SWAP1 PUSH0 DUP4 JUMPDEST PUSH2 0xB44 JUMPI DUP2 DUP2 GT PUSH2 0xB42 JUMPI DUP1 PUSH2 0xB00 PUSH2 0xB36 PUSH2 0xB3C SWAP4 DUP9 DUP8 PUSH2 0x12CB JUMP JUMPDEST SWAP1 PUSH2 0x1DFA JUMP JUMPDEST DUP4 PUSH2 0xB19 JUMP JUMPDEST STOP JUMPDEST PUSH2 0x1155 JUMP JUMPDEST CALLVALUE PUSH2 0x146 JUMPI PUSH1 0x20 CALLDATASIZE PUSH1 0x3 NOT ADD SLT PUSH2 0x146 JUMPI PUSH1 0x4 CALLDATALOAD PUSH1 0x3 SLOAD DUP2 LT ISZERO PUSH2 0x146 JUMPI PUSH2 0x260 PUSH2 0x26C SWAP2 PUSH1 0x3 PUSH0 MSTORE PUSH32 0xC2575A0E9E593C00F959F8C92F12DB2869C3395A3B0502D05E2516446F71F85B ADD PUSH2 0x6A6 JUMP JUMPDEST CALLVALUE PUSH2 0x146 JUMPI PUSH1 0x60 CALLDATASIZE PUSH1 0x3 NOT ADD SLT PUSH2 0x146 JUMPI PUSH1 0x4 CALLDATALOAD PUSH1 0x1 PUSH1 0x1 PUSH1 0x40 SHL SUB DUP2 GT PUSH2 0x146 JUMPI PUSH2 0xBC9 SWAP1 CALLDATASIZE SWAP1 PUSH1 0x4 ADD PUSH2 0x301 JUMP JUMPDEST PUSH1 0x24 CALLDATALOAD PUSH1 0x1 PUSH1 0x1 PUSH1 0x40 SHL SUB DUP2 GT PUSH2 0x146 JUMPI PUSH2 0xBE8 SWAP1 CALLDATASIZE SWAP1 PUSH1 0x4 ADD PUSH2 0x301 JUMP JUMPDEST SWAP3 SWAP1 SWAP2 PUSH1 0x44 CALLDATALOAD PUSH1 0x1 PUSH1 0x1 PUSH1 0x40 SHL SUB DUP2 GT PUSH2 0x146 JUMPI PUSH2 0xC0D SWAP1 SWAP5 SWAP2 SWAP5 CALLDATASIZE SWAP1 PUSH1 0x4 ADD PUSH2 0x2D4 JUMP JUMPDEST SWAP5 PUSH2 0xC21 DUP4 PUSH2 0xC1B DUP4 PUSH2 0x11B5 JUMP JUMPDEST EQ PUSH2 0x1512 JUMP JUMPDEST PUSH2 0xC3D PUSH1 0x40 MLOAD PUSH1 0x20 DUP2 ADD SWAP1 PUSH2 0x3B1 DUP2 PUSH2 0x3A3 DUP9 DUP12 DUP9 DUP13 DUP9 PUSH2 0x1519 JUMP JUMPDEST SWAP4 PUSH2 0xC5A PUSH1 0x40 MLOAD PUSH1 0x20 DUP2 ADD SWAP1 PUSH2 0x3B1 DUP2 PUSH2 0x3A3 DUP10 DUP13 DUP10 DUP10 DUP9 PUSH2 0x1549 JUMP JUMPDEST SWAP7 PUSH1 0x1 SWAP4 PUSH2 0xC6A PUSH2 0x3DC DUP6 PUSH2 0x11CB JUMP JUMPDEST SWAP9 PUSH2 0xC7F PUSH2 0x3DC PUSH2 0xC7A DUP10 PUSH2 0x1177 JUMP JUMPDEST PUSH2 0x11E1 JUMP JUMPDEST SWAP9 PUSH2 0xC94 PUSH2 0x3DC PUSH2 0xC8F DUP9 PUSH2 0x1169 JUMP JUMPDEST PUSH2 0x11CB JUMP JUMPDEST SWAP10 PUSH2 0xCA4 PUSH2 0x3DC PUSH2 0xC7A DUP12 PUSH2 0x1186 JUMP JUMPDEST PUSH0 SWAP10 SWAP1 DUP11 JUMPDEST PUSH2 0xCB2 DUP11 PUSH2 0x1169 JUMP JUMPDEST DUP13 GT PUSH2 0xD26 JUMPI PUSH0 MLOAD PUSH1 0x20 PUSH2 0x1F18 PUSH0 CODECOPY PUSH0 MLOAD SWAP1 PUSH0 MSTORE DUP16 PUSH2 0xD17 DUP16 SWAP2 DUP16 DUP16 DUP16 DUP16 SWAP8 PUSH2 0xD09 DUP2 DUP7 PUSH2 0xD03 DUP8 DUP7 DUP15 PUSH2 0xD1F SWAP16 PUSH1 0x80 PUSH2 0xCF6 PUSH2 0x463 SWAP14 PUSH2 0xD0E SWAP13 PUSH2 0xCFE SWAP5 PUSH2 0x12CB JUMP JUMPDEST SWAP1 POP EQ PUSH2 0x1567 JUMP JUMPDEST PUSH2 0x12CB JUMP JUMPDEST POP PUSH2 0x1E94 JUMP JUMPDEST PUSH2 0x1329 JUMP JUMPDEST SWAP3 DUP4 ADD PUSH1 0x20 ADD MSTORE JUMP JUMPDEST SWAP13 MULMOD SWAP12 PUSH2 0x1243 JUMP JUMPDEST SWAP11 SWAP10 PUSH2 0xCA9 JUMP JUMPDEST POP SWAP6 DUP9 DUP13 DUP16 SWAP9 DUP16 PUSH2 0xD37 DUP13 SWAP12 PUSH2 0x1430 JUMP JUMPDEST SWAP1 PUSH0 SWAP12 DUP11 SWAP7 PUSH0 SWAP14 DUP15 JUMPDEST PUSH2 0xD54 PUSH2 0xD4F PUSH2 0xD4F DUP12 PUSH2 0x11F9 JUMP JUMPDEST PUSH2 0x1169 JUMP JUMPDEST LT PUSH2 0xDDD JUMPI DUP11 DUP16 SWAP2 DUP15 SWAP3 DUP13 DUP16 PUSH2 0xD69 DUP14 PUSH2 0x1169 JUMP JUMPDEST DUP4 EQ DUP1 ISZERO PUSH2 0xDD4 JUMPI JUMPDEST PUSH2 0xDB4 JUMPI DUP14 PUSH2 0xD0E DUP6 PUSH2 0x453 PUSH2 0xDAC SWAP10 SWAP8 DUP10 PUSH2 0x44D PUSH2 0xDA4 SWAP10 PUSH0 MLOAD PUSH1 0x20 PUSH2 0x1F18 PUSH0 CODECOPY PUSH0 MLOAD SWAP1 PUSH0 MSTORE SWAP13 SWAP10 PUSH2 0x463 SWAP10 PUSH2 0x12CB JUMP JUMPDEST SWAP11 MULMOD SWAP15 PUSH2 0x1243 JUMP JUMPDEST SWAP14 SWAP8 DUP15 PUSH2 0xD40 JUMP JUMPDEST POP POP POP SWAP10 PUSH0 MLOAD PUSH1 0x20 PUSH2 0x1F18 PUSH0 CODECOPY PUSH0 MLOAD SWAP1 PUSH0 MSTORE SWAP2 POP SWAP2 PUSH2 0xDAC SWAP3 MULMOD SWAP15 PUSH2 0x1243 JUMP JUMPDEST POP DUP13 DUP4 EQ PUSH2 0xD72 JUMP JUMPDEST POP DUP9 SWAP4 SWAP2 DUP13 DUP9 SWAP3 DUP16 DUP15 PUSH2 0xE00 DUP16 PUSH2 0xDF3 SWAP1 PUSH2 0x1033 JUMP JUMPDEST PUSH2 0xDFB PUSH2 0x15A0 JUMP JUMPDEST PUSH2 0x1D7B JUMP JUMPDEST SWAP10 PUSH0 SWAP10 DUP13 SWAP9 DUP12 JUMPDEST PUSH2 0xE13 PUSH2 0xD4F DUP12 PUSH2 0x1169 JUMP JUMPDEST DUP14 GT PUSH2 0xE5A JUMPI PUSH0 MLOAD PUSH1 0x20 PUSH2 0x1F18 PUSH0 CODECOPY PUSH0 MLOAD SWAP1 PUSH0 MSTORE DUP16 PUSH2 0xE4B DUP16 DUP16 SWAP1 DUP16 DUP16 DUP16 SWAP8 PUSH2 0xD09 DUP2 DUP7 PUSH2 0xD03 PUSH2 0x463 SWAP8 PUSH2 0xD0E SWAP7 PUSH2 0xE53 SWAP15 PUSH2 0x12CB JUMP JUMPDEST SWAP13 MULMOD SWAP13 PUSH2 0x1243 JUMP JUMPDEST SWAP12 SWAP10 PUSH2 0xE07 JUMP JUMPDEST POP SWAP4 DUP9 DUP9 DUP15 PUSH2 0xE78 PUSH2 0xE6B DUP16 PUSH2 0x1430 JUMP JUMPDEST PUSH2 0xE73 PUSH2 0x1345 JUMP JUMPDEST PUSH2 0x105B JUMP JUMPDEST SWAP1 PUSH0 SWAP9 PUSH1 0x1 SWAP6 PUSH0 SWAP11 JUMPDEST PUSH2 0xE8D PUSH2 0xD4F DUP9 PUSH2 0x11F9 JUMP JUMPDEST DUP13 GT PUSH2 0xF15 JUMPI DUP10 DUP15 SWAP2 DUP14 DUP12 DUP15 DUP12 DUP4 EQ DUP1 ISZERO PUSH2 0xF04 JUMPI JUMPDEST PUSH2 0xEE4 JUMPI DUP13 PUSH2 0xD0E DUP6 PUSH2 0x453 PUSH2 0xEDD SWAP10 SWAP8 DUP10 PUSH2 0x44D PUSH2 0xED5 SWAP10 PUSH0 MLOAD PUSH1 0x20 PUSH2 0x1F18 PUSH0 CODECOPY PUSH0 MLOAD SWAP1 PUSH0 MSTORE SWAP13 SWAP10 PUSH2 0x463 SWAP10 PUSH2 0x12CB JUMP JUMPDEST SWAP10 MULMOD SWAP12 PUSH2 0x1243 JUMP JUMPDEST SWAP11 SWAP7 PUSH2 0xE81 JUMP JUMPDEST POP POP POP SWAP9 PUSH0 MLOAD PUSH1 0x20 PUSH2 0x1F18 PUSH0 CODECOPY PUSH0 MLOAD SWAP1 PUSH0 MSTORE SWAP2 POP SWAP2 PUSH2 0xEDD SWAP3 MULMOD SWAP12 PUSH2 0x1243 JUMP JUMPDEST POP PUSH2 0xF0E DUP13 PUSH2 0x1337 JUMP JUMPDEST DUP4 EQ PUSH2 0xEA3 JUMP JUMPDEST POP DUP5 SWAP7 POP DUP6 PUSH2 0x56A DUP2 PUSH2 0xFD1 DUP16 PUSH2 0x57D SWAP15 PUSH2 0xF92 PUSH2 0xFFE SWAP16 DUP6 SWAP16 SWAP12 SWAP13 PUSH2 0xFD9 SWAP14 PUSH2 0xFDE SWAP16 SWAP13 PUSH2 0xFC1 SWAP13 PUSH2 0xF88 DUP5 SWAP16 PUSH2 0xF7D SWAP15 PUSH2 0xFC7 SWAP11 PUSH2 0xF74 PUSH2 0xF7D PUSH2 0xF6A PUSH2 0xF83 SWAP6 PUSH2 0xF64 PUSH2 0xF8D SWAP14 PUSH2 0x1033 JUMP JUMPDEST SWAP12 PUSH2 0x1251 JUMP JUMPDEST SWAP3 SWAP1 PUSH2 0x56A PUSH2 0x15A0 JUMP JUMPDEST SWAP4 PUSH2 0x56A PUSH2 0x5F2 JUMP JUMPDEST SWAP3 PUSH2 0x1446 JUMP JUMPDEST PUSH2 0x1E4B JUMP JUMPDEST PUSH2 0x1446 JUMP JUMPDEST PUSH2 0x16A8 JUMP JUMPDEST PUSH2 0xF9A PUSH2 0x1345 JUMP JUMPDEST SWAP10 PUSH2 0xFB9 PUSH2 0xFB1 PUSH2 0xFAA DUP8 PUSH2 0x1337 JUMP JUMPDEST DUP4 DUP6 PUSH2 0x12CB JUMP JUMPDEST SWAP9 SWAP1 SWAP12 PUSH2 0x128B JUMP JUMPDEST SWAP10 SWAP1 SWAP6 PUSH2 0x1169 JUMP JUMPDEST SWAP2 PUSH2 0x12CB JUMP JUMPDEST SWAP8 SWAP1 SWAP5 CALLDATASIZE SWAP2 PUSH2 0x19F JUMP JUMPDEST SWAP5 CALLDATASIZE SWAP2 PUSH2 0x19F JUMP JUMPDEST PUSH2 0x16E6 JUMP JUMPDEST PUSH2 0xFF9 PUSH1 0x1 PUSH2 0xFF0 PUSH2 0x90B DUP6 DUP6 PUSH2 0x1251 JUMP JUMPDEST ISZERO ISZERO EQ ISZERO PUSH2 0x1724 JUMP JUMPDEST PUSH2 0x1251 JUMP JUMPDEST SWAP1 PUSH2 0x17AF JUMP JUMPDEST RETURNDATASIZE ISZERO PUSH2 0x102E JUMPI RETURNDATASIZE SWAP1 PUSH2 0x1015 DUP3 PUSH2 0x184 JUMP JUMPDEST SWAP2 PUSH2 0x1023 PUSH1 0x40 MLOAD SWAP4 DUP5 PUSH2 0x15E JUMP JUMPDEST DUP3 MSTORE RETURNDATASIZE PUSH0 PUSH1 0x20 DUP5 ADD RETURNDATACOPY JUMP JUMPDEST PUSH1 0x60 SWAP1 JUMP JUMPDEST PUSH0 DUP1 SWAP2 PUSH1 0x20 DUP2 MLOAD SWAP2 ADD PUSH1 0xE GAS STATICCALL POP PUSH2 0x1F0 PUSH2 0x1004 JUMP JUMPDEST DUP1 MLOAD SWAP2 SWAP1 DUP3 SWAP1 PUSH1 0x20 ADD DUP3 MCOPY ADD PUSH0 DUP2 MSTORE SWAP1 JUMP JUMPDEST PUSH0 SWAP2 SWAP1 PUSH2 0x3A3 PUSH2 0x107A DUP5 SWAP4 PUSH1 0x40 MLOAD SWAP3 DUP4 SWAP2 PUSH2 0x851 PUSH1 0x20 DUP5 ADD DUP1 SWAP8 PUSH2 0x1049 JUMP JUMPDEST MLOAD SWAP1 PUSH1 0xB GAS STATICCALL POP PUSH2 0x1F0 PUSH2 0x1004 JUMP JUMPDEST SWAP1 DUP1 PUSH1 0x20 SWAP4 SWAP3 DUP2 DUP5 MSTORE DUP5 DUP5 ADD CALLDATACOPY PUSH0 DUP3 DUP3 ADD DUP5 ADD MSTORE PUSH1 0x1F ADD PUSH1 0x1F NOT AND ADD ADD SWAP1 JUMP JUMPDEST SWAP1 PUSH1 0x20 DUP4 DUP3 DUP2 MSTORE ADD SWAP1 PUSH1 0x20 DUP2 PUSH1 0x5 SHL DUP6 ADD ADD SWAP4 DUP4 PUSH0 SWAP2 JUMPDEST DUP4 DUP4 LT PUSH2 0x10D0 JUMPI POP POP POP POP POP POP SWAP1 JUMP JUMPDEST SWAP1 SWAP2 SWAP3 SWAP4 SWAP5 SWAP6 PUSH1 0x1F NOT DUP3 DUP3 SUB ADD DUP7 MSTORE DUP7 CALLDATALOAD PUSH1 0x1E NOT DUP5 CALLDATASIZE SUB ADD DUP2 SLT ISZERO PUSH2 0x146 JUMPI DUP4 ADD SWAP1 PUSH1 0x20 DUP3 CALLDATALOAD SWAP3 ADD SWAP2 PUSH1 0x1 PUSH1 0x1 PUSH1 0x40 SHL SUB DUP2 GT PUSH2 0x146 JUMPI DUP1 CALLDATASIZE SUB DUP4 SGT PUSH2 0x146 JUMPI PUSH2 0x1120 PUSH1 0x20 SWAP3 DUP4 SWAP3 PUSH1 0x1 SWAP6 PUSH2 0x1089 JUMP JUMPDEST SWAP9 ADD SWAP7 ADD SWAP5 SWAP4 ADD SWAP2 SWAP1 PUSH2 0x10C0 JUMP JUMPDEST SWAP3 SWAP1 PUSH2 0x1147 SWAP1 PUSH2 0x1F0 SWAP6 SWAP4 PUSH1 0x40 DUP7 MSTORE PUSH1 0x40 DUP7 ADD SWAP2 PUSH2 0x1089 JUMP JUMPDEST SWAP3 PUSH1 0x20 DUP2 DUP6 SUB SWAP2 ADD MSTORE PUSH2 0x10A9 JUMP JUMPDEST PUSH4 0x4E487B71 PUSH1 0xE0 SHL PUSH0 MSTORE PUSH1 0x11 PUSH1 0x4 MSTORE PUSH1 0x24 PUSH0 REVERT JUMPDEST PUSH0 NOT DUP2 ADD SWAP2 SWAP1 DUP3 GT PUSH2 0xB44 JUMPI JUMP JUMPDEST PUSH1 0x2 NOT DUP2 ADD SWAP2 SWAP1 DUP3 GT PUSH2 0xB44 JUMPI JUMP JUMPDEST PUSH1 0x1 NOT DUP2 ADD SWAP2 SWAP1 DUP3 GT PUSH2 0xB44 JUMPI JUMP JUMPDEST SWAP2 SWAP1 DUP3 SUB SWAP2 DUP3 GT PUSH2 0xB44 JUMPI JUMP JUMPDEST SWAP1 DUP2 PUSH2 0x120 MUL SWAP2 PUSH2 0x120 DUP4 DIV SUB PUSH2 0xB44 JUMPI JUMP JUMPDEST SWAP1 DUP2 PUSH1 0x1 SHL SWAP2 DUP1 DUP4 DIV PUSH1 0x2 EQ SWAP1 ISZERO OR ISZERO PUSH2 0xB44 JUMPI JUMP JUMPDEST SWAP1 PUSH1 0xA0 DUP3 MUL SWAP2 DUP1 DUP4 DIV PUSH1 0xA0 EQ SWAP1 ISZERO OR ISZERO PUSH2 0xB44 JUMPI JUMP JUMPDEST SWAP1 PUSH2 0x120 DUP3 MUL SWAP2 DUP1 DUP4 DIV PUSH2 0x120 EQ SWAP1 ISZERO OR ISZERO PUSH2 0xB44 JUMPI JUMP JUMPDEST PUSH1 0x1 DUP2 SWAP1 SHL SWAP2 SWAP1 PUSH1 0x1 PUSH1 0x1 PUSH1 0xFF SHL SUB DUP2 AND SUB PUSH2 0xB44 JUMPI JUMP JUMPDEST SWAP1 PUSH2 0x121B DUP3 PUSH2 0x184 JUMP JUMPDEST PUSH2 0x1228 PUSH1 0x40 MLOAD SWAP2 DUP3 PUSH2 0x15E JUMP JUMPDEST DUP3 DUP2 MSTORE DUP1 SWAP3 PUSH2 0x1239 PUSH1 0x1F NOT SWAP2 PUSH2 0x184 JUMP JUMPDEST ADD SWAP1 PUSH1 0x20 CALLDATASIZE SWAP2 ADD CALLDATACOPY JUMP JUMPDEST PUSH0 NOT DUP2 EQ PUSH2 0xB44 JUMPI PUSH1 0x1 ADD SWAP1 JUMP JUMPDEST SWAP1 ISZERO PUSH2 0x5B5 JUMPI DUP1 CALLDATALOAD SWAP1 PUSH1 0x1E NOT DUP2 CALLDATASIZE SUB ADD DUP3 SLT ISZERO PUSH2 0x146 JUMPI ADD SWAP1 DUP2 CALLDATALOAD SWAP2 PUSH1 0x1 PUSH1 0x1 PUSH1 0x40 SHL SUB DUP4 GT PUSH2 0x146 JUMPI PUSH1 0x20 ADD DUP3 CALLDATASIZE SUB DUP2 SGT PUSH2 0x146 JUMPI SWAP2 SWAP1 JUMP JUMPDEST SWAP1 PUSH1 0x1 LT ISZERO PUSH2 0x5B5 JUMPI PUSH1 0x20 DUP2 ADD CALLDATALOAD SWAP1 PUSH1 0x1E NOT DUP2 CALLDATASIZE SUB ADD DUP3 SLT ISZERO PUSH2 0x146 JUMPI ADD SWAP1 DUP2 CALLDATALOAD SWAP2 PUSH1 0x1 PUSH1 0x1 PUSH1 0x40 SHL SUB DUP4 GT PUSH2 0x146 JUMPI PUSH1 0x20 ADD DUP3 CALLDATASIZE SUB DUP2 SGT PUSH2 0x146 JUMPI SWAP2 SWAP1 JUMP JUMPDEST SWAP2 SWAP1 DUP2 LT ISZERO PUSH2 0x5B5 JUMPI PUSH1 0x5 SHL DUP2 ADD CALLDATALOAD SWAP1 PUSH1 0x1E NOT DUP2 CALLDATASIZE SUB ADD DUP3 SLT ISZERO PUSH2 0x146 JUMPI ADD SWAP1 DUP2 CALLDATALOAD SWAP2 PUSH1 0x1 PUSH1 0x1 PUSH1 0x40 SHL SUB DUP4 GT PUSH2 0x146 JUMPI PUSH1 0x20 ADD DUP3 CALLDATASIZE SUB DUP2 SGT PUSH2 0x146 JUMPI SWAP2 SWAP1 JUMP JUMPDEST SWAP1 PUSH2 0x100 DUP3 ADD DUP1 SWAP3 GT PUSH2 0xB44 JUMPI JUMP JUMPDEST SWAP1 PUSH1 0x20 DUP3 ADD DUP1 SWAP3 GT PUSH2 0xB44 JUMPI JUMP JUMPDEST SWAP1 PUSH1 0x80 DUP3 ADD DUP1 SWAP3 GT PUSH2 0xB44 JUMPI JUMP JUMPDEST SWAP1 PUSH1 0x1 DUP3 ADD DUP1 SWAP3 GT PUSH2 0xB44 JUMPI JUMP JUMPDEST PUSH1 0x40 MLOAD SWAP1 PUSH2 0x1354 PUSH1 0xA0 DUP4 PUSH2 0x15E JUMP JUMPDEST PUSH1 0x80 DUP3 MSTORE PUSH32 0xFCF5E095D5D00AF600DB18CB2C04B3EDD03CC744A2888AE40CAA232946C5E7E1 PUSH1 0x80 DUP4 PUSH16 0x17F1D3A73197D7942695638C4FA9AC0F PUSH1 0x20 DUP3 ADD MSTORE PUSH32 0xC3688C4F9774B905A14E3A3F171BAC586C55E83FF97A1AEFFB3AF00ADB22C6BB PUSH1 0x40 DUP3 ADD MSTORE PUSH16 0x8B3F481E3AAA0F1A09E30ED741D8AE4 PUSH1 0x60 DUP3 ADD MSTORE ADD MSTORE JUMP JUMPDEST ISZERO PUSH2 0x13D9 JUMPI JUMP JUMPDEST PUSH1 0x40 MLOAD PUSH3 0x461BCD PUSH1 0xE5 SHL DUP2 MSTORE PUSH1 0x20 PUSH1 0x4 DUP3 ADD MSTORE PUSH1 0xD PUSH1 0x24 DUP3 ADD MSTORE PUSH13 0x10DA1958DAD2D95E4811985A5B PUSH1 0x9A SHL PUSH1 0x44 DUP3 ADD MSTORE PUSH1 0x64 SWAP1 REVERT JUMPDEST PUSH1 0x20 DUP2 MLOAD SWAP2 ADD MLOAD SWAP1 PUSH1 0x20 DUP2 LT PUSH2 0x1422 JUMPI POP SWAP1 JUMP JUMPDEST PUSH0 NOT SWAP1 PUSH1 0x20 SUB PUSH1 0x3 SHL SHL AND SWAP1 JUMP JUMPDEST PUSH0 DUP1 SWAP2 PUSH1 0x20 DUP2 MLOAD SWAP2 ADD PUSH1 0xC GAS STATICCALL POP PUSH2 0x1F0 PUSH2 0x1004 JUMP JUMPDEST SWAP1 PUSH2 0x14C1 PUSH2 0x851 SWAP2 PUSH2 0x3A3 PUSH0 SWAP7 DUP8 DUP1 DUP1 SWAP9 PUSH1 0x40 MLOAD PUSH2 0x149B PUSH1 0x20 DUP3 PUSH2 0x146D DUP3 DUP3 ADD DUP1 SWAP7 PUSH2 0x1049 JUMP JUMPDEST PUSH32 0x73EDA753299D7D483339D80809A1D80553BDA402FFFE5BFEFFFFFFFF00000000 DUP2 MSTORE SUB DUP1 DUP5 MSTORE ADD DUP3 PUSH2 0x15E JUMP JUMPDEST MLOAD SWAP1 PUSH1 0xC GAS STATICCALL POP PUSH2 0x851 PUSH2 0x14AD PUSH2 0x1004 JUMP JUMPDEST PUSH1 0x40 MLOAD SWAP7 DUP8 SWAP6 PUSH2 0x851 PUSH1 0x20 DUP9 ADD DUP1 SWAP12 PUSH2 0x1049 JUMP JUMPDEST MLOAD SWAP1 PUSH1 0xF GAS STATICCALL POP PUSH1 0x1 PUSH2 0x14D5 PUSH2 0x86D PUSH2 0x1004 JUMP JUMPDEST EQ SWAP1 JUMP JUMPDEST PUSH0 SWAP2 SWAP1 DUP3 SWAP2 PUSH2 0x1503 PUSH1 0x20 PUSH1 0x40 MLOAD DUP1 SWAP4 PUSH2 0x14F5 DUP4 DUP4 ADD DUP1 SWAP8 PUSH2 0x1049 JUMP JUMPDEST SWAP1 DUP2 MSTORE SUB DUP1 DUP5 MSTORE ADD DUP3 PUSH2 0x15E JUMP JUMPDEST MLOAD SWAP1 PUSH1 0xC GAS STATICCALL POP PUSH2 0x1F0 PUSH2 0x1004 JUMP JUMPDEST ISZERO PUSH2 0x146 JUMPI JUMP JUMPDEST SWAP5 SWAP4 SWAP3 PUSH0 SWAP4 PUSH2 0x1536 PUSH2 0x1544 SWAP4 PUSH1 0x40 SWAP6 PUSH1 0x60 DUP11 MSTORE PUSH1 0x60 DUP11 ADD SWAP2 PUSH2 0x10A9 JUMP JUMPDEST SWAP2 DUP8 DUP4 SUB PUSH1 0x20 DUP10 ADD MSTORE PUSH2 0x10A9 JUMP JUMPDEST SWAP4 ADD MSTORE JUMP JUMPDEST SWAP5 SWAP4 SWAP3 PUSH1 0x1 SWAP4 PUSH2 0x1536 PUSH2 0x1544 SWAP4 PUSH1 0x40 SWAP6 PUSH1 0x60 DUP11 MSTORE PUSH1 0x60 DUP11 ADD SWAP2 PUSH2 0x10A9 JUMP JUMPDEST ISZERO PUSH2 0x156E JUMPI JUMP JUMPDEST PUSH1 0x40 MLOAD PUSH3 0x461BCD PUSH1 0xE5 SHL DUP2 MSTORE PUSH1 0x20 PUSH1 0x4 DUP3 ADD MSTORE PUSH1 0xA PUSH1 0x24 DUP3 ADD MSTORE PUSH10 0x3130B2102398903632B7 PUSH1 0xB1 SHL PUSH1 0x44 DUP3 ADD MSTORE PUSH1 0x64 SWAP1 REVERT JUMPDEST PUSH1 0x40 MLOAD SWAP1 PUSH2 0x15B0 PUSH2 0x120 DUP4 PUSH2 0x15E JUMP JUMPDEST PUSH2 0x100 DUP3 MSTORE PUSH32 0xCB3E287E85A763AF267492AB572E99AB3F370D275CEC1DA1AAA9075FF05F79BE PUSH2 0x100 DUP4 PUSH16 0x24AA2B2F08F0A91260805272DC51051 PUSH1 0x20 DUP3 ADD MSTORE PUSH32 0xC6E47AD4FA403B02B4510B647AE3D1770BAC0326A805BBEFD48056C8C121BDB8 PUSH1 0x40 DUP3 ADD MSTORE PUSH16 0x13E02B6052719F607DACD3A088274F65 PUSH1 0x60 DUP3 ADD MSTORE PUSH32 0x596BD0D09920B61AB5DA61BBDC7F5049334CF11213945D57E5AC7D055D042B7E PUSH1 0x80 DUP3 ADD MSTORE PUSH16 0xCE5D527727D6E118CC9CDC6DA2E351A PUSH1 0xA0 DUP3 ADD MSTORE PUSH32 0xADFD9BAA8CBDD3A76D429A695160D12C923AC9CC3BACA289E193548608B82801 PUSH1 0xC0 DUP3 ADD MSTORE PUSH16 0x606C4A02EA734CC32ACD2B02BC28B99 PUSH1 0xE0 DUP3 ADD MSTORE ADD MSTORE JUMP JUMPDEST ISZERO PUSH2 0x16AF JUMPI JUMP JUMPDEST PUSH1 0x40 MLOAD PUSH3 0x461BCD PUSH1 0xE5 SHL DUP2 MSTORE PUSH1 0x20 PUSH1 0x4 DUP3 ADD MSTORE PUSH1 0xF PUSH1 0x24 DUP3 ADD MSTORE PUSH15 0x10DA1958DACC8B4C4811985A5B1959 PUSH1 0x8A SHL PUSH1 0x44 DUP3 ADD MSTORE PUSH1 0x64 SWAP1 REVERT JUMPDEST ISZERO PUSH2 0x16ED JUMPI JUMP JUMPDEST PUSH1 0x40 MLOAD PUSH3 0x461BCD PUSH1 0xE5 SHL DUP2 MSTORE PUSH1 0x20 PUSH1 0x4 DUP3 ADD MSTORE PUSH1 0xF PUSH1 0x24 DUP3 ADD MSTORE PUSH15 0x10DA1958DACC8B4C8811985A5B1959 PUSH1 0x8A SHL PUSH1 0x44 DUP3 ADD MSTORE PUSH1 0x64 SWAP1 REVERT JUMPDEST ISZERO PUSH2 0x172B JUMPI JUMP JUMPDEST PUSH1 0x40 MLOAD PUSH3 0x461BCD PUSH1 0xE5 SHL DUP2 MSTORE PUSH1 0x20 PUSH1 0x4 DUP3 ADD MSTORE PUSH1 0xD PUSH1 0x24 DUP3 ADD MSTORE PUSH13 0x10DA1958DACCC811985A5B1959 PUSH1 0x9A SHL PUSH1 0x44 DUP3 ADD MSTORE PUSH1 0x64 SWAP1 REVERT JUMPDEST PUSH1 0x1F DUP3 GT PUSH2 0x176D JUMPI POP POP POP JUMP JUMPDEST PUSH0 MSTORE PUSH1 0x20 PUSH0 KECCAK256 SWAP1 PUSH1 0x20 PUSH1 0x1F DUP5 ADD PUSH1 0x5 SHR DUP4 ADD SWAP4 LT PUSH2 0x17A5 JUMPI JUMPDEST PUSH1 0x1F ADD PUSH1 0x5 SHR ADD SWAP1 JUMPDEST DUP2 DUP2 LT PUSH2 0x179A JUMPI POP POP JUMP JUMPDEST PUSH0 DUP2 SSTORE PUSH1 0x1 ADD PUSH2 0x178F JUMP JUMPDEST SWAP1 SWAP2 POP DUP2 SWAP1 PUSH2 0x1786 JUMP JUMPDEST SWAP2 SWAP1 PUSH1 0x1 PUSH1 0x1 PUSH1 0x40 SHL SUB DUP2 GT PUSH2 0x17F JUMPI PUSH2 0x17D3 DUP2 PUSH2 0x17CD PUSH0 SLOAD PUSH2 0x5BA JUMP JUMPDEST PUSH0 PUSH2 0x1760 JUMP JUMPDEST PUSH0 PUSH1 0x1F DUP3 GT PUSH1 0x1 EQ PUSH2 0x1810 JUMPI DUP2 SWAP1 PUSH2 0x1801 SWAP4 SWAP5 PUSH0 SWAP3 PUSH2 0x1805 JUMPI JUMPDEST POP POP DUP2 PUSH1 0x1 SHL SWAP2 PUSH0 NOT SWAP1 PUSH1 0x3 SHL SHR NOT AND OR SWAP1 JUMP JUMPDEST PUSH0 SSTORE JUMP JUMPDEST ADD CALLDATALOAD SWAP1 POP PUSH0 DUP1 PUSH2 0x17ED JUMP JUMPDEST PUSH0 DUP1 MSTORE PUSH1 0x1F NOT DUP3 AND SWAP4 PUSH32 0x290DECD9548B62A8D60345A988386FC84BA6BC95484008F6362F93160EF3E563 SWAP2 PUSH0 JUMPDEST DUP7 DUP2 LT PUSH2 0x1873 JUMPI POP DUP4 PUSH1 0x1 SWAP6 SWAP7 LT PUSH2 0x185A JUMPI JUMPDEST POP POP POP DUP2 SHL ADD PUSH0 SSTORE JUMP JUMPDEST ADD CALLDATALOAD PUSH0 NOT PUSH1 0x3 DUP5 SWAP1 SHL PUSH1 0xF8 AND SHR NOT AND SWAP1 SSTORE PUSH0 DUP1 DUP1 PUSH2 0x1850 JUMP JUMPDEST SWAP1 SWAP3 PUSH1 0x20 PUSH1 0x1 DUP2 SWAP3 DUP7 DUP7 ADD CALLDATALOAD DUP2 SSTORE ADD SWAP5 ADD SWAP2 ADD PUSH2 0x183D JUMP JUMPDEST SWAP1 SWAP3 SWAP2 PUSH1 0x1 PUSH1 0x1 PUSH1 0x40 SHL SUB DUP2 GT PUSH2 0x17F JUMPI PUSH2 0x18B0 DUP2 PUSH2 0x18AA DUP5 SLOAD PUSH2 0x5BA JUMP JUMPDEST DUP5 PUSH2 0x1760 JUMP JUMPDEST PUSH0 PUSH1 0x1F DUP3 GT PUSH1 0x1 EQ PUSH2 0x18E2 JUMPI DUP2 SWAP1 PUSH2 0x18DE SWAP4 SWAP5 SWAP6 PUSH0 SWAP3 PUSH2 0x1805 JUMPI POP POP DUP2 PUSH1 0x1 SHL SWAP2 PUSH0 NOT SWAP1 PUSH1 0x3 SHL SHR NOT AND OR SWAP1 JUMP JUMPDEST SWAP1 SSTORE JUMP JUMPDEST PUSH1 0x1F NOT DUP3 AND SWAP5 PUSH2 0x18F5 DUP5 PUSH0 MSTORE PUSH1 0x20 PUSH0 KECCAK256 SWAP1 JUMP JUMPDEST SWAP2 PUSH0 JUMPDEST DUP8 DUP2 LT PUSH2 0x192F JUMPI POP DUP4 PUSH1 0x1 SWAP6 SWAP7 SWAP8 LT PUSH2 0x1916 JUMPI JUMPDEST POP POP POP DUP2 SHL ADD SWAP1 SSTORE JUMP JUMPDEST ADD CALLDATALOAD PUSH0 NOT PUSH1 0x3 DUP5 SWAP1 SHL PUSH1 0xF8 AND SHR NOT AND SWAP1 SSTORE PUSH0 DUP1 DUP1 PUSH2 0x190C JUMP JUMPDEST SWAP1 SWAP3 PUSH1 0x20 PUSH1 0x1 DUP2 SWAP3 DUP7 DUP7 ADD CALLDATALOAD DUP2 SSTORE ADD SWAP5 ADD SWAP2 ADD PUSH2 0x18F8 JUMP JUMPDEST SWAP3 SWAP1 PUSH2 0x1147 SWAP1 PUSH2 0x1F0 SWAP6 SWAP4 PUSH1 0x40 DUP7 MSTORE PUSH1 0x40 DUP7 ADD SWAP2 PUSH2 0x10A9 JUMP JUMPDEST SWAP1 DUP2 MLOAD DUP2 LT ISZERO PUSH2 0x5B5 JUMPI ADD PUSH1 0x20 ADD SWAP1 JUMP JUMPDEST SWAP1 DUP3 LT ISZERO PUSH2 0x5B5 JUMPI ADD SWAP1 JUMP JUMPDEST SWAP6 SWAP2 SWAP6 SWAP5 SWAP3 SWAP5 PUSH2 0x1990 DUP7 PUSH2 0xC1B DUP5 PUSH2 0x11B5 JUMP JUMPDEST PUSH2 0x19AC PUSH1 0x40 MLOAD PUSH1 0x20 DUP2 ADD SWAP1 PUSH2 0x3B1 DUP2 PUSH2 0x3A3 DUP12 DUP14 DUP10 DUP10 DUP9 PUSH2 0x1519 JUMP JUMPDEST SWAP5 PUSH2 0x19C9 DUP9 PUSH1 0x40 MLOAD PUSH2 0x3B1 DUP2 PUSH2 0x3A3 DUP13 PUSH1 0x20 DUP4 ADD SWAP6 DUP11 DUP11 DUP9 PUSH2 0x1549 JUMP JUMPDEST SWAP1 PUSH1 0x1 SWAP5 PUSH2 0x19D9 PUSH2 0x3DC DUP7 PUSH2 0x11CB JUMP JUMPDEST SWAP10 PUSH2 0x19E9 PUSH2 0x3DC PUSH2 0xC7A DUP13 PUSH2 0x1177 JUMP JUMPDEST PUSH2 0x19F8 PUSH2 0x3DC PUSH2 0xC8F DUP10 PUSH2 0x1169 JUMP JUMPDEST SWAP11 PUSH2 0x1A08 PUSH2 0x3DC PUSH2 0xC7A DUP4 PUSH2 0x1186 JUMP JUMPDEST SWAP5 PUSH0 SWAP11 PUSH0 SWAP12 JUMPDEST PUSH2 0x1A17 DUP12 PUSH2 0x1169 JUMP JUMPDEST DUP14 GT PUSH2 0x1A6B JUMPI DUP16 DUP15 PUSH2 0x1A5C DUP16 SWAP3 DUP16 DUP16 SWAP1 DUP16 DUP8 PUSH2 0xD09 PUSH2 0x1A64 SWAP10 DUP7 PUSH2 0xD03 DUP12 DUP9 DUP8 PUSH2 0xCFE PUSH0 MLOAD PUSH1 0x20 PUSH2 0x1F18 PUSH0 CODECOPY PUSH0 MLOAD SWAP1 PUSH0 MSTORE SWAP16 PUSH2 0xCF6 PUSH1 0x80 SWAP2 PUSH2 0x463 SWAP15 PUSH2 0xD0E SWAP14 PUSH2 0x12CB JUMP JUMPDEST SWAP14 MULMOD SWAP13 PUSH2 0x1243 JUMP JUMPDEST SWAP12 SWAP11 PUSH2 0x1A0E JUMP JUMPDEST POP SWAP4 SWAP11 POP SWAP4 SWAP7 SWAP11 SWAP5 SWAP12 SWAP2 SWAP9 POP SWAP7 SWAP5 SWAP12 PUSH2 0x1A83 SWAP1 PUSH2 0x1430 JUMP JUMPDEST PUSH0 SWAP11 DUP14 SWAP8 DUP13 JUMPDEST DUP14 PUSH2 0x1A99 PUSH2 0xD4F PUSH2 0xD4F DUP13 PUSH2 0x11F9 JUMP JUMPDEST LT PUSH2 0x1B22 JUMPI DUP16 SWAP1 DUP13 SWAP1 DUP16 DUP16 DUP15 SWAP1 PUSH2 0x1AAF DUP15 PUSH2 0x1169 JUMP JUMPDEST DUP4 EQ DUP1 ISZERO PUSH2 0x1B19 JUMPI JUMPDEST PUSH2 0x1AF9 JUMPI DUP15 PUSH2 0xD0E DUP6 PUSH2 0x453 PUSH2 0x1AF2 SWAP10 SWAP8 DUP10 PUSH2 0x44D PUSH2 0x1AEA SWAP10 PUSH0 MLOAD PUSH1 0x20 PUSH2 0x1F18 PUSH0 CODECOPY PUSH0 MLOAD SWAP1 PUSH0 MSTORE SWAP13 SWAP10 PUSH2 0x463 SWAP10 PUSH2 0x12CB JUMP JUMPDEST SWAP12 MULMOD SWAP14 PUSH2 0x1243 JUMP JUMPDEST SWAP13 SWAP9 PUSH2 0x1A89 JUMP JUMPDEST POP POP POP SWAP11 PUSH0 MLOAD PUSH1 0x20 PUSH2 0x1F18 PUSH0 CODECOPY PUSH0 MLOAD SWAP1 PUSH0 MSTORE SWAP2 POP SWAP2 PUSH2 0x1AF2 SWAP3 MULMOD SWAP14 PUSH2 0x1243 JUMP JUMPDEST POP DUP14 DUP4 EQ PUSH2 0x1AB8 JUMP JUMPDEST POP SWAP7 SWAP9 SWAP6 SWAP14 SWAP5 SWAP13 SWAP3 SWAP11 SWAP4 SWAP10 PUSH2 0x1B3E SWAP3 SWAP13 POP PUSH2 0xDF3 SWAP2 SWAP9 POP PUSH2 0x1033 JUMP JUMPDEST SWAP4 PUSH0 SWAP11 DUP14 SWAP10 PUSH0 SWAP13 JUMPDEST DUP14 PUSH2 0x1B53 PUSH2 0xD4F DUP14 PUSH2 0x1169 JUMP JUMPDEST LT PUSH2 0x1B9A JUMPI DUP16 PUSH0 MLOAD PUSH1 0x20 PUSH2 0x1F18 PUSH0 CODECOPY PUSH0 MLOAD SWAP1 PUSH0 MSTORE SWAP1 DUP16 DUP16 DUP16 DUP16 SWAP1 DUP16 DUP8 PUSH2 0xD09 PUSH2 0x1B93 SWAP10 DUP7 PUSH2 0xD03 PUSH2 0x1B8B SWAP10 PUSH2 0x463 SWAP9 PUSH2 0xD0E SWAP8 PUSH2 0x12CB JUMP JUMPDEST SWAP14 MULMOD SWAP14 PUSH2 0x1243 JUMP JUMPDEST SWAP13 SWAP11 PUSH2 0x1B46 JUMP JUMPDEST POP SWAP5 SWAP12 POP SWAP10 PUSH2 0xE6B SWAP2 SWAP8 SWAP7 SWAP14 POP PUSH2 0x1BB6 SWAP3 SWAP9 SWAP6 SWAP13 SWAP4 SWAP10 POP PUSH2 0x1430 JUMP JUMPDEST PUSH0 SWAP9 PUSH1 0x1 SWAP6 SWAP2 DUP11 JUMPDEST PUSH2 0x1BCA PUSH2 0xD4F DUP9 PUSH2 0x11F9 JUMP JUMPDEST DUP13 GT PUSH2 0x1C4A JUMPI DUP10 DUP14 SWAP2 DUP14 DUP12 DUP15 DUP12 DUP4 EQ DUP1 ISZERO PUSH2 0x1C39 JUMPI JUMPDEST PUSH2 0x1C19 JUMPI DUP13 PUSH2 0xD0E DUP6 PUSH2 0x453 PUSH2 0x1C12 SWAP10 SWAP8 DUP10 PUSH2 0x44D PUSH2 0xED5 SWAP10 PUSH0 MLOAD PUSH1 0x20 PUSH2 0x1F18 PUSH0 CODECOPY PUSH0 MLOAD SWAP1 PUSH0 MSTORE SWAP13 SWAP10 PUSH2 0x463 SWAP10 PUSH2 0x12CB JUMP JUMPDEST SWAP11 SWAP7 PUSH2 0x1BBE JUMP JUMPDEST POP POP POP SWAP9 PUSH0 MLOAD PUSH1 0x20 PUSH2 0x1F18 PUSH0 CODECOPY PUSH0 MLOAD SWAP1 PUSH0 MSTORE SWAP2 POP SWAP2 PUSH2 0x1C12 SWAP3 MULMOD SWAP12 PUSH2 0x1243 JUMP JUMPDEST POP PUSH2 0x1C43 DUP13 PUSH2 0x1337 JUMP JUMPDEST DUP4 EQ PUSH2 0x1BE0 JUMP JUMPDEST POP PUSH2 0x1CF4 SWAP10 SWAP4 SWAP12 POP PUSH2 0x1CFF SWAP11 POP PUSH2 0x1CE8 SWAP7 POP SWAP7 PUSH2 0x1C7E PUSH2 0xF8D PUSH2 0x3B1 SWAP4 PUSH2 0x1CE2 SWAP8 SWAP16 SWAP11 PUSH2 0x1CEF SWAP12 PUSH2 0xF7D PUSH2 0x3A3 SWAP9 SWAP15 PUSH2 0x1033 JUMP JUMPDEST PUSH2 0x1CB0 PUSH2 0xFD9 DUP6 DUP12 PUSH2 0xFC1 PUSH2 0xF7D DUP12 PUSH2 0x56A DUP2 PUSH2 0xFD1 PUSH2 0xFC7 PUSH2 0x1C9F PUSH2 0x1345 JUMP JUMPDEST SWAP9 DUP13 PUSH2 0xFB9 PUSH2 0xFB1 PUSH2 0xFAA DUP8 PUSH2 0x1337 JUMP JUMPDEST PUSH2 0x1CC2 PUSH1 0x1 PUSH2 0xFF0 PUSH2 0x90B DUP10 DUP14 PUSH2 0x1251 JUMP JUMPDEST PUSH2 0x1CCF PUSH2 0xFFE DUP8 DUP12 PUSH2 0x1251 JUMP JUMPDEST PUSH1 0x40 MLOAD SWAP3 DUP4 SWAP2 PUSH1 0x20 DUP4 ADD SWAP6 DUP9 DUP13 DUP9 PUSH2 0x1947 JUMP JUMPDEST SWAP4 PUSH2 0x1251 JUMP JUMPDEST CALLDATASIZE SWAP2 PUSH2 0x19F JUMP JUMPDEST PUSH2 0x14D9 JUMP JUMPDEST PUSH2 0x2CE CALLDATASIZE DUP6 DUP6 PUSH2 0x19F JUMP JUMPDEST SWAP2 PUSH0 JUMPDEST PUSH1 0x80 DUP2 LT PUSH2 0x1D13 JUMPI POP POP POP POP PUSH1 0x1 SWAP1 JUMP JUMPDEST PUSH2 0x1D2E PUSH2 0x1D20 DUP3 DUP7 PUSH2 0x1960 JUMP JUMPDEST MLOAD PUSH1 0x1 PUSH1 0x1 PUSH1 0xF8 SHL SUB NOT AND SWAP1 JUMP JUMPDEST PUSH2 0x1D5A PUSH2 0x1D4D PUSH2 0x1D3F DUP5 DUP7 DUP9 PUSH2 0x1971 JUMP JUMPDEST CALLDATALOAD PUSH1 0x1 PUSH1 0x1 PUSH1 0xF8 SHL SUB NOT AND SWAP1 JUMP JUMPDEST PUSH1 0x1 PUSH1 0x1 PUSH1 0xF8 SHL SUB NOT AND SWAP1 JUMP JUMPDEST PUSH1 0x1 PUSH1 0x1 PUSH1 0xF8 SHL SUB NOT SWAP1 SWAP2 AND SUB PUSH2 0x1D73 JUMPI PUSH1 0x1 ADD PUSH2 0x1D02 JUMP JUMPDEST POP POP POP POP PUSH0 SWAP1 JUMP JUMPDEST PUSH0 SWAP2 SWAP1 PUSH2 0x3A3 PUSH2 0x1D9A DUP5 SWAP4 PUSH1 0x40 MLOAD SWAP3 DUP4 SWAP2 PUSH2 0x851 PUSH1 0x20 DUP5 ADD DUP1 SWAP8 PUSH2 0x1049 JUMP JUMPDEST MLOAD SWAP1 PUSH1 0xD GAS STATICCALL POP PUSH2 0x1F0 PUSH2 0x1004 JUMP JUMPDEST SWAP1 PUSH1 0x2 SLOAD SWAP2 PUSH1 0x1 PUSH1 0x40 SHL DUP4 LT ISZERO PUSH2 0x17F JUMPI PUSH1 0x1 DUP4 ADD PUSH1 0x2 SSTORE PUSH1 0x2 SLOAD DUP4 LT ISZERO PUSH2 0x5B5 JUMPI PUSH1 0x2 PUSH0 MSTORE PUSH2 0x628 SWAP3 PUSH32 0x405787FA12A823E0F2B7631CC41B3BA8828B3321CA811111FA75CD3AA3BB5ACE ADD PUSH2 0x188B JUMP JUMPDEST SWAP1 PUSH1 0x3 SLOAD SWAP2 PUSH1 0x1 PUSH1 0x40 SHL DUP4 LT ISZERO PUSH2 0x17F JUMPI PUSH1 0x1 DUP4 ADD PUSH1 0x3 SSTORE PUSH1 0x3 SLOAD DUP4 LT ISZERO PUSH2 0x5B5 JUMPI PUSH1 0x3 PUSH0 MSTORE PUSH2 0x628 SWAP3 PUSH32 0xC2575A0E9E593C00F959F8C92F12DB2869C3395A3B0502D05E2516446F71F85B ADD PUSH2 0x188B JUMP JUMPDEST ISZERO PUSH2 0x1E52 JUMPI JUMP JUMPDEST PUSH1 0x40 MLOAD PUSH3 0x461BCD PUSH1 0xE5 SHL DUP2 MSTORE PUSH1 0x20 PUSH1 0x4 DUP3 ADD MSTORE PUSH1 0xD PUSH1 0x24 DUP3 ADD MSTORE PUSH13 0x10DA1958DACC4811985A5B1959 PUSH1 0x9A SHL PUSH1 0x44 DUP3 ADD MSTORE PUSH1 0x64 SWAP1 REVERT JUMPDEST SWAP1 PUSH2 0x100 SWAP3 PUSH1 0x20 SWAP2 ADD ADD CALLDATACOPY JUMP JUMPDEST SWAP1 PUSH1 0x80 SWAP3 PUSH1 0x20 SWAP2 ADD ADD CALLDATACOPY JUMP JUMPDEST SWAP2 SWAP1 SWAP2 DUP1 SLOAD PUSH1 0x1 DUP2 AND ISZERO PUSH2 0x146 JUMPI PUSH2 0x100 SWAP1 PUSH0 NOT ADD PUSH1 0x1 SHR SUB PUSH2 0x146 JUMPI PUSH2 0x100 SWAP2 PUSH1 0x7 SWAP2 PUSH0 MSTORE PUSH1 0x20 PUSH0 KECCAK256 SWAP4 ADD SWAP3 DUP1 SLOAD PUSH1 0x20 DUP6 ADD MSTORE PUSH1 0x1 DUP2 ADD SLOAD PUSH1 0x40 DUP6 ADD MSTORE PUSH1 0x2 DUP2 ADD SLOAD PUSH1 0x60 DUP6 ADD MSTORE PUSH1 0x3 DUP2 ADD SLOAD PUSH1 0x80 DUP6 ADD MSTORE PUSH1 0x4 DUP2 ADD SLOAD PUSH1 0xA0 DUP6 ADD MSTORE PUSH1 0x5 DUP2 ADD SLOAD PUSH1 0xC0 DUP6 ADD MSTORE PUSH1 0x6 DUP2 ADD SLOAD PUSH1 0xE0 DUP6 ADD MSTORE ADD SLOAD SWAP2 ADD MSTORE JUMP INVALID PUSH20 0xEDA753299D7D483339D80809A1D80553BDA402FF INVALID JUMPDEST INVALID SELFDESTRUCT SELFDESTRUCT SELFDESTRUCT SELFDESTRUCT STOP STOP STOP ADD LOG2 PUSH5 0x6970667358 0x22 SLT KECCAK256 SWAP10 0x26 0xB0 STOP 0xBD DUP12 SWAP10 PUSH9 0xA6AF67277C67482A92 0xB0 CALLVALUE 0xB9 DUPN 0x57 PUSH31 0x387E73F8DEA357863E64736F6C634300081F0033290DECD9548B62A8D60345 0xA9 DUP9 CODESIZE PUSH16 0xC84BA6BC95484008F6362F93160EF3E5 PUSH4 0x0 "
		},
		"gasEstimates": {
			"creation": {
				"codeDepositCost": "1609000",
				"executionCost": "infinite",
				"totalCost": "infinite"
			},
			"external": {
				"Check(bytes[],bytes[],bytes)": "infinite",
				"CheckKey(bytes,bytes[],uint256)": "infinite",
				"CheckTest(bytes[],bytes[],bytes,uint256)": "infinite",
				"EqualPairingCheck(bytes,bytes,bytes,bytes)": "infinite",
				"G1Add(bytes,bytes)": "infinite",
				"G1Mul(bytes,uint256)": "infinite",
				"G1Muls(bytes)": "infinite",
				"G2Add(bytes,bytes)": "infinite",
				"G2Mul(bytes,uint256)": "infinite",
				"G2Muls(bytes)": "infinite",
				"Pairing(bytes,bytes,bytes,bytes)": "infinite",
				"SetPP(bytes[],bytes[])": "infinite",
				"ZeroCheck(bytes)": "634",
				"lastg()": "infinite",
				"ppg1s(uint256)": "infinite",
				"ppg2s(uint256)": "infinite",
				"w()": "2260"
			},
			"internal": {
				"CopyBytes(bytes calldata,uint256,bytes memory,uint256,uint256)": "infinite",
				"CopyStorageBytes256(bytes storage pointer,bytes memory,uint256)": "infinite",
				"CopyUint(uint256,bytes memory,uint256)": "infinite"
			}
		},
		"methodIdentifiers": {
			"Check(bytes[],bytes[],bytes)": "e86d06c7",
			"CheckKey(bytes,bytes[],uint256)": "51e54308",
			"CheckTest(bytes[],bytes[],bytes,uint256)": "c588e555",
			"EqualPairingCheck(bytes,bytes,bytes,bytes)": "6f18b669",
			"G1Add(bytes,bytes)": "4d919405",
			"G1Mul(bytes,uint256)": "c1f2c915",
			"G1Muls(bytes)": "6592041a",
			"G2Add(bytes,bytes)": "d6385d60",
			"G2Mul(bytes,uint256)": "af1d0bd9",
			"G2Muls(bytes)": "3f009c16",
			"Pairing(bytes,bytes,bytes,bytes)": "5cdc73ef",
			"SetPP(bytes[],bytes[])": "e63c1828",
			"ZeroCheck(bytes)": "a66339b7",
			"lastg()": "8a2ba01c",
			"ppg1s(uint256)": "54b57f70",
			"ppg2s(uint256)": "e6859b9a",
			"w()": "205c9cc7"
		}
	},
	"abi": [
		{
			"inputs": [
				{
					"internalType": "bytes[]",
					"name": "g1s",
					"type": "bytes[]"
				},
				{
					"internalType": "bytes[]",
					"name": "g2s",
					"type": "bytes[]"
				},
				{
					"internalType": "bytes",
					"name": "gtau",
					"type": "bytes"
				}
			],
			"name": "Check",
			"outputs": [
				{
					"internalType": "bool",
					"name": "",
					"type": "bool"
				}
			],
			"stateMutability": "nonpayable",
			"type": "function"
		},
		{
			"inputs": [
				{
					"internalType": "bytes",
					"name": "g1s",
					"type": "bytes"
				},
				{
					"internalType": "bytes[]",
					"name": "g2s",
					"type": "bytes[]"
				},
				{
					"internalType": "uint256",
					"name": "index",
					"type": "uint256"
				}
			],
			"name": "CheckKey",
			"outputs": [
				{
					"internalType": "bool",
					"name": "",
					"type": "bool"
				}
			],
			"stateMutability": "nonpayable",
			"type": "function"
		},
		{
			"inputs": [
				{
					"internalType": "bytes[]",
					"name": "g1s",
					"type": "bytes[]"
				},
				{
					"internalType": "bytes[]",
					"name": "g2s",
					"type": "bytes[]"
				},
				{
					"internalType": "bytes",
					"name": "pi1",
					"type": "bytes"
				},
				{
					"internalType": "uint256",
					"name": "pi2",
					"type": "uint256"
				}
			],
			"name": "CheckTest",
			"outputs": [
				{
					"internalType": "bool",
					"name": "",
					"type": "bool"
				}
			],
			"stateMutability": "nonpayable",
			"type": "function"
		},
		{
			"inputs": [
				{
					"internalType": "bytes",
					"name": "p1",
					"type": "bytes"
				},
				{
					"internalType": "bytes",
					"name": "p2",
					"type": "bytes"
				},
				{
					"internalType": "bytes",
					"name": "p3",
					"type": "bytes"
				},
				{
					"internalType": "bytes",
					"name": "p4",
					"type": "bytes"
				}
			],
			"name": "EqualPairingCheck",
			"outputs": [
				{
					"internalType": "bool",
					"name": "",
					"type": "bool"
				}
			],
			"stateMutability": "view",
			"type": "function"
		},
		{
			"inputs": [
				{
					"internalType": "bytes",
					"name": "p1",
					"type": "bytes"
				},
				{
					"internalType": "bytes",
					"name": "p2",
					"type": "bytes"
				}
			],
			"name": "G1Add",
			"outputs": [
				{
					"internalType": "bytes",
					"name": "point",
					"type": "bytes"
				}
			],
			"stateMutability": "view",
			"type": "function"
		},
		{
			"inputs": [
				{
					"internalType": "bytes",
					"name": "p1",
					"type": "bytes"
				},
				{
					"internalType": "uint256",
					"name": "scalar",
					"type": "uint256"
				}
			],
			"name": "G1Mul",
			"outputs": [
				{
					"internalType": "bytes",
					"name": "point",
					"type": "bytes"
				}
			],
			"stateMutability": "view",
			"type": "function"
		},
		{
			"inputs": [
				{
					"internalType": "bytes",
					"name": "d",
					"type": "bytes"
				}
			],
			"name": "G1Muls",
			"outputs": [
				{
					"internalType": "bytes",
					"name": "point",
					"type": "bytes"
				}
			],
			"stateMutability": "view",
			"type": "function"
		},
		{
			"inputs": [
				{
					"internalType": "bytes",
					"name": "p1",
					"type": "bytes"
				},
				{
					"internalType": "bytes",
					"name": "p2",
					"type": "bytes"
				}
			],
			"name": "G2Add",
			"outputs": [
				{
					"internalType": "bytes",
					"name": "point",
					"type": "bytes"
				}
			],
			"stateMutability": "view",
			"type": "function"
		},
		{
			"inputs": [
				{
					"internalType": "bytes",
					"name": "p1",
					"type": "bytes"
				},
				{
					"internalType": "uint256",
					"name": "scalar",
					"type": "uint256"
				}
			],
			"name": "G2Mul",
			"outputs": [
				{
					"internalType": "bytes",
					"name": "point",
					"type": "bytes"
				}
			],
			"stateMutability": "view",
			"type": "function"
		},
		{
			"inputs": [
				{
					"internalType": "bytes",
					"name": "d",
					"type": "bytes"
				}
			],
			"name": "G2Muls",
			"outputs": [
				{
					"internalType": "bytes",
					"name": "point",
					"type": "bytes"
				}
			],
			"stateMutability": "view",
			"type": "function"
		},
		{
			"inputs": [
				{
					"internalType": "bytes",
					"name": "p1",
					"type": "bytes"
				},
				{
					"internalType": "bytes",
					"name": "p2",
					"type": "bytes"
				},
				{
					"internalType": "bytes",
					"name": "p3",
					"type": "bytes"
				},
				{
					"internalType": "bytes",
					"name": "p4",
					"type": "bytes"
				}
			],
			"name": "Pairing",
			"outputs": [
				{
					"internalType": "bool",
					"name": "",
					"type": "bool"
				}
			],
			"stateMutability": "view",
			"type": "function"
		},
		{
			"inputs": [
				{
					"internalType": "bytes[]",
					"name": "g1s",
					"type": "bytes[]"
				},
				{
					"internalType": "bytes[]",
					"name": "g2s",
					"type": "bytes[]"
				}
			],
			"name": "SetPP",
			"outputs": [],
			"stateMutability": "nonpayable",
			"type": "function"
		},
		{
			"inputs": [
				{
					"internalType": "bytes",
					"name": "x",
					"type": "bytes"
				}
			],
			"name": "ZeroCheck",
			"outputs": [
				{
					"internalType": "bool",
					"name": "ok",
					"type": "bool"
				}
			],
			"stateMutability": "pure",
			"type": "function"
		},
		{
			"inputs": [],
			"name": "lastg",
			"outputs": [
				{
					"internalType": "bytes",
					"name": "",
					"type": "bytes"
				}
			],
			"stateMutability": "view",
			"type": "function"
		},
		{
			"inputs": [
				{
					"internalType": "uint256",
					"name": "",
					"type": "uint256"
				}
			],
			"name": "ppg1s",
			"outputs": [
				{
					"internalType": "bytes",
					"name": "",
					"type": "bytes"
				}
			],
			"stateMutability": "view",
			"type": "function"
		},
		{
			"inputs": [
				{
					"internalType": "uint256",
					"name": "",
					"type": "uint256"
				}
			],
			"name": "ppg2s",
			"outputs": [
				{
					"internalType": "bytes",
					"name": "",
					"type": "bytes"
				}
			],
			"stateMutability": "view",
			"type": "function"
		},
		{
			"inputs": [],
			"name": "w",
			"outputs": [
				{
					"internalType": "bool",
					"name": "",
					"type": "bool"
				}
			],
			"stateMutability": "view",
			"type": "function"
		}
	]
}