{
	"data": {
		"bytecode": {
			"linkReferences": {},
			"object": "60808060405234601557610970908161001a8239f35b5f80fdfe60806040526004361015610011575f80fd5b5f3560e01c80633f009c16146105c45780634d9194051461059d5780635cdc73ef146104805780636592041a14610467578063af1d0bd91461043f578063afef7de314610127578063c1f2c915146100db5763d6385d6014610071575f80fd5b346100d7575f8060206100b5610086366106f8565b809493959160405195848795858701998a378501918483018a815237010185815203601f1981018352826105ea565b5190600d5afa506100d36100c76107aa565b604051918291826106a1565b0390f35b5f80fd5b346100d7575f806020806101156100f136610748565b939194906040519481869284840198893782019083820152030180845201826105ea565b5190600c5afa506100d36100c76107aa565b346100d75760403660031901126100d7576004356001600160401b0381116100d75761015790369060040161077a565b906024356001600160401b0381116100d75761017790369060040161077a565b9190928060011b9080159181810460021483171561042b5784036100d75761022a6102156040516020810190606082526101e3816101cf6101bc60808301898c610805565b828103601f190160408401528b8d610805565b5f606083015203601f1981018352826105ea565b51902096604051918291606060208401528861020360808501888b610805565b848103601f1901604086015291610805565b600160608301520390601f19820181526105ea565b6001925f9260a083029083820460a014171561042b576102499061089c565b91600119860195861161042b57610120860295808704610120149015171561042b576102748661089c565b505f19810181811196908761042b5760a081029181830460a0148215171561042b579091966102ac6102a68a9961089c565b9261089c565b505f975b61042b5789908389116103655790899392915f5b8a608082106103185750505f5b602081106102f657506102ed916102e7916107f2565b986108ce565b979091926102b0565b826001929394959650811a61030b8b8b610929565b5301908a949392916102d1565b60019293949596509981610344610334610358949d8b8d6108dc565b6001600160f81b0319939161091d565b35165f1a610352828c610929565b536108ce565b9801908a949392916102c4565b505090879650610374856107d9565b50885f975b61042b57600119840182811161042b5788116104175789905f5b89608082106103fa5750505f5b601f8111156103c457506103bd916103b7916107f2565b976108ce565b9688610379565b915060208210156103e6576103e1828c80941a6103528b8b610929565b6103a0565b634e487b7160e01b5f52603260045260245ffd5b8199600192610344610334610410948b8d6108dc565b9801610393565b610420836107d9565b5060206040515f8152f35b634e487b7160e01b5f52601160045260245ffd5b346100d7575f806020806104556100f136610748565b5190600e5afa506100d36100c76107aa565b346100d7576100d36100c761047b3661063a565b6107d9565b346100d75760803660031901126100d7576004356001600160401b0381116100d7576104b09036906004016106cb565b6024356001600160401b0381116100d7576104cf9036906004016106cb565b91906044356001600160401b0381116100d7576104f09036906004016106cb565b6064929192356001600160401b0381116100d757859382916105169036906004016106cb565b958694919560405199898b9a60208c019d8e378a0191602083015f81523701602001915f8352823701915f83528237015f815203601f198101825261055b90826105ea565b51905a915f9291600f8493fa506105706107aa565b80516020918201519082811061058d575b50600160405191148152f35b5f1990830360031b1b1682610581565b346100d7575f8060206105b2610086366106f8565b5190600b5afa506100d36100c76107aa565b346100d7575f806105d43661063a565b602081519101600e5afa506100d36100c76107aa565b90601f801991011681019081106001600160401b0382111761060b57604052565b634e487b7160e01b5f52604160045260245ffd5b6001600160401b03811161060b57601f01601f191660200190565b60206003198201126100d7576004356001600160401b0381116100d757816023820112156100d7578060040135906106718261061f565b9261067f60405194856105ea565b828452602483830101116100d757815f92602460209301838601378301015290565b602060409281835280519182918282860152018484015e5f828201840152601f01601f1916010190565b9181601f840112156100d7578235916001600160401b0383116100d757602083818601950101116100d757565b60406003198201126100d7576004356001600160401b0381116100d75781610722916004016106cb565b92909291602435906001600160401b0382116100d757610744916004016106cb565b9091565b60406003198201126100d757600435906001600160401b0382116100d757610772916004016106cb565b909160243590565b9181601f840112156100d7578235916001600160401b0383116100d7576020808501948460051b0101116100d757565b3d156107d4573d906107bb8261061f565b916107c960405193846105ea565b82523d5f602084013e565b606090565b5f8091602081519101600c5afa506107ef6107aa565b90565b8181029291811591840414171561042b57565b90602083828152019060208160051b85010193835f915b83831061082c5750505050505090565b909192939495601f198282030186528635601e19843603018112156100d757830190602082359201916001600160401b0381116100d75780360383136100d7576020828280600196849695859652848401375f828201840152601f01601f1916010198019601949301919061081c565b906108a68261061f565b6108b360405191826105ea565b82815280926108c4601f199161061f565b0190602036910137565b5f19811461042b5760010190565b91908110156103e65760051b81013590601e19813603018212156100d75701908135916001600160401b0383116100d75760200182360381136100d7579190565b908210156103e6570190565b9081518110156103e657016020019056fea26469706673582212205bd6e6b1d905b252b60548736a3486ccf43986f34bf31159570fd7f4dbde882f64736f6c634300081f0033",
			"opcodes": "PUSH1 0x80 DUP1 PUSH1 0x40 MSTORE CALLVALUE PUSH1 0x15 JUMPI PUSH2 0x970 SWAP1 DUP2 PUSH2 0x1A DUP3 CODECOPY RETURN JUMPDEST PUSH0 DUP1 REVERT INVALID PUSH1 0x80 PUSH1 0x40 MSTORE PUSH1 0x4 CALLDATASIZE LT ISZERO PUSH2 0x11 JUMPI PUSH0 DUP1 REVERT JUMPDEST PUSH0 CALLDATALOAD PUSH1 0xE0 SHR DUP1 PUSH4 0x3F009C16 EQ PUSH2 0x5C4 JUMPI DUP1 PUSH4 0x4D919405 EQ PUSH2 0x59D JUMPI DUP1 PUSH4 0x5CDC73EF EQ PUSH2 0x480 JUMPI DUP1 PUSH4 0x6592041A EQ PUSH2 0x467 JUMPI DUP1 PUSH4 0xAF1D0BD9 EQ PUSH2 0x43F JUMPI DUP1 PUSH4 0xAFEF7DE3 EQ PUSH2 0x127 JUMPI DUP1 PUSH4 0xC1F2C915 EQ PUSH2 0xDB JUMPI PUSH4 0xD6385D60 EQ PUSH2 0x71 JUMPI PUSH0 DUP1 REVERT JUMPDEST CALLVALUE PUSH2 0xD7 JUMPI PUSH0 DUP1 PUSH1 0x20 PUSH2 0xB5 PUSH2 0x86 CALLDATASIZE PUSH2 0x6F8 JUMP JUMPDEST DUP1 SWAP5 SWAP4 SWAP6 SWAP2 PUSH1 0x40 MLOAD SWAP6 DUP5 DUP8 SWAP6 DUP6 DUP8 ADD SWAP10 DUP11 CALLDATACOPY DUP6 ADD SWAP2 DUP5 DUP4 ADD DUP11 DUP2 MSTORE CALLDATACOPY ADD ADD DUP6 DUP2 MSTORE SUB PUSH1 0x1F NOT DUP2 ADD DUP4 MSTORE DUP3 PUSH2 0x5EA JUMP JUMPDEST MLOAD SWAP1 PUSH1 0xD GAS STATICCALL POP PUSH2 0xD3 PUSH2 0xC7 PUSH2 0x7AA JUMP JUMPDEST PUSH1 0x40 MLOAD SWAP2 DUP3 SWAP2 DUP3 PUSH2 0x6A1 JUMP JUMPDEST SUB SWAP1 RETURN JUMPDEST PUSH0 DUP1 REVERT JUMPDEST CALLVALUE PUSH2 0xD7 JUMPI PUSH0 DUP1 PUSH1 0x20 DUP1 PUSH2 0x115 PUSH2 0xF1 CALLDATASIZE PUSH2 0x748 JUMP JUMPDEST SWAP4 SWAP2 SWAP5 SWAP1 PUSH1 0x40 MLOAD SWAP5 DUP2 DUP7 SWAP3 DUP5 DUP5 ADD SWAP9 DUP10 CALLDATACOPY DUP3 ADD SWAP1 DUP4 DUP3 ADD MSTORE SUB ADD DUP1 DUP5 MSTORE ADD DUP3 PUSH2 0x5EA JUMP JUMPDEST MLOAD SWAP1 PUSH1 0xC GAS STATICCALL POP PUSH2 0xD3 PUSH2 0xC7 PUSH2 0x7AA JUMP JUMPDEST CALLVALUE PUSH2 0xD7 JUMPI PUSH1 0x40 CALLDATASIZE PUSH1 0x3 NOT ADD SLT PUSH2 0xD7 JUMPI PUSH1 0x4 CALLDATALOAD PUSH1 0x1 PUSH1 0x1 PUSH1 0x40 SHL SUB DUP2 GT PUSH2 0xD7 JUMPI PUSH2 0x157 SWAP1 CALLDATASIZE SWAP1 PUSH1 0x4 ADD PUSH2 0x77A JUMP JUMPDEST SWAP1 PUSH1 0x24 CALLDATALOAD PUSH1 0x1 PUSH1 0x1 PUSH1 0x40 SHL SUB DUP2 GT PUSH2 0xD7 JUMPI PUSH2 0x177 SWAP1 CALLDATASIZE SWAP1 PUSH1 0x4 ADD PUSH2 0x77A JUMP JUMPDEST SWAP2 SWAP1 SWAP3 DUP1 PUSH1 0x1 SHL SWAP1 DUP1 ISZERO SWAP2 DUP2 DUP2 DIV PUSH1 0x2 EQ DUP4 OR ISZERO PUSH2 0x42B JUMPI DUP5 SUB PUSH2 0xD7 JUMPI PUSH2 0x22A PUSH2 0x215 PUSH1 0x40 MLOAD PUSH1 0x20 DUP2 ADD SWAP1 PUSH1 0x60 DUP3 MSTORE PUSH2 0x1E3 DUP2 PUSH2 0x1CF PUSH2 0x1BC PUSH1 0x80 DUP4 ADD DUP10 DUP13 PUSH2 0x805 JUMP JUMPDEST DUP3 DUP2 SUB PUSH1 0x1F NOT ADD PUSH1 0x40 DUP5 ADD MSTORE DUP12 DUP14 PUSH2 0x805 JUMP JUMPDEST PUSH0 PUSH1 0x60 DUP4 ADD MSTORE SUB PUSH1 0x1F NOT DUP2 ADD DUP4 MSTORE DUP3 PUSH2 0x5EA JUMP JUMPDEST MLOAD SWAP1 KECCAK256 SWAP7 PUSH1 0x40 MLOAD SWAP2 DUP3 SWAP2 PUSH1 0x60 PUSH1 0x20 DUP5 ADD MSTORE DUP9 PUSH2 0x203 PUSH1 0x80 DUP6 ADD DUP9 DUP12 PUSH2 0x805 JUMP JUMPDEST DUP5 DUP2 SUB PUSH1 0x1F NOT ADD PUSH1 0x40 DUP7 ADD MSTORE SWAP2 PUSH2 0x805 JUMP JUMPDEST PUSH1 0x1 PUSH1 0x60 DUP4 ADD MSTORE SUB SWAP1 PUSH1 0x1F NOT DUP3 ADD DUP2 MSTORE PUSH2 0x5EA JUMP JUMPDEST PUSH1 0x1 SWAP3 PUSH0 SWAP3 PUSH1 0xA0 DUP4 MUL SWAP1 DUP4 DUP3 DIV PUSH1 0xA0 EQ OR ISZERO PUSH2 0x42B JUMPI PUSH2 0x249 SWAP1 PUSH2 0x89C JUMP JUMPDEST SWAP2 PUSH1 0x1 NOT DUP7 ADD SWAP6 DUP7 GT PUSH2 0x42B JUMPI PUSH2 0x120 DUP7 MUL SWAP6 DUP1 DUP8 DIV PUSH2 0x120 EQ SWAP1 ISZERO OR ISZERO PUSH2 0x42B JUMPI PUSH2 0x274 DUP7 PUSH2 0x89C JUMP JUMPDEST POP PUSH0 NOT DUP2 ADD DUP2 DUP2 GT SWAP7 SWAP1 DUP8 PUSH2 0x42B JUMPI PUSH1 0xA0 DUP2 MUL SWAP2 DUP2 DUP4 DIV PUSH1 0xA0 EQ DUP3 ISZERO OR ISZERO PUSH2 0x42B JUMPI SWAP1 SWAP2 SWAP7 PUSH2 0x2AC PUSH2 0x2A6 DUP11 SWAP10 PUSH2 0x89C JUMP JUMPDEST SWAP3 PUSH2 0x89C JUMP JUMPDEST POP PUSH0 SWAP8 JUMPDEST PUSH2 0x42B JUMPI DUP10 SWAP1 DUP4 DUP10 GT PUSH2 0x365 JUMPI SWAP1 DUP10 SWAP4 SWAP3 SWAP2 PUSH0 JUMPDEST DUP11 PUSH1 0x80 DUP3 LT PUSH2 0x318 JUMPI POP POP PUSH0 JUMPDEST PUSH1 0x20 DUP2 LT PUSH2 0x2F6 JUMPI POP PUSH2 0x2ED SWAP2 PUSH2 0x2E7 SWAP2 PUSH2 0x7F2 JUMP JUMPDEST SWAP9 PUSH2 0x8CE JUMP JUMPDEST SWAP8 SWAP1 SWAP2 SWAP3 PUSH2 0x2B0 JUMP JUMPDEST DUP3 PUSH1 0x1 SWAP3 SWAP4 SWAP5 SWAP6 SWAP7 POP DUP2 BYTE PUSH2 0x30B DUP12 DUP12 PUSH2 0x929 JUMP JUMPDEST MSTORE8 ADD SWAP1 DUP11 SWAP5 SWAP4 SWAP3 SWAP2 PUSH2 0x2D1 JUMP JUMPDEST PUSH1 0x1 SWAP3 SWAP4 SWAP5 SWAP6 SWAP7 POP SWAP10 DUP2 PUSH2 0x344 PUSH2 0x334 PUSH2 0x358 SWAP5 SWAP14 DUP12 DUP14 PUSH2 0x8DC JUMP JUMPDEST PUSH1 0x1 PUSH1 0x1 PUSH1 0xF8 SHL SUB NOT SWAP4 SWAP2 PUSH2 0x91D JUMP JUMPDEST CALLDATALOAD AND PUSH0 BYTE PUSH2 0x352 DUP3 DUP13 PUSH2 0x929 JUMP JUMPDEST MSTORE8 PUSH2 0x8CE JUMP JUMPDEST SWAP9 ADD SWAP1 DUP11 SWAP5 SWAP4 SWAP3 SWAP2 PUSH2 0x2C4 JUMP JUMPDEST POP POP SWAP1 DUP8 SWAP7 POP PUSH2 0x374 DUP6 PUSH2 0x7D9 JUMP JUMPDEST POP DUP9 PUSH0 SWAP8 JUMPDEST PUSH2 0x42B JUMPI PUSH1 0x1 NOT DUP5 ADD DUP3 DUP2 GT PUSH2 0x42B JUMPI DUP9 GT PUSH2 0x417 JUMPI DUP10 SWAP1 PUSH0 JUMPDEST DUP10 PUSH1 0x80 DUP3 LT PUSH2 0x3FA JUMPI POP POP PUSH0 JUMPDEST PUSH1 0x1F DUP2 GT ISZERO PUSH2 0x3C4 JUMPI POP PUSH2 0x3BD SWAP2 PUSH2 0x3B7 SWAP2 PUSH2 0x7F2 JUMP JUMPDEST SWAP8 PUSH2 0x8CE JUMP JUMPDEST SWAP7 DUP9 PUSH2 0x379 JUMP JUMPDEST SWAP2 POP PUSH1 0x20 DUP3 LT ISZERO PUSH2 0x3E6 JUMPI PUSH2 0x3E1 DUP3 DUP13 DUP1 SWAP5 BYTE PUSH2 0x352 DUP12 DUP12 PUSH2 0x929 JUMP JUMPDEST PUSH2 0x3A0 JUMP JUMPDEST PUSH4 0x4E487B71 PUSH1 0xE0 SHL PUSH0 MSTORE PUSH1 0x32 PUSH1 0x4 MSTORE PUSH1 0x24 PUSH0 REVERT JUMPDEST DUP2 SWAP10 PUSH1 0x1 SWAP3 PUSH2 0x344 PUSH2 0x334 PUSH2 0x410 SWAP5 DUP12 DUP14 PUSH2 0x8DC JUMP JUMPDEST SWAP9 ADD PUSH2 0x393 JUMP JUMPDEST PUSH2 0x420 DUP4 PUSH2 0x7D9 JUMP JUMPDEST POP PUSH1 0x20 PUSH1 0x40 MLOAD PUSH0 DUP2 MSTORE RETURN JUMPDEST PUSH4 0x4E487B71 PUSH1 0xE0 SHL PUSH0 MSTORE PUSH1 0x11 PUSH1 0x4 MSTORE PUSH1 0x24 PUSH0 REVERT JUMPDEST CALLVALUE PUSH2 0xD7 JUMPI PUSH0 DUP1 PUSH1 0x20 DUP1 PUSH2 0x455 PUSH2 0xF1 CALLDATASIZE PUSH2 0x748 JUMP JUMPDEST MLOAD SWAP1 PUSH1 0xE GAS STATICCALL POP PUSH2 0xD3 PUSH2 0xC7 PUSH2 0x7AA JUMP JUMPDEST CALLVALUE PUSH2 0xD7 JUMPI PUSH2 0xD3 PUSH2 0xC7 PUSH2 0x47B CALLDATASIZE PUSH2 0x63A JUMP JUMPDEST PUSH2 0x7D9 JUMP JUMPDEST CALLVALUE PUSH2 0xD7 JUMPI PUSH1 0x80 CALLDATASIZE PUSH1 0x3 NOT ADD SLT PUSH2 0xD7 JUMPI PUSH1 0x4 CALLDATALOAD PUSH1 0x1 PUSH1 0x1 PUSH1 0x40 SHL SUB DUP2 GT PUSH2 0xD7 JUMPI PUSH2 0x4B0 SWAP1 CALLDATASIZE SWAP1 PUSH1 0x4 ADD PUSH2 0x6CB JUMP JUMPDEST PUSH1 0x24 CALLDATALOAD PUSH1 0x1 PUSH1 0x1 PUSH1 0x40 SHL SUB DUP2 GT PUSH2 0xD7 JUMPI PUSH2 0x4CF SWAP1 CALLDATASIZE SWAP1 PUSH1 0x4 ADD PUSH2 0x6CB JUMP JUMPDEST SWAP2 SWAP1 PUSH1 0x44 CALLDATALOAD PUSH1 0x1 PUSH1 0x1 PUSH1 0x40 SHL SUB DUP2 GT PUSH2 0xD7 JUMPI PUSH2 0x4F0 SWAP1 CALLDATASIZE SWAP1 PUSH1 0x4 ADD PUSH2 0x6CB JUMP JUMPDEST PUSH1 0x64 SWAP3 SWAP2 SWAP3 CALLDATALOAD PUSH1 0x1 PUSH1 0x1 PUSH1 0x40 SHL SUB DUP2 GT PUSH2 0xD7 JUMPI DUP6 SWAP4 DUP3 SWAP2 PUSH2 0x516 SWAP1 CALLDATASIZE SWAP1 PUSH1 0x4 ADD PUSH2 0x6CB JUMP JUMPDEST SWAP6 DUP7 SWAP5 SWAP2 SWAP6 PUSH1 0x40 MLOAD SWAP10 DUP10 DUP12 SWAP11 PUSH1 0x20 DUP13 ADD SWAP14 DUP15 CALLDATACOPY DUP11 ADD SWAP2 PUSH1 0x20 DUP4 ADD PUSH0 DUP2 MSTORE CALLDATACOPY ADD PUSH1 0x20 ADD SWAP2 PUSH0 DUP4 MSTORE DUP3 CALLDATACOPY ADD SWAP2 PUSH0 DUP4 MSTORE DUP3 CALLDATACOPY ADD PUSH0 DUP2 MSTORE SUB PUSH1 0x1F NOT DUP2 ADD DUP3 MSTORE PUSH2 0x55B SWAP1 DUP3 PUSH2 0x5EA JUMP JUMPDEST MLOAD SWAP1 GAS SWAP2 PUSH0 SWAP3 SWAP2 PUSH1 0xF DUP5 SWAP4 STATICCALL POP PUSH2 0x570 PUSH2 0x7AA JUMP JUMPDEST DUP1 MLOAD PUSH1 0x20 SWAP2 DUP3 ADD MLOAD SWAP1 DUP3 DUP2 LT PUSH2 0x58D JUMPI JUMPDEST POP PUSH1 0x1 PUSH1 0x40 MLOAD SWAP2 EQ DUP2 MSTORE RETURN JUMPDEST PUSH0 NOT SWAP1 DUP4 SUB PUSH1 0x3 SHL SHL AND DUP3 PUSH2 0x581 JUMP JUMPDEST CALLVALUE PUSH2 0xD7 JUMPI PUSH0 DUP1 PUSH1 0x20 PUSH2 0x5B2 PUSH2 0x86 CALLDATASIZE PUSH2 0x6F8 JUMP JUMPDEST MLOAD SWAP1 PUSH1 0xB GAS STATICCALL POP PUSH2 0xD3 PUSH2 0xC7 PUSH2 0x7AA JUMP JUMPDEST CALLVALUE PUSH2 0xD7 JUMPI PUSH0 DUP1 PUSH2 0x5D4 CALLDATASIZE PUSH2 0x63A JUMP JUMPDEST PUSH1 0x20 DUP2 MLOAD SWAP2 ADD PUSH1 0xE GAS STATICCALL POP PUSH2 0xD3 PUSH2 0xC7 PUSH2 0x7AA JUMP JUMPDEST SWAP1 PUSH1 0x1F DUP1 NOT SWAP2 ADD AND DUP2 ADD SWAP1 DUP2 LT PUSH1 0x1 PUSH1 0x1 PUSH1 0x40 SHL SUB DUP3 GT OR PUSH2 0x60B JUMPI PUSH1 0x40 MSTORE JUMP JUMPDEST PUSH4 0x4E487B71 PUSH1 0xE0 SHL PUSH0 MSTORE PUSH1 0x41 PUSH1 0x4 MSTORE PUSH1 0x24 PUSH0 REVERT JUMPDEST PUSH1 0x1 PUSH1 0x1 PUSH1 0x40 SHL SUB DUP2 GT PUSH2 0x60B JUMPI PUSH1 0x1F ADD PUSH1 0x1F NOT AND PUSH1 0x20 ADD SWAP1 JUMP JUMPDEST PUSH1 0x20 PUSH1 0x3 NOT DUP3 ADD SLT PUSH2 0xD7 JUMPI PUSH1 0x4 CALLDATALOAD PUSH1 0x1 PUSH1 0x1 PUSH1 0x40 SHL SUB DUP2 GT PUSH2 0xD7 JUMPI DUP2 PUSH1 0x23 DUP3 ADD SLT ISZERO PUSH2 0xD7 JUMPI DUP1 PUSH1 0x4 ADD CALLDATALOAD SWAP1 PUSH2 0x671 DUP3 PUSH2 0x61F JUMP JUMPDEST SWAP3 PUSH2 0x67F PUSH1 0x40 MLOAD SWAP5 DUP6 PUSH2 0x5EA JUMP JUMPDEST DUP3 DUP5 MSTORE PUSH1 0x24 DUP4 DUP4 ADD ADD GT PUSH2 0xD7 JUMPI DUP2 PUSH0 SWAP3 PUSH1 0x24 PUSH1 0x20 SWAP4 ADD DUP4 DUP7 ADD CALLDATACOPY DUP4 ADD ADD MSTORE SWAP1 JUMP JUMPDEST PUSH1 0x20 PUSH1 0x40 SWAP3 DUP2 DUP4 MSTORE DUP1 MLOAD SWAP2 DUP3 SWAP2 DUP3 DUP3 DUP7 ADD MSTORE ADD DUP5 DUP5 ADD MCOPY PUSH0 DUP3 DUP3 ADD DUP5 ADD MSTORE PUSH1 0x1F ADD PUSH1 0x1F NOT AND ADD ADD SWAP1 JUMP JUMPDEST SWAP2 DUP2 PUSH1 0x1F DUP5 ADD SLT ISZERO PUSH2 0xD7 JUMPI DUP3 CALLDATALOAD SWAP2 PUSH1 0x1 PUSH1 0x1 PUSH1 0x40 SHL SUB DUP4 GT PUSH2 0xD7 JUMPI PUSH1 0x20 DUP4 DUP2 DUP7 ADD SWAP6 ADD ADD GT PUSH2 0xD7 JUMPI JUMP JUMPDEST PUSH1 0x40 PUSH1 0x3 NOT DUP3 ADD SLT PUSH2 0xD7 JUMPI PUSH1 0x4 CALLDATALOAD PUSH1 0x1 PUSH1 0x1 PUSH1 0x40 SHL SUB DUP2 GT PUSH2 0xD7 JUMPI DUP2 PUSH2 0x722 SWAP2 PUSH1 0x4 ADD PUSH2 0x6CB JUMP JUMPDEST SWAP3 SWAP1 SWAP3 SWAP2 PUSH1 0x24 CALLDATALOAD SWAP1 PUSH1 0x1 PUSH1 0x1 PUSH1 0x40 SHL SUB DUP3 GT PUSH2 0xD7 JUMPI PUSH2 0x744 SWAP2 PUSH1 0x4 ADD PUSH2 0x6CB JUMP JUMPDEST SWAP1 SWAP2 JUMP JUMPDEST PUSH1 0x40 PUSH1 0x3 NOT DUP3 ADD SLT PUSH2 0xD7 JUMPI PUSH1 0x4 CALLDATALOAD SWAP1 PUSH1 0x1 PUSH1 0x1 PUSH1 0x40 SHL SUB DUP3 GT PUSH2 0xD7 JUMPI PUSH2 0x772 SWAP2 PUSH1 0x4 ADD PUSH2 0x6CB JUMP JUMPDEST SWAP1 SWAP2 PUSH1 0x24 CALLDATALOAD SWAP1 JUMP JUMPDEST SWAP2 DUP2 PUSH1 0x1F DUP5 ADD SLT ISZERO PUSH2 0xD7 JUMPI DUP3 CALLDATALOAD SWAP2 PUSH1 0x1 PUSH1 0x1 PUSH1 0x40 SHL SUB DUP4 GT PUSH2 0xD7 JUMPI PUSH1 0x20 DUP1 DUP6 ADD SWAP5 DUP5 PUSH1 0x5 SHL ADD ADD GT PUSH2 0xD7 JUMPI JUMP JUMPDEST RETURNDATASIZE ISZERO PUSH2 0x7D4 JUMPI RETURNDATASIZE SWAP1 PUSH2 0x7BB DUP3 PUSH2 0x61F JUMP JUMPDEST SWAP2 PUSH2 0x7C9 PUSH1 0x40 MLOAD SWAP4 DUP5 PUSH2 0x5EA JUMP JUMPDEST DUP3 MSTORE RETURNDATASIZE PUSH0 PUSH1 0x20 DUP5 ADD RETURNDATACOPY JUMP JUMPDEST PUSH1 0x60 SWAP1 JUMP JUMPDEST PUSH0 DUP1 SWAP2 PUSH1 0x20 DUP2 MLOAD SWAP2 ADD PUSH1 0xC GAS STATICCALL POP PUSH2 0x7EF PUSH2 0x7AA JUMP JUMPDEST SWAP1 JUMP JUMPDEST DUP2 DUP2 MUL SWAP3 SWAP2 DUP2 ISZERO SWAP2 DUP5 DIV EQ OR ISZERO PUSH2 0x42B JUMPI JUMP JUMPDEST SWAP1 PUSH1 0x20 DUP4 DUP3 DUP2 MSTORE ADD SWAP1 PUSH1 0x20 DUP2 PUSH1 0x5 SHL DUP6 ADD ADD SWAP4 DUP4 PUSH0 SWAP2 JUMPDEST DUP4 DUP4 LT PUSH2 0x82C JUMPI POP POP POP POP POP POP SWAP1 JUMP JUMPDEST SWAP1 SWAP2 SWAP3 SWAP4 SWAP5 SWAP6 PUSH1 0x1F NOT DUP3 DUP3 SUB ADD DUP7 MSTORE DUP7 CALLDATALOAD PUSH1 0x1E NOT DUP5 CALLDATASIZE SUB ADD DUP2 SLT ISZERO PUSH2 0xD7 JUMPI DUP4 ADD SWAP1 PUSH1 0x20 DUP3 CALLDATALOAD SWAP3 ADD SWAP2 PUSH1 0x1 PUSH1 0x1 PUSH1 0x40 SHL SUB DUP2 GT PUSH2 0xD7 JUMPI DUP1 CALLDATASIZE SUB DUP4 SGT PUSH2 0xD7 JUMPI PUSH1 0x20 DUP3 DUP3 DUP1 PUSH1 0x1 SWAP7 DUP5 SWAP7 SWAP6 DUP6 SWAP7 MSTORE DUP5 DUP5 ADD CALLDATACOPY PUSH0 DUP3 DUP3 ADD DUP5 ADD MSTORE PUSH1 0x1F ADD PUSH1 0x1F NOT AND ADD ADD SWAP9 ADD SWAP7 ADD SWAP5 SWAP4 ADD SWAP2 SWAP1 PUSH2 0x81C JUMP JUMPDEST SWAP1 PUSH2 0x8A6 DUP3 PUSH2 0x61F JUMP JUMPDEST PUSH2 0x8B3 PUSH1 0x40 MLOAD SWAP2 DUP3 PUSH2 0x5EA JUMP JUMPDEST DUP3 DUP2 MSTORE DUP1 SWAP3 PUSH2 0x8C4 PUSH1 0x1F NOT SWAP2 PUSH2 0x61F JUMP JUMPDEST ADD SWAP1 PUSH1 0x20 CALLDATASIZE SWAP2 ADD CALLDATACOPY JUMP JUMPDEST PUSH0 NOT DUP2 EQ PUSH2 0x42B JUMPI PUSH1 0x1 ADD SWAP1 JUMP JUMPDEST SWAP2 SWAP1 DUP2 LT ISZERO PUSH2 0x3E6 JUMPI PUSH1 0x5 SHL DUP2 ADD CALLDATALOAD SWAP1 PUSH1 0x1E NOT DUP2 CALLDATASIZE SUB ADD DUP3 SLT ISZERO PUSH2 0xD7 JUMPI ADD SWAP1 DUP2 CALLDATALOAD SWAP2 PUSH1 0x1 PUSH1 0x1 PUSH1 0x40 SHL SUB DUP4 GT PUSH2 0xD7 JUMPI PUSH1 0x20 ADD DUP3 CALLDATASIZE SUB DUP2 SGT PUSH2 0xD7 JUMPI SWAP2 SWAP1 JUMP JUMPDEST SWAP1 DUP3 LT ISZERO PUSH2 0x3E6 JUMPI ADD SWAP1 JUMP JUMPDEST SWAP1 DUP2 MLOAD DUP2 LT ISZERO PUSH2 0x3E6 JUMPI ADD PUSH1 0x20 ADD SWAP1 JUMP INVALID LOG2 PUSH5 0x6970667358 0x22 SLT KECCAK256 JUMPDEST 0xD6 DUPN 0xB1 0xD9 SDIV 0xB2 MSTORE 0xB6 SDIV BASEFEE PUSH20 0x6A3486CCF43986F34BF31159570FD7F4DBDE882F PUSH5 0x736F6C6343 STOP ADDMOD 0x1F STOP CALLER "
		},
		"gasEstimates": {
			"creation": {
				"codeDepositCost": "483200",
				"executionCost": "525",
				"totalCost": "483725"
			},
			"external": {
				"Check(bytes[],bytes[])": "infinite",
				"G1Add(bytes,bytes)": "infinite",
				"G1Mul(bytes,uint256)": "infinite",
				"G1Muls(bytes)": "infinite",
				"G2Add(bytes,bytes)": "infinite",
				"G2Mul(bytes,uint256)": "infinite",
				"G2Muls(bytes)": "infinite",
				"Pairing(bytes,bytes,bytes,bytes)": "infinite"
			}
		},
		"methodIdentifiers": {
			"Check(bytes[],bytes[])": "afef7de3",
			"G1Add(bytes,bytes)": "4d919405",
			"G1Mul(bytes,uint256)": "c1f2c915",
			"G1Muls(bytes)": "6592041a",
			"G2Add(bytes,bytes)": "d6385d60",
			"G2Mul(bytes,uint256)": "af1d0bd9",
			"G2Muls(bytes)": "3f009c16",
			"Pairing(bytes,bytes,bytes,bytes)": "5cdc73ef"
		}
	},
	"abi": [
		{
			"inputs": [
				{
					"internalType": "bytes[]",
					"name": "g1s",
					"type": "bytes[]"
				},
				{
					"internalType": "bytes[]",
					"name": "g2s",
					"type": "bytes[]"
				}
			],
			"name": "Check",
			"outputs": [
				{
					"internalType": "bool",
					"name": "",
					"type": "bool"
				}
			],
			"stateMutability": "view",
			"type": "function"
		},
		{
			"inputs": [
				{
					"internalType": "bytes",
					"name": "p1",
					"type": "bytes"
				},
				{
					"internalType": "bytes",
					"name": "p2",
					"type": "bytes"
				}
			],
			"name": "G1Add",
			"outputs": [
				{
					"internalType": "bytes",
					"name": "point",
					"type": "bytes"
				}
			],
			"stateMutability": "view",
			"type": "function"
		},
		{
			"inputs": [
				{
					"internalType": "bytes",
					"name": "p1",
					"type": "bytes"
				},
				{
					"internalType": "uint256",
					"name": "scalar",
					"type": "uint256"
				}
			],
			"name": "G1Mul",
			"outputs": [
				{
					"internalType": "bytes",
					"name": "point",
					"type": "bytes"
				}
			],
			"stateMutability": "view",
			"type": "function"
		},
		{
			"inputs": [
				{
					"internalType": "bytes",
					"name": "d",
					"type": "bytes"
				}
			],
			"name": "G1Muls",
			"outputs": [
				{
					"internalType": "bytes",
					"name": "point",
					"type": "bytes"
				}
			],
			"stateMutability": "view",
			"type": "function"
		},
		{
			"inputs": [
				{
					"internalType": "bytes",
					"name": "p1",
					"type": "bytes"
				},
				{
					"internalType": "bytes",
					"name": "p2",
					"type": "bytes"
				}
			],
			"name": "G2Add",
			"outputs": [
				{
					"internalType": "bytes",
					"name": "point",
					"type": "bytes"
				}
			],
			"stateMutability": "view",
			"type": "function"
		},
		{
			"inputs": [
				{
					"internalType": "bytes",
					"name": "p1",
					"type": "bytes"
				},
				{
					"internalType": "uint256",
					"name": "scalar",
					"type": "uint256"
				}
			],
			"name": "G2Mul",
			"outputs": [
				{
					"internalType": "bytes",
					"name": "point",
					"type": "bytes"
				}
			],
			"stateMutability": "view",
			"type": "function"
		},
		{
			"inputs": [
				{
					"internalType": "bytes",
					"name": "d",
					"type": "bytes"
				}
			],
			"name": "G2Muls",
			"outputs": [
				{
					"internalType": "bytes",
					"name": "point",
					"type": "bytes"
				}
			],
			"stateMutability": "view",
			"type": "function"
		},
		{
			"inputs": [
				{
					"internalType": "bytes",
					"name": "p1",
					"type": "bytes"
				},
				{
					"internalType": "bytes",
					"name": "p2",
					"type": "bytes"
				},
				{
					"internalType": "bytes",
					"name": "p3",
					"type": "bytes"
				},
				{
					"internalType": "bytes",
					"name": "p4",
					"type": "bytes"
				}
			],
			"name": "Pairing",
			"outputs": [
				{
					"internalType": "bool",
					"name": "",
					"type": "bool"
				}
			],
			"stateMutability": "view",
			"type": "function"
		}
	]
}